{
  "abi": [
    {
      "inputs": [],
      "stateMutability": "nonpayable",
      "type": "constructor"
    },
    {
      "anonymous": false,
      "inputs": [
        {
          "indexed": false,
          "internalType": "uint8",
          "name": "version",
          "type": "uint8"
        }
      ],
      "name": "Initialized",
      "type": "event"
    },
    {
      "anonymous": false,
      "inputs": [
        {
          "indexed": true,
          "internalType": "bytes32",
          "name": "role",
          "type": "bytes32"
        },
        {
          "indexed": true,
          "internalType": "bytes32",
          "name": "previousAdminRole",
          "type": "bytes32"
        },
        {
          "indexed": true,
          "internalType": "bytes32",
          "name": "newAdminRole",
          "type": "bytes32"
        }
      ],
      "name": "RoleAdminChanged",
      "type": "event"
    },
    {
      "anonymous": false,
      "inputs": [
        {
          "indexed": true,
          "internalType": "bytes32",
          "name": "role",
          "type": "bytes32"
        },
        {
          "indexed": true,
          "internalType": "address",
          "name": "account",
          "type": "address"
        },
        {
          "indexed": true,
          "internalType": "address",
          "name": "sender",
          "type": "address"
        }
      ],
      "name": "RoleGranted",
      "type": "event"
    },
    {
      "anonymous": false,
      "inputs": [
        {
          "indexed": true,
          "internalType": "bytes32",
          "name": "role",
          "type": "bytes32"
        },
        {
          "indexed": true,
          "internalType": "address",
          "name": "account",
          "type": "address"
        },
        {
          "indexed": true,
          "internalType": "address",
          "name": "sender",
          "type": "address"
        }
      ],
      "name": "RoleRevoked",
      "type": "event"
    },
    {
      "inputs": [],
      "name": "DEFAULT_ADMIN_ROLE",
      "outputs": [
        {
          "internalType": "bytes32",
          "name": "",
          "type": "bytes32"
        }
      ],
      "stateMutability": "view",
      "type": "function"
    },
    {
      "inputs": [],
      "name": "MANAGER",
      "outputs": [
        {
          "internalType": "bytes32",
          "name": "",
          "type": "bytes32"
        }
      ],
      "stateMutability": "view",
      "type": "function"
    },
    {
      "inputs": [
        {
          "internalType": "address",
          "name": "account",
          "type": "address"
        }
      ],
      "name": "addManager",
      "outputs": [],
      "stateMutability": "nonpayable",
      "type": "function"
    },
    {
      "inputs": [
        {
          "internalType": "bytes4",
          "name": "selector",
          "type": "bytes4"
        },
        {
          "internalType": "address",
          "name": "addressFromSelector",
          "type": "address"
        }
      ],
      "name": "addSelector",
      "outputs": [],
      "stateMutability": "nonpayable",
      "type": "function"
    },
    {
      "inputs": [
        {
          "internalType": "bytes4[]",
          "name": "selectors",
          "type": "bytes4[]"
        },
        {
          "internalType": "address",
          "name": "addressFromSelector",
          "type": "address"
        }
      ],
      "name": "addSelectorsBatch",
      "outputs": [],
      "stateMutability": "nonpayable",
      "type": "function"
    },
    {
      "inputs": [
        {
          "internalType": "address",
          "name": "",
          "type": "address"
        },
        {
          "internalType": "uint256",
          "name": "",
          "type": "uint256"
        }
      ],
      "name": "addressSelectors",
      "outputs": [
        {
          "internalType": "bytes4",
          "name": "",
          "type": "bytes4"
        }
      ],
      "stateMutability": "view",
      "type": "function"
    },
    {
      "inputs": [
        {
          "internalType": "uint256",
          "name": "",
          "type": "uint256"
        }
      ],
      "name": "addresses",
      "outputs": [
        {
          "internalType": "address",
          "name": "",
          "type": "address"
        }
      ],
      "stateMutability": "view",
      "type": "function"
    },
    {
      "inputs": [
        {
          "internalType": "bytes4",
          "name": "oldSelector",
          "type": "bytes4"
        },
        {
          "internalType": "bytes4",
          "name": "newSelector",
          "type": "bytes4"
        }
      ],
      "name": "changeSelector",
      "outputs": [],
      "stateMutability": "nonpayable",
      "type": "function"
    },
    {
      "inputs": [
        {
          "internalType": "address",
          "name": "_address",
          "type": "address"
        }
      ],
      "name": "deleteAllAddressSelectors",
      "outputs": [],
      "stateMutability": "nonpayable",
      "type": "function"
    },
    {
      "inputs": [
        {
          "internalType": "bytes4",
          "name": "selector",
          "type": "bytes4"
        }
      ],
      "name": "deleteSelector",
      "outputs": [],
      "stateMutability": "nonpayable",
      "type": "function"
    },
    {
      "inputs": [
        {
          "internalType": "bytes4",
          "name": "selector",
          "type": "bytes4"
        }
      ],
      "name": "getAddress",
      "outputs": [
        {
          "internalType": "address",
          "name": "",
          "type": "address"
        }
      ],
      "stateMutability": "view",
      "type": "function"
    },
    {
      "inputs": [
        {
          "internalType": "address",
          "name": "_address",
          "type": "address"
        }
      ],
      "name": "getAddressSelectors",
      "outputs": [
        {
          "internalType": "bytes4[]",
          "name": "",
          "type": "bytes4[]"
        }
      ],
      "stateMutability": "view",
      "type": "function"
    },
    {
      "inputs": [],
      "name": "getAddresses",
      "outputs": [
        {
          "internalType": "address[]",
          "name": "",
          "type": "address[]"
        }
      ],
      "stateMutability": "view",
      "type": "function"
    },
    {
      "inputs": [
        {
          "internalType": "bytes32",
          "name": "role",
          "type": "bytes32"
        }
      ],
      "name": "getRoleAdmin",
      "outputs": [
        {
          "internalType": "bytes32",
          "name": "",
          "type": "bytes32"
        }
      ],
      "stateMutability": "view",
      "type": "function"
    },
    {
      "inputs": [
        {
          "internalType": "bytes32",
          "name": "role",
          "type": "bytes32"
        },
        {
          "internalType": "address",
          "name": "account",
          "type": "address"
        }
      ],
      "name": "grantRole",
      "outputs": [],
      "stateMutability": "nonpayable",
      "type": "function"
    },
    {
      "inputs": [
        {
          "internalType": "bytes32",
          "name": "role",
          "type": "bytes32"
        },
        {
          "internalType": "address",
          "name": "account",
          "type": "address"
        }
      ],
      "name": "hasRole",
      "outputs": [
        {
          "internalType": "bool",
          "name": "",
          "type": "bool"
        }
      ],
      "stateMutability": "view",
      "type": "function"
    },
    {
      "inputs": [],
      "name": "initialize",
      "outputs": [],
      "stateMutability": "nonpayable",
      "type": "function"
    },
    {
      "inputs": [],
      "name": "paused",
      "outputs": [
        {
          "internalType": "bool",
          "name": "",
          "type": "bool"
        }
      ],
      "stateMutability": "view",
      "type": "function"
    },
    {
      "inputs": [
        {
          "internalType": "address",
          "name": "account",
          "type": "address"
        }
      ],
      "name": "removeManager",
      "outputs": [],
      "stateMutability": "nonpayable",
      "type": "function"
    },
    {
      "inputs": [
        {
          "internalType": "bytes32",
          "name": "role",
          "type": "bytes32"
        },
        {
          "internalType": "address",
          "name": "account",
          "type": "address"
        }
      ],
      "name": "renounceRole",
      "outputs": [],
      "stateMutability": "nonpayable",
      "type": "function"
    },
    {
      "inputs": [
        {
          "internalType": "bytes32",
          "name": "role",
          "type": "bytes32"
        },
        {
          "internalType": "address",
          "name": "account",
          "type": "address"
        }
      ],
      "name": "revokeRole",
      "outputs": [],
      "stateMutability": "nonpayable",
      "type": "function"
    },
    {
      "inputs": [
        {
          "internalType": "bytes4",
          "name": "",
          "type": "bytes4"
        }
      ],
      "name": "selectorToAddress",
      "outputs": [
        {
          "internalType": "address",
          "name": "",
          "type": "address"
        }
      ],
      "stateMutability": "view",
      "type": "function"
    },
    {
      "inputs": [
        {
          "internalType": "bytes4",
          "name": "interfaceId",
          "type": "bytes4"
        }
      ],
      "name": "supportsInterface",
      "outputs": [
        {
          "internalType": "bool",
          "name": "",
          "type": "bool"
        }
      ],
      "stateMutability": "view",
      "type": "function"
    }
  ],
  "bytecode": {
    "object": "0x608060405234801561001057600080fd5b5061001961001e565b6100de565b600054610100900460ff161561008a5760405162461bcd60e51b815260206004820152602760248201527f496e697469616c697a61626c653a20636f6e747261637420697320696e697469604482015266616c697a696e6760c81b606482015260840160405180910390fd5b60005460ff90811610156100dc576000805460ff191660ff9081179091556040519081527f7f26b83ff96e1f2b6a682f133852f6798a09c465da95921460cefb38474024989060200160405180910390a15b565b611861806100ed6000396000f3fe608060405234801561001057600080fd5b506004361061014d5760003560e01c806391d14854116100c3578063af16fc441161007c578063af16fc44146102f9578063d547741f1461030c578063db84678d1461031f578063e0435c0b14610332578063edf26d9b14610345578063fd23a06a1461035857600080fd5b806391d148541461027a57806397686f471461028d578063a217fddf146102a0578063a39fac12146102a8578063a4666aeb146102bd578063ac18de43146102e657600080fd5b80632d06177a116101155780632d06177a146102015780632f2ff15d1461021457806336568abe14610227578063552aaedb1461023a5780635c975abb146102655780638129fc1c1461027257600080fd5b8063015bf8b31461015257806301cb05401461016757806301ffc9a7146101985780631b2df850146101bb578063248a9ca3146101de575b600080fd5b6101656101603660046115d3565b610378565b005b61017a61017536600461144b565b610444565b6040516001600160e01b031990911681526020015b60405180910390f35b6101ab6101a6366004611590565b61048a565b604051901515815260200161018f565b6101d060008051602061180c83398151915281565b60405190815260200161018f565b6101d06101ec36600461154d565b60009081526065602052604090206001015490565b61016561020f366004611431565b6104c1565b610165610222366004611565565b6104e8565b610165610235366004611565565b610512565b61024d610248366004611590565b61058c565b6040516001600160a01b03909116815260200161018f565b6097546101ab9060ff1681565b6101656105fc565b6101ab610288366004611565565b610732565b61016561029b366004611474565b61075d565b6101d0600081565b6102b06107e0565b60405161018f9190611671565b61024d6102cb366004611590565b609c602052600090815260409020546001600160a01b031681565b6101656102f4366004611431565b610842565b6101656103073660046115aa565b610865565b61016561031a366004611565565b6109c4565b61016561032d366004611431565b6109e9565b610165610340366004611590565b610b13565b61024d61035336600461154d565b610bbf565b61036b610366366004611431565b610be9565b60405161018f91906116be565b600061038381610c82565b6001600160e01b031982166000908152609c60205260409020546001600160a01b0316156104085760405162461bcd60e51b815260206004820152602760248201527f546865206e65772073656c6563746f7220616c72656164792068617320616e206044820152666164647265737360c81b60648201526084015b60405180910390fd5b6001600160e01b031983166000908152609c60205260409020546001600160a01b031661043484610b13565b61043e8382610865565b50505050565b609a602052816000526040600020818154811061046057600080fd5b9060005260206000209060089182820401919006600402915091509054906101000a900460e01b81565b60006001600160e01b03198216637965db0b60e01b14806104bb57506301ffc9a760e01b6001600160e01b03198316145b92915050565b60006104cc81610c82565b6104e460008051602061180c83398151915283610c8c565b5050565b60008281526065602052604090206001015461050381610c82565b61050d8383610c8c565b505050565b6001600160a01b03811633146105825760405162461bcd60e51b815260206004820152602f60248201527f416363657373436f6e74726f6c3a2063616e206f6e6c792072656e6f756e636560448201526e103937b632b9903337b91039b2b63360891b60648201526084016103ff565b6104e48282610d12565b6001600160e01b031981166000908152609c60205260408120546001600160a01b0316806104bb5760405162461bcd60e51b815260206004820152601760248201527f46756e6374696f6e20646f6573206e6f7420657869737400000000000000000060448201526064016103ff565b600054610100900460ff161580801561061c5750600054600160ff909116105b806106365750303b158015610636575060005460ff166001145b6106995760405162461bcd60e51b815260206004820152602e60248201527f496e697469616c697a61626c653a20636f6e747261637420697320616c72656160448201526d191e481a5b9a5d1a585b1a5e995960921b60648201526084016103ff565b6000805460ff1916600117905580156106bc576000805461ff0019166101001790555b6097805460ff191690556106d1600033610c8c565b6106e960008051602061180c83398151915233610c8c565b801561072f576000805461ff0019169055604051600181527f7f26b83ff96e1f2b6a682f133852f6798a09c465da95921460cefb38474024989060200160405180910390a15b50565b60009182526065602090815260408084206001600160a01b0393909316845291905290205460ff1690565b815160005b8181101561043e57600084828151811061078c57634e487b7160e01b600052603260045260246000fd5b6020908102919091018101516001600160e01b031981166000908152609c9092526040909120549091506001600160a01b03166107cd576107cd8185610865565b50806107d8816117c4565b915050610762565b6060609880548060200260200160405190810160405280929190818152602001828054801561083857602002820191906000526020600020905b81546001600160a01b0316815260019091019060200180831161081a575b5050505050905090565b600061084d81610c82565b6104e460008051602061180c83398151915283610d12565b600061087081610c82565b6001600160e01b031983166000908152609c60205260409020546001600160a01b0316156108f25760405162461bcd60e51b815260206004820152602960248201527f53656c6563746f7220616c72656164792073657474656420666f7220676976656044820152686e206164647265737360b81b60648201526084016103ff565b6001600160a01b03821661093c5760405162461bcd60e51b8152602060048201526011602482015270496e636f7272656374206164647265737360781b60448201526064016103ff565b6001600160e01b031983166109885760405162461bcd60e51b815260206004820152601260248201527124b731b7b93932b1ba1039b2b632b1ba37b960711b60448201526064016103ff565b6001600160e01b031983166000908152609c6020526040902080546001600160a01b0319166001600160a01b03841617905561050d8383610d79565b6000828152606560205260409020600101546109df81610c82565b61050d8383610d12565b60006109f481610c82565b6001600160a01b0382166000908152609a602052604090205480610a4c5760405162461bcd60e51b815260206004820152600f60248201526e556e6b6e6f776e206164647265737360881b60448201526064016103ff565b6000610a5960018361176a565b90505b8015610ad9576001600160a01b0384166000908152609a602052604090208054610ac7919083908110610a9f57634e487b7160e01b600052603260045260246000fd5b90600052602060002090600891828204019190066004029054906101000a900460e01b610b13565b80610ad1816117ad565b915050610a5c565b506001600160a01b0383166000908152609a60205260408120805461050d9290610a9f57634e487b7160e01b600052603260045260246000fd5b6000610b1e81610c82565b6001600160e01b031982166000908152609c60205260409020546001600160a01b0316610b8d5760405162461bcd60e51b815260206004820152601860248201527f5468652073656c6563746f7220776173206e6f7420736574000000000000000060448201526064016103ff565b610b9682610e69565b506001600160e01b0319166000908152609c6020526040902080546001600160a01b0319169055565b60988181548110610bcf57600080fd5b6000918252602090912001546001600160a01b0316905081565b6001600160a01b0381166000908152609a6020908152604091829020805483518184028101840190945280845260609392830182828015610c7657602002820191906000526020600020906000905b82829054906101000a900460e01b6001600160e01b03191681526020019060040190602082600301049283019260010382029150808411610c385790505b50505050509050919050565b61072f813361109d565b610c968282610732565b6104e45760008281526065602090815260408083206001600160a01b03851684529091529020805460ff19166001179055610cce3390565b6001600160a01b0316816001600160a01b0316837f2f8788117e7eff1d82e926ec794901d17c78024a50270940304540a733656f0d60405160405180910390a45050565b610d1c8282610732565b156104e45760008281526065602090815260408083206001600160a01b0385168085529252808320805460ff1916905551339285917ff6391f5c32d9c69d2a47ea670b442974b53935d1edc7fd64eb21e047a839171b9190a45050565b6001600160a01b0381166000908152609a6020526040902054610df357609880546001600160a01b0383166000818152609960205260408120839055600183018455929092527f2237a976fa961f5921fd19f2b03c925c725d77b20ce8f790c19709c03de4d8140180546001600160a01b03191690911790555b6001600160a01b03166000908152609a602081815260408084208054609b84528286206001600160e01b03198816875284529185208290559282526001810183559183529091206008820401805463ffffffff60079093166004026101000a928302191660e09390931c91909102919091179055565b6001600160e01b031981166000818152609c60209081526040808320546001600160a01b0316808452609b835281842094845293825280832054848452609a909252822054909190610ebd9060019061176a565b6001600160a01b0384166000908152609a602052604081208054929350909183908110610efa57634e487b7160e01b600052603260045260246000fd5b600091825260208083206008830401546001600160a01b0388168452609a9091526040909220805460079092166004026101000a90920460e01b925083908110610f5457634e487b7160e01b600052603260045260246000fd5b90600052602060002090600891828204019190066004029054906101000a900460e01b609a6000866001600160a01b03166001600160a01b031681526020019081526020016000208481548110610fbb57634e487b7160e01b600052603260045260246000fd5b600091825260208083206008830401805463ffffffff60079094166004026101000a938402191660e09590951c929092029390931790556001600160a01b038616808252609b835260408083206001600160e01b0319861684528452808320879055908252609a9092522080548061104357634e487b7160e01b600052603160045260246000fd5b60008281526020808220600860001990940193840401805463ffffffff600460078716026101000a0219169055919092556001600160a01b0386168252609a905260409020546110965761109684611101565b5050505050565b6110a78282610732565b6104e4576110bf816001600160a01b03166014611214565b6110ca836020611214565b6040516020016110db9291906115fc565b60408051601f198184030181529082905262461bcd60e51b82526103ff91600401611700565b6001600160a01b03811660009081526099602052604081205460985490919061112c9060019061176a565b905060006098828154811061115157634e487b7160e01b600052603260045260246000fd5b60009182526020808320909101546001600160a01b0316808352609990915260409091208490556098805491925082918590811061119f57634e487b7160e01b600052603260045260246000fd5b9060005260206000200160006101000a8154816001600160a01b0302191690836001600160a01b0316021790555060988054806111ec57634e487b7160e01b600052603160045260246000fd5b600082815260209020810160001990810180546001600160a01b031916905501905550505050565b6060600061122383600261174b565b61122e906002611733565b67ffffffffffffffff81111561125457634e487b7160e01b600052604160045260246000fd5b6040519080825280601f01601f19166020018201604052801561127e576020820181803683370190505b509050600360fc1b816000815181106112a757634e487b7160e01b600052603260045260246000fd5b60200101906001600160f81b031916908160001a905350600f60fb1b816001815181106112e457634e487b7160e01b600052603260045260246000fd5b60200101906001600160f81b031916908160001a905350600061130884600261174b565b611313906001611733565b90505b60018111156113a7576f181899199a1a9b1b9c1cb0b131b232b360811b85600f166010811061135557634e487b7160e01b600052603260045260246000fd5b1a60f81b82828151811061137957634e487b7160e01b600052603260045260246000fd5b60200101906001600160f81b031916908160001a90535060049490941c936113a0816117ad565b9050611316565b5083156113f65760405162461bcd60e51b815260206004820181905260248201527f537472696e67733a20686578206c656e67746820696e73756666696369656e7460448201526064016103ff565b9392505050565b80356001600160a01b038116811461141457600080fd5b919050565b80356001600160e01b03198116811461141457600080fd5b600060208284031215611442578081fd5b6113f6826113fd565b6000806040838503121561145d578081fd5b611466836113fd565b946020939093013593505050565b60008060408385031215611486578182fd5b823567ffffffffffffffff8082111561149d578384fd5b818501915085601f8301126114b0578384fd5b81356020828211156114c4576114c46117f5565b8160051b604051601f19603f830116810181811086821117156114e9576114e96117f5565b604052838152828101945085830182870184018b1015611507578889fd5b8896505b848710156115305761151c81611419565b86526001969096019594830194830161150b565b50965061154090508782016113fd565b9450505050509250929050565b60006020828403121561155e578081fd5b5035919050565b60008060408385031215611577578182fd5b82359150611587602084016113fd565b90509250929050565b6000602082840312156115a1578081fd5b6113f682611419565b600080604083850312156115bc578182fd5b6115c583611419565b9150611587602084016113fd565b600080604083850312156115e5578182fd5b6115ee83611419565b915061158760208401611419565b7f416363657373436f6e74726f6c3a206163636f756e7420000000000000000000815260008351611634816017850160208801611781565b7001034b99036b4b9b9b4b733903937b6329607d1b6017918401918201528351611665816028840160208801611781565b01602801949350505050565b6020808252825182820181905260009190848201906040850190845b818110156116b25783516001600160a01b03168352928401929184019160010161168d565b50909695505050505050565b6020808252825182820181905260009190848201906040850190845b818110156116b25783516001600160e01b031916835292840192918401916001016116da565b602081526000825180602084015261171f816040850160208701611781565b601f01601f19169190910160400192915050565b60008219821115611746576117466117df565b500190565b6000816000190483118215151615611765576117656117df565b500290565b60008282101561177c5761177c6117df565b500390565b60005b8381101561179c578181015183820152602001611784565b8381111561043e5750506000910152565b6000816117bc576117bc6117df565b506000190190565b60006000198214156117d8576117d86117df565b5060010190565b634e487b7160e01b600052601160045260246000fd5b634e487b7160e01b600052604160045260246000fdfeaf290d8680820aad922855f39b306097b20e28774d6c1ad35a20325630c3a02ca2646970667358221220b6841b2239b580d31ad3bca2e16d2e8935dcacc01d09f053ee312a9eb56a2faa64736f6c63430008040033",
    "linkReferences": {}
  },
  "methodIdentifiers": {
    "DEFAULT_ADMIN_ROLE()": "a217fddf",
    "MANAGER()": "1b2df850",
    "addManager(address)": "2d06177a",
    "addSelector(bytes4,address)": "af16fc44",
    "addSelectorsBatch(bytes4[],address)": "97686f47",
    "addressSelectors(address,uint256)": "01cb0540",
    "addresses(uint256)": "edf26d9b",
    "changeSelector(bytes4,bytes4)": "015bf8b3",
    "deleteAllAddressSelectors(address)": "db84678d",
    "deleteSelector(bytes4)": "e0435c0b",
    "getAddress(bytes4)": "552aaedb",
    "getAddressSelectors(address)": "fd23a06a",
    "getAddresses()": "a39fac12",
    "getRoleAdmin(bytes32)": "248a9ca3",
    "grantRole(bytes32,address)": "2f2ff15d",
    "hasRole(bytes32,address)": "91d14854",
    "initialize()": "8129fc1c",
    "paused()": "5c975abb",
    "removeManager(address)": "ac18de43",
    "renounceRole(bytes32,address)": "36568abe",
    "revokeRole(bytes32,address)": "d547741f",
    "selectorToAddress(bytes4)": "a4666aeb",
    "supportsInterface(bytes4)": "01ffc9a7"
  },
  "id": 8
}