{
  "abi": [
    {
      "inputs": [
        {
          "internalType": "contract MockERC20",
          "name": "_lp",
          "type": "address"
        },
        {
          "internalType": "contract MockERC20",
          "name": "_nastr",
          "type": "address"
        }
      ],
      "stateMutability": "nonpayable",
      "type": "constructor"
    },
    {
      "inputs": [
        {
          "internalType": "uint256[]",
          "name": "amounts",
          "type": "uint256[]"
        },
        {
          "internalType": "uint256",
          "name": "minToMint",
          "type": "uint256"
        },
        {
          "internalType": "uint256",
          "name": "deadline",
          "type": "uint256"
        }
      ],
      "name": "addLiquidity",
      "outputs": [
        {
          "internalType": "uint256",
          "name": "",
          "type": "uint256"
        }
      ],
      "stateMutability": "payable",
      "type": "function"
    },
    {
      "inputs": [
        {
          "internalType": "uint256",
          "name": "amount",
          "type": "uint256"
        }
      ],
      "name": "calculateRemoveLiquidity",
      "outputs": [
        {
          "internalType": "uint256[]",
          "name": "",
          "type": "uint256[]"
        }
      ],
      "stateMutability": "view",
      "type": "function"
    },
    {
      "inputs": [
        {
          "internalType": "uint256[]",
          "name": "amounts",
          "type": "uint256[]"
        },
        {
          "internalType": "bool",
          "name": "deposit",
          "type": "bool"
        }
      ],
      "name": "calculateTokenAmount",
      "outputs": [
        {
          "internalType": "uint256",
          "name": "",
          "type": "uint256"
        }
      ],
      "stateMutability": "view",
      "type": "function"
    },
    {
      "inputs": [],
      "name": "lp",
      "outputs": [
        {
          "internalType": "contract MockERC20",
          "name": "",
          "type": "address"
        }
      ],
      "stateMutability": "view",
      "type": "function"
    },
    {
      "inputs": [],
      "name": "nastr",
      "outputs": [
        {
          "internalType": "contract MockERC20",
          "name": "",
          "type": "address"
        }
      ],
      "stateMutability": "view",
      "type": "function"
    },
    {
      "inputs": [
        {
          "internalType": "uint256",
          "name": "amount",
          "type": "uint256"
        },
        {
          "internalType": "uint256[]",
          "name": "minAmounts",
          "type": "uint256[]"
        },
        {
          "internalType": "uint256",
          "name": "deadline",
          "type": "uint256"
        }
      ],
      "name": "removeLiquidity",
      "outputs": [
        {
          "internalType": "uint256[]",
          "name": "",
          "type": "uint256[]"
        }
      ],
      "stateMutability": "nonpayable",
      "type": "function"
    },
    {
      "inputs": [],
      "name": "reservesN",
      "outputs": [
        {
          "internalType": "uint256",
          "name": "",
          "type": "uint256"
        }
      ],
      "stateMutability": "view",
      "type": "function"
    },
    {
      "inputs": [],
      "name": "reservesT",
      "outputs": [
        {
          "internalType": "uint256",
          "name": "",
          "type": "uint256"
        }
      ],
      "stateMutability": "view",
      "type": "function"
    },
    {
      "stateMutability": "payable",
      "type": "receive"
    }
  ],
  "bytecode": {
    "object": "0x608060405234801561001057600080fd5b50604051610b7c380380610b7c83398101604081905261002f9161008e565b600080546001600160a01b039384166001600160a01b0319918216179091556001805492909316911617905568056bc75e2d6310000060028190556003556100c0565b80516001600160a01b038116811461008957600080fd5b919050565b600080604083850312156100a0578182fd5b6100a983610072565b91506100b760208401610072565b90509250929050565b610aad806100cf6000396000f3fe60806040526004361061007f5760003560e01c80634d49e87d1161004e5780634d49e87d146101395780635d8de3161461014c578063e6ab280614610162578063f2fad2b61461018257600080fd5b8063313c06a01461008b57806331cd52b0146100c857806342c99509146100f55780634a6846ec1461011557600080fd5b3661008657005b600080fd5b34801561009757600080fd5b506000546100ab906001600160a01b031681565b6040516001600160a01b0390911681526020015b60405180910390f35b3480156100d457600080fd5b506100e86100e33660046108b4565b6101a2565b6040516100bf9190610988565b34801561010157600080fd5b506001546100ab906001600160a01b031681565b34801561012157600080fd5b5061012b60025481565b6040519081526020016100bf565b61012b610147366004610812565b6103ad565b34801561015857600080fd5b5061012b60035481565b34801561016e57600080fd5b5061012b61017d3660046107bd565b6105cd565b34801561018e57600080fd5b506100e861019d366004610884565b610631565b60008054604080516318160ddd60e01b81529051606093926001600160a01b0316916318160ddd916004808301926020929190829003018186803b1580156101e957600080fd5b505afa1580156101fd573d6000803e3d6000fd5b505050506040513d601f19601f82011682018060405250810190610221919061089c565b600054604051632770a7eb60e21b8152336004820152602481018890529192506001600160a01b031690639dc29fac90604401600060405180830381600087803b15801561026e57600080fd5b505af1158015610282573d6000803e3d6000fd5b50505050600081866003546102979190610a04565b6102a191906109e4565b9050600082876002546102b49190610a04565b6102be91906109e4565b905081600360008282546102d29190610a23565b9250508190555080600260008282546102eb9190610a23565b909155505060015460405163a9059cbb60e01b8152336004820152602481018390526001600160a01b039091169063a9059cbb90604401602060405180830381600087803b15801561033c57600080fd5b505af1158015610350573d6000803e3d6000fd5b505050506040513d601f19601f820116820180604052508101906103749190610861565b50604051339083156108fc029084906000818181858888f193505050501580156103a2573d6000803e3d6000fd5b505050509392505050565b6000600160009054906101000a90046001600160a01b03166001600160a01b03166323b872dd3330888860018181106103f657634e487b7160e01b600052603260045260246000fd5b6040516001600160e01b031960e088901b1681526001600160a01b03958616600482015294909316602485015250602090910201356044820152606401602060405180830381600087803b15801561044d57600080fd5b505af1158015610461573d6000803e3d6000fd5b505050506040513d601f19601f820116820180604052508101906104859190610861565b506000858560018181106104a957634e487b7160e01b600052603260045260246000fd5b90506020020135868660008181106104d157634e487b7160e01b600052603260045260246000fd5b905060200201356104e291906109cc565b90508585600181811061050557634e487b7160e01b600052603260045260246000fd5b905060200201356002600082825461051d91906109cc565b909155508690508560008161054257634e487b7160e01b600052603260045260246000fd5b905060200201356003600082825461055a91906109cc565b90915550506000546040516340c10f1960e01b8152336004820152602481018390526001600160a01b03909116906340c10f1990604401600060405180830381600087803b1580156105ab57600080fd5b505af11580156105bf573d6000803e3d6000fd5b509298975050505050505050565b6000838360018181106105f057634e487b7160e01b600052603260045260246000fd5b905060200201358484600081811061061857634e487b7160e01b600052603260045260246000fd5b9050602002013561062991906109cc565b949350505050565b60008054604080516318160ddd60e01b81529051606093926001600160a01b0316916318160ddd916004808301926020929190829003018186803b15801561067857600080fd5b505afa15801561068c573d6000803e3d6000fd5b505050506040513d601f19601f820116820180604052508101906106b0919061089c565b9050600081846003546106c39190610a04565b6106cd91906109e4565b9050600082856002546106e09190610a04565b6106ea91906109e4565b604080516002808252606082018352929350600092909160208301908036833701905050905082828260008151811061073357634e487b7160e01b600052603260045260246000fd5b602002602001018360018151811061075b57634e487b7160e01b600052603260045260246000fd5b60209081029190910101919091525295945050505050565b60008083601f840112610784578081fd5b50813567ffffffffffffffff81111561079b578182fd5b6020830191508360208260051b85010111156107b657600080fd5b9250929050565b6000806000604084860312156107d1578283fd5b833567ffffffffffffffff8111156107e7578384fd5b6107f386828701610773565b909450925050602084013561080781610a66565b809150509250925092565b60008060008060608587031215610827578081fd5b843567ffffffffffffffff81111561083d578182fd5b61084987828801610773565b90989097506020870135966040013595509350505050565b600060208284031215610872578081fd5b815161087d81610a66565b9392505050565b600060208284031215610895578081fd5b5035919050565b6000602082840312156108ad578081fd5b5051919050565b6000806000606084860312156108c8578283fd5b8335925060208085013567ffffffffffffffff808211156108e7578485fd5b818701915087601f8301126108fa578485fd5b81358181111561090c5761090c610a50565b8060051b604051601f19603f8301168101818110858211171561093157610931610a50565b604052828152858101935084860182860187018c101561094f578889fd5b8895505b83861015610971578035855260019590950194938601938601610953565b50979a979950505050604095909501359450505050565b6020808252825182820181905260009190848201906040850190845b818110156109c0578351835292840192918401916001016109a4565b50909695505050505050565b600082198211156109df576109df610a3a565b500190565b6000826109ff57634e487b7160e01b81526012600452602481fd5b500490565b6000816000190483118215151615610a1e57610a1e610a3a565b500290565b600082821015610a3557610a35610a3a565b500390565b634e487b7160e01b600052601160045260246000fd5b634e487b7160e01b600052604160045260246000fd5b8015158114610a7457600080fd5b5056fea2646970667358221220c9cd1f21d4ef8c6b25c4afb20e87c81c47bf1dfe462d6ef0872c6af6a4d3e5c664736f6c63430008040033",
    "linkReferences": {}
  },
  "methodIdentifiers": {
    "addLiquidity(uint256[],uint256,uint256)": "4d49e87d",
    "calculateRemoveLiquidity(uint256)": "f2fad2b6",
    "calculateTokenAmount(uint256[],bool)": "e6ab2806",
    "lp()": "313c06a0",
    "nastr()": "42c99509",
    "removeLiquidity(uint256,uint256[],uint256)": "31cd52b0",
    "reservesN()": "4a6846ec",
    "reservesT()": "5d8de316"
  },
  "id": 25
}