{
  "abi": [
    {
      "anonymous": false,
      "inputs": [
        {
          "indexed": false,
          "internalType": "address",
          "name": "owner",
          "type": "address"
        },
        {
          "indexed": true,
          "internalType": "string",
          "name": "assetName",
          "type": "string"
        },
        {
          "indexed": true,
          "internalType": "address",
          "name": "assetAddress",
          "type": "address"
        }
      ],
      "name": "AddAsset",
      "type": "event"
    },
    {
      "anonymous": false,
      "inputs": [
        {
          "indexed": false,
          "internalType": "uint8",
          "name": "version",
          "type": "uint8"
        }
      ],
      "name": "Initialized",
      "type": "event"
    },
    {
      "anonymous": false,
      "inputs": [
        {
          "indexed": true,
          "internalType": "address",
          "name": "previousOwner",
          "type": "address"
        },
        {
          "indexed": true,
          "internalType": "address",
          "name": "newOwner",
          "type": "address"
        }
      ],
      "name": "OwnershipTransferred",
      "type": "event"
    },
    {
      "anonymous": false,
      "inputs": [
        {
          "indexed": false,
          "internalType": "address",
          "name": "owner",
          "type": "address"
        },
        {
          "indexed": true,
          "internalType": "string",
          "name": "assetName",
          "type": "string"
        }
      ],
      "name": "RemoveAsset",
      "type": "event"
    },
    {
      "anonymous": false,
      "inputs": [
        {
          "indexed": false,
          "internalType": "address",
          "name": "who",
          "type": "address"
        },
        {
          "indexed": false,
          "internalType": "address",
          "name": "adapterAddress",
          "type": "address"
        }
      ],
      "name": "SetAdapter",
      "type": "event"
    },
    {
      "anonymous": false,
      "inputs": [
        {
          "indexed": false,
          "internalType": "address",
          "name": "user",
          "type": "address"
        },
        {
          "indexed": false,
          "internalType": "string",
          "name": "utilityName",
          "type": "string"
        },
        {
          "indexed": false,
          "internalType": "uint256",
          "name": "amount",
          "type": "uint256"
        },
        {
          "indexed": false,
          "internalType": "string",
          "name": "reason",
          "type": "string"
        }
      ],
      "name": "UpdateBalError",
      "type": "event"
    },
    {
      "anonymous": false,
      "inputs": [
        {
          "indexed": false,
          "internalType": "address",
          "name": "user",
          "type": "address"
        },
        {
          "indexed": false,
          "internalType": "string",
          "name": "utilityName",
          "type": "string"
        },
        {
          "indexed": false,
          "internalType": "uint256",
          "name": "amount",
          "type": "uint256"
        }
      ],
      "name": "UpdateBalSuccess",
      "type": "event"
    },
    {
      "inputs": [],
      "name": "adapter",
      "outputs": [
        {
          "internalType": "contract Sio2Adapter",
          "name": "",
          "type": "address"
        }
      ],
      "stateMutability": "view",
      "type": "function"
    },
    {
      "inputs": [],
      "name": "adaptersDistributor",
      "outputs": [
        {
          "internalType": "contract IAdaptersDistributor",
          "name": "",
          "type": "address"
        }
      ],
      "stateMutability": "view",
      "type": "function"
    },
    {
      "inputs": [
        {
          "internalType": "address",
          "name": "_assetAddress",
          "type": "address"
        },
        {
          "internalType": "address",
          "name": "_bToken",
          "type": "address"
        },
        {
          "internalType": "uint256",
          "name": "_rewardsWeight",
          "type": "uint256"
        }
      ],
      "name": "addAsset",
      "outputs": [],
      "stateMutability": "nonpayable",
      "type": "function"
    },
    {
      "inputs": [
        {
          "internalType": "string",
          "name": "",
          "type": "string"
        }
      ],
      "name": "assetInfo",
      "outputs": [
        {
          "internalType": "uint256",
          "name": "id",
          "type": "uint256"
        },
        {
          "internalType": "string",
          "name": "name",
          "type": "string"
        },
        {
          "internalType": "address",
          "name": "addr",
          "type": "address"
        },
        {
          "internalType": "address",
          "name": "bTokenAddress",
          "type": "address"
        },
        {
          "internalType": "uint256",
          "name": "liquidationThreshold",
          "type": "uint256"
        },
        {
          "internalType": "uint256",
          "name": "lastBTokenBalance",
          "type": "uint256"
        },
        {
          "internalType": "uint256",
          "name": "totalBorrowed",
          "type": "uint256"
        },
        {
          "internalType": "uint256",
          "name": "rewardsWeight",
          "type": "uint256"
        },
        {
          "internalType": "uint256",
          "name": "accBTokensPerShare",
          "type": "uint256"
        },
        {
          "internalType": "uint256",
          "name": "accBorrowedRewardsPerShare",
          "type": "uint256"
        }
      ],
      "stateMutability": "view",
      "type": "function"
    },
    {
      "inputs": [
        {
          "internalType": "string",
          "name": "",
          "type": "string"
        }
      ],
      "name": "assetNameExist",
      "outputs": [
        {
          "internalType": "bool",
          "name": "",
          "type": "bool"
        }
      ],
      "stateMutability": "view",
      "type": "function"
    },
    {
      "inputs": [
        {
          "internalType": "uint256",
          "name": "",
          "type": "uint256"
        }
      ],
      "name": "assets",
      "outputs": [
        {
          "internalType": "string",
          "name": "",
          "type": "string"
        }
      ],
      "stateMutability": "view",
      "type": "function"
    },
    {
      "inputs": [
        {
          "internalType": "address",
          "name": "",
          "type": "address"
        }
      ],
      "name": "bTokenExist",
      "outputs": [
        {
          "internalType": "bool",
          "name": "",
          "type": "bool"
        }
      ],
      "stateMutability": "view",
      "type": "function"
    },
    {
      "inputs": [
        {
          "internalType": "uint256",
          "name": "",
          "type": "uint256"
        }
      ],
      "name": "bTokens",
      "outputs": [
        {
          "internalType": "address",
          "name": "",
          "type": "address"
        }
      ],
      "stateMutability": "view",
      "type": "function"
    },
    {
      "inputs": [
        {
          "internalType": "string",
          "name": "_assetName",
          "type": "string"
        },
        {
          "internalType": "uint256",
          "name": "_amount",
          "type": "uint256"
        }
      ],
      "name": "decreaseAssetsTotalBorrowed",
      "outputs": [],
      "stateMutability": "nonpayable",
      "type": "function"
    },
    {
      "inputs": [
        {
          "internalType": "string",
          "name": "_assetName",
          "type": "string"
        }
      ],
      "name": "getAssetInfo",
      "outputs": [
        {
          "components": [
            {
              "internalType": "uint256",
              "name": "id",
              "type": "uint256"
            },
            {
              "internalType": "string",
              "name": "name",
              "type": "string"
            },
            {
              "internalType": "address",
              "name": "addr",
              "type": "address"
            },
            {
              "internalType": "address",
              "name": "bTokenAddress",
              "type": "address"
            },
            {
              "internalType": "uint256",
              "name": "liquidationThreshold",
              "type": "uint256"
            },
            {
              "internalType": "uint256",
              "name": "lastBTokenBalance",
              "type": "uint256"
            },
            {
              "internalType": "uint256",
              "name": "totalBorrowed",
              "type": "uint256"
            },
            {
              "internalType": "uint256",
              "name": "rewardsWeight",
              "type": "uint256"
            },
            {
              "internalType": "uint256",
              "name": "accBTokensPerShare",
              "type": "uint256"
            },
            {
              "internalType": "uint256",
              "name": "accBorrowedRewardsPerShare",
              "type": "uint256"
            }
          ],
          "internalType": "struct Sio2AdapterAssetManager.Asset",
          "name": "",
          "type": "tuple"
        }
      ],
      "stateMutability": "view",
      "type": "function"
    },
    {
      "inputs": [
        {
          "internalType": "address",
          "name": "_assetAddr",
          "type": "address"
        }
      ],
      "name": "getAssetParameters",
      "outputs": [
        {
          "internalType": "uint256",
          "name": "liquidationThreshold",
          "type": "uint256"
        },
        {
          "internalType": "uint256",
          "name": "liquidationPenalty",
          "type": "uint256"
        },
        {
          "internalType": "uint256",
          "name": "loanToValue",
          "type": "uint256"
        }
      ],
      "stateMutability": "view",
      "type": "function"
    },
    {
      "inputs": [],
      "name": "getAssetsNames",
      "outputs": [
        {
          "internalType": "string[]",
          "name": "",
          "type": "string[]"
        }
      ],
      "stateMutability": "view",
      "type": "function"
    },
    {
      "inputs": [
        {
          "internalType": "address",
          "name": "_user",
          "type": "address"
        }
      ],
      "name": "getAvailableTokensToBorrow",
      "outputs": [
        {
          "internalType": "uint256[]",
          "name": "",
          "type": "uint256[]"
        }
      ],
      "stateMutability": "view",
      "type": "function"
    },
    {
      "inputs": [
        {
          "internalType": "address",
          "name": "_user",
          "type": "address"
        }
      ],
      "name": "getAvailableTokensToRepay",
      "outputs": [
        {
          "internalType": "string[]",
          "name": "",
          "type": "string[]"
        },
        {
          "internalType": "uint256[]",
          "name": "",
          "type": "uint256[]"
        }
      ],
      "stateMutability": "view",
      "type": "function"
    },
    {
      "inputs": [],
      "name": "getBTokens",
      "outputs": [
        {
          "internalType": "address[]",
          "name": "",
          "type": "address[]"
        }
      ],
      "stateMutability": "view",
      "type": "function"
    },
    {
      "inputs": [
        {
          "internalType": "string",
          "name": "assetName",
          "type": "string"
        }
      ],
      "name": "getRewardsWeight",
      "outputs": [
        {
          "internalType": "uint256",
          "name": "",
          "type": "uint256"
        }
      ],
      "stateMutability": "view",
      "type": "function"
    },
    {
      "inputs": [
        {
          "internalType": "string",
          "name": "_assetName",
          "type": "string"
        },
        {
          "internalType": "uint256",
          "name": "_income",
          "type": "uint256"
        }
      ],
      "name": "increaseAccBTokensPerShare",
      "outputs": [],
      "stateMutability": "nonpayable",
      "type": "function"
    },
    {
      "inputs": [
        {
          "internalType": "string",
          "name": "_assetName",
          "type": "string"
        },
        {
          "internalType": "uint256",
          "name": "_assetRewards",
          "type": "uint256"
        }
      ],
      "name": "increaseAccBorrowedRewardsPerShare",
      "outputs": [],
      "stateMutability": "nonpayable",
      "type": "function"
    },
    {
      "inputs": [
        {
          "internalType": "string",
          "name": "_assetName",
          "type": "string"
        },
        {
          "internalType": "uint256",
          "name": "_amount",
          "type": "uint256"
        }
      ],
      "name": "increaseAssetsTotalBorrowed",
      "outputs": [],
      "stateMutability": "nonpayable",
      "type": "function"
    },
    {
      "inputs": [
        {
          "internalType": "contract ISio2LendingPool",
          "name": "_pool",
          "type": "address"
        },
        {
          "internalType": "address",
          "name": "_snastr",
          "type": "address"
        }
      ],
      "name": "initialize",
      "outputs": [],
      "stateMutability": "nonpayable",
      "type": "function"
    },
    {
      "inputs": [],
      "name": "owner",
      "outputs": [
        {
          "internalType": "address",
          "name": "",
          "type": "address"
        }
      ],
      "stateMutability": "view",
      "type": "function"
    },
    {
      "inputs": [],
      "name": "pool",
      "outputs": [
        {
          "internalType": "contract ISio2LendingPool",
          "name": "",
          "type": "address"
        }
      ],
      "stateMutability": "view",
      "type": "function"
    },
    {
      "inputs": [
        {
          "internalType": "string",
          "name": "_assetName",
          "type": "string"
        }
      ],
      "name": "removeAsset",
      "outputs": [],
      "stateMutability": "nonpayable",
      "type": "function"
    },
    {
      "inputs": [],
      "name": "renounceOwnership",
      "outputs": [],
      "stateMutability": "nonpayable",
      "type": "function"
    },
    {
      "inputs": [],
      "name": "set",
      "outputs": [],
      "stateMutability": "nonpayable",
      "type": "function"
    },
    {
      "inputs": [
        {
          "internalType": "contract Sio2Adapter",
          "name": "_adapter",
          "type": "address"
        }
      ],
      "name": "setAdapter",
      "outputs": [],
      "stateMutability": "nonpayable",
      "type": "function"
    },
    {
      "inputs": [
        {
          "internalType": "address",
          "name": "_tokenAddress",
          "type": "address"
        },
        {
          "internalType": "uint256",
          "name": "_amount",
          "type": "uint256"
        }
      ],
      "name": "to18DecFormat",
      "outputs": [
        {
          "internalType": "uint256",
          "name": "",
          "type": "uint256"
        }
      ],
      "stateMutability": "view",
      "type": "function"
    },
    {
      "inputs": [
        {
          "internalType": "address",
          "name": "_tokenAddress",
          "type": "address"
        },
        {
          "internalType": "uint256",
          "name": "_amount",
          "type": "uint256"
        }
      ],
      "name": "toNativeDecFormat",
      "outputs": [
        {
          "internalType": "uint256",
          "name": "",
          "type": "uint256"
        }
      ],
      "stateMutability": "view",
      "type": "function"
    },
    {
      "inputs": [
        {
          "internalType": "address",
          "name": "newOwner",
          "type": "address"
        }
      ],
      "name": "transferOwnership",
      "outputs": [],
      "stateMutability": "nonpayable",
      "type": "function"
    },
    {
      "inputs": [
        {
          "internalType": "address",
          "name": "_user",
          "type": "address"
        }
      ],
      "name": "updateBalanceInAdaptersDistributor",
      "outputs": [],
      "stateMutability": "nonpayable",
      "type": "function"
    },
    {
      "inputs": [
        {
          "internalType": "string",
          "name": "_assetName",
          "type": "string"
        }
      ],
      "name": "updateLastBTokenBalance",
      "outputs": [],
      "stateMutability": "nonpayable",
      "type": "function"
    }
  ],
  "bytecode": {
    "object": "0x608060405234801561001057600080fd5b506132ea806100206000396000f3fe608060405234801561001057600080fd5b50600436106101e55760003560e01c8063759af9ec1161010f578063cde131d5116100a2578063eb4c0ae511610071578063eb4c0ae5146104b2578063ed57355e146104db578063f2fde38b146104ee578063f399a83e1461050157600080fd5b8063cde131d51461043b578063cf35bdd01461045c578063d8b578081461047c578063e18cf0b31461049f57600080fd5b8063a3b1b956116100de578063a3b1b956146103d5578063ab1da79c146103e8578063ac9cb470146103fb578063b8e010de1461041057600080fd5b8063759af9ec1461036e57806381a3bca8146103815780638da5cb5b1461039657806394ca44c8146103a757600080fd5b80633ea5856f1161018757806366e2cdb61161015657806366e2cdb6146102f55780636ed2c74114610308578063715018a614610346578063724eecd61461034e57600080fd5b80633ea5856f146102a9578063485cc955146102bc578063508e96ca146102cf5780635360d451146102e257600080fd5b80631b2d95ab116101c35780631b2d95ab1461024257806331ec64111461026257806335aa6453146102755780633683bfc51461028857600080fd5b806303eadcfc146101ea5780631041dc321461021a57806316f0115b1461022f575b600080fd5b6098546101fd906001600160a01b031681565b6040516001600160a01b0390911681526020015b60405180910390f35b61022d61022836600461289c565b610514565b005b6097546101fd906001600160a01b031681565b610255610250366004612962565b610716565b6040516102119190612e36565b61022d610270366004612962565b6108a8565b61022d6102833660046129ce565b61099f565b61029b610296366004612962565b610a03565b604051908152602001610211565b609e546101fd906001600160a01b031681565b61022d6102ca36600461292a565b610a2e565b61022d6102dd3660046129ce565b610c76565b61022d6102f03660046129ce565b610cd1565b61029b6103033660046128ff565b610d5a565b610336610316366004612962565b8051602081830181018051609d8252928201919093012091525460ff1681565b6040519015158152602001610211565b61022d610e79565b61036161035c36600461289c565b610e8d565b6040516102119190612d49565b61022d61037c366004612962565b6111b9565b6103896116de565b6040516102119190612cc4565b6033546001600160a01b03166101fd565b6103ba6103b536600461289c565b611740565b60408051938452602084019290925290820152606001610211565b61029b6103e33660046128ff565b6117e3565b61022d6103f636600461289c565b6118f2565b610403611955565b6040516102119190612d11565b61022d609e80546001600160a01b03191673294bb6b8e692543f373383a84a1f296d3c297aef179055565b61044e61044936600461289c565b611a2e565b604051610211929190612d24565b61046f61046a366004612afe565b611c7f565b6040516102119190612d5c565b61033661048a36600461289c565b609c6020526000908152604090205460ff1681565b61022d6104ad3660046129ce565b611d2b565b6104c56104c0366004612962565b611daa565b6040516102119a99989796959493929190612ee0565b6101fd6104e9366004612afe565b611e9a565b61022d6104fc36600461289c565b611ec4565b61022d61050f3660046128bf565b611f3d565b6098546001600160a01b031633146105475760405162461bcd60e51b815260040161053e90612db4565b60405180910390fd5b609854604051636f77926b60e01b81526001600160a01b0383811660048301526000921690636f77926b9060240160006040518083038186803b15801561058d57600080fd5b505afa1580156105a1573d6000803e3d6000fd5b505050506040513d6000823e601f3d908101601f191682016040526105c99190810190612a50565b604080820151609e549151631704b63f60e31b8152929350916001600160a01b039091169063b825b1f8906106049086908590600401612d6f565b600060405180830381600087803b15801561061e57600080fd5b505af192505050801561062f575060015b6106a85761063b6131fe565b806308c379a0141561069c5750610650613216565b8061065b575061069e565b7f09ea598594b5fdf29f0c25c248aa5544ff0096cb773326201275441cf0e4e8cf84838360405161068e93929190612c6c565b60405180910390a150505050565b505b3d6000803e3d6000fd5b604080516001600160a01b0385168152606060208201819052600c908201526b29b4b7992fa0b230b83a32b960a11b60808201529081018290527f8b82945fd970ddd18b63c39a87ceefd3db5966cb2ab0c9ec3043baa8a70b4c279060a0015b60405180910390a15b505050565b61077e604051806101400160405280600081526020016060815260200160006001600160a01b0316815260200160006001600160a01b031681526020016000815260200160008152602001600081526020016000815260200160008152602001600081525090565b609b8260405161078e9190612c2c565b908152602001604051809103902060405180610140016040529081600082015481526020016001820180546107c290613150565b80601f01602080910402602001604051908101604052809291908181526020018280546107ee90613150565b801561083b5780601f106108105761010080835404028352916020019161083b565b820191906000526020600020905b81548152906001019060200180831161081e57829003601f168201915b505050918352505060028201546001600160a01b03908116602083015260038301541660408201526004820154606082015260058201546080820152600682015460a0820152600782015460c0820152600882015460e08201526009909101546101009091015292915050565b6098546001600160a01b031633146108d25760405162461bcd60e51b815260040161053e90612db4565b6000609b826040516108e49190612c2c565b90815260405190819003602001812060038101546098546370a0823160e01b84526001600160a01b0390811660048501529193506000929116906370a082319060240160206040518083038186803b15801561093f57600080fd5b505afa158015610953573d6000803e3d6000fd5b505050506040513d601f19601f820116820180604052508101906109779190612b16565b6002830154909150610992906001600160a01b031682610d5a565b8260050181905550505050565b6098546001600160a01b031633146109c95760405162461bcd60e51b815260040161053e90612db4565b80609b836040516109da9190612c2c565b908152602001604051809103902060060160008282546109fa9190612fa1565b90915550505050565b6000609b82604051610a159190612c2c565b9081526020016040518091039020600701549050919050565b600054610100900460ff1615808015610a4e5750600054600160ff909116105b80610a685750303b158015610a68575060005460ff166001145b610acb5760405162461bcd60e51b815260206004820152602e60248201527f496e697469616c697a61626c653a20636f6e747261637420697320616c72656160448201526d191e481a5b9a5d1a585b1a5e995960921b606482015260840161053e565b6000805460ff191660011790558015610aee576000805461ff0019166101001790555b610af6612509565b610afe612538565b6001600160a01b038316610b605760405162461bcd60e51b815260206004820152602360248201527f4c656e64696e6720706f6f6c20616464726573732063616e6e6f74206265207a60448201526265726f60e81b606482015260840161053e565b6001600160a01b038216610bb65760405162461bcd60e51b815260206004820152601d60248201527f736e4153545220616464726573732063616e6e6f74206265207a65726f000000604482015260640161053e565b609a80546001810182556000919091527f44da158ba27f9252712a74ff6a55c5d531f69609f1f6e7f17c4443a8e2089be40180546001600160a01b038085166001600160a01b031992831617909255609e8054821673294bb6b8e692543f373383a84a1f296d3c297aef17905560978054928616929091169190911790558015610711576000805461ff0019169055604051600181527f7f26b83ff96e1f2b6a682f133852f6798a09c465da95921460cefb384740249890602001610708565b6098546001600160a01b03163314610ca05760405162461bcd60e51b815260040161053e90612db4565b80609b83604051610cb19190612c2c565b908152602001604051809103902060060160008282546109fa91906130e6565b6098546001600160a01b03163314610cfb5760405162461bcd60e51b815260040161053e90612db4565b6000609b83604051610d0d9190612c2c565b90815260200160405180910390209050806006015464e8d4a5100083610d3391906130c7565b610d3d9190612fb9565b816008016000828254610d509190612fa1565b9091555050505050565b60006012836001600160a01b031663313ce5676040518163ffffffff1660e01b815260040160206040518083038186803b158015610d9757600080fd5b505afa158015610dab573d6000803e3d6000fd5b505050506040513d601f19601f82011682018060405250810190610dcf9190612b51565b60ff161015610e7057826001600160a01b031663313ce5676040518163ffffffff1660e01b815260040160206040518083038186803b158015610e1157600080fd5b505afa158015610e25573d6000803e3d6000fd5b505050506040513d601f19601f82011682018060405250810190610e499190612b51565b610e549060126130fd565b610e5f90600a61301c565b610e6990836130c7565b9050610e73565b50805b92915050565b610e81612567565b610e8b60006125c1565b565b60985460405163d6fe3d3960e01b81526001600160a01b03838116600483015260609260009291169063d6fe3d3990602401604080518083038186803b158015610ed657600080fd5b505afa158015610eea573d6000803e3d6000fd5b505050506040513d601f19601f82011682018060405250810190610f0e9190612b2e565b506099549091506000816001600160401b03811115610f3d57634e487b7160e01b600052604160045260246000fd5b604051908082528060200260200182016040528015610f7057816020015b6060815260200190600190039081610f5b5790505b5090506000826001600160401b03811115610f9b57634e487b7160e01b600052604160045260246000fd5b604051908082528060200260200182016040528015610fc4578160200160208202803683370190505b50609980546040805160208084028201810190925282815293945060009084015b8282101561109157838290600052602060002001805461100490613150565b80601f016020809104026020016040519081016040528092919081815260200182805461103090613150565b801561107d5780601f106110525761010080835404028352916020019161107d565b820191906000526020600020905b81548152906001019060200180831161106057829003601f168201915b505050505081526020019060010190610fe5565b50505050915060005b838110156111af576000609b8483815181106110c657634e487b7160e01b600052603260045260246000fd5b60200260200101516040516110db9190612c2c565b908152604051908190036020018120600201546098546343f78c3560e11b83526001600160a01b0391821660048401819052602484018a9052935016906387ef186a9060440160206040518083038186803b15801561113957600080fd5b505afa15801561114d573d6000803e3d6000fd5b505050506040513d601f19601f820116820180604052508101906111719190612b16565b83838151811061119157634e487b7160e01b600052603260045260246000fd5b602090810291909101015250806111a7816131b7565b91505061109a565b5095945050505050565b6111c1612567565b60006001600160a01b0316609b826040516111dc9190612c2c565b908152604051908190036020019020600201546001600160a01b0316141561123f5760405162461bcd60e51b8152602060048201526016602482015275151a195c99481a5cc81b9bc81cdd58da08185cdcd95d60521b604482015260640161053e565b6000609b826040516112519190612c2c565b9081526020016040518091039020604051806101400160405290816000820154815260200160018201805461128590613150565b80601f01602080910402602001604051908101604052809291908181526020018280546112b190613150565b80156112fe5780601f106112d3576101008083540402835291602001916112fe565b820191906000526020600020905b8154815290600101906020018083116112e157829003601f168201915b505050918352505060028201546001600160a01b03908116602083015260038301541660408201526004820154606082015260058201546080820152600682015460a0820152600782015460c0820152600882015460e0820152600990910154610100909101526099805491925060009161137b906001906130e6565b8154811061139957634e487b7160e01b600052603260045260246000fd5b9060005260206000200180546113ae90613150565b80601f01602080910402602001604051908101604052809291908181526020018280546113da90613150565b80156114275780601f106113fc57610100808354040283529160200191611427565b820191906000526020600020905b81548152906001019060200180831161140a57829003601f168201915b5050505050905080609983600001518154811061145457634e487b7160e01b600052603260045260246000fd5b906000526020600020019080519060200190611471929190612671565b50609980548061149157634e487b7160e01b600052603160045260246000fd5b6001900381819060005260206000200160006114ad91906126f5565b9055609a8054600091906114c3906001906130e6565b815481106114e157634e487b7160e01b600052603260045260246000fd5b60009182526020909120015483516001600160a01b0390911691508190609a9061150c906001612fa1565b8154811061152a57634e487b7160e01b600052603260045260246000fd5b9060005260206000200160006101000a8154816001600160a01b0302191690836001600160a01b03160217905550609a80548061157757634e487b7160e01b600052603160045260246000fd5b60008281526020808220830160001990810180546001600160a01b031916905590920190925560608501516001600160a01b03168252609c81526040808320805460ff19169055908501519051609d916115d091612c2c565b908152604051908190036020018120805492151560ff1990931692909217909155835190609b90611602908590612c2c565b90815260405190819003602001812091909155609b90611623908690612c2c565b908152604051908190036020019020600080825561164460018301826126f5565b506002810180546001600160a01b031990811690915560038201805490911690556000600482018190556005820181905560068201819055600782018190556008820181905560099091015560405161169e908590612c2c565b604051908190038120338252907f865f83eba4ebb82160312aa5f86592a19c2d98ec819c1021514801e8b0a4b39d9060200160405180910390a250505050565b6060609a80548060200260200160405190810160405280929190818152602001828054801561173657602002820191906000526020600020905b81546001600160a01b03168152600190910190602001808311611718575b5050505050905090565b60975460405163c44b11f760e01b81526001600160a01b038381166004830152600092839283928392169063c44b11f79060240160206040518083038186803b15801561178c57600080fd5b505afa1580156117a0573d6000803e3d6000fd5b505050506040513d601f19601f820116820180604052508101906117c49190612a10565b5161ffff601082901c811697602083901c821697509116945092505050565b60006012836001600160a01b031663313ce5676040518163ffffffff1660e01b815260040160206040518083038186803b15801561182057600080fd5b505afa158015611834573d6000803e3d6000fd5b505050506040513d601f19601f820116820180604052508101906118589190612b51565b60ff161015610e7057826001600160a01b031663313ce5676040518163ffffffff1660e01b815260040160206040518083038186803b15801561189a57600080fd5b505afa1580156118ae573d6000803e3d6000fd5b505050506040513d601f19601f820116820180604052508101906118d29190612b51565b6118dd9060126130fd565b6118e890600a61301c565b610e699083612fb9565b6118fa612567565b609880546001600160a01b0319166001600160a01b0383169081179091556040805133815260208101929092527f3e315d48a109b5e16e3a9bd644f5788469128e97e94f3224b967bb43552f5d38910160405180910390a150565b60606099805480602002602001604051908101604052809291908181526020016000905b82821015611a2557838290600052602060002001805461199890613150565b80601f01602080910402602001604051908101604052809291908181526020018280546119c490613150565b8015611a115780601f106119e657610100808354040283529160200191611a11565b820191906000526020600020905b8154815290600101906020018083116119f457829003601f168201915b505050505081526020019060010190611979565b50505050905090565b609854604051636f77926b60e01b81526001600160a01b038381166004830152606092839260009290911690636f77926b9060240160006040518083038186803b158015611a7b57600080fd5b505afa158015611a8f573d6000803e3d6000fd5b505050506040513d6000823e601f3d908101601f19168201604052611ab79190810190612a50565b905060008160800151516001600160401b03811115611ae657634e487b7160e01b600052604160045260246000fd5b604051908082528060200260200182016040528015611b1957816020015b6060815260200190600190039081611b045790505b50905060008260800151516001600160401b03811115611b4957634e487b7160e01b600052604160045260246000fd5b604051908082528060200260200182016040528015611b72578160200160208202803683370190505b5090508260800151915060005b8251811015611c735760985483516001600160a01b0390911690638fe37556908990869085908110611bc157634e487b7160e01b600052603260045260246000fd5b60200260200101516040518363ffffffff1660e01b8152600401611be6929190612c48565b60206040518083038186803b158015611bfe57600080fd5b505afa158015611c12573d6000803e3d6000fd5b505050506040513d601f19601f82011682018060405250810190611c369190612b16565b828281518110611c5657634e487b7160e01b600052603260045260246000fd5b602090810291909101015280611c6b816131b7565b915050611b7f565b50909590945092505050565b60998181548110611c8f57600080fd5b906000526020600020016000915090508054611caa90613150565b80601f0160208091040260200160405190810160405280929190818152602001828054611cd690613150565b8015611d235780601f10611cf857610100808354040283529160200191611d23565b820191906000526020600020905b815481529060010190602001808311611d0657829003601f168201915b505050505081565b6098546001600160a01b03163314611d555760405162461bcd60e51b815260040161053e90612db4565b6000609b83604051611d679190612c2c565b90815260200160405180910390209050806006015464e8d4a5100083611d8d91906130c7565b611d979190612fb9565b816009016000828254610d509190612fa1565b8051602081830181018051609b8252928201919093012091528054600182018054919291611dd790613150565b80601f0160208091040260200160405190810160405280929190818152602001828054611e0390613150565b8015611e505780601f10611e2557610100808354040283529160200191611e50565b820191906000526020600020905b815481529060010190602001808311611e3357829003601f168201915b50505060028401546003850154600486015460058701546006880154600789015460088a01546009909a015498996001600160a01b0396871699959096169750929550909390928a565b609a8181548110611eaa57600080fd5b6000918252602090912001546001600160a01b0316905081565b611ecc612567565b6001600160a01b038116611f315760405162461bcd60e51b815260206004820152602660248201527f4f776e61626c653a206e6577206f776e657220697320746865207a65726f206160448201526564647265737360d01b606482015260840161053e565b611f3a816125c1565b50565b611f45612567565b6000836001600160a01b03166395d89b416040518163ffffffff1660e01b815260040160006040518083038186803b158015611f8057600080fd5b505afa158015611f94573d6000803e3d6000fd5b505050506040513d6000823e601f3d908101601f19168201604052611fbc919081019061299c565b905060006001600160a01b0316609b82604051611fd99190612c2c565b908152604051908190036020019020600201546001600160a01b0316146120385760405162461bcd60e51b8152602060048201526013602482015272105cdcd95d08185b1c9958591e481859191959606a1b604482015260640161053e565b7fc5d2460186f7233c927e7db2dcc703c0e500b653ca82273b7bfad8045d85a4708160405160200161206a9190612c2c565b6040516020818303038152906040528051906020012014156120c15760405162461bcd60e51b815260206004820152601060248201526f456d707479206173736574206e616d6560801b604482015260640161053e565b6001600160a01b0383166000908152609c602052604090205460ff16156121345760405162461bcd60e51b815260206004820152602160248201527f537563682062546f6b656e206164647265737320616c726561647920616464656044820152601960fa1b606482015260840161053e565b609d816040516121449190612c2c565b9081526040519081900360200190205460ff16156121a45760405162461bcd60e51b815260206004820152601d60248201527f53756368206173736574206e616d6520616c7265616479206164646564000000604482015260640161053e565b60975460405163c44b11f760e01b81526001600160a01b038681166004830152600092169063c44b11f79060240160206040518083038186803b1580156121ea57600080fd5b505afa1580156121fe573d6000803e3d6000fd5b505050506040513d601f19601f820116820180604052508101906122229190612a10565b805190915060009060101c61ffff166040516370a0823160e01b81523060048201529091506000906001600160a01b038716906370a082319060240160206040518083038186803b15801561227657600080fd5b505afa15801561228a573d6000803e3d6000fd5b505050506040513d601f19601f820116820180604052508101906122ae9190612b16565b905060006040518061014001604052806099805490508152602001868152602001896001600160a01b03168152602001886001600160a01b031681526020018481526020016122fd8a85610d5a565b815260006020808301829052604083018a9052606083018290526080909201819052828201516099805460018101825592528051939450612364937f72a152ddfb8e864297c917af52ea6c1c68aead0fee1a62673fcc7e0c94979d00909201920190612671565b5080609b866040516123769190612c2c565b90815260200160405180910390206000820151816000015560208201518160010190805190602001906123aa929190612671565b506040828101516002830180546001600160a01b03199081166001600160a01b0393841617909155606085015160038501805483169184169190911790556080850151600485015560a0850151600585015560c0850151600685015560e08501516007850155610100850151600885015561012090940151600990930192909255609a805460018181019092557f44da158ba27f9252712a74ff6a55c5d531f69609f1f6e7f17c4443a8e2089be4018054909416928b169283179093556000918252609c60205290819020805460ff19168317905551609d9061248e908890612c2c565b908152604051908190036020018120805492151560ff19909316929092179091556001600160a01b038916906124c5908790612c2c565b604051908190038120338252907f938b5990c432a73433cb63daa65ed775089825c19f9d5e500b9d7bd63e2cda339060200160405180910390a35050505050505050565b600054610100900460ff166125305760405162461bcd60e51b815260040161053e90612deb565b610e8b612613565b600054610100900460ff1661255f5760405162461bcd60e51b815260040161053e90612deb565b610e8b612643565b6033546001600160a01b03163314610e8b5760405162461bcd60e51b815260206004820181905260248201527f4f776e61626c653a2063616c6c6572206973206e6f7420746865206f776e6572604482015260640161053e565b603380546001600160a01b038381166001600160a01b0319831681179093556040519116919082907f8be0079c531659141344cd1fd0a4f28419497f9722a3daafe3b4186f6b6457e090600090a35050565b600054610100900460ff1661263a5760405162461bcd60e51b815260040161053e90612deb565b610e8b336125c1565b600054610100900460ff1661266a5760405162461bcd60e51b815260040161053e90612deb565b6001606555565b82805461267d90613150565b90600052602060002090601f01602090048101928261269f57600085556126e5565b82601f106126b857805160ff19168380011785556126e5565b828001600101855582156126e5579182015b828111156126e55782518255916020019190600101906126ca565b506126f192915061272b565b5090565b50805461270190613150565b6000825580601f10612711575050565b601f016020900490600052602060002090810190611f3a91905b5b808211156126f1576000815560010161272c565b805161274b8161329f565b919050565b600082601f830112612760578081fd5b815160206001600160401b038083111561277c5761277c6131e8565b8260051b61278b838201612f6d565b8481528381019087850183890186018a10156127a5578788fd5b8793505b868410156127e2578051858111156127bf578889fd5b6127cd8b88838d0101612846565b845250600193909301929185019185016127a9565b5098975050505050505050565b600082601f8301126127ff578081fd5b813561280a81612f7a565b604051612817828261318b565b82815285602084870101111561282b578384fd5b82602086016020830137918201602001929092529392505050565b600082601f830112612856578081fd5b815161286181612f7a565b60405161286e828261318b565b828152856020848701011115612882578384fd5b612893836020830160208801613120565b95945050505050565b6000602082840312156128ad578081fd5b81356128b88161329f565b9392505050565b6000806000606084860312156128d3578182fd5b83356128de8161329f565b925060208401356128ee8161329f565b929592945050506040919091013590565b60008060408385031215612911578182fd5b823561291c8161329f565b946020939093013593505050565b6000806040838503121561293c578182fd5b82356129478161329f565b915060208301356129578161329f565b809150509250929050565b600060208284031215612973578081fd5b81356001600160401b03811115612988578182fd5b612994848285016127ef565b949350505050565b6000602082840312156129ad578081fd5b81516001600160401b038111156129c2578182fd5b61299484828501612846565b600080604083850312156129e0578182fd5b82356001600160401b038111156129f5578283fd5b612a01858286016127ef565b95602094909401359450505050565b600060208284031215612a21578081fd5b604051602081018181106001600160401b0382111715612a4357612a436131e8565b6040529151825250919050565b600060208284031215612a61578081fd5b81516001600160401b0380821115612a77578283fd5b9083019060e08286031215612a8a578283fd5b612a92612f45565b82518152612aa260208401612740565b60208201526040830151604082015260608301516060820152608083015182811115612acc578485fd5b612ad887828601612750565b60808301525060a083015160a082015260c083015160c082015280935050505092915050565b600060208284031215612b0f578081fd5b5035919050565b600060208284031215612b27578081fd5b5051919050565b60008060408385031215612b40578182fd5b505080516020909101519092909150565b600060208284031215612b62578081fd5b815160ff811681146128b8578182fd5b600081518084526020808501808196508360051b81019150828601855b85811015612bb9578284038952612ba7848351612c00565b98850198935090840190600101612b8f565b5091979650505050505050565b6000815180845260208085019450808401835b83811015612bf557815187529582019590820190600101612bd9565b509495945050505050565b60008151808452612c18816020860160208601613120565b601f01601f19169290920160200192915050565b60008251612c3e818460208701613120565b9190910192915050565b6001600160a01b038316815260406020820181905260009061299490830184612c00565b6001600160a01b0384168152608060208201819052600c908201526b29b4b7992fa0b230b83a32b960a11b60a0820152600060c082018460408401528281036060840152612cba8185612c00565b9695505050505050565b6020808252825182820181905260009190848201906040850190845b81811015612d055783516001600160a01b031683529284019291840191600101612ce0565b50909695505050505050565b6020815260006128b86020830184612b72565b604081526000612d376040830185612b72565b82810360208401526128938185612bc6565b6020815260006128b86020830184612bc6565b6020815260006128b86020830184612c00565b606081526000612d9b60608301600c81526b29b4b7992fa0b230b83a32b960a11b602082015260400190565b6001600160a01b03949094166020830152506040015290565b60208082526018908201527f416c6c6f776564206f6e6c7920666f7220616461707465720000000000000000604082015260600190565b6020808252602b908201527f496e697469616c697a61626c653a20636f6e7472616374206973206e6f74206960408201526a6e697469616c697a696e6760a81b606082015260800190565b602081528151602082015260006020830151610140806040850152612e5f610160850183612c00565b91506040850151612e7b60608601826001600160a01b03169052565b5060608501516001600160a01b038116608086015250608085015160a085015260a085015160c085015260c085015160e085015260e0850151610100818187015280870151915050610120818187015280870151838701525050508091505092915050565b60006101408c8352806020840152612efa8184018d612c00565b6001600160a01b039b8c16604085015299909a16606083015250608081019690965260a086019490945260c085019290925260e0840152610100830152610120909101529392505050565b60405160e081016001600160401b0381118282101715612f6757612f676131e8565b60405290565b60405161274b828261318b565b60006001600160401b03821115612f9357612f936131e8565b50601f01601f191660200190565b60008219821115612fb457612fb46131d2565b500190565b600082612fd457634e487b7160e01b81526012600452602481fd5b500490565b600181815b80851115613014578160001904821115612ffa57612ffa6131d2565b8085161561300757918102915b93841c9390800290612fde565b509250929050565b60006128b860ff84168360008261303557506001610e73565b8161304257506000610e73565b816001811461305857600281146130625761307e565b6001915050610e73565b60ff841115613073576130736131d2565b50506001821b610e73565b5060208310610133831016604e8410600b84101617156130a1575081810a610e73565b6130ab8383612fd9565b80600019048211156130bf576130bf6131d2565b029392505050565b60008160001904831182151516156130e1576130e16131d2565b500290565b6000828210156130f8576130f86131d2565b500390565b600060ff821660ff841680821015613117576131176131d2565b90039392505050565b60005b8381101561313b578181015183820152602001613123565b8381111561314a576000848401525b50505050565b600181811c9082168061316457607f821691505b6020821081141561318557634e487b7160e01b600052602260045260246000fd5b50919050565b601f8201601f191681016001600160401b03811182821017156131b0576131b06131e8565b6040525050565b60006000198214156131cb576131cb6131d2565b5060010190565b634e487b7160e01b600052601160045260246000fd5b634e487b7160e01b600052604160045260246000fd5b600060033d111561321357600481823e5160e01c5b90565b600060443d10156132245790565b6040516003193d81016004833e81513d6001600160401b03816024840111818411171561325357505050505090565b828501915081518181111561326b5750505050505090565b843d87010160208285010111156132855750505050505090565b6132946020828601018761318b565b509095945050505050565b6001600160a01b0381168114611f3a57600080fdfea2646970667358221220063a58cc6367c7d89be743b1dfe6ec747b84e5ff7457662e135b783ae878662a64736f6c63430008040033",
    "linkReferences": {}
  },
  "methodIdentifiers": {
    "adapter()": "03eadcfc",
    "adaptersDistributor()": "3ea5856f",
    "addAsset(address,address,uint256)": "f399a83e",
    "assetInfo(string)": "eb4c0ae5",
    "assetNameExist(string)": "6ed2c741",
    "assets(uint256)": "cf35bdd0",
    "bTokenExist(address)": "d8b57808",
    "bTokens(uint256)": "ed57355e",
    "decreaseAssetsTotalBorrowed(string,uint256)": "508e96ca",
    "getAssetInfo(string)": "1b2d95ab",
    "getAssetParameters(address)": "94ca44c8",
    "getAssetsNames()": "ac9cb470",
    "getAvailableTokensToBorrow(address)": "724eecd6",
    "getAvailableTokensToRepay(address)": "cde131d5",
    "getBTokens()": "81a3bca8",
    "getRewardsWeight(string)": "3683bfc5",
    "increaseAccBTokensPerShare(string,uint256)": "5360d451",
    "increaseAccBorrowedRewardsPerShare(string,uint256)": "e18cf0b3",
    "increaseAssetsTotalBorrowed(string,uint256)": "35aa6453",
    "initialize(address,address)": "485cc955",
    "owner()": "8da5cb5b",
    "pool()": "16f0115b",
    "removeAsset(string)": "759af9ec",
    "renounceOwnership()": "715018a6",
    "set()": "b8e010de",
    "setAdapter(address)": "ab1da79c",
    "to18DecFormat(address,uint256)": "66e2cdb6",
    "toNativeDecFormat(address,uint256)": "a3b1b956",
    "transferOwnership(address)": "f2fde38b",
    "updateBalanceInAdaptersDistributor(address)": "1041dc32",
    "updateLastBTokenBalance(string)": "31ec6411"
  },
  "id": 3
}