{
  "abi": [
    {
      "anonymous": false,
      "inputs": [
        {
          "indexed": false,
          "internalType": "address",
          "name": "owner",
          "type": "address"
        },
        {
          "indexed": true,
          "internalType": "string",
          "name": "assetName",
          "type": "string"
        },
        {
          "indexed": true,
          "internalType": "address",
          "name": "assetAddress",
          "type": "address"
        }
      ],
      "name": "AddAsset",
      "type": "event"
    },
    {
      "anonymous": false,
      "inputs": [
        {
          "indexed": false,
          "internalType": "uint8",
          "name": "version",
          "type": "uint8"
        }
      ],
      "name": "Initialized",
      "type": "event"
    },
    {
      "anonymous": false,
      "inputs": [
        {
          "indexed": true,
          "internalType": "address",
          "name": "previousOwner",
          "type": "address"
        },
        {
          "indexed": true,
          "internalType": "address",
          "name": "newOwner",
          "type": "address"
        }
      ],
      "name": "OwnershipTransferred",
      "type": "event"
    },
    {
      "anonymous": false,
      "inputs": [
        {
          "indexed": false,
          "internalType": "address",
          "name": "owner",
          "type": "address"
        },
        {
          "indexed": true,
          "internalType": "string",
          "name": "assetName",
          "type": "string"
        }
      ],
      "name": "RemoveAsset",
      "type": "event"
    },
    {
      "anonymous": false,
      "inputs": [
        {
          "indexed": false,
          "internalType": "address",
          "name": "who",
          "type": "address"
        },
        {
          "indexed": false,
          "internalType": "address",
          "name": "adapterAddress",
          "type": "address"
        }
      ],
      "name": "SetAdapter",
      "type": "event"
    },
    {
      "anonymous": false,
      "inputs": [
        {
          "indexed": false,
          "internalType": "address",
          "name": "user",
          "type": "address"
        },
        {
          "indexed": false,
          "internalType": "string",
          "name": "utilityName",
          "type": "string"
        },
        {
          "indexed": false,
          "internalType": "uint256",
          "name": "amount",
          "type": "uint256"
        },
        {
          "indexed": false,
          "internalType": "string",
          "name": "reason",
          "type": "string"
        }
      ],
      "name": "UpdateBalError",
      "type": "event"
    },
    {
      "anonymous": false,
      "inputs": [
        {
          "indexed": false,
          "internalType": "address",
          "name": "user",
          "type": "address"
        },
        {
          "indexed": false,
          "internalType": "string",
          "name": "utilityName",
          "type": "string"
        },
        {
          "indexed": false,
          "internalType": "uint256",
          "name": "amount",
          "type": "uint256"
        }
      ],
      "name": "UpdateBalSuccess",
      "type": "event"
    },
    {
      "inputs": [],
      "name": "adapter",
      "outputs": [
        {
          "internalType": "contract Sio2Adapter",
          "name": "",
          "type": "address"
        }
      ],
      "stateMutability": "view",
      "type": "function"
    },
    {
      "inputs": [],
      "name": "adaptersDistributor",
      "outputs": [
        {
          "internalType": "contract IAdaptersDistributor",
          "name": "",
          "type": "address"
        }
      ],
      "stateMutability": "view",
      "type": "function"
    },
    {
      "inputs": [
        {
          "internalType": "address",
          "name": "_assetAddress",
          "type": "address"
        },
        {
          "internalType": "address",
          "name": "_bToken",
          "type": "address"
        },
        {
          "internalType": "uint256",
          "name": "_rewardsWeight",
          "type": "uint256"
        }
      ],
      "name": "addAsset",
      "outputs": [],
      "stateMutability": "nonpayable",
      "type": "function"
    },
    {
      "inputs": [
        {
          "internalType": "string",
          "name": "",
          "type": "string"
        }
      ],
      "name": "assetInfo",
      "outputs": [
        {
          "internalType": "uint256",
          "name": "id",
          "type": "uint256"
        },
        {
          "internalType": "string",
          "name": "name",
          "type": "string"
        },
        {
          "internalType": "address",
          "name": "addr",
          "type": "address"
        },
        {
          "internalType": "address",
          "name": "bTokenAddress",
          "type": "address"
        },
        {
          "internalType": "uint256",
          "name": "liquidationThreshold",
          "type": "uint256"
        },
        {
          "internalType": "uint256",
          "name": "lastBTokenBalance",
          "type": "uint256"
        },
        {
          "internalType": "uint256",
          "name": "totalBorrowed",
          "type": "uint256"
        },
        {
          "internalType": "uint256",
          "name": "rewardsWeight",
          "type": "uint256"
        },
        {
          "internalType": "uint256",
          "name": "accBTokensPerShare",
          "type": "uint256"
        },
        {
          "internalType": "uint256",
          "name": "accBorrowedRewardsPerShare",
          "type": "uint256"
        }
      ],
      "stateMutability": "view",
      "type": "function"
    },
    {
      "inputs": [
        {
          "internalType": "string",
          "name": "",
          "type": "string"
        }
      ],
      "name": "assetNameExist",
      "outputs": [
        {
          "internalType": "bool",
          "name": "",
          "type": "bool"
        }
      ],
      "stateMutability": "view",
      "type": "function"
    },
    {
      "inputs": [
        {
          "internalType": "uint256",
          "name": "",
          "type": "uint256"
        }
      ],
      "name": "assets",
      "outputs": [
        {
          "internalType": "string",
          "name": "",
          "type": "string"
        }
      ],
      "stateMutability": "view",
      "type": "function"
    },
    {
      "inputs": [
        {
          "internalType": "address",
          "name": "",
          "type": "address"
        }
      ],
      "name": "bTokenExist",
      "outputs": [
        {
          "internalType": "bool",
          "name": "",
          "type": "bool"
        }
      ],
      "stateMutability": "view",
      "type": "function"
    },
    {
      "inputs": [
        {
          "internalType": "uint256",
          "name": "",
          "type": "uint256"
        }
      ],
      "name": "bTokens",
      "outputs": [
        {
          "internalType": "address",
          "name": "",
          "type": "address"
        }
      ],
      "stateMutability": "view",
      "type": "function"
    },
    {
      "inputs": [
        {
          "internalType": "string",
          "name": "_assetName",
          "type": "string"
        },
        {
          "internalType": "uint256",
          "name": "_amount",
          "type": "uint256"
        }
      ],
      "name": "decreaseAssetsTotalBorrowed",
      "outputs": [],
      "stateMutability": "nonpayable",
      "type": "function"
    },
    {
      "inputs": [
        {
          "internalType": "string",
          "name": "_assetName",
          "type": "string"
        }
      ],
      "name": "getAssetInfo",
      "outputs": [
        {
          "components": [
            {
              "internalType": "uint256",
              "name": "id",
              "type": "uint256"
            },
            {
              "internalType": "string",
              "name": "name",
              "type": "string"
            },
            {
              "internalType": "address",
              "name": "addr",
              "type": "address"
            },
            {
              "internalType": "address",
              "name": "bTokenAddress",
              "type": "address"
            },
            {
              "internalType": "uint256",
              "name": "liquidationThreshold",
              "type": "uint256"
            },
            {
              "internalType": "uint256",
              "name": "lastBTokenBalance",
              "type": "uint256"
            },
            {
              "internalType": "uint256",
              "name": "totalBorrowed",
              "type": "uint256"
            },
            {
              "internalType": "uint256",
              "name": "rewardsWeight",
              "type": "uint256"
            },
            {
              "internalType": "uint256",
              "name": "accBTokensPerShare",
              "type": "uint256"
            },
            {
              "internalType": "uint256",
              "name": "accBorrowedRewardsPerShare",
              "type": "uint256"
            }
          ],
          "internalType": "struct Sio2AdapterAssetManager.Asset",
          "name": "",
          "type": "tuple"
        }
      ],
      "stateMutability": "view",
      "type": "function"
    },
    {
      "inputs": [
        {
          "internalType": "address",
          "name": "_assetAddr",
          "type": "address"
        }
      ],
      "name": "getAssetParameters",
      "outputs": [
        {
          "internalType": "uint256",
          "name": "liquidationThreshold",
          "type": "uint256"
        },
        {
          "internalType": "uint256",
          "name": "liquidationPenalty",
          "type": "uint256"
        },
        {
          "internalType": "uint256",
          "name": "loanToValue",
          "type": "uint256"
        }
      ],
      "stateMutability": "view",
      "type": "function"
    },
    {
      "inputs": [
        {
          "internalType": "address",
          "name": "asset",
          "type": "address"
        }
      ],
      "name": "getAssetWeight",
      "outputs": [
        {
          "internalType": "uint256",
          "name": "",
          "type": "uint256"
        }
      ],
      "stateMutability": "view",
      "type": "function"
    },
    {
      "inputs": [],
      "name": "getAssetsNames",
      "outputs": [
        {
          "internalType": "string[]",
          "name": "",
          "type": "string[]"
        }
      ],
      "stateMutability": "view",
      "type": "function"
    },
    {
      "inputs": [
        {
          "internalType": "address",
          "name": "_user",
          "type": "address"
        }
      ],
      "name": "getAvailableTokensToBorrow",
      "outputs": [
        {
          "internalType": "uint256[]",
          "name": "",
          "type": "uint256[]"
        }
      ],
      "stateMutability": "view",
      "type": "function"
    },
    {
      "inputs": [
        {
          "internalType": "address",
          "name": "_user",
          "type": "address"
        }
      ],
      "name": "getAvailableTokensToRepay",
      "outputs": [
        {
          "internalType": "string[]",
          "name": "",
          "type": "string[]"
        },
        {
          "internalType": "uint256[]",
          "name": "",
          "type": "uint256[]"
        }
      ],
      "stateMutability": "view",
      "type": "function"
    },
    {
      "inputs": [],
      "name": "getBTokens",
      "outputs": [
        {
          "internalType": "address[]",
          "name": "",
          "type": "address[]"
        }
      ],
      "stateMutability": "view",
      "type": "function"
    },
    {
      "inputs": [
        {
          "internalType": "string",
          "name": "assetName",
          "type": "string"
        }
      ],
      "name": "getRewardsWeight",
      "outputs": [
        {
          "internalType": "uint256",
          "name": "",
          "type": "uint256"
        }
      ],
      "stateMutability": "view",
      "type": "function"
    },
    {
      "inputs": [
        {
          "internalType": "string",
          "name": "_assetName",
          "type": "string"
        },
        {
          "internalType": "uint256",
          "name": "_income",
          "type": "uint256"
        }
      ],
      "name": "increaseAccBTokensPerShare",
      "outputs": [],
      "stateMutability": "nonpayable",
      "type": "function"
    },
    {
      "inputs": [
        {
          "internalType": "string",
          "name": "_assetName",
          "type": "string"
        },
        {
          "internalType": "uint256",
          "name": "_assetRewards",
          "type": "uint256"
        }
      ],
      "name": "increaseAccBorrowedRewardsPerShare",
      "outputs": [],
      "stateMutability": "nonpayable",
      "type": "function"
    },
    {
      "inputs": [
        {
          "internalType": "string",
          "name": "_assetName",
          "type": "string"
        },
        {
          "internalType": "uint256",
          "name": "_amount",
          "type": "uint256"
        }
      ],
      "name": "increaseAssetsTotalBorrowed",
      "outputs": [],
      "stateMutability": "nonpayable",
      "type": "function"
    },
    {
      "inputs": [
        {
          "internalType": "contract ISio2LendingPool",
          "name": "_pool",
          "type": "address"
        },
        {
          "internalType": "address",
          "name": "_snastr",
          "type": "address"
        }
      ],
      "name": "initialize",
      "outputs": [],
      "stateMutability": "nonpayable",
      "type": "function"
    },
    {
      "inputs": [],
      "name": "owner",
      "outputs": [
        {
          "internalType": "address",
          "name": "",
          "type": "address"
        }
      ],
      "stateMutability": "view",
      "type": "function"
    },
    {
      "inputs": [],
      "name": "pool",
      "outputs": [
        {
          "internalType": "contract ISio2LendingPool",
          "name": "",
          "type": "address"
        }
      ],
      "stateMutability": "view",
      "type": "function"
    },
    {
      "inputs": [
        {
          "internalType": "string",
          "name": "_assetName",
          "type": "string"
        }
      ],
      "name": "removeAsset",
      "outputs": [],
      "stateMutability": "nonpayable",
      "type": "function"
    },
    {
      "inputs": [],
      "name": "renounceOwnership",
      "outputs": [],
      "stateMutability": "nonpayable",
      "type": "function"
    },
    {
      "inputs": [
        {
          "internalType": "contract Sio2Adapter",
          "name": "_adapter",
          "type": "address"
        }
      ],
      "name": "setAdapter",
      "outputs": [],
      "stateMutability": "nonpayable",
      "type": "function"
    },
    {
      "inputs": [
        {
          "internalType": "address",
          "name": "_tokenAddress",
          "type": "address"
        },
        {
          "internalType": "uint256",
          "name": "_amount",
          "type": "uint256"
        }
      ],
      "name": "to18DecFormat",
      "outputs": [
        {
          "internalType": "uint256",
          "name": "",
          "type": "uint256"
        }
      ],
      "stateMutability": "view",
      "type": "function"
    },
    {
      "inputs": [
        {
          "internalType": "address",
          "name": "_tokenAddress",
          "type": "address"
        },
        {
          "internalType": "uint256",
          "name": "_amount",
          "type": "uint256"
        }
      ],
      "name": "toNativeDecFormat",
      "outputs": [
        {
          "internalType": "uint256",
          "name": "",
          "type": "uint256"
        }
      ],
      "stateMutability": "view",
      "type": "function"
    },
    {
      "inputs": [
        {
          "internalType": "address",
          "name": "newOwner",
          "type": "address"
        }
      ],
      "name": "transferOwnership",
      "outputs": [],
      "stateMutability": "nonpayable",
      "type": "function"
    },
    {
      "inputs": [
        {
          "internalType": "address",
          "name": "_user",
          "type": "address"
        }
      ],
      "name": "updateBalanceInAdaptersDistributor",
      "outputs": [],
      "stateMutability": "nonpayable",
      "type": "function"
    },
    {
      "inputs": [
        {
          "internalType": "string",
          "name": "_assetName",
          "type": "string"
        }
      ],
      "name": "updateLastBTokenBalance",
      "outputs": [],
      "stateMutability": "nonpayable",
      "type": "function"
    }
  ],
  "bytecode": {
    "object": "0x608060405234801561001057600080fd5b50613880806100206000396000f3fe608060405234801561001057600080fd5b50600436106101e55760003560e01c8063724eecd61161010f578063cde131d5116100a2578063eb4c0ae511610071578063eb4c0ae51461049a578063ed57355e146104c3578063f2fde38b146104d6578063f399a83e146104e957600080fd5b8063cde131d514610423578063cf35bdd014610444578063d8b5780814610464578063e18cf0b31461048757600080fd5b806394ca44c8116100de57806394ca44c8146103ba578063a3b1b956146103e8578063ab1da79c146103fb578063ac9cb4701461040e57600080fd5b8063724eecd614610361578063759af9ec1461038157806381a3bca8146103945780638da5cb5b146103a957600080fd5b80633a7e9db0116101875780635360d451116101565780635360d451146102f557806366e2cdb6146103085780636ed2c7411461031b578063715018a61461035957600080fd5b80633a7e9db0146102a95780633ea5856f146102bc578063485cc955146102cf578063508e96ca146102e257600080fd5b80631b2d95ab116101c35780631b2d95ab1461024257806331ec64111461026257806335aa6453146102755780633683bfc51461028857600080fd5b806303eadcfc146101ea5780631041dc321461021a57806316f0115b1461022f575b600080fd5b6098546101fd906001600160a01b031681565b6040516001600160a01b0390911681526020015b60405180910390f35b61022d610228366004612c3a565b6104fc565b005b6097546101fd906001600160a01b031681565b610255610250366004612dc1565b6106fe565b6040516102119190613393565b61022d610270366004612dc1565b610890565b61022d610283366004612e2d565b610987565b61029b610296366004612dc1565b6109eb565b604051908152602001610211565b61029b6102b7366004612c3a565b610a16565b609e546101fd906001600160a01b031681565b61022d6102dd366004612d89565b610d4f565b61022d6102f0366004612e2d565b610f97565b61022d610303366004612e2d565b610ff2565b61029b610316366004612c9d565b61107b565b610349610329366004612dc1565b8051602081830181018051609d8252928201919093012091525460ff1681565b6040519015158152602001610211565b61022d61119a565b61037461036f366004612c3a565b6111ae565b60405161021191906132a6565b61022d61038f366004612dc1565b6114da565b61039c6119ff565b6040516102119190613221565b6033546001600160a01b03166101fd565b6103cd6103c8366004612c3a565b611a61565b60408051938452602084019290925290820152606001610211565b61029b6103f6366004612c9d565b611b04565b61022d610409366004612c3a565b611c13565b610416611c76565b604051610211919061326e565b610436610431366004612c3a565b611d4f565b604051610211929190613281565b610457610452366004613024565b611fa0565b60405161021191906132b9565b610349610472366004612c3a565b609c6020526000908152604090205460ff1681565b61022d610495366004612e2d565b61204c565b6104ad6104a8366004612dc1565b6120cb565b6040516102119a9998979695949392919061343d565b6101fd6104d1366004613024565b6121bb565b61022d6104e4366004612c3a565b6121e5565b61022d6104f7366004612c5d565b61225e565b6098546001600160a01b0316331461052f5760405162461bcd60e51b815260040161052690613311565b60405180910390fd5b609854604051636f77926b60e01b81526001600160a01b0383811660048301526000921690636f77926b9060240160006040518083038186803b15801561057557600080fd5b505afa158015610589573d6000803e3d6000fd5b505050506040513d6000823e601f3d908101601f191682016040526105b19190810190612f76565b604080820151609e549151631704b63f60e31b8152929350916001600160a01b039091169063b825b1f8906105ec90869085906004016132cc565b600060405180830381600087803b15801561060657600080fd5b505af1925050508015610617575060015b61069057610623613794565b806308c379a0141561068457506106386137ac565b806106435750610686565b7f09ea598594b5fdf29f0c25c248aa5544ff0096cb773326201275441cf0e4e8cf848383604051610676939291906131d3565b60405180910390a150505050565b505b3d6000803e3d6000fd5b604080516001600160a01b0385168152606060208201819052600c908201526b29b4b7992fa0b230b83a32b960a11b60808201529081018290527f8b82945fd970ddd18b63c39a87ceefd3db5966cb2ab0c9ec3043baa8a70b4c279060a0015b60405180910390a15b505050565b610766604051806101400160405280600081526020016060815260200160006001600160a01b0316815260200160006001600160a01b031681526020016000815260200160008152602001600081526020016000815260200160008152602001600081525090565b609b826040516107769190613193565b908152602001604051809103902060405180610140016040529081600082015481526020016001820180546107aa906136e6565b80601f01602080910402602001604051908101604052809291908181526020018280546107d6906136e6565b80156108235780601f106107f857610100808354040283529160200191610823565b820191906000526020600020905b81548152906001019060200180831161080657829003601f168201915b505050918352505060028201546001600160a01b03908116602083015260038301541660408201526004820154606082015260058201546080820152600682015460a0820152600782015460c0820152600882015460e08201526009909101546101009091015292915050565b6098546001600160a01b031633146108ba5760405162461bcd60e51b815260040161052690613311565b6000609b826040516108cc9190613193565b90815260405190819003602001812060038101546098546370a0823160e01b84526001600160a01b0390811660048501529193506000929116906370a082319060240160206040518083038186803b15801561092757600080fd5b505afa15801561093b573d6000803e3d6000fd5b505050506040513d601f19601f8201168201806040525081019061095f919061303c565b600283015490915061097a906001600160a01b03168261107b565b8260050181905550505050565b6098546001600160a01b031633146109b15760405162461bcd60e51b815260040161052690613311565b80609b836040516109c29190613193565b908152602001604051809103902060060160008282546109e29190613537565b90915550505050565b6000609b826040516109fd9190613193565b9081526020016040518091039020600701549050919050565b600080609860009054906101000a90046001600160a01b03166001600160a01b031663af1df2556040518163ffffffff1660e01b815260040160206040518083038186803b158015610a6757600080fd5b505afa158015610a7b573d6000803e3d6000fd5b505050506040513d601f19601f82011682018060405250810190610a9f9190612d6d565b90506000609760009054906101000a90046001600160a01b03166001600160a01b031663d1946dbc6040518163ffffffff1660e01b815260040160006040518083038186803b158015610af157600080fd5b505afa158015610b05573d6000803e3d6000fd5b505050506040513d6000823e601f3d908101601f19168201604052610b2d9190810190612cc8565b90506000805b8251811015610ca95760975483516000916001600160a01b0316906335ea6a7590869085908110610b7457634e487b7160e01b600052603260045260246000fd5b60200260200101516040518263ffffffff1660e01b8152600401610ba791906001600160a01b0391909116815260200190565b6101806040518083038186803b158015610bc057600080fd5b505afa158015610bd4573d6000803e3d6000fd5b505050506040513d601f19601f82011682018060405250810190610bf89190612e8a565b60e0810151604051631e23703160e31b81526001600160a01b03808316600483015292935090916000919088169063f11b81889060240160a06040518083038186803b158015610c4757600080fd5b505afa158015610c5b573d6000803e3d6000fd5b505050506040513d601f19601f82011682018060405250810190610c7f9190613077565b5050505090508085610c919190613537565b94505050508080610ca19061374d565b915050610b33565b50604051631e23703160e31b81526001600160a01b0386811660048301526000919085169063f11b81889060240160a06040518083038186803b158015610cef57600080fd5b505afa158015610d03573d6000803e3d6000fd5b505050506040513d601f19601f82011682018060405250810190610d279190613077565b50505050905081816064610d3b919061365d565b610d45919061354f565b9695505050505050565b600054610100900460ff1615808015610d6f5750600054600160ff909116105b80610d895750303b158015610d89575060005460ff166001145b610dec5760405162461bcd60e51b815260206004820152602e60248201527f496e697469616c697a61626c653a20636f6e747261637420697320616c72656160448201526d191e481a5b9a5d1a585b1a5e995960921b6064820152608401610526565b6000805460ff191660011790558015610e0f576000805461ff0019166101001790555b610e1761282a565b610e1f612859565b6001600160a01b038316610e815760405162461bcd60e51b815260206004820152602360248201527f4c656e64696e6720706f6f6c20616464726573732063616e6e6f74206265207a60448201526265726f60e81b6064820152608401610526565b6001600160a01b038216610ed75760405162461bcd60e51b815260206004820152601d60248201527f736e4153545220616464726573732063616e6e6f74206265207a65726f0000006044820152606401610526565b609a80546001810182556000919091527f44da158ba27f9252712a74ff6a55c5d531f69609f1f6e7f17c4443a8e2089be40180546001600160a01b038085166001600160a01b031992831617909255609e8054821673294bb6b8e692543f373383a84a1f296d3c297aef179055609780549286169290911691909117905580156106f9576000805461ff0019169055604051600181527f7f26b83ff96e1f2b6a682f133852f6798a09c465da95921460cefb3847402498906020016106f0565b6098546001600160a01b03163314610fc15760405162461bcd60e51b815260040161052690613311565b80609b83604051610fd29190613193565b908152602001604051809103902060060160008282546109e2919061367c565b6098546001600160a01b0316331461101c5760405162461bcd60e51b815260040161052690613311565b6000609b8360405161102e9190613193565b90815260200160405180910390209050806006015464e8d4a5100083611054919061365d565b61105e919061354f565b8160080160008282546110719190613537565b9091555050505050565b60006012836001600160a01b031663313ce5676040518163ffffffff1660e01b815260040160206040518083038186803b1580156110b857600080fd5b505afa1580156110cc573d6000803e3d6000fd5b505050506040513d601f19601f820116820180604052508101906110f091906130bf565b60ff16101561119157826001600160a01b031663313ce5676040518163ffffffff1660e01b815260040160206040518083038186803b15801561113257600080fd5b505afa158015611146573d6000803e3d6000fd5b505050506040513d601f19601f8201168201806040525081019061116a91906130bf565b611175906012613693565b61118090600a6135b2565b61118a908361365d565b9050611194565b50805b92915050565b6111a2612888565b6111ac60006128e2565b565b60985460405163d6fe3d3960e01b81526001600160a01b03838116600483015260609260009291169063d6fe3d3990602401604080518083038186803b1580156111f757600080fd5b505afa15801561120b573d6000803e3d6000fd5b505050506040513d601f19601f8201168201806040525081019061122f9190613054565b506099549091506000816001600160401b0381111561125e57634e487b7160e01b600052604160045260246000fd5b60405190808252806020026020018201604052801561129157816020015b606081526020019060019003908161127c5790505b5090506000826001600160401b038111156112bc57634e487b7160e01b600052604160045260246000fd5b6040519080825280602002602001820160405280156112e5578160200160208202803683370190505b50609980546040805160208084028201810190925282815293945060009084015b828210156113b2578382906000526020600020018054611325906136e6565b80601f0160208091040260200160405190810160405280929190818152602001828054611351906136e6565b801561139e5780601f106113735761010080835404028352916020019161139e565b820191906000526020600020905b81548152906001019060200180831161138157829003601f168201915b505050505081526020019060010190611306565b50505050915060005b838110156114d0576000609b8483815181106113e757634e487b7160e01b600052603260045260246000fd5b60200260200101516040516113fc9190613193565b908152604051908190036020018120600201546098546343f78c3560e11b83526001600160a01b0391821660048401819052602484018a9052935016906387ef186a9060440160206040518083038186803b15801561145a57600080fd5b505afa15801561146e573d6000803e3d6000fd5b505050506040513d601f19601f82011682018060405250810190611492919061303c565b8383815181106114b257634e487b7160e01b600052603260045260246000fd5b602090810291909101015250806114c88161374d565b9150506113bb565b5095945050505050565b6114e2612888565b60006001600160a01b0316609b826040516114fd9190613193565b908152604051908190036020019020600201546001600160a01b031614156115605760405162461bcd60e51b8152602060048201526016602482015275151a195c99481a5cc81b9bc81cdd58da08185cdcd95d60521b6044820152606401610526565b6000609b826040516115729190613193565b908152602001604051809103902060405180610140016040529081600082015481526020016001820180546115a6906136e6565b80601f01602080910402602001604051908101604052809291908181526020018280546115d2906136e6565b801561161f5780601f106115f45761010080835404028352916020019161161f565b820191906000526020600020905b81548152906001019060200180831161160257829003601f168201915b505050918352505060028201546001600160a01b03908116602083015260038301541660408201526004820154606082015260058201546080820152600682015460a0820152600782015460c0820152600882015460e0820152600990910154610100909101526099805491925060009161169c9060019061367c565b815481106116ba57634e487b7160e01b600052603260045260246000fd5b9060005260206000200180546116cf906136e6565b80601f01602080910402602001604051908101604052809291908181526020018280546116fb906136e6565b80156117485780601f1061171d57610100808354040283529160200191611748565b820191906000526020600020905b81548152906001019060200180831161172b57829003601f168201915b5050505050905080609983600001518154811061177557634e487b7160e01b600052603260045260246000fd5b906000526020600020019080519060200190611792929190612992565b5060998054806117b257634e487b7160e01b600052603160045260246000fd5b6001900381819060005260206000200160006117ce9190612a16565b9055609a8054600091906117e49060019061367c565b8154811061180257634e487b7160e01b600052603260045260246000fd5b60009182526020909120015483516001600160a01b0390911691508190609a9061182d906001613537565b8154811061184b57634e487b7160e01b600052603260045260246000fd5b9060005260206000200160006101000a8154816001600160a01b0302191690836001600160a01b03160217905550609a80548061189857634e487b7160e01b600052603160045260246000fd5b60008281526020808220830160001990810180546001600160a01b031916905590920190925560608501516001600160a01b03168252609c81526040808320805460ff19169055908501519051609d916118f191613193565b908152604051908190036020018120805492151560ff1990931692909217909155835190609b90611923908590613193565b90815260405190819003602001812091909155609b90611944908690613193565b90815260405190819003602001902060008082556119656001830182612a16565b506002810180546001600160a01b03199081169091556003820180549091169055600060048201819055600582018190556006820181905560078201819055600882018190556009909101556040516119bf908590613193565b604051908190038120338252907f865f83eba4ebb82160312aa5f86592a19c2d98ec819c1021514801e8b0a4b39d9060200160405180910390a250505050565b6060609a805480602002602001604051908101604052809291908181526020018280548015611a5757602002820191906000526020600020905b81546001600160a01b03168152600190910190602001808311611a39575b5050505050905090565b60975460405163c44b11f760e01b81526001600160a01b038381166004830152600092839283928392169063c44b11f79060240160206040518083038186803b158015611aad57600080fd5b505afa158015611ac1573d6000803e3d6000fd5b505050506040513d601f19601f82011682018060405250810190611ae59190612e6f565b5161ffff601082901c811697602083901c821697509116945092505050565b60006012836001600160a01b031663313ce5676040518163ffffffff1660e01b815260040160206040518083038186803b158015611b4157600080fd5b505afa158015611b55573d6000803e3d6000fd5b505050506040513d601f19601f82011682018060405250810190611b7991906130bf565b60ff16101561119157826001600160a01b031663313ce5676040518163ffffffff1660e01b815260040160206040518083038186803b158015611bbb57600080fd5b505afa158015611bcf573d6000803e3d6000fd5b505050506040513d601f19601f82011682018060405250810190611bf391906130bf565b611bfe906012613693565b611c0990600a6135b2565b61118a908361354f565b611c1b612888565b609880546001600160a01b0319166001600160a01b0383169081179091556040805133815260208101929092527f3e315d48a109b5e16e3a9bd644f5788469128e97e94f3224b967bb43552f5d38910160405180910390a150565b60606099805480602002602001604051908101604052809291908181526020016000905b82821015611d46578382906000526020600020018054611cb9906136e6565b80601f0160208091040260200160405190810160405280929190818152602001828054611ce5906136e6565b8015611d325780601f10611d0757610100808354040283529160200191611d32565b820191906000526020600020905b815481529060010190602001808311611d1557829003601f168201915b505050505081526020019060010190611c9a565b50505050905090565b609854604051636f77926b60e01b81526001600160a01b038381166004830152606092839260009290911690636f77926b9060240160006040518083038186803b158015611d9c57600080fd5b505afa158015611db0573d6000803e3d6000fd5b505050506040513d6000823e601f3d908101601f19168201604052611dd89190810190612f76565b905060008160800151516001600160401b03811115611e0757634e487b7160e01b600052604160045260246000fd5b604051908082528060200260200182016040528015611e3a57816020015b6060815260200190600190039081611e255790505b50905060008260800151516001600160401b03811115611e6a57634e487b7160e01b600052604160045260246000fd5b604051908082528060200260200182016040528015611e93578160200160208202803683370190505b5090508260800151915060005b8251811015611f945760985483516001600160a01b0390911690638fe37556908990869085908110611ee257634e487b7160e01b600052603260045260246000fd5b60200260200101516040518363ffffffff1660e01b8152600401611f079291906131af565b60206040518083038186803b158015611f1f57600080fd5b505afa158015611f33573d6000803e3d6000fd5b505050506040513d601f19601f82011682018060405250810190611f57919061303c565b828281518110611f7757634e487b7160e01b600052603260045260246000fd5b602090810291909101015280611f8c8161374d565b915050611ea0565b50909590945092505050565b60998181548110611fb057600080fd5b906000526020600020016000915090508054611fcb906136e6565b80601f0160208091040260200160405190810160405280929190818152602001828054611ff7906136e6565b80156120445780601f1061201957610100808354040283529160200191612044565b820191906000526020600020905b81548152906001019060200180831161202757829003601f168201915b505050505081565b6098546001600160a01b031633146120765760405162461bcd60e51b815260040161052690613311565b6000609b836040516120889190613193565b90815260200160405180910390209050806006015464e8d4a51000836120ae919061365d565b6120b8919061354f565b8160090160008282546110719190613537565b8051602081830181018051609b82529282019190930120915280546001820180549192916120f8906136e6565b80601f0160208091040260200160405190810160405280929190818152602001828054612124906136e6565b80156121715780601f1061214657610100808354040283529160200191612171565b820191906000526020600020905b81548152906001019060200180831161215457829003601f168201915b50505060028401546003850154600486015460058701546006880154600789015460088a01546009909a015498996001600160a01b0396871699959096169750929550909390928a565b609a81815481106121cb57600080fd5b6000918252602090912001546001600160a01b0316905081565b6121ed612888565b6001600160a01b0381166122525760405162461bcd60e51b815260206004820152602660248201527f4f776e61626c653a206e6577206f776e657220697320746865207a65726f206160448201526564647265737360d01b6064820152608401610526565b61225b816128e2565b50565b612266612888565b6000836001600160a01b03166395d89b416040518163ffffffff1660e01b815260040160006040518083038186803b1580156122a157600080fd5b505afa1580156122b5573d6000803e3d6000fd5b505050506040513d6000823e601f3d908101601f191682016040526122dd9190810190612dfb565b905060006001600160a01b0316609b826040516122fa9190613193565b908152604051908190036020019020600201546001600160a01b0316146123595760405162461bcd60e51b8152602060048201526013602482015272105cdcd95d08185b1c9958591e481859191959606a1b6044820152606401610526565b7fc5d2460186f7233c927e7db2dcc703c0e500b653ca82273b7bfad8045d85a4708160405160200161238b9190613193565b6040516020818303038152906040528051906020012014156123e25760405162461bcd60e51b815260206004820152601060248201526f456d707479206173736574206e616d6560801b6044820152606401610526565b6001600160a01b0383166000908152609c602052604090205460ff16156124555760405162461bcd60e51b815260206004820152602160248201527f537563682062546f6b656e206164647265737320616c726561647920616464656044820152601960fa1b6064820152608401610526565b609d816040516124659190613193565b9081526040519081900360200190205460ff16156124c55760405162461bcd60e51b815260206004820152601d60248201527f53756368206173736574206e616d6520616c72656164792061646465640000006044820152606401610526565b60975460405163c44b11f760e01b81526001600160a01b038681166004830152600092169063c44b11f79060240160206040518083038186803b15801561250b57600080fd5b505afa15801561251f573d6000803e3d6000fd5b505050506040513d601f19601f820116820180604052508101906125439190612e6f565b805190915060009060101c61ffff166040516370a0823160e01b81523060048201529091506000906001600160a01b038716906370a082319060240160206040518083038186803b15801561259757600080fd5b505afa1580156125ab573d6000803e3d6000fd5b505050506040513d601f19601f820116820180604052508101906125cf919061303c565b905060006040518061014001604052806099805490508152602001868152602001896001600160a01b03168152602001886001600160a01b0316815260200184815260200161261e8a8561107b565b815260006020808301829052604083018a9052606083018290526080909201819052828201516099805460018101825592528051939450612685937f72a152ddfb8e864297c917af52ea6c1c68aead0fee1a62673fcc7e0c94979d00909201920190612992565b5080609b866040516126979190613193565b90815260200160405180910390206000820151816000015560208201518160010190805190602001906126cb929190612992565b506040828101516002830180546001600160a01b03199081166001600160a01b0393841617909155606085015160038501805483169184169190911790556080850151600485015560a0850151600585015560c0850151600685015560e08501516007850155610100850151600885015561012090940151600990930192909255609a805460018181019092557f44da158ba27f9252712a74ff6a55c5d531f69609f1f6e7f17c4443a8e2089be4018054909416928b169283179093556000918252609c60205290819020805460ff19168317905551609d906127af908890613193565b908152604051908190036020018120805492151560ff19909316929092179091556001600160a01b038916906127e6908790613193565b604051908190038120338252907f938b5990c432a73433cb63daa65ed775089825c19f9d5e500b9d7bd63e2cda339060200160405180910390a35050505050505050565b600054610100900460ff166128515760405162461bcd60e51b815260040161052690613348565b6111ac612934565b600054610100900460ff166128805760405162461bcd60e51b815260040161052690613348565b6111ac612964565b6033546001600160a01b031633146111ac5760405162461bcd60e51b815260206004820181905260248201527f4f776e61626c653a2063616c6c6572206973206e6f7420746865206f776e65726044820152606401610526565b603380546001600160a01b038381166001600160a01b0319831681179093556040519116919082907f8be0079c531659141344cd1fd0a4f28419497f9722a3daafe3b4186f6b6457e090600090a35050565b600054610100900460ff1661295b5760405162461bcd60e51b815260040161052690613348565b6111ac336128e2565b600054610100900460ff1661298b5760405162461bcd60e51b815260040161052690613348565b6001606555565b82805461299e906136e6565b90600052602060002090601f0160209004810192826129c05760008555612a06565b82601f106129d957805160ff1916838001178555612a06565b82800160010185558215612a06579182015b82811115612a065782518255916020019190600101906129eb565b50612a12929150612a4c565b5090565b508054612a22906136e6565b6000825580601f10612a32575050565b601f01602090049060005260206000209081019061225b91905b5b80821115612a125760008155600101612a4d565b8051612a6c81613835565b919050565b600082601f830112612a81578081fd5b81516020612a8e826134ed565b604051612a9b8282613721565b8381528281019150858301600585901b87018401881015612aba578586fd5b855b85811015612afa5781516001600160401b03811115612ad9578788fd5b612ae78a87838c0101612b5e565b8552509284019290840190600101612abc565b5090979650505050505050565b600082601f830112612b17578081fd5b8135612b2281613510565b604051612b2f8282613721565b828152856020848701011115612b43578384fd5b82602086016020830137918201602001929092529392505050565b600082601f830112612b6e578081fd5b8151612b7981613510565b604051612b868282613721565b828152856020848701011115612b9a578384fd5b612bab8360208301602088016136b6565b95945050505050565b600060208284031215612bc5578081fd5b604051602081018181106001600160401b0382111715612be757612be761377e565b6040529151825250919050565b80516fffffffffffffffffffffffffffffffff81168114612a6c57600080fd5b805164ffffffffff81168114612a6c57600080fd5b805160ff81168114612a6c57600080fd5b600060208284031215612c4b578081fd5b8135612c5681613835565b9392505050565b600080600060608486031215612c71578182fd5b8335612c7c81613835565b92506020840135612c8c81613835565b929592945050506040919091013590565b60008060408385031215612caf578182fd5b8235612cba81613835565b946020939093013593505050565b60006020808385031215612cda578182fd5b82516001600160401b03811115612cef578283fd5b8301601f81018513612cff578283fd5b8051612d0a816134ed565b604051612d178282613721565b8281528481019150838501600584901b85018601891015612d36578687fd5b8694505b83851015612d61578051612d4d81613835565b835260019490940193918501918501612d3a565b50979650505050505050565b600060208284031215612d7e578081fd5b8151612c5681613835565b60008060408385031215612d9b578182fd5b8235612da681613835565b91506020830135612db681613835565b809150509250929050565b600060208284031215612dd2578081fd5b81356001600160401b03811115612de7578182fd5b612df384828501612b07565b949350505050565b600060208284031215612e0c578081fd5b81516001600160401b03811115612e21578182fd5b612df384828501612b5e565b60008060408385031215612e3f578182fd5b82356001600160401b03811115612e54578283fd5b612e6085828601612b07565b95602094909401359450505050565b600060208284031215612e80578081fd5b612c568383612bb4565b60006101808284031215612e9c578081fd5b612ea46134a2565b612eae8484612bb4565b8152612ebc60208401612bf4565b6020820152612ecd60408401612bf4565b6040820152612ede60608401612bf4565b6060820152612eef60808401612bf4565b6080820152612f0060a08401612bf4565b60a0820152612f1160c08401612c14565b60c0820152612f2260e08401612a61565b60e0820152610100612f35818501612a61565b90820152610120612f47848201612a61565b90820152610140612f59848201612a61565b90820152610160612f6b848201612c29565b908201529392505050565b600060208284031215612f87578081fd5b81516001600160401b0380821115612f9d578283fd5b9083019060e08286031215612fb0578283fd5b612fb86134cb565b82518152612fc860208401612a61565b60208201526040830151604082015260608301516060820152608083015182811115612ff2578485fd5b612ffe87828601612a71565b60808301525060a083015160a082015260c083015160c082015280935050505092915050565b600060208284031215613035578081fd5b5035919050565b60006020828403121561304d578081fd5b5051919050565b60008060408385031215613066578182fd5b505080516020909101519092909150565b600080600080600060a0868803121561308e578283fd5b8551945060208601519350604086015192506130ac60608701612bf4565b9150608086015190509295509295909350565b6000602082840312156130d0578081fd5b612c5682612c29565b600081518084526020808501808196508360051b81019150828601855b8581101561312057828403895261310e848351613167565b988501989350908401906001016130f6565b5091979650505050505050565b6000815180845260208085019450808401835b8381101561315c57815187529582019590820190600101613140565b509495945050505050565b6000815180845261317f8160208601602086016136b6565b601f01601f19169290920160200192915050565b600082516131a58184602087016136b6565b9190910192915050565b6001600160a01b0383168152604060208201819052600090612df390830184613167565b6001600160a01b0384168152608060208201819052600c908201526b29b4b7992fa0b230b83a32b960a11b60a0820152600060c082018460408401528281036060840152610d458185613167565b6020808252825182820181905260009190848201906040850190845b818110156132625783516001600160a01b03168352928401929184019160010161323d565b50909695505050505050565b602081526000612c5660208301846130d9565b60408152600061329460408301856130d9565b8281036020840152612bab818561312d565b602081526000612c56602083018461312d565b602081526000612c566020830184613167565b6060815260006132f860608301600c81526b29b4b7992fa0b230b83a32b960a11b602082015260400190565b6001600160a01b03949094166020830152506040015290565b60208082526018908201527f416c6c6f776564206f6e6c7920666f7220616461707465720000000000000000604082015260600190565b6020808252602b908201527f496e697469616c697a61626c653a20636f6e7472616374206973206e6f74206960408201526a6e697469616c697a696e6760a81b606082015260800190565b6020815281516020820152600060208301516101408060408501526133bc610160850183613167565b915060408501516133d860608601826001600160a01b03169052565b5060608501516001600160a01b038116608086015250608085015160a085015260a085015160c085015260c085015160e085015260e0850151610100818187015280870151915050610120818187015280870151838701525050508091505092915050565b60006101408c83528060208401526134578184018d613167565b6001600160a01b039b8c16604085015299909a16606083015250608081019690965260a086019490945260c085019290925260e0840152610100830152610120909101529392505050565b60405161018081016001600160401b03811182821017156134c5576134c561377e565b60405290565b60405160e081016001600160401b03811182821017156134c5576134c561377e565b60006001600160401b038211156135065761350661377e565b5060051b60200190565b60006001600160401b038211156135295761352961377e565b50601f01601f191660200190565b6000821982111561354a5761354a613768565b500190565b60008261356a57634e487b7160e01b81526012600452602481fd5b500490565b600181815b808511156135aa57816000190482111561359057613590613768565b8085161561359d57918102915b93841c9390800290613574565b509250929050565b6000612c5660ff8416836000826135cb57506001611194565b816135d857506000611194565b81600181146135ee57600281146135f857613614565b6001915050611194565b60ff84111561360957613609613768565b50506001821b611194565b5060208310610133831016604e8410600b8410161715613637575081810a611194565b613641838361356f565b806000190482111561365557613655613768565b029392505050565b600081600019048311821515161561367757613677613768565b500290565b60008282101561368e5761368e613768565b500390565b600060ff821660ff8416808210156136ad576136ad613768565b90039392505050565b60005b838110156136d15781810151838201526020016136b9565b838111156136e0576000848401525b50505050565b600181811c908216806136fa57607f821691505b6020821081141561371b57634e487b7160e01b600052602260045260246000fd5b50919050565b601f8201601f191681016001600160401b03811182821017156137465761374661377e565b6040525050565b600060001982141561376157613761613768565b5060010190565b634e487b7160e01b600052601160045260246000fd5b634e487b7160e01b600052604160045260246000fd5b600060033d11156137a957600481823e5160e01c5b90565b600060443d10156137ba5790565b6040516003193d81016004833e81513d6001600160401b0381602484011181841117156137e957505050505090565b82850191508151818111156138015750505050505090565b843d870101602082850101111561381b5750505050505090565b61382a60208286010187613721565b509095945050505050565b6001600160a01b038116811461225b57600080fdfea2646970667358221220ba5dde4a8b41d1d3f81956e2fa7de0105ea44d6e1c365ac919d486e312f72c6964736f6c63430008040033",
    "linkReferences": {}
  },
  "methodIdentifiers": {
    "adapter()": "03eadcfc",
    "adaptersDistributor()": "3ea5856f",
    "addAsset(address,address,uint256)": "f399a83e",
    "assetInfo(string)": "eb4c0ae5",
    "assetNameExist(string)": "6ed2c741",
    "assets(uint256)": "cf35bdd0",
    "bTokenExist(address)": "d8b57808",
    "bTokens(uint256)": "ed57355e",
    "decreaseAssetsTotalBorrowed(string,uint256)": "508e96ca",
    "getAssetInfo(string)": "1b2d95ab",
    "getAssetParameters(address)": "94ca44c8",
    "getAssetWeight(address)": "3a7e9db0",
    "getAssetsNames()": "ac9cb470",
    "getAvailableTokensToBorrow(address)": "724eecd6",
    "getAvailableTokensToRepay(address)": "cde131d5",
    "getBTokens()": "81a3bca8",
    "getRewardsWeight(string)": "3683bfc5",
    "increaseAccBTokensPerShare(string,uint256)": "5360d451",
    "increaseAccBorrowedRewardsPerShare(string,uint256)": "e18cf0b3",
    "increaseAssetsTotalBorrowed(string,uint256)": "35aa6453",
    "initialize(address,address)": "485cc955",
    "owner()": "8da5cb5b",
    "pool()": "16f0115b",
    "removeAsset(string)": "759af9ec",
    "renounceOwnership()": "715018a6",
    "setAdapter(address)": "ab1da79c",
    "to18DecFormat(address,uint256)": "66e2cdb6",
    "toNativeDecFormat(address,uint256)": "a3b1b956",
    "transferOwnership(address)": "f2fde38b",
    "updateBalanceInAdaptersDistributor(address)": "1041dc32",
    "updateLastBTokenBalance(string)": "31ec6411"
  },
  "id": 3
}