{
  "abi": [
    {
      "anonymous": false,
      "inputs": [
        {
          "indexed": false,
          "internalType": "address",
          "name": "owner",
          "type": "address"
        },
        {
          "indexed": true,
          "internalType": "string",
          "name": "assetName",
          "type": "string"
        },
        {
          "indexed": true,
          "internalType": "address",
          "name": "assetAddress",
          "type": "address"
        }
      ],
      "name": "AddAsset",
      "type": "event"
    },
    {
      "anonymous": false,
      "inputs": [
        {
          "indexed": false,
          "internalType": "uint8",
          "name": "version",
          "type": "uint8"
        }
      ],
      "name": "Initialized",
      "type": "event"
    },
    {
      "anonymous": false,
      "inputs": [
        {
          "indexed": true,
          "internalType": "address",
          "name": "previousOwner",
          "type": "address"
        },
        {
          "indexed": true,
          "internalType": "address",
          "name": "newOwner",
          "type": "address"
        }
      ],
      "name": "OwnershipTransferred",
      "type": "event"
    },
    {
      "anonymous": false,
      "inputs": [
        {
          "indexed": false,
          "internalType": "address",
          "name": "owner",
          "type": "address"
        },
        {
          "indexed": true,
          "internalType": "string",
          "name": "assetName",
          "type": "string"
        }
      ],
      "name": "RemoveAsset",
      "type": "event"
    },
    {
      "anonymous": false,
      "inputs": [
        {
          "indexed": false,
          "internalType": "address",
          "name": "who",
          "type": "address"
        },
        {
          "indexed": false,
          "internalType": "address",
          "name": "adapterAddress",
          "type": "address"
        }
      ],
      "name": "SetAdapter",
      "type": "event"
    },
    {
      "inputs": [],
      "name": "adapter",
      "outputs": [
        {
          "internalType": "contract Sio2Adapter",
          "name": "",
          "type": "address"
        }
      ],
      "stateMutability": "view",
      "type": "function"
    },
    {
      "inputs": [
        {
          "internalType": "address",
          "name": "_assetAddress",
          "type": "address"
        },
        {
          "internalType": "address",
          "name": "_bToken",
          "type": "address"
        },
        {
          "internalType": "uint256",
          "name": "_rewardsWeight",
          "type": "uint256"
        }
      ],
      "name": "addAsset",
      "outputs": [],
      "stateMutability": "nonpayable",
      "type": "function"
    },
    {
      "inputs": [
        {
          "internalType": "string",
          "name": "",
          "type": "string"
        }
      ],
      "name": "assetInfo",
      "outputs": [
        {
          "internalType": "uint256",
          "name": "id",
          "type": "uint256"
        },
        {
          "internalType": "string",
          "name": "name",
          "type": "string"
        },
        {
          "internalType": "address",
          "name": "addr",
          "type": "address"
        },
        {
          "internalType": "address",
          "name": "bTokenAddress",
          "type": "address"
        },
        {
          "internalType": "uint256",
          "name": "liquidationThreshold",
          "type": "uint256"
        },
        {
          "internalType": "uint256",
          "name": "lastBTokenBalance",
          "type": "uint256"
        },
        {
          "internalType": "uint256",
          "name": "totalBorrowed",
          "type": "uint256"
        },
        {
          "internalType": "uint256",
          "name": "rewardsWeight",
          "type": "uint256"
        },
        {
          "internalType": "uint256",
          "name": "accBTokensPerShare",
          "type": "uint256"
        },
        {
          "internalType": "uint256",
          "name": "accBorrowedRewardsPerShare",
          "type": "uint256"
        }
      ],
      "stateMutability": "view",
      "type": "function"
    },
    {
      "inputs": [
        {
          "internalType": "string",
          "name": "",
          "type": "string"
        }
      ],
      "name": "assetNameExist",
      "outputs": [
        {
          "internalType": "bool",
          "name": "",
          "type": "bool"
        }
      ],
      "stateMutability": "view",
      "type": "function"
    },
    {
      "inputs": [
        {
          "internalType": "uint256",
          "name": "",
          "type": "uint256"
        }
      ],
      "name": "assets",
      "outputs": [
        {
          "internalType": "string",
          "name": "",
          "type": "string"
        }
      ],
      "stateMutability": "view",
      "type": "function"
    },
    {
      "inputs": [
        {
          "internalType": "address",
          "name": "",
          "type": "address"
        }
      ],
      "name": "bTokenExist",
      "outputs": [
        {
          "internalType": "bool",
          "name": "",
          "type": "bool"
        }
      ],
      "stateMutability": "view",
      "type": "function"
    },
    {
      "inputs": [
        {
          "internalType": "uint256",
          "name": "",
          "type": "uint256"
        }
      ],
      "name": "bTokens",
      "outputs": [
        {
          "internalType": "address",
          "name": "",
          "type": "address"
        }
      ],
      "stateMutability": "view",
      "type": "function"
    },
    {
      "inputs": [
        {
          "internalType": "string",
          "name": "_assetName",
          "type": "string"
        },
        {
          "internalType": "uint256",
          "name": "_amount",
          "type": "uint256"
        }
      ],
      "name": "decreaseAssetsTotalBorrowed",
      "outputs": [],
      "stateMutability": "nonpayable",
      "type": "function"
    },
    {
      "inputs": [],
      "name": "getAssetsNames",
      "outputs": [
        {
          "internalType": "string[]",
          "name": "",
          "type": "string[]"
        }
      ],
      "stateMutability": "view",
      "type": "function"
    },
    {
      "inputs": [
        {
          "internalType": "address",
          "name": "_user",
          "type": "address"
        }
      ],
      "name": "getAvailableTokensToBorrow",
      "outputs": [
        {
          "internalType": "uint256[]",
          "name": "",
          "type": "uint256[]"
        }
      ],
      "stateMutability": "view",
      "type": "function"
    },
    {
      "inputs": [
        {
          "internalType": "address",
          "name": "_user",
          "type": "address"
        }
      ],
      "name": "getAvailableTokensToRepay",
      "outputs": [
        {
          "internalType": "string[]",
          "name": "",
          "type": "string[]"
        },
        {
          "internalType": "uint256[]",
          "name": "",
          "type": "uint256[]"
        }
      ],
      "stateMutability": "view",
      "type": "function"
    },
    {
      "inputs": [],
      "name": "getBTokens",
      "outputs": [
        {
          "internalType": "address[]",
          "name": "",
          "type": "address[]"
        }
      ],
      "stateMutability": "view",
      "type": "function"
    },
    {
      "inputs": [
        {
          "internalType": "string",
          "name": "assetName",
          "type": "string"
        }
      ],
      "name": "getRewardsWeight",
      "outputs": [
        {
          "internalType": "uint256",
          "name": "",
          "type": "uint256"
        }
      ],
      "stateMutability": "view",
      "type": "function"
    },
    {
      "inputs": [
        {
          "internalType": "string",
          "name": "_assetName",
          "type": "string"
        },
        {
          "internalType": "uint256",
          "name": "_income",
          "type": "uint256"
        }
      ],
      "name": "increaseAccBTokensPerShare",
      "outputs": [],
      "stateMutability": "nonpayable",
      "type": "function"
    },
    {
      "inputs": [
        {
          "internalType": "string",
          "name": "_assetName",
          "type": "string"
        },
        {
          "internalType": "uint256",
          "name": "_assetRewards",
          "type": "uint256"
        }
      ],
      "name": "increaseAccBorrowedRewardsPerShare",
      "outputs": [],
      "stateMutability": "nonpayable",
      "type": "function"
    },
    {
      "inputs": [
        {
          "internalType": "string",
          "name": "_assetName",
          "type": "string"
        },
        {
          "internalType": "uint256",
          "name": "_amount",
          "type": "uint256"
        }
      ],
      "name": "increaseAssetsTotalBorrowed",
      "outputs": [],
      "stateMutability": "nonpayable",
      "type": "function"
    },
    {
      "inputs": [
        {
          "internalType": "contract ISio2LendingPool",
          "name": "_pool",
          "type": "address"
        },
        {
          "internalType": "address",
          "name": "_snastr",
          "type": "address"
        }
      ],
      "name": "initialize",
      "outputs": [],
      "stateMutability": "nonpayable",
      "type": "function"
    },
    {
      "inputs": [],
      "name": "owner",
      "outputs": [
        {
          "internalType": "address",
          "name": "",
          "type": "address"
        }
      ],
      "stateMutability": "view",
      "type": "function"
    },
    {
      "inputs": [],
      "name": "pool",
      "outputs": [
        {
          "internalType": "contract ISio2LendingPool",
          "name": "",
          "type": "address"
        }
      ],
      "stateMutability": "view",
      "type": "function"
    },
    {
      "inputs": [
        {
          "internalType": "string",
          "name": "_assetName",
          "type": "string"
        }
      ],
      "name": "removeAsset",
      "outputs": [],
      "stateMutability": "nonpayable",
      "type": "function"
    },
    {
      "inputs": [],
      "name": "renounceOwnership",
      "outputs": [],
      "stateMutability": "nonpayable",
      "type": "function"
    },
    {
      "inputs": [
        {
          "internalType": "contract Sio2Adapter",
          "name": "_adapter",
          "type": "address"
        }
      ],
      "name": "setAdapter",
      "outputs": [],
      "stateMutability": "nonpayable",
      "type": "function"
    },
    {
      "inputs": [
        {
          "internalType": "address",
          "name": "newOwner",
          "type": "address"
        }
      ],
      "name": "transferOwnership",
      "outputs": [],
      "stateMutability": "nonpayable",
      "type": "function"
    },
    {
      "inputs": [
        {
          "internalType": "string",
          "name": "_assetName",
          "type": "string"
        }
      ],
      "name": "updateLastBTokenBalance",
      "outputs": [],
      "stateMutability": "nonpayable",
      "type": "function"
    }
  ],
  "bytecode": {
    "object": "0x608060405234801561001057600080fd5b50612a1a806100206000396000f3fe608060405234801561001057600080fd5b50600436106101585760003560e01c806381a3bca8116100c3578063d8b578081161007c578063d8b578081461032a578063e18cf0b31461034d578063eb4c0ae514610360578063ed57355e14610389578063f2fde38b1461039c578063f399a83e146103af57600080fd5b806381a3bca81461029b5780638da5cb5b146102b0578063ab1da79c146102c1578063ac9cb470146102d4578063cde131d5146102e9578063cf35bdd01461030a57600080fd5b8063508e96ca11610115578063508e96ca146101fc5780635360d4511461020f5780636ed2c74114610222578063715018a614610260578063724eecd614610268578063759af9ec1461028857600080fd5b806303eadcfc1461015d57806316f0115b1461018d57806331ec6411146101a057806335aa6453146101b55780633683bfc5146101c8578063485cc955146101e9575b600080fd5b609854610170906001600160a01b031681565b6040516001600160a01b0390911681526020015b60405180910390f35b609754610170906001600160a01b031681565b6101b36101ae366004612282565b6103c2565b005b6101b36101c33660046122e6565b6104c2565b6101db6101d6366004612282565b610526565b604051908152602001610184565b6101b36101f736600461224a565b610551565b6101b361020a3660046122e6565b610784565b6101b361021d3660046122e6565b6107df565b610250610230366004612282565b8051602081830181018051609d8252928201919093012091525460ff1681565b6040519015158152602001610184565b6101b3610868565b61027b6102763660046121e7565b61087c565b6040516101849190612612565b6101b3610296366004612282565b610ba8565b6102a36110cd565b6040516101849190612584565b6033546001600160a01b0316610170565b6101b36102cf3660046121e7565b61112f565b6102dc611192565b60405161018491906125d1565b6102fc6102f73660046121e7565b61126b565b6040516101849291906125e4565b61031d610318366004612416565b6114bc565b6040516101849190612625565b6102506103383660046121e7565b609c6020526000908152604090205460ff1681565b6101b361035b3660046122e6565b611568565b61037361036e366004612282565b6115e7565b6040516101849a999897969594939291906126ba565b610170610397366004612416565b6116d7565b6101b36103aa3660046121e7565b611701565b6101b36103bd36600461220a565b61177a565b6098546001600160a01b031633146103f55760405162461bcd60e51b81526004016103ec90612638565b60405180910390fd5b6000609b826040516104079190612544565b90815260405190819003602001812060038101546098546370a0823160e01b84526001600160a01b0390811660048501529193506000929116906370a082319060240160206040518083038186803b15801561046257600080fd5b505afa158015610476573d6000803e3d6000fd5b505050506040513d601f19601f8201168201806040525081019061049a919061242e565b60028301549091506104b5906001600160a01b031682611d46565b8260050181905550505050565b6098546001600160a01b031633146104ec5760405162461bcd60e51b81526004016103ec90612638565b80609b836040516104fd9190612544565b9081526020016040518091039020600601600082825461051d919061279e565b90915550505050565b6000609b826040516105389190612544565b9081526020016040518091039020600701549050919050565b600054610100900460ff16158080156105715750600054600160ff909116105b8061058b5750303b15801561058b575060005460ff166001145b6105ee5760405162461bcd60e51b815260206004820152602e60248201527f496e697469616c697a61626c653a20636f6e747261637420697320616c72656160448201526d191e481a5b9a5d1a585b1a5e995960921b60648201526084016103ec565b6000805460ff191660011790558015610611576000805461ff0019166101001790555b610619611e65565b610621611e94565b6001600160a01b0383166106835760405162461bcd60e51b815260206004820152602360248201527f4c656e64696e6720706f6f6c20616464726573732063616e6e6f74206265207a60448201526265726f60e81b60648201526084016103ec565b6001600160a01b0382166106d95760405162461bcd60e51b815260206004820152601d60248201527f736e4153545220616464726573732063616e6e6f74206265207a65726f00000060448201526064016103ec565b609a80546001810182556000919091527f44da158ba27f9252712a74ff6a55c5d531f69609f1f6e7f17c4443a8e2089be40180546001600160a01b038085166001600160a01b0319928316179092556097805492861692909116919091179055801561077f576000805461ff0019169055604051600181527f7f26b83ff96e1f2b6a682f133852f6798a09c465da95921460cefb38474024989060200160405180910390a15b505050565b6098546001600160a01b031633146107ae5760405162461bcd60e51b81526004016103ec90612638565b80609b836040516107bf9190612544565b9081526020016040518091039020600601600082825461051d91906128e3565b6098546001600160a01b031633146108095760405162461bcd60e51b81526004016103ec90612638565b6000609b8360405161081b9190612544565b90815260200160405180910390209050806006015464e8d4a510008361084191906128c4565b61084b91906127b6565b81600801600082825461085e919061279e565b9091555050505050565b610870611ec3565b61087a6000611f1d565b565b60985460405163d6fe3d3960e01b81526001600160a01b03838116600483015260609260009291169063d6fe3d3990602401604080518083038186803b1580156108c557600080fd5b505afa1580156108d9573d6000803e3d6000fd5b505050506040513d601f19601f820116820180604052508101906108fd9190612446565b506099549091506000816001600160401b0381111561092c57634e487b7160e01b600052604160045260246000fd5b60405190808252806020026020018201604052801561095f57816020015b606081526020019060019003908161094a5790505b5090506000826001600160401b0381111561098a57634e487b7160e01b600052604160045260246000fd5b6040519080825280602002602001820160405280156109b3578160200160208202803683370190505b50609980546040805160208084028201810190925282815293945060009084015b82821015610a805783829060005260206000200180546109f39061294d565b80601f0160208091040260200160405190810160405280929190818152602001828054610a1f9061294d565b8015610a6c5780601f10610a4157610100808354040283529160200191610a6c565b820191906000526020600020905b815481529060010190602001808311610a4f57829003601f168201915b5050505050815260200190600101906109d4565b50505050915060005b83811015610b9e576000609b848381518110610ab557634e487b7160e01b600052603260045260246000fd5b6020026020010151604051610aca9190612544565b908152604051908190036020018120600201546098546343f78c3560e11b83526001600160a01b0391821660048401819052602484018a9052935016906387ef186a9060440160206040518083038186803b158015610b2857600080fd5b505afa158015610b3c573d6000803e3d6000fd5b505050506040513d601f19601f82011682018060405250810190610b60919061242e565b838381518110610b8057634e487b7160e01b600052603260045260246000fd5b60209081029190910101525080610b9681612988565b915050610a89565b5095945050505050565b610bb0611ec3565b60006001600160a01b0316609b82604051610bcb9190612544565b908152604051908190036020019020600201546001600160a01b03161415610c2e5760405162461bcd60e51b8152602060048201526016602482015275151a195c99481a5cc81b9bc81cdd58da08185cdcd95d60521b60448201526064016103ec565b6000609b82604051610c409190612544565b90815260200160405180910390206040518061014001604052908160008201548152602001600182018054610c749061294d565b80601f0160208091040260200160405190810160405280929190818152602001828054610ca09061294d565b8015610ced5780601f10610cc257610100808354040283529160200191610ced565b820191906000526020600020905b815481529060010190602001808311610cd057829003601f168201915b505050918352505060028201546001600160a01b03908116602083015260038301541660408201526004820154606082015260058201546080820152600682015460a0820152600782015460c0820152600882015460e08201526009909101546101009091015260998054919250600091610d6a906001906128e3565b81548110610d8857634e487b7160e01b600052603260045260246000fd5b906000526020600020018054610d9d9061294d565b80601f0160208091040260200160405190810160405280929190818152602001828054610dc99061294d565b8015610e165780601f10610deb57610100808354040283529160200191610e16565b820191906000526020600020905b815481529060010190602001808311610df957829003601f168201915b50505050509050806099836000015181548110610e4357634e487b7160e01b600052603260045260246000fd5b906000526020600020019080519060200190610e60929190611fcd565b506099805480610e8057634e487b7160e01b600052603160045260246000fd5b600190038181906000526020600020016000610e9c9190612051565b9055609a805460009190610eb2906001906128e3565b81548110610ed057634e487b7160e01b600052603260045260246000fd5b60009182526020909120015483516001600160a01b0390911691508190609a90610efb90600161279e565b81548110610f1957634e487b7160e01b600052603260045260246000fd5b9060005260206000200160006101000a8154816001600160a01b0302191690836001600160a01b03160217905550609a805480610f6657634e487b7160e01b600052603160045260246000fd5b60008281526020808220830160001990810180546001600160a01b031916905590920190925560608501516001600160a01b03168252609c81526040808320805460ff19169055908501519051609d91610fbf91612544565b908152604051908190036020018120805492151560ff1990931692909217909155835190609b90610ff1908590612544565b90815260405190819003602001812091909155609b90611012908690612544565b90815260405190819003602001902060008082556110336001830182612051565b506002810180546001600160a01b031990811690915560038201805490911690556000600482018190556005820181905560068201819055600782018190556008820181905560099091015560405161108d908590612544565b604051908190038120338252907f865f83eba4ebb82160312aa5f86592a19c2d98ec819c1021514801e8b0a4b39d9060200160405180910390a250505050565b6060609a80548060200260200160405190810160405280929190818152602001828054801561112557602002820191906000526020600020905b81546001600160a01b03168152600190910190602001808311611107575b5050505050905090565b611137611ec3565b609880546001600160a01b0319166001600160a01b0383169081179091556040805133815260208101929092527f3e315d48a109b5e16e3a9bd644f5788469128e97e94f3224b967bb43552f5d38910160405180910390a150565b60606099805480602002602001604051908101604052809291908181526020016000905b828210156112625783829060005260206000200180546111d59061294d565b80601f01602080910402602001604051908101604052809291908181526020018280546112019061294d565b801561124e5780601f106112235761010080835404028352916020019161124e565b820191906000526020600020905b81548152906001019060200180831161123157829003601f168201915b5050505050815260200190600101906111b6565b50505050905090565b609854604051636f77926b60e01b81526001600160a01b038381166004830152606092839260009290911690636f77926b9060240160006040518083038186803b1580156112b857600080fd5b505afa1580156112cc573d6000803e3d6000fd5b505050506040513d6000823e601f3d908101601f191682016040526112f49190810190612368565b905060008160800151516001600160401b0381111561132357634e487b7160e01b600052604160045260246000fd5b60405190808252806020026020018201604052801561135657816020015b60608152602001906001900390816113415790505b50905060008260800151516001600160401b0381111561138657634e487b7160e01b600052604160045260246000fd5b6040519080825280602002602001820160405280156113af578160200160208202803683370190505b5090508260800151915060005b82518110156114b05760985483516001600160a01b0390911690638fe375569089908690859081106113fe57634e487b7160e01b600052603260045260246000fd5b60200260200101516040518363ffffffff1660e01b8152600401611423929190612560565b60206040518083038186803b15801561143b57600080fd5b505afa15801561144f573d6000803e3d6000fd5b505050506040513d601f19601f82011682018060405250810190611473919061242e565b82828151811061149357634e487b7160e01b600052603260045260246000fd5b6020908102919091010152806114a881612988565b9150506113bc565b50909590945092505050565b609981815481106114cc57600080fd5b9060005260206000200160009150905080546114e79061294d565b80601f01602080910402602001604051908101604052809291908181526020018280546115139061294d565b80156115605780601f1061153557610100808354040283529160200191611560565b820191906000526020600020905b81548152906001019060200180831161154357829003601f168201915b505050505081565b6098546001600160a01b031633146115925760405162461bcd60e51b81526004016103ec90612638565b6000609b836040516115a49190612544565b90815260200160405180910390209050806006015464e8d4a51000836115ca91906128c4565b6115d491906127b6565b81600901600082825461085e919061279e565b8051602081830181018051609b82529282019190930120915280546001820180549192916116149061294d565b80601f01602080910402602001604051908101604052809291908181526020018280546116409061294d565b801561168d5780601f106116625761010080835404028352916020019161168d565b820191906000526020600020905b81548152906001019060200180831161167057829003601f168201915b50505060028401546003850154600486015460058701546006880154600789015460088a01546009909a015498996001600160a01b0396871699959096169750929550909390928a565b609a81815481106116e757600080fd5b6000918252602090912001546001600160a01b0316905081565b611709611ec3565b6001600160a01b03811661176e5760405162461bcd60e51b815260206004820152602660248201527f4f776e61626c653a206e6577206f776e657220697320746865207a65726f206160448201526564647265737360d01b60648201526084016103ec565b61177781611f1d565b50565b611782611ec3565b6000836001600160a01b03166395d89b416040518163ffffffff1660e01b815260040160006040518083038186803b1580156117bd57600080fd5b505afa1580156117d1573d6000803e3d6000fd5b505050506040513d6000823e601f3d908101601f191682016040526117f991908101906122b4565b905060006001600160a01b0316609b826040516118169190612544565b908152604051908190036020019020600201546001600160a01b0316146118755760405162461bcd60e51b8152602060048201526013602482015272105cdcd95d08185b1c9958591e481859191959606a1b60448201526064016103ec565b7fc5d2460186f7233c927e7db2dcc703c0e500b653ca82273b7bfad8045d85a470816040516020016118a79190612544565b6040516020818303038152906040528051906020012014156118fe5760405162461bcd60e51b815260206004820152601060248201526f456d707479206173736574206e616d6560801b60448201526064016103ec565b6001600160a01b0383166000908152609c602052604090205460ff16156119715760405162461bcd60e51b815260206004820152602160248201527f537563682062546f6b656e206164647265737320616c726561647920616464656044820152601960fa1b60648201526084016103ec565b609d816040516119819190612544565b9081526040519081900360200190205460ff16156119e15760405162461bcd60e51b815260206004820152601d60248201527f53756368206173736574206e616d6520616c726561647920616464656400000060448201526064016103ec565b60975460405163c44b11f760e01b81526001600160a01b038681166004830152600092169063c44b11f79060240160206040518083038186803b158015611a2757600080fd5b505afa158015611a3b573d6000803e3d6000fd5b505050506040513d601f19601f82011682018060405250810190611a5f9190612328565b805190915060009060101c61ffff166040516370a0823160e01b81523060048201529091506000906001600160a01b038716906370a082319060240160206040518083038186803b158015611ab357600080fd5b505afa158015611ac7573d6000803e3d6000fd5b505050506040513d601f19601f82011682018060405250810190611aeb919061242e565b905060006040518061014001604052806099805490508152602001868152602001896001600160a01b03168152602001886001600160a01b03168152602001848152602001611b3a8a85611d46565b815260006020808301829052604083018a9052606083018290526080909201819052828201516099805460018101825592528051939450611ba1937f72a152ddfb8e864297c917af52ea6c1c68aead0fee1a62673fcc7e0c94979d00909201920190611fcd565b5080609b86604051611bb39190612544565b9081526020016040518091039020600082015181600001556020820151816001019080519060200190611be7929190611fcd565b506040828101516002830180546001600160a01b03199081166001600160a01b0393841617909155606085015160038501805483169184169190911790556080850151600485015560a0850151600585015560c0850151600685015560e08501516007850155610100850151600885015561012090940151600990930192909255609a805460018181019092557f44da158ba27f9252712a74ff6a55c5d531f69609f1f6e7f17c4443a8e2089be4018054909416928b169283179093556000918252609c60205290819020805460ff19168317905551609d90611ccb908890612544565b908152604051908190036020018120805492151560ff19909316929092179091556001600160a01b03891690611d02908790612544565b604051908190038120338252907f938b5990c432a73433cb63daa65ed775089825c19f9d5e500b9d7bd63e2cda339060200160405180910390a35050505050505050565b60006012836001600160a01b031663313ce5676040518163ffffffff1660e01b815260040160206040518083038186803b158015611d8357600080fd5b505afa158015611d97573d6000803e3d6000fd5b505050506040513d601f19601f82011682018060405250810190611dbb9190612469565b60ff161015611e5c57826001600160a01b031663313ce5676040518163ffffffff1660e01b815260040160206040518083038186803b158015611dfd57600080fd5b505afa158015611e11573d6000803e3d6000fd5b505050506040513d601f19601f82011682018060405250810190611e359190612469565b611e409060126128fa565b611e4b90600a612819565b611e5590836128c4565b9050611e5f565b50805b92915050565b600054610100900460ff16611e8c5760405162461bcd60e51b81526004016103ec9061266f565b61087a611f6f565b600054610100900460ff16611ebb5760405162461bcd60e51b81526004016103ec9061266f565b61087a611f9f565b6033546001600160a01b0316331461087a5760405162461bcd60e51b815260206004820181905260248201527f4f776e61626c653a2063616c6c6572206973206e6f7420746865206f776e657260448201526064016103ec565b603380546001600160a01b038381166001600160a01b0319831681179093556040519116919082907f8be0079c531659141344cd1fd0a4f28419497f9722a3daafe3b4186f6b6457e090600090a35050565b600054610100900460ff16611f965760405162461bcd60e51b81526004016103ec9061266f565b61087a33611f1d565b600054610100900460ff16611fc65760405162461bcd60e51b81526004016103ec9061266f565b6001606555565b828054611fd99061294d565b90600052602060002090601f016020900481019282611ffb5760008555612041565b82601f1061201457805160ff1916838001178555612041565b82800160010185558215612041579182015b82811115612041578251825591602001919060010190612026565b5061204d929150612087565b5090565b50805461205d9061294d565b6000825580601f1061206d575050565b601f01602090049060005260206000209081019061177791905b5b8082111561204d5760008155600101612088565b80516120a7816129cf565b919050565b600082601f8301126120bc578081fd5b815160206001600160401b03808311156120d8576120d86129b9565b8260051b6120e7838201612747565b8481528381019087850183890186018a1015612101578788fd5b8793505b8684101561213e5780518581111561211b578889fd5b6121298b88838d010161219c565b84525060019390930192918501918501612105565b5098975050505050505050565b600082601f83011261215b578081fd5b813561216e61216982612777565b612747565b818152846020838601011115612182578283fd5b816020850160208301379081016020019190915292915050565b600082601f8301126121ac578081fd5b81516121ba61216982612777565b8181528460208386010111156121ce578283fd5b6121df82602083016020870161291d565b949350505050565b6000602082840312156121f8578081fd5b8135612203816129cf565b9392505050565b60008060006060848603121561221e578182fd5b8335612229816129cf565b92506020840135612239816129cf565b929592945050506040919091013590565b6000806040838503121561225c578182fd5b8235612267816129cf565b91506020830135612277816129cf565b809150509250929050565b600060208284031215612293578081fd5b81356001600160401b038111156122a8578182fd5b6121df8482850161214b565b6000602082840312156122c5578081fd5b81516001600160401b038111156122da578182fd5b6121df8482850161219c565b600080604083850312156122f8578182fd5b82356001600160401b0381111561230d578283fd5b6123198582860161214b565b95602094909401359450505050565b600060208284031215612339578081fd5b604051602081018181106001600160401b038211171561235b5761235b6129b9565b6040529151825250919050565b600060208284031215612379578081fd5b81516001600160401b038082111561238f578283fd5b9083019060e082860312156123a2578283fd5b6123aa61271f565b825181526123ba6020840161209c565b602082015260408301516040820152606083015160608201526080830151828111156123e4578485fd5b6123f0878286016120ac565b60808301525060a083015160a082015260c083015160c082015280935050505092915050565b600060208284031215612427578081fd5b5035919050565b60006020828403121561243f578081fd5b5051919050565b60008060408385031215612458578182fd5b505080516020909101519092909150565b60006020828403121561247a578081fd5b815160ff81168114612203578182fd5b600081518084526020808501808196508360051b81019150828601855b858110156124d15782840389526124bf848351612518565b988501989350908401906001016124a7565b5091979650505050505050565b6000815180845260208085019450808401835b8381101561250d578151875295820195908201906001016124f1565b509495945050505050565b6000815180845261253081602086016020860161291d565b601f01601f19169290920160200192915050565b6000825161255681846020870161291d565b9190910192915050565b6001600160a01b03831681526040602082018190526000906121df90830184612518565b6020808252825182820181905260009190848201906040850190845b818110156125c55783516001600160a01b0316835292840192918401916001016125a0565b50909695505050505050565b602081526000612203602083018461248a565b6040815260006125f7604083018561248a565b828103602084015261260981856124de565b95945050505050565b60208152600061220360208301846124de565b6020815260006122036020830184612518565b60208082526018908201527f416c6c6f776564206f6e6c7920666f7220616461707465720000000000000000604082015260600190565b6020808252602b908201527f496e697469616c697a61626c653a20636f6e7472616374206973206e6f74206960408201526a6e697469616c697a696e6760a81b606082015260800190565b60006101408c83528060208401526126d48184018d612518565b6001600160a01b039b8c16604085015299909a16606083015250608081019690965260a086019490945260c085019290925260e0840152610100830152610120909101529392505050565b60405160e081016001600160401b0381118282101715612741576127416129b9565b60405290565b604051601f8201601f191681016001600160401b038111828210171561276f5761276f6129b9565b604052919050565b60006001600160401b03821115612790576127906129b9565b50601f01601f191660200190565b600082198211156127b1576127b16129a3565b500190565b6000826127d157634e487b7160e01b81526012600452602481fd5b500490565b600181815b808511156128115781600019048211156127f7576127f76129a3565b8085161561280457918102915b93841c93908002906127db565b509250929050565b600061220360ff84168360008261283257506001611e5f565b8161283f57506000611e5f565b8160018114612855576002811461285f5761287b565b6001915050611e5f565b60ff841115612870576128706129a3565b50506001821b611e5f565b5060208310610133831016604e8410600b841016171561289e575081810a611e5f565b6128a883836127d6565b80600019048211156128bc576128bc6129a3565b029392505050565b60008160001904831182151516156128de576128de6129a3565b500290565b6000828210156128f5576128f56129a3565b500390565b600060ff821660ff841680821015612914576129146129a3565b90039392505050565b60005b83811015612938578181015183820152602001612920565b83811115612947576000848401525b50505050565b600181811c9082168061296157607f821691505b6020821081141561298257634e487b7160e01b600052602260045260246000fd5b50919050565b600060001982141561299c5761299c6129a3565b5060010190565b634e487b7160e01b600052601160045260246000fd5b634e487b7160e01b600052604160045260246000fd5b6001600160a01b038116811461177757600080fdfea2646970667358221220f2dd5da759ded514d341dead8e27c1feb4a22a6f9a4fa4a31312e4bdefdb607464736f6c63430008040033",
    "linkReferences": {}
  },
  "methodIdentifiers": {
    "adapter()": "03eadcfc",
    "addAsset(address,address,uint256)": "f399a83e",
    "assetInfo(string)": "eb4c0ae5",
    "assetNameExist(string)": "6ed2c741",
    "assets(uint256)": "cf35bdd0",
    "bTokenExist(address)": "d8b57808",
    "bTokens(uint256)": "ed57355e",
    "decreaseAssetsTotalBorrowed(string,uint256)": "508e96ca",
    "getAssetsNames()": "ac9cb470",
    "getAvailableTokensToBorrow(address)": "724eecd6",
    "getAvailableTokensToRepay(address)": "cde131d5",
    "getBTokens()": "81a3bca8",
    "getRewardsWeight(string)": "3683bfc5",
    "increaseAccBTokensPerShare(string,uint256)": "5360d451",
    "increaseAccBorrowedRewardsPerShare(string,uint256)": "e18cf0b3",
    "increaseAssetsTotalBorrowed(string,uint256)": "35aa6453",
    "initialize(address,address)": "485cc955",
    "owner()": "8da5cb5b",
    "pool()": "16f0115b",
    "removeAsset(string)": "759af9ec",
    "renounceOwnership()": "715018a6",
    "setAdapter(address)": "ab1da79c",
    "transferOwnership(address)": "f2fde38b",
    "updateLastBTokenBalance(string)": "31ec6411"
  },
  "id": 6
}