{
  "abi": [
    {
      "inputs": [
        {
          "internalType": "string",
          "name": "name",
          "type": "string"
        },
        {
          "internalType": "string",
          "name": "symbol",
          "type": "string"
        }
      ],
      "stateMutability": "nonpayable",
      "type": "constructor"
    },
    {
      "anonymous": false,
      "inputs": [
        {
          "indexed": true,
          "internalType": "address",
          "name": "owner",
          "type": "address"
        },
        {
          "indexed": true,
          "internalType": "address",
          "name": "spender",
          "type": "address"
        },
        {
          "indexed": false,
          "internalType": "uint256",
          "name": "value",
          "type": "uint256"
        }
      ],
      "name": "Approval",
      "type": "event"
    },
    {
      "anonymous": false,
      "inputs": [
        {
          "indexed": true,
          "internalType": "address",
          "name": "from",
          "type": "address"
        },
        {
          "indexed": true,
          "internalType": "address",
          "name": "to",
          "type": "address"
        },
        {
          "indexed": false,
          "internalType": "uint256",
          "name": "value",
          "type": "uint256"
        }
      ],
      "name": "Transfer",
      "type": "event"
    },
    {
      "inputs": [
        {
          "internalType": "address",
          "name": "owner",
          "type": "address"
        },
        {
          "internalType": "address",
          "name": "spender",
          "type": "address"
        }
      ],
      "name": "allowance",
      "outputs": [
        {
          "internalType": "uint256",
          "name": "",
          "type": "uint256"
        }
      ],
      "stateMutability": "view",
      "type": "function"
    },
    {
      "inputs": [
        {
          "internalType": "address",
          "name": "spender",
          "type": "address"
        },
        {
          "internalType": "uint256",
          "name": "amount",
          "type": "uint256"
        }
      ],
      "name": "approve",
      "outputs": [
        {
          "internalType": "bool",
          "name": "",
          "type": "bool"
        }
      ],
      "stateMutability": "nonpayable",
      "type": "function"
    },
    {
      "inputs": [
        {
          "internalType": "address",
          "name": "account",
          "type": "address"
        }
      ],
      "name": "balanceOf",
      "outputs": [
        {
          "internalType": "uint256",
          "name": "",
          "type": "uint256"
        }
      ],
      "stateMutability": "view",
      "type": "function"
    },
    {
      "inputs": [
        {
          "internalType": "uint256",
          "name": "amount",
          "type": "uint256"
        }
      ],
      "name": "burn",
      "outputs": [],
      "stateMutability": "nonpayable",
      "type": "function"
    },
    {
      "inputs": [
        {
          "internalType": "address",
          "name": "who",
          "type": "address"
        },
        {
          "internalType": "uint256",
          "name": "amount",
          "type": "uint256"
        }
      ],
      "name": "burn",
      "outputs": [],
      "stateMutability": "nonpayable",
      "type": "function"
    },
    {
      "inputs": [
        {
          "internalType": "address",
          "name": "account",
          "type": "address"
        },
        {
          "internalType": "uint256",
          "name": "amount",
          "type": "uint256"
        }
      ],
      "name": "burnFrom",
      "outputs": [],
      "stateMutability": "nonpayable",
      "type": "function"
    },
    {
      "inputs": [],
      "name": "dec",
      "outputs": [
        {
          "internalType": "uint8",
          "name": "",
          "type": "uint8"
        }
      ],
      "stateMutability": "view",
      "type": "function"
    },
    {
      "inputs": [],
      "name": "decimals",
      "outputs": [
        {
          "internalType": "uint8",
          "name": "",
          "type": "uint8"
        }
      ],
      "stateMutability": "view",
      "type": "function"
    },
    {
      "inputs": [
        {
          "internalType": "address",
          "name": "spender",
          "type": "address"
        },
        {
          "internalType": "uint256",
          "name": "subtractedValue",
          "type": "uint256"
        }
      ],
      "name": "decreaseAllowance",
      "outputs": [
        {
          "internalType": "bool",
          "name": "",
          "type": "bool"
        }
      ],
      "stateMutability": "nonpayable",
      "type": "function"
    },
    {
      "inputs": [
        {
          "internalType": "address",
          "name": "spender",
          "type": "address"
        },
        {
          "internalType": "uint256",
          "name": "addedValue",
          "type": "uint256"
        }
      ],
      "name": "increaseAllowance",
      "outputs": [
        {
          "internalType": "bool",
          "name": "",
          "type": "bool"
        }
      ],
      "stateMutability": "nonpayable",
      "type": "function"
    },
    {
      "inputs": [],
      "name": "lastClaimedRewardTime",
      "outputs": [
        {
          "internalType": "uint256",
          "name": "",
          "type": "uint256"
        }
      ],
      "stateMutability": "view",
      "type": "function"
    },
    {
      "inputs": [],
      "name": "lastClaimedTime",
      "outputs": [
        {
          "internalType": "uint256",
          "name": "",
          "type": "uint256"
        }
      ],
      "stateMutability": "view",
      "type": "function"
    },
    {
      "inputs": [
        {
          "internalType": "address",
          "name": "who",
          "type": "address"
        },
        {
          "internalType": "uint256",
          "name": "amount",
          "type": "uint256"
        }
      ],
      "name": "mint",
      "outputs": [],
      "stateMutability": "nonpayable",
      "type": "function"
    },
    {
      "inputs": [],
      "name": "name",
      "outputs": [
        {
          "internalType": "string",
          "name": "",
          "type": "string"
        }
      ],
      "stateMutability": "view",
      "type": "function"
    },
    {
      "inputs": [
        {
          "internalType": "uint8",
          "name": "_dec",
          "type": "uint8"
        }
      ],
      "name": "setDecimals",
      "outputs": [],
      "stateMutability": "nonpayable",
      "type": "function"
    },
    {
      "inputs": [],
      "name": "setLastClaimedRewardTime",
      "outputs": [],
      "stateMutability": "nonpayable",
      "type": "function"
    },
    {
      "inputs": [],
      "name": "symbol",
      "outputs": [
        {
          "internalType": "string",
          "name": "",
          "type": "string"
        }
      ],
      "stateMutability": "view",
      "type": "function"
    },
    {
      "inputs": [],
      "name": "totalSupply",
      "outputs": [
        {
          "internalType": "uint256",
          "name": "",
          "type": "uint256"
        }
      ],
      "stateMutability": "view",
      "type": "function"
    },
    {
      "inputs": [
        {
          "internalType": "address",
          "name": "to",
          "type": "address"
        },
        {
          "internalType": "uint256",
          "name": "amount",
          "type": "uint256"
        }
      ],
      "name": "transfer",
      "outputs": [
        {
          "internalType": "bool",
          "name": "",
          "type": "bool"
        }
      ],
      "stateMutability": "nonpayable",
      "type": "function"
    },
    {
      "inputs": [
        {
          "internalType": "address",
          "name": "from",
          "type": "address"
        },
        {
          "internalType": "address",
          "name": "to",
          "type": "address"
        },
        {
          "internalType": "uint256",
          "name": "amount",
          "type": "uint256"
        }
      ],
      "name": "transferFrom",
      "outputs": [
        {
          "internalType": "bool",
          "name": "",
          "type": "bool"
        }
      ],
      "stateMutability": "nonpayable",
      "type": "function"
    }
  ],
  "bytecode": {
    "object": "0x60806040526007805460ff191660121790553480156200001e57600080fd5b5060405162000f0538038062000f058339810160408190526200004191620001d4565b8151829082906200005a9060039060208501906200007b565b508051620000709060049060208401906200007b565b50505050506200028e565b82805462000089906200023b565b90600052602060002090601f016020900481019282620000ad5760008555620000f8565b82601f10620000c857805160ff1916838001178555620000f8565b82800160010185558215620000f8579182015b82811115620000f8578251825591602001919060010190620000db565b50620001069291506200010a565b5090565b5b808211156200010657600081556001016200010b565b600082601f83011262000132578081fd5b81516001600160401b03808211156200014f576200014f62000278565b604051601f8301601f19908116603f011681019082821181831017156200017a576200017a62000278565b8160405283815260209250868385880101111562000196578485fd5b8491505b83821015620001b957858201830151818301840152908201906200019a565b83821115620001ca57848385830101525b9695505050505050565b60008060408385031215620001e7578182fd5b82516001600160401b0380821115620001fe578384fd5b6200020c8683870162000121565b9350602085015191508082111562000222578283fd5b50620002318582860162000121565b9150509250929050565b600181811c908216806200025057607f821691505b602082108114156200027257634e487b7160e01b600052602260045260246000fd5b50919050565b634e487b7160e01b600052604160045260246000fd5b610c67806200029e6000396000f3fe608060405234801561001057600080fd5b506004361061012c5760003560e01c806370a08231116100ad578063a457c2d711610071578063a457c2d714610278578063a9059cbb1461028b578063b3bcfa821461029e578063bfb5b9f1146102ab578063dd62ed3e146102b457600080fd5b806370a08231146101fd57806379cc6790146102265780637a1395aa1461023957806395d89b411461025d5780639dc29fac1461026557600080fd5b806334b9558e116100f457806334b9558e146101b057806339509351146101b957806340c10f19146101cc57806342966c68146101e1578063599b8eda146101f457600080fd5b806306fdde0314610131578063095ea7b31461014f57806318160ddd1461017257806323b872dd14610184578063313ce56714610197575b600080fd5b6101396102c7565b6040516101469190610b5e565b60405180910390f35b61016261015d366004610afc565b610359565b6040519015158152602001610146565b6002545b604051908152602001610146565b610162610192366004610ac1565b610371565b60075460ff165b60405160ff9091168152602001610146565b61017660055481565b6101626101c7366004610afc565b610395565b6101df6101da366004610afc565b6103b7565b005b6101df6101ef366004610b25565b6103d6565b6101df43600655565b61017661020b366004610a6e565b6001600160a01b031660009081526020819052604090205490565b6101df610234366004610afc565b6103e3565b6101df610247366004610b3d565b6007805460ff191660ff92909216919091179055565b6101396103f8565b6101df610273366004610afc565b6103ee565b610162610286366004610afc565b610407565b610162610299366004610afc565b610487565b60075461019e9060ff1681565b61017660065481565b6101766102c2366004610a8f565b610495565b6060600380546102d690610be0565b80601f016020809104026020016040519081016040528092919081815260200182805461030290610be0565b801561034f5780601f106103245761010080835404028352916020019161034f565b820191906000526020600020905b81548152906001019060200180831161033257829003601f168201915b5050505050905090565b6000336103678185856104c0565b5060019392505050565b60003361037f8582856105e5565b61038a85858561065f565b506001949350505050565b6000336103678185856103a88383610495565b6103b29190610bb1565b6104c0565b6103c1828261082d565b6005546103d2574360058190556006555b5050565b6103e0338261090c565b50565b6103ee8233836105e5565b6103d2828261090c565b6060600480546102d690610be0565b600033816104158286610495565b90508381101561047a5760405162461bcd60e51b815260206004820152602560248201527f45524332303a2064656372656173656420616c6c6f77616e63652062656c6f77604482015264207a65726f60d81b60648201526084015b60405180910390fd5b61038a82868684036104c0565b60003361036781858561065f565b6001600160a01b03918216600090815260016020908152604080832093909416825291909152205490565b6001600160a01b0383166105225760405162461bcd60e51b8152602060048201526024808201527f45524332303a20617070726f76652066726f6d20746865207a65726f206164646044820152637265737360e01b6064820152608401610471565b6001600160a01b0382166105835760405162461bcd60e51b815260206004820152602260248201527f45524332303a20617070726f766520746f20746865207a65726f206164647265604482015261737360f01b6064820152608401610471565b6001600160a01b0383811660008181526001602090815260408083209487168084529482529182902085905590518481527f8c5be1e5ebec7d5bd14f71427d1e84f3dd0314c0f7b2291e5b200ac8c7c3b92591015b60405180910390a3505050565b60006105f18484610495565b90506000198114610659578181101561064c5760405162461bcd60e51b815260206004820152601d60248201527f45524332303a20696e73756666696369656e7420616c6c6f77616e63650000006044820152606401610471565b61065984848484036104c0565b50505050565b6001600160a01b0383166106c35760405162461bcd60e51b815260206004820152602560248201527f45524332303a207472616e736665722066726f6d20746865207a65726f206164604482015264647265737360d81b6064820152608401610471565b6001600160a01b0382166107255760405162461bcd60e51b815260206004820152602360248201527f45524332303a207472616e7366657220746f20746865207a65726f206164647260448201526265737360e81b6064820152608401610471565b6001600160a01b0383166000908152602081905260409020548181101561079d5760405162461bcd60e51b815260206004820152602660248201527f45524332303a207472616e7366657220616d6f756e7420657863656564732062604482015265616c616e636560d01b6064820152608401610471565b6001600160a01b038085166000908152602081905260408082208585039055918516815290812080548492906107d4908490610bb1565b92505081905550826001600160a01b0316846001600160a01b03167fddf252ad1be2c89b69c2b068fc378daa952ba7f163c4a11628f55a4df523b3ef8460405161082091815260200190565b60405180910390a3610659565b6001600160a01b0382166108835760405162461bcd60e51b815260206004820152601f60248201527f45524332303a206d696e7420746f20746865207a65726f2061646472657373006044820152606401610471565b80600260008282546108959190610bb1565b90915550506001600160a01b038216600090815260208190526040812080548392906108c2908490610bb1565b90915550506040518181526001600160a01b038316906000907fddf252ad1be2c89b69c2b068fc378daa952ba7f163c4a11628f55a4df523b3ef9060200160405180910390a35050565b6001600160a01b03821661096c5760405162461bcd60e51b815260206004820152602160248201527f45524332303a206275726e2066726f6d20746865207a65726f206164647265736044820152607360f81b6064820152608401610471565b6001600160a01b038216600090815260208190526040902054818110156109e05760405162461bcd60e51b815260206004820152602260248201527f45524332303a206275726e20616d6f756e7420657863656564732062616c616e604482015261636560f01b6064820152608401610471565b6001600160a01b0383166000908152602081905260408120838303905560028054849290610a0f908490610bc9565b90915550506040518281526000906001600160a01b038516907fddf252ad1be2c89b69c2b068fc378daa952ba7f163c4a11628f55a4df523b3ef906020016105d8565b80356001600160a01b0381168114610a6957600080fd5b919050565b600060208284031215610a7f578081fd5b610a8882610a52565b9392505050565b60008060408385031215610aa1578081fd5b610aaa83610a52565b9150610ab860208401610a52565b90509250929050565b600080600060608486031215610ad5578081fd5b610ade84610a52565b9250610aec60208501610a52565b9150604084013590509250925092565b60008060408385031215610b0e578182fd5b610b1783610a52565b946020939093013593505050565b600060208284031215610b36578081fd5b5035919050565b600060208284031215610b4e578081fd5b813560ff81168114610a88578182fd5b6000602080835283518082850152825b81811015610b8a57858101830151858201604001528201610b6e565b81811115610b9b5783604083870101525b50601f01601f1916929092016040019392505050565b60008219821115610bc457610bc4610c1b565b500190565b600082821015610bdb57610bdb610c1b565b500390565b600181811c90821680610bf457607f821691505b60208210811415610c1557634e487b7160e01b600052602260045260246000fd5b50919050565b634e487b7160e01b600052601160045260246000fdfea2646970667358221220b34bf67e98927de315ecae8234d0aea13c117862a5eabcd95a3ee225a92c9e8264736f6c63430008040033",
    "linkReferences": {}
  },
  "methodIdentifiers": {
    "allowance(address,address)": "dd62ed3e",
    "approve(address,uint256)": "095ea7b3",
    "balanceOf(address)": "70a08231",
    "burn(address,uint256)": "9dc29fac",
    "burn(uint256)": "42966c68",
    "burnFrom(address,uint256)": "79cc6790",
    "dec()": "b3bcfa82",
    "decimals()": "313ce567",
    "decreaseAllowance(address,uint256)": "a457c2d7",
    "increaseAllowance(address,uint256)": "39509351",
    "lastClaimedRewardTime()": "bfb5b9f1",
    "lastClaimedTime()": "34b9558e",
    "mint(address,uint256)": "40c10f19",
    "name()": "06fdde03",
    "setDecimals(uint8)": "7a1395aa",
    "setLastClaimedRewardTime()": "599b8eda",
    "symbol()": "95d89b41",
    "totalSupply()": "18160ddd",
    "transfer(address,uint256)": "a9059cbb",
    "transferFrom(address,address,uint256)": "23b872dd"
  },
  "id": 79
}