{
  "abi": [
    {
      "inputs": [],
      "stateMutability": "nonpayable",
      "type": "constructor"
    },
    {
      "anonymous": false,
      "inputs": [
        {
          "indexed": true,
          "internalType": "uint256",
          "name": "amount",
          "type": "uint256"
        },
        {
          "indexed": true,
          "internalType": "uint256",
          "name": "era",
          "type": "uint256"
        },
        {
          "indexed": true,
          "internalType": "bytes",
          "name": "reason",
          "type": "bytes"
        }
      ],
      "name": "ClaimDappError",
      "type": "event"
    },
    {
      "anonymous": false,
      "inputs": [
        {
          "indexed": false,
          "internalType": "uint256",
          "name": "eraStakerReward",
          "type": "uint256"
        },
        {
          "indexed": true,
          "internalType": "uint256",
          "name": "_era",
          "type": "uint256"
        }
      ],
      "name": "ClaimDappSuccess",
      "type": "event"
    },
    {
      "anonymous": false,
      "inputs": [
        {
          "indexed": true,
          "internalType": "string",
          "name": "utility",
          "type": "string"
        },
        {
          "indexed": true,
          "internalType": "uint256",
          "name": "era",
          "type": "uint256"
        },
        {
          "indexed": true,
          "internalType": "bytes",
          "name": "reason",
          "type": "bytes"
        }
      ],
      "name": "ClaimStakerError",
      "type": "event"
    },
    {
      "anonymous": false,
      "inputs": [
        {
          "indexed": true,
          "internalType": "uint256",
          "name": "era",
          "type": "uint256"
        },
        {
          "indexed": false,
          "internalType": "uint256",
          "name": "lastClaimed",
          "type": "uint256"
        }
      ],
      "name": "ClaimStakerSuccess",
      "type": "event"
    },
    {
      "anonymous": false,
      "inputs": [
        {
          "indexed": true,
          "internalType": "address",
          "name": "user",
          "type": "address"
        },
        {
          "indexed": false,
          "internalType": "uint256",
          "name": "amount",
          "type": "uint256"
        }
      ],
      "name": "Claimed",
      "type": "event"
    },
    {
      "anonymous": false,
      "inputs": [
        {
          "indexed": true,
          "internalType": "address",
          "name": "user",
          "type": "address"
        },
        {
          "indexed": true,
          "internalType": "string",
          "name": "utility",
          "type": "string"
        },
        {
          "indexed": false,
          "internalType": "uint256",
          "name": "amount",
          "type": "uint256"
        }
      ],
      "name": "ClaimedFromUtility",
      "type": "event"
    },
    {
      "anonymous": false,
      "inputs": [
        {
          "indexed": true,
          "internalType": "address",
          "name": "sender",
          "type": "address"
        },
        {
          "indexed": false,
          "internalType": "uint256",
          "name": "value",
          "type": "uint256"
        }
      ],
      "name": "FillRewardPool",
      "type": "event"
    },
    {
      "anonymous": false,
      "inputs": [
        {
          "indexed": true,
          "internalType": "address",
          "name": "sender",
          "type": "address"
        },
        {
          "indexed": false,
          "internalType": "uint256",
          "name": "value",
          "type": "uint256"
        }
      ],
      "name": "FillUnbonded",
      "type": "event"
    },
    {
      "anonymous": false,
      "inputs": [
        {
          "indexed": true,
          "internalType": "address",
          "name": "sender",
          "type": "address"
        },
        {
          "indexed": false,
          "internalType": "uint256",
          "name": "value",
          "type": "uint256"
        }
      ],
      "name": "FillUnstaking",
      "type": "event"
    },
    {
      "anonymous": false,
      "inputs": [
        {
          "indexed": true,
          "internalType": "address",
          "name": "user",
          "type": "address"
        },
        {
          "indexed": true,
          "internalType": "string",
          "name": "utility",
          "type": "string"
        },
        {
          "indexed": false,
          "internalType": "uint256",
          "name": "amount",
          "type": "uint256"
        }
      ],
      "name": "HarvestRewards",
      "type": "event"
    },
    {
      "anonymous": false,
      "inputs": [
        {
          "indexed": false,
          "internalType": "uint8",
          "name": "version",
          "type": "uint8"
        }
      ],
      "name": "Initialized",
      "type": "event"
    },
    {
      "anonymous": false,
      "inputs": [
        {
          "indexed": true,
          "internalType": "bytes32",
          "name": "role",
          "type": "bytes32"
        },
        {
          "indexed": true,
          "internalType": "bytes32",
          "name": "previousAdminRole",
          "type": "bytes32"
        },
        {
          "indexed": true,
          "internalType": "bytes32",
          "name": "newAdminRole",
          "type": "bytes32"
        }
      ],
      "name": "RoleAdminChanged",
      "type": "event"
    },
    {
      "anonymous": false,
      "inputs": [
        {
          "indexed": true,
          "internalType": "bytes32",
          "name": "role",
          "type": "bytes32"
        },
        {
          "indexed": true,
          "internalType": "address",
          "name": "account",
          "type": "address"
        },
        {
          "indexed": true,
          "internalType": "address",
          "name": "sender",
          "type": "address"
        }
      ],
      "name": "RoleGranted",
      "type": "event"
    },
    {
      "anonymous": false,
      "inputs": [
        {
          "indexed": true,
          "internalType": "bytes32",
          "name": "role",
          "type": "bytes32"
        },
        {
          "indexed": true,
          "internalType": "address",
          "name": "account",
          "type": "address"
        },
        {
          "indexed": true,
          "internalType": "address",
          "name": "sender",
          "type": "address"
        }
      ],
      "name": "RoleRevoked",
      "type": "event"
    },
    {
      "anonymous": false,
      "inputs": [
        {
          "indexed": true,
          "internalType": "address",
          "name": "sender",
          "type": "address"
        },
        {
          "indexed": false,
          "internalType": "uint256",
          "name": "amount",
          "type": "uint256"
        }
      ],
      "name": "SetMinStakeAmount",
      "type": "event"
    },
    {
      "anonymous": false,
      "inputs": [
        {
          "indexed": true,
          "internalType": "address",
          "name": "user",
          "type": "address"
        },
        {
          "indexed": false,
          "internalType": "uint256",
          "name": "val",
          "type": "uint256"
        }
      ],
      "name": "Staked",
      "type": "event"
    },
    {
      "anonymous": false,
      "inputs": [
        {
          "indexed": true,
          "internalType": "address",
          "name": "user",
          "type": "address"
        },
        {
          "indexed": true,
          "internalType": "string",
          "name": "utility",
          "type": "string"
        },
        {
          "indexed": false,
          "internalType": "uint256",
          "name": "val",
          "type": "uint256"
        }
      ],
      "name": "StakedInUtility",
      "type": "event"
    },
    {
      "anonymous": false,
      "inputs": [
        {
          "indexed": true,
          "internalType": "address",
          "name": "sender",
          "type": "address"
        },
        {
          "indexed": true,
          "internalType": "uint256",
          "name": "era",
          "type": "uint256"
        }
      ],
      "name": "Synchronization",
      "type": "event"
    },
    {
      "anonymous": false,
      "inputs": [
        {
          "indexed": true,
          "internalType": "string",
          "name": "utility",
          "type": "string"
        },
        {
          "indexed": false,
          "internalType": "uint256",
          "name": "sum2unstake",
          "type": "uint256"
        },
        {
          "indexed": true,
          "internalType": "uint256",
          "name": "era",
          "type": "uint256"
        },
        {
          "indexed": true,
          "internalType": "bytes",
          "name": "reason",
          "type": "bytes"
        }
      ],
      "name": "UnbondAndUnstakeError",
      "type": "event"
    },
    {
      "anonymous": false,
      "inputs": [
        {
          "indexed": true,
          "internalType": "uint256",
          "name": "era",
          "type": "uint256"
        },
        {
          "indexed": false,
          "internalType": "uint256",
          "name": "sum2unstake",
          "type": "uint256"
        }
      ],
      "name": "UnbondAndUnstakeSuccess",
      "type": "event"
    },
    {
      "anonymous": false,
      "inputs": [
        {
          "indexed": true,
          "internalType": "address",
          "name": "user",
          "type": "address"
        },
        {
          "indexed": false,
          "internalType": "uint256",
          "name": "amount",
          "type": "uint256"
        },
        {
          "indexed": false,
          "internalType": "bool",
          "name": "immediate",
          "type": "bool"
        }
      ],
      "name": "Unstaked",
      "type": "event"
    },
    {
      "anonymous": false,
      "inputs": [
        {
          "indexed": true,
          "internalType": "address",
          "name": "user",
          "type": "address"
        },
        {
          "indexed": true,
          "internalType": "string",
          "name": "utility",
          "type": "string"
        },
        {
          "indexed": false,
          "internalType": "uint256",
          "name": "amount",
          "type": "uint256"
        },
        {
          "indexed": false,
          "internalType": "bool",
          "name": "immediate",
          "type": "bool"
        }
      ],
      "name": "UnstakedFromUtility",
      "type": "event"
    },
    {
      "anonymous": false,
      "inputs": [
        {
          "indexed": false,
          "internalType": "uint256",
          "name": "amount",
          "type": "uint256"
        }
      ],
      "name": "WithdrawRevenue",
      "type": "event"
    },
    {
      "anonymous": false,
      "inputs": [
        {
          "indexed": true,
          "internalType": "uint256",
          "name": "_era",
          "type": "uint256"
        },
        {
          "indexed": true,
          "internalType": "bytes",
          "name": "reason",
          "type": "bytes"
        }
      ],
      "name": "WithdrawUnbondedError",
      "type": "event"
    },
    {
      "anonymous": false,
      "inputs": [
        {
          "indexed": true,
          "internalType": "uint256",
          "name": "_era",
          "type": "uint256"
        }
      ],
      "name": "WithdrawUnbondedSuccess",
      "type": "event"
    },
    {
      "anonymous": false,
      "inputs": [
        {
          "indexed": true,
          "internalType": "address",
          "name": "user",
          "type": "address"
        },
        {
          "indexed": false,
          "internalType": "uint256",
          "name": "val",
          "type": "uint256"
        }
      ],
      "name": "Withdrawn",
      "type": "event"
    },
    {
      "stateMutability": "payable",
      "type": "fallback"
    },
    {
      "inputs": [],
      "name": "DAPPS_STAKING",
      "outputs": [
        {
          "internalType": "contract DappsStaking",
          "name": "",
          "type": "address"
        }
      ],
      "stateMutability": "view",
      "type": "function"
    },
    {
      "inputs": [],
      "name": "DEFAULT_ADMIN_ROLE",
      "outputs": [
        {
          "internalType": "bytes32",
          "name": "",
          "type": "bytes32"
        }
      ],
      "stateMutability": "view",
      "type": "function"
    },
    {
      "inputs": [],
      "name": "DNTname",
      "outputs": [
        {
          "internalType": "string",
          "name": "",
          "type": "string"
        }
      ],
      "stateMutability": "view",
      "type": "function"
    },
    {
      "inputs": [],
      "name": "MANAGEMENT_FEE",
      "outputs": [
        {
          "internalType": "uint8",
          "name": "",
          "type": "uint8"
        }
      ],
      "stateMutability": "view",
      "type": "function"
    },
    {
      "inputs": [],
      "name": "MANAGER",
      "outputs": [
        {
          "internalType": "bytes32",
          "name": "",
          "type": "bytes32"
        }
      ],
      "stateMutability": "view",
      "type": "function"
    },
    {
      "inputs": [],
      "name": "REVENUE_FEE",
      "outputs": [
        {
          "internalType": "uint8",
          "name": "",
          "type": "uint8"
        }
      ],
      "stateMutability": "view",
      "type": "function"
    },
    {
      "inputs": [],
      "name": "REWARDS_PRECISION",
      "outputs": [
        {
          "internalType": "uint256",
          "name": "",
          "type": "uint256"
        }
      ],
      "stateMutability": "view",
      "type": "function"
    },
    {
      "inputs": [],
      "name": "UNSTAKING_FEE",
      "outputs": [
        {
          "internalType": "uint8",
          "name": "",
          "type": "uint8"
        }
      ],
      "stateMutability": "view",
      "type": "function"
    },
    {
      "inputs": [
        {
          "internalType": "uint256",
          "name": "",
          "type": "uint256"
        }
      ],
      "name": "accumulatedRewardsPerShare",
      "outputs": [
        {
          "internalType": "uint256",
          "name": "",
          "type": "uint256"
        }
      ],
      "stateMutability": "view",
      "type": "function"
    },
    {
      "inputs": [],
      "name": "adaptersDistr",
      "outputs": [
        {
          "internalType": "contract IAdaptersDistributor",
          "name": "",
          "type": "address"
        }
      ],
      "stateMutability": "view",
      "type": "function"
    },
    {
      "inputs": [
        {
          "internalType": "address",
          "name": "",
          "type": "address"
        },
        {
          "internalType": "uint256",
          "name": "",
          "type": "uint256"
        }
      ],
      "name": "buffer",
      "outputs": [
        {
          "internalType": "uint256",
          "name": "",
          "type": "uint256"
        }
      ],
      "stateMutability": "view",
      "type": "function"
    },
    {
      "inputs": [],
      "name": "claimingTxLimit",
      "outputs": [
        {
          "internalType": "uint256",
          "name": "",
          "type": "uint256"
        }
      ],
      "stateMutability": "view",
      "type": "function"
    },
    {
      "inputs": [],
      "name": "currentEra",
      "outputs": [
        {
          "internalType": "uint256",
          "name": "",
          "type": "uint256"
        }
      ],
      "stateMutability": "view",
      "type": "function"
    },
    {
      "inputs": [
        {
          "internalType": "string",
          "name": "",
          "type": "string"
        }
      ],
      "name": "dapps",
      "outputs": [
        {
          "internalType": "address",
          "name": "dappAddress",
          "type": "address"
        },
        {
          "internalType": "uint256",
          "name": "stakedBalance",
          "type": "uint256"
        },
        {
          "internalType": "uint256",
          "name": "sum2unstake",
          "type": "uint256"
        }
      ],
      "stateMutability": "view",
      "type": "function"
    },
    {
      "inputs": [
        {
          "internalType": "uint256",
          "name": "",
          "type": "uint256"
        }
      ],
      "name": "dappsList",
      "outputs": [
        {
          "internalType": "string",
          "name": "",
          "type": "string"
        }
      ],
      "stateMutability": "view",
      "type": "function"
    },
    {
      "inputs": [
        {
          "internalType": "string",
          "name": "",
          "type": "string"
        }
      ],
      "name": "deactivationEra",
      "outputs": [
        {
          "internalType": "uint256",
          "name": "",
          "type": "uint256"
        }
      ],
      "stateMutability": "view",
      "type": "function"
    },
    {
      "inputs": [],
      "name": "distr",
      "outputs": [
        {
          "internalType": "contract NDistributor",
          "name": "",
          "type": "address"
        }
      ],
      "stateMutability": "view",
      "type": "function"
    },
    {
      "inputs": [],
      "name": "dntToken",
      "outputs": [
        {
          "internalType": "address",
          "name": "",
          "type": "address"
        }
      ],
      "stateMutability": "view",
      "type": "function"
    },
    {
      "inputs": [
        {
          "internalType": "uint256",
          "name": "",
          "type": "uint256"
        }
      ],
      "name": "eraBuffer",
      "outputs": [
        {
          "internalType": "uint256",
          "name": "",
          "type": "uint256"
        }
      ],
      "stateMutability": "view",
      "type": "function"
    },
    {
      "inputs": [
        {
          "internalType": "uint256",
          "name": "",
          "type": "uint256"
        }
      ],
      "name": "eraRevenue",
      "outputs": [
        {
          "internalType": "bool",
          "name": "done",
          "type": "bool"
        },
        {
          "internalType": "uint256",
          "name": "val",
          "type": "uint256"
        }
      ],
      "stateMutability": "view",
      "type": "function"
    },
    {
      "inputs": [
        {
          "internalType": "uint256",
          "name": "",
          "type": "uint256"
        }
      ],
      "name": "eraRewards",
      "outputs": [
        {
          "internalType": "uint256",
          "name": "",
          "type": "uint256"
        }
      ],
      "stateMutability": "view",
      "type": "function"
    },
    {
      "inputs": [],
      "name": "eraShotsLimit",
      "outputs": [
        {
          "internalType": "uint256",
          "name": "",
          "type": "uint256"
        }
      ],
      "stateMutability": "view",
      "type": "function"
    },
    {
      "inputs": [
        {
          "internalType": "uint256",
          "name": "",
          "type": "uint256"
        }
      ],
      "name": "eraStakerReward",
      "outputs": [
        {
          "internalType": "bool",
          "name": "done",
          "type": "bool"
        },
        {
          "internalType": "uint256",
          "name": "val",
          "type": "uint256"
        }
      ],
      "stateMutability": "view",
      "type": "function"
    },
    {
      "inputs": [
        {
          "internalType": "uint256",
          "name": "",
          "type": "uint256"
        }
      ],
      "name": "eraUnstaked",
      "outputs": [
        {
          "internalType": "bool",
          "name": "done",
          "type": "bool"
        },
        {
          "internalType": "uint256",
          "name": "val",
          "type": "uint256"
        }
      ],
      "stateMutability": "view",
      "type": "function"
    },
    {
      "inputs": [
        {
          "internalType": "bytes32",
          "name": "role",
          "type": "bytes32"
        }
      ],
      "name": "getRoleAdmin",
      "outputs": [
        {
          "internalType": "bytes32",
          "name": "",
          "type": "bytes32"
        }
      ],
      "stateMutability": "view",
      "type": "function"
    },
    {
      "inputs": [
        {
          "internalType": "string",
          "name": "_utility",
          "type": "string"
        },
        {
          "internalType": "address",
          "name": "_user",
          "type": "address"
        },
        {
          "internalType": "uint256",
          "name": "_era",
          "type": "uint256"
        }
      ],
      "name": "getStaker",
      "outputs": [
        {
          "internalType": "uint256",
          "name": "eraBalance_",
          "type": "uint256"
        },
        {
          "internalType": "bool",
          "name": "isZeroBalance_",
          "type": "bool"
        },
        {
          "internalType": "uint256",
          "name": "rewards_",
          "type": "uint256"
        },
        {
          "internalType": "uint256",
          "name": "lastClaimedEra_",
          "type": "uint256"
        }
      ],
      "stateMutability": "view",
      "type": "function"
    },
    {
      "inputs": [],
      "name": "getUserWithdrawals",
      "outputs": [
        {
          "components": [
            {
              "internalType": "uint256",
              "name": "val",
              "type": "uint256"
            },
            {
              "internalType": "uint256",
              "name": "eraReq",
              "type": "uint256"
            },
            {
              "internalType": "uint256",
              "name": "lag",
              "type": "uint256"
            }
          ],
          "internalType": "struct LiquidStakingStorage.Withdrawal[]",
          "name": "",
          "type": "tuple[]"
        }
      ],
      "stateMutability": "view",
      "type": "function"
    },
    {
      "inputs": [
        {
          "internalType": "address",
          "name": "_user",
          "type": "address"
        }
      ],
      "name": "getUserWithdrawalsArray",
      "outputs": [
        {
          "components": [
            {
              "internalType": "uint256",
              "name": "val",
              "type": "uint256"
            },
            {
              "internalType": "uint256",
              "name": "eraReq",
              "type": "uint256"
            },
            {
              "internalType": "uint256",
              "name": "lag",
              "type": "uint256"
            }
          ],
          "internalType": "struct LiquidStakingStorage.Withdrawal[]",
          "name": "",
          "type": "tuple[]"
        }
      ],
      "stateMutability": "view",
      "type": "function"
    },
    {
      "inputs": [
        {
          "internalType": "bytes32",
          "name": "role",
          "type": "bytes32"
        },
        {
          "internalType": "address",
          "name": "account",
          "type": "address"
        }
      ],
      "name": "grantRole",
      "outputs": [],
      "stateMutability": "nonpayable",
      "type": "function"
    },
    {
      "inputs": [
        {
          "internalType": "bytes32",
          "name": "role",
          "type": "bytes32"
        },
        {
          "internalType": "address",
          "name": "account",
          "type": "address"
        }
      ],
      "name": "hasRole",
      "outputs": [
        {
          "internalType": "bool",
          "name": "",
          "type": "bool"
        }
      ],
      "stateMutability": "view",
      "type": "function"
    },
    {
      "inputs": [
        {
          "internalType": "string",
          "name": "",
          "type": "string"
        }
      ],
      "name": "haveUtility",
      "outputs": [
        {
          "internalType": "bool",
          "name": "",
          "type": "bool"
        }
      ],
      "stateMutability": "view",
      "type": "function"
    },
    {
      "inputs": [
        {
          "internalType": "string",
          "name": "_DNTname",
          "type": "string"
        },
        {
          "internalType": "string",
          "name": "_utilName",
          "type": "string"
        },
        {
          "internalType": "address",
          "name": "_distrAddr",
          "type": "address"
        }
      ],
      "name": "initialize",
      "outputs": [],
      "stateMutability": "nonpayable",
      "type": "function"
    },
    {
      "inputs": [
        {
          "internalType": "string",
          "name": "",
          "type": "string"
        }
      ],
      "name": "isActive",
      "outputs": [
        {
          "internalType": "bool",
          "name": "",
          "type": "bool"
        }
      ],
      "stateMutability": "view",
      "type": "function"
    },
    {
      "inputs": [
        {
          "internalType": "address",
          "name": "",
          "type": "address"
        }
      ],
      "name": "isLpToken",
      "outputs": [
        {
          "internalType": "bool",
          "name": "",
          "type": "bool"
        }
      ],
      "stateMutability": "view",
      "type": "function"
    },
    {
      "inputs": [
        {
          "internalType": "address",
          "name": "",
          "type": "address"
        }
      ],
      "name": "isPartner",
      "outputs": [
        {
          "internalType": "bool",
          "name": "",
          "type": "bool"
        }
      ],
      "stateMutability": "view",
      "type": "function"
    },
    {
      "inputs": [
        {
          "internalType": "address",
          "name": "",
          "type": "address"
        }
      ],
      "name": "isStaker",
      "outputs": [
        {
          "internalType": "bool",
          "name": "",
          "type": "bool"
        }
      ],
      "stateMutability": "view",
      "type": "function"
    },
    {
      "inputs": [],
      "name": "isUnstakes",
      "outputs": [
        {
          "internalType": "bool",
          "name": "",
          "type": "bool"
        }
      ],
      "stateMutability": "view",
      "type": "function"
    },
    {
      "inputs": [],
      "name": "lastClaimed",
      "outputs": [
        {
          "internalType": "uint256",
          "name": "",
          "type": "uint256"
        }
      ],
      "stateMutability": "view",
      "type": "function"
    },
    {
      "inputs": [],
      "name": "lastEraTotalBalance",
      "outputs": [
        {
          "internalType": "uint256",
          "name": "",
          "type": "uint256"
        }
      ],
      "stateMutability": "view",
      "type": "function"
    },
    {
      "inputs": [],
      "name": "lastStaked",
      "outputs": [
        {
          "internalType": "uint256",
          "name": "",
          "type": "uint256"
        }
      ],
      "stateMutability": "view",
      "type": "function"
    },
    {
      "inputs": [],
      "name": "lastUnstaked",
      "outputs": [
        {
          "internalType": "uint256",
          "name": "",
          "type": "uint256"
        }
      ],
      "stateMutability": "view",
      "type": "function"
    },
    {
      "inputs": [],
      "name": "lastUpdated",
      "outputs": [
        {
          "internalType": "uint256",
          "name": "",
          "type": "uint256"
        }
      ],
      "stateMutability": "view",
      "type": "function"
    },
    {
      "inputs": [],
      "name": "liquidStakingManager",
      "outputs": [
        {
          "internalType": "address",
          "name": "",
          "type": "address"
        }
      ],
      "stateMutability": "view",
      "type": "function"
    },
    {
      "inputs": [
        {
          "internalType": "address",
          "name": "",
          "type": "address"
        }
      ],
      "name": "lpHandlers",
      "outputs": [
        {
          "internalType": "address",
          "name": "",
          "type": "address"
        }
      ],
      "stateMutability": "view",
      "type": "function"
    },
    {
      "inputs": [
        {
          "internalType": "uint256",
          "name": "",
          "type": "uint256"
        }
      ],
      "name": "lpTokens",
      "outputs": [
        {
          "internalType": "address",
          "name": "",
          "type": "address"
        }
      ],
      "stateMutability": "view",
      "type": "function"
    },
    {
      "inputs": [],
      "name": "minStakeAmount",
      "outputs": [
        {
          "internalType": "uint256",
          "name": "",
          "type": "uint256"
        }
      ],
      "stateMutability": "view",
      "type": "function"
    },
    {
      "inputs": [],
      "name": "nftDistr",
      "outputs": [
        {
          "internalType": "contract INFTDistributor",
          "name": "",
          "type": "address"
        }
      ],
      "stateMutability": "view",
      "type": "function"
    },
    {
      "inputs": [
        {
          "internalType": "address",
          "name": "",
          "type": "address"
        }
      ],
      "name": "partnerIdx",
      "outputs": [
        {
          "internalType": "uint256",
          "name": "",
          "type": "uint256"
        }
      ],
      "stateMutability": "view",
      "type": "function"
    },
    {
      "inputs": [
        {
          "internalType": "uint256",
          "name": "",
          "type": "uint256"
        }
      ],
      "name": "partners",
      "outputs": [
        {
          "internalType": "address",
          "name": "",
          "type": "address"
        }
      ],
      "stateMutability": "view",
      "type": "function"
    },
    {
      "inputs": [],
      "name": "partnersLimit",
      "outputs": [
        {
          "internalType": "uint256",
          "name": "",
          "type": "uint256"
        }
      ],
      "stateMutability": "view",
      "type": "function"
    },
    {
      "inputs": [],
      "name": "pause",
      "outputs": [],
      "stateMutability": "nonpayable",
      "type": "function"
    },
    {
      "inputs": [],
      "name": "paused",
      "outputs": [
        {
          "internalType": "bool",
          "name": "",
          "type": "bool"
        }
      ],
      "stateMutability": "view",
      "type": "function"
    },
    {
      "inputs": [
        {
          "internalType": "bytes32",
          "name": "role",
          "type": "bytes32"
        },
        {
          "internalType": "address",
          "name": "account",
          "type": "address"
        }
      ],
      "name": "renounceRole",
      "outputs": [],
      "stateMutability": "nonpayable",
      "type": "function"
    },
    {
      "inputs": [
        {
          "internalType": "bytes32",
          "name": "role",
          "type": "bytes32"
        },
        {
          "internalType": "address",
          "name": "account",
          "type": "address"
        }
      ],
      "name": "revokeRole",
      "outputs": [],
      "stateMutability": "nonpayable",
      "type": "function"
    },
    {
      "inputs": [],
      "name": "rewardPool",
      "outputs": [
        {
          "internalType": "uint256",
          "name": "",
          "type": "uint256"
        }
      ],
      "stateMutability": "view",
      "type": "function"
    },
    {
      "inputs": [
        {
          "internalType": "address",
          "name": "_liquidStakingManager",
          "type": "address"
        }
      ],
      "name": "setLiquidStakingManager",
      "outputs": [],
      "stateMutability": "nonpayable",
      "type": "function"
    },
    {
      "inputs": [
        {
          "internalType": "uint256",
          "name": "_amount",
          "type": "uint256"
        }
      ],
      "name": "setMinStakeAmount",
      "outputs": [],
      "stateMutability": "nonpayable",
      "type": "function"
    },
    {
      "inputs": [
        {
          "internalType": "uint256",
          "name": "",
          "type": "uint256"
        }
      ],
      "name": "stakers",
      "outputs": [
        {
          "internalType": "address",
          "name": "",
          "type": "address"
        }
      ],
      "stateMutability": "view",
      "type": "function"
    },
    {
      "inputs": [
        {
          "internalType": "address",
          "name": "",
          "type": "address"
        }
      ],
      "name": "stakes",
      "outputs": [
        {
          "internalType": "uint256",
          "name": "totalBalance",
          "type": "uint256"
        },
        {
          "internalType": "uint256",
          "name": "eraStarted",
          "type": "uint256"
        }
      ],
      "stateMutability": "view",
      "type": "function"
    },
    {
      "inputs": [],
      "name": "sum2unstake",
      "outputs": [
        {
          "internalType": "uint256",
          "name": "",
          "type": "uint256"
        }
      ],
      "stateMutability": "view",
      "type": "function"
    },
    {
      "inputs": [
        {
          "internalType": "bytes4",
          "name": "interfaceId",
          "type": "bytes4"
        }
      ],
      "name": "supportsInterface",
      "outputs": [
        {
          "internalType": "bool",
          "name": "",
          "type": "bool"
        }
      ],
      "stateMutability": "view",
      "type": "function"
    },
    {
      "inputs": [],
      "name": "totalBalance",
      "outputs": [
        {
          "internalType": "uint256",
          "name": "",
          "type": "uint256"
        }
      ],
      "stateMutability": "view",
      "type": "function"
    },
    {
      "inputs": [],
      "name": "totalRevenue",
      "outputs": [
        {
          "internalType": "uint256",
          "name": "",
          "type": "uint256"
        }
      ],
      "stateMutability": "view",
      "type": "function"
    },
    {
      "inputs": [
        {
          "internalType": "address",
          "name": "",
          "type": "address"
        }
      ],
      "name": "totalUserRewards",
      "outputs": [
        {
          "internalType": "uint256",
          "name": "",
          "type": "uint256"
        }
      ],
      "stateMutability": "view",
      "type": "function"
    },
    {
      "inputs": [],
      "name": "unbondedPool",
      "outputs": [
        {
          "internalType": "uint256",
          "name": "",
          "type": "uint256"
        }
      ],
      "stateMutability": "view",
      "type": "function"
    },
    {
      "inputs": [],
      "name": "unpause",
      "outputs": [],
      "stateMutability": "nonpayable",
      "type": "function"
    },
    {
      "inputs": [],
      "name": "unstakingPool",
      "outputs": [
        {
          "internalType": "uint256",
          "name": "",
          "type": "uint256"
        }
      ],
      "stateMutability": "view",
      "type": "function"
    },
    {
      "inputs": [
        {
          "internalType": "address",
          "name": "",
          "type": "address"
        },
        {
          "internalType": "uint256",
          "name": "",
          "type": "uint256"
        },
        {
          "internalType": "uint256",
          "name": "",
          "type": "uint256"
        }
      ],
      "name": "usersShotsPerEra",
      "outputs": [
        {
          "internalType": "uint256",
          "name": "",
          "type": "uint256"
        }
      ],
      "stateMutability": "view",
      "type": "function"
    },
    {
      "inputs": [],
      "name": "utilName",
      "outputs": [
        {
          "internalType": "string",
          "name": "",
          "type": "string"
        }
      ],
      "stateMutability": "view",
      "type": "function"
    },
    {
      "inputs": [
        {
          "internalType": "uint256",
          "name": "_id",
          "type": "uint256"
        }
      ],
      "name": "withdraw",
      "outputs": [],
      "stateMutability": "nonpayable",
      "type": "function"
    },
    {
      "inputs": [],
      "name": "withdrawBlock",
      "outputs": [
        {
          "internalType": "uint256",
          "name": "",
          "type": "uint256"
        }
      ],
      "stateMutability": "view",
      "type": "function"
    },
    {
      "inputs": [
        {
          "internalType": "address",
          "name": "",
          "type": "address"
        },
        {
          "internalType": "uint256",
          "name": "",
          "type": "uint256"
        }
      ],
      "name": "withdrawals",
      "outputs": [
        {
          "internalType": "uint256",
          "name": "val",
          "type": "uint256"
        },
        {
          "internalType": "uint256",
          "name": "eraReq",
          "type": "uint256"
        },
        {
          "internalType": "uint256",
          "name": "lag",
          "type": "uint256"
        }
      ],
      "stateMutability": "view",
      "type": "function"
    },
    {
      "stateMutability": "payable",
      "type": "receive"
    }
  ],
  "bytecode": {
    "object": "0x608060405234801561001057600080fd5b5061001961001e565b6100de565b600054610100900460ff161561008a5760405162461bcd60e51b815260206004820152602760248201527f496e697469616c697a61626c653a20636f6e747261637420697320696e697469604482015266616c697a696e6760c81b606482015260840160405180910390fd5b60005460ff90811610156100dc576000805460ff191660ff9081179091556040519081527f7f26b83ff96e1f2b6a682f133852f6798a09c465da95921460cefb38474024989060200160405180910390a15b565b61237a80620000ee6000396000f3fe60806040526004361061041e5760003560e01c80636f68f2e91161021e578063c4e137e711610123578063e09c1954116100ab578063eb51a44c1161007a578063eb51a44c14610de3578063f128f63114610e1d578063f188768414610e33578063fbd73b9314610e49578063fd5e6dd114610e695761042d565b8063e09c195414610d57578063e2e836f814610d8d578063e77ee34514610dad578063eb4af04514610dc35761042d565b8063d0b06f5d116100f2578063d0b06f5d14610c6b578063d547741f14610c81578063d6356ff414610ca1578063da3bc95814610cc1578063dcf425df14610ce15761042d565b8063c4e137e714610bc0578063c6ecccb814610bfa578063c71367b514610c1a578063c8902a2114610c305761042d565b8063a5ae02ac116101a6578063af66c36b11610175578063af66c36b14610b34578063bd1bbd3b14610b4a578063bf2d9e0b14610b6a578063c21a727614610b80578063c3b49d0414610ba05761042d565b8063a5ae02ac14610ac6578063ab48692914610af3578063ad7a672f14610b08578063adc1b95614610b1e5761042d565b806391d14854116101ed57806391d1485414610a22578063973628f614610a42578063a217fddf14610a57578063a2ce0f4a14610a6c578063a44bca8e14610a995761042d565b80636f68f2e9146109895780638456cb59146109c457806386b3cd26146109d95780638c0f9aac146109f25761042d565b8063331d437b1161032457806359601ebc116102ac5780635f1554e31161027b5780635f1554e3146108f857806366666aa91461090d5780636bbea766146109235780636f1e8533146109435780636f5e4488146109735761042d565b806359601ebc1461088c57806359b40f41146108a15780635c975abb146108b75780635ca5914e146108d85761042d565b8063422b1077116102f3578063422b1077146107c65780634421bd1e146108015780634d617451146108285780635495ec811461083e57806354b057f9146108545761042d565b8063331d437b1461074d57806336568abe1461076f5780633f4ba83a1461078f57806340bf8a8d146107a45761042d565b80631bb5e2dc116103a75780632a14d8f4116103765780632a14d8f41461066a5780632e1a7d4d146106a25780632e4a4a17146106c25780632ea31bf6146106dc5780632f2ff15d1461072d5761042d565b80631bb5e2dc146105d75780631dc00785146105f757806324025b1914610624578063248a9ca31461063a5761042d565b80630f24ca7d116103ee5780630f24ca7d146104e65780630f80b5921461051657806312a12a061461055657806316934fc41461056c5780631b2df850146105b55761042d565b8062179fbd1461043557806301ffc9a71461045e57806305e2a2171461048e578063077f224a146104c65761042d565b3661042d5761042b610e89565b005b61042b610e89565b34801561044157600080fd5b5061044b60b75481565b6040519081526020015b60405180910390f35b34801561046a57600080fd5b5061047e610479366004611fb2565b610e9b565b6040519015158152602001610455565b34801561049a57600080fd5b5060a6546104ae906001600160a01b031681565b6040516001600160a01b039091168152602001610455565b3480156104d257600080fd5b5061042b6104e136600461206d565b610ed2565b3480156104f257600080fd5b5061047e610501366004611ed4565b60aa6020526000908152604090205460ff1681565b34801561052257600080fd5b50610536610531366004612015565b611243565b604080519485529215156020850152918301526060820152608001610455565b34801561056257600080fd5b5061044b60a85481565b34801561057857600080fd5b506105a0610587366004611ed4565b609e602052600090815260409020805460019091015482565b60408051928352602083019190915201610455565b3480156105c157600080fd5b5061044b60008051602061232583398151915281565b3480156105e357600080fd5b506104ae6105f2366004611f6b565b6112b7565b34801561060357600080fd5b5061044b610612366004611f6b565b60ac6020526000908152604090205481565b34801561063057600080fd5b5061044b609a5481565b34801561064657600080fd5b5061044b610655366004611f6b565b60009081526065602052604090206001015490565b34801561067657600080fd5b5061044b610685366004611fda565b805160208183018101805160c38252928201919093012091525481565b3480156106ae57600080fd5b5061042b6106bd366004611f6b565b6112e1565b3480156106ce57600080fd5b5060b65461047e9060ff1681565b3480156106e857600080fd5b506107166106f7366004611f6b565b60a1602052600090815260409020805460019091015460ff9091169082565b604080519215158352602083019190915201610455565b34801561073957600080fd5b5061042b610748366004611f83565b6112ef565b34801561075957600080fd5b50610762611319565b604051610455919061218b565b34801561077b57600080fd5b5061042b61078a366004611f83565b6113a1565b34801561079b57600080fd5b5061042b61141f565b3480156107b057600080fd5b506107b961148d565b60405161045591906121e4565b3480156107d257600080fd5b506107e66107e1366004611f0c565b61151b565b60408051938452602084019290925290820152606001610455565b34801561080d57600080fd5b50610816600981565b60405160ff9091168152602001610455565b34801561083457600080fd5b5061044b60bb5481565b34801561084a57600080fd5b5061044b60a95481565b34801561086057600080fd5b5061044b61086f366004611f0c565b60ae60209081526000928352604080842090915290825290205481565b34801561089857600080fd5b50610816600181565b3480156108ad57600080fd5b506104ae61500181565b3480156108c357600080fd5b5060c75461047e90600160a01b900460ff1681565b3480156108e457600080fd5b5060c7546104ae906001600160a01b031681565b34801561090457600080fd5b50610816600a81565b34801561091957600080fd5b5061044b609c5481565b34801561092f57600080fd5b50609d546104ae906001600160a01b031681565b34801561094f57600080fd5b5061047e61095e366004611ed4565b60a76020526000908152604090205460ff1681565b34801561097f57600080fd5b5061044b609b5481565b34801561099557600080fd5b5061047e6109a4366004611fda565b805160208183018101805160c18252928201919093012091525460ff1681565b3480156109d057600080fd5b5061042b61155d565b3480156109e557600080fd5b5061044b64e8d4a5100081565b3480156109fe57600080fd5b5061047e610a0d366004611ed4565b60b86020526000908152604090205460ff1681565b348015610a2e57600080fd5b5061047e610a3d366004611f83565b6115d6565b348015610a4e57600080fd5b5061044b611601565b348015610a6357600080fd5b5061044b600081565b348015610a7857600080fd5b5061044b610a87366004611f6b565b60c46020526000908152604090205481565b348015610aa557600080fd5b5061044b610ab4366004611ed4565b60b06020526000908152604090205481565b348015610ad257600080fd5b5061044b610ae1366004611ed4565b60b96020526000908152604090205481565b348015610aff57600080fd5b506107b961167b565b348015610b1457600080fd5b5061044b60995481565b348015610b2a57600080fd5b5061044b60b35481565b348015610b4057600080fd5b5061044b60b55481565b348015610b5657600080fd5b5060c5546104ae906001600160a01b031681565b348015610b7657600080fd5b5061044b60ad5481565b348015610b8c57600080fd5b5061044b610b9b366004611f6b565b611688565b348015610bac57600080fd5b506104ae610bbb366004611f6b565b61169f565b348015610bcc57600080fd5b50610716610bdb366004611f6b565b60a0602052600090815260409020805460019091015460ff9091169082565b348015610c0657600080fd5b50610762610c15366004611ed4565b6116af565b348015610c2657600080fd5b5061044b60a35481565b348015610c3c57600080fd5b5061047e610c4b366004611fda565b805160208183018101805160c28252928201919093012091525460ff1681565b348015610c7757600080fd5b5061044b60a45481565b348015610c8d57600080fd5b5061042b610c9c366004611f83565b611742565b348015610cad57600080fd5b5061044b610cbc366004611f37565b611767565b348015610ccd57600080fd5b506107b9610cdc366004611f6b565b6117a5565b348015610ced57600080fd5b50610d32610cfc366004611fda565b805160208183018101805160c0825292820191909301209152805460018201546002909201546001600160a01b03909116919083565b604080516001600160a01b039094168452602084019290925290820152606001610455565b348015610d6357600080fd5b506104ae610d72366004611ed4565b60b1602052600090815260409020546001600160a01b031681565b348015610d9957600080fd5b5060c6546104ae906001600160a01b031681565b348015610db957600080fd5b5061044b60bc5481565b348015610dcf57600080fd5b5061042b610dde366004611f6b565b6117d0565b348015610def57600080fd5b50610716610dfe366004611f6b565b60a2602052600090815260409020805460019091015460ff9091169082565b348015610e2957600080fd5b5061044b60b25481565b348015610e3f57600080fd5b5061044b60b45481565b348015610e5557600080fd5b5061042b610e64366004611ed4565b611876565b348015610e7557600080fd5b506104ae610e84366004611f6b565b611948565b610e99610e94611958565b611a4c565b565b60006001600160e01b03198216637965db0b60e01b1480610ecc57506301ffc9a760e01b6001600160e01b03198316145b92915050565b600054610100900460ff1615808015610ef25750600054600160ff909116105b80610f0c5750303b158015610f0c575060005460ff166001145b610f745760405162461bcd60e51b815260206004820152602e60248201527f496e697469616c697a61626c653a20636f6e747261637420697320616c72656160448201526d191e481a5b9a5d1a585b1a5e995960921b60648201526084015b60405180910390fd5b6000805460ff191660011790558015610f97576000805461ff0019166101001790555b6001600160a01b0382163b610ffc5760405162461bcd60e51b815260206004820152602560248201527f5f6469737472416464722073686f756c6420626520636f6e7472616374206164604482015264647265737360d81b6064820152608401610f6b565b835161100f906098906020870190611db4565b508251611023906097906020860190611db4565b5060006001611030611601565b61103a919061224e565b9050611047600033611a70565b61105f60008051602061232583398151915233611a70565b611069600a6117d0565b6150016001600160a01b031663db62b2016040518163ffffffff1660e01b815260040160206040518083038186803b1580156110a457600080fd5b505afa1580156110b8573d6000803e3d6000fd5b505050506040513d601f19601f820116820180604052508101906110dc91906120e2565b609a55609d80546001600160a01b0319166001600160a01b03851617905560a481905560a881905560a981905560b381905560bf80546001810182556000919091528451611151917fb52cf138a3505dc3d3cd84a77912f4be1a33df2c3065d3e4cb37fb1d5d1b507201906020870190611db4565b50600160c18560405161116491906120fa565b908152604051908190036020018120805492151560ff199093169290921790915560019060c2906111969087906120fa565b908152604051908190036020018120805492151560ff1990931692909217909155309060c0906111c79087906120fa565b90815260405190819003602001902080546001600160a01b03929092166001600160a01b031990921691909117905550801561123d576000805461ff0019169055604051600181527f7f26b83ff96e1f2b6a682f133852f6798a09c465da95921460cefb38474024989060200160405180910390a15b50505050565b600080600080600060c08860405161125b91906120fa565b90815260408051602092819003830190206001600160a01b039990991660009081526003998a0183528181209881528883528181205460018a01909352205460028801549790980154909960ff90981698509596945050505050565b60ab81815481106112c757600080fd5b6000918252602090912001546001600160a01b0316905081565b6112ec610e94611958565b50565b60008281526065602052604090206001015461130a81611af6565b6113148383611a70565b505050565b336000908152609f60209081526040808320805482518185028101850190935280835260609492939192909184015b828210156113985783829060005260206000209060030201604051806060016040529081600082015481526020016001820154815260200160028201548152505081526020019060010190611348565b50505050905090565b6001600160a01b03811633146114115760405162461bcd60e51b815260206004820152602f60248201527f416363657373436f6e74726f6c3a2063616e206f6e6c792072656e6f756e636560448201526e103937b632b9903337b91039b2b63360891b6064820152608401610f6b565b61141b8282611b00565b5050565b60008051602061232583398151915261143781611af6565b60c754600160a01b900460ff1661147d5760405162461bcd60e51b815260206004820152600a602482015269139bdd081c185d5cd95960b21b6044820152606401610f6b565b5060c7805460ff60a01b19169055565b6098805461149a906122a8565b80601f01602080910402602001604051908101604052809291908181526020018280546114c6906122a8565b80156115135780601f106114e857610100808354040283529160200191611513565b820191906000526020600020905b8154815290600101906020018083116114f657829003601f168201915b505050505081565b609f602052816000526040600020818154811061153757600080fd5b600091825260209091206003909102018054600182015460029092015490935090915083565b60008051602061232583398151915261157581611af6565b60c754600160a01b900460ff16156115c05760405162461bcd60e51b815260206004820152600e60248201526d105b1c9958591e481c185d5cd95960921b6044820152606401610f6b565b5060c7805460ff60a01b1916600160a01b179055565b60009182526065602090815260408084206001600160a01b0393909316845291905290205460ff1690565b60006150016001600160a01b031663e608d80b6040518163ffffffff1660e01b815260040160206040518083038186803b15801561163e57600080fd5b505afa158015611652573d6000803e3d6000fd5b505050506040513d601f19601f8201168201806040525081019061167691906120e2565b905090565b6097805461149a906122a8565b60bd816002811061169857600080fd5b0154905081565b60ba81815481106112c757600080fd5b6001600160a01b0381166000908152609f60209081526040808320805482518185028101850190935280835260609492939192909184015b8282101561173757838290600052602060002090600302016040518060600160405290816000820154815260200160018201548152602001600282015481525050815260200190600101906116e7565b505050509050919050565b60008281526065602052604090206001015461175d81611af6565b6113148383611b00565b60af602052826000526040600020602052816000526040600020818154811061178f57600080fd5b9060005260206000200160009250925050505481565b60bf81815481106117b557600080fd5b90600052602060002001600091509050805461149a906122a8565b6000805160206123258339815191526117e881611af6565b600082116118385760405162461bcd60e51b815260206004820152601c60248201527f53686f756c642062652067726561746572207468616e207a65726f21000000006044820152606401610f6b565b60b482905560405182815233907f411d99b33932ad14363af29dd9987548b8e4a679725aecf1bf262f406ca165cd9060200160405180910390a25050565b600061188181611af6565b6001600160a01b0382166118ce5760405162461bcd60e51b81526020600482015260146024820152731059191c995cdcc818d85b9d081899481b9d5b1b60621b6044820152606401610f6b565b6001600160a01b0382163b6119255760405162461bcd60e51b815260206004820152601b60248201527f4d616e616765722073686f756c6420626520636f6e74726163742100000000006044820152606401610f6b565b5060c780546001600160a01b0319166001600160a01b0392909216919091179055565b60a581815481106112c757600080fd5b60c754600090600160a01b900460ff1615806119875750611987600080516020612325833981519152336115d6565b6119c55760405162461bcd60e51b815260206004820152600f60248201526e10dbdb9d1c9858dd081c185d5cd959608a1b6044820152606401610f6b565b60c75460405163552aaedb60e01b81526000356001600160e01b03191660048201526001600160a01b039091169063552aaedb9060240160206040518083038186803b158015611a1457600080fd5b505afa158015611a28573d6000803e3d6000fd5b505050506040513d601f19601f820116820180604052508101906116769190611ef0565b3660008037600080366000845af43d6000803e808015611a6b573d6000f35b3d6000fd5b611a7a82826115d6565b61141b5760008281526065602090815260408083206001600160a01b03851684529091529020805460ff19166001179055611ab23390565b6001600160a01b0316816001600160a01b0316837f2f8788117e7eff1d82e926ec794901d17c78024a50270940304540a733656f0d60405160405180910390a45050565b6112ec8133611b67565b611b0a82826115d6565b1561141b5760008281526065602090815260408083206001600160a01b0385168085529252808320805460ff1916905551339285917ff6391f5c32d9c69d2a47ea670b442974b53935d1edc7fd64eb21e047a839171b9190a45050565b611b7182826115d6565b61141b57611b89816001600160a01b03166014611bcb565b611b94836020611bcb565b604051602001611ba5929190612116565b60408051601f198184030181529082905262461bcd60e51b8252610f6b916004016121e4565b60606000611bda83600261222f565b611be5906002612217565b67ffffffffffffffff811115611c0b57634e487b7160e01b600052604160045260246000fd5b6040519080825280601f01601f191660200182016040528015611c35576020820181803683370190505b509050600360fc1b81600081518110611c5e57634e487b7160e01b600052603260045260246000fd5b60200101906001600160f81b031916908160001a905350600f60fb1b81600181518110611c9b57634e487b7160e01b600052603260045260246000fd5b60200101906001600160f81b031916908160001a9053506000611cbf84600261222f565b611cca906001612217565b90505b6001811115611d5e576f181899199a1a9b1b9c1cb0b131b232b360811b85600f1660108110611d0c57634e487b7160e01b600052603260045260246000fd5b1a60f81b828281518110611d3057634e487b7160e01b600052603260045260246000fd5b60200101906001600160f81b031916908160001a90535060049490941c93611d5781612291565b9050611ccd565b508315611dad5760405162461bcd60e51b815260206004820181905260248201527f537472696e67733a20686578206c656e67746820696e73756666696369656e746044820152606401610f6b565b9392505050565b828054611dc0906122a8565b90600052602060002090601f016020900481019282611de25760008555611e28565b82601f10611dfb57805160ff1916838001178555611e28565b82800160010185558215611e28579182015b82811115611e28578251825591602001919060010190611e0d565b50611e34929150611e38565b5090565b5b80821115611e345760008155600101611e39565b600082601f830112611e5d578081fd5b813567ffffffffffffffff80821115611e7857611e786122f9565b604051601f8301601f19908116603f01168101908282118183101715611ea057611ea06122f9565b81604052838152866020858801011115611eb8578485fd5b8360208701602083013792830160200193909352509392505050565b600060208284031215611ee5578081fd5b8135611dad8161230f565b600060208284031215611f01578081fd5b8151611dad8161230f565b60008060408385031215611f1e578081fd5b8235611f298161230f565b946020939093013593505050565b600080600060608486031215611f4b578081fd5b8335611f568161230f565b95602085013595506040909401359392505050565b600060208284031215611f7c578081fd5b5035919050565b60008060408385031215611f95578182fd5b823591506020830135611fa78161230f565b809150509250929050565b600060208284031215611fc3578081fd5b81356001600160e01b031981168114611dad578182fd5b600060208284031215611feb578081fd5b813567ffffffffffffffff811115612001578182fd5b61200d84828501611e4d565b949350505050565b600080600060608486031215612029578283fd5b833567ffffffffffffffff81111561203f578384fd5b61204b86828701611e4d565b935050602084013561205c8161230f565b929592945050506040919091013590565b600080600060608486031215612081578283fd5b833567ffffffffffffffff80821115612098578485fd5b6120a487838801611e4d565b945060208601359150808211156120b9578384fd5b506120c686828701611e4d565b92505060408401356120d78161230f565b809150509250925092565b6000602082840312156120f3578081fd5b5051919050565b6000825161210c818460208701612265565b9190910192915050565b7f416363657373436f6e74726f6c3a206163636f756e742000000000000000000081526000835161214e816017850160208801612265565b7001034b99036b4b9b9b4b733903937b6329607d1b601791840191820152835161217f816028840160208801612265565b01602801949350505050565b602080825282518282018190526000919060409081850190868401855b828110156121d757815180518552868101518786015285015185850152606090930192908501906001016121a8565b5091979650505050505050565b6020815260008251806020840152612203816040850160208701612265565b601f01601f19169190910160400192915050565b6000821982111561222a5761222a6122e3565b500190565b6000816000190483118215151615612249576122496122e3565b500290565b600082821015612260576122606122e3565b500390565b60005b83811015612280578181015183820152602001612268565b8381111561123d5750506000910152565b6000816122a0576122a06122e3565b506000190190565b600181811c908216806122bc57607f821691505b602082108114156122dd57634e487b7160e01b600052602260045260246000fd5b50919050565b634e487b7160e01b600052601160045260246000fd5b634e487b7160e01b600052604160045260246000fd5b6001600160a01b03811681146112ec57600080fdfeaf290d8680820aad922855f39b306097b20e28774d6c1ad35a20325630c3a02ca2646970667358221220a254926eaf50c85dd873c132bbf7e590037081e7e603a747c1fa3b45ad16dddd64736f6c63430008040033",
    "linkReferences": {}
  },
  "methodIdentifiers": {
    "DAPPS_STAKING()": "59b40f41",
    "DEFAULT_ADMIN_ROLE()": "a217fddf",
    "DNTname()": "40bf8a8d",
    "MANAGEMENT_FEE()": "5f1554e3",
    "MANAGER()": "1b2df850",
    "REVENUE_FEE()": "4421bd1e",
    "REWARDS_PRECISION()": "86b3cd26",
    "UNSTAKING_FEE()": "59601ebc",
    "accumulatedRewardsPerShare(uint256)": "a2ce0f4a",
    "adaptersDistr()": "e2e836f8",
    "buffer(address,uint256)": "54b057f9",
    "claimingTxLimit()": "00179fbd",
    "currentEra()": "973628f6",
    "dapps(string)": "dcf425df",
    "dappsList(uint256)": "da3bc958",
    "deactivationEra(string)": "2a14d8f4",
    "distr()": "6bbea766",
    "dntToken()": "05e2a217",
    "eraBuffer(uint256)": "c21a7276",
    "eraRevenue(uint256)": "eb51a44c",
    "eraRewards(uint256)": "1dc00785",
    "eraShotsLimit()": "f128f631",
    "eraStakerReward(uint256)": "2ea31bf6",
    "eraUnstaked(uint256)": "c4e137e7",
    "getRoleAdmin(bytes32)": "248a9ca3",
    "getStaker(string,address,uint256)": "0f80b592",
    "getUserWithdrawals()": "331d437b",
    "getUserWithdrawalsArray(address)": "c6ecccb8",
    "grantRole(bytes32,address)": "2f2ff15d",
    "hasRole(bytes32,address)": "91d14854",
    "haveUtility(string)": "6f68f2e9",
    "initialize(string,string,address)": "077f224a",
    "isActive(string)": "c8902a21",
    "isLpToken(address)": "0f24ca7d",
    "isPartner(address)": "8c0f9aac",
    "isStaker(address)": "6f1e8533",
    "isUnstakes()": "2e4a4a17",
    "lastClaimed()": "adc1b956",
    "lastEraTotalBalance()": "e77ee345",
    "lastStaked()": "12a12a06",
    "lastUnstaked()": "5495ec81",
    "lastUpdated()": "d0b06f5d",
    "liquidStakingManager()": "5ca5914e",
    "lpHandlers(address)": "e09c1954",
    "lpTokens(uint256)": "1bb5e2dc",
    "minStakeAmount()": "f1887684",
    "nftDistr()": "bd1bbd3b",
    "partnerIdx(address)": "a5ae02ac",
    "partners(uint256)": "c3b49d04",
    "partnersLimit()": "4d617451",
    "pause()": "8456cb59",
    "paused()": "5c975abb",
    "renounceRole(bytes32,address)": "36568abe",
    "revokeRole(bytes32,address)": "d547741f",
    "rewardPool()": "66666aa9",
    "setLiquidStakingManager(address)": "fbd73b93",
    "setMinStakeAmount(uint256)": "eb4af045",
    "stakers(uint256)": "fd5e6dd1",
    "stakes(address)": "16934fc4",
    "sum2unstake()": "af66c36b",
    "supportsInterface(bytes4)": "01ffc9a7",
    "totalBalance()": "ad7a672f",
    "totalRevenue()": "bf2d9e0b",
    "totalUserRewards(address)": "a44bca8e",
    "unbondedPool()": "c71367b5",
    "unpause()": "3f4ba83a",
    "unstakingPool()": "6f5e4488",
    "usersShotsPerEra(address,uint256,uint256)": "d6356ff4",
    "utilName()": "ab486929",
    "withdraw(uint256)": "2e1a7d4d",
    "withdrawBlock()": "24025b19",
    "withdrawals(address,uint256)": "422b1077"
  },
  "id": 6
}