{
  "abi": [
    {
      "inputs": [],
      "stateMutability": "nonpayable",
      "type": "constructor"
    },
    {
      "anonymous": false,
      "inputs": [
        {
          "indexed": true,
          "internalType": "address",
          "name": "sender",
          "type": "address"
        },
        {
          "indexed": true,
          "internalType": "address",
          "name": "partner",
          "type": "address"
        }
      ],
      "name": "AddPartner",
      "type": "event"
    },
    {
      "anonymous": false,
      "inputs": [
        {
          "indexed": true,
          "internalType": "uint256",
          "name": "amount",
          "type": "uint256"
        },
        {
          "indexed": true,
          "internalType": "uint256",
          "name": "era",
          "type": "uint256"
        },
        {
          "indexed": true,
          "internalType": "bytes",
          "name": "reason",
          "type": "bytes"
        }
      ],
      "name": "ClaimDappError",
      "type": "event"
    },
    {
      "anonymous": false,
      "inputs": [
        {
          "indexed": false,
          "internalType": "uint256",
          "name": "eraStakerReward",
          "type": "uint256"
        },
        {
          "indexed": true,
          "internalType": "uint256",
          "name": "_era",
          "type": "uint256"
        }
      ],
      "name": "ClaimDappSuccess",
      "type": "event"
    },
    {
      "anonymous": false,
      "inputs": [
        {
          "indexed": true,
          "internalType": "uint256",
          "name": "era",
          "type": "uint256"
        },
        {
          "indexed": true,
          "internalType": "bytes",
          "name": "reason",
          "type": "bytes"
        }
      ],
      "name": "ClaimStakerError",
      "type": "event"
    },
    {
      "anonymous": false,
      "inputs": [
        {
          "indexed": true,
          "internalType": "uint256",
          "name": "era",
          "type": "uint256"
        },
        {
          "indexed": false,
          "internalType": "uint256",
          "name": "lastClaimed",
          "type": "uint256"
        }
      ],
      "name": "ClaimStakerSuccess",
      "type": "event"
    },
    {
      "anonymous": false,
      "inputs": [
        {
          "indexed": true,
          "internalType": "address",
          "name": "user",
          "type": "address"
        },
        {
          "indexed": false,
          "internalType": "uint256",
          "name": "amount",
          "type": "uint256"
        }
      ],
      "name": "Claimed",
      "type": "event"
    },
    {
      "anonymous": false,
      "inputs": [
        {
          "indexed": true,
          "internalType": "address",
          "name": "sender",
          "type": "address"
        },
        {
          "indexed": false,
          "internalType": "uint256",
          "name": "value",
          "type": "uint256"
        }
      ],
      "name": "FillRewardPool",
      "type": "event"
    },
    {
      "anonymous": false,
      "inputs": [
        {
          "indexed": true,
          "internalType": "address",
          "name": "sender",
          "type": "address"
        },
        {
          "indexed": false,
          "internalType": "uint256",
          "name": "value",
          "type": "uint256"
        }
      ],
      "name": "FillUnbonded",
      "type": "event"
    },
    {
      "anonymous": false,
      "inputs": [
        {
          "indexed": true,
          "internalType": "address",
          "name": "sender",
          "type": "address"
        },
        {
          "indexed": false,
          "internalType": "uint256",
          "name": "value",
          "type": "uint256"
        }
      ],
      "name": "FillUnstaking",
      "type": "event"
    },
    {
      "anonymous": false,
      "inputs": [
        {
          "indexed": false,
          "internalType": "uint8",
          "name": "version",
          "type": "uint8"
        }
      ],
      "name": "Initialized",
      "type": "event"
    },
    {
      "anonymous": false,
      "inputs": [
        {
          "indexed": true,
          "internalType": "address",
          "name": "sender",
          "type": "address"
        },
        {
          "indexed": true,
          "internalType": "address",
          "name": "partner",
          "type": "address"
        }
      ],
      "name": "RemovePartner",
      "type": "event"
    },
    {
      "anonymous": false,
      "inputs": [
        {
          "indexed": true,
          "internalType": "bytes32",
          "name": "role",
          "type": "bytes32"
        },
        {
          "indexed": true,
          "internalType": "bytes32",
          "name": "previousAdminRole",
          "type": "bytes32"
        },
        {
          "indexed": true,
          "internalType": "bytes32",
          "name": "newAdminRole",
          "type": "bytes32"
        }
      ],
      "name": "RoleAdminChanged",
      "type": "event"
    },
    {
      "anonymous": false,
      "inputs": [
        {
          "indexed": true,
          "internalType": "bytes32",
          "name": "role",
          "type": "bytes32"
        },
        {
          "indexed": true,
          "internalType": "address",
          "name": "account",
          "type": "address"
        },
        {
          "indexed": true,
          "internalType": "address",
          "name": "sender",
          "type": "address"
        }
      ],
      "name": "RoleGranted",
      "type": "event"
    },
    {
      "anonymous": false,
      "inputs": [
        {
          "indexed": true,
          "internalType": "bytes32",
          "name": "role",
          "type": "bytes32"
        },
        {
          "indexed": true,
          "internalType": "address",
          "name": "account",
          "type": "address"
        },
        {
          "indexed": true,
          "internalType": "address",
          "name": "sender",
          "type": "address"
        }
      ],
      "name": "RoleRevoked",
      "type": "event"
    },
    {
      "anonymous": false,
      "inputs": [
        {
          "indexed": true,
          "internalType": "address",
          "name": "sender",
          "type": "address"
        },
        {
          "indexed": false,
          "internalType": "uint256",
          "name": "val",
          "type": "uint256"
        }
      ],
      "name": "SetClaimingTxLimit",
      "type": "event"
    },
    {
      "anonymous": false,
      "inputs": [
        {
          "indexed": true,
          "internalType": "address",
          "name": "sender",
          "type": "address"
        },
        {
          "indexed": false,
          "internalType": "uint256",
          "name": "limit",
          "type": "uint256"
        }
      ],
      "name": "SetEraShotsLimit",
      "type": "event"
    },
    {
      "anonymous": false,
      "inputs": [
        {
          "indexed": true,
          "internalType": "address",
          "name": "sender",
          "type": "address"
        },
        {
          "indexed": false,
          "internalType": "uint256",
          "name": "amount",
          "type": "uint256"
        }
      ],
      "name": "SetMinStakeAmount",
      "type": "event"
    },
    {
      "anonymous": false,
      "inputs": [
        {
          "indexed": true,
          "internalType": "address",
          "name": "sender",
          "type": "address"
        },
        {
          "indexed": false,
          "internalType": "uint256",
          "name": "value",
          "type": "uint256"
        }
      ],
      "name": "SetPartnersLimit",
      "type": "event"
    },
    {
      "anonymous": false,
      "inputs": [
        {
          "indexed": true,
          "internalType": "address",
          "name": "user",
          "type": "address"
        },
        {
          "indexed": false,
          "internalType": "uint256",
          "name": "val",
          "type": "uint256"
        }
      ],
      "name": "Staked",
      "type": "event"
    },
    {
      "anonymous": false,
      "inputs": [
        {
          "indexed": true,
          "internalType": "address",
          "name": "sender",
          "type": "address"
        },
        {
          "indexed": true,
          "internalType": "uint256",
          "name": "era",
          "type": "uint256"
        }
      ],
      "name": "Synchronization",
      "type": "event"
    },
    {
      "anonymous": false,
      "inputs": [
        {
          "indexed": true,
          "internalType": "uint256",
          "name": "sum2unstake",
          "type": "uint256"
        },
        {
          "indexed": true,
          "internalType": "uint256",
          "name": "era",
          "type": "uint256"
        },
        {
          "indexed": true,
          "internalType": "bytes",
          "name": "reason",
          "type": "bytes"
        }
      ],
      "name": "UnbondAndUnstakeError",
      "type": "event"
    },
    {
      "anonymous": false,
      "inputs": [
        {
          "indexed": true,
          "internalType": "uint256",
          "name": "era",
          "type": "uint256"
        },
        {
          "indexed": false,
          "internalType": "uint256",
          "name": "sum2unstake",
          "type": "uint256"
        }
      ],
      "name": "UnbondAndUnstakeSuccess",
      "type": "event"
    },
    {
      "anonymous": false,
      "inputs": [
        {
          "indexed": true,
          "internalType": "address",
          "name": "user",
          "type": "address"
        },
        {
          "indexed": false,
          "internalType": "uint256",
          "name": "amount",
          "type": "uint256"
        },
        {
          "indexed": false,
          "internalType": "bool",
          "name": "immediate",
          "type": "bool"
        }
      ],
      "name": "Unstaked",
      "type": "event"
    },
    {
      "anonymous": false,
      "inputs": [
        {
          "indexed": true,
          "internalType": "string",
          "name": "reason",
          "type": "string"
        }
      ],
      "name": "UpdateError",
      "type": "event"
    },
    {
      "anonymous": false,
      "inputs": [
        {
          "indexed": false,
          "internalType": "uint256",
          "name": "amount",
          "type": "uint256"
        }
      ],
      "name": "WithdrawRevenue",
      "type": "event"
    },
    {
      "anonymous": false,
      "inputs": [
        {
          "indexed": true,
          "internalType": "uint256",
          "name": "_era",
          "type": "uint256"
        },
        {
          "indexed": true,
          "internalType": "bytes",
          "name": "reason",
          "type": "bytes"
        }
      ],
      "name": "WithdrawUnbondedError",
      "type": "event"
    },
    {
      "anonymous": false,
      "inputs": [
        {
          "indexed": true,
          "internalType": "uint256",
          "name": "_era",
          "type": "uint256"
        }
      ],
      "name": "WithdrawUnbondedSuccess",
      "type": "event"
    },
    {
      "anonymous": false,
      "inputs": [
        {
          "indexed": true,
          "internalType": "address",
          "name": "user",
          "type": "address"
        },
        {
          "indexed": false,
          "internalType": "uint256",
          "name": "val",
          "type": "uint256"
        }
      ],
      "name": "Withdrawn",
      "type": "event"
    },
    {
      "inputs": [],
      "name": "DAPPS_STAKING",
      "outputs": [
        {
          "internalType": "contract DappsStaking",
          "name": "",
          "type": "address"
        }
      ],
      "stateMutability": "view",
      "type": "function"
    },
    {
      "inputs": [],
      "name": "DEFAULT_ADMIN_ROLE",
      "outputs": [
        {
          "internalType": "bytes32",
          "name": "",
          "type": "bytes32"
        }
      ],
      "stateMutability": "view",
      "type": "function"
    },
    {
      "inputs": [],
      "name": "DNTname",
      "outputs": [
        {
          "internalType": "string",
          "name": "",
          "type": "string"
        }
      ],
      "stateMutability": "view",
      "type": "function"
    },
    {
      "inputs": [],
      "name": "FEE_PRECISION",
      "outputs": [
        {
          "internalType": "uint8",
          "name": "",
          "type": "uint8"
        }
      ],
      "stateMutability": "view",
      "type": "function"
    },
    {
      "inputs": [],
      "name": "MANAGEMENT_FEE",
      "outputs": [
        {
          "internalType": "uint8",
          "name": "",
          "type": "uint8"
        }
      ],
      "stateMutability": "view",
      "type": "function"
    },
    {
      "inputs": [],
      "name": "MANAGER",
      "outputs": [
        {
          "internalType": "bytes32",
          "name": "",
          "type": "bytes32"
        }
      ],
      "stateMutability": "view",
      "type": "function"
    },
    {
      "inputs": [],
      "name": "REVENUE_FEE",
      "outputs": [
        {
          "internalType": "uint8",
          "name": "",
          "type": "uint8"
        }
      ],
      "stateMutability": "view",
      "type": "function"
    },
    {
      "inputs": [],
      "name": "UNSTAKING_FEE",
      "outputs": [
        {
          "internalType": "uint8",
          "name": "",
          "type": "uint8"
        }
      ],
      "stateMutability": "view",
      "type": "function"
    },
    {
      "inputs": [
        {
          "internalType": "address",
          "name": "_partner",
          "type": "address"
        }
      ],
      "name": "addPartner",
      "outputs": [],
      "stateMutability": "nonpayable",
      "type": "function"
    },
    {
      "inputs": [
        {
          "internalType": "address",
          "name": "_addr",
          "type": "address"
        }
      ],
      "name": "addStaker",
      "outputs": [],
      "stateMutability": "nonpayable",
      "type": "function"
    },
    {
      "inputs": [
        {
          "internalType": "address",
          "name": "_user",
          "type": "address"
        },
        {
          "internalType": "uint256",
          "name": "_amount",
          "type": "uint256"
        }
      ],
      "name": "addToBuffer",
      "outputs": [],
      "stateMutability": "nonpayable",
      "type": "function"
    },
    {
      "inputs": [
        {
          "internalType": "address",
          "name": "",
          "type": "address"
        },
        {
          "internalType": "uint256",
          "name": "",
          "type": "uint256"
        }
      ],
      "name": "buffer",
      "outputs": [
        {
          "internalType": "uint256",
          "name": "",
          "type": "uint256"
        }
      ],
      "stateMutability": "view",
      "type": "function"
    },
    {
      "inputs": [
        {
          "internalType": "uint256",
          "name": "_amount",
          "type": "uint256"
        }
      ],
      "name": "claim",
      "outputs": [],
      "stateMutability": "nonpayable",
      "type": "function"
    },
    {
      "inputs": [],
      "name": "claimRewards",
      "outputs": [],
      "stateMutability": "nonpayable",
      "type": "function"
    },
    {
      "inputs": [],
      "name": "claimingTxLimit",
      "outputs": [
        {
          "internalType": "uint256",
          "name": "",
          "type": "uint256"
        }
      ],
      "stateMutability": "view",
      "type": "function"
    },
    {
      "inputs": [],
      "name": "currentEra",
      "outputs": [
        {
          "internalType": "uint256",
          "name": "",
          "type": "uint256"
        }
      ],
      "stateMutability": "view",
      "type": "function"
    },
    {
      "inputs": [],
      "name": "distr",
      "outputs": [
        {
          "internalType": "contract NDistributor",
          "name": "",
          "type": "address"
        }
      ],
      "stateMutability": "view",
      "type": "function"
    },
    {
      "inputs": [],
      "name": "dntToken",
      "outputs": [
        {
          "internalType": "address",
          "name": "",
          "type": "address"
        }
      ],
      "stateMutability": "view",
      "type": "function"
    },
    {
      "inputs": [
        {
          "internalType": "uint256",
          "name": "",
          "type": "uint256"
        }
      ],
      "name": "eraRevenue",
      "outputs": [
        {
          "internalType": "bool",
          "name": "done",
          "type": "bool"
        },
        {
          "internalType": "uint256",
          "name": "val",
          "type": "uint256"
        }
      ],
      "stateMutability": "view",
      "type": "function"
    },
    {
      "inputs": [
        {
          "internalType": "uint256",
          "name": "",
          "type": "uint256"
        }
      ],
      "name": "eraRewards",
      "outputs": [
        {
          "internalType": "uint256",
          "name": "",
          "type": "uint256"
        }
      ],
      "stateMutability": "view",
      "type": "function"
    },
    {
      "inputs": [
        {
          "internalType": "address",
          "name": "_user",
          "type": "address"
        },
        {
          "internalType": "string",
          "name": "_util",
          "type": "string"
        },
        {
          "internalType": "string",
          "name": "_dnt",
          "type": "string"
        }
      ],
      "name": "eraShot",
      "outputs": [],
      "stateMutability": "nonpayable",
      "type": "function"
    },
    {
      "inputs": [],
      "name": "eraShotsLimit",
      "outputs": [
        {
          "internalType": "uint256",
          "name": "",
          "type": "uint256"
        }
      ],
      "stateMutability": "view",
      "type": "function"
    },
    {
      "inputs": [
        {
          "internalType": "uint256",
          "name": "",
          "type": "uint256"
        }
      ],
      "name": "eraStakerReward",
      "outputs": [
        {
          "internalType": "bool",
          "name": "done",
          "type": "bool"
        },
        {
          "internalType": "uint256",
          "name": "val",
          "type": "uint256"
        }
      ],
      "stateMutability": "view",
      "type": "function"
    },
    {
      "inputs": [
        {
          "internalType": "uint256",
          "name": "",
          "type": "uint256"
        }
      ],
      "name": "eraUnstaked",
      "outputs": [
        {
          "internalType": "bool",
          "name": "done",
          "type": "bool"
        },
        {
          "internalType": "uint256",
          "name": "val",
          "type": "uint256"
        }
      ],
      "stateMutability": "view",
      "type": "function"
    },
    {
      "inputs": [],
      "name": "fillRewardPool",
      "outputs": [],
      "stateMutability": "payable",
      "type": "function"
    },
    {
      "inputs": [],
      "name": "fillUnbonded",
      "outputs": [],
      "stateMutability": "payable",
      "type": "function"
    },
    {
      "inputs": [],
      "name": "fillUnstaking",
      "outputs": [],
      "stateMutability": "payable",
      "type": "function"
    },
    {
      "inputs": [],
      "name": "getPartners",
      "outputs": [
        {
          "internalType": "address[]",
          "name": "",
          "type": "address[]"
        }
      ],
      "stateMutability": "view",
      "type": "function"
    },
    {
      "inputs": [
        {
          "internalType": "bytes32",
          "name": "role",
          "type": "bytes32"
        }
      ],
      "name": "getRoleAdmin",
      "outputs": [
        {
          "internalType": "bytes32",
          "name": "",
          "type": "bytes32"
        }
      ],
      "stateMutability": "view",
      "type": "function"
    },
    {
      "inputs": [],
      "name": "getStakers",
      "outputs": [
        {
          "internalType": "address[]",
          "name": "",
          "type": "address[]"
        }
      ],
      "stateMutability": "view",
      "type": "function"
    },
    {
      "inputs": [
        {
          "internalType": "address",
          "name": "_user",
          "type": "address"
        }
      ],
      "name": "getUserLpTokens",
      "outputs": [
        {
          "internalType": "uint256",
          "name": "amount",
          "type": "uint256"
        }
      ],
      "stateMutability": "view",
      "type": "function"
    },
    {
      "inputs": [
        {
          "internalType": "address",
          "name": "_user",
          "type": "address"
        }
      ],
      "name": "getUserRewards",
      "outputs": [
        {
          "internalType": "uint256",
          "name": "",
          "type": "uint256"
        }
      ],
      "stateMutability": "view",
      "type": "function"
    },
    {
      "inputs": [],
      "name": "getUserWithdrawals",
      "outputs": [
        {
          "components": [
            {
              "internalType": "uint256",
              "name": "val",
              "type": "uint256"
            },
            {
              "internalType": "uint256",
              "name": "eraReq",
              "type": "uint256"
            },
            {
              "internalType": "uint256",
              "name": "lag",
              "type": "uint256"
            }
          ],
          "internalType": "struct LiquidStaking.Withdrawal[]",
          "name": "",
          "type": "tuple[]"
        }
      ],
      "stateMutability": "view",
      "type": "function"
    },
    {
      "inputs": [
        {
          "internalType": "bytes32",
          "name": "role",
          "type": "bytes32"
        },
        {
          "internalType": "address",
          "name": "account",
          "type": "address"
        }
      ],
      "name": "grantRole",
      "outputs": [],
      "stateMutability": "nonpayable",
      "type": "function"
    },
    {
      "inputs": [
        {
          "internalType": "bytes32",
          "name": "role",
          "type": "bytes32"
        },
        {
          "internalType": "address",
          "name": "account",
          "type": "address"
        }
      ],
      "name": "hasRole",
      "outputs": [
        {
          "internalType": "bool",
          "name": "",
          "type": "bool"
        }
      ],
      "stateMutability": "view",
      "type": "function"
    },
    {
      "inputs": [
        {
          "internalType": "string",
          "name": "_DNTname",
          "type": "string"
        },
        {
          "internalType": "string",
          "name": "_utilName",
          "type": "string"
        },
        {
          "internalType": "address",
          "name": "_distrAddr",
          "type": "address"
        },
        {
          "internalType": "address",
          "name": "_dntToken",
          "type": "address"
        }
      ],
      "name": "initialize",
      "outputs": [],
      "stateMutability": "nonpayable",
      "type": "function"
    },
    {
      "inputs": [],
      "name": "initialize2",
      "outputs": [],
      "stateMutability": "nonpayable",
      "type": "function"
    },
    {
      "inputs": [
        {
          "internalType": "address",
          "name": "",
          "type": "address"
        }
      ],
      "name": "isLpToken",
      "outputs": [
        {
          "internalType": "bool",
          "name": "",
          "type": "bool"
        }
      ],
      "stateMutability": "view",
      "type": "function"
    },
    {
      "inputs": [
        {
          "internalType": "address",
          "name": "",
          "type": "address"
        }
      ],
      "name": "isPartner",
      "outputs": [
        {
          "internalType": "bool",
          "name": "",
          "type": "bool"
        }
      ],
      "stateMutability": "view",
      "type": "function"
    },
    {
      "inputs": [
        {
          "internalType": "address",
          "name": "",
          "type": "address"
        }
      ],
      "name": "isStaker",
      "outputs": [
        {
          "internalType": "bool",
          "name": "",
          "type": "bool"
        }
      ],
      "stateMutability": "view",
      "type": "function"
    },
    {
      "inputs": [],
      "name": "isUnstakes",
      "outputs": [
        {
          "internalType": "bool",
          "name": "",
          "type": "bool"
        }
      ],
      "stateMutability": "view",
      "type": "function"
    },
    {
      "inputs": [],
      "name": "lastClaimed",
      "outputs": [
        {
          "internalType": "uint256",
          "name": "",
          "type": "uint256"
        }
      ],
      "stateMutability": "view",
      "type": "function"
    },
    {
      "inputs": [],
      "name": "lastStaked",
      "outputs": [
        {
          "internalType": "uint256",
          "name": "",
          "type": "uint256"
        }
      ],
      "stateMutability": "view",
      "type": "function"
    },
    {
      "inputs": [],
      "name": "lastUnstaked",
      "outputs": [
        {
          "internalType": "uint256",
          "name": "",
          "type": "uint256"
        }
      ],
      "stateMutability": "view",
      "type": "function"
    },
    {
      "inputs": [],
      "name": "lastUpdated",
      "outputs": [
        {
          "internalType": "uint256",
          "name": "",
          "type": "uint256"
        }
      ],
      "stateMutability": "view",
      "type": "function"
    },
    {
      "inputs": [
        {
          "internalType": "address",
          "name": "",
          "type": "address"
        }
      ],
      "name": "lpHandlers",
      "outputs": [
        {
          "internalType": "address",
          "name": "",
          "type": "address"
        }
      ],
      "stateMutability": "view",
      "type": "function"
    },
    {
      "inputs": [
        {
          "internalType": "uint256",
          "name": "",
          "type": "uint256"
        }
      ],
      "name": "lpTokens",
      "outputs": [
        {
          "internalType": "address",
          "name": "",
          "type": "address"
        }
      ],
      "stateMutability": "view",
      "type": "function"
    },
    {
      "inputs": [],
      "name": "minStakeAmount",
      "outputs": [
        {
          "internalType": "uint256",
          "name": "",
          "type": "uint256"
        }
      ],
      "stateMutability": "view",
      "type": "function"
    },
    {
      "inputs": [
        {
          "internalType": "address",
          "name": "",
          "type": "address"
        }
      ],
      "name": "partnerIdx",
      "outputs": [
        {
          "internalType": "uint256",
          "name": "",
          "type": "uint256"
        }
      ],
      "stateMutability": "view",
      "type": "function"
    },
    {
      "inputs": [
        {
          "internalType": "uint256",
          "name": "",
          "type": "uint256"
        }
      ],
      "name": "partners",
      "outputs": [
        {
          "internalType": "address",
          "name": "",
          "type": "address"
        }
      ],
      "stateMutability": "view",
      "type": "function"
    },
    {
      "inputs": [],
      "name": "partnersLimit",
      "outputs": [
        {
          "internalType": "uint256",
          "name": "",
          "type": "uint256"
        }
      ],
      "stateMutability": "view",
      "type": "function"
    },
    {
      "inputs": [
        {
          "internalType": "address",
          "name": "_partner",
          "type": "address"
        }
      ],
      "name": "removePartner",
      "outputs": [],
      "stateMutability": "nonpayable",
      "type": "function"
    },
    {
      "inputs": [
        {
          "internalType": "bytes32",
          "name": "_role",
          "type": "bytes32"
        },
        {
          "internalType": "address",
          "name": "_account",
          "type": "address"
        }
      ],
      "name": "renounceRole",
      "outputs": [],
      "stateMutability": "nonpayable",
      "type": "function"
    },
    {
      "inputs": [
        {
          "internalType": "bytes32",
          "name": "_role",
          "type": "bytes32"
        },
        {
          "internalType": "address",
          "name": "_account",
          "type": "address"
        }
      ],
      "name": "revokeRole",
      "outputs": [],
      "stateMutability": "nonpayable",
      "type": "function"
    },
    {
      "inputs": [],
      "name": "rewardPool",
      "outputs": [
        {
          "internalType": "uint256",
          "name": "",
          "type": "uint256"
        }
      ],
      "stateMutability": "view",
      "type": "function"
    },
    {
      "inputs": [
        {
          "internalType": "address",
          "name": "_user",
          "type": "address"
        },
        {
          "internalType": "uint256",
          "name": "_amount",
          "type": "uint256"
        }
      ],
      "name": "setBuffer",
      "outputs": [],
      "stateMutability": "nonpayable",
      "type": "function"
    },
    {
      "inputs": [
        {
          "internalType": "uint256",
          "name": "_val",
          "type": "uint256"
        }
      ],
      "name": "setClaimingTxLimit",
      "outputs": [],
      "stateMutability": "nonpayable",
      "type": "function"
    },
    {
      "inputs": [
        {
          "internalType": "uint256",
          "name": "_limit",
          "type": "uint256"
        }
      ],
      "name": "setEraShotsLimit",
      "outputs": [],
      "stateMutability": "nonpayable",
      "type": "function"
    },
    {
      "inputs": [
        {
          "internalType": "uint256",
          "name": "_amount",
          "type": "uint256"
        }
      ],
      "name": "setMinStakeAmount",
      "outputs": [],
      "stateMutability": "nonpayable",
      "type": "function"
    },
    {
      "inputs": [
        {
          "internalType": "uint256",
          "name": "_value",
          "type": "uint256"
        }
      ],
      "name": "setPartnersLimit",
      "outputs": [],
      "stateMutability": "nonpayable",
      "type": "function"
    },
    {
      "inputs": [],
      "name": "stake",
      "outputs": [],
      "stateMutability": "payable",
      "type": "function"
    },
    {
      "inputs": [
        {
          "internalType": "uint256",
          "name": "",
          "type": "uint256"
        }
      ],
      "name": "stakers",
      "outputs": [
        {
          "internalType": "address",
          "name": "",
          "type": "address"
        }
      ],
      "stateMutability": "view",
      "type": "function"
    },
    {
      "inputs": [
        {
          "internalType": "address",
          "name": "",
          "type": "address"
        }
      ],
      "name": "stakes",
      "outputs": [
        {
          "internalType": "uint256",
          "name": "totalBalance",
          "type": "uint256"
        },
        {
          "internalType": "uint256",
          "name": "eraStarted",
          "type": "uint256"
        }
      ],
      "stateMutability": "view",
      "type": "function"
    },
    {
      "inputs": [],
      "name": "sum2unstake",
      "outputs": [
        {
          "internalType": "uint256",
          "name": "",
          "type": "uint256"
        }
      ],
      "stateMutability": "view",
      "type": "function"
    },
    {
      "inputs": [
        {
          "internalType": "bytes4",
          "name": "interfaceId",
          "type": "bytes4"
        }
      ],
      "name": "supportsInterface",
      "outputs": [
        {
          "internalType": "bool",
          "name": "",
          "type": "bool"
        }
      ],
      "stateMutability": "view",
      "type": "function"
    },
    {
      "inputs": [
        {
          "internalType": "uint256",
          "name": "_era",
          "type": "uint256"
        }
      ],
      "name": "sync",
      "outputs": [],
      "stateMutability": "nonpayable",
      "type": "function"
    },
    {
      "inputs": [],
      "name": "totalBalance",
      "outputs": [
        {
          "internalType": "uint256",
          "name": "",
          "type": "uint256"
        }
      ],
      "stateMutability": "view",
      "type": "function"
    },
    {
      "inputs": [],
      "name": "totalRevenue",
      "outputs": [
        {
          "internalType": "uint256",
          "name": "",
          "type": "uint256"
        }
      ],
      "stateMutability": "view",
      "type": "function"
    },
    {
      "inputs": [
        {
          "internalType": "address",
          "name": "",
          "type": "address"
        }
      ],
      "name": "totalUserRewards",
      "outputs": [
        {
          "internalType": "uint256",
          "name": "",
          "type": "uint256"
        }
      ],
      "stateMutability": "view",
      "type": "function"
    },
    {
      "inputs": [],
      "name": "unbondedPool",
      "outputs": [
        {
          "internalType": "uint256",
          "name": "",
          "type": "uint256"
        }
      ],
      "stateMutability": "view",
      "type": "function"
    },
    {
      "inputs": [
        {
          "internalType": "uint256",
          "name": "_amount",
          "type": "uint256"
        },
        {
          "internalType": "bool",
          "name": "_immediate",
          "type": "bool"
        }
      ],
      "name": "unstake",
      "outputs": [],
      "stateMutability": "nonpayable",
      "type": "function"
    },
    {
      "inputs": [],
      "name": "unstakingPool",
      "outputs": [
        {
          "internalType": "uint256",
          "name": "",
          "type": "uint256"
        }
      ],
      "stateMutability": "view",
      "type": "function"
    },
    {
      "inputs": [
        {
          "internalType": "address",
          "name": "",
          "type": "address"
        },
        {
          "internalType": "uint256",
          "name": "",
          "type": "uint256"
        },
        {
          "internalType": "uint256",
          "name": "",
          "type": "uint256"
        }
      ],
      "name": "usersShotsPerEra",
      "outputs": [
        {
          "internalType": "uint256",
          "name": "",
          "type": "uint256"
        }
      ],
      "stateMutability": "view",
      "type": "function"
    },
    {
      "inputs": [],
      "name": "utilName",
      "outputs": [
        {
          "internalType": "string",
          "name": "",
          "type": "string"
        }
      ],
      "stateMutability": "view",
      "type": "function"
    },
    {
      "inputs": [
        {
          "internalType": "uint256",
          "name": "_id",
          "type": "uint256"
        }
      ],
      "name": "withdraw",
      "outputs": [],
      "stateMutability": "nonpayable",
      "type": "function"
    },
    {
      "inputs": [],
      "name": "withdrawBlock",
      "outputs": [
        {
          "internalType": "uint256",
          "name": "",
          "type": "uint256"
        }
      ],
      "stateMutability": "view",
      "type": "function"
    },
    {
      "inputs": [
        {
          "internalType": "uint256",
          "name": "_amount",
          "type": "uint256"
        }
      ],
      "name": "withdrawRevenue",
      "outputs": [],
      "stateMutability": "nonpayable",
      "type": "function"
    },
    {
      "inputs": [
        {
          "internalType": "address",
          "name": "",
          "type": "address"
        },
        {
          "internalType": "uint256",
          "name": "",
          "type": "uint256"
        }
      ],
      "name": "withdrawals",
      "outputs": [
        {
          "internalType": "uint256",
          "name": "val",
          "type": "uint256"
        },
        {
          "internalType": "uint256",
          "name": "eraReq",
          "type": "uint256"
        },
        {
          "internalType": "uint256",
          "name": "lag",
          "type": "uint256"
        }
      ],
      "stateMutability": "view",
      "type": "function"
    }
  ],
  "bytecode": {
    "object": "0x60806040523480156200001157600080fd5b506200001c62000022565b620000e4565b600054610100900460ff16156200008f5760405162461bcd60e51b815260206004820152602760248201527f496e697469616c697a61626c653a20636f6e747261637420697320696e697469604482015266616c697a696e6760c81b606482015260840160405180910390fd5b60005460ff9081161015620000e2576000805460ff191660ff9081179091556040519081527f7f26b83ff96e1f2b6a682f133852f6798a09c465da95921460cefb38474024989060200160405180910390a15b565b6147b680620000f46000396000f3fe60806040526004361061045c5760003560e01c80636bbea7661161023f578063adc1b95611610139578063dead98b6116100b6578063eb4af0451161007a578063eb4af04514610d9d578063eb51a44c14610dbd578063f128f63114610df7578063f188768414610e0d578063fd5e6dd114610e2357600080fd5b8063dead98b614610d1f578063e09c195414610d27578063e63a391f1461096a578063e743362214610d5d578063ea3c281a14610d7d57600080fd5b8063c4e137e7116100fd578063c4e137e714610c79578063c71367b514610cb3578063d0b06f5d14610cc9578063d547741f14610cdf578063d6356ff414610cff57600080fd5b8063adc1b95614610bf7578063af66c36b14610c0d578063b1357bf914610c23578063bf2d9e0b14610c43578063c3b49d0414610c5957600080fd5b806391d14854116101c7578063a44bca8e1161018b578063a44bca8e14610b6a578063a4b1229714610b97578063a5ae02ac14610b9f578063ab48692914610bcc578063ad7a672f14610be157600080fd5b806391d1485414610ae0578063973628f614610b005780639d63778a14610b155780639ebea88c14610b35578063a217fddf14610b5557600080fd5b80637f9fd7911161020e5780637f9fd79114610a305780638bf3423714610a505780638c0f9aac14610a705780638d7e073514610aa05780638f15b41414610ac057600080fd5b80636bbea766146109b55780636f1e8533146109d55780636f5e448814610a0557806373e29b0d14610a1b57600080fd5b80632f2ff15d1161035b5780634421bd1e116102d857806359601ebc1161029c57806359601ebc1461093f57806359b40f41146109545780635f1554e31461096a5780635fa5e0191461097f57806366666aa91461099f57600080fd5b80634421bd1e1461089f578063472abf68146108c65780634d617451146108db5780635495ec81146108f157806354b057f91461090757600080fd5b80633a4b66f11161031f5780633a4b66f1146107f857806340bf8a8d14610800578063422b10771461082257806342debbab1461085d57806343352d611461087d57600080fd5b80632f2ff15d14610761578063331d437b1461078157806336568abe146107a3578063372500ab146107c3578063379607f5146107d857600080fd5b80631b2df850116103e9578063248a9ca3116103ad578063248a9ca31461069e5780632c5e56bf146106ce5780632e1a7d4d146106d65780632e4a4a17146106f65780632ea31bf61461071057600080fd5b80631b2df850146105f95780631bb5e2dc1461061b5780631dc007851461063b57806324025b19146106685780632466696e1461067e57600080fd5b8063078b0fb711610430578063078b0fb7146105125780630ceff204146105485780630f24ca7d1461056a57806312a12a061461059a57806316934fc4146105b057600080fd5b8062179fbd1461046157806301ffc9a71461048a5780630413f9a5146104ba57806305e2a217146104da575b600080fd5b34801561046d57600080fd5b5061047760b75481565b6040519081526020015b60405180910390f35b34801561049657600080fd5b506104aa6104a5366004614172565b610e43565b6040519015158152602001610481565b3480156104c657600080fd5b506104776104d5366004614049565b610e7a565b3480156104e657600080fd5b5060a6546104fa906001600160a01b031681565b6040516001600160a01b039091168152602001610481565b34801561051e57600080fd5b5061047761052d366004614049565b6001600160a01b0316600090815260b0602052604090205490565b34801561055457600080fd5b5061056861056336600461412f565b610f64565b005b34801561057657600080fd5b506104aa610585366004614049565b60aa6020526000908152604090205460ff1681565b3480156105a657600080fd5b5061047760a85481565b3480156105bc57600080fd5b506105e46105cb366004614049565b609e602052600090815260409020805460019091015482565b60408051928352602083019190915201610481565b34801561060557600080fd5b5061047760008051602061476183398151915281565b34801561062757600080fd5b506104fa61063636600461412f565b61101f565b34801561064757600080fd5b5061047761065636600461412f565b60ac6020526000908152604090205481565b34801561067457600080fd5b50610477609a5481565b34801561068a57600080fd5b50610568610699366004614049565b611049565b3480156106aa57600080fd5b506104776106b936600461412f565b60009081526065602052604090206001015490565b610568611134565b3480156106e257600080fd5b506105686106f136600461412f565b6111a3565b34801561070257600080fd5b5060b6546104aa9060ff1681565b34801561071c57600080fd5b5061074a61072b36600461412f565b60a1602052600090815260409020805460019091015460ff9091169082565b604080519215158352602083019190915201610481565b34801561076d57600080fd5b5061056861077c366004614147565b6113b0565b34801561078d57600080fd5b506107966113da565b60405161048191906144ea565b3480156107af57600080fd5b506105686107be366004614147565b611462565b3480156107cf57600080fd5b50610568611538565b3480156107e457600080fd5b506105686107f336600461412f565b6117ff565b61056861194a565b34801561080c57600080fd5b50610815611b48565b604051610481919061456b565b34801561082e57600080fd5b5061084261083d3660046140d4565b611bd6565b60408051938452602084019290925290820152606001610481565b34801561086957600080fd5b5061056861087836600461412f565b611c18565b34801561088957600080fd5b50610892611c67565b604051610481919061449d565b3480156108ab57600080fd5b506108b4600981565b60405160ff9091168152602001610481565b3480156108d257600080fd5b50610568611cc9565b3480156108e757600080fd5b5061047760bb5481565b3480156108fd57600080fd5b5061047760a95481565b34801561091357600080fd5b506104776109223660046140d4565b60ae60209081526000928352604080842090915290825290205481565b34801561094b57600080fd5b506108b4600181565b34801561096057600080fd5b506104fa61500181565b34801561097657600080fd5b506108b4600a81565b34801561098b57600080fd5b5061056861099a366004614063565b611d65565b3480156109ab57600080fd5b50610477609c5481565b3480156109c157600080fd5b50609d546104fa906001600160a01b031681565b3480156109e157600080fd5b506104aa6109f0366004614049565b60a76020526000908152604090205460ff1681565b348015610a1157600080fd5b50610477609b5481565b348015610a2757600080fd5b5061089261216f565b348015610a3c57600080fd5b50610568610a4b36600461412f565b6121cf565b348015610a5c57600080fd5b50610568610a6b366004614049565b612308565b348015610a7c57600080fd5b506104aa610a8b366004614049565b60b86020526000908152604090205460ff1681565b348015610aac57600080fd5b50610568610abb3660046140d4565b6124d0565b348015610acc57600080fd5b50610568610adb36600461419a565b612579565b348015610aec57600080fd5b506104aa610afb366004614147565b6128d3565b348015610b0c57600080fd5b506104776128fe565b348015610b2157600080fd5b50610568610b3036600461412f565b612978565b348015610b4157600080fd5b50610568610b50366004614234565b6129e7565b348015610b6157600080fd5b50610477600081565b348015610b7657600080fd5b50610477610b85366004614049565b60b06020526000908152604090205481565b610568612d9b565b348015610bab57600080fd5b50610477610bba366004614049565b60b96020526000908152604090205481565b348015610bd857600080fd5b50610815612e04565b348015610bed57600080fd5b5061047760995481565b348015610c0357600080fd5b5061047760b35481565b348015610c1957600080fd5b5061047760b55481565b348015610c2f57600080fd5b50610568610c3e36600461412f565b612e11565b348015610c4f57600080fd5b5061047760ad5481565b348015610c6557600080fd5b506104fa610c7436600461412f565b612eb8565b348015610c8557600080fd5b5061074a610c9436600461412f565b60a0602052600090815260409020805460019091015460ff9091169082565b348015610cbf57600080fd5b5061047760a35481565b348015610cd557600080fd5b5061047760a45481565b348015610ceb57600080fd5b50610568610cfa366004614147565b612ec8565b348015610d0b57600080fd5b50610477610d1a3660046140fd565b612f3a565b610568612f78565b348015610d3357600080fd5b506104fa610d42366004614049565b60b1602052600090815260409020546001600160a01b031681565b348015610d6957600080fd5b50610568610d783660046140d4565b612fe1565b348015610d8957600080fd5b50610568610d98366004614049565b6130a3565b348015610da957600080fd5b50610568610db836600461412f565b6132db565b348015610dc957600080fd5b5061074a610dd836600461412f565b60a2602052600090815260409020805460019091015460ff9091169082565b348015610e0357600080fd5b5061047760b25481565b348015610e1957600080fd5b5061047760b45481565b348015610e2f57600080fd5b506104fa610e3e36600461412f565b61334a565b60006001600160e01b03198216637965db0b60e01b1480610e7457506301ffc9a760e01b6001600160e01b03198316145b92915050565b60ba54600090610e8c57506000919050565b60005b60ba54811015610f5e5760ba8181548110610eba57634e487b7160e01b600052603260045260246000fd5b600091825260209091200154604051630419c05b60e11b81526001600160a01b0385811660048301529091169063083380b69060240160206040518083038186803b158015610f0857600080fd5b505afa158015610f1c573d6000803e3d6000fd5b505050506040513d601f19601f82011682018060405250810190610f40919061421c565b610f4a9083614611565b915080610f56816146ef565b915050610e8f565b50919050565b6000610f6f8161335a565b8160ad541015610fc65760405162461bcd60e51b815260206004820181905260248201527f4e6f7420656e6f7567682066756e647320696e20726576656e756520706f6f6c60448201526064015b60405180910390fd5b8160ad6000828254610fd8919061465c565b90915550610fe890503383613367565b6040518281527f98b903bbe6533c072b3ecce015ce47e06a565a976911ecf6539df9b1d283848c9060200160405180910390a15050565b60ab818154811061102f57600080fd5b6000918252602090912001546001600160a01b0316905081565b609d546001600160a01b031633146110735760405162461bcd60e51b8152600401610fbd906145b5565b6001600160a01b038116600090815260a7602052604090205460ff16156110cd5760405162461bcd60e51b815260206004820152600e60248201526d20b63932b0b23c9039ba30b5b2b960911b6044820152606401610fbd565b60a5805460018181019092557fb29a2b3b6f2ff1b765777a231725941da5072cc4fcc30ac4a2ce09706e8ddeff0180546001600160a01b039093166001600160a01b031990931683179055600091825260a76020526040909120805460ff19169091179055565b600034116111545760405162461bcd60e51b8152600401610fbd906145e4565b34609b60008282546111669190614611565b909155505060405134815233907fee0d01e87818bbffbc3622df874de00f6433cfbfaeb6cabe7ffbe358d5d28610906020015b60405180910390a2565b600060016111af6128fe565b6111b9919061465c565b90508060a454146111cd576111cd81613480565b336000908152609f602052604081208054849081106111fc57634e487b7160e01b600052603260045260246000fd5b6000918252602082206003909102018054909250906112196128fe565b90508260010154600014156112705760405162461bcd60e51b815260206004820152601a60248201527f5769746864726177616c20616c726561647920636c61696d65640000000000006044820152606401610fbd565b6002830154609a5461128390600a61463d565b61128d9190614611565b600184015461129d90600a61463d565b6112a883600a61463d565b6112b2919061465c565b10156113005760405162461bcd60e51b815260206004820152601760248201527f4e6f7420656e6f756768206572617320706173736564210000000000000000006044820152606401610fbd565b8160a354101561134b5760405162461bcd60e51b8152602060048201526016602482015275556e626f6e64656420706f6f6c20647261696e65642160501b6044820152606401610fbd565b8160a3600082825461135d919061465c565b9091555050600060018401556113733383613367565b60405182815233907f7084f5476618d8e60b11ef0d7d3f06914655adb8793e28ff7f018d4c76d505d5906020015b60405180910390a25050505050565b6000828152606560205260409020600101546113cb8161335a565b6113d5838361349f565b505050565b336000908152609f60209081526040808320805482518185028101850190935280835260609492939192909184015b828210156114595783829060005260206000209060030201604051806060016040529081600082015481526020016001820154815260200160028201548152505081526020019060010190611409565b50505050905090565b6001600160a01b03811633146114d25760405162461bcd60e51b815260206004820152602f60248201527f416363657373436f6e74726f6c3a2063616e206f6e6c792072656e6f756e636560448201526e103937b632b9903337b91039b2b63360891b6064820152608401610fbd565b8161152a5760405162461bcd60e51b815260206004820152602260248201527f4e6f7420616c6c6f77656420746f2072656e6f756e63652061646d696e20726f6044820152616c6560f01b6064820152608401610fbd565b6115348282613525565b5050565b6000805160206147618339815191526115508161335a565b600061155a6128fe565b90508060b35414156115ae5760405162461bcd60e51b815260206004820152601b60248201527f416c6c207265776172647320616c726561647920636c61696d656400000000006044820152606401610fbd565b600060b354826115be919061465c565b905060b7548111156115cf575060b7545b4760005b828110156117115760405163505cec5f60e11b81523060048201526150019063a0b9d8be90602401600060405180830381600087803b15801561161557600080fd5b505af1925050508015611626575060015b6116ae573d808015611654576040519150601f19603f3d011682016040523d82523d6000602084013e611659565b606091505b50806040516116689190614331565b604051809103902060b354600161167f9190614611565b6040517ffa856c428399288a6034f9c96d90c67dc025124c025cd92e228f9b795cd2ec8490600090a3506116ff565b600160b360008282546116c19190614611565b909155505060b35460405190815284907fe3ad3e6ae6e2f00623af1899e05e142e09f8af5b7f4e9b765d94646d6bb9b8929060200160405180910390a25b80611709816146ef565b9150506115d3565b5047818111156117f8576000600a611729848461465c565b6117339190614629565b905080611740848461465c565b61174a919061465c565b600086815260a160205260408120600101805490919061176b908490614611565b9091555050600085815260a16020526040812060010154609c805491929091611795908490614611565b90915550600a90506117a860098361463d565b6117b29190614629565b60ad60008282546117c39190614611565b90915550600a90506117d660018361463d565b6117e09190614629565b609b60008282546117f19190614611565b9091555050505b5050505050565b6000600161180b6128fe565b611815919061465c565b90508060a454146118295761182981613480565b81609c5410156118735760405162461bcd60e51b81526020600482015260156024820152745265776172647320706f6f6c20647261696e65642160581b6044820152606401610fbd565b33600090815260b060205260409020548211156118ca5760405162461bcd60e51b81526020600482015260156024820152743e204e6f7420656e6f75676820726577617264732160581b6044820152606401610fbd565b81609c60008282546118dc919061465c565b909155505033600090815260b060205260408120805484929061190090849061465c565b9091555061191090503383613367565b60405182815233907fd8138f8a3f377c5259ca548e70e4c2de94f129f5a11036a15b69513cba2b426a906020015b60405180910390a25050565b600060016119566128fe565b611960919061465c565b90508060a454146119745761197481613480565b60b45434908110156119c85760405162461bcd60e51b815260206004820152601760248201527f4e6f7420656e6f756768207374616b6520616d6f756e740000000000000000006044820152606401610fbd565b80609960008282546119da9190614611565b909155505033600090815260a7602052604090205460ff16611a535733600081815260a760205260408120805460ff1916600190811790915560a5805491820181559091527fb29a2b3b6f2ff1b765777a231725941da5072cc4fcc30ac4a2ce09706e8ddeff0180546001600160a01b03191690911790555b609d5460405163398a132960e01b81526001600160a01b039091169063398a132990611a8b9033908590609790609890600401614459565b600060405180830381600087803b158015611aa557600080fd5b505af1158015611ab9573d6000803e3d6000fd5b50506040516352b73e4160e01b815261500192506352b73e419150611ae4903090859060040161442e565b600060405180830381600087803b158015611afe57600080fd5b505af1158015611b12573d6000803e3d6000fd5b50506040518381523392507f9e71bc8eea02a63969f509818f2dafb9254532904319f9dbda79b67bd34a5f3d915060200161193e565b60988054611b55906146ba565b80601f0160208091040260200160405190810160405280929190818152602001828054611b81906146ba565b8015611bce5780601f10611ba357610100808354040283529160200191611bce565b820191906000526020600020905b815481529060010190602001808311611bb157829003601f168201915b505050505081565b609f6020528160005260406000208181548110611bf257600080fd5b600091825260209091206003909102018054600182015460029092015490935090915083565b600080516020614761833981519152611c308161335a565b60b782905560405182815233907f2858686d6b174bd2ec20e66464df68f4228dafa488e5a0b587356271ce26c5019060200161193e565b606060a5805480602002602001604051908101604052809291908181526020018280548015611cbf57602002820191906000526020600020905b81546001600160a01b03168152600190910190602001808311611ca1575b5050505050905090565b600080516020614761833981519152611ce18161335a565b611ceb6005611c18565b611cf5600f6121cf565b611d0768056bc75e2d631000006132db565b611d11600f612978565b60405163258d874360e11b815261500190634b1b0e8690611d3790600090600401614543565b600060405180830381600087803b158015611d5157600080fd5b505af11580156117f8573d6000803e3d6000fd5b600080516020614761833981519152611d7d8161335a565b6000611d876128fe565b90506001600160a01b038516611dd55760405162461bcd60e51b81526020600482015260136024820152725a65726f206164647265737320616c61726d2160681b6044820152606401610fbd565b60b2546001600160a01b038616600090815260af602090815260408083208584529091529020541115611e3f5760405162461bcd60e51b8152602060048201526012602482015271546f6f206d756368206572612073686f747360701b6044820152606401610fbd565b60b3548114611e905760405162461bcd60e51b815260206004820152601860248201527f4e6f7420616c6c207265776172647320726563656976656400000000000000006044820152606401610fbd565b6001600160a01b038516600090815260af60209081526040808320848452909152902054611fba576001600160a01b038516600090815260af6020526040812081611edc60018561465c565b8152602001908152602001600020805480602002602001604051908101604052809291908181526020018280548015611f3457602002820191906000526020600020905b815481526020019060010190808311611f20575b50505050509050600080825111611f4c576000611f85565b600083815260a16020526040902060010154670de0b6b3a764000090611f718461358c565b611f7b919061463d565b611f859190614629565b6001600160a01b038816600090815260b06020526040812080549293508392909190611fb2908490614611565b909155505050505b609d5460405163e1d9b41760e01b81526000916001600160a01b03169063e1d9b41790611fef908990899089906004016143c2565b60206040518083038186803b15801561200757600080fd5b505afa15801561201b573d6000803e3d6000fd5b505050506040513d601f19601f8201168201806040525081019061203f919061421c565b9050600061204c87610e7a565b609d54604051635f333f4b60e11b81529192506000916001600160a01b039091169063be667e9690612082908a9060040161456b565b60206040518083038186803b15801561209a57600080fd5b505afa1580156120ae573d6000803e3d6000fd5b505050506040513d601f19601f820116820180604052508101906120d2919061421c565b6001600160a01b038916600090815260ae602090815260408083208884529091528120549192509082906121068587614611565b612110919061465c565b61212290670de0b6b3a764000061463d565b61212c9190614629565b6001600160a01b03909916600090815260af6020908152604080832097835296815295812080546001810182559082529590209094019790975550505050505050565b606060ba805480602002602001604051908101604052809291908181526020018280548015611cbf576020028201919060005260206000209081546001600160a01b03168152600190910190602001808311611ca1575050505050905090565b6000805160206147618339815191526121e78161335a565b600082116122075760405162461bcd60e51b8152600401610fbd9061457e565b60bb548214156122595760405162461bcd60e51b815260206004820152601c60248201527f546865206e756d626572206d75737420626520646966666572656e74000000006044820152606401610fbd565b60ba548210156122d15760405162461bcd60e51b815260206004820152603760248201527f53686f756c642062652067726561746572207468616e2063757272656e74206c60448201527f656e677468206f6620706172746e6572732061727261790000000000000000006064820152608401610fbd565b60bb82905560405182815233907fb0a4129d3773d34ce3ce8e363f80ebff9237a497df96e7d4e480a732ae3bef749060200161193e565b6000805160206147618339815191526123208161335a565b6001600160a01b038216600090815260b8602052604090205460ff16156123795760405162461bcd60e51b815260206004820152600d60248201526c105b1c9958591e481859191959609a1b6044820152606401610fbd565b6001600160a01b0382166123c45760405162461bcd60e51b81526020600482015260126024820152715a65726f206164647265737320616c61726d60701b6044820152606401610fbd565b60bb5460ba5411156124115760405162461bcd60e51b815260206004820152601660248201527514185c9d1b995c9cc81b1a5b5a5d081c995858da195960521b6044820152606401610fbd565b6001600160a01b038216600081815260b860205260408120805460ff1916600190811790915560ba80548083018255928190527ff3b9eb9e163af2088b11de0a369fb583f58f9440e0e5c70fce0c59909ecece8a90920180546001600160a01b03191690931790925554612485919061465c565b6001600160a01b038316600081815260b96020526040808220939093559151909133917fe5c6766173b8057714bbaed719519b144829ac13446d5f68158218846e9651e69190a35050565b609d546001600160a01b031633146124fa5760405162461bcd60e51b8152600401610fbd906145b5565b6001600160a01b0382166125455760405162461bcd60e51b81526020600482015260126024820152715a65726f206164647265737320616c61726d60701b6044820152606401610fbd565b600061254f6128fe565b6001600160a01b03909316600090815260ae60209081526040808320958352949052929092205550565b600054610100900460ff16158080156125995750600054600160ff909116105b806125b35750303b1580156125b3575060005460ff166001145b6126165760405162461bcd60e51b815260206004820152602e60248201527f496e697469616c697a61626c653a20636f6e747261637420697320616c72656160448201526d191e481a5b9a5d1a585b1a5e995960921b6064820152608401610fbd565b6000805460ff191660011790558015612639576000805461ff0019166101001790555b6001600160a01b0383163b61269e5760405162461bcd60e51b815260206004820152602560248201527f5f6469737472416464722073686f756c6420626520636f6e7472616374206164604482015264647265737360d81b6064820152608401610fbd565b6001600160a01b0382163b6127015760405162461bcd60e51b8152602060048201526024808201527f5f646e74546f6b656e2073686f756c6420626520636f6e7472616374206164646044820152637265737360e01b6064820152608401610fbd565b600060016150016001600160a01b031663e608d80b6040518163ffffffff1660e01b815260040160206040518083038186803b15801561274057600080fd5b505afa158015612754573d6000803e3d6000fd5b505050506040513d601f19601f82011682018060405250810190612778919061421c565b612782919061465c565b905061278f60003361349f565b6127a76000805160206147618339815191523361349f565b6150016001600160a01b031663db62b2016040518163ffffffff1660e01b815260040160206040518083038186803b1580156127e257600080fd5b505afa1580156127f6573d6000803e3d6000fd5b505050506040513d601f19601f8201168201806040525081019061281a919061421c565b609a558551612830906098906020890190613f0d565b508451612844906097906020880190613f0d565b50609d80546001600160a01b038087166001600160a01b03199283161790925560a680549286169290911691909117905560a481905560a881905560a981905560b35580156117f8576000805461ff0019169055604051600181527f7f26b83ff96e1f2b6a682f133852f6798a09c465da95921460cefb38474024989060200160405180910390a15050505050565b60009182526065602090815260408084206001600160a01b0393909316845291905290205460ff1690565b60006150016001600160a01b031663e608d80b6040518163ffffffff1660e01b815260040160206040518083038186803b15801561293b57600080fd5b505afa15801561294f573d6000803e3d6000fd5b505050506040513d601f19601f82011682018060405250810190612973919061421c565b905090565b6000805160206147618339815191526129908161335a565b600082116129b05760405162461bcd60e51b8152600401610fbd9061457e565b60b282905560405182815233907f6b1d2e3b14582a02317824a1d79804c2b995a026452d286a8302878818ba38859060200161193e565b600060016129f36128fe565b6129fd919061465c565b90508060a45414612a1157612a1181613480565b609d5460405163e1d9b41760e01b81526000916001600160a01b03169063e1d9b41790612a489033906097906098906004016143f8565b60206040518083038186803b158015612a6057600080fd5b505afa158015612a74573d6000803e3d6000fd5b505050506040513d601f19601f82011682018060405250810190612a98919061421c565b905083811015612ae05760405162461bcd60e51b81526020600482015260136024820152723e204e6f7420656e6f756768206e415354522160681b6044820152606401610fbd565b60008411612b225760405162461bcd60e51b815260206004820152600f60248201526e496e76616c696420616d6f756e742160881b6044820152606401610fbd565b6000612b2c6128fe565b90508460b56000828254612b409190614611565b925050819055508460996000828254612b59919061465c565b9091555050609d54604051632937555f60e21b81526001600160a01b039091169063a4dd557c90612b969033908990609790609890600401614459565b600060405180830381600087803b158015612bb057600080fd5b505af1158015612bc4573d6000803e3d6000fd5b505050508315612c7a5784609b541015612c205760405162461bcd60e51b815260206004820152601760248201527f556e7374616b696e6720706f6f6c20647261696e6564210000000000000000006044820152606401610fbd565b6000612c2d606487614629565b90508060ad6000828254612c419190614611565b9250508190555085609b6000828254612c5a919061465c565b90915550612c749050612c6d828861465c565b3390613367565b50612d62565b6000612c8782600a61463d565b6004609a54600a612c98919061463d565b612ca29190614629565b60a954612cb090600a61463d565b612cba9190614611565b1115612d0b57612ccb82600a61463d565b6004609a54600a612cdc919061463d565b612ce69190614629565b60a954612cf490600a61463d565b612cfe9190614611565b612d08919061465c565b90505b336000908152609f6020908152604080832081516060810183528a81528084018781529281019586528154600181810184559286529390942093516003909302909301918255519181019190915590516002909101555b60408051868152851515602082015233917f4416ca74b4c9dd8d6070d91c267a6cf53734c0f343ced0ad02471ccb5417037e91016113a1565b60003411612dbb5760405162461bcd60e51b8152600401610fbd906145e4565b34609c6000828254612dcd9190614611565b909155505060405134815233907fd3c0bbd72a5329417a029beb8fd4749a5b24baccd598c7377f391354af28b8ba90602001611199565b60978054611b55906146ba565b600080516020614761833981519152612e298161335a565b60a45482118015612e405750612e3d6128fe565b82105b612e7e5760405162461bcd60e51b815260206004820152600f60248201526e57726f6e67206572612072616e676560881b6044820152606401610fbd565b612e8782613480565b604051829033907fb3a1bc35f2ae5834830c888981da2a3da5e47f57fc47da50ca9e18d31a083d0490600090a35050565b60ba818154811061102f57600080fd5b600082815260656020526040902060010154612ee38161335a565b82612f305760405162461bcd60e51b815260206004820181905260248201527f4e6f7420616c6c6f77656420746f207265766f6b652061646d696e20726f6c656044820152606401610fbd565b6113d58383613525565b60af6020528260005260406000206020528160005260406000208181548110612f6257600080fd5b9060005260206000200160009250925050505481565b60003411612f985760405162461bcd60e51b8152600401610fbd906145e4565b3460a36000828254612faa9190614611565b909155505060405134815233907f9970a8d9043be1d3ffa409c084adae92ffb4a93785443244d6dea36f280f6eab90602001611199565b609d546001600160a01b0316331461300b5760405162461bcd60e51b8152600401610fbd906145b5565b6001600160a01b0382166130575760405162461bcd60e51b81526020600482015260136024820152725a65726f206164647265737320616c61726d2160681b6044820152606401610fbd565b60006130616128fe565b6001600160a01b038416600090815260ae60209081526040808320848452909152812080549293508492909190613099908490614611565b9091555050505050565b6000805160206147618339815191526130bb8161335a565b6001600160a01b0382163b61311d5760405162461bcd60e51b815260206004820152602260248201527f506172746e65722073686f756c6420626520636f6e7472616374206164647265604482015261737360f01b6064820152608401610fbd565b6001600160a01b038216600090815260b8602052604090205460ff166131855760405162461bcd60e51b815260206004820152601f60248201527f5468697320706172746e6572206973206e6f7420696e20746865206c697374006044820152606401610fbd565b6001600160a01b038216600090815260b860205260408120805460ff1916905560ba80546131b59060019061465c565b815481106131d357634e487b7160e01b600052603260045260246000fd5b60009182526020808320909101546001600160a01b03868116845260b990925260409092205460ba80549290931693509183918390811061322457634e487b7160e01b600052603260045260246000fd5b600091825260208083209190910180546001600160a01b0319166001600160a01b03948516179055918416815260b99091526040902081905560ba80548061327c57634e487b7160e01b600052603160045260246000fd5b600082815260208120820160001990810180546001600160a01b03191690559091019091556040516001600160a01b0386169133917f8d573fbd50bd1d4629545c2e778795815087428339f8b295bc07a8df1a964c359190a350505050565b6000805160206147618339815191526132f38161335a565b600082116133135760405162461bcd60e51b8152600401610fbd9061457e565b60b482905560405182815233907f411d99b33932ad14363af29dd9987548b8e4a679725aecf1bf262f406ca165cd9060200161193e565b60a5818154811061102f57600080fd5b61336481336138d3565b50565b804710156133b75760405162461bcd60e51b815260206004820152601d60248201527f416464726573733a20696e73756666696369656e742062616c616e63650000006044820152606401610fbd565b6000826001600160a01b03168260405160006040518083038185875af1925050503d8060008114613404576040519150601f19603f3d011682016040523d82523d6000602084013e613409565b606091505b50509050806113d55760405162461bcd60e51b815260206004820152603a60248201527f416464726573733a20756e61626c6520746f2073656e642076616c75652c207260448201527f6563697069656e74206d617920686176652072657665727465640000000000006064820152608401610fbd565b61348981613937565b61349281613a4b565b61349a613bb2565b60a455565b6134a982826128d3565b6115345760008281526065602090815260408083206001600160a01b03851684529091529020805460ff191660011790556134e13390565b6001600160a01b0316816001600160a01b0316837f2f8788117e7eff1d82e926ec794901d17c78024a50270940304540a733656f0d60405160405180910390a45050565b61352f82826128d3565b156115345760008281526065602090815260408083206001600160a01b0385168085529252808320805460ff1916905551339285917ff6391f5c32d9c69d2a47ea670b442974b53935d1edc7fd64eb21e047a839171b9190a45050565b8051600090829082805b6135a160018461465c565b8110156137f75760005b60016135b7838661465c565b6135c1919061465c565b81101561370257846135d4826001614611565b815181106135f257634e487b7160e01b600052603260045260246000fd5b602002602001015185828151811061361a57634e487b7160e01b600052603260045260246000fd5b602002602001015111156136f057600192506000856136398386614611565b8151811061365757634e487b7160e01b600052603260045260246000fd5b6020026020010151905085828151811061368157634e487b7160e01b600052603260045260246000fd5b6020026020010151868360016136979190614611565b815181106136b557634e487b7160e01b600052603260045260246000fd5b602002602001018181525050808683815181106136e257634e487b7160e01b600052603260045260246000fd5b602002602001018181525050505b806136fa816146ef565b9150506135ab565b50816137e55761371360028461470a565b6137a85760028460016137268387614629565b613730919061465c565b8151811061374e57634e487b7160e01b600052603260045260246000fd5b6020026020010151856002866137649190614629565b8151811061378257634e487b7160e01b600052603260045260246000fd5b60200260200101516137949190614611565b61379e9190614629565b9695505050505050565b836137b4600285614629565b815181106137d257634e487b7160e01b600052603260045260246000fd5b6020026020010151945050505050919050565b806137ef816146ef565b915050613596565b5061380360028361470a565b6138975760028360016138168386614629565b613820919061465c565b8151811061383e57634e487b7160e01b600052603260045260246000fd5b6020026020010151846002856138549190614629565b8151811061387257634e487b7160e01b600052603260045260246000fd5b60200260200101516138849190614611565b61388e9190614629565b95945050505050565b826138a3600284614629565b815181106138c157634e487b7160e01b600052603260045260246000fd5b60200260200101519350505050919050565b6138dd82826128d3565b611534576138f5816001600160a01b03166014613d24565b613900836020613d24565b60405160200161391192919061434d565b60408051601f198184030181529082905262461bcd60e51b8252610fbd9160040161456b565b60004790506150016001600160a01b03166377a0fe026040518163ffffffff1660e01b8152600401600060405180830381600087803b15801561397957600080fd5b505af192505050801561398a575060015b613a04573d8080156139b8576040519150601f19603f3d011682016040523d82523d6000602084013e6139bd565b606091505b50806040516139cc9190614331565b6040519081900381209084907ff031b94d40b16f5c2b8213e25ea0f640687fa24e99f6a0ef56cdd46762434a2f90600090a350613a2f565b60405182907e973a60d81248412b3530a2ff12c475667dc3c0ece650fb361c044aa240565b90600090a25b47613a3a828261465c565b60a360008282546130999190614611565b600060a4546001613a5c9190614611565b90505b81811161153457600081815260a1602052604090206001015415613baa57604051631b70ba6560e01b815261500190631b70ba6590613aa4903090869060040161442e565b600060405180830381600087803b158015613abe57600080fd5b505af1925050508015613acf575060015b613b59573d808015613afd576040519150601f19603f3d011682016040523d82523d6000602084013e613b02565b606091505b5080604051613b119190614331565b60408051918290038220600085815260a160205291822060010154909285927fd498dea2d0c05beb55c31ed0854ee53e1cae52b3032855d37a0e7cc1af9a275491a450613baa565b817f8edc62a6f5acf99d827b9b0b872df042f563c48186df5a4d22e9656a55aacc9460a1600084815260200190815260200160002060010154604051613ba191815260200190565b60405180910390a25b600101613a5f565b6000613bbc6128fe565b90506004609a54600a613bcf919061463d565b613bd99190614629565b60a954613be790600a61463d565b613bf19190614611565b613bfc82600a61463d565b1015613c055750565b60b554156133645760b5546040516363c20ee960e11b81526150019163c7841dd291613c3591309160040161442e565b600060405180830381600087803b158015613c4f57600080fd5b505af1925050508015613c60575060015b613cde573d808015613c8e576040519150601f19603f3d011682016040523d82523d6000602084013e613c93565b606091505b5080604051613ca29190614331565b60405180910390208260b5547f832c31b2d0ce0c03d09e4e17ccd7312693af36ddd41c197ed1ed6c6dd58cb2ed60405160405180910390a45050565b807fd112be63e7fceb2dddc1fcf8ae6159d873af98be4505daee865e08f2aeae802d60b554604051613d1291815260200190565b60405180910390a2600060b55560a955565b60606000613d3383600261463d565b613d3e906002614611565b67ffffffffffffffff811115613d6457634e487b7160e01b600052604160045260246000fd5b6040519080825280601f01601f191660200182016040528015613d8e576020820181803683370190505b509050600360fc1b81600081518110613db757634e487b7160e01b600052603260045260246000fd5b60200101906001600160f81b031916908160001a905350600f60fb1b81600181518110613df457634e487b7160e01b600052603260045260246000fd5b60200101906001600160f81b031916908160001a9053506000613e1884600261463d565b613e23906001614611565b90505b6001811115613eb7576f181899199a1a9b1b9c1cb0b131b232b360811b85600f1660108110613e6557634e487b7160e01b600052603260045260246000fd5b1a60f81b828281518110613e8957634e487b7160e01b600052603260045260246000fd5b60200101906001600160f81b031916908160001a90535060049490941c93613eb0816146a3565b9050613e26565b508315613f065760405162461bcd60e51b815260206004820181905260248201527f537472696e67733a20686578206c656e67746820696e73756666696369656e746044820152606401610fbd565b9392505050565b828054613f19906146ba565b90600052602060002090601f016020900481019282613f3b5760008555613f81565b82601f10613f5457805160ff1916838001178555613f81565b82800160010185558215613f81579182015b82811115613f81578251825591602001919060010190613f66565b50613f8d929150613f91565b5090565b5b80821115613f8d5760008155600101613f92565b80356001600160a01b0381168114613fbd57600080fd5b919050565b600082601f830112613fd2578081fd5b813567ffffffffffffffff80821115613fed57613fed61474a565b604051601f8301601f19908116603f011681019082821181831017156140155761401561474a565b8160405283815286602085880101111561402d578485fd5b8360208701602083013792830160200193909352509392505050565b60006020828403121561405a578081fd5b613f0682613fa6565b600080600060608486031215614077578182fd5b61408084613fa6565b9250602084013567ffffffffffffffff8082111561409c578384fd5b6140a887838801613fc2565b935060408601359150808211156140bd578283fd5b506140ca86828701613fc2565b9150509250925092565b600080604083850312156140e6578182fd5b6140ef83613fa6565b946020939093013593505050565b600080600060608486031215614111578283fd5b61411a84613fa6565b95602085013595506040909401359392505050565b600060208284031215614140578081fd5b5035919050565b60008060408385031215614159578182fd5b8235915061416960208401613fa6565b90509250929050565b600060208284031215614183578081fd5b81356001600160e01b031981168114613f06578182fd5b600080600080608085870312156141af578081fd5b843567ffffffffffffffff808211156141c6578283fd5b6141d288838901613fc2565b955060208701359150808211156141e7578283fd5b506141f487828801613fc2565b93505061420360408601613fa6565b915061421160608601613fa6565b905092959194509250565b60006020828403121561422d578081fd5b5051919050565b60008060408385031215614246578182fd5b823591506020830135801515811461425c578182fd5b809150509250929050565b6000815180845261427f816020860160208601614673565b601f01601f19169290920160200192915050565b8054600090600181811c90808316806142ad57607f831692505b60208084108214156142cd57634e487b7160e01b86526022600452602486fd5b838852602088018280156142e857600181146142f957614324565b60ff19871682528282019750614324565b60008981526020902060005b8781101561431e57815484820152908601908401614305565b83019850505b5050505050505092915050565b60008251614343818460208701614673565b9190910192915050565b7f416363657373436f6e74726f6c3a206163636f756e7420000000000000000000815260008351614385816017850160208801614673565b7001034b99036b4b9b9b4b733903937b6329607d1b60179184019182015283516143b6816028840160208801614673565b01602801949350505050565b6001600160a01b03841681526060602082018190526000906143e690830185614267565b828103604084015261379e8185614267565b6001600160a01b038416815260606020820181905260009061441c90830185614293565b828103604084015261379e8185614293565b6001600160a01b039290921682526fffffffffffffffffffffffffffffffff16602082015260400190565b60018060a01b03851681528360208201526080604082015260006144806080830185614293565b82810360608401526144928185614293565b979650505050505050565b6020808252825182820181905260009190848201906040850190845b818110156144de5783516001600160a01b0316835292840192918401916001016144b9565b50909695505050505050565b602080825282518282018190526000919060409081850190868401855b828110156145365781518051855286810151878601528501518585015260609093019290850190600101614507565b5091979650505050505050565b602081016002831061456557634e487b7160e01b600052602160045260246000fd5b91905290565b602081526000613f066020830184614267565b6020808252601b908201527f53686f756c642062652067726561746572207468616e207a65726f0000000000604082015260600190565b6020808252601590820152744f6e6c7920666f72206469737472696275746f722160581b604082015260600190565b60208082526013908201527250726f7669646520736f6d652076616c75652160681b604082015260600190565b600082198211156146245761462461471e565b500190565b60008261463857614638614734565b500490565b60008160001904831182151516156146575761465761471e565b500290565b60008282101561466e5761466e61471e565b500390565b60005b8381101561468e578181015183820152602001614676565b8381111561469d576000848401525b50505050565b6000816146b2576146b261471e565b506000190190565b600181811c908216806146ce57607f821691505b60208210811415610f5e57634e487b7160e01b600052602260045260246000fd5b60006000198214156147035761470361471e565b5060010190565b60008261471957614719614734565b500690565b634e487b7160e01b600052601160045260246000fd5b634e487b7160e01b600052601260045260246000fd5b634e487b7160e01b600052604160045260246000fdfeaf290d8680820aad922855f39b306097b20e28774d6c1ad35a20325630c3a02ca26469706673582212204902c85f90c8bcd86b33f06ff6787d1fa856eb80fb621d1944cb41b7a84cfa7a64736f6c63430008040033",
    "linkReferences": {}
  },
  "methodIdentifiers": {
    "DAPPS_STAKING()": "59b40f41",
    "DEFAULT_ADMIN_ROLE()": "a217fddf",
    "DNTname()": "40bf8a8d",
    "FEE_PRECISION()": "e63a391f",
    "MANAGEMENT_FEE()": "5f1554e3",
    "MANAGER()": "1b2df850",
    "REVENUE_FEE()": "4421bd1e",
    "UNSTAKING_FEE()": "59601ebc",
    "addPartner(address)": "8bf34237",
    "addStaker(address)": "2466696e",
    "addToBuffer(address,uint256)": "e7433622",
    "buffer(address,uint256)": "54b057f9",
    "claim(uint256)": "379607f5",
    "claimRewards()": "372500ab",
    "claimingTxLimit()": "00179fbd",
    "currentEra()": "973628f6",
    "distr()": "6bbea766",
    "dntToken()": "05e2a217",
    "eraRevenue(uint256)": "eb51a44c",
    "eraRewards(uint256)": "1dc00785",
    "eraShot(address,string,string)": "5fa5e019",
    "eraShotsLimit()": "f128f631",
    "eraStakerReward(uint256)": "2ea31bf6",
    "eraUnstaked(uint256)": "c4e137e7",
    "fillRewardPool()": "a4b12297",
    "fillUnbonded()": "dead98b6",
    "fillUnstaking()": "2c5e56bf",
    "getPartners()": "73e29b0d",
    "getRoleAdmin(bytes32)": "248a9ca3",
    "getStakers()": "43352d61",
    "getUserLpTokens(address)": "0413f9a5",
    "getUserRewards(address)": "078b0fb7",
    "getUserWithdrawals()": "331d437b",
    "grantRole(bytes32,address)": "2f2ff15d",
    "hasRole(bytes32,address)": "91d14854",
    "initialize(string,string,address,address)": "8f15b414",
    "initialize2()": "472abf68",
    "isLpToken(address)": "0f24ca7d",
    "isPartner(address)": "8c0f9aac",
    "isStaker(address)": "6f1e8533",
    "isUnstakes()": "2e4a4a17",
    "lastClaimed()": "adc1b956",
    "lastStaked()": "12a12a06",
    "lastUnstaked()": "5495ec81",
    "lastUpdated()": "d0b06f5d",
    "lpHandlers(address)": "e09c1954",
    "lpTokens(uint256)": "1bb5e2dc",
    "minStakeAmount()": "f1887684",
    "partnerIdx(address)": "a5ae02ac",
    "partners(uint256)": "c3b49d04",
    "partnersLimit()": "4d617451",
    "removePartner(address)": "ea3c281a",
    "renounceRole(bytes32,address)": "36568abe",
    "revokeRole(bytes32,address)": "d547741f",
    "rewardPool()": "66666aa9",
    "setBuffer(address,uint256)": "8d7e0735",
    "setClaimingTxLimit(uint256)": "42debbab",
    "setEraShotsLimit(uint256)": "9d63778a",
    "setMinStakeAmount(uint256)": "eb4af045",
    "setPartnersLimit(uint256)": "7f9fd791",
    "stake()": "3a4b66f1",
    "stakers(uint256)": "fd5e6dd1",
    "stakes(address)": "16934fc4",
    "sum2unstake()": "af66c36b",
    "supportsInterface(bytes4)": "01ffc9a7",
    "sync(uint256)": "b1357bf9",
    "totalBalance()": "ad7a672f",
    "totalRevenue()": "bf2d9e0b",
    "totalUserRewards(address)": "a44bca8e",
    "unbondedPool()": "c71367b5",
    "unstake(uint256,bool)": "9ebea88c",
    "unstakingPool()": "6f5e4488",
    "usersShotsPerEra(address,uint256,uint256)": "d6356ff4",
    "utilName()": "ab486929",
    "withdraw(uint256)": "2e1a7d4d",
    "withdrawBlock()": "24025b19",
    "withdrawRevenue(uint256)": "0ceff204",
    "withdrawals(address,uint256)": "422b1077"
  },
  "id": 2
}