{
  "abi": [
    {
      "inputs": [
        {
          "internalType": "address",
          "name": "_lendingPool",
          "type": "address"
        }
      ],
      "stateMutability": "nonpayable",
      "type": "constructor"
    },
    {
      "inputs": [],
      "name": "getLendingPool",
      "outputs": [
        {
          "internalType": "address",
          "name": "",
          "type": "address"
        }
      ],
      "stateMutability": "view",
      "type": "function"
    },
    {
      "inputs": [],
      "name": "lendingPool",
      "outputs": [
        {
          "internalType": "address",
          "name": "",
          "type": "address"
        }
      ],
      "stateMutability": "view",
      "type": "function"
    }
  ],
  "bytecode": {
    "object": "0x608060405234801561001057600080fd5b5060405161013838038061013883398101604081905261002f91610054565b600080546001600160a01b0319166001600160a01b0392909216919091179055610082565b600060208284031215610065578081fd5b81516001600160a01b038116811461007b578182fd5b9392505050565b60a8806100906000396000f3fe6080604052348015600f57600080fd5b506004361060325760003560e01c80630261bf8b146037578063a59a9973146060575b600080fd5b6000546001600160a01b03165b6040516001600160a01b03909116815260200160405180910390f35b6000546044906001600160a01b03168156fea2646970667358221220695bec5fdc91f9857f449610a99b4cd217643960eec1f9db554b3bfdbb44acdc64736f6c63430008040033",
    "linkReferences": {}
  },
  "methodIdentifiers": {
    "getLendingPool()": "0261bf8b",
    "lendingPool()": "a59a9973"
  },
  "id": 136
}