{
  "abi": [
    {
      "inputs": [
        {
          "internalType": "address",
          "name": "nastr",
          "type": "address"
        },
        {
          "internalType": "address",
          "name": "busdAddr",
          "type": "address"
        },
        {
          "internalType": "address",
          "name": "dot",
          "type": "address"
        },
        {
          "internalType": "address",
          "name": "dai",
          "type": "address"
        },
        {
          "internalType": "address",
          "name": "usdc",
          "type": "address"
        },
        {
          "internalType": "address",
          "name": "usdt",
          "type": "address"
        }
      ],
      "stateMutability": "nonpayable",
      "type": "constructor"
    },
    {
      "inputs": [
        {
          "internalType": "address",
          "name": "asset",
          "type": "address"
        }
      ],
      "name": "getAssetPrice",
      "outputs": [
        {
          "internalType": "uint256",
          "name": "",
          "type": "uint256"
        }
      ],
      "stateMutability": "view",
      "type": "function"
    },
    {
      "inputs": [
        {
          "internalType": "address",
          "name": "",
          "type": "address"
        }
      ],
      "name": "prices",
      "outputs": [
        {
          "internalType": "uint256",
          "name": "",
          "type": "uint256"
        }
      ],
      "stateMutability": "view",
      "type": "function"
    },
    {
      "inputs": [
        {
          "internalType": "address",
          "name": "assetAddr",
          "type": "address"
        },
        {
          "internalType": "uint256",
          "name": "price",
          "type": "uint256"
        }
      ],
      "name": "setAssetPrice",
      "outputs": [],
      "stateMutability": "nonpayable",
      "type": "function"
    },
    {
      "inputs": [
        {
          "internalType": "address",
          "name": "nastr",
          "type": "address"
        },
        {
          "internalType": "address",
          "name": "busdAddr",
          "type": "address"
        },
        {
          "internalType": "address",
          "name": "dot",
          "type": "address"
        },
        {
          "internalType": "address",
          "name": "dai",
          "type": "address"
        },
        {
          "internalType": "address",
          "name": "usdc",
          "type": "address"
        },
        {
          "internalType": "address",
          "name": "usdt",
          "type": "address"
        }
      ],
      "name": "setInitPrices",
      "outputs": [],
      "stateMutability": "nonpayable",
      "type": "function"
    }
  ],
  "bytecode": {
    "object": "0x608060405234801561001057600080fd5b5060405161038d38038061038d83398101604081905261002f916100b2565b6001600160a01b0395861660009081526020819052604080822062517bfe905595871681528581206305f5e100908190559487168152858120631fe86bdc905592861683528483206305f50ddf905590851682528382208390559093168352912055610125565b80516001600160a01b03811681146100ad57600080fd5b919050565b60008060008060008060c087890312156100ca578182fd5b6100d387610096565b95506100e160208801610096565b94506100ef60408801610096565b93506100fd60608801610096565b925061010b60808801610096565b915061011960a08801610096565b90509295509295509295565b610259806101346000396000f3fe608060405234801561001057600080fd5b506004361061004c5760003560e01c806351323f721461005157806354fc65ab1461007d578063b3596f07146100ef578063cfed246b1461012a575b600080fd5b61007b61005f3660046101fa565b6001600160a01b03909116600090815260208190526040902055565b005b61007b61008b366004610187565b6001600160a01b0395861660009081526020819052604080822062517bfe905595871681528581206305f5e100908190559487168152858120631fe86bdc905592861683528483206305f50ddf905590851682528382208390559093168352912055565b6101186100fd366004610166565b6001600160a01b031660009081526020819052604090205490565b60405190815260200160405180910390f35b610118610138366004610166565b60006020819052908152604090205481565b80356001600160a01b038116811461016157600080fd5b919050565b600060208284031215610177578081fd5b6101808261014a565b9392505050565b60008060008060008060c0878903121561019f578182fd5b6101a88761014a565b95506101b66020880161014a565b94506101c46040880161014a565b93506101d26060880161014a565b92506101e06080880161014a565b91506101ee60a0880161014a565b90509295509295509295565b6000806040838503121561020c578182fd5b6102158361014a565b94602093909301359350505056fea264697066735822122026a7191e530cef4f32ae9c9f24665059f646d298d221f1d83bb2d5c5ee790b5464736f6c63430008040033",
    "linkReferences": {}
  },
  "methodIdentifiers": {
    "getAssetPrice(address)": "b3596f07",
    "prices(address)": "cfed246b",
    "setAssetPrice(address,uint256)": "51323f72",
    "setInitPrices(address,address,address,address,address,address)": "54fc65ab"
  },
  "id": 135
}