{
  "abi": [
    {
      "anonymous": false,
      "inputs": [
        {
          "indexed": true,
          "internalType": "address",
          "name": "user",
          "type": "address"
        },
        {
          "indexed": true,
          "internalType": "string",
          "name": "refCode",
          "type": "string"
        }
      ],
      "name": "BecomeReferrer",
      "type": "event"
    },
    {
      "anonymous": false,
      "inputs": [
        {
          "indexed": true,
          "internalType": "uint256",
          "name": "era",
          "type": "uint256"
        },
        {
          "indexed": false,
          "internalType": "uint256",
          "name": "amount",
          "type": "uint256"
        }
      ],
      "name": "ClaimDappsStakingRewards",
      "type": "event"
    },
    {
      "anonymous": false,
      "inputs": [
        {
          "indexed": false,
          "internalType": "address",
          "name": "user",
          "type": "address"
        },
        {
          "indexed": false,
          "internalType": "uint256",
          "name": "rewardsToClaim",
          "type": "uint256"
        }
      ],
      "name": "ClaimRewards",
      "type": "event"
    },
    {
      "anonymous": false,
      "inputs": [
        {
          "indexed": true,
          "internalType": "uint256",
          "name": "era",
          "type": "uint256"
        },
        {
          "indexed": true,
          "internalType": "bytes",
          "name": "reason",
          "type": "bytes"
        }
      ],
      "name": "ClaimStakerError",
      "type": "event"
    },
    {
      "anonymous": false,
      "inputs": [
        {
          "indexed": true,
          "internalType": "uint256",
          "name": "era",
          "type": "uint256"
        },
        {
          "indexed": false,
          "internalType": "uint256",
          "name": "lastClaimed",
          "type": "uint256"
        }
      ],
      "name": "ClaimStakerSuccess",
      "type": "event"
    },
    {
      "anonymous": false,
      "inputs": [
        {
          "indexed": false,
          "internalType": "uint256",
          "name": "closeTime",
          "type": "uint256"
        }
      ],
      "name": "CloseCrowdloanAndStartVesting",
      "type": "event"
    },
    {
      "anonymous": false,
      "inputs": [
        {
          "indexed": true,
          "internalType": "address",
          "name": "who",
          "type": "address"
        },
        {
          "indexed": true,
          "internalType": "uint256",
          "name": "era",
          "type": "uint256"
        },
        {
          "indexed": true,
          "internalType": "uint256",
          "name": "sumToUnstake",
          "type": "uint256"
        }
      ],
      "name": "GlobalUnstake",
      "type": "event"
    },
    {
      "anonymous": false,
      "inputs": [
        {
          "indexed": true,
          "internalType": "address",
          "name": "who",
          "type": "address"
        },
        {
          "indexed": true,
          "internalType": "uint256",
          "name": "era",
          "type": "uint256"
        },
        {
          "indexed": false,
          "internalType": "uint256",
          "name": "amount",
          "type": "uint256"
        }
      ],
      "name": "GlobalWithdraw",
      "type": "event"
    },
    {
      "anonymous": false,
      "inputs": [
        {
          "indexed": false,
          "internalType": "uint8",
          "name": "version",
          "type": "uint8"
        }
      ],
      "name": "Initialized",
      "type": "event"
    },
    {
      "anonymous": false,
      "inputs": [
        {
          "indexed": true,
          "internalType": "address",
          "name": "previousOwner",
          "type": "address"
        },
        {
          "indexed": true,
          "internalType": "address",
          "name": "newOwner",
          "type": "address"
        }
      ],
      "name": "OwnershipTransferred",
      "type": "event"
    },
    {
      "anonymous": false,
      "inputs": [
        {
          "indexed": true,
          "internalType": "address",
          "name": "sender",
          "type": "address"
        },
        {
          "indexed": true,
          "internalType": "uint256",
          "name": "val",
          "type": "uint256"
        }
      ],
      "name": "SetClaimingTxLimit",
      "type": "event"
    },
    {
      "anonymous": false,
      "inputs": [
        {
          "indexed": true,
          "internalType": "address",
          "name": "caller",
          "type": "address"
        }
      ],
      "name": "SetPaddsStakingRewardsDest",
      "type": "event"
    },
    {
      "anonymous": false,
      "inputs": [
        {
          "indexed": true,
          "internalType": "address",
          "name": "user",
          "type": "address"
        },
        {
          "indexed": false,
          "internalType": "uint256",
          "name": "amount",
          "type": "uint256"
        },
        {
          "indexed": true,
          "internalType": "string",
          "name": "refCode",
          "type": "string"
        }
      ],
      "name": "Stake",
      "type": "event"
    },
    {
      "anonymous": false,
      "inputs": [
        {
          "indexed": true,
          "internalType": "uint256",
          "name": "sum2unstake",
          "type": "uint256"
        },
        {
          "indexed": true,
          "internalType": "uint256",
          "name": "era",
          "type": "uint256"
        },
        {
          "indexed": true,
          "internalType": "bytes",
          "name": "reason",
          "type": "bytes"
        }
      ],
      "name": "UnbondAndUnstakeError",
      "type": "event"
    },
    {
      "anonymous": false,
      "inputs": [
        {
          "indexed": true,
          "internalType": "uint256",
          "name": "era",
          "type": "uint256"
        },
        {
          "indexed": false,
          "internalType": "uint256",
          "name": "sum2unstake",
          "type": "uint256"
        }
      ],
      "name": "UnbondAndUnstakeSuccess",
      "type": "event"
    },
    {
      "anonymous": false,
      "inputs": [
        {
          "indexed": true,
          "internalType": "address",
          "name": "user",
          "type": "address"
        },
        {
          "indexed": true,
          "internalType": "uint256",
          "name": "amount",
          "type": "uint256"
        },
        {
          "indexed": true,
          "internalType": "uint256",
          "name": "era",
          "type": "uint256"
        }
      ],
      "name": "Unstake",
      "type": "event"
    },
    {
      "anonymous": false,
      "inputs": [
        {
          "indexed": true,
          "internalType": "address",
          "name": "user",
          "type": "address"
        },
        {
          "indexed": false,
          "internalType": "uint256",
          "name": "amount",
          "type": "uint256"
        }
      ],
      "name": "WithdrawStakingRewards",
      "type": "event"
    },
    {
      "anonymous": false,
      "inputs": [
        {
          "indexed": true,
          "internalType": "uint256",
          "name": "_era",
          "type": "uint256"
        },
        {
          "indexed": true,
          "internalType": "bytes",
          "name": "reason",
          "type": "bytes"
        }
      ],
      "name": "WithdrawUnbondedError",
      "type": "event"
    },
    {
      "anonymous": false,
      "inputs": [
        {
          "indexed": true,
          "internalType": "uint256",
          "name": "_era",
          "type": "uint256"
        }
      ],
      "name": "WithdrawUnbondedSuccess",
      "type": "event"
    },
    {
      "anonymous": false,
      "inputs": [
        {
          "indexed": true,
          "internalType": "address",
          "name": "user",
          "type": "address"
        },
        {
          "indexed": false,
          "internalType": "uint256",
          "name": "val",
          "type": "uint256"
        }
      ],
      "name": "Withdrawn",
      "type": "event"
    },
    {
      "inputs": [],
      "name": "ALGM_REWARDS_AMOUNT",
      "outputs": [
        {
          "internalType": "uint256",
          "name": "",
          "type": "uint256"
        }
      ],
      "stateMutability": "view",
      "type": "function"
    },
    {
      "inputs": [],
      "name": "MAX_AMOUNT",
      "outputs": [
        {
          "internalType": "uint256",
          "name": "",
          "type": "uint256"
        }
      ],
      "stateMutability": "view",
      "type": "function"
    },
    {
      "inputs": [],
      "name": "MIN_AMOUNT",
      "outputs": [
        {
          "internalType": "uint256",
          "name": "",
          "type": "uint256"
        }
      ],
      "stateMutability": "view",
      "type": "function"
    },
    {
      "inputs": [],
      "name": "aastr",
      "outputs": [
        {
          "internalType": "contract IERC20Plus",
          "name": "",
          "type": "address"
        }
      ],
      "stateMutability": "view",
      "type": "function"
    },
    {
      "inputs": [
        {
          "internalType": "address",
          "name": "",
          "type": "address"
        }
      ],
      "name": "addrToUsedRef",
      "outputs": [
        {
          "internalType": "string",
          "name": "",
          "type": "string"
        }
      ],
      "stateMutability": "view",
      "type": "function"
    },
    {
      "inputs": [],
      "name": "algm",
      "outputs": [
        {
          "internalType": "contract IERC20Plus",
          "name": "",
          "type": "address"
        }
      ],
      "stateMutability": "view",
      "type": "function"
    },
    {
      "inputs": [],
      "name": "becomeReferrer",
      "outputs": [
        {
          "internalType": "string",
          "name": "ref",
          "type": "string"
        }
      ],
      "stateMutability": "nonpayable",
      "type": "function"
    },
    {
      "inputs": [],
      "name": "claimDappStakingRewards",
      "outputs": [],
      "stateMutability": "nonpayable",
      "type": "function"
    },
    {
      "inputs": [],
      "name": "claimRewards",
      "outputs": [],
      "stateMutability": "nonpayable",
      "type": "function"
    },
    {
      "inputs": [],
      "name": "claimingTxLimit",
      "outputs": [
        {
          "internalType": "uint256",
          "name": "",
          "type": "uint256"
        }
      ],
      "stateMutability": "view",
      "type": "function"
    },
    {
      "inputs": [],
      "name": "closeCrowdloan",
      "outputs": [],
      "stateMutability": "nonpayable",
      "type": "function"
    },
    {
      "inputs": [],
      "name": "closed",
      "outputs": [
        {
          "internalType": "bool",
          "name": "",
          "type": "bool"
        }
      ],
      "stateMutability": "view",
      "type": "function"
    },
    {
      "inputs": [],
      "name": "crowdLoanCloseTime",
      "outputs": [
        {
          "internalType": "uint256",
          "name": "",
          "type": "uint256"
        }
      ],
      "stateMutability": "view",
      "type": "function"
    },
    {
      "inputs": [],
      "name": "currentEra",
      "outputs": [
        {
          "internalType": "uint256",
          "name": "",
          "type": "uint256"
        }
      ],
      "stateMutability": "view",
      "type": "function"
    },
    {
      "inputs": [],
      "name": "dappsStaking",
      "outputs": [
        {
          "internalType": "contract DappsStaking",
          "name": "",
          "type": "address"
        }
      ],
      "stateMutability": "view",
      "type": "function"
    },
    {
      "inputs": [],
      "name": "getStakers",
      "outputs": [
        {
          "internalType": "address[]",
          "name": "",
          "type": "address[]"
        }
      ],
      "stateMutability": "view",
      "type": "function"
    },
    {
      "inputs": [],
      "name": "getTotalAvailableRewards",
      "outputs": [
        {
          "internalType": "uint256",
          "name": "",
          "type": "uint256"
        }
      ],
      "stateMutability": "view",
      "type": "function"
    },
    {
      "inputs": [
        {
          "internalType": "address",
          "name": "_user",
          "type": "address"
        }
      ],
      "name": "getUserAvailableRewards",
      "outputs": [
        {
          "internalType": "uint256",
          "name": "",
          "type": "uint256"
        }
      ],
      "stateMutability": "view",
      "type": "function"
    },
    {
      "inputs": [],
      "name": "globalUnstakeAdmin",
      "outputs": [],
      "stateMutability": "nonpayable",
      "type": "function"
    },
    {
      "inputs": [
        {
          "internalType": "contract ALGMVesting",
          "name": "_vesting",
          "type": "address"
        },
        {
          "internalType": "address",
          "name": "_liquidStakingAddr",
          "type": "address"
        },
        {
          "internalType": "address",
          "name": "_aastr",
          "type": "address"
        },
        {
          "internalType": "address",
          "name": "_algm",
          "type": "address"
        },
        {
          "internalType": "address",
          "name": "_dappsStaking",
          "type": "address"
        }
      ],
      "name": "initialize",
      "outputs": [],
      "stateMutability": "nonpayable",
      "type": "function"
    },
    {
      "inputs": [
        {
          "internalType": "address",
          "name": "",
          "type": "address"
        }
      ],
      "name": "isRefUsedByAddress",
      "outputs": [
        {
          "internalType": "bool",
          "name": "",
          "type": "bool"
        }
      ],
      "stateMutability": "view",
      "type": "function"
    },
    {
      "inputs": [
        {
          "internalType": "address",
          "name": "",
          "type": "address"
        }
      ],
      "name": "isStaker",
      "outputs": [
        {
          "internalType": "bool",
          "name": "",
          "type": "bool"
        }
      ],
      "stateMutability": "view",
      "type": "function"
    },
    {
      "inputs": [],
      "name": "lastStakingRewardsClaimedEra",
      "outputs": [
        {
          "internalType": "uint256",
          "name": "",
          "type": "uint256"
        }
      ],
      "stateMutability": "view",
      "type": "function"
    },
    {
      "inputs": [],
      "name": "lastUnstaked",
      "outputs": [
        {
          "internalType": "uint256",
          "name": "",
          "type": "uint256"
        }
      ],
      "stateMutability": "view",
      "type": "function"
    },
    {
      "inputs": [],
      "name": "liquidStakingAddr",
      "outputs": [
        {
          "internalType": "address",
          "name": "",
          "type": "address"
        }
      ],
      "stateMutability": "view",
      "type": "function"
    },
    {
      "inputs": [],
      "name": "owner",
      "outputs": [
        {
          "internalType": "address",
          "name": "",
          "type": "address"
        }
      ],
      "stateMutability": "view",
      "type": "function"
    },
    {
      "inputs": [
        {
          "internalType": "address",
          "name": "",
          "type": "address"
        }
      ],
      "name": "ownerToRef",
      "outputs": [
        {
          "internalType": "string",
          "name": "",
          "type": "string"
        }
      ],
      "stateMutability": "view",
      "type": "function"
    },
    {
      "inputs": [
        {
          "internalType": "string",
          "name": "",
          "type": "string"
        }
      ],
      "name": "refToOwner",
      "outputs": [
        {
          "internalType": "address",
          "name": "",
          "type": "address"
        }
      ],
      "stateMutability": "view",
      "type": "function"
    },
    {
      "inputs": [],
      "name": "renounceOwnership",
      "outputs": [],
      "stateMutability": "nonpayable",
      "type": "function"
    },
    {
      "inputs": [
        {
          "internalType": "uint256",
          "name": "_val",
          "type": "uint256"
        }
      ],
      "name": "setClaimingTxLimit",
      "outputs": [],
      "stateMutability": "nonpayable",
      "type": "function"
    },
    {
      "inputs": [],
      "name": "setDappsStakingRewardsDest",
      "outputs": [],
      "stateMutability": "nonpayable",
      "type": "function"
    },
    {
      "inputs": [],
      "name": "slicesPassed",
      "outputs": [
        {
          "internalType": "uint256",
          "name": "",
          "type": "uint256"
        }
      ],
      "stateMutability": "view",
      "type": "function"
    },
    {
      "inputs": [],
      "name": "stake",
      "outputs": [],
      "stateMutability": "payable",
      "type": "function"
    },
    {
      "inputs": [
        {
          "internalType": "string",
          "name": "_ref",
          "type": "string"
        }
      ],
      "name": "stake",
      "outputs": [],
      "stateMutability": "payable",
      "type": "function"
    },
    {
      "inputs": [
        {
          "internalType": "uint256",
          "name": "",
          "type": "uint256"
        }
      ],
      "name": "stakers",
      "outputs": [
        {
          "internalType": "address",
          "name": "",
          "type": "address"
        }
      ],
      "stateMutability": "view",
      "type": "function"
    },
    {
      "inputs": [
        {
          "internalType": "address",
          "name": "",
          "type": "address"
        }
      ],
      "name": "stakes",
      "outputs": [
        {
          "internalType": "uint256",
          "name": "",
          "type": "uint256"
        }
      ],
      "stateMutability": "view",
      "type": "function"
    },
    {
      "inputs": [],
      "name": "sumToUnstake",
      "outputs": [
        {
          "internalType": "uint256",
          "name": "",
          "type": "uint256"
        }
      ],
      "stateMutability": "view",
      "type": "function"
    },
    {
      "inputs": [],
      "name": "totalStaked",
      "outputs": [
        {
          "internalType": "uint256",
          "name": "",
          "type": "uint256"
        }
      ],
      "stateMutability": "view",
      "type": "function"
    },
    {
      "inputs": [],
      "name": "totalStakingRewards",
      "outputs": [
        {
          "internalType": "uint256",
          "name": "",
          "type": "uint256"
        }
      ],
      "stateMutability": "view",
      "type": "function"
    },
    {
      "inputs": [
        {
          "internalType": "address",
          "name": "newOwner",
          "type": "address"
        }
      ],
      "name": "transferOwnership",
      "outputs": [],
      "stateMutability": "nonpayable",
      "type": "function"
    },
    {
      "inputs": [],
      "name": "unbondedPool",
      "outputs": [
        {
          "internalType": "uint256",
          "name": "",
          "type": "uint256"
        }
      ],
      "stateMutability": "view",
      "type": "function"
    },
    {
      "inputs": [],
      "name": "unstake",
      "outputs": [],
      "stateMutability": "nonpayable",
      "type": "function"
    },
    {
      "inputs": [
        {
          "internalType": "address",
          "name": "",
          "type": "address"
        }
      ],
      "name": "userClaimedSlices",
      "outputs": [
        {
          "internalType": "uint256",
          "name": "",
          "type": "uint256"
        }
      ],
      "stateMutability": "view",
      "type": "function"
    },
    {
      "inputs": [
        {
          "internalType": "address",
          "name": "_user",
          "type": "address"
        }
      ],
      "name": "userTotalRewards",
      "outputs": [
        {
          "internalType": "uint256",
          "name": "",
          "type": "uint256"
        }
      ],
      "stateMutability": "view",
      "type": "function"
    },
    {
      "inputs": [],
      "name": "vesting",
      "outputs": [
        {
          "internalType": "contract ALGMVesting",
          "name": "",
          "type": "address"
        }
      ],
      "stateMutability": "view",
      "type": "function"
    },
    {
      "inputs": [],
      "name": "vestingParams",
      "outputs": [
        {
          "internalType": "address",
          "name": "beneficiary",
          "type": "address"
        },
        {
          "internalType": "uint256",
          "name": "cliff",
          "type": "uint256"
        },
        {
          "internalType": "uint256",
          "name": "startTime",
          "type": "uint256"
        },
        {
          "internalType": "uint256",
          "name": "duration",
          "type": "uint256"
        },
        {
          "internalType": "uint256",
          "name": "slicePeriod",
          "type": "uint256"
        },
        {
          "internalType": "bool",
          "name": "revocable",
          "type": "bool"
        },
        {
          "internalType": "uint256",
          "name": "amount",
          "type": "uint256"
        }
      ],
      "stateMutability": "view",
      "type": "function"
    },
    {
      "inputs": [
        {
          "internalType": "uint256",
          "name": "_id",
          "type": "uint256"
        }
      ],
      "name": "withdraw",
      "outputs": [],
      "stateMutability": "nonpayable",
      "type": "function"
    },
    {
      "inputs": [],
      "name": "withdrawBlock",
      "outputs": [
        {
          "internalType": "uint256",
          "name": "",
          "type": "uint256"
        }
      ],
      "stateMutability": "view",
      "type": "function"
    },
    {
      "inputs": [],
      "name": "withdrawStakingRewardsAdmin",
      "outputs": [],
      "stateMutability": "nonpayable",
      "type": "function"
    },
    {
      "inputs": [
        {
          "internalType": "address",
          "name": "",
          "type": "address"
        },
        {
          "internalType": "uint256",
          "name": "",
          "type": "uint256"
        }
      ],
      "name": "withdrawals",
      "outputs": [
        {
          "internalType": "uint256",
          "name": "val",
          "type": "uint256"
        },
        {
          "internalType": "uint256",
          "name": "eraReq",
          "type": "uint256"
        },
        {
          "internalType": "uint256",
          "name": "lag",
          "type": "uint256"
        }
      ],
      "stateMutability": "view",
      "type": "function"
    }
  ],
  "bytecode": {
    "object": "0x608060405234801561001057600080fd5b50613164806100206000396000f3fe6080604052600436106102c85760003560e01c806377734a6611610175578063c4b02908116100dc578063e3e969ab11610095578063f2fde38b1161006f578063f2fde38b14610874578063f6a3f3cf14610894578063f8293403146108b4578063fd5e6dd1146108d457600080fd5b8063e3e969ab1461082a578063ea87e3ff1461084a578063eef097401461085f57600080fd5b8063c4b0290814610760578063c71367b5146107ae578063d31dbab6146107c4578063d40dc870146107d9578063d77355c4146107f8578063ddbcb5fa1461080d57600080fd5b8063973628f61161012e578063973628f6146106b25780639db29340146106c75780639fdb8c93146106e7578063a25b7e4914610714578063a6d953b71461072a578063bfb9ba0c1461074a57600080fd5b806377734a661461061d5780638037ecd31461063d57806380bb74e814610653578063817b1cd2146106685780638da5cb5b1461067e57806393ef357a1461069c57600080fd5b8063422b1077116102345780635495ec81116101ed57806368b0216e116101c757806368b0216e146105ae5780636adb930c146105c35780636f1e8533146105d8578063715018a61461060857600080fd5b80635495ec8114610537578063597e1fb51461054d578063620cc15c1461057e57600080fd5b8063422b10771461047257806342debbab146104ad57806343352d61146104cd57806344c63eec146104ef57806346f45b8d1461050f57806353d64ee01461052257600080fd5b80632e1a7d4d116102865780632e1a7d4d1461038f5780632e415702146103af57806334294447146103e7578063372500ab146104145780633a4b66f1146104295780633d8ab5b11461043157600080fd5b8062179fbd146102cd5780631459457a146102f657806316934fc41461031857806324025b19146103455780632941bc291461035b5780632def66201461037a575b600080fd5b3480156102d957600080fd5b506102e360a05481565b6040519081526020015b60405180910390f35b34801561030257600080fd5b50610316610311366004612c64565b6108f4565b005b34801561032457600080fd5b506102e3610333366004612be5565b60a76020526000908152604090205481565b34801561035157600080fd5b506102e3609b5481565b34801561036757600080fd5b506102e36a021165458500521280000081565b34801561038657600080fd5b50610316610bb7565b34801561039b57600080fd5b506103166103aa366004612d7e565b610fd5565b3480156103bb57600080fd5b5060a3546103cf906001600160a01b031681565b6040516001600160a01b0390911681526020016102ed565b3480156103f357600080fd5b50610407610402366004612be5565b6111d1565b6040516102ed9190612eff565b34801561042057600080fd5b5061031661126b565b61031661148a565b34801561043d57600080fd5b506103cf61044c366004612cd4565b805160208183018101805160ab825292820191909301209152546001600160a01b031681565b34801561047e57600080fd5b5061049261048d366004612c01565b6114ce565b604080519384526020840192909252908201526060016102ed565b3480156104b957600080fd5b506103166104c8366004612d7e565b611510565b3480156104d957600080fd5b506104e261154d565b6040516102ed9190612e8a565b3480156104fb57600080fd5b506097546103cf906001600160a01b031681565b61031661051d366004612cd4565b6115af565b34801561052e57600080fd5b506103166119c4565b34801561054357600080fd5b506102e3609c5481565b34801561055957600080fd5b5060975461056e90600160a01b900460ff1681565b60405190151581526020016102ed565b34801561058a57600080fd5b5061056e610599366004612be5565b60aa6020526000908152604090205460ff1681565b3480156105ba57600080fd5b50610316611a17565b3480156105cf57600080fd5b50610316611b1e565b3480156105e457600080fd5b5061056e6105f3366004612be5565b60a66020526000908152604090205460ff1681565b34801561061457600080fd5b50610316611c23565b34801561062957600080fd5b5060a2546103cf906001600160a01b031681565b34801561064957600080fd5b506102e3609f5481565b34801561065f57600080fd5b50610407611c35565b34801561067457600080fd5b506102e360995481565b34801561068a57600080fd5b506033546001600160a01b03166103cf565b3480156106a857600080fd5b506102e360a15481565b3480156106be57600080fd5b506102e3611dca565b3480156106d357600080fd5b506102e36106e2366004612be5565b611e4c565b3480156106f357600080fd5b506102e3610702366004612be5565b60a86020526000908152604090205481565b34801561072057600080fd5b506102e3609d5481565b34801561073657600080fd5b506098546103cf906001600160a01b031681565b34801561075657600080fd5b506102e3609a5481565b34801561076c57600080fd5b5060ae5460af5460b05460b15460b25460b35460b45461079b966001600160a01b0316959493929160ff169087565b6040516102ed9796959493929190612e4d565b3480156107ba57600080fd5b506102e3609e5481565b3480156107d057600080fd5b506102e3611f07565b3480156107e557600080fd5b506102e36a52b7d2dcc80cd2e400000081565b34801561080457600080fd5b50610316611fbf565b34801561081957600080fd5b506102e368056bc75e2d6310000081565b34801561083657600080fd5b50610407610845366004612be5565b612057565b34801561085657600080fd5b50610316612070565b34801561086b57600080fd5b506102e36122ae565b34801561088057600080fd5b5061031661088f366004612be5565b612300565b3480156108a057600080fd5b506102e36108af366004612be5565b612379565b3480156108c057600080fd5b5060a4546103cf906001600160a01b031681565b3480156108e057600080fd5b506103cf6108ef366004612d7e565b6123ba565b600054610100900460ff16158080156109145750600054600160ff909116105b8061092e5750303b15801561092e575060005460ff166001145b6109965760405162461bcd60e51b815260206004820152602e60248201527f496e697469616c697a61626c653a20636f6e747261637420697320616c72656160448201526d191e481a5b9a5d1a585b1a5e995960921b60648201526084015b60405180910390fd5b6000805460ff1916600117905580156109b9576000805461ff0019166101001790555b6109c16123e4565b60a280546001600160a01b03199081166001600160a01b038781169190911790925560a38054821686841617905560a480548216858416179055609780548216898416179055609880549091169187169190911790556040805160e08101825230815262093a806020820152429181019190915260608101610a4762278d006006613009565b815262093a8060208083019190915260016040808401919091526a0211654585005212800000606093840152835160ae80546001600160a01b0319166001600160a01b039283161790558483015160af558482015160b0559284015160b155608084015160b25560a084015160b3805460ff191691151591909117905560c09093015160b45560a454835163db62b20160e01b8152935192169263db62b2019260048083019392829003018186803b158015610b0257600080fd5b505afa158015610b16573d6000803e3d6000fd5b505050506040513d601f19601f82011682018060405250810190610b3a9190612c4c565b609b556001610b47611dca565b610b519190613056565b609c55610b5c611dca565b609f55610b696005611510565b8015610baf576000805461ff0019169055604051600181527f7f26b83ff96e1f2b6a682f133852f6798a09c465da95921460cefb38474024989060200160405180910390a15b505050505050565b60a2546040516370a0823160e01b81523360048201526000916001600160a01b0316906370a082319060240160206040518083038186803b158015610bfb57600080fd5b505afa158015610c0f573d6000803e3d6000fd5b505050506040513d601f19601f82011682018060405250810190610c339190612c4c565b905060008111610c7d5760405162461bcd60e51b81526020600482015260156024820152742ab9b2b9103430b99037379030b73c9030a0a9aa2960591b604482015260640161098d565b609a54610cc35760405162461bcd60e51b815260206004820152601460248201527321b937bbb23637b0b71039ba34b6361037b832b760611b604482015260640161098d565b60b154609a544291610cd491612fa7565b1115610d2c5760405162461bcd60e51b815260206004820152602160248201527f4c6f636b696e6720706572696f6420686173206e6f74207965742070617373656044820152601960fa1b606482015260840161098d565b6000610d36611dca565b905081609d6000828254610d4a9190612fa7565b925050819055508160996000828254610d639190613056565b909155505060a2546040516370a0823160e01b815233600482015283916001600160a01b0316906370a082319060240160206040518083038186803b158015610dab57600080fd5b505afa158015610dbf573d6000803e3d6000fd5b505050506040513d601f19601f82011682018060405250810190610de39190612c4c565b1015610e315760405162461bcd60e51b815260206004820152601960248201527f4e6f7420656e6f75676820746f6b656e7320746f206275726e00000000000000604482015260640161098d565b60a254604051632770a7eb60e21b8152336004820152602481018490526001600160a01b0390911690639dc29fac90604401602060405180830381600087803b158015610e7d57600080fd5b505af1158015610e91573d6000803e3d6000fd5b505050506040513d601f19601f82011682018060405250810190610eb59190612c2c565b506000610ec382600a613009565b6004609b54600a610ed49190613009565b610ede9190612fe9565b609c54610eec90600a613009565b610ef69190612fa7565b1115610f4757610f0782600a613009565b6004609b54600a610f189190613009565b610f229190612fe9565b609c54610f3090600a613009565b610f3a9190612fa7565b610f449190613056565b90505b33600090815260a96020908152604080832081516060810183528781528084018781529281018681528254600181810185559387529490952090516003909402019283559051908201559051600290910155610fa1612413565b6040518290849033907ff960dbf9e5d0682f7a298ed974e33a28b4464914b7a2bfac12ae419a9afeb28090600090a4505050565b610fe5610fe0611dca565b6125d1565b33600090815260a96020526040812080548390811061101457634e487b7160e01b600052603260045260246000fd5b60009182526020909120600390910201805460018201549192509061107b5760405162461bcd60e51b815260206004820152601a60248201527f5769746864726177616c20616c726561647920636c61696d6564000000000000604482015260640161098d565b6002820154609b5461108e90600a613009565b6110989190612fa7565b60018301546110a890600a613009565b6110b0611dca565b6110bb90600a613009565b6110c59190613056565b10156111135760405162461bcd60e51b815260206004820152601760248201527f4e6f7420656e6f75676820657261732070617373656421000000000000000000604482015260640161098d565b80609e54101561116f5760405162461bcd60e51b815260206004820152602160248201527f4e6f7420656e6f7567682066756e647320696e20756e626f6e64656420706f6f6044820152601b60fa1b606482015260840161098d565b80609e60008282546111819190613056565b9091555050600060018301556111973382612729565b60405181815233907f7084f5476618d8e60b11ef0d7d3f06914655adb8793e28ff7f018d4c76d505d59060200160405180910390a2505050565b60ac60205260009081526040902080546111ea9061309d565b80601f01602080910402602001604051908101604052809291908181526020018280546112169061309d565b80156112635780601f1061123857610100808354040283529160200191611263565b820191906000526020600020905b81548152906001019060200180831161124657829003601f168201915b505050505081565b600260655414156112be5760405162461bcd60e51b815260206004820152601f60248201527f5265656e7472616e637947756172643a207265656e7472616e742063616c6c00604482015260640161098d565b600260655560006112ce33611e4c565b9050600081116113205760405162461bcd60e51b815260206004820152601760248201527f5573657220686173206e6f20616e792072657761726473000000000000000000604482015260640161098d565b600061132a6122ae565b905080156113a5576097546001600160a01b03166363f4496861134b612847565b836040518363ffffffff1660e01b8152600401611372929190918252602082015260400190565b600060405180830381600087803b15801561138c57600080fd5b505af11580156113a0573d6000803e3d6000fd5b505050505b6113ad611f07565b33600081815260a86020526040908190209290925560a354915163a9059cbb60e01b81526004810191909152602481018490526001600160a01b039091169063a9059cbb90604401602060405180830381600087803b15801561140f57600080fd5b505af1158015611423573d6000803e3d6000fd5b505050506040513d601f19601f820116820180604052508101906114479190612c2c565b5060408051338152602081018390527f1f89f96333d3133000ee447473151fa9606543368f02271c9d95ae14f13bcc67910160405180910390a150506001606555565b609754600160a01b900460ff16156114b45760405162461bcd60e51b815260040161098d90612f32565b6114cc604051806020016040528060008152506115af565b565b60a960205281600052604060002081815481106114ea57600080fd5b600091825260209091206003909102018054600182015460029092015490935090915083565b61151861295b565b60a0819055604051819033907f2858686d6b174bd2ec20e66464df68f4228dafa488e5a0b587356271ce26c50190600090a350565b606060a58054806020026020016040519081016040528092919081815260200182805480156115a557602002820191906000526020600020905b81546001600160a01b03168152600190910190602001808311611587575b5050505050905090565b609754600160a01b900460ff16156115d95760405162461bcd60e51b815260040161098d90612f32565b343368056bc75e2d631000008210156116255760405162461bcd60e51b815260206004820152600e60248201526d2732b2b21036b7b9329020a9aa2960911b604482015260640161098d565b6a52b7d2dcc80cd2e40000008260995461163f9190612fa7565b11156116815760405162461bcd60e51b8152602060048201526011602482015270151bdbc81b185c99d94819195c1bdcda5d607a1b604482015260640161098d565b33600090815260aa602052604090205460ff16156116f75760405162461bcd60e51b815260206004820152602d60248201527f526566657272616c20636f646573206861766520616c7265616479206265656e60448201526c103ab9b2b210313c903ab9b2b960991b606482015260840161098d565b604080516000815260208101808352815190209161171791869101612d96565b60405160208183030381529060405280519060200120146117665733600090815260aa60209081526040808320805460ff1916600117905560ac8252909120845161176492860190612b4c565b505b6001600160a01b038116600090815260a760205260408120805484929061178e908490612fa7565b9250508190555081609960008282546117a79190612fa7565b909155505060a4546098546040516352b73e4160e01b81526001600160a01b0391821660048201526001600160801b03851660248201529116906352b73e4190604401600060405180830381600087803b15801561180457600080fd5b505af1158015611818573d6000803e3d6000fd5b505050506001600160a01b038116600090815260a6602052604090205460ff166118a2576001600160a01b038116600081815260a660205260408120805460ff1916600190811790915560a5805491820181559091527fb29a2b3b6f2ff1b765777a231725941da5072cc4fcc30ac4a2ce09706e8ddeff0180546001600160a01b03191690911790555b60a2546040516340c10f1960e01b81526001600160a01b03838116600483015260248201859052909116906340c10f1990604401602060405180830381600087803b1580156118f057600080fd5b505af1158015611904573d6000803e3d6000fd5b505050506040513d601f19601f820116820180604052508101906119289190612c2c565b6119745760405162461bcd60e51b815260206004820152601760248201527f4572726f7220647572696e67206d696e74206141535452000000000000000000604482015260640161098d565b826040516119829190612d96565b6040519081900381203482529033907f72d0050d8f1a0f19ace5b1f50e8b5333308c60902442b7444a65cfffbad884e7906020015b60405180910390a3505050565b6119cc61295b565b60a1805460009091556119df3382612729565b60405181815233907fc5a3601bc424984ab8d0e98bd79347fa6ef2a340c30dde7340d02f923e6820ed9060200160405180910390a250565b611a1f61295b565b6000609d5411611a635760405162461bcd60e51b815260206004820152600f60248201526e4e6f20616e7920756e7374616b657360881b604482015260640161098d565b6004609b54600a611a749190613009565b611a7e9190612fe9565b609c54611a8c90600a613009565b611a969190612fa7565b611a9e611dca565b611aa990600a613009565b1015611b165760405162461bcd60e51b815260206004820152603660248201527f54686572652077617320616c726561647920676c6f62616c556e7374616b6520604482015275696e207468697320706572696f64206f662074696d6560501b606482015260840161098d565b6114cc612413565b609754600160a01b900460ff1615611b485760405162461bcd60e51b815260040161098d90612f32565b611b5061295b565b60978054600160a01b60ff60a01b1982161790915542609a81905560af5460b15460b25460b35460b45460405163310d94dd60e21b81526001600160a01b039097169663c436537496611bb6963096909591949093919260ff9091169190600401612e4d565b600060405180830381600087803b158015611bd057600080fd5b505af1158015611be4573d6000803e3d6000fd5b505050507f0624eb1de4b105b5373ba37db99731cb09d761de5b9373015805d8c47e7a6f1242604051611c1991815260200190565b60405180910390a1565b611c2b61295b565b6114cc60006129b5565b33600081815260ad60209081526040918290209151606093927fc5d2460186f7233c927e7db2dcc703c0e500b653ca82273b7bfad8045d85a47092611c7a9201612db2565b6040516020818303038152906040528051906020012014611cdd5760405162461bcd60e51b815260206004820152601a60248201527f5573657220697320616c72656164792061207265666572726572000000000000604482015260640161098d565b604080516001600160a01b0383166020808301919091524282840152825180830384018152606090920190925280519101206000611d246001600160e81b03198316612a07565b90508260ab82604051611d379190612d96565b908152604080516020928190038301902080546001600160a01b0319166001600160a01b03949094169390931790925533600090815260ad8252919091208251611d8392840190612b4c565b5080604051611d929190612d96565b6040519081900381209033907ffdd01b27191e72d589718f76e5754f96633f8f2c5fcdd018f05c88181032f0cf90600090a350505090565b60a4546040805163e608d80b60e01b815290516000926001600160a01b03169163e608d80b916004808301926020929190829003018186803b158015611e0f57600080fd5b505afa158015611e23573d6000803e3d6000fd5b505050506040513d601f19601f82011682018060405250810190611e479190612c4c565b905090565b6001600160a01b038116600090815260a86020526040812054611e6d611f07565b11611e7a57506000919050565b6001600160a01b038216600090815260a86020526040812054611e9b611f07565b611ea59190613056565b60b15460b2549192509082670de0b6b3a76400006a0211654585005212800000611ece88612ae0565b611ed89190613009565b611ee29190612fe9565b611eec9190613009565b611ef69190613009565b611f009190612fe9565b9392505050565b6000609a54600014158015611f1e5750609a544210155b611f755760405162461bcd60e51b815260206004820152602260248201527f56657374696e6720706572696f6420686173206e6f7420737461727465642079604482015261195d60f21b606482015260840161098d565b60b254609a5460009190611f899042613056565b611f939190612fe9565b60b25460b154919250600091611fa99190612fe9565b905080821115611fb95792915050565b50919050565b611fc761295b565b60a45460405163258d874360e11b81526001600160a01b0390911690634b1b0e8690611ff890600090600401612ed7565b600060405180830381600087803b15801561201257600080fd5b505af1158015612026573d6000803e3d6000fd5b50506040513392507f071887c03bab9c32311d166ea6fb805439a8a3765b0de8cb1f611799e84edf899150600090a2565b60ad60205260009081526040902080546111ea9061309d565b61207861295b565b6000612082611dca565b905080609f5414156120d65760405162461bcd60e51b815260206004820152601b60248201527f416c6c207265776172647320616c726561647920636c61696d65640000000000604482015260640161098d565b6000609f54826120e69190613056565b905060a0548111156120f7575060a0545b4760005b828110156122485760a45460985460405163505cec5f60e11b81526001600160a01b03918216600482015291169063a0b9d8be90602401600060405180830381600087803b15801561214c57600080fd5b505af192505050801561215d575060015b6121e5573d80801561218b576040519150601f19603f3d011682016040523d82523d6000602084013e612190565b606091505b508060405161219f9190612d96565b6040518091039020609f5460016121b69190612fa7565b6040517ffa856c428399288a6034f9c96d90c67dc025124c025cd92e228f9b795cd2ec8490600090a350612236565b6001609f60008282546121f89190612fa7565b9091555050609f5460405190815284907fe3ad3e6ae6e2f00623af1899e05e142e09f8af5b7f4e9b765d94646d6bb9b8929060200160405180910390a25b80612240816130d2565b9150506120fb565b50476122548282613056565b60a160008282546122659190612fa7565b909155508490507f1d37f71bdeb9f37b8aef735e93b33154911a15cae0fc0a473057a898be05c4a36122978484613056565b60405190815260200160405180910390a250505050565b6097546000906001600160a01b031663ea1bb3d56122ca612847565b6040518263ffffffff1660e01b81526004016122e891815260200190565b60206040518083038186803b158015611e0f57600080fd5b61230861295b565b6001600160a01b03811661236d5760405162461bcd60e51b815260206004820152602660248201527f4f776e61626c653a206e6577206f776e657220697320746865207a65726f206160448201526564647265737360d01b606482015260840161098d565b612376816129b5565b50565b6001600160a01b038116600090815260a760205260408120546099546123aa906a0211654585005212800000612fe9565b6123b49190613009565b92915050565b60a581815481106123ca57600080fd5b6000918252602090912001546001600160a01b0316905081565b600054610100900460ff1661240b5760405162461bcd60e51b815260040161098d90612f5c565b6114cc612b1c565b600061241d611dca565b90506004609b54600a6124309190613009565b61243a9190612fe9565b609c5461244890600a613009565b6124529190612fa7565b61245d82600a613009565b10156124665750565b609d541561259e5760a454609d546040516363c20ee960e11b81523060048201526001600160801b0390911660248201526001600160a01b039091169063c7841dd290604401600060405180830381600087803b1580156124c657600080fd5b505af19250505080156124d7575060015b612557573d808015612505576040519150601f19603f3d011682016040523d82523d6000602084013e61250a565b606091505b50806040516125199190612d96565b604051809103902082609d547f832c31b2d0ce0c03d09e4e17ccd7312693af36ddd41c197ed1ed6c6dd58cb2ed60405160405180910390a45061259e565b807fd112be63e7fceb2dddc1fcf8ae6159d873af98be4505daee865e08f2aeae802d609d5460405161258b91815260200190565b60405180910390a26000609d55609c8190555b609d54604051829033907f69eadfdf59619a336dc106a730fa0ccf616ee1d058e409cd39f65f2a5ccdecae90600090a450565b60a45460408051633bd07f0160e11b8152905147926001600160a01b0316916377a0fe0291600480830192600092919082900301818387803b15801561261657600080fd5b505af1925050508015612627575060015b6126a1573d808015612655576040519150601f19603f3d011682016040523d82523d6000602084013e61265a565b606091505b50806040516126699190612d96565b6040519081900381209084907ff031b94d40b16f5c2b8213e25ea0f640687fa24e99f6a0ef56cdd46762434a2f90600090a3506126cc565b60405182907e973a60d81248412b3530a2ff12c475667dc3c0ece650fb361c044aa240565b90600090a25b476126d78282613056565b609e60008282546126e89190612fa7565b90915550839050337f7ae76c7ba85137a574da9e7ef1f16fcd73e8290df91265541d72f81c331862e061271b8585613056565b6040519081526020016119b7565b804710156127795760405162461bcd60e51b815260206004820152601d60248201527f416464726573733a20696e73756666696369656e742062616c616e6365000000604482015260640161098d565b6000826001600160a01b03168260405160006040518083038185875af1925050503d80600081146127c6576040519150601f19603f3d011682016040523d82523d6000602084013e6127cb565b606091505b50509050806128425760405162461bcd60e51b815260206004820152603a60248201527f416464726573733a20756e61626c6520746f2073656e642076616c75652c207260448201527f6563697069656e74206d61792068617665207265766572746564000000000000606482015260840161098d565b505050565b60975460405163471121d160e01b815230600482015260009182916001916001600160a01b03169063471121d19060240160206040518083038186803b15801561289057600080fd5b505afa1580156128a4573d6000803e3d6000fd5b505050506040513d601f19601f820116820180604052508101906128c89190612c4c565b6128d29190613056565b60975460405163e5fe4dff60e01b8152306004820152602481018390529192506001600160a01b03169063e5fe4dff9060440160206040518083038186803b15801561291d57600080fd5b505afa158015612931573d6000803e3d6000fd5b505050506040513d601f19601f820116820180604052508101906129559190612c4c565b91505090565b6033546001600160a01b031633146114cc5760405162461bcd60e51b815260206004820181905260248201527f4f776e61626c653a2063616c6c6572206973206e6f7420746865206f776e6572604482015260640161098d565b603380546001600160a01b038381166001600160a01b0319831681179093556040519116919082907f8be0079c531659141344cd1fd0a4f28419497f9722a3daafe3b4186f6b6457e090600090a35050565b6060630f00000f60dc1b600f60dc1b600c84901c908116600f60f41b85161760081c60ff60e01b919091166001600160f81b031985161717600481811c92909216650f000f0f000f60d41b919091161780821c9190612a6f9060d41c65060606060606612fbf565b65ffffffffffff16901c650f0f0f0f0f0f166007612a8d9190613028565b612aa160d083901c65303030303030612fbf565b612aab9190612fbf565b60405160d09190911b6001600160d01b0319811660208301529150602601604051602081830303815290604052915050919050565b6099546001600160a01b038216600090815260a76020526040812054909190612b1290670de0b6b3a764000090613009565b6123b49190612fe9565b600054610100900460ff16612b435760405162461bcd60e51b815260040161098d90612f5c565b6114cc336129b5565b828054612b589061309d565b90600052602060002090601f016020900481019282612b7a5760008555612bc0565b82601f10612b9357805160ff1916838001178555612bc0565b82800160010185558215612bc0579182015b82811115612bc0578251825591602001919060010190612ba5565b50612bcc929150612bd0565b5090565b5b80821115612bcc5760008155600101612bd1565b600060208284031215612bf6578081fd5b8135611f0081613119565b60008060408385031215612c13578081fd5b8235612c1e81613119565b946020939093013593505050565b600060208284031215612c3d578081fd5b81518015158114611f00578182fd5b600060208284031215612c5d578081fd5b5051919050565b600080600080600060a08688031215612c7b578081fd5b8535612c8681613119565b94506020860135612c9681613119565b93506040860135612ca681613119565b92506060860135612cb681613119565b91506080860135612cc681613119565b809150509295509295909350565b600060208284031215612ce5578081fd5b813567ffffffffffffffff80821115612cfc578283fd5b818401915084601f830112612d0f578283fd5b813581811115612d2157612d21613103565b604051601f8201601f19908116603f01168101908382118183101715612d4957612d49613103565b81604052828152876020848701011115612d61578586fd5b826020860160208301379182016020019490945295945050505050565b600060208284031215612d8f578081fd5b5035919050565b60008251612da881846020870161306d565b9190910192915050565b600080835482600182811c915080831680612dce57607f831692505b6020808410821415612dee57634e487b7160e01b87526022600452602487fd5b818015612e025760018114612e1357612e3f565b60ff19861689528489019650612e3f565b60008a815260209020885b86811015612e375781548b820152908501908301612e1e565b505084890196505b509498975050505050505050565b6001600160a01b039790971687526020870195909552604086019390935260608501919091526080840152151560a083015260c082015260e00190565b6020808252825182820181905260009190848201906040850190845b81811015612ecb5783516001600160a01b031683529284019291840191600101612ea6565b50909695505050505050565b6020810160028310612ef957634e487b7160e01b600052602160045260246000fd5b91905290565b6020815260008251806020840152612f1e81604085016020870161306d565b601f01601f19169190910160400192915050565b60208082526010908201526f10dc9bddd91b1bd85b8818db1bdcd95960821b604082015260600190565b6020808252602b908201527f496e697469616c697a61626c653a20636f6e7472616374206973206e6f74206960408201526a6e697469616c697a696e6760a81b606082015260800190565b60008219821115612fba57612fba6130ed565b500190565b600065ffffffffffff808316818516808303821115612fe057612fe06130ed565b01949350505050565b60008261300457634e487b7160e01b81526012600452602481fd5b500490565b6000816000190483118215151615613023576130236130ed565b500290565b600065ffffffffffff8083168185168183048111821515161561304d5761304d6130ed565b02949350505050565b600082821015613068576130686130ed565b500390565b60005b83811015613088578181015183820152602001613070565b83811115613097576000848401525b50505050565b600181811c908216806130b157607f821691505b60208210811415611fb957634e487b7160e01b600052602260045260246000fd5b60006000198214156130e6576130e66130ed565b5060010190565b634e487b7160e01b600052601160045260246000fd5b634e487b7160e01b600052604160045260246000fd5b6001600160a01b038116811461237657600080fdfea2646970667358221220c1784352e17e7f2f8a303e1fa6e77f123e909f81047754ff472a548c72446ffe64736f6c63430008040033",
    "linkReferences": {}
  },
  "methodIdentifiers": {
    "ALGM_REWARDS_AMOUNT()": "2941bc29",
    "MAX_AMOUNT()": "d40dc870",
    "MIN_AMOUNT()": "ddbcb5fa",
    "aastr()": "77734a66",
    "addrToUsedRef(address)": "34294447",
    "algm()": "2e415702",
    "becomeReferrer()": "80bb74e8",
    "claimDappStakingRewards()": "ea87e3ff",
    "claimRewards()": "372500ab",
    "claimingTxLimit()": "00179fbd",
    "closeCrowdloan()": "6adb930c",
    "closed()": "597e1fb5",
    "crowdLoanCloseTime()": "bfb9ba0c",
    "currentEra()": "973628f6",
    "dappsStaking()": "f8293403",
    "getStakers()": "43352d61",
    "getTotalAvailableRewards()": "eef09740",
    "getUserAvailableRewards(address)": "9db29340",
    "globalUnstakeAdmin()": "68b0216e",
    "initialize(address,address,address,address,address)": "1459457a",
    "isRefUsedByAddress(address)": "620cc15c",
    "isStaker(address)": "6f1e8533",
    "lastStakingRewardsClaimedEra()": "8037ecd3",
    "lastUnstaked()": "5495ec81",
    "liquidStakingAddr()": "a6d953b7",
    "owner()": "8da5cb5b",
    "ownerToRef(address)": "e3e969ab",
    "refToOwner(string)": "3d8ab5b1",
    "renounceOwnership()": "715018a6",
    "setClaimingTxLimit(uint256)": "42debbab",
    "setDappsStakingRewardsDest()": "d77355c4",
    "slicesPassed()": "d31dbab6",
    "stake()": "3a4b66f1",
    "stake(string)": "46f45b8d",
    "stakers(uint256)": "fd5e6dd1",
    "stakes(address)": "16934fc4",
    "sumToUnstake()": "a25b7e49",
    "totalStaked()": "817b1cd2",
    "totalStakingRewards()": "93ef357a",
    "transferOwnership(address)": "f2fde38b",
    "unbondedPool()": "c71367b5",
    "unstake()": "2def6620",
    "userClaimedSlices(address)": "9fdb8c93",
    "userTotalRewards(address)": "f6a3f3cf",
    "vesting()": "44c63eec",
    "vestingParams()": "c4b02908",
    "withdraw(uint256)": "2e1a7d4d",
    "withdrawBlock()": "24025b19",
    "withdrawStakingRewardsAdmin()": "53d64ee0",
    "withdrawals(address,uint256)": "422b1077"
  },
  "id": 9
}