{
  "abi": [
    {
      "anonymous": false,
      "inputs": [
        {
          "indexed": true,
          "internalType": "address",
          "name": "who",
          "type": "address"
        },
        {
          "indexed": true,
          "internalType": "address",
          "name": "newManager",
          "type": "address"
        }
      ],
      "name": "AddManager",
      "type": "event"
    },
    {
      "anonymous": false,
      "inputs": [
        {
          "indexed": true,
          "internalType": "address",
          "name": "who",
          "type": "address"
        },
        {
          "indexed": true,
          "internalType": "bytes32",
          "name": "vestingId",
          "type": "bytes32"
        },
        {
          "indexed": true,
          "internalType": "uint256",
          "name": "amount",
          "type": "uint256"
        }
      ],
      "name": "Claim",
      "type": "event"
    },
    {
      "anonymous": false,
      "inputs": [
        {
          "indexed": true,
          "internalType": "address",
          "name": "who",
          "type": "address"
        },
        {
          "indexed": true,
          "internalType": "address",
          "name": "beneficiary",
          "type": "address"
        },
        {
          "indexed": true,
          "internalType": "bytes32",
          "name": "vestingId",
          "type": "bytes32"
        }
      ],
      "name": "CreateVesting",
      "type": "event"
    },
    {
      "anonymous": false,
      "inputs": [
        {
          "indexed": false,
          "internalType": "uint8",
          "name": "version",
          "type": "uint8"
        }
      ],
      "name": "Initialized",
      "type": "event"
    },
    {
      "anonymous": false,
      "inputs": [
        {
          "indexed": true,
          "internalType": "address",
          "name": "who",
          "type": "address"
        },
        {
          "indexed": true,
          "internalType": "address",
          "name": "deletedManager",
          "type": "address"
        }
      ],
      "name": "RevokeManager",
      "type": "event"
    },
    {
      "anonymous": false,
      "inputs": [
        {
          "indexed": true,
          "internalType": "address",
          "name": "who",
          "type": "address"
        },
        {
          "indexed": true,
          "internalType": "bytes32",
          "name": "vestingId",
          "type": "bytes32"
        }
      ],
      "name": "RevokeVesting",
      "type": "event"
    },
    {
      "anonymous": false,
      "inputs": [
        {
          "indexed": true,
          "internalType": "bytes32",
          "name": "role",
          "type": "bytes32"
        },
        {
          "indexed": true,
          "internalType": "bytes32",
          "name": "previousAdminRole",
          "type": "bytes32"
        },
        {
          "indexed": true,
          "internalType": "bytes32",
          "name": "newAdminRole",
          "type": "bytes32"
        }
      ],
      "name": "RoleAdminChanged",
      "type": "event"
    },
    {
      "anonymous": false,
      "inputs": [
        {
          "indexed": true,
          "internalType": "bytes32",
          "name": "role",
          "type": "bytes32"
        },
        {
          "indexed": true,
          "internalType": "address",
          "name": "account",
          "type": "address"
        },
        {
          "indexed": true,
          "internalType": "address",
          "name": "sender",
          "type": "address"
        }
      ],
      "name": "RoleGranted",
      "type": "event"
    },
    {
      "anonymous": false,
      "inputs": [
        {
          "indexed": true,
          "internalType": "bytes32",
          "name": "role",
          "type": "bytes32"
        },
        {
          "indexed": true,
          "internalType": "address",
          "name": "account",
          "type": "address"
        },
        {
          "indexed": true,
          "internalType": "address",
          "name": "sender",
          "type": "address"
        }
      ],
      "name": "RoleRevoked",
      "type": "event"
    },
    {
      "inputs": [],
      "name": "DEFAULT_ADMIN_ROLE",
      "outputs": [
        {
          "internalType": "bytes32",
          "name": "",
          "type": "bytes32"
        }
      ],
      "stateMutability": "view",
      "type": "function"
    },
    {
      "inputs": [],
      "name": "MANAGER",
      "outputs": [
        {
          "internalType": "bytes32",
          "name": "",
          "type": "bytes32"
        }
      ],
      "stateMutability": "view",
      "type": "function"
    },
    {
      "inputs": [
        {
          "components": [
            {
              "internalType": "bool",
              "name": "initialized",
              "type": "bool"
            },
            {
              "internalType": "address",
              "name": "beneficiary",
              "type": "address"
            },
            {
              "internalType": "uint256",
              "name": "cliff",
              "type": "uint256"
            },
            {
              "internalType": "uint256",
              "name": "start",
              "type": "uint256"
            },
            {
              "internalType": "uint256",
              "name": "duration",
              "type": "uint256"
            },
            {
              "internalType": "uint256",
              "name": "slicePeriod",
              "type": "uint256"
            },
            {
              "internalType": "bool",
              "name": "revocable",
              "type": "bool"
            },
            {
              "internalType": "uint256",
              "name": "amountTotal",
              "type": "uint256"
            },
            {
              "internalType": "uint256",
              "name": "released",
              "type": "uint256"
            },
            {
              "internalType": "bool",
              "name": "revoked",
              "type": "bool"
            }
          ],
          "internalType": "struct ALGMVesting.Vesting",
          "name": "vesting",
          "type": "tuple"
        }
      ],
      "name": "_computeReleasableAmount",
      "outputs": [
        {
          "internalType": "uint256",
          "name": "",
          "type": "uint256"
        }
      ],
      "stateMutability": "view",
      "type": "function"
    },
    {
      "inputs": [
        {
          "internalType": "address",
          "name": "_manager",
          "type": "address"
        }
      ],
      "name": "addManager",
      "outputs": [],
      "stateMutability": "nonpayable",
      "type": "function"
    },
    {
      "inputs": [
        {
          "internalType": "bytes32",
          "name": "_vestingId",
          "type": "bytes32"
        },
        {
          "internalType": "uint256",
          "name": "_amount",
          "type": "uint256"
        }
      ],
      "name": "claim",
      "outputs": [],
      "stateMutability": "nonpayable",
      "type": "function"
    },
    {
      "inputs": [
        {
          "internalType": "address",
          "name": "holder",
          "type": "address"
        }
      ],
      "name": "computeNextVestingIdForHolder",
      "outputs": [
        {
          "internalType": "bytes32",
          "name": "",
          "type": "bytes32"
        }
      ],
      "stateMutability": "view",
      "type": "function"
    },
    {
      "inputs": [
        {
          "internalType": "bytes32",
          "name": "_vestingId",
          "type": "bytes32"
        }
      ],
      "name": "computeReleasableAmount",
      "outputs": [
        {
          "internalType": "uint256",
          "name": "",
          "type": "uint256"
        }
      ],
      "stateMutability": "view",
      "type": "function"
    },
    {
      "inputs": [
        {
          "internalType": "address",
          "name": "holder",
          "type": "address"
        },
        {
          "internalType": "uint256",
          "name": "index",
          "type": "uint256"
        }
      ],
      "name": "computeVestingIdForAddressAndIndex",
      "outputs": [
        {
          "internalType": "bytes32",
          "name": "",
          "type": "bytes32"
        }
      ],
      "stateMutability": "pure",
      "type": "function"
    },
    {
      "inputs": [
        {
          "internalType": "address",
          "name": "_beneficiary",
          "type": "address"
        },
        {
          "internalType": "uint256",
          "name": "_cliff",
          "type": "uint256"
        },
        {
          "internalType": "uint256",
          "name": "_startTime",
          "type": "uint256"
        },
        {
          "internalType": "uint256",
          "name": "_duration",
          "type": "uint256"
        },
        {
          "internalType": "uint256",
          "name": "_slicePeriod",
          "type": "uint256"
        },
        {
          "internalType": "bool",
          "name": "_revocable",
          "type": "bool"
        },
        {
          "internalType": "uint256",
          "name": "_amount",
          "type": "uint256"
        }
      ],
      "name": "createVesting",
      "outputs": [],
      "stateMutability": "nonpayable",
      "type": "function"
    },
    {
      "inputs": [
        {
          "internalType": "address",
          "name": "holder",
          "type": "address"
        }
      ],
      "name": "getLastVestingScheduleForHolder",
      "outputs": [
        {
          "components": [
            {
              "internalType": "bool",
              "name": "initialized",
              "type": "bool"
            },
            {
              "internalType": "address",
              "name": "beneficiary",
              "type": "address"
            },
            {
              "internalType": "uint256",
              "name": "cliff",
              "type": "uint256"
            },
            {
              "internalType": "uint256",
              "name": "start",
              "type": "uint256"
            },
            {
              "internalType": "uint256",
              "name": "duration",
              "type": "uint256"
            },
            {
              "internalType": "uint256",
              "name": "slicePeriod",
              "type": "uint256"
            },
            {
              "internalType": "bool",
              "name": "revocable",
              "type": "bool"
            },
            {
              "internalType": "uint256",
              "name": "amountTotal",
              "type": "uint256"
            },
            {
              "internalType": "uint256",
              "name": "released",
              "type": "uint256"
            },
            {
              "internalType": "bool",
              "name": "revoked",
              "type": "bool"
            }
          ],
          "internalType": "struct ALGMVesting.Vesting",
          "name": "",
          "type": "tuple"
        }
      ],
      "stateMutability": "view",
      "type": "function"
    },
    {
      "inputs": [],
      "name": "getManagers",
      "outputs": [
        {
          "internalType": "address[]",
          "name": "",
          "type": "address[]"
        }
      ],
      "stateMutability": "view",
      "type": "function"
    },
    {
      "inputs": [
        {
          "internalType": "bytes32",
          "name": "role",
          "type": "bytes32"
        }
      ],
      "name": "getRoleAdmin",
      "outputs": [
        {
          "internalType": "bytes32",
          "name": "",
          "type": "bytes32"
        }
      ],
      "stateMutability": "view",
      "type": "function"
    },
    {
      "inputs": [
        {
          "internalType": "bytes32",
          "name": "vestingScheduleId",
          "type": "bytes32"
        }
      ],
      "name": "getVesting",
      "outputs": [
        {
          "components": [
            {
              "internalType": "bool",
              "name": "initialized",
              "type": "bool"
            },
            {
              "internalType": "address",
              "name": "beneficiary",
              "type": "address"
            },
            {
              "internalType": "uint256",
              "name": "cliff",
              "type": "uint256"
            },
            {
              "internalType": "uint256",
              "name": "start",
              "type": "uint256"
            },
            {
              "internalType": "uint256",
              "name": "duration",
              "type": "uint256"
            },
            {
              "internalType": "uint256",
              "name": "slicePeriod",
              "type": "uint256"
            },
            {
              "internalType": "bool",
              "name": "revocable",
              "type": "bool"
            },
            {
              "internalType": "uint256",
              "name": "amountTotal",
              "type": "uint256"
            },
            {
              "internalType": "uint256",
              "name": "released",
              "type": "uint256"
            },
            {
              "internalType": "bool",
              "name": "revoked",
              "type": "bool"
            }
          ],
          "internalType": "struct ALGMVesting.Vesting",
          "name": "",
          "type": "tuple"
        }
      ],
      "stateMutability": "view",
      "type": "function"
    },
    {
      "inputs": [
        {
          "internalType": "address",
          "name": "holder",
          "type": "address"
        },
        {
          "internalType": "uint256",
          "name": "index",
          "type": "uint256"
        }
      ],
      "name": "getVestingByAddressAndIndex",
      "outputs": [
        {
          "components": [
            {
              "internalType": "bool",
              "name": "initialized",
              "type": "bool"
            },
            {
              "internalType": "address",
              "name": "beneficiary",
              "type": "address"
            },
            {
              "internalType": "uint256",
              "name": "cliff",
              "type": "uint256"
            },
            {
              "internalType": "uint256",
              "name": "start",
              "type": "uint256"
            },
            {
              "internalType": "uint256",
              "name": "duration",
              "type": "uint256"
            },
            {
              "internalType": "uint256",
              "name": "slicePeriod",
              "type": "uint256"
            },
            {
              "internalType": "bool",
              "name": "revocable",
              "type": "bool"
            },
            {
              "internalType": "uint256",
              "name": "amountTotal",
              "type": "uint256"
            },
            {
              "internalType": "uint256",
              "name": "released",
              "type": "uint256"
            },
            {
              "internalType": "bool",
              "name": "revoked",
              "type": "bool"
            }
          ],
          "internalType": "struct ALGMVesting.Vesting",
          "name": "",
          "type": "tuple"
        }
      ],
      "stateMutability": "view",
      "type": "function"
    },
    {
      "inputs": [
        {
          "internalType": "address",
          "name": "_beneficiary",
          "type": "address"
        }
      ],
      "name": "getVestingCountByBeneficiary",
      "outputs": [
        {
          "internalType": "uint256",
          "name": "",
          "type": "uint256"
        }
      ],
      "stateMutability": "view",
      "type": "function"
    },
    {
      "inputs": [
        {
          "internalType": "uint256",
          "name": "index",
          "type": "uint256"
        }
      ],
      "name": "getVestingIdAtIndex",
      "outputs": [
        {
          "internalType": "bytes32",
          "name": "",
          "type": "bytes32"
        }
      ],
      "stateMutability": "view",
      "type": "function"
    },
    {
      "inputs": [],
      "name": "getVestingSchedulesCount",
      "outputs": [
        {
          "internalType": "uint256",
          "name": "",
          "type": "uint256"
        }
      ],
      "stateMutability": "view",
      "type": "function"
    },
    {
      "inputs": [],
      "name": "getWithdrawableAmount",
      "outputs": [
        {
          "internalType": "uint256",
          "name": "",
          "type": "uint256"
        }
      ],
      "stateMutability": "view",
      "type": "function"
    },
    {
      "inputs": [
        {
          "internalType": "bytes32",
          "name": "role",
          "type": "bytes32"
        },
        {
          "internalType": "address",
          "name": "account",
          "type": "address"
        }
      ],
      "name": "grantRole",
      "outputs": [],
      "stateMutability": "nonpayable",
      "type": "function"
    },
    {
      "inputs": [
        {
          "internalType": "bytes32",
          "name": "role",
          "type": "bytes32"
        },
        {
          "internalType": "address",
          "name": "account",
          "type": "address"
        }
      ],
      "name": "hasRole",
      "outputs": [
        {
          "internalType": "bool",
          "name": "",
          "type": "bool"
        }
      ],
      "stateMutability": "view",
      "type": "function"
    },
    {
      "inputs": [
        {
          "internalType": "address",
          "name": "",
          "type": "address"
        }
      ],
      "name": "holdersVestingCount",
      "outputs": [
        {
          "internalType": "uint256",
          "name": "",
          "type": "uint256"
        }
      ],
      "stateMutability": "view",
      "type": "function"
    },
    {
      "inputs": [
        {
          "internalType": "contract IERC20Upgradeable",
          "name": "_token",
          "type": "address"
        }
      ],
      "name": "initialize",
      "outputs": [],
      "stateMutability": "nonpayable",
      "type": "function"
    },
    {
      "inputs": [
        {
          "internalType": "address",
          "name": "",
          "type": "address"
        }
      ],
      "name": "managerIds",
      "outputs": [
        {
          "internalType": "uint256",
          "name": "",
          "type": "uint256"
        }
      ],
      "stateMutability": "view",
      "type": "function"
    },
    {
      "inputs": [
        {
          "internalType": "uint256",
          "name": "",
          "type": "uint256"
        }
      ],
      "name": "managers",
      "outputs": [
        {
          "internalType": "address",
          "name": "",
          "type": "address"
        }
      ],
      "stateMutability": "view",
      "type": "function"
    },
    {
      "inputs": [
        {
          "internalType": "bytes32",
          "name": "role",
          "type": "bytes32"
        },
        {
          "internalType": "address",
          "name": "account",
          "type": "address"
        }
      ],
      "name": "renounceRole",
      "outputs": [],
      "stateMutability": "nonpayable",
      "type": "function"
    },
    {
      "inputs": [
        {
          "internalType": "address",
          "name": "_manager",
          "type": "address"
        }
      ],
      "name": "revokeManager",
      "outputs": [],
      "stateMutability": "nonpayable",
      "type": "function"
    },
    {
      "inputs": [
        {
          "internalType": "bytes32",
          "name": "role",
          "type": "bytes32"
        },
        {
          "internalType": "address",
          "name": "account",
          "type": "address"
        }
      ],
      "name": "revokeRole",
      "outputs": [],
      "stateMutability": "nonpayable",
      "type": "function"
    },
    {
      "inputs": [
        {
          "internalType": "bytes32",
          "name": "_vestingId",
          "type": "bytes32"
        }
      ],
      "name": "revokeVesting",
      "outputs": [],
      "stateMutability": "nonpayable",
      "type": "function"
    },
    {
      "inputs": [
        {
          "internalType": "address",
          "name": "who",
          "type": "address"
        },
        {
          "internalType": "uint256",
          "name": "amount",
          "type": "uint256"
        }
      ],
      "name": "sendALGM",
      "outputs": [],
      "stateMutability": "nonpayable",
      "type": "function"
    },
    {
      "inputs": [
        {
          "internalType": "bytes4",
          "name": "interfaceId",
          "type": "bytes4"
        }
      ],
      "name": "supportsInterface",
      "outputs": [
        {
          "internalType": "bool",
          "name": "",
          "type": "bool"
        }
      ],
      "stateMutability": "view",
      "type": "function"
    },
    {
      "inputs": [],
      "name": "token",
      "outputs": [
        {
          "internalType": "contract IERC20Upgradeable",
          "name": "",
          "type": "address"
        }
      ],
      "stateMutability": "view",
      "type": "function"
    },
    {
      "inputs": [],
      "name": "vestingsTotalAmount",
      "outputs": [
        {
          "internalType": "uint256",
          "name": "",
          "type": "uint256"
        }
      ],
      "stateMutability": "view",
      "type": "function"
    },
    {
      "stateMutability": "payable",
      "type": "receive"
    }
  ],
  "bytecode": {
    "object": "0x608060405234801561001057600080fd5b50612469806100206000396000f3fe6080604052600436106101e75760003560e01c806395f0010811610102578063db4bea0011610095578063ea1bb3d511610064578063ea1bb3d5146105dc578063f9079b37146105fc578063f95b8b551461061c578063fc0c546a1461063257600080fd5b8063db4bea001461054f578063dddecb2c1461056f578063e5c1f2111461059c578063e5fe4dff146105bc57600080fd5b8063b8900aa7116100d1578063b8900aa7146104cf578063c4365374146104ef578063c4d66de81461050f578063d547741f1461052f57600080fd5b806395f0010814610442578063a217fddf14610478578063a8d088bb1461048d578063b4733443146104af57600080fd5b80633d39c2601161017a57806364fd474d1161014957806364fd474d146103c05780637e913dc6146103ed57806390be10cc1461040d57806391d148541461042257600080fd5b80633d39c2601461031b578063471121d114610353578063624332361461038057806363f44968146103a057600080fd5b80632d06177a116101b65780632d06177a146102995780632f2ff15d146102bb57806336568abe146102db578063377e32e6146102fb57600080fd5b806301ffc9a7146101f357806313083617146102285780631b2df85014610247578063248a9ca31461026957600080fd5b366101ee57005b600080fd5b3480156101ff57600080fd5b5061021361020e366004612093565b610652565b60405190151581526020015b60405180910390f35b34801561023457600080fd5b5060cf545b60405190815260200161021f565b34801561025357600080fd5b5061023960008051602061241483398151915281565b34801561027557600080fd5b5061023961028436600461202b565b60009081526065602052604090206001015490565b3480156102a557600080fd5b506102b96102b4366004611f60565b610689565b005b3480156102c757600080fd5b506102b96102d6366004612043565b6107fb565b3480156102e757600080fd5b506102b96102f6366004612043565b610825565b34801561030757600080fd5b506102b9610316366004611f60565b6108a3565b34801561032757600080fd5b5061033b61033636600461202b565b610b2d565b6040516001600160a01b03909116815260200161021f565b34801561035f57600080fd5b5061023961036e366004611f60565b60cd6020526000908152604090205481565b34801561038c57600080fd5b5061023961039b366004611f60565b610b57565b3480156103ac57600080fd5b506102b96103bb366004612072565b610b7b565b3480156103cc57600080fd5b506103e06103db366004611f7c565b610e9b565b60405161021f9190612266565b3480156103f957600080fd5b506103e0610408366004611f60565b610eb7565b34801561041957600080fd5b50610239610f8f565b34801561042e57600080fd5b5061021361043d366004612043565b61101e565b34801561044e57600080fd5b5061023961045d366004611f60565b6001600160a01b0316600090815260cd602052604090205490565b34801561048457600080fd5b50610239600081565b34801561049957600080fd5b506104a2611049565b60405161021f91906121e6565b3480156104bb57600080fd5b506102396104ca3660046120bb565b6110ab565b3480156104db57600080fd5b506102b96104ea36600461202b565b61117c565b3480156104fb57600080fd5b506102b961050a366004611fa7565b611353565b34801561051b57600080fd5b506102b961052a366004611f60565b611733565b34801561053b57600080fd5b506102b961054a366004612043565b61186f565b34801561055b57600080fd5b506103e061056a36600461202b565b611894565b34801561057b57600080fd5b5061023961058a366004611f60565b60cb6020526000908152604090205481565b3480156105a857600080fd5b506102b96105b7366004611f7c565b611938565b3480156105c857600080fd5b506102396105d7366004611f7c565b6119dc565b3480156105e857600080fd5b506102396105f736600461202b565b611a23565b34801561060857600080fd5b5061023961061736600461202b565b611b0d565b34801561062857600080fd5b5061023960ca5481565b34801561063e57600080fd5b5060c95461033b906001600160a01b031681565b60006001600160e01b03198216637965db0b60e01b148061068357506301ffc9a760e01b6001600160e01b03198316145b92915050565b6000805160206124148339815191526106a181611ba3565b6106b96000805160206124148339815191528361101e565b156106fe5760405162461bcd60e51b815260206004820152601060248201526f20b6363932b0b23c9036b0b730b3b2b960811b60448201526064015b60405180910390fd5b6001600160a01b03821661074d5760405162461bcd60e51b815260206004820152601660248201527543616e6e6f74206265207a65726f206164647265737360501b60448201526064016106f5565b60ce80546001600160a01b038416600081815260cb60205260408120839055600183018455929092527fd36cd1c74ef8d7326d8021b776c18fb5a5724b7f7bc93c2f42e43e10ef27d12a0180546001600160a01b03191690911790556107c160008051602061241483398151915283611bb0565b6040516001600160a01b0383169033907f80dc3d87a7a642c46b6272b119f53d4db8aef58e5984b633f1055308b77dce6d90600090a35050565b60008281526065602052604090206001015461081681611ba3565b6108208383611bb0565b505050565b6001600160a01b03811633146108955760405162461bcd60e51b815260206004820152602f60248201527f416363657373436f6e74726f6c3a2063616e206f6e6c792072656e6f756e636560448201526e103937b632b9903337b91039b2b63360891b60648201526084016106f5565b61089f8282611c36565b5050565b6000805160206124148339815191526108bb81611ba3565b6108d36000805160206124148339815191528361101e565b6109125760405162461bcd60e51b815260206004820152601060248201526f24b9903737ba10309036b0b730b3b2b960811b60448201526064016106f5565b336001600160a01b03831614156109755760405162461bcd60e51b815260206004820152602160248201527f43616e2774207265766f6b65206120726f6c652066726f6d20796f757273656c6044820152603360f91b60648201526084016106f5565b6001600160a01b038216600090815260cb602052604090205460ce805461099e90600190612380565b815481106109bc57634e487b7160e01b600052603260045260246000fd5b60009182526020909120015460ce80546001600160a01b0390921691839081106109f657634e487b7160e01b600052603260045260246000fd5b9060005260206000200160006101000a8154816001600160a01b0302191690836001600160a01b031602179055508060cb600060ce600160ce80549050610a3d9190612380565b81548110610a5b57634e487b7160e01b600052603260045260246000fd5b60009182526020808320909101546001600160a01b0316835282019290925260400190205560ce805480610a9f57634e487b7160e01b600052603160045260246000fd5b60008281526020808220830160001990810180546001600160a01b03191690559092019092556001600160a01b038516825260cb90526040812055610af260008051602061241483398151915284611c36565b6040516001600160a01b0384169033907f142c2a791096690a19ea18712757698bee1e23180c084e221726a4a96e027a7b90600090a3505050565b60ce8181548110610b3d57600080fd5b6000918252602090912001546001600160a01b0316905081565b6001600160a01b038116600090815260cd60205260408120546106839083906119dc565b60026097541415610bce5760405162461bcd60e51b815260206004820152601f60248201527f5265656e7472616e637947756172643a207265656e7472616e742063616c6c0060448201526064016106f5565b6002609755600082815260cc6020526040902054829060ff161515600114610bf557600080fd5b600081815260cc602052604090206008015460ff1615610c1457600080fd5b600083815260cc60205260409020805461010090046001600160a01b0316331480610c525750610c526000805160206124148339815191523361101e565b610cbd5760405162461bcd60e51b815260206004820152603660248201527f4f6e6c792062656e656669636961727920616e64206d616e616765722063616e6044820152752072656c656173652076657374656420746f6b656e7360501b60648201526084016106f5565b6040805161014081018252825460ff808216151583526001600160a01b03610100928390041660208401526001850154938301939093526002840154606083015260038401546080830152600484015460a083015260058401548316151560c0830152600684015460e083015260078401549082015260088301549091161515610120820152600090610d4f906110ab565b905083811015610da15760405162461bcd60e51b815260206004820152601860248201527f4e6f7420656e6f7567682076657374656420746f6b656e73000000000000000060448201526064016106f5565b83826007016000828254610db59190612329565b925050819055508360ca6000828254610dce9190612380565b909155505060c954825460405163a9059cbb60e01b81526001600160a01b03610100909204821660048201526024810187905291169063a9059cbb90604401602060405180830381600087803b158015610e2757600080fd5b505af1158015610e3b573d6000803e3d6000fd5b505050506040513d601f19601f82011682018060405250810190610e5f919061200f565b506040518490869033907f33e1e4350f7b57099d5489c172fc55e9e32d4d3906a6e36710fae5ed9f5eef0f90600090a450506001609755505050565b610ea3611ee3565b610eb061056a84846119dc565b9392505050565b610ebf611ee3565b6001600160a01b038216600090815260cd602052604081205460cc9190610eee9085906105d790600190612380565b81526020808201929092526040908101600020815161014081018352815460ff808216151583526001600160a01b036101009283900416958301959095526001830154938201939093526002820154606082015260038201546080820152600482015460a082015260058201548416151560c0820152600682015460e082015260078201549281019290925260080154909116151561012082015292915050565b60ca5460c9546040516370a0823160e01b8152306004820152600092916001600160a01b0316906370a082319060240160206040518083038186803b158015610fd757600080fd5b505afa158015610feb573d6000803e3d6000fd5b505050506040513d601f19601f8201168201806040525081019061100f9190612159565b6110199190612380565b905090565b60009182526065602090815260408084206001600160a01b0393909316845291905290205460ff1690565b606060ce8054806020026020016040519081016040528092919081815260200182805480156110a157602002820191906000526020600020905b81546001600160a01b03168152600190910190602001808311611083575b5050505050905090565b604081015160009042908110806110c9575061012083015115156001145b156110d75750600092915050565b826080015183606001516110eb9190612329565b8110611106578261010001518360e00151610eb09190612380565b60008360600151826111189190612380565b60a0850151909150600061112c8284612341565b9050600061113a8383612361565b905060008760800151828960e001516111539190612361565b61115d9190612341565b9050876101000151816111709190612380565b98975050505050505050565b60008051602061241483398151915261119481611ba3565b600082815260cc6020526040902054829060ff1615156001146111b657600080fd5b600081815260cc602052604090206008015460ff16156111d557600080fd5b600083815260cc60205260409020600581015460ff16151560011461123c5760405162461bcd60e51b815260206004820152601860248201527f56657374696e67206973206e6f74207265766f6361626c65000000000000000060448201526064016106f5565b6040805161014081018252825460ff808216151583526001600160a01b03610100928390041660208401526001850154938301939093526002840154606083015260038401546080830152600484015460a083015260058401548316151560c0830152600684015460e0830152600784015490820152600883015490911615156101208201526000906112ce906110ab565b905080156112e0576112e08582610b7b565b6000826007015483600601546112f69190612380565b90508060ca600082825461130a9190612380565b909155505060088301805460ff19166001179055604051869033907fdea492e4514cb12de4bc884f5c6f632e1d8e24155594a7fd84caf1100e2469b090600090a3505050505050565b60008051602061241483398151915261136b81611ba3565b81611374610f8f565b10156113e85760405162461bcd60e51b815260206004820152603c60248201527f43616e6e6f74206372656174652076657374696e67207363686564756c65206260448201527f656361757365206e6f742073756666696369656e7420746f6b656e730000000060648201526084016106f5565b6000851161142f5760405162461bcd60e51b815260206004820152601460248201527304475726174696f6e206d757374206265203e20360641b60448201526064016106f5565b600082116114745760405162461bcd60e51b81526020600482015260126024820152710416d6f756e74206d757374206265203e20360741b60448201526064016106f5565b6001600160a01b0388166114d65760405162461bcd60e51b8152602060048201526024808201527f42656e6566696369617279206d757374206265206e6f6e2d7a65726f206164646044820152637265737360e01b60648201526084016106f5565b600084116115265760405162461bcd60e51b815260206004820152601860248201527f536c69636520706572696f64206d757374206265203e2030000000000000000060448201526064016106f5565b600061153189610b57565b9050600061153f8989612329565b90506040518061014001604052806001151581526020018b6001600160a01b031681526020018281526020018981526020018881526020018781526020018615158152602001858152602001600081526020016000151581525060cc600084815260200190815260200160002060008201518160000160006101000a81548160ff02191690831515021790555060208201518160000160016101000a8154816001600160a01b0302191690836001600160a01b0316021790555060408201518160010155606082015181600201556080820151816003015560a0820151816004015560c08201518160050160006101000a81548160ff02191690831515021790555060e0820151816006015561010082015181600701556101208201518160080160006101000a81548160ff0219169083151502179055509050508360ca600082825461168c9190612329565b909155505060cf805460018181019092557facb8d954e2cfef495862221e91bd7523613cf8808827cb33edfe4904cc51bf29018390556001600160a01b038b16600090815260cd6020526040812080549091906116ea908490612329565b909155505060405182906001600160a01b038c169033907f70d8e04551c4f5483ed4ed73fa0873c897bfa11c9bcc05b1435dbc1bd851681190600090a450505050505050505050565b600054610100900460ff16158080156117535750600054600160ff909116105b8061176d5750303b15801561176d575060005460ff166001145b6117d05760405162461bcd60e51b815260206004820152602e60248201527f496e697469616c697a61626c653a20636f6e747261637420697320616c72656160448201526d191e481a5b9a5d1a585b1a5e995960921b60648201526084016106f5565b6000805460ff1916600117905580156117f3576000805461ff0019166101001790555b61180b60008051602061241483398151915233611bb0565b60c980546001600160a01b0319166001600160a01b038416179055801561089f576000805461ff0019169055604051600181527f7f26b83ff96e1f2b6a682f133852f6798a09c465da95921460cefb38474024989060200160405180910390a15050565b60008281526065602052604090206001015461188a81611ba3565b6108208383611c36565b61189c611ee3565b50600090815260cc6020908152604091829020825161014081018452815460ff808216151583526001600160a01b036101009283900416948301949094526001830154948201949094526002820154606082015260038201546080820152600482015460a082015260058201548316151560c0820152600682015460e08201526007820154938101939093526008015416151561012082015290565b60008051602061241483398151915261195081611ba3565b60c95460405163a9059cbb60e01b81526001600160a01b038581166004830152602482018590529091169063a9059cbb90604401602060405180830381600087803b15801561199e57600080fd5b505af11580156119b2573d6000803e3d6000fd5b505050506040513d601f19601f820116820180604052508101906119d6919061200f565b50505050565b6040516bffffffffffffffffffffffff19606084901b1660208201526034810182905260009060540160405160208183030381529060405280519060200120905092915050565b600081815260cc6020526040812054829060ff161515600114611a4557600080fd5b600081815260cc602052604090206008015460ff1615611a6457600080fd5b600083815260cc6020908152604091829020825161014081018452815460ff808216151583526001600160a01b036101009283900416948301949094526001830154948201949094526002820154606082015260038201546080820152600482015460a082015260058201548316151560c0820152600682015460e082015260078201549381019390935260080154161515610120820152611b05816110ab565b949350505050565b6000611b1860cf5490565b8210611b705760405162461bcd60e51b815260206004820152602160248201527f546f6b656e56657374696e673a20696e646578206f7574206f6620626f756e646044820152607360f81b60648201526084016106f5565b60cf8281548110611b9157634e487b7160e01b600052603260045260246000fd5b90600052602060002001549050919050565b611bad8133611c9d565b50565b611bba828261101e565b61089f5760008281526065602090815260408083206001600160a01b03851684529091529020805460ff19166001179055611bf23390565b6001600160a01b0316816001600160a01b0316837f2f8788117e7eff1d82e926ec794901d17c78024a50270940304540a733656f0d60405160405180910390a45050565b611c40828261101e565b1561089f5760008281526065602090815260408083206001600160a01b0385168085529252808320805460ff1916905551339285917ff6391f5c32d9c69d2a47ea670b442974b53935d1edc7fd64eb21e047a839171b9190a45050565b611ca7828261101e565b61089f57611cbf816001600160a01b03166014611d01565b611cca836020611d01565b604051602001611cdb929190612171565b60408051601f198184030181529082905262461bcd60e51b82526106f591600401612233565b60606000611d10836002612361565b611d1b906002612329565b67ffffffffffffffff811115611d4157634e487b7160e01b600052604160045260246000fd5b6040519080825280601f01601f191660200182016040528015611d6b576020820181803683370190505b509050600360fc1b81600081518110611d9457634e487b7160e01b600052603260045260246000fd5b60200101906001600160f81b031916908160001a905350600f60fb1b81600181518110611dd157634e487b7160e01b600052603260045260246000fd5b60200101906001600160f81b031916908160001a9053506000611df5846002612361565b611e00906001612329565b90505b6001811115611e94576f181899199a1a9b1b9c1cb0b131b232b360811b85600f1660108110611e4257634e487b7160e01b600052603260045260246000fd5b1a60f81b828281518110611e6657634e487b7160e01b600052603260045260246000fd5b60200101906001600160f81b031916908160001a90535060049490941c93611e8d816123c3565b9050611e03565b508315610eb05760405162461bcd60e51b815260206004820181905260248201527f537472696e67733a20686578206c656e67746820696e73756666696369656e7460448201526064016106f5565b60405180610140016040528060001515815260200160006001600160a01b031681526020016000815260200160008152602001600081526020016000815260200160001515815260200160008152602001600081526020016000151581525090565b8035611f50816123f0565b919050565b8035611f5081612405565b600060208284031215611f71578081fd5b8135610eb0816123f0565b60008060408385031215611f8e578081fd5b8235611f99816123f0565b946020939093013593505050565b600080600080600080600060e0888a031215611fc1578283fd5b8735611fcc816123f0565b96506020880135955060408801359450606088013593506080880135925060a0880135611ff881612405565b8092505060c0880135905092959891949750929550565b600060208284031215612020578081fd5b8151610eb081612405565b60006020828403121561203c578081fd5b5035919050565b60008060408385031215612055578182fd5b823591506020830135612067816123f0565b809150509250929050565b60008060408385031215612084578182fd5b50508035926020909101359150565b6000602082840312156120a4578081fd5b81356001600160e01b031981168114610eb0578182fd5b600061014082840312156120cd578081fd5b6120d56122f1565b6120de83611f55565b81526120ec60208401611f45565b602082015260408301356040820152606083013560608201526080830135608082015260a083013560a082015261212560c08401611f55565b60c082015260e083013560e082015261010080840135818301525061012061214e818501611f55565b908201529392505050565b60006020828403121561216a578081fd5b5051919050565b7f416363657373436f6e74726f6c3a206163636f756e74200000000000000000008152600083516121a9816017850160208801612397565b7001034b99036b4b9b9b4b733903937b6329607d1b60179184019182015283516121da816028840160208801612397565b01602801949350505050565b6020808252825182820181905260009190848201906040850190845b818110156122275783516001600160a01b031683529284019291840191600101612202565b50909695505050505050565b6020815260008251806020840152612252816040850160208701612397565b601f01601f19169190910160400192915050565b8151151581526101408101602083015161228b60208401826001600160a01b03169052565b5060408301516040830152606083015160608301526080830151608083015260a083015160a083015260c08301516122c760c084018215159052565b5060e083810151908301526101008084015190830152610120928301511515929091019190915290565b604051610140810167ffffffffffffffff8111828210171561232357634e487b7160e01b600052604160045260246000fd5b60405290565b6000821982111561233c5761233c6123da565b500190565b60008261235c57634e487b7160e01b81526012600452602481fd5b500490565b600081600019048311821515161561237b5761237b6123da565b500290565b600082821015612392576123926123da565b500390565b60005b838110156123b257818101518382015260200161239a565b838111156119d65750506000910152565b6000816123d2576123d26123da565b506000190190565b634e487b7160e01b600052601160045260246000fd5b6001600160a01b0381168114611bad57600080fd5b8015158114611bad57600080fdfeaf290d8680820aad922855f39b306097b20e28774d6c1ad35a20325630c3a02ca26469706673582212204886efb9bba1f6d86167566d1ef154d928858ae2b538fa658a7cb03c239a08b364736f6c63430008040033",
    "linkReferences": {}
  },
  "methodIdentifiers": {
    "DEFAULT_ADMIN_ROLE()": "a217fddf",
    "MANAGER()": "1b2df850",
    "_computeReleasableAmount((bool,address,uint256,uint256,uint256,uint256,bool,uint256,uint256,bool))": "b4733443",
    "addManager(address)": "2d06177a",
    "claim(bytes32,uint256)": "63f44968",
    "computeNextVestingIdForHolder(address)": "62433236",
    "computeReleasableAmount(bytes32)": "ea1bb3d5",
    "computeVestingIdForAddressAndIndex(address,uint256)": "e5fe4dff",
    "createVesting(address,uint256,uint256,uint256,uint256,bool,uint256)": "c4365374",
    "getLastVestingScheduleForHolder(address)": "7e913dc6",
    "getManagers()": "a8d088bb",
    "getRoleAdmin(bytes32)": "248a9ca3",
    "getVesting(bytes32)": "db4bea00",
    "getVestingByAddressAndIndex(address,uint256)": "64fd474d",
    "getVestingCountByBeneficiary(address)": "95f00108",
    "getVestingIdAtIndex(uint256)": "f9079b37",
    "getVestingSchedulesCount()": "13083617",
    "getWithdrawableAmount()": "90be10cc",
    "grantRole(bytes32,address)": "2f2ff15d",
    "hasRole(bytes32,address)": "91d14854",
    "holdersVestingCount(address)": "471121d1",
    "initialize(address)": "c4d66de8",
    "managerIds(address)": "dddecb2c",
    "managers(uint256)": "3d39c260",
    "renounceRole(bytes32,address)": "36568abe",
    "revokeManager(address)": "377e32e6",
    "revokeRole(bytes32,address)": "d547741f",
    "revokeVesting(bytes32)": "b8900aa7",
    "sendALGM(address,uint256)": "e5c1f211",
    "supportsInterface(bytes4)": "01ffc9a7",
    "token()": "fc0c546a",
    "vestingsTotalAmount()": "f95b8b55"
  },
  "id": 0
}