{
  "abi": [
    {
      "inputs": [],
      "stateMutability": "nonpayable",
      "type": "constructor"
    },
    {
      "anonymous": false,
      "inputs": [
        {
          "indexed": true,
          "internalType": "address",
          "name": "user",
          "type": "address"
        },
        {
          "indexed": true,
          "internalType": "uint256[]",
          "name": "amounts",
          "type": "uint256[]"
        },
        {
          "indexed": false,
          "internalType": "bool",
          "name": "autoStake",
          "type": "bool"
        },
        {
          "indexed": true,
          "internalType": "uint256",
          "name": "lpAmount",
          "type": "uint256"
        }
      ],
      "name": "AddLiquidity",
      "type": "event"
    },
    {
      "anonymous": false,
      "inputs": [
        {
          "indexed": true,
          "internalType": "address",
          "name": "user",
          "type": "address"
        },
        {
          "indexed": true,
          "internalType": "uint256",
          "name": "amount",
          "type": "uint256"
        }
      ],
      "name": "Claim",
      "type": "event"
    },
    {
      "anonymous": false,
      "inputs": [
        {
          "indexed": true,
          "internalType": "address",
          "name": "",
          "type": "address"
        },
        {
          "indexed": false,
          "internalType": "uint256",
          "name": "amount",
          "type": "uint256"
        }
      ],
      "name": "DepositLP",
      "type": "event"
    },
    {
      "anonymous": false,
      "inputs": [
        {
          "indexed": true,
          "internalType": "address",
          "name": "user",
          "type": "address"
        },
        {
          "indexed": true,
          "internalType": "uint256",
          "name": "rewardsToHarvest",
          "type": "uint256"
        }
      ],
      "name": "HarvestRewards",
      "type": "event"
    },
    {
      "anonymous": false,
      "inputs": [
        {
          "indexed": false,
          "internalType": "uint8",
          "name": "version",
          "type": "uint8"
        }
      ],
      "name": "Initialized",
      "type": "event"
    },
    {
      "anonymous": false,
      "inputs": [
        {
          "indexed": true,
          "internalType": "address",
          "name": "previousOwner",
          "type": "address"
        },
        {
          "indexed": true,
          "internalType": "address",
          "name": "newOwner",
          "type": "address"
        }
      ],
      "name": "OwnershipTransferred",
      "type": "event"
    },
    {
      "anonymous": false,
      "inputs": [
        {
          "indexed": true,
          "internalType": "address",
          "name": "user",
          "type": "address"
        },
        {
          "indexed": false,
          "internalType": "uint256",
          "name": "amountLP",
          "type": "uint256"
        },
        {
          "indexed": true,
          "internalType": "uint256",
          "name": "receivedASTR",
          "type": "uint256"
        }
      ],
      "name": "RemoveLiquidity",
      "type": "event"
    },
    {
      "anonymous": false,
      "inputs": [
        {
          "indexed": true,
          "internalType": "bool",
          "name": "_b",
          "type": "bool"
        }
      ],
      "name": "SetAbilityToAddLpAndGauge",
      "type": "event"
    },
    {
      "anonymous": false,
      "inputs": [
        {
          "indexed": true,
          "internalType": "address",
          "name": "user",
          "type": "address"
        },
        {
          "indexed": true,
          "internalType": "uint256",
          "name": "amount",
          "type": "uint256"
        },
        {
          "indexed": true,
          "internalType": "bool",
          "name": "autoWithdraw",
          "type": "bool"
        }
      ],
      "name": "WithdrawLP",
      "type": "event"
    },
    {
      "inputs": [],
      "name": "REVENUE_FEE",
      "outputs": [
        {
          "internalType": "uint256",
          "name": "",
          "type": "uint256"
        }
      ],
      "stateMutability": "view",
      "type": "function"
    },
    {
      "inputs": [],
      "name": "abilityToAddLpAndGauge",
      "outputs": [
        {
          "internalType": "bool",
          "name": "",
          "type": "bool"
        }
      ],
      "stateMutability": "view",
      "type": "function"
    },
    {
      "inputs": [],
      "name": "accumulatedRewardsPerShare",
      "outputs": [
        {
          "internalType": "uint256",
          "name": "",
          "type": "uint256"
        }
      ],
      "stateMutability": "view",
      "type": "function"
    },
    {
      "inputs": [
        {
          "internalType": "uint256",
          "name": "_amount",
          "type": "uint256"
        }
      ],
      "name": "addGauge",
      "outputs": [],
      "stateMutability": "nonpayable",
      "type": "function"
    },
    {
      "inputs": [
        {
          "internalType": "uint256[]",
          "name": "_amounts",
          "type": "uint256[]"
        },
        {
          "internalType": "bool",
          "name": "_autoStake",
          "type": "bool"
        }
      ],
      "name": "addLiquidity",
      "outputs": [],
      "stateMutability": "payable",
      "type": "function"
    },
    {
      "inputs": [
        {
          "internalType": "uint256",
          "name": "_amount",
          "type": "uint256"
        },
        {
          "internalType": "bool",
          "name": "_autoDeposit",
          "type": "bool"
        }
      ],
      "name": "addLp",
      "outputs": [],
      "stateMutability": "nonpayable",
      "type": "function"
    },
    {
      "inputs": [
        {
          "internalType": "address",
          "name": "_user",
          "type": "address"
        }
      ],
      "name": "calc",
      "outputs": [
        {
          "internalType": "uint256",
          "name": "nShare",
          "type": "uint256"
        }
      ],
      "stateMutability": "view",
      "type": "function"
    },
    {
      "inputs": [
        {
          "internalType": "uint256",
          "name": "_lpAmount",
          "type": "uint256"
        }
      ],
      "name": "calculateRemoveLiquidity",
      "outputs": [
        {
          "internalType": "uint256[]",
          "name": "",
          "type": "uint256[]"
        }
      ],
      "stateMutability": "view",
      "type": "function"
    },
    {
      "inputs": [],
      "name": "claim",
      "outputs": [],
      "stateMutability": "nonpayable",
      "type": "function"
    },
    {
      "inputs": [
        {
          "internalType": "uint256",
          "name": "_amount",
          "type": "uint256"
        }
      ],
      "name": "depositLP",
      "outputs": [],
      "stateMutability": "nonpayable",
      "type": "function"
    },
    {
      "inputs": [],
      "name": "farm",
      "outputs": [
        {
          "internalType": "contract ISiriusFarm",
          "name": "",
          "type": "address"
        }
      ],
      "stateMutability": "view",
      "type": "function"
    },
    {
      "inputs": [],
      "name": "gauge",
      "outputs": [
        {
          "internalType": "contract IERC20Upgradeable",
          "name": "",
          "type": "address"
        }
      ],
      "stateMutability": "view",
      "type": "function"
    },
    {
      "inputs": [
        {
          "internalType": "address",
          "name": "",
          "type": "address"
        }
      ],
      "name": "gaugeBalances",
      "outputs": [
        {
          "internalType": "uint256",
          "name": "",
          "type": "uint256"
        }
      ],
      "stateMutability": "view",
      "type": "function"
    },
    {
      "inputs": [
        {
          "internalType": "contract ISiriusPool",
          "name": "_pool",
          "type": "address"
        },
        {
          "internalType": "contract ISiriusFarm",
          "name": "_farm",
          "type": "address"
        },
        {
          "internalType": "contract IERC20Upgradeable",
          "name": "_lp",
          "type": "address"
        },
        {
          "internalType": "contract IERC20Upgradeable",
          "name": "_nToken",
          "type": "address"
        },
        {
          "internalType": "contract IERC20Upgradeable",
          "name": "_gauge",
          "type": "address"
        },
        {
          "internalType": "contract IERC20Upgradeable",
          "name": "_srs",
          "type": "address"
        },
        {
          "internalType": "contract IMinter",
          "name": "_minter",
          "type": "address"
        }
      ],
      "name": "initialize",
      "outputs": [],
      "stateMutability": "nonpayable",
      "type": "function"
    },
    {
      "inputs": [],
      "name": "lp",
      "outputs": [
        {
          "internalType": "contract IERC20Upgradeable",
          "name": "",
          "type": "address"
        }
      ],
      "stateMutability": "view",
      "type": "function"
    },
    {
      "inputs": [
        {
          "internalType": "address",
          "name": "",
          "type": "address"
        }
      ],
      "name": "lpBalances",
      "outputs": [
        {
          "internalType": "uint256",
          "name": "",
          "type": "uint256"
        }
      ],
      "stateMutability": "view",
      "type": "function"
    },
    {
      "inputs": [],
      "name": "minter",
      "outputs": [
        {
          "internalType": "contract IMinter",
          "name": "",
          "type": "address"
        }
      ],
      "stateMutability": "view",
      "type": "function"
    },
    {
      "inputs": [],
      "name": "nToken",
      "outputs": [
        {
          "internalType": "contract IERC20Upgradeable",
          "name": "",
          "type": "address"
        }
      ],
      "stateMutability": "view",
      "type": "function"
    },
    {
      "inputs": [],
      "name": "owner",
      "outputs": [
        {
          "internalType": "address",
          "name": "",
          "type": "address"
        }
      ],
      "stateMutability": "view",
      "type": "function"
    },
    {
      "inputs": [
        {
          "internalType": "address",
          "name": "_user",
          "type": "address"
        }
      ],
      "name": "pendingRewards",
      "outputs": [
        {
          "internalType": "uint256",
          "name": "sum",
          "type": "uint256"
        }
      ],
      "stateMutability": "view",
      "type": "function"
    },
    {
      "inputs": [],
      "name": "pool",
      "outputs": [
        {
          "internalType": "contract ISiriusPool",
          "name": "",
          "type": "address"
        }
      ],
      "stateMutability": "view",
      "type": "function"
    },
    {
      "inputs": [
        {
          "internalType": "uint256",
          "name": "_amount",
          "type": "uint256"
        }
      ],
      "name": "removeLiquidity",
      "outputs": [],
      "stateMutability": "nonpayable",
      "type": "function"
    },
    {
      "inputs": [],
      "name": "renounceOwnership",
      "outputs": [],
      "stateMutability": "nonpayable",
      "type": "function"
    },
    {
      "inputs": [],
      "name": "revenuePool",
      "outputs": [
        {
          "internalType": "uint256",
          "name": "",
          "type": "uint256"
        }
      ],
      "stateMutability": "view",
      "type": "function"
    },
    {
      "inputs": [
        {
          "internalType": "address",
          "name": "",
          "type": "address"
        }
      ],
      "name": "rewardDebt",
      "outputs": [
        {
          "internalType": "uint256",
          "name": "",
          "type": "uint256"
        }
      ],
      "stateMutability": "view",
      "type": "function"
    },
    {
      "inputs": [
        {
          "internalType": "address",
          "name": "",
          "type": "address"
        }
      ],
      "name": "rewards",
      "outputs": [
        {
          "internalType": "uint256",
          "name": "",
          "type": "uint256"
        }
      ],
      "stateMutability": "view",
      "type": "function"
    },
    {
      "inputs": [
        {
          "internalType": "bool",
          "name": "_b",
          "type": "bool"
        }
      ],
      "name": "setAbilityToAddLpAndGauge",
      "outputs": [],
      "stateMutability": "nonpayable",
      "type": "function"
    },
    {
      "inputs": [],
      "name": "srs",
      "outputs": [
        {
          "internalType": "contract IERC20Upgradeable",
          "name": "",
          "type": "address"
        }
      ],
      "stateMutability": "view",
      "type": "function"
    },
    {
      "inputs": [],
      "name": "totalStaked",
      "outputs": [
        {
          "internalType": "uint256",
          "name": "",
          "type": "uint256"
        }
      ],
      "stateMutability": "view",
      "type": "function"
    },
    {
      "inputs": [
        {
          "internalType": "address",
          "name": "newOwner",
          "type": "address"
        }
      ],
      "name": "transferOwnership",
      "outputs": [],
      "stateMutability": "nonpayable",
      "type": "function"
    },
    {
      "inputs": [
        {
          "internalType": "uint256",
          "name": "_amount",
          "type": "uint256"
        },
        {
          "internalType": "bool",
          "name": "_autoWithdraw",
          "type": "bool"
        }
      ],
      "name": "withdrawLP",
      "outputs": [],
      "stateMutability": "nonpayable",
      "type": "function"
    },
    {
      "inputs": [
        {
          "internalType": "uint256",
          "name": "_amount",
          "type": "uint256"
        }
      ],
      "name": "withdrawRevenue",
      "outputs": [],
      "stateMutability": "nonpayable",
      "type": "function"
    },
    {
      "stateMutability": "payable",
      "type": "receive"
    }
  ],
  "bytecode": {
    "object": "0x60806040523480156200001157600080fd5b506200001c62000022565b620000e4565b600054610100900460ff16156200008f5760405162461bcd60e51b815260206004820152602760248201527f496e697469616c697a61626c653a20636f6e747261637420697320696e697469604482015266616c697a696e6760c81b606482015260840160405180910390fd5b60005460ff9081161015620000e2576000805460ff191660ff9081179091556040519081527f7f26b83ff96e1f2b6a682f133852f6798a09c465da95921460cefb38474024989060200160405180910390a15b565b61325880620000f46000396000f3fe6080604052600436106101e75760003560e01c80635873eb9b11610102578063badcccae11610095578063eb37acfc11610064578063eb37acfc146105fa578063eeda25041461061a578063f2fad2b61461062d578063f2fde38b1461065a57600080fd5b8063badcccae14610570578063c75bef0a1461059a578063cfb79ed2146105ba578063e84b902c146105da57600080fd5b8063817b1cd2116100d1578063817b1cd2146104fc5780638da5cb5b146105125780639c8f9f2314610530578063a6f19c841461055057600080fd5b80635873eb9b14610484578063715018a6146104b157806374baa655146104c65780637f753de6146104e657600080fd5b8063313c06a01161017a5780634421bd1e116101495780634421bd1e1461040d57806345418a4e146104225780634e71d92d1461044f578063573219441461046457600080fd5b8063313c06a01461038d57806331d7a262146103ad57806335876476146103cd57806336e9332d146103ed57600080fd5b8063083380b6116101b6578063083380b6146103005780630b65092d146103205780630ceff2041461034d57806316f0115b1461036d57600080fd5b80630322955614610252578063061960aa1461028f5780630700037d146102b357806307546172146102e057600080fd5b3661024d576097546001600160a01b0316331461024b5760405162461bcd60e51b815260206004820152601a60248201527f53656e64696e6720746f6b656e73206e6f7420616c6c6f77656400000000000060448201526064015b60405180910390fd5b005b600080fd5b34801561025e57600080fd5b50609c54610272906001600160a01b031681565b6040516001600160a01b0390911681526020015b60405180910390f35b34801561029b57600080fd5b506102a5609e5481565b604051908152602001610286565b3480156102bf57600080fd5b506102a56102ce366004612c23565b60a36020526000908152604090205481565b3480156102ec57600080fd5b50609d54610272906001600160a01b031681565b34801561030c57600080fd5b506102a561031b366004612c23565b61067a565b34801561032c57600080fd5b506102a561033b366004612c23565b60a16020526000908152604090205481565b34801561035957600080fd5b5061024b610368366004612e4d565b610780565b34801561037957600080fd5b50609754610272906001600160a01b031681565b34801561039957600080fd5b50609954610272906001600160a01b031681565b3480156103b957600080fd5b506102a56103c8366004612c23565b61089b565b3480156103d957600080fd5b5061024b6103e8366004612db8565b610947565b3480156103f957600080fd5b50609854610272906001600160a01b031681565b34801561041957600080fd5b506102a5600a81565b34801561042e57600080fd5b506102a561043d366004612c23565b60a26020526000908152604090205481565b34801561045b57600080fd5b5061024b610adf565b34801561047057600080fd5b5061024b61047f366004612e7d565b610cd7565b34801561049057600080fd5b506102a561049f366004612c23565b60a46020526000908152604090205481565b3480156104bd57600080fd5b5061024b6110f8565b3480156104d257600080fd5b50609a54610272906001600160a01b031681565b3480156104f257600080fd5b506102a5609f5481565b34801561050857600080fd5b506102a560a05481565b34801561051e57600080fd5b506033546001600160a01b0316610272565b34801561053c57600080fd5b5061024b61054b366004612e4d565b611159565b34801561055c57600080fd5b50609b54610272906001600160a01b031681565b34801561057c57600080fd5b5060a55461058a9060ff1681565b6040519015158152602001610286565b3480156105a657600080fd5b5061024b6105b5366004612e4d565b6114f0565b3480156105c657600080fd5b5061024b6105d5366004612e7d565b6117a7565b3480156105e657600080fd5b5061024b6105f5366004612d80565b611981565b34801561060657600080fd5b5061024b610615366004612e4d565b6119c6565b61024b610628366004612c3f565b611de1565b34801561063957600080fd5b5061064d610648366004612e4d565b61231d565b6040516102869190612fad565b34801561066657600080fd5b5061024b610675366004612c23565b6123a4565b60408051600280825260608201835260009283929190602083019080368337019050506097546001600160a01b03858116600090815260a2602090815260408083205460a19092529091205493945091169163f2fad2b6916106db91613139565b6040518263ffffffff1660e01b81526004016106f991815260200190565b60006040518083038186803b15801561071157600080fd5b505afa158015610725573d6000803e3d6000fd5b505050506040513d6000823e601f3d908101601f1916820160405261074d9190810190612cc0565b90508060018151811061077057634e487b7160e01b600052603260045260246000fd5b6020026020010151915050919050565b61078861241a565b609c546040516370a0823160e01b815230600482015282916001600160a01b0316906370a082319060240160206040518083038186803b1580156107cb57600080fd5b505afa1580156107df573d6000803e3d6000fd5b505050506040513d601f19601f820116820180604052508101906108039190612e65565b101561084a5760405162461bcd60e51b81526020600482015260166024820152754e6f7420656e6f7567682053525320726576656e756560501b6044820152606401610242565b6000811161086a5760405162461bcd60e51b815260040161024290612ff3565b80609f600082825461087c9190613190565b9091555050609c54610898906001600160a01b03163383612476565b50565b6001600160a01b038116600090815260a260205260408120548015610925576001600160a01b038316600090815260a46020526040902054609e5464e8d4a51000906108e79084613171565b6108f19190613151565b6001600160a01b038516600090815260a360205260409020546109149190613139565b61091e9190613190565b9150610941565b6001600160a01b038316600090815260a3602052604090205491505b50919050565b600054610100900460ff16158080156109675750600054600160ff909116105b806109815750303b158015610981575060005460ff166001145b6109e45760405162461bcd60e51b815260206004820152602e60248201527f496e697469616c697a61626c653a20636f6e747261637420697320616c72656160448201526d191e481a5b9a5d1a585b1a5e995960921b6064820152608401610242565b6000805460ff191660011790558015610a07576000805461ff0019166101001790555b610a0f6124de565b610a1761250d565b609780546001600160a01b03199081166001600160a01b038b8116919091179092556098805482168a8416179055609980548216898416179055609a80548216888416179055609b80548216878416179055609c80548216868416179055609d8054909116918416919091179055610a8f6001611981565b8015610ad5576000805461ff0019169055604051600181527f7f26b83ff96e1f2b6a682f133852f6798a09c465da95921460cefb38474024989060200160405180910390a15b5050505050505050565b609854604051634269211360e11b81523060048201526000916001600160a01b0316906384d2422690602401602060405180830381600087803b158015610b2557600080fd5b505af1158015610b39573d6000803e3d6000fd5b505050506040513d601f19601f82011682018060405250810190610b5d9190612e65565b90508015610b6d57610b6d61253c565b610b756126fe565b333b158015610b8357503233145b610b9f5760405162461bcd60e51b81526004016102429061302a565b60026065541415610bc25760405162461bcd60e51b8152600401610242906130d9565b600260655533600090815260a36020526040902054610c235760405162461bcd60e51b815260206004820152601760248201527f5573657220686173206e6f20616e7920726577617264730000000000000000006044820152606401610242565b33600090815260a36020526040812054610c3f90600a90613151565b33600090815260a3602052604081205491925090610c5e908390613190565b905081609f6000828254610c729190613139565b909155505033600081815260a36020526040812055609c54610ca0916001600160a01b039091169083612476565b604051819033907f47cee97cb7acd717b3c0aa1435d004cd5b3c8c57d70dbceb4e4458bbd60e39d490600090a35050600160655550565b609854604051634269211360e11b81523060048201526000916001600160a01b0316906384d2422690602401602060405180830381600087803b158015610d1d57600080fd5b505af1158015610d31573d6000803e3d6000fd5b505050506040513d601f19601f82011682018060405250810190610d559190612e65565b90508015610d6557610d6561253c565b610d6d6126fe565b333b158015610d7b57503233145b610d975760405162461bcd60e51b81526004016102429061302a565b33600090815260a26020526040902054831115610df65760405162461bcd60e51b815260206004820152601760248201527f4e6f7420656e6f75676820476175676520746f6b656e730000000000000000006044820152606401610242565b60008311610e165760405162461bcd60e51b815260040161024290613057565b609b5460985460405163095ea7b360e01b81526001600160a01b0391821660048201526024810186905291169063095ea7b390604401602060405180830381600087803b158015610e6657600080fd5b505af1158015610e7a573d6000803e3d6000fd5b505050506040513d601f19601f82011682018060405250810190610e9e9190612d9c565b506099546040516370a0823160e01b81523060048201526000916001600160a01b0316906370a082319060240160206040518083038186803b158015610ee357600080fd5b505afa158015610ef7573d6000803e3d6000fd5b505050506040513d601f19601f82011682018060405250810190610f1b9190612e65565b609854604051631c683a1b60e11b815260048101879052600060248201529192506001600160a01b0316906338d0743690604401600060405180830381600087803b158015610f6957600080fd5b505af1158015610f7d573d6000803e3d6000fd5b50506099546040516370a0823160e01b8152306004820152600093506001600160a01b0390911691506370a082319060240160206040518083038186803b158015610fc757600080fd5b505afa158015610fdb573d6000803e3d6000fd5b505050506040513d601f19601f82011682018060405250810190610fff9190612e65565b9050600061100d8383613190565b33600090815260a26020526040812080549293508892909190611031908490613190565b925050819055508560a0600082825461104a9190613190565b909155505033600090815260a160205260408120805483929061106e908490613139565b9091555050609e5433600090815260a2602052604090205464e8d4a510009161109691613171565b6110a09190613151565b33600090815260a4602052604090205584156110bf576110bf86611159565b60405185151590879033907f707698b04f0e54c638e6bc6e39a7cf7d534be15246dc474a1564a91c702c0b7690600090a4505050505050565b61110061241a565b60405162461bcd60e51b815260206004820152602860248201527f4974206973206e6f7420706f737369626c6520746f2072656e6f756e6365206f6044820152670776e6572736869760c41b6064820152608401610242565b333b15801561116757503233145b6111835760405162461bcd60e51b81526004016102429061302a565b600260655414156111a65760405162461bcd60e51b8152600401610242906130d9565b6002606555806111c85760405162461bcd60e51b815260040161024290612ff3565b33600090815260a160205260409020548111156112175760405162461bcd60e51b815260206004820152600d60248201526c04e6f7420656e6f756768204c5609c1b6044820152606401610242565b60006112228261231d565b60995460975460405163095ea7b360e01b81526001600160a01b03918216600482015260248101869052929350169063095ea7b390604401602060405180830381600087803b15801561127457600080fd5b505af1158015611288573d6000803e3d6000fd5b505050506040513d601f19601f820116820180604052508101906112ac9190612d9c565b50609a546040516370a0823160e01b815230600482015247916000916001600160a01b03909116906370a082319060240160206040518083038186803b1580156112f557600080fd5b505afa158015611309573d6000803e3d6000fd5b505050506040513d601f19601f8201168201806040525081019061132d9190612e65565b6097549091506001600160a01b03166331cd52b0858561134f426104b0613139565b6040518463ffffffff1660e01b815260040161136d93929190613110565b600060405180830381600087803b15801561138757600080fd5b505af115801561139b573d6000803e3d6000fd5b505050506040513d6000823e601f3d908101601f191682016040526113c39190810190612cc0565b50609a546040516370a0823160e01b815230600482015247916000916001600160a01b03909116906370a082319060240160206040518083038186803b15801561140c57600080fd5b505afa158015611420573d6000803e3d6000fd5b505050506040513d601f19601f820116820180604052508101906114449190612e65565b905060006114528483613190565b905060006114608685613190565b33600090815260a16020526040812080549293508a92909190611484908490613190565b9091555050609a546114a0906001600160a01b03163384612476565b6114aa33826127c7565b604051888152819033907f0fbf06c058b90cb038a618f8c2acbf6145f8b3570fd1fa56abb8f0f3f05b36e89060200160405180910390a350506001606555505050505050565b609854604051634269211360e11b81523060048201526000916001600160a01b0316906384d2422690602401602060405180830381600087803b15801561153657600080fd5b505af115801561154a573d6000803e3d6000fd5b505050506040513d601f19601f8201168201806040525081019061156e9190612e65565b9050801561157e5761157e61253c565b6115866126fe565b333b15801561159457503233145b6115b05760405162461bcd60e51b81526004016102429061302a565b600260655414156115d35760405162461bcd60e51b8152600401610242906130d9565b600260655560a55460ff166116235760405162461bcd60e51b8152602060048201526016602482015275119d5b98dd1a5bdb985b1a5d1e48191a5cd8589b195960521b6044820152606401610242565b609b546040516370a0823160e01b815233600482015283916001600160a01b0316906370a082319060240160206040518083038186803b15801561166657600080fd5b505afa15801561167a573d6000803e3d6000fd5b505050506040513d601f19601f8201168201806040525081019061169e9190612e65565b10156116ec5760405162461bcd60e51b815260206004820152601b60248201527f4e6f7420656e6f756768204761756765206f6e2062616c616e636500000000006044820152606401610242565b6000821161170c5760405162461bcd60e51b815260040161024290613057565b609b54611724906001600160a01b03163330856128e0565b33600090815260a2602052604081208054849290611743908490613139565b925050819055508160a0600082825461175c9190613139565b9091555050609e5433600090815260a2602052604090205464e8d4a510009161178491613171565b61178e9190613151565b33600090815260a4602052604090205550506001606555565b333b1580156117b557503233145b6117d15760405162461bcd60e51b81526004016102429061302a565b600260655414156117f45760405162461bcd60e51b8152600401610242906130d9565b600260655560a55460ff166118445760405162461bcd60e51b8152602060048201526016602482015275119d5b98dd1a5bdb985b1a5d1e48191a5cd8589b195960521b6044820152606401610242565b6099546040516370a0823160e01b815233600482015283916001600160a01b0316906370a082319060240160206040518083038186803b15801561188757600080fd5b505afa15801561189b573d6000803e3d6000fd5b505050506040513d601f19601f820116820180604052508101906118bf9190612e65565b101561190d5760405162461bcd60e51b815260206004820152601860248201527f4e6f7420656e6f756768204c50206f6e2062616c616e636500000000000000006044820152606401610242565b6000821161192d5760405162461bcd60e51b815260040161024290613057565b609954611945906001600160a01b03163330856128e0565b33600090815260a1602052604081208054849290611964908490613139565b9091555050801561197857611978826119c6565b50506001606555565b61198961241a565b60a5805460ff19168215159081179091556040517fc9a34b04a94880f16c28b61d1d7b6ca0b7f3d8c5743def715f1fb4e6ac539f5c90600090a250565b609854604051634269211360e11b81523060048201526000916001600160a01b0316906384d2422690602401602060405180830381600087803b158015611a0c57600080fd5b505af1158015611a20573d6000803e3d6000fd5b505050506040513d601f19601f82011682018060405250810190611a449190612e65565b90508015611a5457611a5461253c565b611a5c6126fe565b333b158015611a6a57503233145b611a865760405162461bcd60e51b81526004016102429061302a565b33600090815260a16020526040902054821115611adc5760405162461bcd60e51b81526020600482015260146024820152734e6f7420656e6f756768204c5020746f6b656e7360601b6044820152606401610242565b60008211611afc5760405162461bcd60e51b815260040161024290612ff3565b33600090815260a1602052604081208054849290611b1b908490613190565b909155505060995460985460405163095ea7b360e01b81526001600160a01b0391821660048201526024810185905291169063095ea7b390604401602060405180830381600087803b158015611b7057600080fd5b505af1158015611b84573d6000803e3d6000fd5b505050506040513d601f19601f82011682018060405250810190611ba89190612d9c565b50609b546040516370a0823160e01b81523060048201526000916001600160a01b0316906370a082319060240160206040518083038186803b158015611bed57600080fd5b505afa158015611c01573d6000803e3d6000fd5b505050506040513d601f19601f82011682018060405250810190611c259190612e65565b6098546040516383df674760e01b815260048101869052306024820152600060448201529192506001600160a01b0316906383df674790606401600060405180830381600087803b158015611c7957600080fd5b505af1158015611c8d573d6000803e3d6000fd5b5050609b546040516370a0823160e01b8152306004820152600093506001600160a01b0390911691506370a082319060240160206040518083038186803b158015611cd757600080fd5b505afa158015611ceb573d6000803e3d6000fd5b505050506040513d601f19601f82011682018060405250810190611d0f9190612e65565b90506000611d1d8383613190565b33600090815260a26020526040812080549293508392909190611d41908490613139565b925050819055508060a06000828254611d5a9190613139565b9091555050609e5433600090815260a2602052604090205464e8d4a5100091611d8291613171565b611d8c9190613151565b33600081815260a46020526040908190209290925590517fa76194b11cf7b940f18e866ed3382a795bb09ca684db1b957d595417f63151f890611dd29088815260200190565b60405180910390a25050505050565b333b158015611def57503233145b611e0b5760405162461bcd60e51b81526004016102429061302a565b60026065541415611e2e5760405162461bcd60e51b8152600401610242906130d9565b60026065558282600081611e5257634e487b7160e01b600052603260045260246000fd5b905060200201353414611ebf5760405162461bcd60e51b815260206004820152602f60248201527f56616c7565206e65656420746f20626520657175616c20746f20616d6f756e7460448201526e206f66204153545220746f6b656e7360881b6064820152608401610242565b600083836000818110611ee257634e487b7160e01b600052603260045260246000fd5b90506020020135118015611f1d5750600083836001818110611f1457634e487b7160e01b600052603260045260246000fd5b90506020020135115b611f7f5760405162461bcd60e51b815260206004820152602d60248201527f416d6f756e7473206f6620746f6b656e732073686f756c64206265206772656160448201526c746572207468616e207a65726f60981b6064820152608401610242565b60028214611fe25760405162461bcd60e51b815260206004820152602a60248201527f546865206c656e677468206f6620616d6f756e7473206d75737420626520657160448201526975616c20746f2074776f60b01b6064820152608401610242565b61202533308585600181811061200857634e487b7160e01b600052603260045260246000fd5b609a546001600160a01b03169493926020909102013590506128e0565b609754604051637355940360e11b81526000916001600160a01b03169063e6ab28069061205b9087908790600190600401612f60565b60206040518083038186803b15801561207357600080fd5b505afa158015612087573d6000803e3d6000fd5b505050506040513d601f19601f820116820180604052508101906120ab9190612e65565b9050600081116121165760405162461bcd60e51b815260206004820152603060248201527f43616c63756c61746564204c5020616d6f756e742073686f756c64206265206760448201526f726561746572207468616e207a65726f60801b6064820152608401610242565b6000600a612125836009613171565b61212f9190613151565b609a546097549192506001600160a01b039081169163095ea7b391168787600181811061216c57634e487b7160e01b600052603260045260246000fd5b6040516001600160e01b031960e087901b1681526001600160a01b0390941660048501526020029190910135602483015250604401602060405180830381600087803b1580156121bb57600080fd5b505af11580156121cf573d6000803e3d6000fd5b505050506040513d601f19601f820116820180604052508101906121f39190612d9c565b506097546000906001600160a01b0316634d49e87d34888886612218426104b0613139565b6040518663ffffffff1660e01b81526004016122379493929190612f86565b6020604051808303818588803b15801561225057600080fd5b505af1158015612264573d6000803e3d6000fd5b50505050506040513d601f19601f820116820180604052508101906122899190612e65565b33600090815260a160205260408120805492935083929091906122ad908490613139565b909155505083156122c1576122c1816119c6565b8086866040516122d2929190612f1a565b60405190819003812086151582529033907ff520a5e3ac0bf513a224870ae89423c69b6f5feba4047712e457f8fadf498c849060200160405180910390a45050600160655550505050565b60975460405163797d695b60e11b8152600481018390526060916001600160a01b03169063f2fad2b69060240160006040518083038186803b15801561236257600080fd5b505afa158015612376573d6000803e3d6000fd5b505050506040513d6000823e601f3d908101601f1916820160405261239e9190810190612cc0565b92915050565b6123ac61241a565b6001600160a01b0381166124115760405162461bcd60e51b815260206004820152602660248201527f4f776e61626c653a206e6577206f776e657220697320746865207a65726f206160448201526564647265737360d01b6064820152608401610242565b6108988161291e565b6033546001600160a01b031633146124745760405162461bcd60e51b815260206004820181905260248201527f4f776e61626c653a2063616c6c6572206973206e6f7420746865206f776e65726044820152606401610242565b565b6040516001600160a01b0383166024820152604481018290526124d990849063a9059cbb60e01b906064015b60408051601f198184030181529190526020810180516001600160e01b03166001600160e01b031990931692909217909152612970565b505050565b600054610100900460ff166125055760405162461bcd60e51b81526004016102429061308e565b612474612a42565b600054610100900460ff166125345760405162461bcd60e51b81526004016102429061308e565b612474612a72565b609c546040516370a0823160e01b81523060048201526000916001600160a01b0316906370a082319060240160206040518083038186803b15801561258057600080fd5b505afa158015612594573d6000803e3d6000fd5b505050506040513d601f19601f820116820180604052508101906125b89190612e65565b609d54609b546040516335313c2160e11b81526001600160a01b0391821660048201529293501690636a62784290602401600060405180830381600087803b15801561260357600080fd5b505af1158015612617573d6000803e3d6000fd5b5050609c546040516370a0823160e01b8152306004820152600093506001600160a01b0390911691506370a082319060240160206040518083038186803b15801561266157600080fd5b505afa158015612675573d6000803e3d6000fd5b505050506040513d601f19601f820116820180604052508101906126999190612e65565b905060008282116126ab5760006126b5565b6126b58383613190565b905060a054600014156126c757505050565b60a0546126d964e8d4a5100083613171565b6126e39190613151565b609e60008282546126f49190613139565b9091555050505050565b33600090815260a2602090815260408083205460a4909252822054609e5491929164e8d4a51000906127309085613171565b61273a9190613151565b6127449190613190565b905064e8d4a51000609e548361275a9190613171565b6127649190613151565b33600090815260a4602090815260408083209390935560a390529081208054839290612791908490613139565b9091555050604051819033907fdaaebb9609cb2f719c59c9d334be287bf4def107ad3dec4a6f90d8abaa94c73c90600090a35050565b804710156128175760405162461bcd60e51b815260206004820152601d60248201527f416464726573733a20696e73756666696369656e742062616c616e63650000006044820152606401610242565b6000826001600160a01b03168260405160006040518083038185875af1925050503d8060008114612864576040519150601f19603f3d011682016040523d82523d6000602084013e612869565b606091505b50509050806124d95760405162461bcd60e51b815260206004820152603a60248201527f416464726573733a20756e61626c6520746f2073656e642076616c75652c207260448201527f6563697069656e74206d617920686176652072657665727465640000000000006064820152608401610242565b6040516001600160a01b03808516602483015283166044820152606481018290526129189085906323b872dd60e01b906084016124a2565b50505050565b603380546001600160a01b038381166001600160a01b0319831681179093556040519116919082907f8be0079c531659141344cd1fd0a4f28419497f9722a3daafe3b4186f6b6457e090600090a35050565b60006129c5826040518060400160405280602081526020017f5361666545524332303a206c6f772d6c6576656c2063616c6c206661696c6564815250856001600160a01b0316612aa09092919063ffffffff16565b8051909150156124d957808060200190518101906129e39190612d9c565b6124d95760405162461bcd60e51b815260206004820152602a60248201527f5361666545524332303a204552433230206f7065726174696f6e20646964206e6044820152691bdd081cdd58d8d9595960b21b6064820152608401610242565b600054610100900460ff16612a695760405162461bcd60e51b81526004016102429061308e565b6124743361291e565b600054610100900460ff16612a995760405162461bcd60e51b81526004016102429061308e565b6001606555565b6060612aaf8484600085612ab9565b90505b9392505050565b606082471015612b1a5760405162461bcd60e51b815260206004820152602660248201527f416464726573733a20696e73756666696369656e742062616c616e636520666f6044820152651c8818d85b1b60d21b6064820152608401610242565b6001600160a01b0385163b612b715760405162461bcd60e51b815260206004820152601d60248201527f416464726573733a2063616c6c20746f206e6f6e2d636f6e74726163740000006044820152606401610242565b600080866001600160a01b03168587604051612b8d9190612f44565b60006040518083038185875af1925050503d8060008114612bca576040519150601f19603f3d011682016040523d82523d6000602084013e612bcf565b606091505b5091509150612bdf828286612bea565b979650505050505050565b60608315612bf9575081612ab2565b825115612c095782518084602001fd5b8160405162461bcd60e51b81526004016102429190612fc0565b600060208284031215612c34578081fd5b8135612ab2816131ff565b600080600060408486031215612c53578182fd5b833567ffffffffffffffff80821115612c6a578384fd5b818601915086601f830112612c7d578384fd5b813581811115612c8b578485fd5b8760208260051b8501011115612c9f578485fd5b60209283019550935050840135612cb581613214565b809150509250925092565b60006020808385031215612cd2578182fd5b825167ffffffffffffffff80821115612ce9578384fd5b818501915085601f830112612cfc578384fd5b815181811115612d0e57612d0e6131e9565b8060051b604051601f19603f83011681018181108582111715612d3357612d336131e9565b604052828152858101935084860182860187018a1015612d51578788fd5b8795505b83861015612d73578051855260019590950194938601938601612d55565b5098975050505050505050565b600060208284031215612d91578081fd5b8135612ab281613214565b600060208284031215612dad578081fd5b8151612ab281613214565b600080600080600080600060e0888a031215612dd2578283fd5b8735612ddd816131ff565b96506020880135612ded816131ff565b95506040880135612dfd816131ff565b94506060880135612e0d816131ff565b93506080880135612e1d816131ff565b925060a0880135612e2d816131ff565b915060c0880135612e3d816131ff565b8091505092959891949750929550565b600060208284031215612e5e578081fd5b5035919050565b600060208284031215612e76578081fd5b5051919050565b60008060408385031215612e8f578182fd5b823591506020830135612ea181613214565b809150509250929050565b81835260006001600160fb1b03831115612ec4578081fd5b8260051b80836020870137939093016020019283525090919050565b6000815180845260208085019450808401835b83811015612f0f57815187529582019590820190600101612ef3565b509495945050505050565b60006001600160fb1b03831115612f2f578081fd5b8260051b808584379190910190815292915050565b60008251612f568184602087016131a7565b9190910192915050565b604081526000612f74604083018587612eac565b90508215156020830152949350505050565b606081526000612f9a606083018688612eac565b6020830194909452506040015292915050565b602081526000612ab26020830184612ee0565b6020815260008251806020840152612fdf8160408501602087016131a7565b601f01601f19169190910160400192915050565b6020808252601b908201527f53686f756c642062652067726561746572207468616e207a65726f0000000000604082015260600190565b602080825260139082015272416c6c6f7773206f6e6c7920666f7220454f4160681b604082015260600190565b6020808252601a908201527f53686f75642062652067726561746572207468616e207a65726f000000000000604082015260600190565b6020808252602b908201527f496e697469616c697a61626c653a20636f6e7472616374206973206e6f74206960408201526a6e697469616c697a696e6760a81b606082015260800190565b6020808252601f908201527f5265656e7472616e637947756172643a207265656e7472616e742063616c6c00604082015260600190565b8381526060602082015260006131296060830185612ee0565b9050826040830152949350505050565b6000821982111561314c5761314c6131d3565b500190565b60008261316c57634e487b7160e01b81526012600452602481fd5b500490565b600081600019048311821515161561318b5761318b6131d3565b500290565b6000828210156131a2576131a26131d3565b500390565b60005b838110156131c25781810151838201526020016131aa565b838111156129185750506000910152565b634e487b7160e01b600052601160045260246000fd5b634e487b7160e01b600052604160045260246000fd5b6001600160a01b038116811461089857600080fd5b801515811461089857600080fdfea2646970667358221220268132747371e4ce22a351daefbe808dceec05f766d898a3c8a930912ad4ac3a64736f6c63430008040033",
    "linkReferences": {}
  },
  "methodIdentifiers": {
    "REVENUE_FEE()": "4421bd1e",
    "abilityToAddLpAndGauge()": "badcccae",
    "accumulatedRewardsPerShare()": "061960aa",
    "addGauge(uint256)": "c75bef0a",
    "addLiquidity(uint256[],bool)": "eeda2504",
    "addLp(uint256,bool)": "cfb79ed2",
    "calc(address)": "083380b6",
    "calculateRemoveLiquidity(uint256)": "f2fad2b6",
    "claim()": "4e71d92d",
    "depositLP(uint256)": "eb37acfc",
    "farm()": "36e9332d",
    "gauge()": "a6f19c84",
    "gaugeBalances(address)": "45418a4e",
    "initialize(address,address,address,address,address,address,address)": "35876476",
    "lp()": "313c06a0",
    "lpBalances(address)": "0b65092d",
    "minter()": "07546172",
    "nToken()": "74baa655",
    "owner()": "8da5cb5b",
    "pendingRewards(address)": "31d7a262",
    "pool()": "16f0115b",
    "removeLiquidity(uint256)": "9c8f9f23",
    "renounceOwnership()": "715018a6",
    "revenuePool()": "7f753de6",
    "rewardDebt(address)": "5873eb9b",
    "rewards(address)": "0700037d",
    "setAbilityToAddLpAndGauge(bool)": "e84b902c",
    "srs()": "03229556",
    "totalStaked()": "817b1cd2",
    "transferOwnership(address)": "f2fde38b",
    "withdrawLP(uint256,bool)": "57321944",
    "withdrawRevenue(uint256)": "0ceff204"
  },
  "id": 4
}