{
  "abi": [
    {
      "inputs": [],
      "stateMutability": "nonpayable",
      "type": "constructor"
    },
    {
      "anonymous": false,
      "inputs": [
        {
          "indexed": true,
          "internalType": "address",
          "name": "user",
          "type": "address"
        },
        {
          "indexed": true,
          "internalType": "uint256[]",
          "name": "amounts",
          "type": "uint256[]"
        },
        {
          "indexed": false,
          "internalType": "bool",
          "name": "autoStake",
          "type": "bool"
        },
        {
          "indexed": true,
          "internalType": "uint256",
          "name": "lpAmount",
          "type": "uint256"
        }
      ],
      "name": "AddLiquidity",
      "type": "event"
    },
    {
      "anonymous": false,
      "inputs": [
        {
          "indexed": true,
          "internalType": "address",
          "name": "user",
          "type": "address"
        },
        {
          "indexed": true,
          "internalType": "uint256",
          "name": "amount",
          "type": "uint256"
        }
      ],
      "name": "Claim",
      "type": "event"
    },
    {
      "anonymous": false,
      "inputs": [
        {
          "indexed": true,
          "internalType": "address",
          "name": "",
          "type": "address"
        },
        {
          "indexed": false,
          "internalType": "uint256",
          "name": "amount",
          "type": "uint256"
        }
      ],
      "name": "DepositLP",
      "type": "event"
    },
    {
      "anonymous": false,
      "inputs": [
        {
          "indexed": true,
          "internalType": "address",
          "name": "user",
          "type": "address"
        },
        {
          "indexed": true,
          "internalType": "uint256",
          "name": "rewardsToHarvest",
          "type": "uint256"
        }
      ],
      "name": "HarvestRewards",
      "type": "event"
    },
    {
      "anonymous": false,
      "inputs": [
        {
          "indexed": false,
          "internalType": "uint8",
          "name": "version",
          "type": "uint8"
        }
      ],
      "name": "Initialized",
      "type": "event"
    },
    {
      "anonymous": false,
      "inputs": [
        {
          "indexed": true,
          "internalType": "address",
          "name": "previousOwner",
          "type": "address"
        },
        {
          "indexed": true,
          "internalType": "address",
          "name": "newOwner",
          "type": "address"
        }
      ],
      "name": "OwnershipTransferred",
      "type": "event"
    },
    {
      "anonymous": false,
      "inputs": [
        {
          "indexed": true,
          "internalType": "address",
          "name": "user",
          "type": "address"
        },
        {
          "indexed": false,
          "internalType": "uint256",
          "name": "amountLP",
          "type": "uint256"
        },
        {
          "indexed": true,
          "internalType": "uint256",
          "name": "receivedASTR",
          "type": "uint256"
        }
      ],
      "name": "RemoveLiquidity",
      "type": "event"
    },
    {
      "anonymous": false,
      "inputs": [
        {
          "indexed": true,
          "internalType": "bool",
          "name": "_b",
          "type": "bool"
        }
      ],
      "name": "SetAbilityToAddLpAndGauge",
      "type": "event"
    },
    {
      "anonymous": false,
      "inputs": [
        {
          "indexed": false,
          "internalType": "address",
          "name": "user",
          "type": "address"
        },
        {
          "indexed": false,
          "internalType": "string",
          "name": "utilityName",
          "type": "string"
        },
        {
          "indexed": false,
          "internalType": "uint256",
          "name": "amount",
          "type": "uint256"
        },
        {
          "indexed": false,
          "internalType": "string",
          "name": "reason",
          "type": "string"
        }
      ],
      "name": "UpdateBalError",
      "type": "event"
    },
    {
      "anonymous": false,
      "inputs": [
        {
          "indexed": false,
          "internalType": "address",
          "name": "user",
          "type": "address"
        },
        {
          "indexed": false,
          "internalType": "string",
          "name": "utilityName",
          "type": "string"
        },
        {
          "indexed": false,
          "internalType": "uint256",
          "name": "amount",
          "type": "uint256"
        }
      ],
      "name": "UpdateBalSuccess",
      "type": "event"
    },
    {
      "anonymous": false,
      "inputs": [
        {
          "indexed": true,
          "internalType": "address",
          "name": "user",
          "type": "address"
        },
        {
          "indexed": true,
          "internalType": "uint256",
          "name": "amount",
          "type": "uint256"
        },
        {
          "indexed": true,
          "internalType": "bool",
          "name": "autoWithdraw",
          "type": "bool"
        }
      ],
      "name": "WithdrawLP",
      "type": "event"
    },
    {
      "inputs": [],
      "name": "REVENUE_FEE",
      "outputs": [
        {
          "internalType": "uint256",
          "name": "",
          "type": "uint256"
        }
      ],
      "stateMutability": "view",
      "type": "function"
    },
    {
      "inputs": [],
      "name": "abilityToAddLpAndGauge",
      "outputs": [
        {
          "internalType": "bool",
          "name": "",
          "type": "bool"
        }
      ],
      "stateMutability": "view",
      "type": "function"
    },
    {
      "inputs": [],
      "name": "accumulatedRewardsPerShare",
      "outputs": [
        {
          "internalType": "uint256",
          "name": "",
          "type": "uint256"
        }
      ],
      "stateMutability": "view",
      "type": "function"
    },
    {
      "inputs": [],
      "name": "adaptersDistributor",
      "outputs": [
        {
          "internalType": "contract IAdaptersDistributor",
          "name": "",
          "type": "address"
        }
      ],
      "stateMutability": "view",
      "type": "function"
    },
    {
      "inputs": [
        {
          "internalType": "uint256",
          "name": "_amount",
          "type": "uint256"
        }
      ],
      "name": "addGauge",
      "outputs": [],
      "stateMutability": "nonpayable",
      "type": "function"
    },
    {
      "inputs": [
        {
          "internalType": "uint256[]",
          "name": "_amounts",
          "type": "uint256[]"
        },
        {
          "internalType": "bool",
          "name": "_autoStake",
          "type": "bool"
        }
      ],
      "name": "addLiquidity",
      "outputs": [],
      "stateMutability": "payable",
      "type": "function"
    },
    {
      "inputs": [
        {
          "internalType": "uint256",
          "name": "_amount",
          "type": "uint256"
        },
        {
          "internalType": "bool",
          "name": "_autoDeposit",
          "type": "bool"
        }
      ],
      "name": "addLp",
      "outputs": [],
      "stateMutability": "nonpayable",
      "type": "function"
    },
    {
      "inputs": [
        {
          "internalType": "address",
          "name": "_user",
          "type": "address"
        }
      ],
      "name": "calc",
      "outputs": [
        {
          "internalType": "uint256",
          "name": "nShare",
          "type": "uint256"
        }
      ],
      "stateMutability": "view",
      "type": "function"
    },
    {
      "inputs": [
        {
          "internalType": "uint256",
          "name": "_lpAmount",
          "type": "uint256"
        }
      ],
      "name": "calculateRemoveLiquidity",
      "outputs": [
        {
          "internalType": "uint256[]",
          "name": "",
          "type": "uint256[]"
        }
      ],
      "stateMutability": "view",
      "type": "function"
    },
    {
      "inputs": [],
      "name": "claim",
      "outputs": [],
      "stateMutability": "nonpayable",
      "type": "function"
    },
    {
      "inputs": [
        {
          "internalType": "uint256",
          "name": "_amount",
          "type": "uint256"
        }
      ],
      "name": "depositLP",
      "outputs": [],
      "stateMutability": "nonpayable",
      "type": "function"
    },
    {
      "inputs": [],
      "name": "farm",
      "outputs": [
        {
          "internalType": "contract ISiriusFarm",
          "name": "",
          "type": "address"
        }
      ],
      "stateMutability": "view",
      "type": "function"
    },
    {
      "inputs": [],
      "name": "gauge",
      "outputs": [
        {
          "internalType": "contract IERC20Upgradeable",
          "name": "",
          "type": "address"
        }
      ],
      "stateMutability": "view",
      "type": "function"
    },
    {
      "inputs": [
        {
          "internalType": "address",
          "name": "",
          "type": "address"
        }
      ],
      "name": "gaugeBalances",
      "outputs": [
        {
          "internalType": "uint256",
          "name": "",
          "type": "uint256"
        }
      ],
      "stateMutability": "view",
      "type": "function"
    },
    {
      "inputs": [
        {
          "internalType": "contract ISiriusPool",
          "name": "_pool",
          "type": "address"
        },
        {
          "internalType": "contract ISiriusFarm",
          "name": "_farm",
          "type": "address"
        },
        {
          "internalType": "contract IERC20Upgradeable",
          "name": "_lp",
          "type": "address"
        },
        {
          "internalType": "contract IERC20Upgradeable",
          "name": "_nToken",
          "type": "address"
        },
        {
          "internalType": "contract IERC20Upgradeable",
          "name": "_gauge",
          "type": "address"
        },
        {
          "internalType": "contract IERC20Upgradeable",
          "name": "_srs",
          "type": "address"
        },
        {
          "internalType": "contract IMinter",
          "name": "_minter",
          "type": "address"
        }
      ],
      "name": "initialize",
      "outputs": [],
      "stateMutability": "nonpayable",
      "type": "function"
    },
    {
      "inputs": [],
      "name": "lp",
      "outputs": [
        {
          "internalType": "contract IERC20Upgradeable",
          "name": "",
          "type": "address"
        }
      ],
      "stateMutability": "view",
      "type": "function"
    },
    {
      "inputs": [
        {
          "internalType": "address",
          "name": "",
          "type": "address"
        }
      ],
      "name": "lpBalances",
      "outputs": [
        {
          "internalType": "uint256",
          "name": "",
          "type": "uint256"
        }
      ],
      "stateMutability": "view",
      "type": "function"
    },
    {
      "inputs": [],
      "name": "minter",
      "outputs": [
        {
          "internalType": "contract IMinter",
          "name": "",
          "type": "address"
        }
      ],
      "stateMutability": "view",
      "type": "function"
    },
    {
      "inputs": [],
      "name": "nToken",
      "outputs": [
        {
          "internalType": "contract IERC20Upgradeable",
          "name": "",
          "type": "address"
        }
      ],
      "stateMutability": "view",
      "type": "function"
    },
    {
      "inputs": [],
      "name": "owner",
      "outputs": [
        {
          "internalType": "address",
          "name": "",
          "type": "address"
        }
      ],
      "stateMutability": "view",
      "type": "function"
    },
    {
      "inputs": [
        {
          "internalType": "address",
          "name": "_user",
          "type": "address"
        }
      ],
      "name": "pendingRewards",
      "outputs": [
        {
          "internalType": "uint256",
          "name": "sum",
          "type": "uint256"
        }
      ],
      "stateMutability": "view",
      "type": "function"
    },
    {
      "inputs": [],
      "name": "pool",
      "outputs": [
        {
          "internalType": "contract ISiriusPool",
          "name": "",
          "type": "address"
        }
      ],
      "stateMutability": "view",
      "type": "function"
    },
    {
      "inputs": [
        {
          "internalType": "uint256",
          "name": "_amount",
          "type": "uint256"
        }
      ],
      "name": "removeLiquidity",
      "outputs": [],
      "stateMutability": "nonpayable",
      "type": "function"
    },
    {
      "inputs": [],
      "name": "renounceOwnership",
      "outputs": [],
      "stateMutability": "nonpayable",
      "type": "function"
    },
    {
      "inputs": [],
      "name": "revenuePool",
      "outputs": [
        {
          "internalType": "uint256",
          "name": "",
          "type": "uint256"
        }
      ],
      "stateMutability": "view",
      "type": "function"
    },
    {
      "inputs": [
        {
          "internalType": "address",
          "name": "",
          "type": "address"
        }
      ],
      "name": "rewardDebt",
      "outputs": [
        {
          "internalType": "uint256",
          "name": "",
          "type": "uint256"
        }
      ],
      "stateMutability": "view",
      "type": "function"
    },
    {
      "inputs": [
        {
          "internalType": "address",
          "name": "",
          "type": "address"
        }
      ],
      "name": "rewards",
      "outputs": [
        {
          "internalType": "uint256",
          "name": "",
          "type": "uint256"
        }
      ],
      "stateMutability": "view",
      "type": "function"
    },
    {
      "inputs": [
        {
          "internalType": "bool",
          "name": "_b",
          "type": "bool"
        }
      ],
      "name": "setAbilityToAddLpAndGauge",
      "outputs": [],
      "stateMutability": "nonpayable",
      "type": "function"
    },
    {
      "inputs": [
        {
          "internalType": "contract IAdaptersDistributor",
          "name": "_adaptersDistributor",
          "type": "address"
        }
      ],
      "name": "setAdaptersDistributor",
      "outputs": [],
      "stateMutability": "nonpayable",
      "type": "function"
    },
    {
      "inputs": [
        {
          "internalType": "string",
          "name": "_utilityName",
          "type": "string"
        }
      ],
      "name": "setUtilityName",
      "outputs": [],
      "stateMutability": "nonpayable",
      "type": "function"
    },
    {
      "inputs": [],
      "name": "srs",
      "outputs": [
        {
          "internalType": "contract IERC20Upgradeable",
          "name": "",
          "type": "address"
        }
      ],
      "stateMutability": "view",
      "type": "function"
    },
    {
      "inputs": [],
      "name": "totalStaked",
      "outputs": [
        {
          "internalType": "uint256",
          "name": "",
          "type": "uint256"
        }
      ],
      "stateMutability": "view",
      "type": "function"
    },
    {
      "inputs": [],
      "name": "totalStakedASTR",
      "outputs": [
        {
          "internalType": "uint256",
          "name": "",
          "type": "uint256"
        }
      ],
      "stateMutability": "view",
      "type": "function"
    },
    {
      "inputs": [
        {
          "internalType": "address",
          "name": "newOwner",
          "type": "address"
        }
      ],
      "name": "transferOwnership",
      "outputs": [],
      "stateMutability": "nonpayable",
      "type": "function"
    },
    {
      "inputs": [],
      "name": "utilityName",
      "outputs": [
        {
          "internalType": "string",
          "name": "",
          "type": "string"
        }
      ],
      "stateMutability": "view",
      "type": "function"
    },
    {
      "inputs": [
        {
          "internalType": "uint256",
          "name": "_amount",
          "type": "uint256"
        },
        {
          "internalType": "bool",
          "name": "_autoWithdraw",
          "type": "bool"
        }
      ],
      "name": "withdrawLP",
      "outputs": [],
      "stateMutability": "nonpayable",
      "type": "function"
    },
    {
      "inputs": [
        {
          "internalType": "uint256",
          "name": "_amount",
          "type": "uint256"
        }
      ],
      "name": "withdrawRevenue",
      "outputs": [],
      "stateMutability": "nonpayable",
      "type": "function"
    },
    {
      "stateMutability": "payable",
      "type": "receive"
    }
  ],
  "bytecode": {
    "object": "0x60806040523480156200001157600080fd5b506200001c62000022565b620000e4565b600054610100900460ff16156200008f5760405162461bcd60e51b815260206004820152602760248201527f496e697469616c697a61626c653a20636f6e747261637420697320696e697469604482015266616c697a696e6760c81b606482015260840160405180910390fd5b60005460ff9081161015620000e2576000805460ff191660ff9081179091556040519081527f7f26b83ff96e1f2b6a682f133852f6798a09c465da95921460cefb38474024989060200160405180910390a15b565b61393980620000f46000396000f3fe60806040526004361061021e5760003560e01c80634e71d92d11610123578063a6f19c84116100ab578063e84b902c1161006f578063e84b902c146106ad578063eb37acfc146106cd578063eeda2504146106ed578063f2fad2b614610700578063f2fde38b1461072d57600080fd5b8063a6f19c8414610603578063abd7797514610623578063badcccae14610643578063c75bef0a1461066d578063cfb79ed21461068d57600080fd5b806374baa655116100f257806374baa655146105795780637f753de614610599578063817b1cd2146105af5780638da5cb5b146105c55780639c8f9f23146105e357600080fd5b80634e71d92d1461050257806357321944146105175780635873eb9b14610537578063715018a61461056457600080fd5b80632bb3526e116101a657806336e9332d1161017557806336e9332d1461045b5780633ea5856f1461047b57806343a37564146104a05780634421bd1e146104c057806345418a4e146104d557600080fd5b80632bb3526e146103d9578063313c06a0146103fb57806331d7a2621461041b578063358764761461043b57600080fd5b8063083380b6116101ed578063083380b6146103375780630b65092d146103575780630ceff2041461038457806316f0115b146103a45780631a1fb232146103c457600080fd5b80630322955614610289578063061960aa146102c65780630700037d146102ea578063075461721461031757600080fd5b36610284576097546001600160a01b031633146102825760405162461bcd60e51b815260206004820152601a60248201527f53656e64696e6720746f6b656e73206e6f7420616c6c6f77656400000000000060448201526064015b60405180910390fd5b005b600080fd5b34801561029557600080fd5b50609c546102a9906001600160a01b031681565b6040516001600160a01b0390911681526020015b60405180910390f35b3480156102d257600080fd5b506102dc609e5481565b6040519081526020016102bd565b3480156102f657600080fd5b506102dc6103053660046130af565b60a36020526000908152604090205481565b34801561032357600080fd5b50609d546102a9906001600160a01b031681565b34801561034357600080fd5b506102dc6103523660046130af565b61074d565b34801561036357600080fd5b506102dc6103723660046130af565b60a16020526000908152604090205481565b34801561039057600080fd5b5061028261039f366004613356565b610853565b3480156103b057600080fd5b506097546102a9906001600160a01b031681565b3480156103d057600080fd5b506102dc61099e565b3480156103e557600080fd5b506103ee610b0a565b6040516102bd9190613603565b34801561040757600080fd5b506099546102a9906001600160a01b031681565b34801561042757600080fd5b506102dc6104363660046130af565b610b98565b34801561044757600080fd5b50610282610456366004613230565b610c44565b34801561046757600080fd5b506098546102a9906001600160a01b031681565b34801561048757600080fd5b5060a5546102a99061010090046001600160a01b031681565b3480156104ac57600080fd5b506102826104bb3660046130af565b610ddc565b3480156104cc57600080fd5b506102dc600a81565b3480156104e157600080fd5b506102dc6104f03660046130af565b60a26020526000908152604090205481565b34801561050e57600080fd5b50610282610e0c565b34801561052357600080fd5b50610282610532366004613386565b610fda565b34801561054357600080fd5b506102dc6105523660046130af565b60a46020526000908152604090205481565b34801561057057600080fd5b506102826113db565b34801561058557600080fd5b50609a546102a9906001600160a01b031681565b3480156105a557600080fd5b506102dc609f5481565b3480156105bb57600080fd5b506102dc60a05481565b3480156105d157600080fd5b506033546001600160a01b03166102a9565b3480156105ef57600080fd5b506102826105fe366004613356565b61143c565b34801561060f57600080fd5b50609b546102a9906001600160a01b031681565b34801561062f57600080fd5b5061028261063e3660046132c5565b6117e3565b34801561064f57600080fd5b5060a55461065d9060ff1681565b60405190151581526020016102bd565b34801561067957600080fd5b50610282610688366004613356565b611802565b34801561069957600080fd5b506102826106a8366004613386565b611a99565b3480156106b957600080fd5b506102826106c83660046131f8565b611c5a565b3480156106d957600080fd5b506102826106e8366004613356565b611c9f565b6102826106fb3660046130cb565b6120c8565b34801561070c57600080fd5b5061072061071b366004613356565b6125e4565b6040516102bd91906135f0565b34801561073957600080fd5b506102826107483660046130af565b61266b565b60408051600280825260608201835260009283929190602083019080368337019050506097546001600160a01b03858116600090815260a2602090815260408083205460a19092529091205493945091169163f2fad2b6916107ae91613716565b6040518263ffffffff1660e01b81526004016107cc91815260200190565b60006040518083038186803b1580156107e457600080fd5b505afa1580156107f8573d6000803e3d6000fd5b505050506040513d6000823e601f3d908101601f19168201604052610820919081019061314c565b90508060018151811061084357634e487b7160e01b600052603260045260246000fd5b6020026020010151915050919050565b61085b6126e1565b609c546040516370a0823160e01b815230600482015282916001600160a01b0316906370a082319060240160206040518083038186803b15801561089e57600080fd5b505afa1580156108b2573d6000803e3d6000fd5b505050506040513d601f19601f820116820180604052508101906108d6919061336e565b101561091d5760405162461bcd60e51b81526020600482015260166024820152754e6f7420656e6f7567682053525320726576656e756560501b6044820152606401610279565b6000811161096d5760405162461bcd60e51b815260206004820152601c60248201527f53686f756c642062652067726561746572207468616e207a65726f21000000006044820152606401610279565b80609f600082825461097f919061376d565b9091555050609c5461099b906001600160a01b0316338361273d565b50565b60408051600280825260608201835260009283929190602083019080368337019050506099546040516370a0823160e01b81523060048201529192506000916001600160a01b03909116906370a082319060240160206040518083038186803b158015610a0a57600080fd5b505afa158015610a1e573d6000803e3d6000fd5b505050506040513d601f19601f82011682018060405250810190610a42919061336e565b60975460a0549192506001600160a01b03169063f2fad2b690610a66908490613716565b6040518263ffffffff1660e01b8152600401610a8491815260200190565b60006040518083038186803b158015610a9c57600080fd5b505afa158015610ab0573d6000803e3d6000fd5b505050506040513d6000823e601f3d908101601f19168201604052610ad8919081019061314c565b915081600081518110610afb57634e487b7160e01b600052603260045260246000fd5b60200260200101519250505090565b60a68054610b17906137b0565b80601f0160208091040260200160405190810160405280929190818152602001828054610b43906137b0565b8015610b905780601f10610b6557610100808354040283529160200191610b90565b820191906000526020600020905b815481529060010190602001808311610b7357829003601f168201915b505050505081565b6001600160a01b038116600090815260a260205260408120548015610c22576001600160a01b038316600090815260a46020526040902054609e5464e8d4a5100090610be4908461374e565b610bee919061372e565b6001600160a01b038516600090815260a36020526040902054610c119190613716565b610c1b919061376d565b9150610c3e565b6001600160a01b038316600090815260a3602052604090205491505b50919050565b600054610100900460ff1615808015610c645750600054600160ff909116105b80610c7e5750303b158015610c7e575060005460ff166001145b610ce15760405162461bcd60e51b815260206004820152602e60248201527f496e697469616c697a61626c653a20636f6e747261637420697320616c72656160448201526d191e481a5b9a5d1a585b1a5e995960921b6064820152608401610279565b6000805460ff191660011790558015610d04576000805461ff0019166101001790555b610d0c6127a5565b610d146127d4565b609780546001600160a01b03199081166001600160a01b038b8116919091179092556098805482168a8416179055609980548216898416179055609a80548216888416179055609b80548216878416179055609c80548216868416179055609d8054909116918416919091179055610d8c6001611c5a565b8015610dd2576000805461ff0019169055604051600181527f7f26b83ff96e1f2b6a682f133852f6798a09c465da95921460cefb38474024989060200160405180910390a15b5050505050505050565b610de46126e1565b60a580546001600160a01b0390921661010002610100600160a81b0319909216919091179055565b609854604051634269211360e11b81523060048201526000916001600160a01b0316906384d2422690602401602060405180830381600087803b158015610e5257600080fd5b505af1158015610e66573d6000803e3d6000fd5b505050506040513d601f19601f82011682018060405250810190610e8a919061336e565b90508015610e9a57610e9a612803565b610ea26129c5565b60026065541415610ec55760405162461bcd60e51b8152600401610279906136c6565b600260655533600090815260a36020526040902054610f265760405162461bcd60e51b815260206004820152601760248201527f5573657220686173206e6f20616e7920726577617264730000000000000000006044820152606401610279565b33600090815260a36020526040812054610f4290600a9061372e565b33600090815260a3602052604081205491925090610f6190839061376d565b905081609f6000828254610f759190613716565b909155505033600081815260a36020526040812055609c54610fa3916001600160a01b03909116908361273d565b604051819033907f47cee97cb7acd717b3c0aa1435d004cd5b3c8c57d70dbceb4e4458bbd60e39d490600090a35050600160655550565b609854604051634269211360e11b81523060048201526000916001600160a01b0316906384d2422690602401602060405180830381600087803b15801561102057600080fd5b505af1158015611034573d6000803e3d6000fd5b505050506040513d601f19601f82011682018060405250810190611058919061336e565b9050801561106857611068612803565b6110706129c5565b33600090815260a260205260409020548311156110cf5760405162461bcd60e51b815260206004820152601760248201527f4e6f7420656e6f75676820476175676520746f6b656e730000000000000000006044820152606401610279565b600083116110ef5760405162461bcd60e51b815260040161027990613644565b609b5460985460405163095ea7b360e01b81526001600160a01b0391821660048201526024810186905291169063095ea7b390604401602060405180830381600087803b15801561113f57600080fd5b505af1158015611153573d6000803e3d6000fd5b505050506040513d601f19601f820116820180604052508101906111779190613214565b506099546040516370a0823160e01b81523060048201526000916001600160a01b0316906370a082319060240160206040518083038186803b1580156111bc57600080fd5b505afa1580156111d0573d6000803e3d6000fd5b505050506040513d601f19601f820116820180604052508101906111f4919061336e565b609854604051631c683a1b60e11b815260048101879052600060248201529192506001600160a01b0316906338d0743690604401600060405180830381600087803b15801561124257600080fd5b505af1158015611256573d6000803e3d6000fd5b50506099546040516370a0823160e01b8152306004820152600093506001600160a01b0390911691506370a082319060240160206040518083038186803b1580156112a057600080fd5b505afa1580156112b4573d6000803e3d6000fd5b505050506040513d601f19601f820116820180604052508101906112d8919061336e565b905060006112e6838361376d565b33600090815260a2602052604081208054929350889290919061130a90849061376d565b925050819055508560a06000828254611323919061376d565b909155505033600090815260a1602052604081208054839290611347908490613716565b90915550611356905033612a8e565b609e5433600090815260a2602052604090205464e8d4a51000916113799161374e565b611383919061372e565b33600090815260a4602052604090205584156113a2576113a28661143c565b60405185151590879033907f707698b04f0e54c638e6bc6e39a7cf7d534be15246dc474a1564a91c702c0b7690600090a4505050505050565b6113e36126e1565b60405162461bcd60e51b815260206004820152602860248201527f4974206973206e6f7420706f737369626c6520746f2072656e6f756e6365206f6044820152670776e6572736869760c41b6064820152608401610279565b6002606554141561145f5760405162461bcd60e51b8152600401610279906136c6565b6002606555806114b15760405162461bcd60e51b815260206004820152601b60248201527f53686f756c642062652067726561746572207468616e207a65726f00000000006044820152606401610279565b33600090815260a160205260409020548111156115005760405162461bcd60e51b815260206004820152600d60248201526c04e6f7420656e6f756768204c5609c1b6044820152606401610279565b600061150b826125e4565b60995460975460405163095ea7b360e01b81526001600160a01b03918216600482015260248101869052929350169063095ea7b390604401602060405180830381600087803b15801561155d57600080fd5b505af1158015611571573d6000803e3d6000fd5b505050506040513d601f19601f820116820180604052508101906115959190613214565b50609a546040516370a0823160e01b815230600482015247916000916001600160a01b03909116906370a082319060240160206040518083038186803b1580156115de57600080fd5b505afa1580156115f2573d6000803e3d6000fd5b505050506040513d601f19601f82011682018060405250810190611616919061336e565b6097549091506001600160a01b03166331cd52b08585611638426104b0613716565b6040518463ffffffff1660e01b8152600401611656939291906136fd565b600060405180830381600087803b15801561167057600080fd5b505af1158015611684573d6000803e3d6000fd5b505050506040513d6000823e601f3d908101601f191682016040526116ac919081019061314c565b50609a546040516370a0823160e01b815230600482015247916000916001600160a01b03909116906370a082319060240160206040518083038186803b1580156116f557600080fd5b505afa158015611709573d6000803e3d6000fd5b505050506040513d601f19601f8201168201806040525081019061172d919061336e565b9050600061173b848361376d565b90506000611749868561376d565b33600090815260a16020526040812080549293508a9290919061176d90849061376d565b9091555061177c905033612a8e565b609a54611793906001600160a01b0316338461273d565b61179d3382612bba565b604051888152819033907f0fbf06c058b90cb038a618f8c2acbf6145f8b3570fd1fa56abb8f0f3f05b36e89060200160405180910390a350506001606555505050505050565b6117eb6126e1565b80516117fe9060a6906020840190613016565b5050565b609854604051634269211360e11b81523060048201526000916001600160a01b0316906384d2422690602401602060405180830381600087803b15801561184857600080fd5b505af115801561185c573d6000803e3d6000fd5b505050506040513d601f19601f82011682018060405250810190611880919061336e565b9050801561189057611890612803565b6118986129c5565b600260655414156118bb5760405162461bcd60e51b8152600401610279906136c6565b600260655560a55460ff1661190b5760405162461bcd60e51b8152602060048201526016602482015275119d5b98dd1a5bdb985b1a5d1e48191a5cd8589b195960521b6044820152606401610279565b609b546040516370a0823160e01b815233600482015283916001600160a01b0316906370a082319060240160206040518083038186803b15801561194e57600080fd5b505afa158015611962573d6000803e3d6000fd5b505050506040513d601f19601f82011682018060405250810190611986919061336e565b10156119d45760405162461bcd60e51b815260206004820152601b60248201527f4e6f7420656e6f756768204761756765206f6e2062616c616e636500000000006044820152606401610279565b600082116119f45760405162461bcd60e51b815260040161027990613644565b609b54611a0c906001600160a01b0316333085612cd3565b33600090815260a2602052604081208054849290611a2b908490613716565b925050819055508160a06000828254611a449190613716565b90915550611a53905033612a8e565b609e5433600090815260a2602052604090205464e8d4a5100091611a769161374e565b611a80919061372e565b33600090815260a4602052604090205550506001606555565b60026065541415611abc5760405162461bcd60e51b8152600401610279906136c6565b600260655560a55460ff16611b135760405162461bcd60e51b815260206004820152601b60248201527f546869732066756e6374696f6e616c6974792064697361626c656400000000006044820152606401610279565b6099546040516370a0823160e01b815233600482015283916001600160a01b0316906370a082319060240160206040518083038186803b158015611b5657600080fd5b505afa158015611b6a573d6000803e3d6000fd5b505050506040513d601f19601f82011682018060405250810190611b8e919061336e565b1015611bdc5760405162461bcd60e51b815260206004820152601860248201527f4e6f7420656e6f756768204c50206f6e2062616c616e636500000000000000006044820152606401610279565b60008211611bfc5760405162461bcd60e51b815260040161027990613644565b609954611c14906001600160a01b0316333085612cd3565b33600090815260a1602052604081208054849290611c33908490613716565b90915550611c42905033612a8e565b8015611c5157611c5182611c9f565b50506001606555565b611c626126e1565b60a5805460ff19168215159081179091556040517fc9a34b04a94880f16c28b61d1d7b6ca0b7f3d8c5743def715f1fb4e6ac539f5c90600090a250565b609854604051634269211360e11b81523060048201526000916001600160a01b0316906384d2422690602401602060405180830381600087803b158015611ce557600080fd5b505af1158015611cf9573d6000803e3d6000fd5b505050506040513d601f19601f82011682018060405250810190611d1d919061336e565b90508015611d2d57611d2d612803565b611d356129c5565b33600090815260a16020526040902054821115611d8b5760405162461bcd60e51b81526020600482015260146024820152734e6f7420656e6f756768204c5020746f6b656e7360601b6044820152606401610279565b60008211611ddb5760405162461bcd60e51b815260206004820152601b60248201527f53686f756c642062652067726561746572207468616e207a65726f00000000006044820152606401610279565b33600090815260a1602052604081208054849290611dfa90849061376d565b909155505060995460985460405163095ea7b360e01b81526001600160a01b0391821660048201526024810185905291169063095ea7b390604401602060405180830381600087803b158015611e4f57600080fd5b505af1158015611e63573d6000803e3d6000fd5b505050506040513d601f19601f82011682018060405250810190611e879190613214565b50609b546040516370a0823160e01b81523060048201526000916001600160a01b0316906370a082319060240160206040518083038186803b158015611ecc57600080fd5b505afa158015611ee0573d6000803e3d6000fd5b505050506040513d601f19601f82011682018060405250810190611f04919061336e565b6098546040516383df674760e01b815260048101869052306024820152600060448201529192506001600160a01b0316906383df674790606401600060405180830381600087803b158015611f5857600080fd5b505af1158015611f6c573d6000803e3d6000fd5b5050609b546040516370a0823160e01b8152306004820152600093506001600160a01b0390911691506370a082319060240160206040518083038186803b158015611fb657600080fd5b505afa158015611fca573d6000803e3d6000fd5b505050506040513d601f19601f82011682018060405250810190611fee919061336e565b90506000611ffc838361376d565b33600090815260a26020526040812080549293508392909190612020908490613716565b9091555061202f905033612a8e565b8060a060008282546120419190613716565b9091555050609e5433600090815260a2602052604090205464e8d4a51000916120699161374e565b612073919061372e565b33600081815260a46020526040908190209290925590517fa76194b11cf7b940f18e866ed3382a795bb09ca684db1b957d595417f63151f8906120b99088815260200190565b60405180910390a25050505050565b600260655414156120eb5760405162461bcd60e51b8152600401610279906136c6565b6002606555828260008161210f57634e487b7160e01b600052603260045260246000fd5b90506020020135341461217c5760405162461bcd60e51b815260206004820152602f60248201527f56616c7565206e65656420746f20626520657175616c20746f20616d6f756e7460448201526e206f66204153545220746f6b656e7360881b6064820152608401610279565b60008383600081811061219f57634e487b7160e01b600052603260045260246000fd5b905060200201351180156121da57506000838360018181106121d157634e487b7160e01b600052603260045260246000fd5b90506020020135115b61223c5760405162461bcd60e51b815260206004820152602d60248201527f416d6f756e7473206f6620746f6b656e732073686f756c64206265206772656160448201526c746572207468616e207a65726f60981b6064820152608401610279565b6002821461229f5760405162461bcd60e51b815260206004820152602a60248201527f546865206c656e677468206f6620616d6f756e7473206d75737420626520657160448201526975616c20746f2074776f60b01b6064820152608401610279565b6122e23330858560018181106122c557634e487b7160e01b600052603260045260246000fd5b609a546001600160a01b0316949392602090910201359050612cd3565b609754604051637355940360e11b81526000916001600160a01b03169063e6ab28069061231890879087906001906004016135a3565b60206040518083038186803b15801561233057600080fd5b505afa158015612344573d6000803e3d6000fd5b505050506040513d601f19601f82011682018060405250810190612368919061336e565b9050600081116123d35760405162461bcd60e51b815260206004820152603060248201527f43616c63756c61746564204c5020616d6f756e742073686f756c64206265206760448201526f726561746572207468616e207a65726f60801b6064820152608401610279565b6000600a6123e283600961374e565b6123ec919061372e565b609a546097549192506001600160a01b039081169163095ea7b391168787600181811061242957634e487b7160e01b600052603260045260246000fd5b6040516001600160e01b031960e087901b1681526001600160a01b0390941660048501526020029190910135602483015250604401602060405180830381600087803b15801561247857600080fd5b505af115801561248c573d6000803e3d6000fd5b505050506040513d601f19601f820116820180604052508101906124b09190613214565b506097546000906001600160a01b0316634d49e87d348888866124d5426104b0613716565b6040518663ffffffff1660e01b81526004016124f494939291906135c9565b6020604051808303818588803b15801561250d57600080fd5b505af1158015612521573d6000803e3d6000fd5b50505050506040513d601f19601f82011682018060405250810190612546919061336e565b33600090815260a1602052604081208054929350839290919061256a908490613716565b90915550612579905033612a8e565b83156125885761258881611c9f565b8086866040516125999291906134ed565b60405190819003812086151582529033907ff520a5e3ac0bf513a224870ae89423c69b6f5feba4047712e457f8fadf498c849060200160405180910390a45050600160655550505050565b60975460405163797d695b60e11b8152600481018390526060916001600160a01b03169063f2fad2b69060240160006040518083038186803b15801561262957600080fd5b505afa15801561263d573d6000803e3d6000fd5b505050506040513d6000823e601f3d908101601f19168201604052612665919081019061314c565b92915050565b6126736126e1565b6001600160a01b0381166126d85760405162461bcd60e51b815260206004820152602660248201527f4f776e61626c653a206e6577206f776e657220697320746865207a65726f206160448201526564647265737360d01b6064820152608401610279565b61099b81612d11565b6033546001600160a01b0316331461273b5760405162461bcd60e51b815260206004820181905260248201527f4f776e61626c653a2063616c6c6572206973206e6f7420746865206f776e65726044820152606401610279565b565b6040516001600160a01b0383166024820152604481018290526127a090849063a9059cbb60e01b906064015b60408051601f198184030181529190526020810180516001600160e01b03166001600160e01b031990931692909217909152612d63565b505050565b600054610100900460ff166127cc5760405162461bcd60e51b81526004016102799061367b565b61273b612e35565b600054610100900460ff166127fb5760405162461bcd60e51b81526004016102799061367b565b61273b612e65565b609c546040516370a0823160e01b81523060048201526000916001600160a01b0316906370a082319060240160206040518083038186803b15801561284757600080fd5b505afa15801561285b573d6000803e3d6000fd5b505050506040513d601f19601f8201168201806040525081019061287f919061336e565b609d54609b546040516335313c2160e11b81526001600160a01b0391821660048201529293501690636a62784290602401600060405180830381600087803b1580156128ca57600080fd5b505af11580156128de573d6000803e3d6000fd5b5050609c546040516370a0823160e01b8152306004820152600093506001600160a01b0390911691506370a082319060240160206040518083038186803b15801561292857600080fd5b505afa15801561293c573d6000803e3d6000fd5b505050506040513d601f19601f82011682018060405250810190612960919061336e565b9050600082821161297257600061297c565b61297c838361376d565b905060a0546000141561298e57505050565b60a0546129a064e8d4a510008361374e565b6129aa919061372e565b609e60008282546129bb9190613716565b9091555050505050565b33600090815260a2602090815260408083205460a4909252822054609e5491929164e8d4a51000906129f7908561374e565b612a01919061372e565b612a0b919061376d565b905064e8d4a51000609e5483612a21919061374e565b612a2b919061372e565b33600090815260a4602090815260408083209390935560a390529081208054839290612a58908490613716565b9091555050604051819033907fdaaebb9609cb2f719c59c9d334be287bf4def107ad3dec4a6f90d8abaa94c73c90600090a35050565b6000612a998261074d565b60a554604051631704b63f60e31b815291925061010090046001600160a01b03169063b825b1f890612ad49060a69086908690600401613616565b600060405180830381600087803b158015612aee57600080fd5b505af1925050508015612aff575060015b612b7a57612b0b61383e565b806308c379a01415612b6e5750612b20613856565b80612b2b5750612b70565b7f09ea598594b5fdf29f0c25c248aa5544ff0096cb773326201275441cf0e4e8cf8360a68484604051612b619493929190613567565b60405180910390a1505050565b505b3d6000803e3d6000fd5b7f8b82945fd970ddd18b63c39a87ceefd3db5966cb2ab0c9ec3043baa8a70b4c278260a683604051612bae93929190613533565b60405180910390a15050565b80471015612c0a5760405162461bcd60e51b815260206004820152601d60248201527f416464726573733a20696e73756666696369656e742062616c616e63650000006044820152606401610279565b6000826001600160a01b03168260405160006040518083038185875af1925050503d8060008114612c57576040519150601f19603f3d011682016040523d82523d6000602084013e612c5c565b606091505b50509050806127a05760405162461bcd60e51b815260206004820152603a60248201527f416464726573733a20756e61626c6520746f2073656e642076616c75652c207260448201527f6563697069656e74206d617920686176652072657665727465640000000000006064820152608401610279565b6040516001600160a01b0380851660248301528316604482015260648101829052612d0b9085906323b872dd60e01b90608401612769565b50505050565b603380546001600160a01b038381166001600160a01b0319831681179093556040519116919082907f8be0079c531659141344cd1fd0a4f28419497f9722a3daafe3b4186f6b6457e090600090a35050565b6000612db8826040518060400160405280602081526020017f5361666545524332303a206c6f772d6c6576656c2063616c6c206661696c6564815250856001600160a01b0316612e939092919063ffffffff16565b8051909150156127a05780806020019051810190612dd69190613214565b6127a05760405162461bcd60e51b815260206004820152602a60248201527f5361666545524332303a204552433230206f7065726174696f6e20646964206e6044820152691bdd081cdd58d8d9595960b21b6064820152608401610279565b600054610100900460ff16612e5c5760405162461bcd60e51b81526004016102799061367b565b61273b33612d11565b600054610100900460ff16612e8c5760405162461bcd60e51b81526004016102799061367b565b6001606555565b6060612ea28484600085612eac565b90505b9392505050565b606082471015612f0d5760405162461bcd60e51b815260206004820152602660248201527f416464726573733a20696e73756666696369656e742062616c616e636520666f6044820152651c8818d85b1b60d21b6064820152608401610279565b6001600160a01b0385163b612f645760405162461bcd60e51b815260206004820152601d60248201527f416464726573733a2063616c6c20746f206e6f6e2d636f6e74726163740000006044820152606401610279565b600080866001600160a01b03168587604051612f809190613517565b60006040518083038185875af1925050503d8060008114612fbd576040519150601f19603f3d011682016040523d82523d6000602084013e612fc2565b606091505b5091509150612fd2828286612fdd565b979650505050505050565b60608315612fec575081612ea5565b825115612ffc5782518084602001fd5b8160405162461bcd60e51b81526004016102799190613603565b828054613022906137b0565b90600052602060002090601f016020900481019282613044576000855561308a565b82601f1061305d57805160ff191683800117855561308a565b8280016001018555821561308a579182015b8281111561308a57825182559160200191906001019061306f565b5061309692915061309a565b5090565b5b80821115613096576000815560010161309b565b6000602082840312156130c0578081fd5b8135612ea5816138e0565b6000806000604084860312156130df578182fd5b833567ffffffffffffffff808211156130f6578384fd5b818601915086601f830112613109578384fd5b813581811115613117578485fd5b8760208260051b850101111561312b578485fd5b60209283019550935050840135613141816138f5565b809150509250925092565b6000602080838503121561315e578182fd5b825167ffffffffffffffff80821115613175578384fd5b818501915085601f830112613188578384fd5b81518181111561319a5761319a613828565b8060051b91506040516131af858401826137e5565b81815284810184860184860187018a10156131c8578788fd5b8795505b838610156131ea5780518252600195909501949086019086016131cc565b509098975050505050505050565b600060208284031215613209578081fd5b8135612ea5816138f5565b600060208284031215613225578081fd5b8151612ea5816138f5565b600080600080600080600060e0888a03121561324a578283fd5b8735613255816138e0565b96506020880135613265816138e0565b95506040880135613275816138e0565b94506060880135613285816138e0565b93506080880135613295816138e0565b925060a08801356132a5816138e0565b915060c08801356132b5816138e0565b8091505092959891949750929550565b600060208083850312156132d7578182fd5b823567ffffffffffffffff808211156132ee578384fd5b818501915085601f830112613301578384fd5b81358181111561331357613313613828565b604051915061332b601f8201601f19168501836137e5565b808252868482850101111561333e578485fd5b80848401858401378101909201929092529392505050565b600060208284031215613367578081fd5b5035919050565b60006020828403121561337f578081fd5b5051919050565b60008060408385031215613398578182fd5b8235915060208301356133aa816138f5565b809150509250929050565b81835260006001600160fb1b038311156133cd578081fd5b8260051b80836020870137939093016020019283525090919050565b6000815180845260208085019450808401835b83811015613418578151875295820195908201906001016133fc565b509495945050505050565b6000815180845261343b816020860160208601613784565b601f01601f19169290920160200192915050565b8054600090600181811c908083168061346957607f831692505b602080841082141561348957634e487b7160e01b86526022600452602486fd5b838852602088018280156134a457600181146134b5576134e0565b60ff198716825282820197506134e0565b60008981526020902060005b878110156134da578154848201529086019084016134c1565b83019850505b5050505050505092915050565b60006001600160fb1b03831115613502578081fd5b8260051b808584379190910190815292915050565b60008251613529818460208701613784565b9190910192915050565b6001600160a01b03841681526060602082018190526000906135579083018561344f565b9050826040830152949350505050565b6001600160a01b038516815260806020820181905260009061358b9083018661344f565b8460408401528281036060840152612fd28185613423565b6040815260006135b76040830185876133b5565b90508215156020830152949350505050565b6060815260006135dd6060830186886133b5565b6020830194909452506040015292915050565b602081526000612ea560208301846133e9565b602081526000612ea56020830184613423565b606081526000613629606083018661344f565b6001600160a01b039490941660208301525060400152919050565b6020808252601a908201527f53686f75642062652067726561746572207468616e207a65726f000000000000604082015260600190565b6020808252602b908201527f496e697469616c697a61626c653a20636f6e7472616374206973206e6f74206960408201526a6e697469616c697a696e6760a81b606082015260800190565b6020808252601f908201527f5265656e7472616e637947756172643a207265656e7472616e742063616c6c00604082015260600190565b83815260606020820152600061355760608301856133e9565b6000821982111561372957613729613812565b500190565b60008261374957634e487b7160e01b81526012600452602481fd5b500490565b600081600019048311821515161561376857613768613812565b500290565b60008282101561377f5761377f613812565b500390565b60005b8381101561379f578181015183820152602001613787565b83811115612d0b5750506000910152565b600181811c908216806137c457607f821691505b60208210811415610c3e57634e487b7160e01b600052602260045260246000fd5b601f8201601f1916810167ffffffffffffffff8111828210171561380b5761380b613828565b6040525050565b634e487b7160e01b600052601160045260246000fd5b634e487b7160e01b600052604160045260246000fd5b600060033d111561385357600481823e5160e01c5b90565b600060443d10156138645790565b6040516003193d81016004833e81513d67ffffffffffffffff816024840111818411171561389457505050505090565b82850191508151818111156138ac5750505050505090565b843d87010160208285010111156138c65750505050505090565b6138d5602082860101876137e5565b509095945050505050565b6001600160a01b038116811461099b57600080fd5b801515811461099b57600080fdfea264697066735822122093f4f35ff26586e8b2d4c3eac967d93fadecf29e2a24e951b7523be64d05163a64736f6c63430008040033",
    "linkReferences": {}
  },
  "methodIdentifiers": {
    "REVENUE_FEE()": "4421bd1e",
    "abilityToAddLpAndGauge()": "badcccae",
    "accumulatedRewardsPerShare()": "061960aa",
    "adaptersDistributor()": "3ea5856f",
    "addGauge(uint256)": "c75bef0a",
    "addLiquidity(uint256[],bool)": "eeda2504",
    "addLp(uint256,bool)": "cfb79ed2",
    "calc(address)": "083380b6",
    "calculateRemoveLiquidity(uint256)": "f2fad2b6",
    "claim()": "4e71d92d",
    "depositLP(uint256)": "eb37acfc",
    "farm()": "36e9332d",
    "gauge()": "a6f19c84",
    "gaugeBalances(address)": "45418a4e",
    "initialize(address,address,address,address,address,address,address)": "35876476",
    "lp()": "313c06a0",
    "lpBalances(address)": "0b65092d",
    "minter()": "07546172",
    "nToken()": "74baa655",
    "owner()": "8da5cb5b",
    "pendingRewards(address)": "31d7a262",
    "pool()": "16f0115b",
    "removeLiquidity(uint256)": "9c8f9f23",
    "renounceOwnership()": "715018a6",
    "revenuePool()": "7f753de6",
    "rewardDebt(address)": "5873eb9b",
    "rewards(address)": "0700037d",
    "setAbilityToAddLpAndGauge(bool)": "e84b902c",
    "setAdaptersDistributor(address)": "43a37564",
    "setUtilityName(string)": "abd77975",
    "srs()": "03229556",
    "totalStaked()": "817b1cd2",
    "totalStakedASTR()": "1a1fb232",
    "transferOwnership(address)": "f2fde38b",
    "utilityName()": "2bb3526e",
    "withdrawLP(uint256,bool)": "57321944",
    "withdrawRevenue(uint256)": "0ceff204"
  },
  "id": 24
}