{
  "abi": [
    {
      "inputs": [
        {
          "internalType": "contract MockSCollateralToken",
          "name": "_snastr",
          "type": "address"
        },
        {
          "internalType": "contract MockVDToken",
          "name": "_vdbusd",
          "type": "address"
        },
        {
          "internalType": "contract MockERC20",
          "name": "_rewardToken",
          "type": "address"
        }
      ],
      "stateMutability": "nonpayable",
      "type": "constructor"
    },
    {
      "inputs": [],
      "name": "REWARDS_PER_BLOCK",
      "outputs": [
        {
          "internalType": "uint256",
          "name": "",
          "type": "uint256"
        }
      ],
      "stateMutability": "view",
      "type": "function"
    },
    {
      "inputs": [
        {
          "internalType": "address[]",
          "name": "assets",
          "type": "address[]"
        },
        {
          "internalType": "uint256",
          "name": "amount",
          "type": "uint256"
        },
        {
          "internalType": "address",
          "name": "to",
          "type": "address"
        }
      ],
      "name": "claimRewards",
      "outputs": [
        {
          "internalType": "uint256",
          "name": "",
          "type": "uint256"
        }
      ],
      "stateMutability": "nonpayable",
      "type": "function"
    },
    {
      "inputs": [
        {
          "internalType": "address",
          "name": "user",
          "type": "address"
        }
      ],
      "name": "getUserUnclaimedRewards",
      "outputs": [
        {
          "internalType": "uint256",
          "name": "",
          "type": "uint256"
        }
      ],
      "stateMutability": "view",
      "type": "function"
    },
    {
      "inputs": [],
      "name": "rewardToken",
      "outputs": [
        {
          "internalType": "contract MockERC20",
          "name": "",
          "type": "address"
        }
      ],
      "stateMutability": "view",
      "type": "function"
    },
    {
      "inputs": [],
      "name": "snastr",
      "outputs": [
        {
          "internalType": "contract MockSCollateralToken",
          "name": "",
          "type": "address"
        }
      ],
      "stateMutability": "view",
      "type": "function"
    },
    {
      "inputs": [],
      "name": "vdbusd",
      "outputs": [
        {
          "internalType": "contract MockVDToken",
          "name": "",
          "type": "address"
        }
      ],
      "stateMutability": "view",
      "type": "function"
    }
  ],
  "bytecode": {
    "object": "0x608060405234801561001057600080fd5b506040516106ca3803806106ca83398101604081905261002f91610071565b600080546001600160a01b039485166001600160a01b0319918216179091556001805493851693821693909317909255600280549190931691161790556100d5565b600080600060608486031215610085578283fd5b8351610090816100bd565b60208501519093506100a1816100bd565b60408501519092506100b2816100bd565b809150509250925092565b6001600160a01b03811681146100d257600080fd5b50565b6105e6806100e46000396000f3fe608060405234801561001057600080fd5b50600436106100625760003560e01c8063198fa81e146100675780631be306121461008d5780633111e7b3146100b85780633633d79d146100cb578063bd728a54146100d7578063f7c618c1146100ea575b600080fd5b61007a61007536600461046c565b6100fd565b6040519081526020015b60405180910390f35b6001546100a0906001600160a01b031681565b6040516001600160a01b039091168152602001610084565b61007a6100c636600461048d565b61029a565b61007a6402540be40081565b6000546100a0906001600160a01b031681565b6002546100a0906001600160a01b031681565b600080600160009054906101000a90046001600160a01b03166001600160a01b031663bfb5b9f16040518163ffffffff1660e01b815260040160206040518083038186803b15801561014e57600080fd5b505afa158015610162573d6000803e3d6000fd5b505050506040513d601f19601f820116820180604052508101906101869190610534565b905060008060009054906101000a90046001600160a01b03166001600160a01b031663bfb5b9f16040518163ffffffff1660e01b815260040160206040518083038186803b1580156101d757600080fd5b505afa1580156101eb573d6000803e3d6000fd5b505050506040513d601f19601f8201168201806040525081019061020f9190610534565b905060008060008411801561022357504384105b61022e57600061024c565b6402540be40061023e8543610583565b6102489190610564565b9150815b5060008311801561025c57504383105b610267576000610285565b6402540be4006102778443610583565b6102819190610564565b9050805b50610290818361054c565b9695505050505050565b60006102a5336100fd565b83146103015760405162461bcd60e51b815260206004820152602160248201527f4d6f636b496e63656e746976653a204e6f7420656e6f756768207265776172646044820152607360f81b606482015260840160405180910390fd5b6000805460408051632ccdc76d60e11b815290516001600160a01b039092169263599b8eda9260048084019382900301818387803b15801561034257600080fd5b505af1158015610356573d6000803e3d6000fd5b50505050600160009054906101000a90046001600160a01b03166001600160a01b031663599b8eda6040518163ffffffff1660e01b8152600401600060405180830381600087803b1580156103aa57600080fd5b505af11580156103be573d6000803e3d6000fd5b50506002546040516340c10f1960e01b8152336004820152602481018790526001600160a01b0390911692506340c10f199150604401602060405180830381600087803b15801561040e57600080fd5b505af1158015610422573d6000803e3d6000fd5b505050506040513d601f19601f820116820180604052508101906104469190610514565b5091949350505050565b80356001600160a01b038116811461046757600080fd5b919050565b60006020828403121561047d578081fd5b61048682610450565b9392505050565b600080600080606085870312156104a2578283fd5b843567ffffffffffffffff808211156104b9578485fd5b818701915087601f8301126104cc578485fd5b8135818111156104da578586fd5b8860208260051b85010111156104ee578586fd5b60209283019650945050850135915061050960408601610450565b905092959194509250565b600060208284031215610525578081fd5b81518015158114610486578182fd5b600060208284031215610545578081fd5b5051919050565b6000821982111561055f5761055f61059a565b500190565b600081600019048311821515161561057e5761057e61059a565b500290565b6000828210156105955761059561059a565b500390565b634e487b7160e01b600052601160045260246000fdfea2646970667358221220a713c01c1163b4713328ae06c72aa5b291823e74f600fac2e031c9764668be8764736f6c63430008040033",
    "linkReferences": {}
  },
  "methodIdentifiers": {
    "REWARDS_PER_BLOCK()": "3633d79d",
    "claimRewards(address[],uint256,address)": "3111e7b3",
    "getUserUnclaimedRewards(address)": "198fa81e",
    "rewardToken()": "f7c618c1",
    "snastr()": "bd728a54",
    "vdbusd()": "1be30612"
  },
  "id": 74
}