{
  "abi": [
    {
      "inputs": [],
      "stateMutability": "nonpayable",
      "type": "constructor"
    },
    {
      "anonymous": false,
      "inputs": [
        {
          "indexed": true,
          "internalType": "string",
          "name": "newDnt",
          "type": "string"
        },
        {
          "indexed": true,
          "internalType": "address",
          "name": "dntAddress",
          "type": "address"
        }
      ],
      "name": "AddDnt",
      "type": "event"
    },
    {
      "anonymous": false,
      "inputs": [
        {
          "indexed": true,
          "internalType": "string",
          "name": "newUtility",
          "type": "string"
        }
      ],
      "name": "AddUtility",
      "type": "event"
    },
    {
      "anonymous": false,
      "inputs": [
        {
          "indexed": true,
          "internalType": "string",
          "name": "dnt",
          "type": "string"
        },
        {
          "indexed": true,
          "internalType": "address",
          "name": "addr",
          "type": "address"
        }
      ],
      "name": "ChangeDntAddress",
      "type": "event"
    },
    {
      "anonymous": false,
      "inputs": [
        {
          "indexed": false,
          "internalType": "uint8",
          "name": "version",
          "type": "uint8"
        }
      ],
      "name": "Initialized",
      "type": "event"
    },
    {
      "anonymous": false,
      "inputs": [
        {
          "indexed": true,
          "internalType": "address",
          "name": "_to",
          "type": "address"
        },
        {
          "indexed": true,
          "internalType": "uint256",
          "name": "_amount",
          "type": "uint256"
        },
        {
          "indexed": false,
          "internalType": "string",
          "name": "_utility",
          "type": "string"
        },
        {
          "indexed": true,
          "internalType": "string",
          "name": "_dnt",
          "type": "string"
        }
      ],
      "name": "IssueDnt",
      "type": "event"
    },
    {
      "anonymous": false,
      "inputs": [
        {
          "indexed": true,
          "internalType": "bytes32",
          "name": "role",
          "type": "bytes32"
        },
        {
          "indexed": true,
          "internalType": "bytes32",
          "name": "previousAdminRole",
          "type": "bytes32"
        },
        {
          "indexed": true,
          "internalType": "bytes32",
          "name": "newAdminRole",
          "type": "bytes32"
        }
      ],
      "name": "RoleAdminChanged",
      "type": "event"
    },
    {
      "anonymous": false,
      "inputs": [
        {
          "indexed": true,
          "internalType": "bytes32",
          "name": "role",
          "type": "bytes32"
        },
        {
          "indexed": true,
          "internalType": "address",
          "name": "account",
          "type": "address"
        },
        {
          "indexed": true,
          "internalType": "address",
          "name": "sender",
          "type": "address"
        }
      ],
      "name": "RoleGranted",
      "type": "event"
    },
    {
      "anonymous": false,
      "inputs": [
        {
          "indexed": true,
          "internalType": "bytes32",
          "name": "role",
          "type": "bytes32"
        },
        {
          "indexed": true,
          "internalType": "address",
          "name": "account",
          "type": "address"
        },
        {
          "indexed": true,
          "internalType": "address",
          "name": "sender",
          "type": "address"
        }
      ],
      "name": "RoleRevoked",
      "type": "event"
    },
    {
      "anonymous": false,
      "inputs": [
        {
          "indexed": true,
          "internalType": "uint256",
          "name": "id",
          "type": "uint256"
        },
        {
          "indexed": true,
          "internalType": "bool",
          "name": "state",
          "type": "bool"
        },
        {
          "indexed": true,
          "internalType": "string",
          "name": "dntName",
          "type": "string"
        }
      ],
      "name": "SetDntStatus",
      "type": "event"
    },
    {
      "anonymous": false,
      "inputs": [
        {
          "indexed": true,
          "internalType": "address",
          "name": "liquidStakingAddress",
          "type": "address"
        }
      ],
      "name": "SetLiquidStaking",
      "type": "event"
    },
    {
      "anonymous": false,
      "inputs": [
        {
          "indexed": true,
          "internalType": "uint256",
          "name": "id",
          "type": "uint256"
        },
        {
          "indexed": true,
          "internalType": "bool",
          "name": "state",
          "type": "bool"
        },
        {
          "indexed": true,
          "internalType": "string",
          "name": "utilityName",
          "type": "string"
        }
      ],
      "name": "SetUtilityStatus",
      "type": "event"
    },
    {
      "anonymous": false,
      "inputs": [
        {
          "indexed": true,
          "internalType": "address",
          "name": "_from",
          "type": "address"
        },
        {
          "indexed": true,
          "internalType": "address",
          "name": "_to",
          "type": "address"
        },
        {
          "indexed": false,
          "internalType": "uint256",
          "name": "_amount",
          "type": "uint256"
        },
        {
          "indexed": false,
          "internalType": "string",
          "name": "_utility",
          "type": "string"
        },
        {
          "indexed": true,
          "internalType": "string",
          "name": "_dnt",
          "type": "string"
        }
      ],
      "name": "Transfer",
      "type": "event"
    },
    {
      "anonymous": false,
      "inputs": [
        {
          "indexed": true,
          "internalType": "address",
          "name": "to",
          "type": "address"
        },
        {
          "indexed": true,
          "internalType": "string",
          "name": "dnt",
          "type": "string"
        }
      ],
      "name": "TransferDntContractOwnership",
      "type": "event"
    },
    {
      "inputs": [],
      "name": "DEFAULT_ADMIN_ROLE",
      "outputs": [
        {
          "internalType": "bytes32",
          "name": "",
          "type": "bytes32"
        }
      ],
      "stateMutability": "view",
      "type": "function"
    },
    {
      "inputs": [],
      "name": "MANAGER",
      "outputs": [
        {
          "internalType": "bytes32",
          "name": "",
          "type": "bytes32"
        }
      ],
      "stateMutability": "view",
      "type": "function"
    },
    {
      "inputs": [
        {
          "internalType": "string",
          "name": "_newDnt",
          "type": "string"
        },
        {
          "internalType": "address",
          "name": "_dntAddress",
          "type": "address"
        }
      ],
      "name": "addDnt",
      "outputs": [],
      "stateMutability": "nonpayable",
      "type": "function"
    },
    {
      "inputs": [
        {
          "internalType": "address",
          "name": "_newManager",
          "type": "address"
        }
      ],
      "name": "addManager",
      "outputs": [],
      "stateMutability": "nonpayable",
      "type": "function"
    },
    {
      "inputs": [
        {
          "internalType": "string",
          "name": "_newUtility",
          "type": "string"
        }
      ],
      "name": "addUtility",
      "outputs": [],
      "stateMutability": "nonpayable",
      "type": "function"
    },
    {
      "inputs": [
        {
          "internalType": "string",
          "name": "_utility",
          "type": "string"
        }
      ],
      "name": "addUtilityToDisalowList",
      "outputs": [],
      "stateMutability": "nonpayable",
      "type": "function"
    },
    {
      "inputs": [
        {
          "internalType": "string",
          "name": "_dnt",
          "type": "string"
        },
        {
          "internalType": "address",
          "name": "_address",
          "type": "address"
        }
      ],
      "name": "changeDntAddress",
      "outputs": [],
      "stateMutability": "nonpayable",
      "type": "function"
    },
    {
      "inputs": [
        {
          "internalType": "address",
          "name": "_oldAddress",
          "type": "address"
        },
        {
          "internalType": "address",
          "name": "_newAddress",
          "type": "address"
        }
      ],
      "name": "changeManagerAddress",
      "outputs": [],
      "stateMutability": "nonpayable",
      "type": "function"
    },
    {
      "inputs": [
        {
          "internalType": "address",
          "name": "_newOwner",
          "type": "address"
        }
      ],
      "name": "changeOwner",
      "outputs": [],
      "stateMutability": "nonpayable",
      "type": "function"
    },
    {
      "inputs": [
        {
          "internalType": "string",
          "name": "",
          "type": "string"
        }
      ],
      "name": "disallowList",
      "outputs": [
        {
          "internalType": "bool",
          "name": "",
          "type": "bool"
        }
      ],
      "stateMutability": "view",
      "type": "function"
    },
    {
      "inputs": [
        {
          "internalType": "string",
          "name": "",
          "type": "string"
        }
      ],
      "name": "dntContracts",
      "outputs": [
        {
          "internalType": "address",
          "name": "",
          "type": "address"
        }
      ],
      "stateMutability": "view",
      "type": "function"
    },
    {
      "inputs": [
        {
          "internalType": "uint256",
          "name": "",
          "type": "uint256"
        }
      ],
      "name": "dntDB",
      "outputs": [
        {
          "internalType": "string",
          "name": "dntName",
          "type": "string"
        },
        {
          "internalType": "bool",
          "name": "isActive",
          "type": "bool"
        }
      ],
      "stateMutability": "view",
      "type": "function"
    },
    {
      "inputs": [
        {
          "internalType": "string",
          "name": "",
          "type": "string"
        }
      ],
      "name": "dntId",
      "outputs": [
        {
          "internalType": "uint256",
          "name": "",
          "type": "uint256"
        }
      ],
      "stateMutability": "view",
      "type": "function"
    },
    {
      "inputs": [
        {
          "internalType": "uint256",
          "name": "",
          "type": "uint256"
        }
      ],
      "name": "dnts",
      "outputs": [
        {
          "internalType": "string",
          "name": "",
          "type": "string"
        }
      ],
      "stateMutability": "view",
      "type": "function"
    },
    {
      "inputs": [
        {
          "internalType": "bytes32",
          "name": "role",
          "type": "bytes32"
        }
      ],
      "name": "getRoleAdmin",
      "outputs": [
        {
          "internalType": "bytes32",
          "name": "",
          "type": "bytes32"
        }
      ],
      "stateMutability": "view",
      "type": "function"
    },
    {
      "inputs": [
        {
          "internalType": "address",
          "name": "_user",
          "type": "address"
        },
        {
          "internalType": "string",
          "name": "_dnt",
          "type": "string"
        }
      ],
      "name": "getUserDntBalance",
      "outputs": [
        {
          "internalType": "uint256",
          "name": "",
          "type": "uint256"
        }
      ],
      "stateMutability": "nonpayable",
      "type": "function"
    },
    {
      "inputs": [
        {
          "internalType": "address",
          "name": "_user",
          "type": "address"
        },
        {
          "internalType": "string",
          "name": "_util",
          "type": "string"
        },
        {
          "internalType": "string",
          "name": "_dnt",
          "type": "string"
        }
      ],
      "name": "getUserDntBalanceInUtil",
      "outputs": [
        {
          "internalType": "uint256",
          "name": "",
          "type": "uint256"
        }
      ],
      "stateMutability": "view",
      "type": "function"
    },
    {
      "inputs": [
        {
          "internalType": "address",
          "name": "_user",
          "type": "address"
        },
        {
          "internalType": "string",
          "name": "_dnt",
          "type": "string"
        }
      ],
      "name": "getUserUtilsInDnt",
      "outputs": [
        {
          "internalType": "string[]",
          "name": "",
          "type": "string[]"
        }
      ],
      "stateMutability": "view",
      "type": "function"
    },
    {
      "inputs": [
        {
          "internalType": "bytes32",
          "name": "role",
          "type": "bytes32"
        },
        {
          "internalType": "address",
          "name": "account",
          "type": "address"
        }
      ],
      "name": "grantRole",
      "outputs": [],
      "stateMutability": "nonpayable",
      "type": "function"
    },
    {
      "inputs": [
        {
          "internalType": "bytes32",
          "name": "role",
          "type": "bytes32"
        },
        {
          "internalType": "address",
          "name": "account",
          "type": "address"
        }
      ],
      "name": "hasRole",
      "outputs": [
        {
          "internalType": "bool",
          "name": "",
          "type": "bool"
        }
      ],
      "stateMutability": "view",
      "type": "function"
    },
    {
      "inputs": [],
      "name": "initialize",
      "outputs": [],
      "stateMutability": "nonpayable",
      "type": "function"
    },
    {
      "inputs": [],
      "name": "initialize2",
      "outputs": [],
      "stateMutability": "nonpayable",
      "type": "function"
    },
    {
      "inputs": [
        {
          "internalType": "string",
          "name": "",
          "type": "string"
        }
      ],
      "name": "isUtility",
      "outputs": [
        {
          "internalType": "bool",
          "name": "",
          "type": "bool"
        }
      ],
      "stateMutability": "view",
      "type": "function"
    },
    {
      "inputs": [
        {
          "internalType": "address",
          "name": "_to",
          "type": "address"
        },
        {
          "internalType": "uint256",
          "name": "_amount",
          "type": "uint256"
        },
        {
          "internalType": "string",
          "name": "_utility",
          "type": "string"
        },
        {
          "internalType": "string",
          "name": "_dnt",
          "type": "string"
        }
      ],
      "name": "issueDnt",
      "outputs": [],
      "stateMutability": "nonpayable",
      "type": "function"
    },
    {
      "inputs": [],
      "name": "listDnts",
      "outputs": [
        {
          "internalType": "string[]",
          "name": "",
          "type": "string[]"
        }
      ],
      "stateMutability": "view",
      "type": "function"
    },
    {
      "inputs": [],
      "name": "listManagers",
      "outputs": [
        {
          "internalType": "address[]",
          "name": "",
          "type": "address[]"
        }
      ],
      "stateMutability": "view",
      "type": "function"
    },
    {
      "inputs": [
        {
          "internalType": "address",
          "name": "_user",
          "type": "address"
        }
      ],
      "name": "listUserDnts",
      "outputs": [
        {
          "internalType": "string[]",
          "name": "",
          "type": "string[]"
        }
      ],
      "stateMutability": "view",
      "type": "function"
    },
    {
      "inputs": [],
      "name": "listUtilities",
      "outputs": [
        {
          "internalType": "string[]",
          "name": "",
          "type": "string[]"
        }
      ],
      "stateMutability": "view",
      "type": "function"
    },
    {
      "inputs": [
        {
          "internalType": "address",
          "name": "",
          "type": "address"
        }
      ],
      "name": "managerIds",
      "outputs": [
        {
          "internalType": "uint256",
          "name": "",
          "type": "uint256"
        }
      ],
      "stateMutability": "view",
      "type": "function"
    },
    {
      "inputs": [
        {
          "internalType": "uint256",
          "name": "",
          "type": "uint256"
        }
      ],
      "name": "managers",
      "outputs": [
        {
          "internalType": "address",
          "name": "",
          "type": "address"
        }
      ],
      "stateMutability": "view",
      "type": "function"
    },
    {
      "inputs": [],
      "name": "owner",
      "outputs": [
        {
          "internalType": "address",
          "name": "",
          "type": "address"
        }
      ],
      "stateMutability": "view",
      "type": "function"
    },
    {
      "inputs": [
        {
          "internalType": "address",
          "name": "_account",
          "type": "address"
        },
        {
          "internalType": "uint256",
          "name": "_amount",
          "type": "uint256"
        },
        {
          "internalType": "string",
          "name": "_utility",
          "type": "string"
        },
        {
          "internalType": "string",
          "name": "_dnt",
          "type": "string"
        }
      ],
      "name": "removeDnt",
      "outputs": [],
      "stateMutability": "nonpayable",
      "type": "function"
    },
    {
      "inputs": [
        {
          "internalType": "address",
          "name": "_manager",
          "type": "address"
        }
      ],
      "name": "removeManager",
      "outputs": [],
      "stateMutability": "nonpayable",
      "type": "function"
    },
    {
      "inputs": [
        {
          "internalType": "bytes32",
          "name": "role",
          "type": "bytes32"
        },
        {
          "internalType": "address",
          "name": "account",
          "type": "address"
        }
      ],
      "name": "renounceRole",
      "outputs": [],
      "stateMutability": "nonpayable",
      "type": "function"
    },
    {
      "inputs": [
        {
          "internalType": "bytes32",
          "name": "role",
          "type": "bytes32"
        },
        {
          "internalType": "address",
          "name": "account",
          "type": "address"
        }
      ],
      "name": "revokeRole",
      "outputs": [],
      "stateMutability": "nonpayable",
      "type": "function"
    },
    {
      "inputs": [
        {
          "internalType": "uint256",
          "name": "_id",
          "type": "uint256"
        },
        {
          "internalType": "bool",
          "name": "_state",
          "type": "bool"
        }
      ],
      "name": "setDntStatus",
      "outputs": [],
      "stateMutability": "nonpayable",
      "type": "function"
    },
    {
      "inputs": [
        {
          "internalType": "address",
          "name": "_liquidStaking",
          "type": "address"
        }
      ],
      "name": "setLiquidStaking",
      "outputs": [],
      "stateMutability": "nonpayable",
      "type": "function"
    },
    {
      "inputs": [
        {
          "internalType": "uint256",
          "name": "_id",
          "type": "uint256"
        },
        {
          "internalType": "bool",
          "name": "_state",
          "type": "bool"
        }
      ],
      "name": "setUtilityStatus",
      "outputs": [],
      "stateMutability": "nonpayable",
      "type": "function"
    },
    {
      "inputs": [
        {
          "internalType": "bytes4",
          "name": "interfaceId",
          "type": "bytes4"
        }
      ],
      "name": "supportsInterface",
      "outputs": [
        {
          "internalType": "bool",
          "name": "",
          "type": "bool"
        }
      ],
      "stateMutability": "view",
      "type": "function"
    },
    {
      "inputs": [
        {
          "internalType": "string",
          "name": "",
          "type": "string"
        }
      ],
      "name": "totalDntInUtil",
      "outputs": [
        {
          "internalType": "uint256",
          "name": "",
          "type": "uint256"
        }
      ],
      "stateMutability": "view",
      "type": "function"
    },
    {
      "inputs": [
        {
          "internalType": "address",
          "name": "_from",
          "type": "address"
        },
        {
          "internalType": "address",
          "name": "_to",
          "type": "address"
        },
        {
          "internalType": "uint256",
          "name": "_amount",
          "type": "uint256"
        },
        {
          "internalType": "string",
          "name": "_utility",
          "type": "string"
        },
        {
          "internalType": "string",
          "name": "_dnt",
          "type": "string"
        }
      ],
      "name": "transferDnt",
      "outputs": [],
      "stateMutability": "nonpayable",
      "type": "function"
    },
    {
      "inputs": [
        {
          "internalType": "address",
          "name": "_to",
          "type": "address"
        },
        {
          "internalType": "string",
          "name": "_dnt",
          "type": "string"
        }
      ],
      "name": "transferDntContractOwnership",
      "outputs": [],
      "stateMutability": "nonpayable",
      "type": "function"
    },
    {
      "inputs": [
        {
          "internalType": "address",
          "name": "",
          "type": "address"
        },
        {
          "internalType": "string",
          "name": "",
          "type": "string"
        }
      ],
      "name": "userDntsIdx",
      "outputs": [
        {
          "internalType": "uint256",
          "name": "",
          "type": "uint256"
        }
      ],
      "stateMutability": "view",
      "type": "function"
    },
    {
      "inputs": [
        {
          "internalType": "address",
          "name": "",
          "type": "address"
        },
        {
          "internalType": "string",
          "name": "",
          "type": "string"
        }
      ],
      "name": "userHasDnt",
      "outputs": [
        {
          "internalType": "bool",
          "name": "",
          "type": "bool"
        }
      ],
      "stateMutability": "view",
      "type": "function"
    },
    {
      "inputs": [
        {
          "internalType": "address",
          "name": "",
          "type": "address"
        },
        {
          "internalType": "string",
          "name": "",
          "type": "string"
        }
      ],
      "name": "userHasUtility",
      "outputs": [
        {
          "internalType": "bool",
          "name": "",
          "type": "bool"
        }
      ],
      "stateMutability": "view",
      "type": "function"
    },
    {
      "inputs": [
        {
          "internalType": "address",
          "name": "",
          "type": "address"
        },
        {
          "internalType": "string",
          "name": "",
          "type": "string"
        }
      ],
      "name": "userUtitliesIdx",
      "outputs": [
        {
          "internalType": "uint256",
          "name": "",
          "type": "uint256"
        }
      ],
      "stateMutability": "view",
      "type": "function"
    },
    {
      "inputs": [
        {
          "internalType": "uint256",
          "name": "",
          "type": "uint256"
        }
      ],
      "name": "utilities",
      "outputs": [
        {
          "internalType": "string",
          "name": "",
          "type": "string"
        }
      ],
      "stateMutability": "view",
      "type": "function"
    },
    {
      "inputs": [
        {
          "internalType": "uint256",
          "name": "",
          "type": "uint256"
        }
      ],
      "name": "utilityDB",
      "outputs": [
        {
          "internalType": "string",
          "name": "utilityName",
          "type": "string"
        },
        {
          "internalType": "bool",
          "name": "isActive",
          "type": "bool"
        }
      ],
      "stateMutability": "view",
      "type": "function"
    },
    {
      "inputs": [
        {
          "internalType": "string",
          "name": "",
          "type": "string"
        }
      ],
      "name": "utilityId",
      "outputs": [
        {
          "internalType": "uint256",
          "name": "",
          "type": "uint256"
        }
      ],
      "stateMutability": "view",
      "type": "function"
    }
  ],
  "bytecode": {
    "object": "0x60806040523480156200001157600080fd5b506200001c62000022565b620000e4565b600054610100900460ff16156200008f5760405162461bcd60e51b815260206004820152602760248201527f496e697469616c697a61626c653a20636f6e747261637420697320696e697469604482015266616c697a696e6760c81b606482015260840160405180910390fd5b60005460ff9081161015620000e2576000805460ff191660ff9081179091556040519081527f7f26b83ff96e1f2b6a682f133852f6798a09c465da95921460cefb38474024989060200160405180910390a15b565b61430580620000f46000396000f3fe608060405234801561001057600080fd5b50600436106102bb5760003560e01c80636d96537811610182578063ac18de43116100e9578063df176650116100a2578063ecca7d171161007c578063ecca7d171461078e578063ef01145a146107c2578063efd2d18e146107d5578063f7e085cd146107e857600080fd5b8063df17665014610755578063e1d9b41714610768578063eaf49f2f1461077b57600080fd5b8063ac18de4314610666578063be667e9614610679578063c16e5b1e146106a4578063d547741f146106e3578063dc044072146106f6578063dddecb2c1461073557600080fd5b806391d148541161013b57806391d14854146105c95780639ccd0adb146105dc578063a217fddf1461060a578063a41c673a14610612578063a4dd557c14610640578063a6f9dae11461065357600080fd5b80636d9653781461052157806371e9acfa1461054c57806372b743981461055f5780637b7b33a3146105725780638129fc1c146105ae5780638da5cb5b146105b657600080fd5b806336568abe11610226578063545bdb6e116101df578063545bdb6e1461049257806354768824146104a557806354d80307146104ad57806355e86c6a146104d85780635ebe2f8a146104f95780635fbf052a1461050c57600080fd5b806336568abe1461041e5780633806b1be14610431578063398a1329146104445780633d39c2601461045757806340bc44a414610482578063472abf681461048a57600080fd5b8063292e1f1211610278578063292e1f121461039f57806329501ad6146103b25780632c615e38146103c55780632d06177a146103d85780632d4a2146146103eb5780632f2ff15d1461040b57600080fd5b806301ffc9a7146102c05780630740bb37146102e857806308211be51461033257806312d22c54146103475780631b2df85014610367578063248a9ca31461037c575b600080fd5b6102d36102ce366004613dd3565b6107fb565b60405190151581526020015b60405180910390f35b6103246102f6366004613c45565b60ab602090815260009283526040909220815180830184018051928152908401929093019190912091525481565b6040519081526020016102df565b610345610340366004613b6d565b61080c565b005b61035a610355366004613b6d565b61090f565b6040516102df919061409d565b6103246000805160206142b083398151915281565b61032461038a366004613d99565b60009081526065602052604090206001015490565b6103456103ad366004613e89565b610a01565b6103456103c0366004613b87565b610b21565b6103456103d3366004613bb9565b610b69565b6103456103e6366004613b6d565b611052565b6103fe6103f9366004613d99565b611152565b6040516102df91906140fe565b610345610419366004613db1565b6111fe565b61034561042c366004613db1565b611223565b61034561043f366004613e2e565b6112f5565b610345610452366004613d02565b61152b565b61046a610465366004613d99565b61198f565b6040516001600160a01b0390911681526020016102df565b61035a6119b9565b610345611a92565b6103fe6104a0366004613d99565b611b5a565b61035a611b6a565b6103246104bb366004613dfb565b8051602081830181018051609d8252928201919093012091525481565b6104eb6104e6366004613d99565b611c3a565b6040516102df929190614111565b610345610507366004613e2e565b611cf9565b610514611de7565b6040516102df9190614050565b61032461052f366004613dfb565b8051602081830181018051609a8252928201919093012091525481565b6104eb61055a366004613d99565b611e49565b61035a61056d366004613c45565b611e59565b610324610580366004613c45565b60ac602090815260009283526040909220815180830184018051928152908401929093019190912091525481565b610345611f6d565b60a05461046a906001600160a01b031681565b6102d36105d7366004613db1565b6122b0565b6102d36105ea366004613dfb565b805160208183018101805160a78252928201919093012091525460ff1681565b610324600081565b6102d3610620366004613dfb565b805160208183018101805160a58252928201919093012091525460ff1681565b61034561064e366004613d02565b6122db565b610345610661366004613b6d565b6124b6565b610345610674366004613b6d565b61258b565b610324610687366004613dfb565b805160208183018101805160a68252928201919093012091525481565b6102d36106b2366004613c45565b60aa602090815260009283526040909220815180830184018051928152908401929093019190912091525460ff1681565b6103456106f1366004613db1565b61271e565b6102d3610704366004613c45565b60a9602090815260009283526040909220815180830184018051928152908401929093019190912091525460ff1681565b610324610743366004613b6d565b60a26020526000908152604090205481565b610345610763366004613c45565b612790565b610324610776366004613c91565b612879565b610345610789366004613dfb565b6128d2565b61046a61079c366004613dfb565b8051602081830181018051609f825292820191909301209152546001600160a01b031681565b6103456107d0366004613e89565b612920565b6103456107e3366004613dfb565b612a40565b6103246107f6366004613c45565b612c04565b600061080682612ce7565b92915050565b600061081781612d1c565b6001600160a01b0382163b61087d5760405162461bcd60e51b815260206004820152602160248201527f5f6c69717569645374616b696e672073686f756c6420626520636f6e747261636044820152601d60fa1b60648201526084015b60405180910390fd5b60a3546001600160a01b0316156108c45760405162461bcd60e51b815260206004820152600b60248201526a105b1c9958591e481cd95d60aa1b6044820152606401610874565b60a380546001600160a01b0319166001600160a01b0384169081179091556040517f4f6086c275538d2fd74aa19655d0ab09feb6db4ce6f1d85737dd6f52c6943d8890600090a25050565b6001600160a01b0381166000908152609760209081526040808320600101805482518185028101850190935280835260609492939192909184015b828210156109f65783829060005260206000200180546109699061423a565b80601f01602080910402602001604051908101604052809291908181526020018280546109959061423a565b80156109e25780601f106109b7576101008083540402835291602001916109e2565b820191906000526020600020905b8154815290600101906020018083116109c557829003601f168201915b50505050508152602001906001019061094a565b505050509050919050565b6000610a0c81612d1c565b6098548310610a5d5760405162461bcd60e51b815260206004820152601e60248201527f4e6f7420666f756e64207574696c6974792077697468207375636820696400006044820152606401610874565b8160988481548110610a7f57634e487b7160e01b600052603260045260246000fd5b906000526020600020906002020160010160006101000a81548160ff02191690831515021790555060988381548110610ac857634e487b7160e01b600052603260045260246000fd5b9060005260206000209060020201600001604051610ae69190613f00565b604051908190038120908315159085907f3e98b239522c5b1b88d84e2dbe421536df31b14bf8d08a9c48ecf734bb4f97fa90600090a4505050565b6000610b2c81612d1c565b6001600160a01b038216610b525760405162461bcd60e51b815260040161087490614135565b610b5b8361258b565b610b6482611052565b505050565b609f81604051610b799190613ee4565b90815260405190819003602001902054336001600160a01b0390911614610be25760405162461bcd60e51b815260206004820152601d60248201527f416c6c6f776564206f6e6c7920666f7220444e5420636f6e74726163740000006044820152606401610874565b6001600160a01b0385166000908152609760205260408082209051610c08908490613ee4565b90815260405190819003602001812090610c23908590613ee4565b90815260408051602092819003830181205460a354634b9b147b60e11b835292519094506000936001600160a01b03909316926354b057f9928b92859263973628f69260048082019391829003018186803b158015610c8157600080fd5b505afa158015610c95573d6000803e3d6000fd5b505050506040513d601f19601f82011682018060405250810190610cb99190613e71565b6040516001600160e01b031960e085901b1681526001600160a01b039092166004830152602482015260440160206040518083038186803b158015610cfd57600080fd5b505afa158015610d11573d6000803e3d6000fd5b505050506040513d601f19601f82011682018060405250810190610d359190613e71565b905084821015610d915760405162461bcd60e51b815260206004820152602160248201527f4e6f7420656e6f75676820444e5420746f6b656e7320696e207574696c6974796044820152602160f81b6064820152608401610874565b6001600160a01b038616610de35760405162461bcd60e51b815260206004820152601960248201527853686f756c646e2774206265207a65726f206164647265737360381b6044820152606401610874565b60a3546040516373a19b1160e11b81526001600160a01b038881166004830152602482018890529091169063e743362290604401600060405180830381600087803b158015610e3157600080fd5b505af1158015610e45573d6000803e3d6000fd5b50505050808583610e5691906141dc565b1015610ed75760a3546001600160a01b0316638d7e073588610e7888866141dc565b6040516001600160e01b031960e085901b1681526001600160a01b0390921660048301526024820152604401600060405180830381600087803b158015610ebe57600080fd5b505af1158015610ed2573d6000803e3d6000fd5b505050505b60a354604051636f1e853360e01b81526001600160a01b03888116600483015290911690636f1e85339060240160206040518083038186803b158015610f1c57600080fd5b505afa158015610f30573d6000803e3d6000fd5b505050506040513d601f19601f82011682018060405250810190610f549190613d7d565b610fbf5760a354604051631db90d3b60e31b81526001600160a01b039091169063edc869d890610f8c90899088908890600401614010565b600060405180830381600087803b158015610fa657600080fd5b505af1158015610fba573d6000803e3d6000fd5b505050505b610fcb87868686612d26565b6001600160a01b03861615610fe657610fe686868686613066565b82604051610ff49190613ee4565b6040518091039020866001600160a01b0316886001600160a01b03167f5958983c36c78f71aaec2c8d1eb5f392fd57316d842a6aa664705e3e198b7253888860405161104192919061418c565b60405180910390a450505050505050565b600061105d81612d1c565b6001600160a01b0382166110835760405162461bcd60e51b815260040161087490614135565b61109b6000805160206142b0833981519152836122b0565b156110da5760405162461bcd60e51b815260206004820152600f60248201526e20b63932b0b23c9036b0b730b3b2b960891b6044820152606401610874565b60a180546001600160a01b038416600081815260a260205260408120839055600183018455929092527faadc37b8ba5645e62f4546802db221593a94729ccbfc5a97d01365a88f6498780180546001600160a01b031916909117905561114e6000805160206142b08339815191528361317a565b5050565b6099818154811061116257600080fd5b90600052602060002001600091509050805461117d9061423a565b80601f01602080910402602001604051908101604052809291908181526020018280546111a99061423a565b80156111f65780601f106111cb576101008083540402835291602001916111f6565b820191906000526020600020905b8154815290600101906020018083116111d957829003601f168201915b505050505081565b60008281526065602052604090206001015461121981612d1c565b610b64838361317a565b6001600160a01b03811633146112935760405162461bcd60e51b815260206004820152602f60248201527f416363657373436f6e74726f6c3a2063616e206f6e6c792072656e6f756e636560448201526e103937b632b9903337b91039b2b63360891b6064820152608401610874565b816112eb5760405162461bcd60e51b815260206004820152602260248201527f4e6f7420616c6c6f77656420746f2072656e6f756e63652061646d696e20726f6044820152616c6560f01b6064820152608401610874565b61114e8282613200565b600061130081612d1c565b6001600160a01b0382163b6113575760405162461bcd60e51b815260206004820152601e60248201527f5f646e74616464726573732073686f756c6420626520636f6e747261637400006044820152606401610874565b816001600160a01b0316609f846040516113719190613ee4565b908152604051908190036020019020546001600160a01b031614156113cc5760405162461bcd60e51b8152602060048201526011602482015270111b9d08185b1c9958591e481859191959607a1b6044820152606401610874565b609b546040518190609d906113e2908790613ee4565b9081526040805191829003602090810183209390935581810190528581526001818301819052609b8054918201815560005281518051929360029092027fbba9db4cdbea0a37c207bbb83e20f828cd4441c49891101dc94fd20dc8efc349019261144f9284920190613980565b506020918201516001918201805460ff1916911515919091179055609c8054918201815560005285516114a9927faf85b9071dfafeac1409d3f1d19bafc9bc7c37974cde8df0ee6168f0086e539c90920191870190613980565b5082609f856040516114bb9190613ee4565b90815260405190819003602001812080546001600160a01b039384166001600160a01b0319909116179055908416906114f5908690613ee4565b604051908190038120907f2aa88e191bcf2e635d2ec6fdefe9f132a923b3e1f28d37cd4f5359084a06aa7690600090a350505050565b8061153581613267565b6001600160a01b03851661155b5760405162461bcd60e51b815260040161087490614135565b60a3546001600160a01b031633146115ae5760405162461bcd60e51b81526020600482015260166024820152754f6e6c7920666f72204c69717569645374616b696e6760501b6044820152606401610874565b6098609a846040516115c09190613ee4565b908152602001604051809103902054815481106115ed57634e487b7160e01b600052603260045260246000fd5b60009182526020909120600160029092020181015460ff161515146116245760405162461bcd60e51b815260040161087490614162565b6001600160a01b038516600090815260a9602052604090819020905161164b908490613ee4565b9081526040519081900360200190205460ff166116d5576001600160a01b0385166000908152609760205260409020611689908390600101876133a5565b6001600160a01b038516600090815260a96020526040908190209051600191906116b4908590613ee4565b908152604051908190036020019020805491151560ff199092169190911790555b6001600160a01b038516600090815260aa60205260409081902090516116fc908590613ee4565b9081526040519081900360200190205460ff166117ca576001600160a01b038516600090815260976020526040902061173a908490600201876134c4565b6001600160a01b03851660009081526097602052604090819020905161177e918591611767908690613ee4565b9081526020016040518091039020600101876134c4565b6001600160a01b038516600090815260aa6020526040908190209051600191906117a9908690613ee4565b908152604051908190036020019020805491151560ff199092169190911790555b6001600160a01b0385166000908152609760205260409081902090518591906117f4908590613ee4565b9081526040519081900360200181209061180f908690613ee4565b9081526020016040518091039020600082825461182c91906141a5565b9091555050609e5460405163257942cf60e11b81526001600160a01b0387811660048301526024820187905290911690634af2859e90604401600060405180830381600087803b15801561187f57600080fd5b505af1158015611893573d6000803e3d6000fd5b505050508360a6846040516118a89190613ee4565b908152602001604051809103902060008282546118c591906141a5565b909155505060a3546040516373a19b1160e11b81526001600160a01b038781166004830152602482018790529091169063e743362290604401600060405180830381600087803b15801561191857600080fd5b505af115801561192c573d6000803e3d6000fd5b505050508160405161193e9190613ee4565b604051809103902084866001600160a01b03167f09c1a35094e1c798a40c90ae052b1c28a5a4def47716650d2d469cfe71c5d5298660405161198091906140fe565b60405180910390a45050505050565b60a1818154811061199f57600080fd5b6000918252602090912001546001600160a01b0316905081565b60606099805480602002602001604051908101604052809291908181526020016000905b82821015611a895783829060005260206000200180546119fc9061423a565b80601f0160208091040260200160405190810160405280929190818152602001828054611a289061423a565b8015611a755780601f10611a4a57610100808354040283529160200191611a75565b820191906000526020600020905b815481529060010190602001808311611a5857829003601f168201915b5050505050815260200190600101906119dd565b50505050905090565b6000805160206142b0833981519152611aaa81612d1c565b60a85460ff1615611aee5760405162461bcd60e51b815260206004820152600e60248201526d105b1c9958591e4818d85b1b195960921b6044820152606401610874565b5060a8805460ff199081166001908117909255604080516c4c69717569645374616b696e6760981b815260a7600d8201819052825191829003602d0182208054851686179055631b9d5b1b60e21b82526004820152905190819003602401902080549091169091179055565b609c818154811061116257600080fd5b6060609c805480602002602001604051908101604052809291908181526020016000905b82821015611a89578382906000526020600020018054611bad9061423a565b80601f0160208091040260200160405190810160405280929190818152602001828054611bd99061423a565b8015611c265780601f10611bfb57610100808354040283529160200191611c26565b820191906000526020600020905b815481529060010190602001808311611c0957829003601f168201915b505050505081526020019060010190611b8e565b609b8181548110611c4a57600080fd5b9060005260206000209060020201600091509050806000018054611c6d9061423a565b80601f0160208091040260200160405190810160405280929190818152602001828054611c999061423a565b8015611ce65780601f10611cbb57610100808354040283529160200191611ce6565b820191906000526020600020905b815481529060010190602001808311611cc957829003601f168201915b5050506001909301549192505060ff1682565b6000611d0481612d1c565b6001600160a01b0382163b611d675760405162461bcd60e51b815260206004820152602360248201527f5f616464726573732073686f756c6420626520636f6e7472616374206164647260448201526265737360e81b6064820152608401610874565b81609f84604051611d789190613ee4565b90815260405190819003602001812080546001600160a01b039384166001600160a01b031990911617905590831690611db2908590613ee4565b604051908190038120907ff6afeaf5eaacf33fde112acf99a42fc89ffb0abb963e67e9cc07154b58e644d890600090a3505050565b606060a1805480602002602001604051908101604052809291908181526020018280548015611e3f57602002820191906000526020600020905b81546001600160a01b03168152600190910190602001808311611e21575b5050505050905090565b60988181548110611c4a57600080fd5b6001600160a01b03821660009081526097602052604090819020905160609190611e84908490613ee4565b9081526020016040518091039020600101805480602002602001604051908101604052809291908181526020016000905b82821015611f61578382906000526020600020018054611ed49061423a565b80601f0160208091040260200160405190810160405280929190818152602001828054611f009061423a565b8015611f4d5780601f10611f2257610100808354040283529160200191611f4d565b820191906000526020600020905b815481529060010190602001808311611f3057829003601f168201915b505050505081526020019060010190611eb5565b50505050905092915050565b600054610100900460ff1615808015611f8d5750600054600160ff909116105b80611fa75750303b158015611fa7575060005460ff166001145b61200a5760405162461bcd60e51b815260206004820152602e60248201527f496e697469616c697a61626c653a20636f6e747261637420697320616c72656160448201526d191e481a5b9a5d1a585b1a5e995960921b6064820152608401610874565b6000805460ff19166001179055801561202d576000805461ff0019166101001790555b61203860003361317a565b60a080546001600160a01b0319163317905560408051608081018252600591810191825264656d70747960d81b6060820152908152600060208083018290526098805460018101825592528251805160029093027f2237a976fa961f5921fd19f2b03c925c725d77b20ce8f790c19709c03de4d81401926120bc9284920190613980565b506020918201516001918201805491151560ff1990921691909117905560408051608081018252600591810191825264656d70747960d81b60608201529081526000818401819052609b80549384018155905280518051919360029093027fbba9db4cdbea0a37c207bbb83e20f828cd4441c49891101dc94fd20dc8efc349019261214c92849290910190613980565b506020918201516001918201805491151560ff19909216919091179055604080516080810182526004918101918252631b9d5b1b60e21b606082015290815280830182905260988054928301815560005280518051919360029093027f2237a976fa961f5921fd19f2b03c925c725d77b20ce8f790c19709c03de4d81401926121da92849290910190613980565b506020918201516001918201805460ff191691151591909117905560408051631b9d5b1b60e21b808252609a60048084019190915283519283900360240183208590556099805495860181556000528284019093528282529301928352612266927f72a152ddfb8e864297c917af52ea6c1c68aead0fee1a62673fcc7e0c94979d009092019190613980565b5080156122ad576000805461ff0019169055604051600181527f7f26b83ff96e1f2b6a682f133852f6798a09c465da95921460cefb38474024989060200160405180910390a15b50565b60009182526065602090815260408084206001600160a01b0393909316845291905290205460ff1690565b6000805160206142b08339815191526122f381612d1c565b816122fd81613267565b6098609a8560405161230f9190613ee4565b9081526020016040518091039020548154811061233c57634e487b7160e01b600052603260045260246000fd5b60009182526020909120600160029092020181015460ff161515146123735760405162461bcd60e51b815260040161087490614162565b6001600160a01b03861660009081526097602052604090819020905186919061239d908690613ee4565b908152604051908190036020018120906123b8908790613ee4565b90815260200160405180910390205410156124155760405162461bcd60e51b815260206004820152601a60248201527f4e6f7420656e6f75676820444e5420696e207574696c697479210000000000006044820152606401610874565b8460a6856040516124269190613ee4565b9081526020016040518091039020600082825461244391906141dc565b9091555050609e54604051630a7f3bd960e21b81526001600160a01b03888116600483015260248201889052909116906329fcef6490604401600060405180830381600087803b15801561249657600080fd5b505af11580156124aa573d6000803e3d6000fd5b50505050505050505050565b60006124c181612d1c565b6001600160a01b0382166124e75760405162461bcd60e51b815260040161087490614135565b60a0546001600160a01b03838116911614156125455760405162461bcd60e51b815260206004820152601c60248201527f547279696e6720746f20736574207468652073616d65206f776e6572000000006044820152606401610874565b60a05461255d906000906001600160a01b0316613200565b61256860008361317a565b5060a080546001600160a01b0319166001600160a01b0392909216919091179055565b600061259681612d1c565b6125ae6000805160206142b0833981519152836122b0565b6125fa5760405162461bcd60e51b815260206004820152601860248201527f41646472657373206973206e6f742061206d616e6167657200000000000000006044820152606401610874565b6001600160a01b038216600090815260a2602052604090205460a18054612623906001906141dc565b8154811061264157634e487b7160e01b600052603260045260246000fd5b60009182526020909120015460a180546001600160a01b03909216918390811061267b57634e487b7160e01b600052603260045260246000fd5b9060005260206000200160006101000a8154816001600160a01b0302191690836001600160a01b0316021790555060a18054806126c857634e487b7160e01b600052603160045260246000fd5b600082815260209020810160001990810180546001600160a01b03191690550190556127026000805160206142b083398151915284613200565b50506001600160a01b0316600090815260a26020526040812055565b60008281526065602052604090206001015461273981612d1c565b826127865760405162461bcd60e51b815260206004820181905260248201527f4e6f7420616c6c6f77656420746f207265766f6b652061646d696e20726f6c656044820152606401610874565b610b648383613200565b600061279b81612d1c565b816127a581613267565b6001600160a01b0384166127cb5760405162461bcd60e51b815260040161087490614135565b609e5460405163f2fde38b60e01b81526001600160a01b0386811660048301529091169063f2fde38b90602401600060405180830381600087803b15801561281257600080fd5b505af1158015612826573d6000803e3d6000fd5b50505050826040516128389190613ee4565b604051908190038120906001600160a01b038616907fc84b30414bed6758eab986173ff6506803af8f0774d3e2cd880d492c66f6f23190600090a350505050565b6001600160a01b038316600090815260976020526040808220905161289f908490613ee4565b908152604051908190036020018120906128ba908590613ee4565b90815260200160405180910390205490509392505050565b6000805160206142b08339815191526128ea81612d1c565b600160a5836040516128fc9190613ee4565b908152604051908190036020019020805491151560ff199092169190911790555050565b600061292b81612d1c565b609b54831061297c5760405162461bcd60e51b815260206004820152601a60248201527f4e6f7420666f756e6420646e74207769746820737563682069640000000000006044820152606401610874565b81609b848154811061299e57634e487b7160e01b600052603260045260246000fd5b906000526020600020906002020160010160006101000a81548160ff021916908315150217905550609b83815481106129e757634e487b7160e01b600052603260045260246000fd5b9060005260206000209060020201600001604051612a059190613f00565b604051908190038120908315159085907fb28d6a852d853cb25168186027fd5d9476f99f90b0ce3de2dac9f6d5684f8fa890600090a4505050565b6000612a4b81612d1c565b60a782604051612a5b9190613ee4565b9081526040519081900360200190205460ff1615612ab35760405162461bcd60e51b8152602060048201526015602482015274155d1a5b1a5d1e48185b1c9958591e481859191959605a1b6044820152606401610874565b6098546040518190609a90612ac9908690613ee4565b908152604080519182900360209081018320939093558181019052848152600181830181905260988054918201815560005281518051929360029092027f2237a976fa961f5921fd19f2b03c925c725d77b20ce8f790c19709c03de4d8140192612b369284920190613980565b506020918201516001918201805460ff19169115159190911790556099805491820181556000528451612b90927f72a152ddfb8e864297c917af52ea6c1c68aead0fee1a62673fcc7e0c94979d0090920191860190613980565b50600160a784604051612ba39190613ee4565b908152604051908190036020018120805492151560ff1990931692909217909155612bcf908490613ee4565b604051908190038120907f3d2eb6444129447b53179a3087d701bd088fe8f49f125c4d6b19a8d4d42311a190600090a2505050565b600081612c1081613267565b6001600160a01b038416612c625760405162461bcd60e51b815260206004820152601960248201527853686f756c646e2774206265207a65726f206164647265737360381b6044820152606401610874565b609e546040516370a0823160e01b81526001600160a01b038681166004830152909116906370a082319060240160206040518083038186803b158015612ca757600080fd5b505afa158015612cbb573d6000803e3d6000fd5b505050506040513d601f19601f82011682018060405250810190612cdf9190613e71565b949350505050565b60006001600160e01b03198216637965db0b60e01b148061080657506301ffc9a760e01b6001600160e01b0319831614610806565b6122ad81336135ca565b80612d3081613267565b6098609a84604051612d429190613ee4565b90815260200160405180910390205481548110612d6f57634e487b7160e01b600052603260045260246000fd5b60009182526020909120600160029092020181015460ff16151514612da65760405162461bcd60e51b815260040161087490614162565b6001600160a01b038516600090815260976020526040908190209051859190612dd0908590613ee4565b90815260405190819003602001812090612deb908690613ee4565b9081526020016040518091039020541015612e485760405162461bcd60e51b815260206004820152601a60248201527f4e6f7420656e6f75676820444e5420696e207574696c697479210000000000006044820152606401610874565b6001600160a01b038516600090815260976020526040908190209051859190612e72908590613ee4565b90815260405190819003602001812090612e8d908690613ee4565b90815260200160405180910390206000828254612eaa91906141dc565b90915550506001600160a01b038516600090815260976020526040908190209051612ed6908490613ee4565b90815260405190819003602001812090612ef1908590613ee4565b9081526020016040518091039020546000141561305f576001600160a01b038516600090815260a96020526040908190209051612f2f908490613ee4565b9081526040519081900360200190205460ff1615612f6e576001600160a01b0385166000908152609760205260409020612f6e9083906001018761362e565b6001600160a01b038516600090815260aa6020526040908190209051612f95908590613ee4565b9081526040519081900360200190205460ff1615612fd4576001600160a01b0385166000908152609760205260409020612fd490849060020187613743565b6001600160a01b038516600090815260a960205260408082209051612ffa908590613ee4565b9081526040805160209281900383018120805460ff1916941515949094179093556001600160a01b038816600090815260aa9092528120909161303e908690613ee4565b908152604051908190036020019020805491151560ff199092169190911790555b5050505050565b8061307081613267565b6001600160a01b0385166130965760405162461bcd60e51b815260040161087490614135565b6098609a846040516130a89190613ee4565b908152602001604051809103902054815481106130d557634e487b7160e01b600052603260045260246000fd5b60009182526020909120600160029092020181015460ff1615151461310c5760405162461bcd60e51b815260040161087490614162565b6001600160a01b038516600090815260976020526040908190209051859190613136908590613ee4565b90815260405190819003602001812090613151908690613ee4565b9081526020016040518091039020600082825461316e91906141a5565b90915550505050505050565b61318482826122b0565b61114e5760008281526065602090815260408083206001600160a01b03851684529091529020805460ff191660011790556131bc3390565b6001600160a01b0316816001600160a01b0316837f2f8788117e7eff1d82e926ec794901d17c78024a50270940304540a733656f0d60405160405180910390a45050565b61320a82826122b0565b1561114e5760008281526065602090815260408083206001600160a01b0385168085529252808320805460ff1916905551339285917ff6391f5c32d9c69d2a47ea670b442974b53935d1edc7fd64eb21e047a839171b9190a45050565b6000805160206142b083398151915261327f81612d1c565b6000609f836040516132919190613ee4565b908152604051908190036020019020546001600160a01b03169050806132ec5760405162461bcd60e51b815260206004820152601060248201526f496e76616c696420616464726573732160801b6044820152606401610874565b609b609d846040516132fe9190613ee4565b9081526020016040518091039020548154811061332b57634e487b7160e01b600052603260045260246000fd5b60009182526020909120600160029092020181015460ff161515146133815760405162461bcd60e51b815260206004820152600c60248201526b496e76616c696420446e742160a01b6044820152606401610874565b609e80546001600160a01b0319166001600160a01b03929092169190911790555050565b6000805160206142b08339815191526133bd81612d1c565b609b609d856040516133cf9190613ee4565b908152602001604051809103902054815481106133fc57634e487b7160e01b600052603260045260246000fd5b60009182526020909120600160029092020181015460ff161515146134525760405162461bcd60e51b815260206004820152600c60248201526b496e76616c696420444e542160a01b6044820152606401610874565b825460018101845560008481526020908190208651613478939190910191870190613980565b508254613487906001906141dc565b6001600160a01b038316600090815260ac60205260409081902090516134ae908790613ee4565b9081526040519081900360200190205550505050565b6000805160206142b08339815191526134dc81612d1c565b6000609a856040516134ee9190613ee4565b90815260200160405180910390205490506098818154811061352057634e487b7160e01b600052603260045260246000fd5b60009182526020909120600160029092020181015460ff161515146135575760405162461bcd60e51b815260040161087490614162565b83546001810185556000858152602090819020875161357d939190910191880190613980565b50835461358c906001906141dc565b6001600160a01b038416600090815260ab60205260409081902090516135b3908890613ee4565b908152604051908190036020019020555050505050565b6135d482826122b0565b61114e576135ec816001600160a01b03166014613797565b6135f7836020613797565b604051602001613608929190613f9b565b60408051601f198184030181529082905262461bcd60e51b8252610874916004016140fe565b6000805160206142b083398151915261364681612d1c565b8254600090613657906001906141dc565b6001600160a01b038416600090815260ac602052604080822090519293509091613682908890613ee4565b90815260200160405180910390205490508482815481106136b357634e487b7160e01b600052603260045260246000fd5b906000526020600020018582815481106136dd57634e487b7160e01b600052603260045260246000fd5b906000526020600020019080546136f39061423a565b6136fe929190613a04565b508480548061371d57634e487b7160e01b600052603160045260246000fd5b6001900381819060005260206000200160006137399190613a7f565b9055505050505050565b6000805160206142b083398151915261375b81612d1c565b825460009061376c906001906141dc565b6001600160a01b038416600090815260ab602052604080822090519293509091613682908890613ee4565b606060006137a68360026141bd565b6137b19060026141a5565b67ffffffffffffffff8111156137d757634e487b7160e01b600052604160045260246000fd5b6040519080825280601f01601f191660200182016040528015613801576020820181803683370190505b509050600360fc1b8160008151811061382a57634e487b7160e01b600052603260045260246000fd5b60200101906001600160f81b031916908160001a905350600f60fb1b8160018151811061386757634e487b7160e01b600052603260045260246000fd5b60200101906001600160f81b031916908160001a905350600061388b8460026141bd565b6138969060016141a5565b90505b600181111561392a576f181899199a1a9b1b9c1cb0b131b232b360811b85600f16601081106138d857634e487b7160e01b600052603260045260246000fd5b1a60f81b8282815181106138fc57634e487b7160e01b600052603260045260246000fd5b60200101906001600160f81b031916908160001a90535060049490941c9361392381614223565b9050613899565b5083156139795760405162461bcd60e51b815260206004820181905260248201527f537472696e67733a20686578206c656e67746820696e73756666696369656e746044820152606401610874565b9392505050565b82805461398c9061423a565b90600052602060002090601f0160209004810192826139ae57600085556139f4565b82601f106139c757805160ff19168380011785556139f4565b828001600101855582156139f4579182015b828111156139f45782518255916020019190600101906139d9565b50613a00929150613ab5565b5090565b828054613a109061423a565b90600052602060002090601f016020900481019282613a3257600085556139f4565b82601f10613a4357805485556139f4565b828001600101855582156139f457600052602060002091601f016020900482015b828111156139f4578254825591600101919060010190613a64565b508054613a8b9061423a565b6000825580601f10613a9b575050565b601f0160209004906000526020600020908101906122ad91905b5b80821115613a005760008155600101613ab6565b80356001600160a01b0381168114613ae157600080fd5b919050565b600082601f830112613af6578081fd5b813567ffffffffffffffff80821115613b1157613b1161428b565b604051601f8301601f19908116603f01168101908282118183101715613b3957613b3961428b565b81604052838152866020858801011115613b51578485fd5b8360208701602083013792830160200193909352509392505050565b600060208284031215613b7e578081fd5b61397982613aca565b60008060408385031215613b99578081fd5b613ba283613aca565b9150613bb060208401613aca565b90509250929050565b600080600080600060a08688031215613bd0578081fd5b613bd986613aca565b9450613be760208701613aca565b935060408601359250606086013567ffffffffffffffff80821115613c0a578283fd5b613c1689838a01613ae6565b93506080880135915080821115613c2b578283fd5b50613c3888828901613ae6565b9150509295509295909350565b60008060408385031215613c57578182fd5b613c6083613aca565b9150602083013567ffffffffffffffff811115613c7b578182fd5b613c8785828601613ae6565b9150509250929050565b600080600060608486031215613ca5578283fd5b613cae84613aca565b9250602084013567ffffffffffffffff80821115613cca578384fd5b613cd687838801613ae6565b93506040860135915080821115613ceb578283fd5b50613cf886828701613ae6565b9150509250925092565b60008060008060808587031215613d17578384fd5b613d2085613aca565b935060208501359250604085013567ffffffffffffffff80821115613d43578384fd5b613d4f88838901613ae6565b93506060870135915080821115613d64578283fd5b50613d7187828801613ae6565b91505092959194509250565b600060208284031215613d8e578081fd5b8151613979816142a1565b600060208284031215613daa578081fd5b5035919050565b60008060408385031215613dc3578182fd5b82359150613bb060208401613aca565b600060208284031215613de4578081fd5b81356001600160e01b031981168114613979578182fd5b600060208284031215613e0c578081fd5b813567ffffffffffffffff811115613e22578182fd5b612cdf84828501613ae6565b60008060408385031215613e40578182fd5b823567ffffffffffffffff811115613e56578283fd5b613e6285828601613ae6565b925050613bb060208401613aca565b600060208284031215613e82578081fd5b5051919050565b60008060408385031215613e9b578182fd5b823591506020830135613ead816142a1565b809150509250929050565b60008151808452613ed08160208601602086016141f3565b601f01601f19169290920160200192915050565b60008251613ef68184602087016141f3565b9190910192915050565b600080835482600182811c915080831680613f1c57607f831692505b6020808410821415613f3c57634e487b7160e01b87526022600452602487fd5b818015613f505760018114613f6157613f8d565b60ff19861689528489019650613f8d565b60008a815260209020885b86811015613f855781548b820152908501908301613f6c565b505084890196505b509498975050505050505050565b7f416363657373436f6e74726f6c3a206163636f756e7420000000000000000000815260008351613fd38160178501602088016141f3565b7001034b99036b4b9b9b4b733903937b6329607d1b60179184019182015283516140048160288401602088016141f3565b01602801949350505050565b6001600160a01b038416815260606020820181905260009061403490830185613eb8565b82810360408401526140468185613eb8565b9695505050505050565b6020808252825182820181905260009190848201906040850190845b818110156140915783516001600160a01b03168352928401929184019160010161406c565b50909695505050505050565b6000602080830181845280855180835260408601915060408160051b8701019250838701855b828110156140f157603f198886030184526140df858351613eb8565b945092850192908501906001016140c3565b5092979650505050505050565b6020815260006139796020830184613eb8565b6040815260006141246040830185613eb8565b905082151560208301529392505050565b6020808252601390820152725a65726f206164647265737320616c61726d2160681b604082015260600190565b60208082526010908201526f496e76616c6964207574696c6974792160801b604082015260600190565b828152604060208201526000612cdf6040830184613eb8565b600082198211156141b8576141b8614275565b500190565b60008160001904831182151516156141d7576141d7614275565b500290565b6000828210156141ee576141ee614275565b500390565b60005b8381101561420e5781810151838201526020016141f6565b8381111561421d576000848401525b50505050565b60008161423257614232614275565b506000190190565b600181811c9082168061424e57607f821691505b6020821081141561426f57634e487b7160e01b600052602260045260246000fd5b50919050565b634e487b7160e01b600052601160045260246000fd5b634e487b7160e01b600052604160045260246000fd5b80151581146122ad57600080fdfeaf290d8680820aad922855f39b306097b20e28774d6c1ad35a20325630c3a02ca2646970667358221220c58d64964773393c1059ee01d15faf31ad9db93bf9c851da3940188311548da964736f6c63430008040033",
    "linkReferences": {}
  },
  "methodIdentifiers": {
    "DEFAULT_ADMIN_ROLE()": "a217fddf",
    "MANAGER()": "1b2df850",
    "addDnt(string,address)": "3806b1be",
    "addManager(address)": "2d06177a",
    "addUtility(string)": "efd2d18e",
    "addUtilityToDisalowList(string)": "eaf49f2f",
    "changeDntAddress(string,address)": "5ebe2f8a",
    "changeManagerAddress(address,address)": "29501ad6",
    "changeOwner(address)": "a6f9dae1",
    "disallowList(string)": "a41c673a",
    "dntContracts(string)": "ecca7d17",
    "dntDB(uint256)": "55e86c6a",
    "dntId(string)": "54d80307",
    "dnts(uint256)": "545bdb6e",
    "getRoleAdmin(bytes32)": "248a9ca3",
    "getUserDntBalance(address,string)": "f7e085cd",
    "getUserDntBalanceInUtil(address,string,string)": "e1d9b417",
    "getUserUtilsInDnt(address,string)": "72b74398",
    "grantRole(bytes32,address)": "2f2ff15d",
    "hasRole(bytes32,address)": "91d14854",
    "initialize()": "8129fc1c",
    "initialize2()": "472abf68",
    "isUtility(string)": "9ccd0adb",
    "issueDnt(address,uint256,string,string)": "398a1329",
    "listDnts()": "54768824",
    "listManagers()": "5fbf052a",
    "listUserDnts(address)": "12d22c54",
    "listUtilities()": "40bc44a4",
    "managerIds(address)": "dddecb2c",
    "managers(uint256)": "3d39c260",
    "owner()": "8da5cb5b",
    "removeDnt(address,uint256,string,string)": "a4dd557c",
    "removeManager(address)": "ac18de43",
    "renounceRole(bytes32,address)": "36568abe",
    "revokeRole(bytes32,address)": "d547741f",
    "setDntStatus(uint256,bool)": "ef01145a",
    "setLiquidStaking(address)": "08211be5",
    "setUtilityStatus(uint256,bool)": "292e1f12",
    "supportsInterface(bytes4)": "01ffc9a7",
    "totalDntInUtil(string)": "be667e96",
    "transferDnt(address,address,uint256,string,string)": "2c615e38",
    "transferDntContractOwnership(address,string)": "df176650",
    "userDntsIdx(address,string)": "7b7b33a3",
    "userHasDnt(address,string)": "dc044072",
    "userHasUtility(address,string)": "c16e5b1e",
    "userUtitliesIdx(address,string)": "0740bb37",
    "utilities(uint256)": "2d4a2146",
    "utilityDB(uint256)": "71e9acfa",
    "utilityId(string)": "6d965378"
  },
  "id": 28
}