{
  "abi": [
    {
      "inputs": [],
      "stateMutability": "nonpayable",
      "type": "constructor"
    },
    {
      "anonymous": false,
      "inputs": [
        {
          "indexed": true,
          "internalType": "address",
          "name": "user",
          "type": "address"
        },
        {
          "indexed": false,
          "internalType": "uint256",
          "name": "astrAmount",
          "type": "uint256"
        },
        {
          "indexed": false,
          "internalType": "uint256",
          "name": "nastrAmount",
          "type": "uint256"
        },
        {
          "indexed": true,
          "internalType": "bool",
          "name": "autoStake",
          "type": "bool"
        },
        {
          "indexed": true,
          "internalType": "uint256",
          "name": "lpAmount",
          "type": "uint256"
        }
      ],
      "name": "AddLiquidity",
      "type": "event"
    },
    {
      "anonymous": false,
      "inputs": [
        {
          "indexed": true,
          "internalType": "address",
          "name": "user",
          "type": "address"
        },
        {
          "indexed": true,
          "internalType": "uint256",
          "name": "amount",
          "type": "uint256"
        }
      ],
      "name": "Claim",
      "type": "event"
    },
    {
      "anonymous": false,
      "inputs": [
        {
          "indexed": true,
          "internalType": "address",
          "name": "",
          "type": "address"
        },
        {
          "indexed": false,
          "internalType": "uint256",
          "name": "amount",
          "type": "uint256"
        }
      ],
      "name": "DepositLP",
      "type": "event"
    },
    {
      "anonymous": false,
      "inputs": [
        {
          "indexed": true,
          "internalType": "address",
          "name": "user",
          "type": "address"
        },
        {
          "indexed": true,
          "internalType": "uint256",
          "name": "rewardsToHarvest",
          "type": "uint256"
        }
      ],
      "name": "HarvestRewards",
      "type": "event"
    },
    {
      "anonymous": false,
      "inputs": [
        {
          "indexed": false,
          "internalType": "uint8",
          "name": "version",
          "type": "uint8"
        }
      ],
      "name": "Initialized",
      "type": "event"
    },
    {
      "anonymous": false,
      "inputs": [
        {
          "indexed": true,
          "internalType": "address",
          "name": "previousOwner",
          "type": "address"
        },
        {
          "indexed": true,
          "internalType": "address",
          "name": "newOwner",
          "type": "address"
        }
      ],
      "name": "OwnershipTransferred",
      "type": "event"
    },
    {
      "anonymous": false,
      "inputs": [
        {
          "indexed": true,
          "internalType": "address",
          "name": "user",
          "type": "address"
        },
        {
          "indexed": false,
          "internalType": "uint256",
          "name": "amountLP",
          "type": "uint256"
        },
        {
          "indexed": true,
          "internalType": "uint256",
          "name": "receivedASTR",
          "type": "uint256"
        }
      ],
      "name": "RemoveLiquidity",
      "type": "event"
    },
    {
      "anonymous": false,
      "inputs": [
        {
          "indexed": false,
          "internalType": "address",
          "name": "user",
          "type": "address"
        },
        {
          "indexed": false,
          "internalType": "string",
          "name": "utilityName",
          "type": "string"
        },
        {
          "indexed": false,
          "internalType": "uint256",
          "name": "amount",
          "type": "uint256"
        },
        {
          "indexed": false,
          "internalType": "string",
          "name": "reason",
          "type": "string"
        }
      ],
      "name": "UpdateBalError",
      "type": "event"
    },
    {
      "anonymous": false,
      "inputs": [
        {
          "indexed": false,
          "internalType": "address",
          "name": "user",
          "type": "address"
        },
        {
          "indexed": false,
          "internalType": "string",
          "name": "utilityName",
          "type": "string"
        },
        {
          "indexed": false,
          "internalType": "uint256",
          "name": "amount",
          "type": "uint256"
        }
      ],
      "name": "UpdateBalSuccess",
      "type": "event"
    },
    {
      "anonymous": false,
      "inputs": [
        {
          "indexed": true,
          "internalType": "address",
          "name": "user",
          "type": "address"
        },
        {
          "indexed": true,
          "internalType": "uint256",
          "name": "amount",
          "type": "uint256"
        },
        {
          "indexed": true,
          "internalType": "bool",
          "name": "autoWithdraw",
          "type": "bool"
        }
      ],
      "name": "WithdrawLP",
      "type": "event"
    },
    {
      "inputs": [],
      "name": "REVENUE_FEE",
      "outputs": [
        {
          "internalType": "uint256",
          "name": "",
          "type": "uint256"
        }
      ],
      "stateMutability": "view",
      "type": "function"
    },
    {
      "inputs": [],
      "name": "SLIPPAGE_CONTROL",
      "outputs": [
        {
          "internalType": "uint256",
          "name": "",
          "type": "uint256"
        }
      ],
      "stateMutability": "view",
      "type": "function"
    },
    {
      "inputs": [],
      "name": "WASTR",
      "outputs": [
        {
          "internalType": "address",
          "name": "",
          "type": "address"
        }
      ],
      "stateMutability": "view",
      "type": "function"
    },
    {
      "inputs": [],
      "name": "accumulatedRewardsPerShare",
      "outputs": [
        {
          "internalType": "uint256",
          "name": "",
          "type": "uint256"
        }
      ],
      "stateMutability": "view",
      "type": "function"
    },
    {
      "inputs": [],
      "name": "adaptersDistributor",
      "outputs": [
        {
          "internalType": "contract IAdaptersDistributor",
          "name": "",
          "type": "address"
        }
      ],
      "stateMutability": "view",
      "type": "function"
    },
    {
      "inputs": [
        {
          "internalType": "uint256[]",
          "name": "_amounts",
          "type": "uint256[]"
        },
        {
          "internalType": "bool",
          "name": "_autoStake",
          "type": "bool"
        }
      ],
      "name": "addLiquidity",
      "outputs": [],
      "stateMutability": "payable",
      "type": "function"
    },
    {
      "inputs": [
        {
          "internalType": "uint256",
          "name": "_amount",
          "type": "uint256"
        },
        {
          "internalType": "bool",
          "name": "_autoDeposit",
          "type": "bool"
        }
      ],
      "name": "addLp",
      "outputs": [],
      "stateMutability": "nonpayable",
      "type": "function"
    },
    {
      "inputs": [],
      "name": "arswToken",
      "outputs": [
        {
          "internalType": "contract IERC20Upgradeable",
          "name": "",
          "type": "address"
        }
      ],
      "stateMutability": "view",
      "type": "function"
    },
    {
      "inputs": [
        {
          "internalType": "address",
          "name": "_user",
          "type": "address"
        }
      ],
      "name": "calc",
      "outputs": [
        {
          "internalType": "uint256",
          "name": "nShare",
          "type": "uint256"
        }
      ],
      "stateMutability": "view",
      "type": "function"
    },
    {
      "inputs": [
        {
          "internalType": "uint256",
          "name": "_amount",
          "type": "uint256"
        }
      ],
      "name": "calculateRemoveLiquidity",
      "outputs": [
        {
          "internalType": "uint256[]",
          "name": "",
          "type": "uint256[]"
        }
      ],
      "stateMutability": "view",
      "type": "function"
    },
    {
      "inputs": [],
      "name": "claim",
      "outputs": [],
      "stateMutability": "nonpayable",
      "type": "function"
    },
    {
      "inputs": [
        {
          "internalType": "uint256",
          "name": "_amount",
          "type": "uint256"
        }
      ],
      "name": "depositLP",
      "outputs": [],
      "stateMutability": "nonpayable",
      "type": "function"
    },
    {
      "inputs": [
        {
          "internalType": "address",
          "name": "",
          "type": "address"
        }
      ],
      "name": "depositedLp",
      "outputs": [
        {
          "internalType": "uint256",
          "name": "",
          "type": "uint256"
        }
      ],
      "stateMutability": "view",
      "type": "function"
    },
    {
      "inputs": [],
      "name": "farm",
      "outputs": [
        {
          "internalType": "contract IMasterChef",
          "name": "",
          "type": "address"
        }
      ],
      "stateMutability": "view",
      "type": "function"
    },
    {
      "inputs": [
        {
          "internalType": "address",
          "name": "_user",
          "type": "address"
        }
      ],
      "name": "gaugeBalances",
      "outputs": [
        {
          "internalType": "uint256",
          "name": "",
          "type": "uint256"
        }
      ],
      "stateMutability": "view",
      "type": "function"
    },
    {
      "inputs": [
        {
          "internalType": "uint256",
          "name": "astrPrice",
          "type": "uint256"
        }
      ],
      "name": "getInfo",
      "outputs": [
        {
          "internalType": "uint256",
          "name": "tvl",
          "type": "uint256"
        },
        {
          "internalType": "uint256",
          "name": "apr",
          "type": "uint256"
        }
      ],
      "stateMutability": "view",
      "type": "function"
    },
    {
      "inputs": [
        {
          "internalType": "uint256[]",
          "name": "_amounts",
          "type": "uint256[]"
        }
      ],
      "name": "getLpAmount",
      "outputs": [
        {
          "internalType": "uint256",
          "name": "amount",
          "type": "uint256"
        }
      ],
      "stateMutability": "view",
      "type": "function"
    },
    {
      "inputs": [
        {
          "internalType": "uint256",
          "name": "_amount",
          "type": "uint256"
        },
        {
          "internalType": "bool",
          "name": "_isAstr",
          "type": "bool"
        }
      ],
      "name": "getSecondAmount",
      "outputs": [
        {
          "internalType": "uint256",
          "name": "sum",
          "type": "uint256"
        }
      ],
      "stateMutability": "view",
      "type": "function"
    },
    {
      "inputs": [],
      "name": "getUsers",
      "outputs": [
        {
          "internalType": "address[]",
          "name": "",
          "type": "address[]"
        }
      ],
      "stateMutability": "view",
      "type": "function"
    },
    {
      "inputs": [
        {
          "internalType": "contract IMasterChef",
          "name": "_farm",
          "type": "address"
        },
        {
          "internalType": "contract IPancakeRouter01",
          "name": "_pool",
          "type": "address"
        },
        {
          "internalType": "contract IERC20Upgradeable",
          "name": "_nToken",
          "type": "address"
        },
        {
          "internalType": "contract IERC20Upgradeable",
          "name": "_lp",
          "type": "address"
        },
        {
          "internalType": "contract IPancakePair",
          "name": "_pair",
          "type": "address"
        },
        {
          "internalType": "contract IERC20Upgradeable",
          "name": "_arswToken",
          "type": "address"
        },
        {
          "internalType": "uint256",
          "name": "_pid",
          "type": "uint256"
        }
      ],
      "name": "initialize",
      "outputs": [],
      "stateMutability": "nonpayable",
      "type": "function"
    },
    {
      "inputs": [
        {
          "internalType": "address",
          "name": "",
          "type": "address"
        }
      ],
      "name": "isUser",
      "outputs": [
        {
          "internalType": "bool",
          "name": "",
          "type": "bool"
        }
      ],
      "stateMutability": "view",
      "type": "function"
    },
    {
      "inputs": [],
      "name": "lp",
      "outputs": [
        {
          "internalType": "contract IERC20Upgradeable",
          "name": "",
          "type": "address"
        }
      ],
      "stateMutability": "view",
      "type": "function"
    },
    {
      "inputs": [
        {
          "internalType": "address",
          "name": "",
          "type": "address"
        }
      ],
      "name": "lpBalances",
      "outputs": [
        {
          "internalType": "uint256",
          "name": "",
          "type": "uint256"
        }
      ],
      "stateMutability": "view",
      "type": "function"
    },
    {
      "inputs": [],
      "name": "nToken",
      "outputs": [
        {
          "internalType": "contract IERC20Upgradeable",
          "name": "",
          "type": "address"
        }
      ],
      "stateMutability": "view",
      "type": "function"
    },
    {
      "inputs": [],
      "name": "owner",
      "outputs": [
        {
          "internalType": "address",
          "name": "",
          "type": "address"
        }
      ],
      "stateMutability": "view",
      "type": "function"
    },
    {
      "inputs": [],
      "name": "pair",
      "outputs": [
        {
          "internalType": "contract IPancakePair",
          "name": "",
          "type": "address"
        }
      ],
      "stateMutability": "view",
      "type": "function"
    },
    {
      "inputs": [
        {
          "internalType": "address",
          "name": "_user",
          "type": "address"
        }
      ],
      "name": "pendingRewards",
      "outputs": [
        {
          "internalType": "uint256",
          "name": "sum",
          "type": "uint256"
        }
      ],
      "stateMutability": "view",
      "type": "function"
    },
    {
      "inputs": [],
      "name": "pool",
      "outputs": [
        {
          "internalType": "contract IPancakeRouter01",
          "name": "",
          "type": "address"
        }
      ],
      "stateMutability": "view",
      "type": "function"
    },
    {
      "inputs": [
        {
          "internalType": "uint256",
          "name": "_amount",
          "type": "uint256"
        }
      ],
      "name": "removeLiquidity",
      "outputs": [],
      "stateMutability": "nonpayable",
      "type": "function"
    },
    {
      "inputs": [],
      "name": "renounceOwnership",
      "outputs": [],
      "stateMutability": "nonpayable",
      "type": "function"
    },
    {
      "inputs": [],
      "name": "revenuePool",
      "outputs": [
        {
          "internalType": "uint256",
          "name": "",
          "type": "uint256"
        }
      ],
      "stateMutability": "view",
      "type": "function"
    },
    {
      "inputs": [
        {
          "internalType": "address",
          "name": "",
          "type": "address"
        }
      ],
      "name": "rewardDebt",
      "outputs": [
        {
          "internalType": "uint256",
          "name": "",
          "type": "uint256"
        }
      ],
      "stateMutability": "view",
      "type": "function"
    },
    {
      "inputs": [
        {
          "internalType": "address",
          "name": "",
          "type": "address"
        }
      ],
      "name": "rewards",
      "outputs": [
        {
          "internalType": "uint256",
          "name": "",
          "type": "uint256"
        }
      ],
      "stateMutability": "view",
      "type": "function"
    },
    {
      "inputs": [
        {
          "internalType": "contract IAdaptersDistributor",
          "name": "_adaptersDistributor",
          "type": "address"
        }
      ],
      "name": "setAdaptersDistributor",
      "outputs": [],
      "stateMutability": "nonpayable",
      "type": "function"
    },
    {
      "inputs": [
        {
          "internalType": "string",
          "name": "_utilityName",
          "type": "string"
        }
      ],
      "name": "setUtilityName",
      "outputs": [],
      "stateMutability": "nonpayable",
      "type": "function"
    },
    {
      "inputs": [],
      "name": "totalReserves",
      "outputs": [
        {
          "internalType": "uint256",
          "name": "sum",
          "type": "uint256"
        }
      ],
      "stateMutability": "view",
      "type": "function"
    },
    {
      "inputs": [],
      "name": "totalStakedASTR",
      "outputs": [
        {
          "internalType": "uint256",
          "name": "",
          "type": "uint256"
        }
      ],
      "stateMutability": "view",
      "type": "function"
    },
    {
      "inputs": [],
      "name": "totalStakedLp",
      "outputs": [
        {
          "internalType": "uint256",
          "name": "",
          "type": "uint256"
        }
      ],
      "stateMutability": "view",
      "type": "function"
    },
    {
      "inputs": [
        {
          "internalType": "address",
          "name": "newOwner",
          "type": "address"
        }
      ],
      "name": "transferOwnership",
      "outputs": [],
      "stateMutability": "nonpayable",
      "type": "function"
    },
    {
      "inputs": [
        {
          "internalType": "uint256",
          "name": "",
          "type": "uint256"
        }
      ],
      "name": "users",
      "outputs": [
        {
          "internalType": "address",
          "name": "",
          "type": "address"
        }
      ],
      "stateMutability": "view",
      "type": "function"
    },
    {
      "inputs": [],
      "name": "utilityName",
      "outputs": [
        {
          "internalType": "string",
          "name": "",
          "type": "string"
        }
      ],
      "stateMutability": "view",
      "type": "function"
    },
    {
      "inputs": [
        {
          "internalType": "uint256",
          "name": "_amount",
          "type": "uint256"
        },
        {
          "internalType": "bool",
          "name": "_autoWithdraw",
          "type": "bool"
        }
      ],
      "name": "withdrawLP",
      "outputs": [],
      "stateMutability": "nonpayable",
      "type": "function"
    },
    {
      "inputs": [
        {
          "internalType": "uint256",
          "name": "_amount",
          "type": "uint256"
        }
      ],
      "name": "withdrawRevenue",
      "outputs": [],
      "stateMutability": "nonpayable",
      "type": "function"
    },
    {
      "stateMutability": "payable",
      "type": "receive"
    }
  ],
  "bytecode": {
    "object": "0x60806040523480156200001157600080fd5b506200001c62000022565b620000e4565b600054610100900460ff16156200008f5760405162461bcd60e51b815260206004820152602760248201527f496e697469616c697a61626c653a20636f6e747261637420697320696e697469604482015266616c697a696e6760c81b606482015260840160405180910390fd5b60005460ff9081161015620000e2576000805460ff191660ff9081179091556040519081527f7f26b83ff96e1f2b6a682f133852f6798a09c465da95921460cefb38474024989060200160405180910390a15b565b6140b980620000f46000396000f3fe60806040526004361061025f5760003560e01c80634e71d92d116101445780639c8f9f23116100b6578063cfb79ed21161007a578063cfb79ed2146107ba578063dec841cf146107da578063eb37acfc14610802578063eeda250414610822578063f2fad2b614610835578063f2fde38b1461086257600080fd5b80639c8f9f231461070d578063a8aa1b311461072d578063abd779751461074d578063cdb37ef11461076d578063cf2fb02f1461078d57600080fd5b80637caeeedb116101085780637caeeedb146106795780637f753de61461068f5780638da5cb5b146106a55780638f840ddd146106c35780639373b7f8146106d8578063967ba185146106f857600080fd5b80634e71d92d146105e257806357321944146105f75780635873eb9b14610617578063715018a61461064457806374baa6551461065957600080fd5b80631a969073116101dd57806336e9332d116101a157806336e9332d146104f75780633ea5856f146105175780634209fff11461053757806343a37564146105775780634421bd1e1461059757806345418a4e146105ac57600080fd5b80631a969073146104555780632bb3526e14610475578063313c06a01461049757806331d7a262146104b7578063365b98b2146104d757600080fd5b80630ceff204116102245780630ceff204146103935780631460e390146103b357806316f0115b146103d35780631a1fb2321461040b5780631a3cd59a1461042057600080fd5b8062ce8e3e146102ca578063061960aa146102f55780630700037d14610319578063083380b6146103465780630b65092d1461036657600080fd5b366102c5576098546001600160a01b031633146102c35760405162461bcd60e51b815260206004820152601a60248201527f53656e64696e6720746f6b656e73206e6f7420616c6c6f77656400000000000060448201526064015b60405180910390fd5b005b600080fd5b3480156102d657600080fd5b506102df610882565b6040516102ec9190613d17565b60405180910390f35b34801561030157600080fd5b5061030b609d5481565b6040519081526020016102ec565b34801561032557600080fd5b5061030b610334366004613775565b60a26020526000908152604090205481565b34801561035257600080fd5b5061030b610361366004613775565b6108e4565b34801561037257600080fd5b5061030b610381366004613775565b60a16020526000908152604090205481565b34801561039f57600080fd5b506102c36103ae366004613ad7565b6109c3565b3480156103bf57600080fd5b506102c36103ce3660046138f6565b610b46565b3480156103df57600080fd5b506098546103f3906001600160a01b031681565b6040516001600160a01b0390911681526020016102ec565b34801561041757600080fd5b5061030b610ccd565b34801561042c57600080fd5b5061044061043b366004613ad7565b610db6565b604080519283526020830191909152016102ec565b34801561046157600080fd5b5061030b610470366004613b07565b6112e6565b34801561048157600080fd5b5061048a611438565b6040516102ec9190613d9c565b3480156104a357600080fd5b506099546103f3906001600160a01b031681565b3480156104c357600080fd5b5061030b6104d2366004613775565b6114c6565b3480156104e357600080fd5b506103f36104f2366004613ad7565b611572565b34801561050357600080fd5b506097546103f3906001600160a01b031681565b34801561052357600080fd5b5060a5546103f3906001600160a01b031681565b34801561054357600080fd5b50610567610552366004613775565b60a86020526000908152604090205460ff1681565b60405190151581526020016102ec565b34801561058357600080fd5b506102c3610592366004613775565b61159c565b3480156105a357600080fd5b5061030b600a81565b3480156105b857600080fd5b5061030b6105c7366004613775565b6001600160a01b0316600090815260a3602052604090205490565b3480156105ee57600080fd5b506102c36115c6565b34801561060357600080fd5b506102c3610612366004613b07565b61170a565b34801561062357600080fd5b5061030b610632366004613775565b60a46020526000908152604090205481565b34801561065057600080fd5b506102c3611a95565b34801561066557600080fd5b50609b546103f3906001600160a01b031681565b34801561068557600080fd5b5061030b609f5481565b34801561069b57600080fd5b5061030b609e5481565b3480156106b157600080fd5b506033546001600160a01b03166103f3565b3480156106cf57600080fd5b5061030b611af6565b3480156106e457600080fd5b5061030b6106f336600461382e565b611b19565b34801561070457600080fd5b5061030b600881565b34801561071957600080fd5b506102c3610728366004613ad7565b611ce5565b34801561073957600080fd5b50609a546103f3906001600160a01b031681565b34801561075957600080fd5b506102c3610768366004613982565b611ff7565b34801561077957600080fd5b50609c546103f3906001600160a01b031681565b34801561079957600080fd5b5061030b6107a8366004613775565b60a36020526000908152604090205481565b3480156107c657600080fd5b506102c36107d5366004613b07565b612016565b3480156107e657600080fd5b506103f373aeaaf0e2c81af264101b9129c00f4440ccf0f72081565b34801561080e57600080fd5b506102c361081d366004613ad7565b6121ef565b6102c36108303660046137ad565b6124e7565b34801561084157600080fd5b50610855610850366004613ad7565b612a5e565b6040516102ec9190613d64565b34801561086e57600080fd5b506102c361087d366004613775565b612bb4565b606060a78054806020026020016040519081016040528092919081815260200182805480156108da57602002820191906000526020600020905b81546001600160a01b031681526001909101906020018083116108bc575b5050505050905090565b6000806108ef612c2a565b915050609a60009054906101000a90046001600160a01b03166001600160a01b03166318160ddd6040518163ffffffff1660e01b815260040160206040518083038186803b15801561094057600080fd5b505afa158015610954573d6000803e3d6000fd5b505050506040513d601f19601f820116820180604052508101906109789190613aef565b6001600160a01b038416600090815260a3602090815260408083205460a19092529091205483916109a891613e96565b6109b29190613ece565b6109bc9190613eae565b9392505050565b6109cb612d8a565b609c546040516370a0823160e01b815230600482015282916001600160a01b0316906370a082319060240160206040518083038186803b158015610a0e57600080fd5b505afa158015610a22573d6000803e3d6000fd5b505050506040513d601f19601f82011682018060405250810190610a469190613aef565b1015610a945760405162461bcd60e51b815260206004820152601760248201527f4e6f7420656e6f756768204152535720726576656e756500000000000000000060448201526064016102ba565b60008111610ab45760405162461bcd60e51b81526004016102ba90613ddd565b80609e541015610b155760405162461bcd60e51b815260206004820152602660248201527f496e73756666696369656e742066756e647320696e2074686520726576656e7560448201526519481c1bdbdb60d21b60648201526084016102ba565b80609e6000828254610b279190613eed565b9091555050609c54610b43906001600160a01b03163383612de6565b50565b600054610100900460ff1615808015610b665750600054600160ff909116105b80610b805750303b158015610b80575060005460ff166001145b610be35760405162461bcd60e51b815260206004820152602e60248201527f496e697469616c697a61626c653a20636f6e747261637420697320616c72656160448201526d191e481a5b9a5d1a585b1a5e995960921b60648201526084016102ba565b6000805460ff191660011790558015610c06576000805461ff0019166101001790555b610c0e612e4e565b610c16612e7d565b609780546001600160a01b03199081166001600160a01b038b8116919091179092556098805482168a8416179055609980548216888416179055609b80548216898416179055609a80548216878416179055609c805490911691851691909117905560a08290558015610cc3576000805461ff0019169055604051600181527f7f26b83ff96e1f2b6a682f133852f6798a09c465da95921460cefb38474024989060200160405180910390a15b5050505050505050565b60408051600280825260608201835260009283929190602083019080368337019050506099546040516370a0823160e01b81523060048201529192506000916001600160a01b03909116906370a082319060240160206040518083038186803b158015610d3957600080fd5b505afa158015610d4d573d6000803e3d6000fd5b505050506040513d601f19601f82011682018060405250810190610d719190613aef565b9050610d8481609f546108509190613e96565b915081600081518110610da757634e487b7160e01b600052603260045260246000fd5b60200260200101519250505090565b60008060008311610dfe5760405162461bcd60e51b81526020600482015260126024820152715a65726f206164647265737320616c61726d60701b60448201526064016102ba565b609754604051632596038360e11b81524360048201527350497e7181eb9e8ccd70a9c44fb997742149482a91612710916000916001600160a01b031690630d1f64a8908290634b2c07069060240160206040518083038186803b158015610e6457600080fd5b505afa158015610e78573d6000803e3d6000fd5b505050506040513d601f19601f82011682018060405250810190610e9c9190613aef565b6040518263ffffffff1660e01b8152600401610eba91815260200190565b60206040518083038186803b158015610ed257600080fd5b505afa158015610ee6573d6000803e3d6000fd5b505050506040513d601f19601f82011682018060405250810190610f0a9190613aef565b90506000609760009054906101000a90046001600160a01b03166001600160a01b03166317caf6f16040518163ffffffff1660e01b815260040160206040518083038186803b158015610f5c57600080fd5b505afa158015610f70573d6000803e3d6000fd5b505050506040513d601f19601f82011682018060405250810190610f949190613aef565b609754604051631a27613960e21b8152602760048201529192506000916001600160a01b039091169063689d84e49060240160606040518083038186803b158015610fde57600080fd5b505afa158015610ff2573d6000803e3d6000fd5b505050506040513d601f19601f820116820180604052508101906110169190613a13565b604001519050600080866001600160a01b0316630902f1ac6040518163ffffffff1660e01b815260040160606040518083038186803b15801561105857600080fd5b505afa15801561106c573d6000803e3d6000fd5b505050506040513d601f19601f820116820180604052508101906110909190613a94565b506001600160701b039182169350169050600081876110af858e613ece565b6110b99190613ece565b6110c39190613eae565b90506000609a60009054906101000a90046001600160a01b03166001600160a01b0316630902f1ac6040518163ffffffff1660e01b815260040160606040518083038186803b15801561111557600080fd5b505afa158015611129573d6000803e3d6000fd5b505050506040513d601f19601f8201168201806040525081019061114d9190613a94565b50506001600160701b03169050670de0b6b3a76400008c61116f836002613ece565b6111799190613ece565b6111839190613eae565b609a546097546040516370a0823160e01b81526001600160a01b039182166004820152929d506000929116906370a082319060240160206040518083038186803b1580156111d057600080fd5b505afa1580156111e4573d6000803e3d6000fd5b505050506040513d601f19601f820116820180604052508101906112089190613aef565b9050600061121582612a5e565b60008151811061123557634e487b7160e01b600052603260045260246000fd5b602002602001015190506000670de0b6b3a76400008f8360026112589190613ece565b6112629190613ece565b61126c9190613eae565b905080818c878c8c67ffffffffffffffff168f6112899190613ece565b6112939190613eae565b6112a090622819a0613ece565b6112aa9190613ece565b6112b49190613eae565b6112be9190613e96565b6112c89190613eae565b6112d3906064613ece565b9c50505050505050505050505050915091565b60008060006112f3612c2a565b915091508361138b57609854604051632b58577b60e21b81526004810187905260248101839052604481018490526001600160a01b039091169063ad615dec9060640160206040518083038186803b15801561134e57600080fd5b505afa158015611362573d6000803e3d6000fd5b505050506040513d601f19601f820116820180604052508101906113869190613aef565b61142f565b609854604051632b58577b60e21b8152600481018790526024810184905260448101839052620186a0916001600160a01b03169063ad615dec9060640160206040518083038186803b1580156113e057600080fd5b505afa1580156113f4573d6000803e3d6000fd5b505050506040513d601f19601f820116820180604052508101906114189190613aef565b61142590620186a1613ece565b61142f9190613eae565b95945050505050565b60a6805461144590613f30565b80601f016020809104026020016040519081016040528092919081815260200182805461147190613f30565b80156114be5780601f10611493576101008083540402835291602001916114be565b820191906000526020600020905b8154815290600101906020018083116114a157829003601f168201915b505050505081565b6001600160a01b038116600090815260a360205260408120548015611550576001600160a01b038316600090815260a46020526040902054609d5464e8d4a51000906115129084613ece565b61151c9190613eae565b6001600160a01b038516600090815260a2602052604090205461153f9190613e96565b6115499190613eed565b915061156c565b6001600160a01b038316600090815260a2602052604090205491505b50919050565b60a7818154811061158257600080fd5b6000918252602090912001546001600160a01b0316905081565b6115a4612d8a565b60a580546001600160a01b0319166001600160a01b0392909216919091179055565b60975460a0546040516359a5f6c160e11b815260048101919091523060248201526000916001600160a01b03169063b34bed829060440160206040518083038186803b15801561161557600080fd5b505afa158015611629573d6000803e3d6000fd5b505050506040513d601f19601f8201168201806040525081019061164d9190613aef565b9050801561165d5761165d612eac565b61166561306e565b600260655414156116885760405162461bcd60e51b81526004016102ba90613e5f565b600260655533600090815260a260205260409020546116a657611702565b33600081815260a2602052604081208054919055609c5490916116d3916001600160a01b03169083612de6565b604051819033907f47cee97cb7acd717b3c0aa1435d004cd5b3c8c57d70dbceb4e4458bbd60e39d490600090a3505b506001606555565b60975460a0546040516359a5f6c160e11b815260048101919091523060248201526000916001600160a01b03169063b34bed829060440160206040518083038186803b15801561175957600080fd5b505afa15801561176d573d6000803e3d6000fd5b505050506040513d601f19601f820116820180604052508101906117919190613aef565b905080156117a1576117a1612eac565b6117a961306e565b33600090815260a360205260409020548311156118085760405162461bcd60e51b815260206004820152601e60248201527f4e6f7420656e6f756768206465706f7369746564204c5020746f6b656e73000060448201526064016102ba565b600083116118285760405162461bcd60e51b81526004016102ba90613ddd565b33600090815260a3602052604081208054859290611847908490613eed565b9250508190555082609f60008282546118609190613eed565b90915550506099546040516370a0823160e01b81523060048201526000916001600160a01b0316906370a082319060240160206040518083038186803b1580156118a957600080fd5b505afa1580156118bd573d6000803e3d6000fd5b505050506040513d601f19601f820116820180604052508101906118e19190613aef565b60975460a054604051630ad58d2f60e01b81526004810191909152602481018790523060448201529192506001600160a01b031690630ad58d2f90606401600060405180830381600087803b15801561193957600080fd5b505af115801561194d573d6000803e3d6000fd5b50506099546040516370a0823160e01b8152306004820152600093506001600160a01b0390911691506370a082319060240160206040518083038186803b15801561199757600080fd5b505afa1580156119ab573d6000803e3d6000fd5b505050506040513d601f19601f820116820180604052508101906119cf9190613aef565b905060006119dd8383613eed565b33600090815260a16020526040812080549293508392909190611a01908490613e96565b90915550611a10905033613137565b609d5433600090815260a3602052604090205464e8d4a5100091611a3391613ece565b611a3d9190613eae565b33600090815260a460205260409020558415611a5c57611a5c86611ce5565b60405185151590879033907f707698b04f0e54c638e6bc6e39a7cf7d534be15246dc474a1564a91c702c0b7690600090a4505050505050565b611a9d612d8a565b60405162461bcd60e51b815260206004820152602860248201527f4974206973206e6f7420706f737369626c6520746f2072656e6f756e6365206f6044820152670776e6572736869760c41b60648201526084016102ba565b6000806000611b03612c2a565b9092509050611b128282613e96565b9250505090565b6000806000609a60009054906101000a90046001600160a01b03166001600160a01b0316630902f1ac6040518163ffffffff1660e01b815260040160606040518083038186803b158015611b6c57600080fd5b505afa158015611b80573d6000803e3d6000fd5b505050506040513d601f19601f82011682018060405250810190611ba49190613a94565b506001600160701b031691506001600160701b031691506000609960009054906101000a90046001600160a01b03166001600160a01b03166318160ddd6040518163ffffffff1660e01b815260040160206040518083038186803b158015611c0b57600080fd5b505afa158015611c1f573d6000803e3d6000fd5b505050506040513d601f19601f82011682018060405250810190611c439190613aef565b90506000838287600181518110611c6a57634e487b7160e01b600052603260045260246000fd5b6020026020010151611c7c9190613ece565b611c869190613eae565b90506000838388600081518110611cad57634e487b7160e01b600052603260045260246000fd5b6020026020010151611cbf9190613ece565b611cc99190613eae565b9050808210611cd85780611cda565b815b979650505050505050565b60026065541415611d085760405162461bcd60e51b81526004016102ba90613e5f565b600260655580611d2a5760405162461bcd60e51b81526004016102ba90613ddd565b33600090815260a16020526040902054811115611d805760405162461bcd60e51b81526020600482015260146024820152734e6f7420656e6f756768204c5020746f6b656e7360601b60448201526064016102ba565b6000611d8b82612a5e565b905060008082600081518110611db157634e487b7160e01b600052603260045260246000fd5b602002602001015183600181518110611dda57634e487b7160e01b600052603260045260246000fd5b60200260200101519150915060006103e8600883611df89190613ece565b611e029190613eae565b611e0c9083613eed565b905060006103e8611e1e600886613ece565b611e289190613eae565b611e329085613eed565b60995460985460405163095ea7b360e01b81526001600160a01b039182166004820152602481018a9052929350169063095ea7b390604401602060405180830381600087803b158015611e8457600080fd5b505af1158015611e98573d6000803e3d6000fd5b505050506040513d601f19601f82011682018060405250810190611ebc91906138da565b50609854609b5460009182916001600160a01b03918216916302751cec91168a878730611eeb426104b0613e96565b6040518763ffffffff1660e01b8152600401611f0c96959493929190613cdc565b6040805180830381600087803b158015611f2557600080fd5b505af1158015611f39573d6000803e3d6000fd5b505050506040513d601f19601f82011682018060405250810190611f5d9190613b36565b33600090815260a16020526040812080549395509193508a92611f81908490613eed565b90915550611f90905033613137565b609b54611fa7906001600160a01b03163384612de6565b611fb1338261325e565b604051828152819033907f0fbf06c058b90cb038a618f8c2acbf6145f8b3570fd1fa56abb8f0f3f05b36e89060200160405180910390a350506001606555505050505050565b611fff612d8a565b80516120129060a69060208401906136a8565b5050565b600260655414156120395760405162461bcd60e51b81526004016102ba90613e5f565b60026065558161205b5760405162461bcd60e51b81526004016102ba90613ddd565b6099546040516370a0823160e01b81523360048201526001600160a01b03909116906370a082319060240160206040518083038186803b15801561209e57600080fd5b505afa1580156120b2573d6000803e3d6000fd5b505050506040513d601f19601f820116820180604052508101906120d69190613aef565b8211156121255760405162461bcd60e51b815260206004820152601860248201527f4e6f7420656e6f756768204c50206f6e2062616c616e6365000000000000000060448201526064016102ba565b33600090815260a8602052604090205460ff166121975760a7805460018181019092557fb68792697ed876af8b4858b316f5b54d81f6861191ad2950c1fde6c3dc7b3dea0180546001600160a01b03191633908117909155600090815260a860205260409020805460ff191690911790555b6099546121af906001600160a01b0316333085613377565b33600090815260a16020526040812080548492906121ce908490613e96565b909155506121dd905033613137565b6121e6826121ef565b50506001606555565b60975460a0546040516359a5f6c160e11b815260048101919091523060248201526000916001600160a01b03169063b34bed829060440160206040518083038186803b15801561223e57600080fd5b505afa158015612252573d6000803e3d6000fd5b505050506040513d601f19601f820116820180604052508101906122769190613aef565b9050801561228657612286612eac565b61228e61306e565b33600090815260a160205260409020548211156122e45760405162461bcd60e51b81526020600482015260146024820152734e6f7420656e6f756768204c5020746f6b656e7360601b60448201526064016102ba565b600082116123045760405162461bcd60e51b81526004016102ba90613ddd565b33600090815260a1602052604081208054849290612323908490613eed565b909155505060995460975460405163095ea7b360e01b81526001600160a01b0391821660048201526024810185905291169063095ea7b390604401602060405180830381600087803b15801561237857600080fd5b505af115801561238c573d6000803e3d6000fd5b505050506040513d601f19601f820116820180604052508101906123b091906138da565b5060975460a054604051638dbdbe6d60e01b81526004810191909152602481018490523060448201526001600160a01b0390911690638dbdbe6d90606401600060405180830381600087803b15801561240857600080fd5b505af115801561241c573d6000803e3d6000fd5b505033600090815260a3602052604081208054869450909250612440908490613e96565b9250508190555081609f60008282546124599190613e96565b90915550612468905033613137565b609d5433600090815260a3602052604090205464e8d4a510009161248b91613ece565b6124959190613eae565b33600081815260a46020526040908190209290925590517fa76194b11cf7b940f18e866ed3382a795bb09ca684db1b957d595417f63151f8906124db9085815260200190565b60405180910390a25050565b6002606554141561250a5760405162461bcd60e51b81526004016102ba90613e5f565b6002606555828260008161252e57634e487b7160e01b600052603260045260246000fd5b90506020020135341461259b5760405162461bcd60e51b815260206004820152602f60248201527f56616c7565206e65656420746f20626520657175616c20746f20616d6f756e7460448201526e206f66204153545220746f6b656e7360881b60648201526084016102ba565b6000838360018181106125be57634e487b7160e01b600052603260045260246000fd5b905060200201351180156125f957506000838360008181106125f057634e487b7160e01b600052603260045260246000fd5b90506020020135115b61265e5760405162461bcd60e51b815260206004820152603060248201527f416d6f756e74206f662074686520746f6b656e732073686f756c64206265206760448201526f726561746572207468616e207a65726f60801b60648201526084016102ba565b600282146126c15760405162461bcd60e51b815260206004820152602a60248201527f546865206c656e677468206f6620616d6f756e7473206d75737420626520657160448201526975616c20746f2074776f60b01b60648201526084016102ba565b33600090815260a8602052604090205460ff166127335760a7805460018181019092557fb68792697ed876af8b4858b316f5b54d81f6861191ad2950c1fde6c3dc7b3dea0180546001600160a01b03191633908117909155600090815260a860205260409020805460ff191690911790555b61277633308585600181811061275957634e487b7160e01b600052603260045260246000fd5b609b546001600160a01b0316949392602090910201359050613377565b60006103e860088585600181811061279e57634e487b7160e01b600052603260045260246000fd5b905060200201356127af9190613ece565b6127b99190613eae565b848460018181106127da57634e487b7160e01b600052603260045260246000fd5b905060200201356127eb9190613eed565b905060006103e86127fd600834613ece565b6128079190613eae565b6128119034613eed565b609b546098549192506001600160a01b039081169163095ea7b391168787600181811061284e57634e487b7160e01b600052603260045260246000fd5b6040516001600160e01b031960e087901b1681526001600160a01b0390941660048501526020029190910135602483015250604401602060405180830381600087803b15801561289d57600080fd5b505af11580156128b1573d6000803e3d6000fd5b505050506040513d601f19601f820116820180604052508101906128d591906138da565b50609854609b546000916001600160a01b039081169163f305d719913491168989600181811061291557634e487b7160e01b600052603260045260246000fd5b90506020020135878730426104b061292d9190613e96565b6040518863ffffffff1660e01b815260040161294e96959493929190613cdc565b6060604051808303818588803b15801561296757600080fd5b505af115801561297b573d6000803e3d6000fd5b50505050506040513d601f19601f820116820180604052508101906129a09190613b59565b33600090815260a16020526040812080549295508594509250906129c5908490613e96565b909155506129d4905033613137565b83156129e3576129e3816121ef565b80841515337f430d746c0511287008b149537bfb4896c7559ebaa43aca8ed6e3d2be2c81ce9f348a8a6001818110612a2b57634e487b7160e01b600052603260045260246000fd5b90506020020135604051612a49929190918252602082015260400190565b60405180910390a45050600160655550505050565b6060600080612a6b612c2a565b915091506000609a60009054906101000a90046001600160a01b03166001600160a01b03166318160ddd6040518163ffffffff1660e01b815260040160206040518083038186803b158015612abf57600080fd5b505afa158015612ad3573d6000803e3d6000fd5b505050506040513d601f19601f82011682018060405250810190612af79190613aef565b9050600081612b068488613ece565b612b109190613eae565b9050600082612b1f8689613ece565b612b299190613eae565b6040805160028082526060820183529293506000929091602083019080368337019050509050818382600081518110612b7257634e487b7160e01b600052603260045260246000fd5b6020026020010183600181518110612b9a57634e487b7160e01b600052603260045260246000fd5b602090810291909101019190915252979650505050505050565b612bbc612d8a565b6001600160a01b038116612c215760405162461bcd60e51b815260206004820152602660248201527f4f776e61626c653a206e6577206f776e657220697320746865207a65726f206160448201526564647265737360d01b60648201526084016102ba565b610b43816133b5565b6000806000609a60009054906101000a90046001600160a01b03166001600160a01b0316630dfe16816040518163ffffffff1660e01b815260040160206040518083038186803b158015612c7d57600080fd5b505afa158015612c91573d6000803e3d6000fd5b505050506040513d601f19601f82011682018060405250810190612cb59190613791565b9050600080609a60009054906101000a90046001600160a01b03166001600160a01b0316630902f1ac6040518163ffffffff1660e01b815260040160606040518083038186803b158015612d0857600080fd5b505afa158015612d1c573d6000803e3d6000fd5b505050506040513d601f19601f82011682018060405250810190612d409190613a94565b506001600160701b0391821693501690506001600160a01b03831673aeaaf0e2c81af264101b9129c00f4440ccf0f72014612d7c578082612d7f565b81815b945094505050509091565b6033546001600160a01b03163314612de45760405162461bcd60e51b815260206004820181905260248201527f4f776e61626c653a2063616c6c6572206973206e6f7420746865206f776e657260448201526064016102ba565b565b6040516001600160a01b038316602482015260448101829052612e4990849063a9059cbb60e01b906064015b60408051601f198184030181529190526020810180516001600160e01b03166001600160e01b031990931692909217909152613407565b505050565b600054610100900460ff16612e755760405162461bcd60e51b81526004016102ba90613e14565b612de46134d9565b600054610100900460ff16612ea45760405162461bcd60e51b81526004016102ba90613e14565b612de4613509565b609f54612eb557565b609c546040516370a0823160e01b81523060048201526000916001600160a01b0316906370a082319060240160206040518083038186803b158015612ef957600080fd5b505afa158015612f0d573d6000803e3d6000fd5b505050506040513d601f19601f82011682018060405250810190612f319190613aef565b60975460a054604051630c7e663b60e11b815260048101919091523060248201529192506001600160a01b0316906318fccc7690604401600060405180830381600087803b158015612f8257600080fd5b505af1158015612f96573d6000803e3d6000fd5b5050609c546040516370a0823160e01b8152306004820152600093506001600160a01b0390911691506370a082319060240160206040518083038186803b158015612fe057600080fd5b505afa158015612ff4573d6000803e3d6000fd5b505050506040513d601f19601f820116820180604052508101906130189190613aef565b9050600082821161302a576000613034565b6130348383613eed565b609f5490915061304964e8d4a5100083613ece565b6130539190613eae565b609d60008282546130649190613e96565b9091555050505050565b33600090815260a3602090815260408083205460a4909252822054609d5491929164e8d4a51000906130a09085613ece565b6130aa9190613eae565b6130b49190613eed565b905064e8d4a51000609d54836130ca9190613ece565b6130d49190613eae565b33600090815260a4602090815260408083209390935560a290529081208054839290613101908490613e96565b9091555050604051819033907fdaaebb9609cb2f719c59c9d334be287bf4def107ad3dec4a6f90d8abaa94c73c90600090a35050565b6000613142826108e4565b60a554604051631704b63f60e31b81529192506001600160a01b03169063b825b1f8906131789060a69086908690600401613daf565b600060405180830381600087803b15801561319257600080fd5b505af19250505080156131a3575060015b61321e576131af613fbe565b806308c379a0141561321257506131c4613fd6565b806131cf5750613214565b7f09ea598594b5fdf29f0c25c248aa5544ff0096cb773326201275441cf0e4e8cf8360a684846040516132059493929190613ca0565b60405180910390a1505050565b505b3d6000803e3d6000fd5b7f8b82945fd970ddd18b63c39a87ceefd3db5966cb2ab0c9ec3043baa8a70b4c278260a68360405161325293929190613c6c565b60405180910390a15050565b804710156132ae5760405162461bcd60e51b815260206004820152601d60248201527f416464726573733a20696e73756666696369656e742062616c616e636500000060448201526064016102ba565b6000826001600160a01b03168260405160006040518083038185875af1925050503d80600081146132fb576040519150601f19603f3d011682016040523d82523d6000602084013e613300565b606091505b5050905080612e495760405162461bcd60e51b815260206004820152603a60248201527f416464726573733a20756e61626c6520746f2073656e642076616c75652c207260448201527f6563697069656e74206d6179206861766520726576657274656400000000000060648201526084016102ba565b6040516001600160a01b03808516602483015283166044820152606481018290526133af9085906323b872dd60e01b90608401612e12565b50505050565b603380546001600160a01b038381166001600160a01b0319831681179093556040519116919082907f8be0079c531659141344cd1fd0a4f28419497f9722a3daafe3b4186f6b6457e090600090a35050565b600061345c826040518060400160405280602081526020017f5361666545524332303a206c6f772d6c6576656c2063616c6c206661696c6564815250856001600160a01b03166135379092919063ffffffff16565b805190915015612e49578080602001905181019061347a91906138da565b612e495760405162461bcd60e51b815260206004820152602a60248201527f5361666545524332303a204552433230206f7065726174696f6e20646964206e6044820152691bdd081cdd58d8d9595960b21b60648201526084016102ba565b600054610100900460ff166135005760405162461bcd60e51b81526004016102ba90613e14565b612de4336133b5565b600054610100900460ff166135305760405162461bcd60e51b81526004016102ba90613e14565b6001606555565b6060613546848460008561354e565b949350505050565b6060824710156135af5760405162461bcd60e51b815260206004820152602660248201527f416464726573733a20696e73756666696369656e742062616c616e636520666f6044820152651c8818d85b1b60d21b60648201526084016102ba565b6001600160a01b0385163b6136065760405162461bcd60e51b815260206004820152601d60248201527f416464726573733a2063616c6c20746f206e6f6e2d636f6e747261637400000060448201526064016102ba565b600080866001600160a01b031685876040516136229190613c50565b60006040518083038185875af1925050503d806000811461365f576040519150601f19603f3d011682016040523d82523d6000602084013e613664565b606091505b5091509150611cda8282866060831561367e5750816109bc565b82511561368e5782518084602001fd5b8160405162461bcd60e51b81526004016102ba9190613d9c565b8280546136b490613f30565b90600052602060002090601f0160209004810192826136d6576000855561371c565b82601f106136ef57805160ff191683800117855561371c565b8280016001018555821561371c579182015b8281111561371c578251825591602001919060010190613701565b5061372892915061372c565b5090565b5b80821115613728576000815560010161372d565b80516001600160701b038116811461375857600080fd5b919050565b805167ffffffffffffffff8116811461375857600080fd5b600060208284031215613786578081fd5b81356109bc81614060565b6000602082840312156137a2578081fd5b81516109bc81614060565b6000806000604084860312156137c1578182fd5b833567ffffffffffffffff808211156137d8578384fd5b818601915086601f8301126137eb578384fd5b8135818111156137f9578485fd5b8760208260051b850101111561380d578485fd5b6020928301955093505084013561382381614075565b809150509250925092565b60006020808385031215613840578182fd5b823567ffffffffffffffff80821115613857578384fd5b818501915085601f83011261386a578384fd5b81358181111561387c5761387c613fa8565b8060051b915060405161389185840182613f65565b81815284810184860184860187018a10156138aa578788fd5b8795505b838610156138cc5780358252600195909501949086019086016138ae565b509098975050505050505050565b6000602082840312156138eb578081fd5b81516109bc81614075565b600080600080600080600060e0888a031215613910578283fd5b873561391b81614060565b9650602088013561392b81614060565b9550604088013561393b81614060565b9450606088013561394b81614060565b9350608088013561395b81614060565b925060a088013561396b81614060565b8092505060c0880135905092959891949750929550565b60006020808385031215613994578182fd5b823567ffffffffffffffff808211156139ab578384fd5b818501915085601f8301126139be578384fd5b8135818111156139d0576139d0613fa8565b60405191506139e8601f8201601f1916850183613f65565b80825286848285010111156139fb578485fd5b80848401858401378101909201929092529392505050565b600060608284031215613a24578081fd5b6040516060810181811067ffffffffffffffff82111715613a4757613a47613fa8565b60405282516fffffffffffffffffffffffffffffffff81168114613a69578283fd5b8152613a776020840161375d565b6020820152613a886040840161375d565b60408201529392505050565b600080600060608486031215613aa8578081fd5b613ab184613741565b9250613abf60208501613741565b9150604084015163ffffffff81168114613823578182fd5b600060208284031215613ae8578081fd5b5035919050565b600060208284031215613b00578081fd5b5051919050565b60008060408385031215613b19578182fd5b823591506020830135613b2b81614075565b809150509250929050565b60008060408385031215613b48578182fd5b505080516020909101519092909150565b600080600060608486031215613b6d578081fd5b8351925060208401519150604084015190509250925092565b60008151808452613b9e816020860160208601613f04565b601f01601f19169290920160200192915050565b8054600090600181811c9080831680613bcc57607f831692505b6020808410821415613bec57634e487b7160e01b86526022600452602486fd5b83885260208801828015613c075760018114613c1857613c43565b60ff19871682528282019750613c43565b60008981526020902060005b87811015613c3d57815484820152908601908401613c24565b83019850505b5050505050505092915050565b60008251613c62818460208701613f04565b9190910192915050565b6001600160a01b0384168152606060208201819052600090613c9090830185613bb2565b9050826040830152949350505050565b6001600160a01b0385168152608060208201819052600090613cc490830186613bb2565b8460408401528281036060840152611cda8185613b86565b6001600160a01b039687168152602081019590955260408501939093526060840191909152909216608082015260a081019190915260c00190565b6020808252825182820181905260009190848201906040850190845b81811015613d585783516001600160a01b031683529284019291840191600101613d33565b50909695505050505050565b6020808252825182820181905260009190848201906040850190845b81811015613d5857835183529284019291840191600101613d80565b6020815260006109bc6020830184613b86565b606081526000613dc26060830186613bb2565b6001600160a01b039490941660208301525060400152919050565b6020808252601b908201527f53686f756c642062652067726561746572207468616e207a65726f0000000000604082015260600190565b6020808252602b908201527f496e697469616c697a61626c653a20636f6e7472616374206973206e6f74206960408201526a6e697469616c697a696e6760a81b606082015260800190565b6020808252601f908201527f5265656e7472616e637947756172643a207265656e7472616e742063616c6c00604082015260600190565b60008219821115613ea957613ea9613f92565b500190565b600082613ec957634e487b7160e01b81526012600452602481fd5b500490565b6000816000190483118215151615613ee857613ee8613f92565b500290565b600082821015613eff57613eff613f92565b500390565b60005b83811015613f1f578181015183820152602001613f07565b838111156133af5750506000910152565b600181811c90821680613f4457607f821691505b6020821081141561156c57634e487b7160e01b600052602260045260246000fd5b601f8201601f1916810167ffffffffffffffff81118282101715613f8b57613f8b613fa8565b6040525050565b634e487b7160e01b600052601160045260246000fd5b634e487b7160e01b600052604160045260246000fd5b600060033d1115613fd357600481823e5160e01c5b90565b600060443d1015613fe45790565b6040516003193d81016004833e81513d67ffffffffffffffff816024840111818411171561401457505050505090565b828501915081518181111561402c5750505050505090565b843d87010160208285010111156140465750505050505090565b61405560208286010187613f65565b509095945050505050565b6001600160a01b0381168114610b4357600080fd5b8015158114610b4357600080fdfea2646970667358221220b130b736edc9ce0b9d9500993f7000e44ba78c60d8a9e24eb83e047e82c9c85e64736f6c63430008040033",
    "linkReferences": {}
  },
  "methodIdentifiers": {
    "REVENUE_FEE()": "4421bd1e",
    "SLIPPAGE_CONTROL()": "967ba185",
    "WASTR()": "dec841cf",
    "accumulatedRewardsPerShare()": "061960aa",
    "adaptersDistributor()": "3ea5856f",
    "addLiquidity(uint256[],bool)": "eeda2504",
    "addLp(uint256,bool)": "cfb79ed2",
    "arswToken()": "cdb37ef1",
    "calc(address)": "083380b6",
    "calculateRemoveLiquidity(uint256)": "f2fad2b6",
    "claim()": "4e71d92d",
    "depositLP(uint256)": "eb37acfc",
    "depositedLp(address)": "cf2fb02f",
    "farm()": "36e9332d",
    "gaugeBalances(address)": "45418a4e",
    "getInfo(uint256)": "1a3cd59a",
    "getLpAmount(uint256[])": "9373b7f8",
    "getSecondAmount(uint256,bool)": "1a969073",
    "getUsers()": "00ce8e3e",
    "initialize(address,address,address,address,address,address,uint256)": "1460e390",
    "isUser(address)": "4209fff1",
    "lp()": "313c06a0",
    "lpBalances(address)": "0b65092d",
    "nToken()": "74baa655",
    "owner()": "8da5cb5b",
    "pair()": "a8aa1b31",
    "pendingRewards(address)": "31d7a262",
    "pool()": "16f0115b",
    "removeLiquidity(uint256)": "9c8f9f23",
    "renounceOwnership()": "715018a6",
    "revenuePool()": "7f753de6",
    "rewardDebt(address)": "5873eb9b",
    "rewards(address)": "0700037d",
    "setAdaptersDistributor(address)": "43a37564",
    "setUtilityName(string)": "abd77975",
    "totalReserves()": "8f840ddd",
    "totalStakedASTR()": "1a1fb232",
    "totalStakedLp()": "7caeeedb",
    "transferOwnership(address)": "f2fde38b",
    "users(uint256)": "365b98b2",
    "utilityName()": "2bb3526e",
    "withdrawLP(uint256,bool)": "57321944",
    "withdrawRevenue(uint256)": "0ceff204"
  },
  "id": 4
}