{
  "abi": [
    {
      "inputs": [],
      "stateMutability": "nonpayable",
      "type": "constructor"
    },
    {
      "anonymous": false,
      "inputs": [
        {
          "indexed": true,
          "internalType": "address",
          "name": "user",
          "type": "address"
        },
        {
          "indexed": false,
          "internalType": "uint256",
          "name": "astrAmount",
          "type": "uint256"
        },
        {
          "indexed": false,
          "internalType": "uint256",
          "name": "nastrAmount",
          "type": "uint256"
        },
        {
          "indexed": true,
          "internalType": "bool",
          "name": "autoStake",
          "type": "bool"
        },
        {
          "indexed": true,
          "internalType": "uint256",
          "name": "lpAmount",
          "type": "uint256"
        }
      ],
      "name": "AddLiquidity",
      "type": "event"
    },
    {
      "anonymous": false,
      "inputs": [
        {
          "indexed": true,
          "internalType": "address",
          "name": "user",
          "type": "address"
        },
        {
          "indexed": true,
          "internalType": "uint256",
          "name": "amount",
          "type": "uint256"
        }
      ],
      "name": "Claim",
      "type": "event"
    },
    {
      "anonymous": false,
      "inputs": [
        {
          "indexed": true,
          "internalType": "address",
          "name": "",
          "type": "address"
        },
        {
          "indexed": false,
          "internalType": "uint256",
          "name": "amount",
          "type": "uint256"
        }
      ],
      "name": "DepositLP",
      "type": "event"
    },
    {
      "anonymous": false,
      "inputs": [
        {
          "indexed": true,
          "internalType": "address",
          "name": "user",
          "type": "address"
        },
        {
          "indexed": true,
          "internalType": "uint256",
          "name": "rewardsToHarvest",
          "type": "uint256"
        }
      ],
      "name": "HarvestRewards",
      "type": "event"
    },
    {
      "anonymous": false,
      "inputs": [
        {
          "indexed": false,
          "internalType": "uint8",
          "name": "version",
          "type": "uint8"
        }
      ],
      "name": "Initialized",
      "type": "event"
    },
    {
      "anonymous": false,
      "inputs": [
        {
          "indexed": true,
          "internalType": "address",
          "name": "previousOwner",
          "type": "address"
        },
        {
          "indexed": true,
          "internalType": "address",
          "name": "newOwner",
          "type": "address"
        }
      ],
      "name": "OwnershipTransferred",
      "type": "event"
    },
    {
      "anonymous": false,
      "inputs": [
        {
          "indexed": true,
          "internalType": "address",
          "name": "user",
          "type": "address"
        },
        {
          "indexed": false,
          "internalType": "uint256",
          "name": "amountLP",
          "type": "uint256"
        },
        {
          "indexed": true,
          "internalType": "uint256",
          "name": "receivedASTR",
          "type": "uint256"
        }
      ],
      "name": "RemoveLiquidity",
      "type": "event"
    },
    {
      "anonymous": false,
      "inputs": [
        {
          "indexed": true,
          "internalType": "address",
          "name": "user",
          "type": "address"
        },
        {
          "indexed": true,
          "internalType": "uint256",
          "name": "amount",
          "type": "uint256"
        },
        {
          "indexed": true,
          "internalType": "bool",
          "name": "autoWithdraw",
          "type": "bool"
        }
      ],
      "name": "WithdrawLP",
      "type": "event"
    },
    {
      "inputs": [],
      "name": "REVENUE_FEE",
      "outputs": [
        {
          "internalType": "uint256",
          "name": "",
          "type": "uint256"
        }
      ],
      "stateMutability": "view",
      "type": "function"
    },
    {
      "inputs": [],
      "name": "SLIPPAGE_CONTROL",
      "outputs": [
        {
          "internalType": "uint256",
          "name": "",
          "type": "uint256"
        }
      ],
      "stateMutability": "view",
      "type": "function"
    },
    {
      "inputs": [],
      "name": "accumulatedRewardsPerShare",
      "outputs": [
        {
          "internalType": "uint256",
          "name": "",
          "type": "uint256"
        }
      ],
      "stateMutability": "view",
      "type": "function"
    },
    {
      "inputs": [
        {
          "internalType": "uint256[]",
          "name": "_amounts",
          "type": "uint256[]"
        },
        {
          "internalType": "bool",
          "name": "_autoStake",
          "type": "bool"
        }
      ],
      "name": "addLiquidity",
      "outputs": [],
      "stateMutability": "payable",
      "type": "function"
    },
    {
      "inputs": [
        {
          "internalType": "uint256",
          "name": "_amount",
          "type": "uint256"
        },
        {
          "internalType": "bool",
          "name": "_autoDeposit",
          "type": "bool"
        }
      ],
      "name": "addLp",
      "outputs": [],
      "stateMutability": "nonpayable",
      "type": "function"
    },
    {
      "inputs": [],
      "name": "arswToken",
      "outputs": [
        {
          "internalType": "contract IERC20Upgradeable",
          "name": "",
          "type": "address"
        }
      ],
      "stateMutability": "view",
      "type": "function"
    },
    {
      "inputs": [
        {
          "internalType": "address",
          "name": "_user",
          "type": "address"
        }
      ],
      "name": "calc",
      "outputs": [
        {
          "internalType": "uint256",
          "name": "nShare",
          "type": "uint256"
        }
      ],
      "stateMutability": "view",
      "type": "function"
    },
    {
      "inputs": [
        {
          "internalType": "uint256",
          "name": "_amount",
          "type": "uint256"
        }
      ],
      "name": "calculateRemoveLiquidity",
      "outputs": [
        {
          "internalType": "uint256[]",
          "name": "",
          "type": "uint256[]"
        }
      ],
      "stateMutability": "view",
      "type": "function"
    },
    {
      "inputs": [],
      "name": "claim",
      "outputs": [],
      "stateMutability": "nonpayable",
      "type": "function"
    },
    {
      "inputs": [
        {
          "internalType": "uint256",
          "name": "_amount",
          "type": "uint256"
        }
      ],
      "name": "depositLP",
      "outputs": [],
      "stateMutability": "nonpayable",
      "type": "function"
    },
    {
      "inputs": [
        {
          "internalType": "address",
          "name": "",
          "type": "address"
        }
      ],
      "name": "depositedLp",
      "outputs": [
        {
          "internalType": "uint256",
          "name": "",
          "type": "uint256"
        }
      ],
      "stateMutability": "view",
      "type": "function"
    },
    {
      "inputs": [],
      "name": "farm",
      "outputs": [
        {
          "internalType": "contract IMasterChef",
          "name": "",
          "type": "address"
        }
      ],
      "stateMutability": "view",
      "type": "function"
    },
    {
      "inputs": [
        {
          "internalType": "uint256",
          "name": "_amount",
          "type": "uint256"
        },
        {
          "internalType": "bool",
          "name": "_isAstr",
          "type": "bool"
        }
      ],
      "name": "getSecondAmount",
      "outputs": [
        {
          "internalType": "uint256",
          "name": "sum",
          "type": "uint256"
        }
      ],
      "stateMutability": "view",
      "type": "function"
    },
    {
      "inputs": [],
      "name": "initialize",
      "outputs": [],
      "stateMutability": "nonpayable",
      "type": "function"
    },
    {
      "inputs": [],
      "name": "lp",
      "outputs": [
        {
          "internalType": "contract IERC20Upgradeable",
          "name": "",
          "type": "address"
        }
      ],
      "stateMutability": "view",
      "type": "function"
    },
    {
      "inputs": [
        {
          "internalType": "address",
          "name": "",
          "type": "address"
        }
      ],
      "name": "lpBalances",
      "outputs": [
        {
          "internalType": "uint256",
          "name": "",
          "type": "uint256"
        }
      ],
      "stateMutability": "view",
      "type": "function"
    },
    {
      "inputs": [],
      "name": "nToken",
      "outputs": [
        {
          "internalType": "contract IERC20Upgradeable",
          "name": "",
          "type": "address"
        }
      ],
      "stateMutability": "view",
      "type": "function"
    },
    {
      "inputs": [],
      "name": "owner",
      "outputs": [
        {
          "internalType": "address",
          "name": "",
          "type": "address"
        }
      ],
      "stateMutability": "view",
      "type": "function"
    },
    {
      "inputs": [],
      "name": "pair",
      "outputs": [
        {
          "internalType": "contract IPancakePair",
          "name": "",
          "type": "address"
        }
      ],
      "stateMutability": "view",
      "type": "function"
    },
    {
      "inputs": [
        {
          "internalType": "address",
          "name": "_user",
          "type": "address"
        }
      ],
      "name": "pendingRewards",
      "outputs": [
        {
          "internalType": "uint256",
          "name": "sum",
          "type": "uint256"
        }
      ],
      "stateMutability": "view",
      "type": "function"
    },
    {
      "inputs": [],
      "name": "pool",
      "outputs": [
        {
          "internalType": "contract IPancakeRouter01",
          "name": "",
          "type": "address"
        }
      ],
      "stateMutability": "view",
      "type": "function"
    },
    {
      "inputs": [
        {
          "internalType": "uint256",
          "name": "_amount",
          "type": "uint256"
        }
      ],
      "name": "removeLiquidity",
      "outputs": [],
      "stateMutability": "nonpayable",
      "type": "function"
    },
    {
      "inputs": [],
      "name": "renounceOwnership",
      "outputs": [],
      "stateMutability": "nonpayable",
      "type": "function"
    },
    {
      "inputs": [],
      "name": "reserves",
      "outputs": [
        {
          "internalType": "uint256",
          "name": "",
          "type": "uint256"
        },
        {
          "internalType": "uint256",
          "name": "",
          "type": "uint256"
        }
      ],
      "stateMutability": "view",
      "type": "function"
    },
    {
      "inputs": [],
      "name": "revenuePool",
      "outputs": [
        {
          "internalType": "uint256",
          "name": "",
          "type": "uint256"
        }
      ],
      "stateMutability": "view",
      "type": "function"
    },
    {
      "inputs": [
        {
          "internalType": "address",
          "name": "",
          "type": "address"
        }
      ],
      "name": "rewardDebt",
      "outputs": [
        {
          "internalType": "uint256",
          "name": "",
          "type": "uint256"
        }
      ],
      "stateMutability": "view",
      "type": "function"
    },
    {
      "inputs": [
        {
          "internalType": "address",
          "name": "",
          "type": "address"
        }
      ],
      "name": "rewards",
      "outputs": [
        {
          "internalType": "uint256",
          "name": "",
          "type": "uint256"
        }
      ],
      "stateMutability": "view",
      "type": "function"
    },
    {
      "inputs": [
        {
          "internalType": "contract IMasterChef",
          "name": "_farm",
          "type": "address"
        },
        {
          "internalType": "contract IPancakeRouter01",
          "name": "_pool",
          "type": "address"
        },
        {
          "internalType": "contract IERC20Upgradeable",
          "name": "_nToken",
          "type": "address"
        },
        {
          "internalType": "contract IERC20Upgradeable",
          "name": "_lp",
          "type": "address"
        },
        {
          "internalType": "contract IPancakePair",
          "name": "_pair",
          "type": "address"
        },
        {
          "internalType": "contract IERC20Upgradeable",
          "name": "_arswToken",
          "type": "address"
        },
        {
          "internalType": "uint256",
          "name": "_pid",
          "type": "uint256"
        }
      ],
      "name": "setup",
      "outputs": [],
      "stateMutability": "nonpayable",
      "type": "function"
    },
    {
      "inputs": [],
      "name": "switchOrder",
      "outputs": [],
      "stateMutability": "nonpayable",
      "type": "function"
    },
    {
      "inputs": [],
      "name": "totalStakedLp",
      "outputs": [
        {
          "internalType": "uint256",
          "name": "",
          "type": "uint256"
        }
      ],
      "stateMutability": "view",
      "type": "function"
    },
    {
      "inputs": [
        {
          "internalType": "address",
          "name": "newOwner",
          "type": "address"
        }
      ],
      "name": "transferOwnership",
      "outputs": [],
      "stateMutability": "nonpayable",
      "type": "function"
    },
    {
      "inputs": [
        {
          "internalType": "uint256",
          "name": "_amount",
          "type": "uint256"
        },
        {
          "internalType": "bool",
          "name": "_autoWithdraw",
          "type": "bool"
        }
      ],
      "name": "withdrawLP",
      "outputs": [],
      "stateMutability": "nonpayable",
      "type": "function"
    },
    {
      "inputs": [
        {
          "internalType": "uint256",
          "name": "_amount",
          "type": "uint256"
        }
      ],
      "name": "withdrawRevenue",
      "outputs": [],
      "stateMutability": "nonpayable",
      "type": "function"
    },
    {
      "stateMutability": "payable",
      "type": "receive"
    }
  ],
  "bytecode": {
    "object": "0x60806040523480156200001157600080fd5b506200001c62000022565b620000e4565b600054610100900460ff16156200008f5760405162461bcd60e51b815260206004820152602760248201527f496e697469616c697a61626c653a20636f6e747261637420697320696e697469604482015266616c697a696e6760c81b606482015260840160405180910390fd5b60005460ff9081161015620000e2576000805460ff191660ff9081179091556040519081527f7f26b83ff96e1f2b6a682f133852f6798a09c465da95921460cefb38474024989060200160405180910390a15b565b612e9f80620000f46000396000f3fe6080604052600436106101f25760003560e01c806374baa6551161010d578063a8aa1b31116100a0578063eb37acfc1161006f578063eb37acfc146105ef578063eeda25041461060f578063f25952c314610622578063f2fad2b614610637578063f2fde38b1461066457600080fd5b8063a8aa1b3114610562578063cdb37ef114610582578063cf2fb02f146105a2578063cfb79ed2146105cf57600080fd5b80638129fc1c116100dc5780638129fc1c146104fa5780638da5cb5b1461050f578063967ba1851461052d5780639c8f9f231461054257600080fd5b806374baa6551461048457806375172a8b146104a45780637caeeedb146104ce5780637f753de6146104e457600080fd5b8063313c06a0116101855780634e71d92d116101545780634e71d92d1461040d57806357321944146104225780635873eb9b14610442578063715018a61461046f57600080fd5b8063313c06a01461039857806331d7a262146103b857806336e9332d146103d85780634421bd1e146103f857600080fd5b80630ceff204116101c15780630ceff204146103005780630df0593f1461032057806316f0115b146103405780631a9690731461037857600080fd5b8063061960aa1461025d5780630700037d14610286578063083380b6146102b35780630b65092d146102d357600080fd5b36610258576098546001600160a01b031633146102565760405162461bcd60e51b815260206004820152601a60248201527f53656e64696e6720746f6b656e73206e6f7420616c6c6f77656400000000000060448201526064015b60405180910390fd5b005b600080fd5b34801561026957600080fd5b50610273609d5481565b6040519081526020015b60405180910390f35b34801561029257600080fd5b506102736102a13660046129ab565b60a26020526000908152604090205481565b3480156102bf57600080fd5b506102736102ce3660046129ab565b610684565b3480156102df57600080fd5b506102736102ee3660046129ab565b60a16020526000908152604090205481565b34801561030c57600080fd5b5061025661031b366004612b33565b610763565b34801561032c57600080fd5b5061025661033b366004612a64565b610885565b34801561034c57600080fd5b50609854610360906001600160a01b031681565b6040516001600160a01b03909116815260200161027d565b34801561038457600080fd5b50610273610393366004612b63565b6108fe565b3480156103a457600080fd5b50609954610360906001600160a01b031681565b3480156103c457600080fd5b506102736103d33660046129ab565b610a36565b3480156103e457600080fd5b50609754610360906001600160a01b031681565b34801561040457600080fd5b50610273600a81565b34801561041957600080fd5b50610256610ae2565b34801561042e57600080fd5b5061025661043d366004612b63565b610ce3565b34801561044e57600080fd5b5061027361045d3660046129ab565b60a46020526000908152604090205481565b34801561047b57600080fd5b50610256611051565b34801561049057600080fd5b50609b54610360906001600160a01b031681565b3480156104b057600080fd5b506104b96110b2565b6040805192835260208301919091520161027d565b3480156104da57600080fd5b50610273609f5481565b3480156104f057600080fd5b50610273609e5481565b34801561050657600080fd5b50610256611166565b34801561051b57600080fd5b506033546001600160a01b0316610360565b34801561053957600080fd5b50610273600881565b34801561054e57600080fd5b5061025661055d366004612b33565b61127e565b34801561056e57600080fd5b50609a54610360906001600160a01b031681565b34801561058e57600080fd5b50609c54610360906001600160a01b031681565b3480156105ae57600080fd5b506102736105bd3660046129ab565b60a36020526000908152604090205481565b3480156105db57600080fd5b506102566105ea366004612b63565b6115a4565b3480156105fb57600080fd5b5061025661060a366004612b33565b611761565b61025661061d3660046129c7565b611a79565b34801561062e57600080fd5b50610256611f9a565b34801561064357600080fd5b50610657610652366004612b33565b611fb6565b60405161027d9190612c39565b34801561067057600080fd5b5061025661067f3660046129ab565b61210c565b60008061068f6110b2565b915050609960009054906101000a90046001600160a01b03166001600160a01b03166318160ddd6040518163ffffffff1660e01b815260040160206040518083038186803b1580156106e057600080fd5b505afa1580156106f4573d6000803e3d6000fd5b505050506040513d601f19601f820116820180604052508101906107189190612b4b565b6001600160a01b038416600090815260a3602090815260408083205460a190925290912054839161074891612d96565b6107529190612dce565b61075c9190612dae565b9392505050565b61076b612182565b609c546040516370a0823160e01b815230600482015282916001600160a01b0316906370a082319060240160206040518083038186803b1580156107ae57600080fd5b505afa1580156107c2573d6000803e3d6000fd5b505050506040513d601f19601f820116820180604052508101906107e69190612b4b565b10156108345760405162461bcd60e51b815260206004820152601760248201527f4e6f7420656e6f756768204152535720726576656e7565000000000000000000604482015260640161024d565b600081116108545760405162461bcd60e51b815260040161024d90612cb0565b80609e60008282546108669190612ded565b9091555050609c54610882906001600160a01b031633836121de565b50565b61088d612182565b609780546001600160a01b03199081166001600160a01b03998a16179091556098805482169789169790971790965560998054871694881694909417909355609b8054861694871694909417909355609a80548516918616919091179055609c80549093169190931617905560a055565b600080600061090b6110b2565b91509150836109a357609854604051632b58577b60e21b81526004810187905260248101839052604481018490526001600160a01b039091169063ad615dec9060640160206040518083038186803b15801561096657600080fd5b505afa15801561097a573d6000803e3d6000fd5b505050506040513d601f19601f8201168201806040525081019061099e9190612b4b565b610a2d565b609854604051632b58577b60e21b81526004810187905260248101849052604481018390526001600160a01b039091169063ad615dec9060640160206040518083038186803b1580156109f557600080fd5b505afa158015610a09573d6000803e3d6000fd5b505050506040513d601f19601f82011682018060405250810190610a2d9190612b4b565b95945050505050565b6001600160a01b038116600090815260a360205260408120548015610ac0576001600160a01b038316600090815260a46020526040902054609d5464e8d4a5100090610a829084612dce565b610a8c9190612dae565b6001600160a01b038516600090815260a26020526040902054610aaf9190612d96565b610ab99190612ded565b9150610adc565b6001600160a01b038316600090815260a2602052604090205491505b50919050565b60975460a0546040516359a5f6c160e11b815260048101919091523060248201526000916001600160a01b03169063b34bed829060440160206040518083038186803b158015610b3157600080fd5b505afa158015610b45573d6000803e3d6000fd5b505050506040513d601f19601f82011682018060405250810190610b699190612b4b565b90508015610b7957610b79612246565b610b8161240e565b333b158015610b8f57503233145b610bab5760405162461bcd60e51b815260040161024d90612ce7565b60026065541415610bce5760405162461bcd60e51b815260040161024d90612d5f565b600260655533600090815260a26020526040902054610c2f5760405162461bcd60e51b815260206004820152601760248201527f5573657220686173206e6f20616e792072657761726473000000000000000000604482015260640161024d565b33600090815260a26020526040812054610c4b90600a90612dae565b33600090815260a2602052604081205491925090610c6a908390612ded565b905081609e6000828254610c7e9190612d96565b909155505033600081815260a26020526040812055609c54610cac916001600160a01b0390911690836121de565b604051819033907f47cee97cb7acd717b3c0aa1435d004cd5b3c8c57d70dbceb4e4458bbd60e39d490600090a35050600160655550565b60975460a0546040516359a5f6c160e11b815260048101919091523060248201526000916001600160a01b03169063b34bed829060440160206040518083038186803b158015610d3257600080fd5b505afa158015610d46573d6000803e3d6000fd5b505050506040513d601f19601f82011682018060405250810190610d6a9190612b4b565b90508015610d7a57610d7a612246565b610d8261240e565b333b158015610d9057503233145b610dac5760405162461bcd60e51b815260040161024d90612ce7565b33600090815260a36020526040902054831115610e0b5760405162461bcd60e51b815260206004820152601e60248201527f4e6f7420656e6f756768206465706f7369746564204c5020746f6b656e730000604482015260640161024d565b60008311610e2b5760405162461bcd60e51b815260040161024d90612cb0565b33600090815260a3602052604081208054859290610e4a908490612ded565b9250508190555082609f6000828254610e639190612ded565b90915550506099546040516370a0823160e01b81523060048201526000916001600160a01b0316906370a082319060240160206040518083038186803b158015610eac57600080fd5b505afa158015610ec0573d6000803e3d6000fd5b505050506040513d601f19601f82011682018060405250810190610ee49190612b4b565b60975460a054604051630ad58d2f60e01b81526004810191909152602481018790523060448201529192506001600160a01b031690630ad58d2f90606401600060405180830381600087803b158015610f3c57600080fd5b505af1158015610f50573d6000803e3d6000fd5b50506099546040516370a0823160e01b8152306004820152600093506001600160a01b0390911691506370a082319060240160206040518083038186803b158015610f9a57600080fd5b505afa158015610fae573d6000803e3d6000fd5b505050506040513d601f19601f82011682018060405250810190610fd29190612b4b565b90506000610fe08383612ded565b33600090815260a16020526040812080549293508392909190611004908490612d96565b90915550508415611018576110188661127e565b60405185151590879033907f707698b04f0e54c638e6bc6e39a7cf7d534be15246dc474a1564a91c702c0b7690600090a4505050505050565b611059612182565b60405162461bcd60e51b815260206004820152602860248201527f4974206973206e6f7420706f737369626c6520746f2072656e6f756e6365206f6044820152670776e6572736869760c41b606482015260840161024d565b600080600080609a60009054906101000a90046001600160a01b03166001600160a01b0316630902f1ac6040518163ffffffff1660e01b815260040160606040518083038186803b15801561110657600080fd5b505afa15801561111a573d6000803e3d6000fd5b505050506040513d601f19601f8201168201806040525081019061113e9190612af0565b5060a5546001600160701b0392831694509116915060ff161561115d57905b90939092509050565b600054610100900460ff16158080156111865750600054600160ff909116105b806111a05750303b1580156111a0575060005460ff166001145b6112035760405162461bcd60e51b815260206004820152602e60248201527f496e697469616c697a61626c653a20636f6e747261637420697320616c72656160448201526d191e481a5b9a5d1a585b1a5e995960921b606482015260840161024d565b6000805460ff191660011790558015611226576000805461ff0019166101001790555b61122e6124d7565b611236612506565b8015610882576000805461ff0019169055604051600181527f7f26b83ff96e1f2b6a682f133852f6798a09c465da95921460cefb38474024989060200160405180910390a150565b333b15801561128c57503233145b6112a85760405162461bcd60e51b815260040161024d90612ce7565b600260655414156112cb5760405162461bcd60e51b815260040161024d90612d5f565b6002606555806112ed5760405162461bcd60e51b815260040161024d90612cb0565b33600090815260a1602052604090205481111561133c5760405162461bcd60e51b815260206004820152600d60248201526c04e6f7420656e6f756768204c5609c1b604482015260640161024d565b600061134782611fb6565b90506000808260008151811061136d57634e487b7160e01b600052603260045260246000fd5b60200260200101518360018151811061139657634e487b7160e01b600052603260045260246000fd5b60200260200101519150915060006103e86008836113b49190612dce565b6113be9190612dae565b6113c89083612ded565b905060006103e86113da600886612dce565b6113e49190612dae565b6113ee9085612ded565b60995460405163095ea7b360e01b8152306004820152602481018990529192506001600160a01b03169063095ea7b390604401602060405180830381600087803b15801561143b57600080fd5b505af115801561144f573d6000803e3d6000fd5b505050506040513d601f19601f820116820180604052508101906114739190612a48565b50609854609b5460009182916001600160a01b03918216916302751cec91168a8787306114a2426104b0612d96565b6040518763ffffffff1660e01b81526004016114c396959493929190612bfe565b6040805180830381600087803b1580156114dc57600080fd5b505af11580156114f0573d6000803e3d6000fd5b505050506040513d601f19601f820116820180604052508101906115149190612b92565b33600090815260a16020526040812080549395509193508a92611538908490612ded565b9091555050609b54611554906001600160a01b031633846121de565b61155e3382612535565b604051828152819033907f0fbf06c058b90cb038a618f8c2acbf6145f8b3570fd1fa56abb8f0f3f05b36e89060200160405180910390a350506001606555505050505050565b333b1580156115b257503233145b6115ce5760405162461bcd60e51b815260040161024d90612ce7565b600260655414156115f15760405162461bcd60e51b815260040161024d90612d5f565b6002606555816116435760405162461bcd60e51b815260206004820152601b60248201527f53686f756c6420626520677265617465722074686174207a65726f0000000000604482015260640161024d565b6099546040516370a0823160e01b81523360048201526001600160a01b03909116906370a082319060240160206040518083038186803b15801561168657600080fd5b505afa15801561169a573d6000803e3d6000fd5b505050506040513d601f19601f820116820180604052508101906116be9190612b4b565b82111561170d5760405162461bcd60e51b815260206004820152601f60248201527f4e6f7420656e6f756768204c5020746f6b656e73206f6e2062616c616e636500604482015260640161024d565b609954611725906001600160a01b031633308561264e565b33600090815260a1602052604081208054849290611744908490612d96565b909155505080156117585761175882611761565b50506001606555565b60975460a0546040516359a5f6c160e11b815260048101919091523060248201526000916001600160a01b03169063b34bed829060440160206040518083038186803b1580156117b057600080fd5b505afa1580156117c4573d6000803e3d6000fd5b505050506040513d601f19601f820116820180604052508101906117e89190612b4b565b905080156117f8576117f8612246565b61180061240e565b333b15801561180e57503233145b61182a5760405162461bcd60e51b815260040161024d90612ce7565b33600090815260a160205260409020548211156118805760405162461bcd60e51b81526020600482015260146024820152734e6f7420656e6f756768204c5020746f6b656e7360601b604482015260640161024d565b600082116118a05760405162461bcd60e51b815260040161024d90612cb0565b33600090815260a16020526040812080548492906118bf908490612ded565b909155505060995460975460405163095ea7b360e01b81526001600160a01b0391821660048201526024810185905291169063095ea7b390604401602060405180830381600087803b15801561191457600080fd5b505af1158015611928573d6000803e3d6000fd5b505050506040513d601f19601f8201168201806040525081019061194c9190612a48565b5060975460a054604051638dbdbe6d60e01b81526004810191909152602481018490523060448201526001600160a01b0390911690638dbdbe6d90606401600060405180830381600087803b1580156119a457600080fd5b505af11580156119b8573d6000803e3d6000fd5b505033600090815260a36020526040812080548694509092506119dc908490612d96565b9250508190555081609f60008282546119f59190612d96565b9091555050609d5433600090815260a3602052604090205464e8d4a5100091611a1d91612dce565b611a279190612dae565b33600081815260a46020526040908190209290925590517fa76194b11cf7b940f18e866ed3382a795bb09ca684db1b957d595417f63151f890611a6d9085815260200190565b60405180910390a25050565b333b158015611a8757503233145b611aa35760405162461bcd60e51b815260040161024d90612ce7565b60026065541415611ac65760405162461bcd60e51b815260040161024d90612d5f565b60026065558282600081611aea57634e487b7160e01b600052603260045260246000fd5b905060200201353414611b575760405162461bcd60e51b815260206004820152602f60248201527f56616c7565206e65656420746f20626520657175616c20746f20616d6f756e7460448201526e206f66204153545220746f6b656e7360881b606482015260840161024d565b600083836001818110611b7a57634e487b7160e01b600052603260045260246000fd5b90506020020135118015611bb55750600083836000818110611bac57634e487b7160e01b600052603260045260246000fd5b90506020020135115b611c165760405162461bcd60e51b815260206004820152602c60248201527f416d6f756e74206f6620746f6b656e732073686f756c6420626520677265617460448201526b6572207468616e207a65726f60a01b606482015260840161024d565b60028214611c795760405162461bcd60e51b815260206004820152602a60248201527f546865206c656e677468206f6620616d6f756e7473206d75737420626520657160448201526975616c20746f2074776f60b01b606482015260840161024d565b611cbc333085856001818110611c9f57634e487b7160e01b600052603260045260246000fd5b609b546001600160a01b031694939260209091020135905061264e565b60006103e8600885856001818110611ce457634e487b7160e01b600052603260045260246000fd5b90506020020135611cf59190612dce565b611cff9190612dae565b84846001818110611d2057634e487b7160e01b600052603260045260246000fd5b90506020020135611d319190612ded565b905060006103e8611d43600834612dce565b611d4d9190612dae565b611d579034612ded565b609b546098549192506001600160a01b039081169163095ea7b3911687876001818110611d9457634e487b7160e01b600052603260045260246000fd5b6040516001600160e01b031960e087901b1681526001600160a01b0390941660048501526020029190910135602483015250604401602060405180830381600087803b158015611de357600080fd5b505af1158015611df7573d6000803e3d6000fd5b505050506040513d601f19601f82011682018060405250810190611e1b9190612a48565b50609854609b546000916001600160a01b039081169163f305d7199134911689896001818110611e5b57634e487b7160e01b600052603260045260246000fd5b90506020020135878730426104b0611e739190612d96565b6040518863ffffffff1660e01b8152600401611e9496959493929190612bfe565b6060604051808303818588803b158015611ead57600080fd5b505af1158015611ec1573d6000803e3d6000fd5b50505050506040513d601f19601f82011682018060405250810190611ee69190612bb5565b33600090815260a1602052604081208054929550859450925090611f0b908490612d96565b90915550508315611f1f57611f1f81611761565b80841515337f430d746c0511287008b149537bfb4896c7559ebaa43aca8ed6e3d2be2c81ce9f348a8a6001818110611f6757634e487b7160e01b600052603260045260246000fd5b90506020020135604051611f85929190918252602082015260400190565b60405180910390a45050600160655550505050565b611fa2612182565b60a5805460ff19811660ff90911615179055565b6060600080611fc36110b2565b915091506000609a60009054906101000a90046001600160a01b03166001600160a01b03166318160ddd6040518163ffffffff1660e01b815260040160206040518083038186803b15801561201757600080fd5b505afa15801561202b573d6000803e3d6000fd5b505050506040513d601f19601f8201168201806040525081019061204f9190612b4b565b905060008161205e8488612dce565b6120689190612dae565b90506000826120778689612dce565b6120819190612dae565b60408051600280825260608201835292935060009290916020830190803683370190505090508183826000815181106120ca57634e487b7160e01b600052603260045260246000fd5b60200260200101836001815181106120f257634e487b7160e01b600052603260045260246000fd5b602090810291909101019190915252979650505050505050565b612114612182565b6001600160a01b0381166121795760405162461bcd60e51b815260206004820152602660248201527f4f776e61626c653a206e6577206f776e657220697320746865207a65726f206160448201526564647265737360d01b606482015260840161024d565b6108828161268c565b6033546001600160a01b031633146121dc5760405162461bcd60e51b815260206004820181905260248201527f4f776e61626c653a2063616c6c6572206973206e6f7420746865206f776e6572604482015260640161024d565b565b6040516001600160a01b03831660248201526044810182905261224190849063a9059cbb60e01b906064015b60408051601f198184030181529190526020810180516001600160e01b03166001600160e01b0319909316929092179091526126de565b505050565b609c546040516370a0823160e01b81523060048201526000916001600160a01b0316906370a082319060240160206040518083038186803b15801561228a57600080fd5b505afa15801561229e573d6000803e3d6000fd5b505050506040513d601f19601f820116820180604052508101906122c29190612b4b565b60975460a054604051630c7e663b60e11b815260048101919091523060248201529192506001600160a01b0316906318fccc7690604401600060405180830381600087803b15801561231357600080fd5b505af1158015612327573d6000803e3d6000fd5b5050609c546040516370a0823160e01b8152306004820152600093506001600160a01b0390911691506370a082319060240160206040518083038186803b15801561237157600080fd5b505afa158015612385573d6000803e3d6000fd5b505050506040513d601f19601f820116820180604052508101906123a99190612b4b565b905060008282116123bb5760006123c5565b6123c58383612ded565b9050609f54600014156123d757505050565b609f546123e964e8d4a5100083612dce565b6123f39190612dae565b609d60008282546124049190612d96565b9091555050505050565b33600090815260a3602090815260408083205460a4909252822054609d5491929164e8d4a51000906124409085612dce565b61244a9190612dae565b6124549190612ded565b905064e8d4a51000609d548361246a9190612dce565b6124749190612dae565b33600090815260a4602090815260408083209390935560a2905290812080548392906124a1908490612d96565b9091555050604051819033907fdaaebb9609cb2f719c59c9d334be287bf4def107ad3dec4a6f90d8abaa94c73c90600090a35050565b600054610100900460ff166124fe5760405162461bcd60e51b815260040161024d90612d14565b6121dc6127b0565b600054610100900460ff1661252d5760405162461bcd60e51b815260040161024d90612d14565b6121dc6127e0565b804710156125855760405162461bcd60e51b815260206004820152601d60248201527f416464726573733a20696e73756666696369656e742062616c616e6365000000604482015260640161024d565b6000826001600160a01b03168260405160006040518083038185875af1925050503d80600081146125d2576040519150601f19603f3d011682016040523d82523d6000602084013e6125d7565b606091505b50509050806122415760405162461bcd60e51b815260206004820152603a60248201527f416464726573733a20756e61626c6520746f2073656e642076616c75652c207260448201527f6563697069656e74206d61792068617665207265766572746564000000000000606482015260840161024d565b6040516001600160a01b03808516602483015283166044820152606481018290526126869085906323b872dd60e01b9060840161220a565b50505050565b603380546001600160a01b038381166001600160a01b0319831681179093556040519116919082907f8be0079c531659141344cd1fd0a4f28419497f9722a3daafe3b4186f6b6457e090600090a35050565b6000612733826040518060400160405280602081526020017f5361666545524332303a206c6f772d6c6576656c2063616c6c206661696c6564815250856001600160a01b031661280e9092919063ffffffff16565b80519091501561224157808060200190518101906127519190612a48565b6122415760405162461bcd60e51b815260206004820152602a60248201527f5361666545524332303a204552433230206f7065726174696f6e20646964206e6044820152691bdd081cdd58d8d9595960b21b606482015260840161024d565b600054610100900460ff166127d75760405162461bcd60e51b815260040161024d90612d14565b6121dc3361268c565b600054610100900460ff166128075760405162461bcd60e51b815260040161024d90612d14565b6001606555565b606061281d8484600085612825565b949350505050565b6060824710156128865760405162461bcd60e51b815260206004820152602660248201527f416464726573733a20696e73756666696369656e742062616c616e636520666f6044820152651c8818d85b1b60d21b606482015260840161024d565b6001600160a01b0385163b6128dd5760405162461bcd60e51b815260206004820152601d60248201527f416464726573733a2063616c6c20746f206e6f6e2d636f6e7472616374000000604482015260640161024d565b600080866001600160a01b031685876040516128f99190612be2565b60006040518083038185875af1925050503d8060008114612936576040519150601f19603f3d011682016040523d82523d6000602084013e61293b565b606091505b509150915061294b828286612956565b979650505050505050565b6060831561296557508161075c565b8251156129755782518084602001fd5b8160405162461bcd60e51b815260040161024d9190612c7d565b80516001600160701b03811681146129a657600080fd5b919050565b6000602082840312156129bc578081fd5b813561075c81612e46565b6000806000604084860312156129db578182fd5b833567ffffffffffffffff808211156129f2578384fd5b818601915086601f830112612a05578384fd5b813581811115612a13578485fd5b8760208260051b8501011115612a27578485fd5b60209283019550935050840135612a3d81612e5b565b809150509250925092565b600060208284031215612a59578081fd5b815161075c81612e5b565b600080600080600080600060e0888a031215612a7e578283fd5b8735612a8981612e46565b96506020880135612a9981612e46565b95506040880135612aa981612e46565b94506060880135612ab981612e46565b93506080880135612ac981612e46565b925060a0880135612ad981612e46565b8092505060c0880135905092959891949750929550565b600080600060608486031215612b04578283fd5b612b0d8461298f565b9250612b1b6020850161298f565b9150604084015163ffffffff81168114612a3d578182fd5b600060208284031215612b44578081fd5b5035919050565b600060208284031215612b5c578081fd5b5051919050565b60008060408385031215612b75578182fd5b823591506020830135612b8781612e5b565b809150509250929050565b60008060408385031215612ba4578182fd5b505080516020909101519092909150565b600080600060608486031215612bc9578283fd5b8351925060208401519150604084015190509250925092565b60008251612bf4818460208701612e04565b9190910192915050565b6001600160a01b039687168152602081019590955260408501939093526060840191909152909216608082015260a081019190915260c00190565b6020808252825182820181905260009190848201906040850190845b81811015612c7157835183529284019291840191600101612c55565b50909695505050505050565b6020815260008251806020840152612c9c816040850160208701612e04565b601f01601f19169190910160400192915050565b6020808252601b908201527f53686f756c642062652067726561746572207468616e207a65726f0000000000604082015260600190565b602080825260139082015272416c6c6f7773206f6e6c7920666f7220454f4160681b604082015260600190565b6020808252602b908201527f496e697469616c697a61626c653a20636f6e7472616374206973206e6f74206960408201526a6e697469616c697a696e6760a81b606082015260800190565b6020808252601f908201527f5265656e7472616e637947756172643a207265656e7472616e742063616c6c00604082015260600190565b60008219821115612da957612da9612e30565b500190565b600082612dc957634e487b7160e01b81526012600452602481fd5b500490565b6000816000190483118215151615612de857612de8612e30565b500290565b600082821015612dff57612dff612e30565b500390565b60005b83811015612e1f578181015183820152602001612e07565b838111156126865750506000910152565b634e487b7160e01b600052601160045260246000fd5b6001600160a01b038116811461088257600080fd5b801515811461088257600080fdfea264697066735822122019ef47c2150801d20ef8ae850d170955c5558d97f719946a5985e2ef3ca84ea564736f6c63430008040033",
    "linkReferences": {}
  },
  "methodIdentifiers": {
    "REVENUE_FEE()": "4421bd1e",
    "SLIPPAGE_CONTROL()": "967ba185",
    "accumulatedRewardsPerShare()": "061960aa",
    "addLiquidity(uint256[],bool)": "eeda2504",
    "addLp(uint256,bool)": "cfb79ed2",
    "arswToken()": "cdb37ef1",
    "calc(address)": "083380b6",
    "calculateRemoveLiquidity(uint256)": "f2fad2b6",
    "claim()": "4e71d92d",
    "depositLP(uint256)": "eb37acfc",
    "depositedLp(address)": "cf2fb02f",
    "farm()": "36e9332d",
    "getSecondAmount(uint256,bool)": "1a969073",
    "initialize()": "8129fc1c",
    "lp()": "313c06a0",
    "lpBalances(address)": "0b65092d",
    "nToken()": "74baa655",
    "owner()": "8da5cb5b",
    "pair()": "a8aa1b31",
    "pendingRewards(address)": "31d7a262",
    "pool()": "16f0115b",
    "removeLiquidity(uint256)": "9c8f9f23",
    "renounceOwnership()": "715018a6",
    "reserves()": "75172a8b",
    "revenuePool()": "7f753de6",
    "rewardDebt(address)": "5873eb9b",
    "rewards(address)": "0700037d",
    "setup(address,address,address,address,address,address,uint256)": "0df0593f",
    "switchOrder()": "f25952c3",
    "totalStakedLp()": "7caeeedb",
    "transferOwnership(address)": "f2fde38b",
    "withdrawLP(uint256,bool)": "57321944",
    "withdrawRevenue(uint256)": "0ceff204"
  },
  "id": 0
}