{
  "abi": [
    {
      "anonymous": false,
      "inputs": [
        {
          "indexed": false,
          "internalType": "uint8",
          "name": "version",
          "type": "uint8"
        }
      ],
      "name": "Initialized",
      "type": "event"
    },
    {
      "inputs": [
        {
          "internalType": "address",
          "name": "_user",
          "type": "address"
        },
        {
          "internalType": "uint256",
          "name": "_amount",
          "type": "uint256"
        },
        {
          "internalType": "string",
          "name": "_assetName",
          "type": "string"
        },
        {
          "internalType": "bool",
          "name": "isBorrow",
          "type": "bool"
        }
      ],
      "name": "borrowRepayShift",
      "outputs": [
        {
          "internalType": "uint256[]",
          "name": "",
          "type": "uint256[]"
        },
        {
          "internalType": "uint256[]",
          "name": "",
          "type": "uint256[]"
        }
      ],
      "stateMutability": "view",
      "type": "function"
    },
    {
      "inputs": [
        {
          "internalType": "address",
          "name": "_user",
          "type": "address"
        }
      ],
      "name": "estimateHF",
      "outputs": [
        {
          "internalType": "uint256",
          "name": "hf",
          "type": "uint256"
        }
      ],
      "stateMutability": "view",
      "type": "function"
    },
    {
      "inputs": [
        {
          "internalType": "string",
          "name": "_assetName",
          "type": "string"
        }
      ],
      "name": "getBorrowAssetLiquidity",
      "outputs": [
        {
          "internalType": "uint256",
          "name": "",
          "type": "uint256"
        }
      ],
      "stateMutability": "view",
      "type": "function"
    },
    {
      "inputs": [
        {
          "internalType": "contract Sio2Adapter",
          "name": "_adapter",
          "type": "address"
        },
        {
          "internalType": "contract Sio2AdapterAssetManager",
          "name": "_assetManager",
          "type": "address"
        },
        {
          "internalType": "contract ISio2LendingPool",
          "name": "_lendingPool",
          "type": "address"
        }
      ],
      "name": "initialize",
      "outputs": [],
      "stateMutability": "nonpayable",
      "type": "function"
    },
    {
      "inputs": [
        {
          "internalType": "address",
          "name": "_user",
          "type": "address"
        },
        {
          "internalType": "uint256",
          "name": "_amount",
          "type": "uint256"
        },
        {
          "internalType": "bool",
          "name": "isSupply",
          "type": "bool"
        }
      ],
      "name": "supplyWithdrawShift",
      "outputs": [
        {
          "internalType": "uint256[]",
          "name": "",
          "type": "uint256[]"
        },
        {
          "internalType": "uint256[]",
          "name": "",
          "type": "uint256[]"
        }
      ],
      "stateMutability": "view",
      "type": "function"
    }
  ],
  "bytecode": {
    "object": "0x608060405234801561001057600080fd5b50611baa806100206000396000f3fe608060405234801561001057600080fd5b50600436106100575760003560e01c806323f7d4e91461005c5780639049b67d14610086578063c0c53b8b14610099578063e11fffb1146100ae578063f6e3faa6146100cf575b600080fd5b61006f61006a366004611619565b6100e2565b60405161007d92919061198e565b60405180910390f35b61006f610094366004611656565b61077e565b6100ac6100a73660046116da565b610df7565b005b6100c16100bc3660046115f6565b611102565b60405190815260200161007d565b6100c16100dd366004611724565b611293565b604080516003808252608082019092526060918291600091602082018480368337505060408051600380825260808201909252929350600092915060208201606080368337019050506000805460405163d6fe3d3960e01b81526001600160a01b038b811660048301529394509192839262010000909204169063d6fe3d3990602401604080518083038186803b15801561017c57600080fd5b505afa158015610190573d6000803e3d6000fd5b505050506040513d601f19601f820116820180604052508101906101b49190611931565b60008054600554604051633353d2a760e21b81526001600160a01b039182166004820152602481018e90529496509294509092620100009091049091169063cd4f4a9c9060440160206040518083038186803b15801561021357600080fd5b505afa158015610227573d6000803e3d6000fd5b505050506040513d601f19601f8201168201806040525081019061024b9190611919565b90506000612710600454836102609190611ace565b61026a9190611aae565b600080546040516389a4c5af60e01b81526001600160a01b038f8116600483015293945091926201000090910416906389a4c5af9060240160206040518083038186803b1580156102ba57600080fd5b505afa1580156102ce573d6000803e3d6000fd5b505050506040513d601f19601f820116820180604052508101906102f29190611919565b905060008060029054906101000a90046001600160a01b03166001600160a01b031663016021be8e6040518263ffffffff1660e01b815260040161034591906001600160a01b0391909116815260200190565b60206040518083038186803b15801561035d57600080fd5b505afa158015610371573d6000803e3d6000fd5b505050506040513d601f19601f820116820180604052508101906103959190611919565b905085886000815181106103b957634e487b7160e01b600052603260045260246000fd5b6020908102919091010152856103d783670de0b6b3a7640000611ace565b6103e19190611aae565b8860018151811061040257634e487b7160e01b600052603260045260246000fd5b60200260200101818152505081612710600354836104209190611ace565b61043290670de0b6b3a7640000611ace565b61043c9190611aae565b6104469190611aae565b8860028151811061046757634e487b7160e01b600052603260045260246000fd5b6020026020010181815250508a15610577576104838387611a96565b876000815181106104a457634e487b7160e01b600052603260045260246000fd5b60209081029190910101526104b98387611a96565b6104cb83670de0b6b3a7640000611ace565b6104d59190611aae565b876001815181106104f657634e487b7160e01b600052603260045260246000fd5b6020026020010181815250508161271060035486846105159190611a96565b61051f9190611ace565b61053190670de0b6b3a7640000611ace565b61053b9190611aae565b6105459190611aae565b8760028151811061056657634e487b7160e01b600052603260045260246000fd5b60200260200101818152505061076b565b828610156105b2576000876000815181106105a257634e487b7160e01b600052603260045260246000fd5b60200260200101818152506105e9565b6105bc8387611aed565b876000815181106105dd57634e487b7160e01b600052603260045260246000fd5b60200260200101818152505b506105f48383611a96565b861161063457670de0b6b3a76400008760018151811061062457634e487b7160e01b600052603260045260246000fd5b6020026020010181815250610687565b61063e8387611aed565b61065083670de0b6b3a7640000611ace565b61065a9190611aae565b8760018151811061067b57634e487b7160e01b600052603260045260246000fd5b60200260200101818152505b50600354670de0b6b3a7640000906106a161271085611ace565b6106ab9190611aae565b6106b59190611aae565b6106bf9085611a96565b8110156106f9576000876002815181106106e957634e487b7160e01b600052603260045260246000fd5b6020026020010181815250610769565b81612710600354868461070c9190611aed565b6107169190611ace565b61072890670de0b6b3a7640000611ace565b6107329190611aae565b61073c9190611aae565b8760028151811061075d57634e487b7160e01b600052603260045260246000fd5b60200260200101818152505b505b50959b949a509398505050505050505050565b6040805160038082526080820190925260609182916000916020820184803683375050604080516003808252608082019092529293506000929150602082016060803683375050600154604051631b2d95ab60e01b81529293506000926001600160a01b039091169150631b2d95ab906107fc908a906004016119bc565b60006040518083038186803b15801561081457600080fd5b505afa158015610828573d6000803e3d6000fd5b505050506040513d6000823e601f3d908101601f191682016040526108509190810190611757565b6000805460405163d6fe3d3960e01b81526001600160a01b038d811660048301529394509192839262010000909204169063d6fe3d3990602401604080518083038186803b1580156108a157600080fd5b505afa1580156108b5573d6000803e3d6000fd5b505050506040513d601f19601f820116820180604052508101906108d99190611931565b600080546040516389a4c5af60e01b8152939550919350916001600160a01b036201000090920491909116906389a4c5af90610928908f906004016001600160a01b0391909116815260200190565b60206040518083038186803b15801561094057600080fd5b505afa158015610954573d6000803e3d6000fd5b505050506040513d601f19601f820116820180604052508101906109789190611919565b905060008060029054906101000a90046001600160a01b03166001600160a01b031663cd4f4a9c86604001518e6040518363ffffffff1660e01b81526004016109d69291906001600160a01b03929092168252602082015260400190565b60206040518083038186803b1580156109ee57600080fd5b505afa158015610a02573d6000803e3d6000fd5b505050506040513d601f19601f82011682018060405250810190610a269190611919565b905060008060029054906101000a90046001600160a01b03166001600160a01b031663016021be8f6040518263ffffffff1660e01b8152600401610a7991906001600160a01b0391909116815260200190565b60206040518083038186803b158015610a9157600080fd5b505afa158015610aa5573d6000803e3d6000fd5b505050506040513d601f19601f82011682018060405250810190610ac99190611919565b905082610ad557600192505b8288600081518110610af757634e487b7160e01b600052603260045260246000fd5b602090810291909101015284610b1584670de0b6b3a7640000611ace565b610b1f9190611aae565b88600181518110610b4057634e487b7160e01b600052603260045260246000fd5b6020026020010181815250508261271060035483610b5e9190611ace565b610b7090670de0b6b3a7640000611ace565b610b7a9190611aae565b610b849190611aae565b88600281518110610ba557634e487b7160e01b600052603260045260246000fd5b6020026020010181815250508a15610cb357610bc18284611a96565b87600081518110610be257634e487b7160e01b600052603260045260246000fd5b602090810291909101015284610bf88385611a96565b610c0a90670de0b6b3a7640000611ace565b610c149190611aae565b87600181518110610c3557634e487b7160e01b600052603260045260246000fd5b6020908102919091010152610c4a8284611a96565b61271060035483610c5b9190611ace565b610c6d90670de0b6b3a7640000611ace565b610c779190611aae565b610c819190611aae565b87600281518110610ca257634e487b7160e01b600052603260045260246000fd5b602002602001018181525050610de3565b81831115610d4e57610cc58284611aed565b87600081518110610ce657634e487b7160e01b600052603260045260246000fd5b602090810291909101015284610cfc8385611aed565b610d0e90670de0b6b3a7640000611ace565b610d189190611aae565b87600181518110610d3957634e487b7160e01b600052603260045260246000fd5b6020908102919091010152610c4a8284611aed565b600087600081518110610d7157634e487b7160e01b600052603260045260246000fd5b602002602001018181525050600087600181518110610da057634e487b7160e01b600052603260045260246000fd5b602002602001018181525050678ac7230489e8000087600281518110610dd657634e487b7160e01b600052603260045260246000fd5b6020026020010181815250505b50959c949b50939950505050505050505050565b600054610100900460ff1615808015610e175750600054600160ff909116105b80610e315750303b158015610e31575060005460ff166001145b610e995760405162461bcd60e51b815260206004820152602e60248201527f496e697469616c697a61626c653a20636f6e747261637420697320616c72656160448201526d191e481a5b9a5d1a585b1a5e995960921b60648201526084015b60405180910390fd5b6000805460ff191660011790558015610ebc576000805461ff0019166101001790555b6000805462010000600160b01b031916620100006001600160a01b0387811682029290921792839055600180546001600160a01b0319908116888516179091556002805490911686841617905560408051630d58feff60e01b815290519190930490911691630d58feff916004808301926020929190829003018186803b158015610f4657600080fd5b505afa158015610f5a573d6000803e3d6000fd5b505050506040513d601f19601f82011682018060405250810190610f7e9190611919565b600381905550600060029054906101000a90046001600160a01b03166001600160a01b031663306f155d6040518163ffffffff1660e01b815260040160206040518083038186803b158015610fd257600080fd5b505afa158015610fe6573d6000803e3d6000fd5b505050506040513d601f19601f8201168201806040525081019061100a9190611919565b600481905550600060029054906101000a90046001600160a01b03166001600160a01b03166342c995096040518163ffffffff1660e01b815260040160206040518083038186803b15801561105e57600080fd5b505afa158015611072573d6000803e3d6000fd5b505050506040513d601f19601f8201168201806040525081019061109691906116be565b600580546001600160a01b0319166001600160a01b039290921691909117905580156110fc576000805461ff0019169055604051600181527f7f26b83ff96e1f2b6a682f133852f6798a09c465da95921460cefb38474024989060200160405180910390a15b50505050565b6000805460405162b010df60e11b81526001600160a01b0384811660048301528392620100009004169063016021be9060240160206040518083038186803b15801561114d57600080fd5b505afa158015611161573d6000803e3d6000fd5b505050506040513d601f19601f820116820180604052508101906111859190611919565b600080546040516389a4c5af60e01b81526001600160a01b03878116600483015293945091926201000090910416906389a4c5af9060240160206040518083038186803b1580156111d557600080fd5b505afa1580156111e9573d6000803e3d6000fd5b505050506040513d601f19601f8201168201806040525081019061120d9190611919565b9050600081116112535760405162461bcd60e51b81526020600482015260116024820152705573657220686173206e6f20646562747360781b6044820152606401610e90565b80612710600354846112659190611ace565b61127790670de0b6b3a7640000611ace565b6112819190611aae565b61128b9190611aae565b949350505050565b600154604051631b2d95ab60e01b815260009182916001600160a01b0390911690631b2d95ab906112c89086906004016119bc565b60006040518083038186803b1580156112e057600080fd5b505afa1580156112f4573d6000803e3d6000fd5b505050506040513d6000823e601f3d908101601f1916820160405261131c9190810190611757565b60408181015160025491516335ea6a7560e01b81526001600160a01b038083166004830152939450909260009216906335ea6a75906024016101806040518083038186803b15801561136d57600080fd5b505afa158015611381573d6000803e3d6000fd5b505050506040513d601f19601f820116820180604052508101906113a5919061182d565b905060008160e001519050600082610120015190506000826001600160a01b03166318160ddd6040518163ffffffff1660e01b815260040160206040518083038186803b1580156113f557600080fd5b505afa158015611409573d6000803e3d6000fd5b505050506040513d601f19601f8201168201806040525081019061142d9190611919565b90506000826001600160a01b03166318160ddd6040518163ffffffff1660e01b815260040160206040518083038186803b15801561146a57600080fd5b505afa15801561147e573d6000803e3d6000fd5b505050506040513d601f19601f820116820180604052508101906114a29190611919565b90506114ae8183611aed565b9998505050505050505050565b80516114c681611b5c565b919050565b803580151581146114c657600080fd5b600082601f8301126114eb578081fd5b81356114fe6114f982611a6e565b611a3d565b818152846020838601011115611512578283fd5b816020850160208301379081016020019190915292915050565b600082601f83011261153c578081fd5b815161154a6114f982611a6e565b81815284602083860101111561155e578283fd5b61128b826020830160208701611b04565b600060208284031215611580578081fd5b6040516020810181811067ffffffffffffffff821117156115a3576115a3611b46565b6040529151825250919050565b80516fffffffffffffffffffffffffffffffff811681146114c657600080fd5b805164ffffffffff811681146114c657600080fd5b805160ff811681146114c657600080fd5b600060208284031215611607578081fd5b813561161281611b5c565b9392505050565b60008060006060848603121561162d578182fd5b833561163881611b5c565b92506020840135915061164d604085016114cb565b90509250925092565b6000806000806080858703121561166b578081fd5b843561167681611b5c565b935060208501359250604085013567ffffffffffffffff811115611698578182fd5b6116a4878288016114db565b9250506116b3606086016114cb565b905092959194509250565b6000602082840312156116cf578081fd5b815161161281611b5c565b6000806000606084860312156116ee578081fd5b83356116f981611b5c565b9250602084013561170981611b5c565b9150604084013561171981611b5c565b809150509250925092565b600060208284031215611735578081fd5b813567ffffffffffffffff81111561174b578182fd5b61128b848285016114db565b600060208284031215611768578081fd5b815167ffffffffffffffff8082111561177f578283fd5b908301906101408286031215611793578283fd5b61179b6119ef565b825181526020830151828111156117b0578485fd5b6117bc8782860161152c565b6020830152506117ce604084016114bb565b60408201526117df606084016114bb565b60608201526080838101519082015260a0808401519082015260c0808401519082015260e0808401519082015261010080840151908201526101209283015192810192909252509392505050565b6000610180828403121561183f578081fd5b611847611a19565b611851848461156f565b815261185f602084016115b0565b6020820152611870604084016115b0565b6040820152611881606084016115b0565b6060820152611892608084016115b0565b60808201526118a360a084016115b0565b60a08201526118b460c084016115d0565b60c08201526118c560e084016114bb565b60e08201526101006118d88185016114bb565b908201526101206118ea8482016114bb565b908201526101406118fc8482016114bb565b9082015261016061190e8482016115e5565b908201529392505050565b60006020828403121561192a578081fd5b5051919050565b60008060408385031215611943578182fd5b505080516020909101519092909150565b6000815180845260208085019450808401835b8381101561198357815187529582019590820190600101611967565b509495945050505050565b6040815260006119a16040830185611954565b82810360208401526119b38185611954565b95945050505050565b60208152600082518060208401526119db816040850160208701611b04565b601f01601f19169190910160400192915050565b604051610140810167ffffffffffffffff81118282101715611a1357611a13611b46565b60405290565b604051610180810167ffffffffffffffff81118282101715611a1357611a13611b46565b604051601f8201601f1916810167ffffffffffffffff81118282101715611a6657611a66611b46565b604052919050565b600067ffffffffffffffff821115611a8857611a88611b46565b50601f01601f191660200190565b60008219821115611aa957611aa9611b30565b500190565b600082611ac957634e487b7160e01b81526012600452602481fd5b500490565b6000816000190483118215151615611ae857611ae8611b30565b500290565b600082821015611aff57611aff611b30565b500390565b60005b83811015611b1f578181015183820152602001611b07565b838111156110fc5750506000910152565b634e487b7160e01b600052601160045260246000fd5b634e487b7160e01b600052604160045260246000fd5b6001600160a01b0381168114611b7157600080fd5b5056fea2646970667358221220da28a170b2f43134d67ad83c226d71ad5d6b90752bdd1f6f10deb58494e364c764736f6c63430008040033",
    "linkReferences": {}
  },
  "methodIdentifiers": {
    "borrowRepayShift(address,uint256,string,bool)": "9049b67d",
    "estimateHF(address)": "e11fffb1",
    "getBorrowAssetLiquidity(string)": "f6e3faa6",
    "initialize(address,address,address)": "c0c53b8b",
    "supplyWithdrawShift(address,uint256,bool)": "23f7d4e9"
  },
  "id": 4
}