{
  "abi": [
    {
      "inputs": [],
      "stateMutability": "nonpayable",
      "type": "constructor"
    },
    {
      "anonymous": false,
      "inputs": [
        {
          "indexed": true,
          "internalType": "address",
          "name": "owner",
          "type": "address"
        },
        {
          "indexed": true,
          "internalType": "address",
          "name": "spender",
          "type": "address"
        },
        {
          "indexed": false,
          "internalType": "uint256",
          "name": "value",
          "type": "uint256"
        }
      ],
      "name": "Approval",
      "type": "event"
    },
    {
      "anonymous": false,
      "inputs": [
        {
          "indexed": false,
          "internalType": "uint8",
          "name": "version",
          "type": "uint8"
        }
      ],
      "name": "Initialized",
      "type": "event"
    },
    {
      "anonymous": false,
      "inputs": [
        {
          "indexed": false,
          "internalType": "address",
          "name": "account",
          "type": "address"
        }
      ],
      "name": "Paused",
      "type": "event"
    },
    {
      "anonymous": false,
      "inputs": [
        {
          "indexed": true,
          "internalType": "bytes32",
          "name": "role",
          "type": "bytes32"
        },
        {
          "indexed": true,
          "internalType": "bytes32",
          "name": "previousAdminRole",
          "type": "bytes32"
        },
        {
          "indexed": true,
          "internalType": "bytes32",
          "name": "newAdminRole",
          "type": "bytes32"
        }
      ],
      "name": "RoleAdminChanged",
      "type": "event"
    },
    {
      "anonymous": false,
      "inputs": [
        {
          "indexed": true,
          "internalType": "bytes32",
          "name": "role",
          "type": "bytes32"
        },
        {
          "indexed": true,
          "internalType": "address",
          "name": "account",
          "type": "address"
        },
        {
          "indexed": true,
          "internalType": "address",
          "name": "sender",
          "type": "address"
        }
      ],
      "name": "RoleGranted",
      "type": "event"
    },
    {
      "anonymous": false,
      "inputs": [
        {
          "indexed": true,
          "internalType": "bytes32",
          "name": "role",
          "type": "bytes32"
        },
        {
          "indexed": true,
          "internalType": "address",
          "name": "account",
          "type": "address"
        },
        {
          "indexed": true,
          "internalType": "address",
          "name": "sender",
          "type": "address"
        }
      ],
      "name": "RoleRevoked",
      "type": "event"
    },
    {
      "anonymous": false,
      "inputs": [
        {
          "indexed": false,
          "internalType": "uint256",
          "name": "id",
          "type": "uint256"
        }
      ],
      "name": "Snapshot",
      "type": "event"
    },
    {
      "anonymous": false,
      "inputs": [
        {
          "indexed": true,
          "internalType": "address",
          "name": "from",
          "type": "address"
        },
        {
          "indexed": true,
          "internalType": "address",
          "name": "to",
          "type": "address"
        },
        {
          "indexed": false,
          "internalType": "uint256",
          "name": "value",
          "type": "uint256"
        }
      ],
      "name": "Transfer",
      "type": "event"
    },
    {
      "anonymous": false,
      "inputs": [
        {
          "indexed": false,
          "internalType": "address",
          "name": "account",
          "type": "address"
        }
      ],
      "name": "Unpaused",
      "type": "event"
    },
    {
      "inputs": [],
      "name": "DEFAULT_ADMIN_ROLE",
      "outputs": [
        {
          "internalType": "bytes32",
          "name": "",
          "type": "bytes32"
        }
      ],
      "stateMutability": "view",
      "type": "function"
    },
    {
      "inputs": [],
      "name": "DISTR_ROLE",
      "outputs": [
        {
          "internalType": "bytes32",
          "name": "",
          "type": "bytes32"
        }
      ],
      "stateMutability": "view",
      "type": "function"
    },
    {
      "inputs": [],
      "name": "DOMAIN_SEPARATOR",
      "outputs": [
        {
          "internalType": "bytes32",
          "name": "",
          "type": "bytes32"
        }
      ],
      "stateMutability": "view",
      "type": "function"
    },
    {
      "inputs": [],
      "name": "OWNER_ROLE",
      "outputs": [
        {
          "internalType": "bytes32",
          "name": "",
          "type": "bytes32"
        }
      ],
      "stateMutability": "view",
      "type": "function"
    },
    {
      "inputs": [
        {
          "internalType": "address",
          "name": "owner",
          "type": "address"
        },
        {
          "internalType": "address",
          "name": "spender",
          "type": "address"
        }
      ],
      "name": "allowance",
      "outputs": [
        {
          "internalType": "uint256",
          "name": "",
          "type": "uint256"
        }
      ],
      "stateMutability": "view",
      "type": "function"
    },
    {
      "inputs": [
        {
          "internalType": "address",
          "name": "spender",
          "type": "address"
        },
        {
          "internalType": "uint256",
          "name": "amount",
          "type": "uint256"
        }
      ],
      "name": "approve",
      "outputs": [
        {
          "internalType": "bool",
          "name": "",
          "type": "bool"
        }
      ],
      "stateMutability": "nonpayable",
      "type": "function"
    },
    {
      "inputs": [
        {
          "internalType": "address",
          "name": "account",
          "type": "address"
        }
      ],
      "name": "balanceOf",
      "outputs": [
        {
          "internalType": "uint256",
          "name": "",
          "type": "uint256"
        }
      ],
      "stateMutability": "view",
      "type": "function"
    },
    {
      "inputs": [
        {
          "internalType": "address",
          "name": "account",
          "type": "address"
        },
        {
          "internalType": "uint256",
          "name": "snapshotId",
          "type": "uint256"
        }
      ],
      "name": "balanceOfAt",
      "outputs": [
        {
          "internalType": "uint256",
          "name": "",
          "type": "uint256"
        }
      ],
      "stateMutability": "view",
      "type": "function"
    },
    {
      "inputs": [
        {
          "internalType": "uint256",
          "name": "amount",
          "type": "uint256"
        }
      ],
      "name": "burn",
      "outputs": [],
      "stateMutability": "nonpayable",
      "type": "function"
    },
    {
      "inputs": [
        {
          "internalType": "address",
          "name": "account",
          "type": "address"
        },
        {
          "internalType": "uint256",
          "name": "amount",
          "type": "uint256"
        }
      ],
      "name": "burnFrom",
      "outputs": [],
      "stateMutability": "nonpayable",
      "type": "function"
    },
    {
      "inputs": [
        {
          "internalType": "address",
          "name": "account",
          "type": "address"
        },
        {
          "internalType": "uint256",
          "name": "amount",
          "type": "uint256"
        }
      ],
      "name": "burnNote",
      "outputs": [],
      "stateMutability": "nonpayable",
      "type": "function"
    },
    {
      "inputs": [],
      "name": "decimals",
      "outputs": [
        {
          "internalType": "uint8",
          "name": "",
          "type": "uint8"
        }
      ],
      "stateMutability": "view",
      "type": "function"
    },
    {
      "inputs": [
        {
          "internalType": "address",
          "name": "spender",
          "type": "address"
        },
        {
          "internalType": "uint256",
          "name": "subtractedValue",
          "type": "uint256"
        }
      ],
      "name": "decreaseAllowance",
      "outputs": [
        {
          "internalType": "bool",
          "name": "",
          "type": "bool"
        }
      ],
      "stateMutability": "nonpayable",
      "type": "function"
    },
    {
      "inputs": [
        {
          "internalType": "bytes32",
          "name": "role",
          "type": "bytes32"
        }
      ],
      "name": "getRoleAdmin",
      "outputs": [
        {
          "internalType": "bytes32",
          "name": "",
          "type": "bytes32"
        }
      ],
      "stateMutability": "view",
      "type": "function"
    },
    {
      "inputs": [
        {
          "internalType": "bytes32",
          "name": "role",
          "type": "bytes32"
        },
        {
          "internalType": "address",
          "name": "account",
          "type": "address"
        }
      ],
      "name": "grantRole",
      "outputs": [],
      "stateMutability": "nonpayable",
      "type": "function"
    },
    {
      "inputs": [
        {
          "internalType": "bytes32",
          "name": "role",
          "type": "bytes32"
        },
        {
          "internalType": "address",
          "name": "account",
          "type": "address"
        }
      ],
      "name": "hasRole",
      "outputs": [
        {
          "internalType": "bool",
          "name": "",
          "type": "bool"
        }
      ],
      "stateMutability": "view",
      "type": "function"
    },
    {
      "inputs": [
        {
          "internalType": "address",
          "name": "spender",
          "type": "address"
        },
        {
          "internalType": "uint256",
          "name": "addedValue",
          "type": "uint256"
        }
      ],
      "name": "increaseAllowance",
      "outputs": [
        {
          "internalType": "bool",
          "name": "",
          "type": "bool"
        }
      ],
      "stateMutability": "nonpayable",
      "type": "function"
    },
    {
      "inputs": [
        {
          "internalType": "address",
          "name": "_distributor",
          "type": "address"
        }
      ],
      "name": "initialize",
      "outputs": [],
      "stateMutability": "nonpayable",
      "type": "function"
    },
    {
      "inputs": [
        {
          "internalType": "address",
          "name": "to",
          "type": "address"
        },
        {
          "internalType": "uint256",
          "name": "amount",
          "type": "uint256"
        }
      ],
      "name": "mintNote",
      "outputs": [],
      "stateMutability": "nonpayable",
      "type": "function"
    },
    {
      "inputs": [],
      "name": "name",
      "outputs": [
        {
          "internalType": "string",
          "name": "",
          "type": "string"
        }
      ],
      "stateMutability": "view",
      "type": "function"
    },
    {
      "inputs": [
        {
          "internalType": "address",
          "name": "owner",
          "type": "address"
        }
      ],
      "name": "nonces",
      "outputs": [
        {
          "internalType": "uint256",
          "name": "",
          "type": "uint256"
        }
      ],
      "stateMutability": "view",
      "type": "function"
    },
    {
      "inputs": [],
      "name": "pause",
      "outputs": [],
      "stateMutability": "nonpayable",
      "type": "function"
    },
    {
      "inputs": [],
      "name": "paused",
      "outputs": [
        {
          "internalType": "bool",
          "name": "",
          "type": "bool"
        }
      ],
      "stateMutability": "view",
      "type": "function"
    },
    {
      "inputs": [
        {
          "internalType": "address",
          "name": "owner",
          "type": "address"
        },
        {
          "internalType": "address",
          "name": "spender",
          "type": "address"
        },
        {
          "internalType": "uint256",
          "name": "value",
          "type": "uint256"
        },
        {
          "internalType": "uint256",
          "name": "deadline",
          "type": "uint256"
        },
        {
          "internalType": "uint8",
          "name": "v",
          "type": "uint8"
        },
        {
          "internalType": "bytes32",
          "name": "r",
          "type": "bytes32"
        },
        {
          "internalType": "bytes32",
          "name": "s",
          "type": "bytes32"
        }
      ],
      "name": "permit",
      "outputs": [],
      "stateMutability": "nonpayable",
      "type": "function"
    },
    {
      "inputs": [
        {
          "internalType": "bytes32",
          "name": "role",
          "type": "bytes32"
        },
        {
          "internalType": "address",
          "name": "account",
          "type": "address"
        }
      ],
      "name": "renounceRole",
      "outputs": [],
      "stateMutability": "nonpayable",
      "type": "function"
    },
    {
      "inputs": [
        {
          "internalType": "bytes32",
          "name": "role",
          "type": "bytes32"
        },
        {
          "internalType": "address",
          "name": "account",
          "type": "address"
        }
      ],
      "name": "revokeRole",
      "outputs": [],
      "stateMutability": "nonpayable",
      "type": "function"
    },
    {
      "inputs": [
        {
          "internalType": "bytes4",
          "name": "interfaceId",
          "type": "bytes4"
        }
      ],
      "name": "supportsInterface",
      "outputs": [
        {
          "internalType": "bool",
          "name": "",
          "type": "bool"
        }
      ],
      "stateMutability": "view",
      "type": "function"
    },
    {
      "inputs": [],
      "name": "symbol",
      "outputs": [
        {
          "internalType": "string",
          "name": "",
          "type": "string"
        }
      ],
      "stateMutability": "view",
      "type": "function"
    },
    {
      "inputs": [],
      "name": "totalSupply",
      "outputs": [
        {
          "internalType": "uint256",
          "name": "",
          "type": "uint256"
        }
      ],
      "stateMutability": "view",
      "type": "function"
    },
    {
      "inputs": [
        {
          "internalType": "uint256",
          "name": "snapshotId",
          "type": "uint256"
        }
      ],
      "name": "totalSupplyAt",
      "outputs": [
        {
          "internalType": "uint256",
          "name": "",
          "type": "uint256"
        }
      ],
      "stateMutability": "view",
      "type": "function"
    },
    {
      "inputs": [
        {
          "internalType": "address",
          "name": "to",
          "type": "address"
        },
        {
          "internalType": "uint256",
          "name": "amount",
          "type": "uint256"
        }
      ],
      "name": "transfer",
      "outputs": [
        {
          "internalType": "bool",
          "name": "",
          "type": "bool"
        }
      ],
      "stateMutability": "nonpayable",
      "type": "function"
    },
    {
      "inputs": [
        {
          "internalType": "address",
          "name": "from",
          "type": "address"
        },
        {
          "internalType": "address",
          "name": "to",
          "type": "address"
        },
        {
          "internalType": "uint256",
          "name": "amount",
          "type": "uint256"
        }
      ],
      "name": "transferFrom",
      "outputs": [
        {
          "internalType": "bool",
          "name": "",
          "type": "bool"
        }
      ],
      "stateMutability": "nonpayable",
      "type": "function"
    },
    {
      "inputs": [],
      "name": "unpause",
      "outputs": [],
      "stateMutability": "nonpayable",
      "type": "function"
    }
  ],
  "bytecode": {
    "object": "0x60806040523480156200001157600080fd5b506200001c62000022565b620000e4565b600054610100900460ff16156200008f5760405162461bcd60e51b815260206004820152602760248201527f496e697469616c697a61626c653a20636f6e747261637420697320696e697469604482015266616c697a696e6760c81b606482015260840160405180910390fd5b60005460ff9081161015620000e2576000805460ff191660ff9081179091556040519081527f7f26b83ff96e1f2b6a682f133852f6798a09c465da95921460cefb38474024989060200160405180910390a15b565b61257280620000f46000396000f3fe608060405234801561001057600080fd5b50600436106101fb5760003560e01c80635c975abb1161011a578063981b24d0116100ad578063c4d66de81161007c578063c4d66de814610413578063d505accf14610426578063d547741f14610439578063dd62ed3e1461044c578063e58378bb1461045f57600080fd5b8063981b24d0146103d2578063a217fddf146103e5578063a457c2d7146103ed578063a9059cbb1461040057600080fd5b80638456cb59116100e95780638456cb591461039a5780638b2e930f146103a257806391d14854146103b757806395d89b41146103ca57600080fd5b80635c975abb1461033f57806370a082311461034b57806379cc6790146103745780637ecebe001461038757600080fd5b8063313ce567116101925780633f4ba83a116101615780633f4ba83a146102fe57806342966c68146103065780634af2859e146103195780634ee2cd7e1461032c57600080fd5b8063313ce567146102c15780633644e515146102d057806336568abe146102d857806339509351146102eb57600080fd5b806323b872dd116101ce57806323b872dd14610262578063248a9ca31461027557806329fcef64146102995780632f2ff15d146102ae57600080fd5b806301ffc9a71461020057806306fdde0314610228578063095ea7b31461023d57806318160ddd14610250575b600080fd5b61021361020e3660046122e5565b610474565b60405190151581526020015b60405180910390f35b6102306104ab565b60405161021f9190612382565b61021361024b366004612282565b61053d565b6035545b60405190815260200161021f565b6102136102703660046121d6565b610555565b6102546102833660046122ab565b6000908152610194602052604090206001015490565b6102ac6102a7366004612282565b610579565b005b6102ac6102bc3660046122c3565b6105a0565b6040516012815260200161021f565b6102546105c6565b6102ac6102e63660046122c3565b6105d5565b6102136102f9366004612282565b6106b0565b6102ac6106d2565b6102ac6103143660046122ab565b6106f5565b6102ac610327366004612282565b6106ff565b61025461033a366004612282565b610721565b6101305460ff16610213565b61025461035936600461218a565b6001600160a01b031660009081526033602052604090205490565b6102ac610382366004612282565b61077a565b61025461039536600461218a565b61078f565b6102ac6107ad565b61025460008051602061251d83398151915281565b6102136103c53660046122c3565b6107cd565b6102306107f9565b6102546103e03660046122ab565b610808565b610254600081565b6102136103fb366004612282565b610833565b61021361040e366004612282565b6108ae565b6102ac61042136600461218a565b6108bc565b6102ac610434366004612211565b610b0c565b6102ac6104473660046122c3565b610c70565b61025461045a3660046121a4565b610ce3565b6102546000805160206124fd83398151915281565b60006001600160e01b03198216637965db0b60e01b14806104a557506301ffc9a760e01b6001600160e01b03198316145b92915050565b6060603680546104ba906124b1565b80601f01602080910402602001604051908101604052809291908181526020018280546104e6906124b1565b80156105335780601f1061050857610100808354040283529160200191610533565b820191906000526020600020905b81548152906001019060200180831161051657829003601f168201915b5050505050905090565b60003361054b818585610d0e565b5060019392505050565b600033610563858285610e32565b61056e858585610eac565b506001949350505050565b60008051602061251d83398151915261059181611085565b61059b838361108f565b505050565b600082815261019460205260409020600101546105bc81611085565b61059b83836111e9565b60006105d0611270565b905090565b6001600160a01b038116331461064a5760405162461bcd60e51b815260206004820152602f60248201527f416363657373436f6e74726f6c3a2063616e206f6e6c792072656e6f756e636560448201526e103937b632b9903337b91039b2b63360891b60648201526084015b60405180910390fd5b816106a25760405162461bcd60e51b815260206004820152602260248201527f4e6f7420616c6c6f77656420746f2072656e6f756e63652061646d696e20726f6044820152616c6560f01b6064820152608401610641565b6106ac82826112eb565b5050565b60003361054b8185856106c38383610ce3565b6106cd9190612400565b610d0e565b6000805160206124fd8339815191526106ea81611085565b6106f2611353565b50565b6106f2338261108f565b60008051602061251d83398151915261071781611085565b61059b83836113a6565b6001600160a01b038216600090815260976020526040812081908190610748908590611491565b915091508161076f576001600160a01b038516600090815260336020526040902054610771565b805b95945050505050565b610785823383610e32565b6106ac828261108f565b6001600160a01b038116600090815260fd60205260408120546104a5565b6000805160206124fd8339815191526107c581611085565b6106f2611596565b6000918252610194602090815260408084206001600160a01b0393909316845291905290205460ff1690565b6060603780546104ba906124b1565b6000806000610818846098611491565b91509150816108295760355461082b565b805b949350505050565b600033816108418286610ce3565b9050838110156108a15760405162461bcd60e51b815260206004820152602560248201527f45524332303a2064656372656173656420616c6c6f77616e63652062656c6f77604482015264207a65726f60d81b6064820152608401610641565b61056e8286868403610d0e565b60003361054b818585610eac565b600054610100900460ff16158080156108dc5750600054600160ff909116105b806108f65750303b1580156108f6575060005460ff166001145b6109595760405162461bcd60e51b815260206004820152602e60248201527f496e697469616c697a61626c653a20636f6e747261637420697320616c72656160448201526d191e481a5b9a5d1a585b1a5e995960921b6064820152608401610641565b6000805460ff19166001179055801561097c576000805461ff0019166101001790555b6001600160a01b0382163b6109e35760405162461bcd60e51b815260206004820152602760248201527f5f6469737472696275746f722073686f756c6420626520636f6e7472616374206044820152666164647265737360c81b6064820152608401610641565b610a2c6040518060400160405280600a8152602001694173746172204e6f746560b01b815250604051806040016040528060058152602001643720a9aa2960d91b8152506115d4565b610a576040518060400160405280600a8152602001694173746172204e6f746560b01b815250611605565b610a5f61164f565b610a67611680565b610a6f611680565b610a77611680565b610a8f60008051602061251d833981519152836111e9565b610aa76000805160206124fd833981519152336111e9565b6101c680546001600160a01b0319166001600160a01b03841617905580156106ac576000805461ff0019169055604051600181527f7f26b83ff96e1f2b6a682f133852f6798a09c465da95921460cefb38474024989060200160405180910390a15050565b83421115610b5c5760405162461bcd60e51b815260206004820152601d60248201527f45524332305065726d69743a206578706972656420646561646c696e650000006044820152606401610641565b60007f6e71edae12b1b97f4d1f60370fef10105fa2faae0126114a169c64845d6126c9888888610b8b8c6116a7565b6040805160208101969096526001600160a01b0394851690860152929091166060840152608083015260a082015260c0810186905260e0016040516020818303038152906040528051906020012090506000610be6826116cf565b90506000610bf68287878761171d565b9050896001600160a01b0316816001600160a01b031614610c595760405162461bcd60e51b815260206004820152601e60248201527f45524332305065726d69743a20696e76616c6964207369676e617475726500006044820152606401610641565b610c648a8a8a610d0e565b50505050505050505050565b60008281526101946020526040902060010154610c8c81611085565b82610cd95760405162461bcd60e51b815260206004820181905260248201527f4e6f7420616c6c6f77656420746f207265766f6b652061646d696e20726f6c656044820152606401610641565b61059b83836112eb565b6001600160a01b03918216600090815260346020908152604080832093909416825291909152205490565b6001600160a01b038316610d705760405162461bcd60e51b8152602060048201526024808201527f45524332303a20617070726f76652066726f6d20746865207a65726f206164646044820152637265737360e01b6064820152608401610641565b6001600160a01b038216610dd15760405162461bcd60e51b815260206004820152602260248201527f45524332303a20617070726f766520746f20746865207a65726f206164647265604482015261737360f01b6064820152608401610641565b6001600160a01b0383811660008181526034602090815260408083209487168084529482529182902085905590518481527f8c5be1e5ebec7d5bd14f71427d1e84f3dd0314c0f7b2291e5b200ac8c7c3b925910160405180910390a3505050565b6000610e3e8484610ce3565b90506000198114610ea65781811015610e995760405162461bcd60e51b815260206004820152601d60248201527f45524332303a20696e73756666696369656e7420616c6c6f77616e63650000006044820152606401610641565b610ea68484848403610d0e565b50505050565b6001600160a01b038316610f105760405162461bcd60e51b815260206004820152602560248201527f45524332303a207472616e736665722066726f6d20746865207a65726f206164604482015264647265737360d81b6064820152608401610641565b6001600160a01b038216610f725760405162461bcd60e51b815260206004820152602360248201527f45524332303a207472616e7366657220746f20746865207a65726f206164647260448201526265737360e81b6064820152608401610641565b610f7d838383611745565b6001600160a01b03831660009081526033602052604090205481811015610ff55760405162461bcd60e51b815260206004820152602660248201527f45524332303a207472616e7366657220616d6f756e7420657863656564732062604482015265616c616e636560d01b6064820152608401610641565b6001600160a01b0380851660009081526033602052604080822085850390559185168152908120805484929061102c908490612400565b92505081905550826001600160a01b0316846001600160a01b03167fddf252ad1be2c89b69c2b068fc378daa952ba7f163c4a11628f55a4df523b3ef8460405161107891815260200190565b60405180910390a3610ea6565b6106f2813361181d565b6001600160a01b0382166110ef5760405162461bcd60e51b815260206004820152602160248201527f45524332303a206275726e2066726f6d20746865207a65726f206164647265736044820152607360f81b6064820152608401610641565b6110fb82600083611745565b6001600160a01b0382166000908152603360205260409020548181101561116f5760405162461bcd60e51b815260206004820152602260248201527f45524332303a206275726e20616d6f756e7420657863656564732062616c616e604482015261636560f01b6064820152608401610641565b6001600160a01b038316600090815260336020526040812083830390556035805484929061119e908490612457565b90915550506040518281526000906001600160a01b038516907fddf252ad1be2c89b69c2b068fc378daa952ba7f163c4a11628f55a4df523b3ef9060200160405180910390a3505050565b6111f382826107cd565b6106ac576000828152610194602090815260408083206001600160a01b03851684529091529020805460ff1916600117905561122c3390565b6001600160a01b0316816001600160a01b0316837f2f8788117e7eff1d82e926ec794901d17c78024a50270940304540a733656f0d60405160405180910390a45050565b60006105d07f8b73c3c69bb8fe3d512ecc4cf759cc79239f7b179b0ffacaa9a75d522b39400f61129f60c95490565b60ca546040805160208101859052908101839052606081018290524660808201523060a082015260009060c0016040516020818303038152906040528051906020012090509392505050565b6112f582826107cd565b156106ac576000828152610194602090815260408083206001600160a01b0385168085529252808320805460ff1916905551339285917ff6391f5c32d9c69d2a47ea670b442974b53935d1edc7fd64eb21e047a839171b9190a45050565b61135b611881565b610130805460ff191690557f5db9ee0a495bf2e6ff9c91a7834c1ba4fdd244a5e8aa4e537bd38aeae4b073aa335b6040516001600160a01b03909116815260200160405180910390a1565b6001600160a01b0382166113fc5760405162461bcd60e51b815260206004820152601f60248201527f45524332303a206d696e7420746f20746865207a65726f2061646472657373006044820152606401610641565b61140860008383611745565b806035600082825461141a9190612400565b90915550506001600160a01b03821660009081526033602052604081208054839290611447908490612400565b90915550506040518181526001600160a01b038316906000907fddf252ad1be2c89b69c2b068fc378daa952ba7f163c4a11628f55a4df523b3ef9060200160405180910390a35050565b600080600084116114dd5760405162461bcd60e51b815260206004820152601660248201527504552433230536e617073686f743a20696420697320360541b6044820152606401610641565b6114e56118cb565b8411156115345760405162461bcd60e51b815260206004820152601d60248201527f4552433230536e617073686f743a206e6f6e6578697374656e742069640000006044820152606401610641565b600061154084866118d6565b845490915081141561155957600080925092505061158f565b600184600101828154811061157e57634e487b7160e01b600052603260045260246000fd5b906000526020600020015492509250505b9250929050565b61159e6119b5565b610130805460ff191660011790557f62e78cea01bee320cd4e420270b5ea74000d11b0c9f74754ebdbfc544b05a2586113893390565b600054610100900460ff166115fb5760405162461bcd60e51b8152600401610641906123b5565b6106ac82826119fc565b600054610100900460ff1661162c5760405162461bcd60e51b8152600401610641906123b5565b6106f281604051806040016040528060018152602001603160f81b815250611a4a565b600054610100900460ff166116765760405162461bcd60e51b8152600401610641906123b5565b61167e611a8b565b565b600054610100900460ff1661167e5760405162461bcd60e51b8152600401610641906123b5565b6001600160a01b038116600090815260fd602052604090208054600181018255905b50919050565b60006104a56116dc611270565b8360405161190160f01b6020820152602281018390526042810182905260009060620160405160208183030381529060405280519060200120905092915050565b600080600061172e87878787611abf565b9150915061173b81611bac565b5095945050505050565b61174d6119b5565b611758838383611dad565b6001600160a01b0383161561059b576101c65460405163058c2bc760e31b81526001600160a01b03858116600483015284811660248301526044820184905260a06064830152600d60a48301526c4c69717569645374616b696e6760981b60c483015260e06084830152600560e4830152643720a9aa2960d91b61010483015290911690632c615e389061012401600060405180830381600087803b15801561180057600080fd5b505af1158015611814573d6000803e3d6000fd5b50505050505050565b61182782826107cd565b6106ac5761183f816001600160a01b03166014611df5565b61184a836020611df5565b60405160200161185b92919061230d565b60408051601f198184030181529082905262461bcd60e51b825261064191600401612382565b6101305460ff1661167e5760405162461bcd60e51b815260206004820152601460248201527314185d5cd8589b194e881b9bdd081c185d5cd95960621b6044820152606401610641565b60006105d0609a5490565b81546000906118e7575060006104a5565b82546000905b808210156119515760006119018383611fde565b90508486828154811061192457634e487b7160e01b600052603260045260246000fd5b9060005260206000200154111561193d5780915061194b565b611948816001612400565b92505b506118ed565b60008211801561199457508385611969600185612457565b8154811061198757634e487b7160e01b600052603260045260246000fd5b9060005260206000200154145b156119ad576119a4600183612457565b925050506104a5565b5090506104a5565b6101305460ff161561167e5760405162461bcd60e51b815260206004820152601060248201526f14185d5cd8589b194e881c185d5cd95960821b6044820152606401610641565b600054610100900460ff16611a235760405162461bcd60e51b8152600401610641906123b5565b8151611a369060369060208501906120da565b50805161059b9060379060208401906120da565b600054610100900460ff16611a715760405162461bcd60e51b8152600401610641906123b5565b81516020928301208151919092012060c99190915560ca55565b600054610100900460ff16611ab25760405162461bcd60e51b8152600401610641906123b5565b610130805460ff19169055565b6000807f7fffffffffffffffffffffffffffffff5d576e7357a4501ddfe92f46681b20a0831115611af65750600090506003611ba3565b8460ff16601b14158015611b0e57508460ff16601c14155b15611b1f5750600090506004611ba3565b6040805160008082526020820180845289905260ff881692820192909252606081018690526080810185905260019060a0016020604051602081039080840390855afa158015611b73573d6000803e3d6000fd5b5050604051601f1901519150506001600160a01b038116611b9c57600060019250925050611ba3565b9150600090505b94509492505050565b6000816004811115611bce57634e487b7160e01b600052602160045260246000fd5b1415611bd75750565b6001816004811115611bf957634e487b7160e01b600052602160045260246000fd5b1415611c475760405162461bcd60e51b815260206004820152601860248201527f45434453413a20696e76616c6964207369676e617475726500000000000000006044820152606401610641565b6002816004811115611c6957634e487b7160e01b600052602160045260246000fd5b1415611cb75760405162461bcd60e51b815260206004820152601f60248201527f45434453413a20696e76616c6964207369676e6174757265206c656e677468006044820152606401610641565b6003816004811115611cd957634e487b7160e01b600052602160045260246000fd5b1415611d325760405162461bcd60e51b815260206004820152602260248201527f45434453413a20696e76616c6964207369676e6174757265202773272076616c604482015261756560f01b6064820152608401610641565b6004816004811115611d5457634e487b7160e01b600052602160045260246000fd5b14156106f25760405162461bcd60e51b815260206004820152602260248201527f45434453413a20696e76616c6964207369676e6174757265202776272076616c604482015261756560f01b6064820152608401610641565b6001600160a01b038316611dcc57611dc482611ff9565b61059b61202c565b6001600160a01b038216611de357611dc483611ff9565b611dec83611ff9565b61059b82611ff9565b60606000611e04836002612438565b611e0f906002612400565b67ffffffffffffffff811115611e3557634e487b7160e01b600052604160045260246000fd5b6040519080825280601f01601f191660200182016040528015611e5f576020820181803683370190505b509050600360fc1b81600081518110611e8857634e487b7160e01b600052603260045260246000fd5b60200101906001600160f81b031916908160001a905350600f60fb1b81600181518110611ec557634e487b7160e01b600052603260045260246000fd5b60200101906001600160f81b031916908160001a9053506000611ee9846002612438565b611ef4906001612400565b90505b6001811115611f88576f181899199a1a9b1b9c1cb0b131b232b360811b85600f1660108110611f3657634e487b7160e01b600052603260045260246000fd5b1a60f81b828281518110611f5a57634e487b7160e01b600052603260045260246000fd5b60200101906001600160f81b031916908160001a90535060049490941c93611f818161249a565b9050611ef7565b508315611fd75760405162461bcd60e51b815260206004820181905260248201527f537472696e67733a20686578206c656e67746820696e73756666696369656e746044820152606401610641565b9392505050565b6000611fed6002848418612418565b611fd790848416612400565b6001600160a01b03811660009081526097602090815260408083206033909252909120546106f2919061203a565b61203a565b61167e609861202760355490565b60006120446118cb565b90508061205084612084565b101561059b578254600180820185556000858152602080822090930193909355938401805494850181558252902090910155565b805460009061209557506000919050565b815482906120a590600190612457565b815481106120c357634e487b7160e01b600052603260045260246000fd5b90600052602060002001549050919050565b919050565b8280546120e6906124b1565b90600052602060002090601f016020900481019282612108576000855561214e565b82601f1061212157805160ff191683800117855561214e565b8280016001018555821561214e579182015b8281111561214e578251825591602001919060010190612133565b5061215a92915061215e565b5090565b5b8082111561215a576000815560010161215f565b80356001600160a01b03811681146120d557600080fd5b60006020828403121561219b578081fd5b611fd782612173565b600080604083850312156121b6578081fd5b6121bf83612173565b91506121cd60208401612173565b90509250929050565b6000806000606084860312156121ea578081fd5b6121f384612173565b925061220160208501612173565b9150604084013590509250925092565b600080600080600080600060e0888a03121561222b578283fd5b61223488612173565b965061224260208901612173565b95506040880135945060608801359350608088013560ff81168114612265578384fd5b9699959850939692959460a0840135945060c09093013592915050565b60008060408385031215612294578182fd5b61229d83612173565b946020939093013593505050565b6000602082840312156122bc578081fd5b5035919050565b600080604083850312156122d5578182fd5b823591506121cd60208401612173565b6000602082840312156122f6578081fd5b81356001600160e01b031981168114611fd7578182fd5b7f416363657373436f6e74726f6c3a206163636f756e742000000000000000000081526000835161234581601785016020880161246e565b7001034b99036b4b9b9b4b733903937b6329607d1b601791840191820152835161237681602884016020880161246e565b01602801949350505050565b60208152600082518060208401526123a181604085016020870161246e565b601f01601f19169190910160400192915050565b6020808252602b908201527f496e697469616c697a61626c653a20636f6e7472616374206973206e6f74206960408201526a6e697469616c697a696e6760a81b606082015260800190565b60008219821115612413576124136124e6565b500190565b60008261243357634e487b7160e01b81526012600452602481fd5b500490565b6000816000190483118215151615612452576124526124e6565b500290565b600082821015612469576124696124e6565b500390565b60005b83811015612489578181015183820152602001612471565b83811115610ea65750506000910152565b6000816124a9576124a96124e6565b506000190190565b600181811c908216806124c557607f821691505b602082108114156116c957634e487b7160e01b600052602260045260246000fd5b634e487b7160e01b600052601160045260246000fdfeb19546dff01e856fb3f010c267a7b1c60363cf8a4664e21cc89c26224620214e4763bb9af0c3e47e903ac56d30c54c16318477624628abb6d055e5c8e0397e49a26469706673582212209457ddae1d73a8d58c092777158929b5ac7cd02f9f665594e36d2123bdcea55f64736f6c63430008040033",
    "linkReferences": {}
  },
  "methodIdentifiers": {
    "DEFAULT_ADMIN_ROLE()": "a217fddf",
    "DISTR_ROLE()": "8b2e930f",
    "DOMAIN_SEPARATOR()": "3644e515",
    "OWNER_ROLE()": "e58378bb",
    "allowance(address,address)": "dd62ed3e",
    "approve(address,uint256)": "095ea7b3",
    "balanceOf(address)": "70a08231",
    "balanceOfAt(address,uint256)": "4ee2cd7e",
    "burn(uint256)": "42966c68",
    "burnFrom(address,uint256)": "79cc6790",
    "burnNote(address,uint256)": "29fcef64",
    "decimals()": "313ce567",
    "decreaseAllowance(address,uint256)": "a457c2d7",
    "getRoleAdmin(bytes32)": "248a9ca3",
    "grantRole(bytes32,address)": "2f2ff15d",
    "hasRole(bytes32,address)": "91d14854",
    "increaseAllowance(address,uint256)": "39509351",
    "initialize(address)": "c4d66de8",
    "mintNote(address,uint256)": "4af2859e",
    "name()": "06fdde03",
    "nonces(address)": "7ecebe00",
    "pause()": "8456cb59",
    "paused()": "5c975abb",
    "permit(address,address,uint256,uint256,uint8,bytes32,bytes32)": "d505accf",
    "renounceRole(bytes32,address)": "36568abe",
    "revokeRole(bytes32,address)": "d547741f",
    "supportsInterface(bytes4)": "01ffc9a7",
    "symbol()": "95d89b41",
    "totalSupply()": "18160ddd",
    "totalSupplyAt(uint256)": "981b24d0",
    "transfer(address,uint256)": "a9059cbb",
    "transferFrom(address,address,uint256)": "23b872dd",
    "unpause()": "3f4ba83a"
  },
  "id": 27
}