{
  "abi": [
    {
      "inputs": [],
      "stateMutability": "nonpayable",
      "type": "constructor"
    },
    {
      "inputs": [
        {
          "internalType": "address",
          "name": "liquid",
          "type": "address"
        },
        {
          "internalType": "uint128",
          "name": "amount",
          "type": "uint128"
        }
      ],
      "name": "bond_and_stake",
      "outputs": [],
      "stateMutability": "payable",
      "type": "function"
    },
    {
      "inputs": [
        {
          "internalType": "address",
          "name": "liquid",
          "type": "address"
        }
      ],
      "name": "claim_staker",
      "outputs": [],
      "stateMutability": "nonpayable",
      "type": "function"
    },
    {
      "inputs": [],
      "name": "lastStakeBlock",
      "outputs": [
        {
          "internalType": "uint256",
          "name": "",
          "type": "uint256"
        }
      ],
      "stateMutability": "view",
      "type": "function"
    },
    {
      "inputs": [],
      "name": "read_current_era",
      "outputs": [
        {
          "internalType": "uint256",
          "name": "",
          "type": "uint256"
        }
      ],
      "stateMutability": "view",
      "type": "function"
    },
    {
      "inputs": [],
      "name": "read_unbonding_period",
      "outputs": [
        {
          "internalType": "uint256",
          "name": "",
          "type": "uint256"
        }
      ],
      "stateMutability": "view",
      "type": "function"
    },
    {
      "inputs": [],
      "name": "stakeTime",
      "outputs": [
        {
          "internalType": "uint256",
          "name": "",
          "type": "uint256"
        }
      ],
      "stateMutability": "view",
      "type": "function"
    },
    {
      "inputs": [],
      "name": "startTime",
      "outputs": [
        {
          "internalType": "uint256",
          "name": "",
          "type": "uint256"
        }
      ],
      "stateMutability": "view",
      "type": "function"
    },
    {
      "inputs": [],
      "name": "sumToUnstake",
      "outputs": [
        {
          "internalType": "uint256",
          "name": "",
          "type": "uint256"
        }
      ],
      "stateMutability": "view",
      "type": "function"
    },
    {
      "inputs": [],
      "name": "totalStake",
      "outputs": [
        {
          "internalType": "uint256",
          "name": "",
          "type": "uint256"
        }
      ],
      "stateMutability": "view",
      "type": "function"
    },
    {
      "inputs": [
        {
          "internalType": "address",
          "name": "cl",
          "type": "address"
        },
        {
          "internalType": "uint128",
          "name": "amount",
          "type": "uint128"
        }
      ],
      "name": "unbond_and_unstake",
      "outputs": [],
      "stateMutability": "nonpayable",
      "type": "function"
    },
    {
      "inputs": [],
      "name": "unbondingStartBlock",
      "outputs": [
        {
          "internalType": "uint256",
          "name": "",
          "type": "uint256"
        }
      ],
      "stateMutability": "view",
      "type": "function"
    },
    {
      "inputs": [],
      "name": "unstakeTime",
      "outputs": [
        {
          "internalType": "uint256",
          "name": "",
          "type": "uint256"
        }
      ],
      "stateMutability": "view",
      "type": "function"
    },
    {
      "inputs": [
        {
          "internalType": "uint256",
          "name": "",
          "type": "uint256"
        }
      ],
      "name": "unstakesInEra",
      "outputs": [
        {
          "internalType": "uint256",
          "name": "",
          "type": "uint256"
        }
      ],
      "stateMutability": "view",
      "type": "function"
    },
    {
      "inputs": [],
      "name": "withdraw_unbonded",
      "outputs": [],
      "stateMutability": "nonpayable",
      "type": "function"
    },
    {
      "inputs": [],
      "name": "withdrawal",
      "outputs": [
        {
          "internalType": "uint256",
          "name": "",
          "type": "uint256"
        }
      ],
      "stateMutability": "view",
      "type": "function"
    }
  ],
  "bytecode": {
    "object": "0x608060405234801561001057600080fd5b5042600455610714806100246000396000f3fe6080604052600436106100e85760003560e01c8063a25b7e491161008a578063d4e9329211610059578063d4e932921461021a578063d7e5274514610230578063db62b20114610246578063e608d80b1461025a57600080fd5b8063a25b7e49146101b8578063a6bbfe2e146101ce578063b77a2c1c146101e4578063c7841dd2146101fa57600080fd5b806378e97925116100c657806378e97925146101565780638640ce5f1461016c5780638b0e9f3f14610182578063a0b9d8be1461019857600080fd5b80630789bd8f146100ed57806352b73e411461012c57806377a0fe0214610141575b600080fd5b3480156100f957600080fd5b5061011a610108366004610661565b60086020526000908152604090205481565b60405190815260200160405180910390f35b61013f61013a366004610620565b61026f565b005b34801561014d57600080fd5b5061013f610296565b34801561016257600080fd5b5061011a60045481565b34801561017857600080fd5b5061011a60015481565b34801561018e57600080fd5b5061011a60005481565b3480156101a457600080fd5b5061013f6101b33660046105ff565b6103ac565b3480156101c457600080fd5b5061011a60055481565b3480156101da57600080fd5b5061011a60025481565b3480156101f057600080fd5b5061011a60075481565b34801561020657600080fd5b5061013f610215366004610620565b610479565b34801561022657600080fd5b5061011a60035481565b34801561023c57600080fd5b5061011a60065481565b34801561025257600080fd5b50600a61011a565b34801561026657600080fd5b5061011a6105b5565b806001600160801b03166000808282546102899190610679565b9091555050426007555050565b6006546102dd5760405162461bcd60e51b815260206004820152601060248201526f0556e7374616b6554696d65203d3d20360841b60448201526064015b60405180910390fd5b620d2f00600654426102ef91906106b1565b10156103495760405162461bcd60e51b815260206004820152602360248201527f556e626f6e64696e6720706572696f6420686173206e6f7420706173736564206044820152621e595d60ea1b60648201526084016102d4565b60055460405160009133918381818185875af1925050503d806000811461038c576040519150601f19603f3d011682016040523d82523d6000602084013e610391565b606091505b505090508061039f57600080fd5b5060006005819055600655565b600a6002546103bb90436106b1565b116104085760405162461bcd60e51b815260206004820152601860248201527f756e626f6e64696e6720706572696f64206e6f7420656e64000000000000000060448201526064016102d4565b600654806104135750425b600754600090339061042590846106b1565b604051600081818185875af1925050503d8060008114610461576040519150601f19603f3d011682016040523d82523d6000602084013e610466565b606091505b505090508061047457600080fd5b505050565b60006104836105b5565b9050816001600160801b031660005410156104ee5760405162461bcd60e51b815260206004820152602560248201527f4d6f636b44617070735374616b696e673a20616d6f756e74203e20746f74616c6044820152645374616b6560d81b60648201526084016102d4565b816001600160801b031660008082825461050891906106b1565b92505081905550816001600160801b03166005600082825461052a9190610679565b9091555050600081815260086020526040812080546001929061054e908490610679565b9091555050426006556000818152600860205260409020546005116104745760405162461bcd60e51b815260206004820181905260248201527f546f206d75636820756e7374616b657320666f722063757272656e742065726160448201526064016102d4565b600062015180600454426105c991906106b1565b6105d39190610691565b6105de906001610679565b905090565b80356001600160a01b03811681146105fa57600080fd5b919050565b600060208284031215610610578081fd5b610619826105e3565b9392505050565b60008060408385031215610632578081fd5b61063b836105e3565b915060208301356001600160801b0381168114610656578182fd5b809150509250929050565b600060208284031215610672578081fd5b5035919050565b6000821982111561068c5761068c6106c8565b500190565b6000826106ac57634e487b7160e01b81526012600452602481fd5b500490565b6000828210156106c3576106c36106c8565b500390565b634e487b7160e01b600052601160045260246000fdfea2646970667358221220105270eb0298172f4314d5cd4879f55ecac05a4cb905635d3a01d44e6f25035364736f6c63430008040033",
    "linkReferences": {}
  },
  "methodIdentifiers": {
    "bond_and_stake(address,uint128)": "52b73e41",
    "claim_staker(address)": "a0b9d8be",
    "lastStakeBlock()": "8640ce5f",
    "read_current_era()": "e608d80b",
    "read_unbonding_period()": "db62b201",
    "stakeTime()": "b77a2c1c",
    "startTime()": "78e97925",
    "sumToUnstake()": "a25b7e49",
    "totalStake()": "8b0e9f3f",
    "unbond_and_unstake(address,uint128)": "c7841dd2",
    "unbondingStartBlock()": "a6bbfe2e",
    "unstakeTime()": "d7e52745",
    "unstakesInEra(uint256)": "0789bd8f",
    "withdraw_unbonded()": "77a0fe02",
    "withdrawal()": "d4e93292"
  },
  "id": 71
}