{
  "abi": [
    {
      "inputs": [],
      "stateMutability": "nonpayable",
      "type": "constructor"
    },
    {
      "inputs": [
        {
          "internalType": "address",
          "name": "user",
          "type": "address"
        }
      ],
      "name": "calc",
      "outputs": [
        {
          "internalType": "uint256",
          "name": "sum",
          "type": "uint256"
        }
      ],
      "stateMutability": "view",
      "type": "function"
    },
    {
      "inputs": [],
      "name": "gauge",
      "outputs": [
        {
          "internalType": "contract IToken",
          "name": "",
          "type": "address"
        }
      ],
      "stateMutability": "view",
      "type": "function"
    },
    {
      "inputs": [],
      "name": "liquid",
      "outputs": [
        {
          "internalType": "address",
          "name": "",
          "type": "address"
        }
      ],
      "stateMutability": "view",
      "type": "function"
    },
    {
      "inputs": [],
      "name": "lp",
      "outputs": [
        {
          "internalType": "contract IToken",
          "name": "",
          "type": "address"
        }
      ],
      "stateMutability": "view",
      "type": "function"
    },
    {
      "inputs": [],
      "name": "nToken",
      "outputs": [
        {
          "internalType": "contract IToken",
          "name": "",
          "type": "address"
        }
      ],
      "stateMutability": "view",
      "type": "function"
    },
    {
      "inputs": [],
      "name": "owner",
      "outputs": [
        {
          "internalType": "address",
          "name": "",
          "type": "address"
        }
      ],
      "stateMutability": "view",
      "type": "function"
    },
    {
      "inputs": [],
      "name": "pool",
      "outputs": [
        {
          "internalType": "contract IPool",
          "name": "",
          "type": "address"
        }
      ],
      "stateMutability": "view",
      "type": "function"
    },
    {
      "inputs": [],
      "name": "token",
      "outputs": [
        {
          "internalType": "address",
          "name": "",
          "type": "address"
        }
      ],
      "stateMutability": "view",
      "type": "function"
    },
    {
      "inputs": [],
      "name": "virtualPrice",
      "outputs": [
        {
          "internalType": "uint256",
          "name": "",
          "type": "uint256"
        }
      ],
      "stateMutability": "view",
      "type": "function"
    }
  ],
  "bytecode": {
    "object": "0x60806040819052600080546001600160a01b031990811673327d5322242b5558beba1dfb9c02a9da63551d6790811790925560018054821673aeaaf0e2c81af264101b9129c00f4440ccf0f72017905560028054821673ec1bd689f7576e912348d50ae3f10f4ca548938417905560038054821673847f0fd7e3a234e7321d01ff2347e4501ea89cf11790556004805490911673e511ed88575c57767bafb72bfd10775413e3f2b0178155630176f71760e71b8352670de0b6b3a76400009263bb7b8b80916084916020918186803b1580156100da57600080fd5b505afa1580156100ee573d6000803e3d6000fd5b505050506040513d601f19601f820116820180604052508101906101129190610169565b61011c9190610181565b600555600680546001600160a01b0319167370d264472327b67898c919809a9dc4759b6c0f2717905534801561015157600080fd5b50600780546001600160a01b031916331790556101a1565b60006020828403121561017a578081fd5b5051919050565b60008261019c57634e487b7160e01b81526012600452602481fd5b500490565b6104e7806101b06000396000f3fe608060405234801561001057600080fd5b50600436106100935760003560e01c80638da5cb5b116100665780638da5cb5b1461010f5780638ea875f314610122578063a68fee871461012b578063a6f19c841461013e578063fc0c546a1461015157600080fd5b8063083380b61461009857806316f0115b146100be578063313c06a0146100e957806374baa655146100fc575b600080fd5b6100ab6100a63660046103fe565b610164565b6040519081526020015b60405180910390f35b6000546100d1906001600160a01b031681565b6040516001600160a01b0390911681526020016100b5565b6003546100d1906001600160a01b031681565b6004546100d1906001600160a01b031681565b6007546100d1906001600160a01b031681565b6100ab60055481565b6006546100d1906001600160a01b031681565b6002546100d1906001600160a01b031681565b6001546100d1906001600160a01b031681565b6006546000906001600160a01b031633148061018a57506007546001600160a01b031633145b6101db5760405162461bcd60e51b815260206004820152601760248201527f4f6e6c7920666f7220416c67656d206f72206f776e657200000000000000000060448201526064015b60405180910390fd5b6001600160a01b0382166102265760405162461bcd60e51b81526020600482015260126024820152712d32b9379030b2323932b9b99032b93937b960711b60448201526064016101d2565b6003546040516370a0823160e01b81526001600160a01b03848116600483015260009216906370a082319060240160206040518083038186803b15801561026c57600080fd5b505afa158015610280573d6000803e3d6000fd5b505050506040513d601f19601f820116820180604052508101906102a4919061042c565b6002546040516370a0823160e01b81526001600160a01b038681166004830152929350600092909116906370a082319060240160206040518083038186803b1580156102ef57600080fd5b505afa158015610303573d6000803e3d6000fd5b505050506040513d601f19601f82011682018060405250810190610327919061042c565b60048054600080546040516370a0823160e01b81526001600160a01b03918216948101949094529394509216906370a082319060240160206040518083038186803b15801561037557600080fd5b505afa158015610389573d6000803e3d6000fd5b505050506040513d601f19601f820116820180604052508101906103ad919061042c565b6000549091506001600160a01b0316316103c78282610444565b60055483906103d68688610444565b6103e0919061047c565b6103ea919061047c565b6103f4919061045c565b9695505050505050565b60006020828403121561040f578081fd5b81356001600160a01b0381168114610425578182fd5b9392505050565b60006020828403121561043d578081fd5b5051919050565b600082198211156104575761045761049b565b500190565b60008261047757634e487b7160e01b81526012600452602481fd5b500490565b60008160001904831182151516156104965761049661049b565b500290565b634e487b7160e01b600052601160045260246000fdfea2646970667358221220da8e31c4ca62a341c89575a84f895d32cf7523dea4fa91786d9674f8282524dd64736f6c63430008040033",
    "linkReferences": {}
  },
  "methodIdentifiers": {
    "calc(address)": "083380b6",
    "gauge()": "a6f19c84",
    "liquid()": "a68fee87",
    "lp()": "313c06a0",
    "nToken()": "74baa655",
    "owner()": "8da5cb5b",
    "pool()": "16f0115b",
    "token()": "fc0c546a",
    "virtualPrice()": "8ea875f3"
  },
  "id": 1
}