{
  "abi": [
    {
      "inputs": [
        {
          "internalType": "contract IPool",
          "name": "_pool",
          "type": "address"
        },
        {
          "internalType": "contract IToken",
          "name": "_lp",
          "type": "address"
        },
        {
          "internalType": "contract IToken",
          "name": "_gauge",
          "type": "address"
        },
        {
          "internalType": "address",
          "name": "_nToken",
          "type": "address"
        },
        {
          "internalType": "address",
          "name": "_token",
          "type": "address"
        },
        {
          "internalType": "address",
          "name": "_liquid",
          "type": "address"
        }
      ],
      "stateMutability": "nonpayable",
      "type": "constructor"
    },
    {
      "inputs": [
        {
          "internalType": "address",
          "name": "_user",
          "type": "address"
        }
      ],
      "name": "calc",
      "outputs": [
        {
          "internalType": "uint256",
          "name": "",
          "type": "uint256"
        }
      ],
      "stateMutability": "view",
      "type": "function"
    },
    {
      "inputs": [],
      "name": "gauge",
      "outputs": [
        {
          "internalType": "contract IToken",
          "name": "",
          "type": "address"
        }
      ],
      "stateMutability": "view",
      "type": "function"
    },
    {
      "inputs": [],
      "name": "idxNtoken",
      "outputs": [
        {
          "internalType": "uint8",
          "name": "",
          "type": "uint8"
        }
      ],
      "stateMutability": "view",
      "type": "function"
    },
    {
      "inputs": [],
      "name": "idxToken",
      "outputs": [
        {
          "internalType": "uint8",
          "name": "",
          "type": "uint8"
        }
      ],
      "stateMutability": "view",
      "type": "function"
    },
    {
      "inputs": [],
      "name": "lp",
      "outputs": [
        {
          "internalType": "contract IToken",
          "name": "",
          "type": "address"
        }
      ],
      "stateMutability": "view",
      "type": "function"
    },
    {
      "inputs": [],
      "name": "nToken",
      "outputs": [
        {
          "internalType": "address",
          "name": "",
          "type": "address"
        }
      ],
      "stateMutability": "view",
      "type": "function"
    },
    {
      "inputs": [],
      "name": "owner",
      "outputs": [
        {
          "internalType": "address",
          "name": "",
          "type": "address"
        }
      ],
      "stateMutability": "view",
      "type": "function"
    },
    {
      "inputs": [],
      "name": "pool",
      "outputs": [
        {
          "internalType": "contract IPool",
          "name": "",
          "type": "address"
        }
      ],
      "stateMutability": "view",
      "type": "function"
    },
    {
      "inputs": [],
      "name": "token",
      "outputs": [
        {
          "internalType": "address",
          "name": "",
          "type": "address"
        }
      ],
      "stateMutability": "view",
      "type": "function"
    }
  ],
  "bytecode": {
    "object": "0x608060405234801561001057600080fd5b5060405161090f38038061090f83398101604081905261002f916101ec565b600080546001600160a01b038881166001600160a01b03199283168117909355600180548983169084161790556002805488831690841617905560038054878316908416811790915560048054928716929093169190911782556040516319b02f4960e21b8152918201526366c0bd249060240160206040518083038186803b1580156100bb57600080fd5b505afa1580156100cf573d6000803e3d6000fd5b505050506040513d601f19601f820116820180604052508101906100f39190610272565b6004805460ff92909216600160a01b0260ff60a01b198316811782556000546040516319b02f4960e21b81526001600160a01b03928316948316949094179284019290925216906366c0bd249060240160206040518083038186803b15801561015b57600080fd5b505afa15801561016f573d6000803e3d6000fd5b505050506040513d601f19601f820116820180604052508101906101939190610272565b6004805460ff92909216600160a81b0260ff60a81b19909216919091179055600680546001600160a01b03199081163317909155600580546001600160a01b039390931692909116919091179055506102b29350505050565b60008060008060008060c08789031215610204578182fd5b865161020f8161029a565b60208801519096506102208161029a565b60408801519095506102318161029a565b60608801519094506102428161029a565b60808801519093506102538161029a565b60a08801519092506102648161029a565b809150509295509295509295565b600060208284031215610283578081fd5b815160ff81168114610293578182fd5b9392505050565b6001600160a01b03811681146102af57600080fd5b50565b61064e806102c16000396000f3fe608060405234801561001057600080fd5b50600436106100935760003560e01c806374baa6551161006657806374baa655146101225780638da5cb5b146101355780639efac08514610148578063a6f19c841461015c578063fc0c546a1461016f57600080fd5b8063083380b61461009857806316f0115b146100be5780631b06a66c146100e9578063313c06a01461010f575b600080fd5b6100ab6100a6366004610565565b610182565b6040519081526020015b60405180910390f35b6000546100d1906001600160a01b031681565b6040516001600160a01b0390911681526020016100b5565b6004546100fd90600160a81b900460ff1681565b60405160ff90911681526020016100b5565b6001546100d1906001600160a01b031681565b6003546100d1906001600160a01b031681565b6006546100d1906001600160a01b031681565b6004546100fd90600160a01b900460ff1681565b6002546100d1906001600160a01b031681565b6004546100d1906001600160a01b031681565b6005546000906001600160a01b03163314806101a857506006546001600160a01b031633145b6101f95760405162461bcd60e51b815260206004820152601760248201527f4f6e6c7920666f7220416c67656d206f72206f776e657200000000000000000060448201526064015b60405180910390fd5b6001600160a01b0382166102445760405162461bcd60e51b81526020600482015260126024820152712d32b9379030b2323932b9b99032b93937b960711b60448201526064016101f0565b6001546040516370a0823160e01b81526001600160a01b03848116600483015260009283929116906370a082319060240160206040518083038186803b15801561028d57600080fd5b505afa1580156102a1573d6000803e3d6000fd5b505050506040513d601f19601f820116820180604052508101906102c59190610593565b6002546040516370a0823160e01b81526001600160a01b038781166004830152929350600092909116906370a082319060240160206040518083038186803b15801561031057600080fd5b505afa158015610324573d6000803e3d6000fd5b505050506040513d601f19601f820116820180604052508101906103489190610593565b90506000670de0b6b3a764000060008054906101000a90046001600160a01b03166001600160a01b031663e25aa5fa6040518163ffffffff1660e01b815260040160206040518083038186803b1580156103a157600080fd5b505afa1580156103b5573d6000803e3d6000fd5b505050506040513d601f19601f820116820180604052508101906103d99190610593565b6103e391906105c3565b60008054600480546040516391ceb3eb60e01b8152600160a01b90910460ff169181019190915292935090916001600160a01b03909116906391ceb3eb9060240160206040518083038186803b15801561043c57600080fd5b505afa158015610450573d6000803e3d6000fd5b505050506040513d601f19601f820116820180604052508101906104749190610593565b60008054600480546040516391ceb3eb60e01b8152600160a81b90910460ff169181019190915292935090916001600160a01b03909116906391ceb3eb9060240160206040518083038186803b1580156104cd57600080fd5b505afa1580156104e1573d6000803e3d6000fd5b505050506040513d601f19601f820116820180604052508101906105059190610593565b9050811580610512575080155b1561052557506000979650505050505050565b61052f82826105ab565b828461053b87896105ab565b61054591906105e3565b61054f91906105e3565b61055991906105c3565b98975050505050505050565b600060208284031215610576578081fd5b81356001600160a01b038116811461058c578182fd5b9392505050565b6000602082840312156105a4578081fd5b5051919050565b600082198211156105be576105be610602565b500190565b6000826105de57634e487b7160e01b81526012600452602481fd5b500490565b60008160001904831182151516156105fd576105fd610602565b500290565b634e487b7160e01b600052601160045260246000fdfea264697066735822122058ecf545dbb80cff7106187980bd8ccea9999df9d83823e5c79549ef7694dbb664736f6c63430008040033",
    "linkReferences": {}
  },
  "methodIdentifiers": {
    "calc(address)": "083380b6",
    "gauge()": "a6f19c84",
    "idxNtoken()": "9efac085",
    "idxToken()": "1b06a66c",
    "lp()": "313c06a0",
    "nToken()": "74baa655",
    "owner()": "8da5cb5b",
    "pool()": "16f0115b",
    "token()": "fc0c546a"
  },
  "id": 5
}