{
  "abi": [
    {
      "inputs": [],
      "stateMutability": "nonpayable",
      "type": "constructor"
    },
    {
      "anonymous": false,
      "inputs": [
        {
          "indexed": true,
          "internalType": "address",
          "name": "owner",
          "type": "address"
        },
        {
          "indexed": true,
          "internalType": "address",
          "name": "approved",
          "type": "address"
        },
        {
          "indexed": true,
          "internalType": "uint256",
          "name": "tokenId",
          "type": "uint256"
        }
      ],
      "name": "Approval",
      "type": "event"
    },
    {
      "anonymous": false,
      "inputs": [
        {
          "indexed": true,
          "internalType": "address",
          "name": "owner",
          "type": "address"
        },
        {
          "indexed": true,
          "internalType": "address",
          "name": "operator",
          "type": "address"
        },
        {
          "indexed": false,
          "internalType": "bool",
          "name": "approved",
          "type": "bool"
        }
      ],
      "name": "ApprovalForAll",
      "type": "event"
    },
    {
      "anonymous": false,
      "inputs": [
        {
          "indexed": false,
          "internalType": "uint8",
          "name": "version",
          "type": "uint8"
        }
      ],
      "name": "Initialized",
      "type": "event"
    },
    {
      "anonymous": false,
      "inputs": [
        {
          "indexed": false,
          "internalType": "address",
          "name": "account",
          "type": "address"
        }
      ],
      "name": "Paused",
      "type": "event"
    },
    {
      "anonymous": false,
      "inputs": [
        {
          "indexed": true,
          "internalType": "bytes32",
          "name": "role",
          "type": "bytes32"
        },
        {
          "indexed": true,
          "internalType": "bytes32",
          "name": "previousAdminRole",
          "type": "bytes32"
        },
        {
          "indexed": true,
          "internalType": "bytes32",
          "name": "newAdminRole",
          "type": "bytes32"
        }
      ],
      "name": "RoleAdminChanged",
      "type": "event"
    },
    {
      "anonymous": false,
      "inputs": [
        {
          "indexed": true,
          "internalType": "bytes32",
          "name": "role",
          "type": "bytes32"
        },
        {
          "indexed": true,
          "internalType": "address",
          "name": "account",
          "type": "address"
        },
        {
          "indexed": true,
          "internalType": "address",
          "name": "sender",
          "type": "address"
        }
      ],
      "name": "RoleGranted",
      "type": "event"
    },
    {
      "anonymous": false,
      "inputs": [
        {
          "indexed": true,
          "internalType": "bytes32",
          "name": "role",
          "type": "bytes32"
        },
        {
          "indexed": true,
          "internalType": "address",
          "name": "account",
          "type": "address"
        },
        {
          "indexed": true,
          "internalType": "address",
          "name": "sender",
          "type": "address"
        }
      ],
      "name": "RoleRevoked",
      "type": "event"
    },
    {
      "anonymous": false,
      "inputs": [
        {
          "indexed": true,
          "internalType": "address",
          "name": "from",
          "type": "address"
        },
        {
          "indexed": true,
          "internalType": "address",
          "name": "to",
          "type": "address"
        },
        {
          "indexed": true,
          "internalType": "uint256",
          "name": "tokenId",
          "type": "uint256"
        }
      ],
      "name": "Transfer",
      "type": "event"
    },
    {
      "anonymous": false,
      "inputs": [
        {
          "indexed": false,
          "internalType": "address",
          "name": "account",
          "type": "address"
        }
      ],
      "name": "Unpaused",
      "type": "event"
    },
    {
      "inputs": [],
      "name": "DEFAULT_ADMIN_ROLE",
      "outputs": [
        {
          "internalType": "bytes32",
          "name": "",
          "type": "bytes32"
        }
      ],
      "stateMutability": "view",
      "type": "function"
    },
    {
      "inputs": [],
      "name": "MANAGER_ROLE",
      "outputs": [
        {
          "internalType": "bytes32",
          "name": "",
          "type": "bytes32"
        }
      ],
      "stateMutability": "view",
      "type": "function"
    },
    {
      "inputs": [],
      "name": "MINTER_ROLE",
      "outputs": [
        {
          "internalType": "bytes32",
          "name": "",
          "type": "bytes32"
        }
      ],
      "stateMutability": "view",
      "type": "function"
    },
    {
      "inputs": [],
      "name": "PAUSER_ROLE",
      "outputs": [
        {
          "internalType": "bytes32",
          "name": "",
          "type": "bytes32"
        }
      ],
      "stateMutability": "view",
      "type": "function"
    },
    {
      "inputs": [
        {
          "internalType": "address",
          "name": "account",
          "type": "address"
        }
      ],
      "name": "addManager",
      "outputs": [],
      "stateMutability": "nonpayable",
      "type": "function"
    },
    {
      "inputs": [
        {
          "internalType": "address",
          "name": "to",
          "type": "address"
        },
        {
          "internalType": "uint256",
          "name": "tokenId",
          "type": "uint256"
        }
      ],
      "name": "approve",
      "outputs": [],
      "stateMutability": "nonpayable",
      "type": "function"
    },
    {
      "inputs": [
        {
          "internalType": "address",
          "name": "owner",
          "type": "address"
        }
      ],
      "name": "balanceOf",
      "outputs": [
        {
          "internalType": "uint256",
          "name": "",
          "type": "uint256"
        }
      ],
      "stateMutability": "view",
      "type": "function"
    },
    {
      "inputs": [
        {
          "internalType": "uint256",
          "name": "_tokenId",
          "type": "uint256"
        }
      ],
      "name": "burn",
      "outputs": [],
      "stateMutability": "nonpayable",
      "type": "function"
    },
    {
      "inputs": [
        {
          "internalType": "uint256",
          "name": "_maxSupply",
          "type": "uint256"
        }
      ],
      "name": "changeMaxSupply",
      "outputs": [],
      "stateMutability": "nonpayable",
      "type": "function"
    },
    {
      "inputs": [
        {
          "internalType": "uint256",
          "name": "tokenId",
          "type": "uint256"
        }
      ],
      "name": "getApproved",
      "outputs": [
        {
          "internalType": "address",
          "name": "",
          "type": "address"
        }
      ],
      "stateMutability": "view",
      "type": "function"
    },
    {
      "inputs": [
        {
          "internalType": "bytes32",
          "name": "role",
          "type": "bytes32"
        }
      ],
      "name": "getRoleAdmin",
      "outputs": [
        {
          "internalType": "bytes32",
          "name": "",
          "type": "bytes32"
        }
      ],
      "stateMutability": "view",
      "type": "function"
    },
    {
      "inputs": [
        {
          "internalType": "bytes32",
          "name": "role",
          "type": "bytes32"
        },
        {
          "internalType": "uint256",
          "name": "index",
          "type": "uint256"
        }
      ],
      "name": "getRoleMember",
      "outputs": [
        {
          "internalType": "address",
          "name": "",
          "type": "address"
        }
      ],
      "stateMutability": "view",
      "type": "function"
    },
    {
      "inputs": [
        {
          "internalType": "bytes32",
          "name": "role",
          "type": "bytes32"
        }
      ],
      "name": "getRoleMemberCount",
      "outputs": [
        {
          "internalType": "uint256",
          "name": "",
          "type": "uint256"
        }
      ],
      "stateMutability": "view",
      "type": "function"
    },
    {
      "inputs": [
        {
          "internalType": "bytes32",
          "name": "role",
          "type": "bytes32"
        },
        {
          "internalType": "address",
          "name": "account",
          "type": "address"
        }
      ],
      "name": "grantRole",
      "outputs": [],
      "stateMutability": "nonpayable",
      "type": "function"
    },
    {
      "inputs": [
        {
          "internalType": "bytes32",
          "name": "role",
          "type": "bytes32"
        },
        {
          "internalType": "address",
          "name": "account",
          "type": "address"
        }
      ],
      "name": "hasRole",
      "outputs": [
        {
          "internalType": "bool",
          "name": "",
          "type": "bool"
        }
      ],
      "stateMutability": "view",
      "type": "function"
    },
    {
      "inputs": [
        {
          "internalType": "address",
          "name": "account",
          "type": "address"
        }
      ],
      "name": "haveTokens",
      "outputs": [
        {
          "internalType": "bool",
          "name": "",
          "type": "bool"
        }
      ],
      "stateMutability": "view",
      "type": "function"
    },
    {
      "inputs": [
        {
          "internalType": "uint256",
          "name": "",
          "type": "uint256"
        }
      ],
      "name": "idToType",
      "outputs": [
        {
          "internalType": "enum AlgemLiquidStakingDiscount.TokenType",
          "name": "",
          "type": "uint8"
        }
      ],
      "stateMutability": "view",
      "type": "function"
    },
    {
      "inputs": [
        {
          "internalType": "string",
          "name": "name",
          "type": "string"
        },
        {
          "internalType": "string",
          "name": "symbol",
          "type": "string"
        },
        {
          "internalType": "string",
          "name": "baseTokenURI",
          "type": "string"
        }
      ],
      "name": "initialize",
      "outputs": [],
      "stateMutability": "nonpayable",
      "type": "function"
    },
    {
      "inputs": [],
      "name": "initialized",
      "outputs": [
        {
          "internalType": "bool",
          "name": "",
          "type": "bool"
        }
      ],
      "stateMutability": "view",
      "type": "function"
    },
    {
      "inputs": [
        {
          "internalType": "address",
          "name": "owner",
          "type": "address"
        },
        {
          "internalType": "address",
          "name": "operator",
          "type": "address"
        }
      ],
      "name": "isApprovedForAll",
      "outputs": [
        {
          "internalType": "bool",
          "name": "",
          "type": "bool"
        }
      ],
      "stateMutability": "view",
      "type": "function"
    },
    {
      "inputs": [],
      "name": "maxSupply",
      "outputs": [
        {
          "internalType": "uint256",
          "name": "",
          "type": "uint256"
        }
      ],
      "stateMutability": "view",
      "type": "function"
    },
    {
      "inputs": [
        {
          "internalType": "address",
          "name": "to",
          "type": "address"
        },
        {
          "internalType": "enum AlgemLiquidStakingDiscount.TokenType",
          "name": "_type",
          "type": "uint8"
        }
      ],
      "name": "mint",
      "outputs": [],
      "stateMutability": "nonpayable",
      "type": "function"
    },
    {
      "inputs": [
        {
          "internalType": "address",
          "name": "to",
          "type": "address"
        }
      ],
      "name": "mint",
      "outputs": [],
      "stateMutability": "nonpayable",
      "type": "function"
    },
    {
      "inputs": [
        {
          "internalType": "address[]",
          "name": "accounts",
          "type": "address[]"
        },
        {
          "internalType": "enum AlgemLiquidStakingDiscount.TokenType",
          "name": "_type",
          "type": "uint8"
        }
      ],
      "name": "mintBatch",
      "outputs": [],
      "stateMutability": "nonpayable",
      "type": "function"
    },
    {
      "inputs": [],
      "name": "name",
      "outputs": [
        {
          "internalType": "string",
          "name": "",
          "type": "string"
        }
      ],
      "stateMutability": "view",
      "type": "function"
    },
    {
      "inputs": [],
      "name": "nftDistr",
      "outputs": [
        {
          "internalType": "contract NFTDistributor",
          "name": "",
          "type": "address"
        }
      ],
      "stateMutability": "view",
      "type": "function"
    },
    {
      "inputs": [
        {
          "internalType": "uint256",
          "name": "tokenId",
          "type": "uint256"
        }
      ],
      "name": "ownerOf",
      "outputs": [
        {
          "internalType": "address",
          "name": "",
          "type": "address"
        }
      ],
      "stateMutability": "view",
      "type": "function"
    },
    {
      "inputs": [],
      "name": "pause",
      "outputs": [],
      "stateMutability": "nonpayable",
      "type": "function"
    },
    {
      "inputs": [],
      "name": "paused",
      "outputs": [
        {
          "internalType": "bool",
          "name": "",
          "type": "bool"
        }
      ],
      "stateMutability": "view",
      "type": "function"
    },
    {
      "inputs": [
        {
          "internalType": "address",
          "name": "account",
          "type": "address"
        }
      ],
      "name": "removeManager",
      "outputs": [],
      "stateMutability": "nonpayable",
      "type": "function"
    },
    {
      "inputs": [
        {
          "internalType": "bytes32",
          "name": "role",
          "type": "bytes32"
        },
        {
          "internalType": "address",
          "name": "account",
          "type": "address"
        }
      ],
      "name": "renounceRole",
      "outputs": [],
      "stateMutability": "nonpayable",
      "type": "function"
    },
    {
      "inputs": [
        {
          "internalType": "bytes32",
          "name": "role",
          "type": "bytes32"
        },
        {
          "internalType": "address",
          "name": "account",
          "type": "address"
        }
      ],
      "name": "revokeRole",
      "outputs": [],
      "stateMutability": "nonpayable",
      "type": "function"
    },
    {
      "inputs": [
        {
          "internalType": "address",
          "name": "from",
          "type": "address"
        },
        {
          "internalType": "address",
          "name": "to",
          "type": "address"
        },
        {
          "internalType": "uint256",
          "name": "tokenId",
          "type": "uint256"
        }
      ],
      "name": "safeTransferFrom",
      "outputs": [],
      "stateMutability": "nonpayable",
      "type": "function"
    },
    {
      "inputs": [
        {
          "internalType": "address",
          "name": "from",
          "type": "address"
        },
        {
          "internalType": "address",
          "name": "to",
          "type": "address"
        },
        {
          "internalType": "uint256",
          "name": "tokenId",
          "type": "uint256"
        },
        {
          "internalType": "bytes",
          "name": "data",
          "type": "bytes"
        }
      ],
      "name": "safeTransferFrom",
      "outputs": [],
      "stateMutability": "nonpayable",
      "type": "function"
    },
    {
      "inputs": [
        {
          "internalType": "address",
          "name": "operator",
          "type": "address"
        },
        {
          "internalType": "bool",
          "name": "approved",
          "type": "bool"
        }
      ],
      "name": "setApprovalForAll",
      "outputs": [],
      "stateMutability": "nonpayable",
      "type": "function"
    },
    {
      "inputs": [
        {
          "internalType": "enum AlgemLiquidStakingDiscount.TokenType",
          "name": "_type",
          "type": "uint8"
        },
        {
          "internalType": "string",
          "name": "_uri",
          "type": "string"
        }
      ],
      "name": "setTypeURI",
      "outputs": [],
      "stateMutability": "nonpayable",
      "type": "function"
    },
    {
      "inputs": [
        {
          "internalType": "bytes4",
          "name": "interfaceId",
          "type": "bytes4"
        }
      ],
      "name": "supportsInterface",
      "outputs": [
        {
          "internalType": "bool",
          "name": "",
          "type": "bool"
        }
      ],
      "stateMutability": "view",
      "type": "function"
    },
    {
      "inputs": [],
      "name": "symbol",
      "outputs": [
        {
          "internalType": "string",
          "name": "",
          "type": "string"
        }
      ],
      "stateMutability": "view",
      "type": "function"
    },
    {
      "inputs": [
        {
          "internalType": "uint256",
          "name": "index",
          "type": "uint256"
        }
      ],
      "name": "tokenByIndex",
      "outputs": [
        {
          "internalType": "uint256",
          "name": "",
          "type": "uint256"
        }
      ],
      "stateMutability": "view",
      "type": "function"
    },
    {
      "inputs": [
        {
          "internalType": "address",
          "name": "owner",
          "type": "address"
        },
        {
          "internalType": "uint256",
          "name": "index",
          "type": "uint256"
        }
      ],
      "name": "tokenOfOwnerByIndex",
      "outputs": [
        {
          "internalType": "uint256",
          "name": "",
          "type": "uint256"
        }
      ],
      "stateMutability": "view",
      "type": "function"
    },
    {
      "inputs": [
        {
          "internalType": "uint256",
          "name": "id",
          "type": "uint256"
        }
      ],
      "name": "tokenURI",
      "outputs": [
        {
          "internalType": "string",
          "name": "",
          "type": "string"
        }
      ],
      "stateMutability": "view",
      "type": "function"
    },
    {
      "inputs": [],
      "name": "totalSupply",
      "outputs": [
        {
          "internalType": "uint256",
          "name": "",
          "type": "uint256"
        }
      ],
      "stateMutability": "view",
      "type": "function"
    },
    {
      "inputs": [
        {
          "internalType": "address",
          "name": "from",
          "type": "address"
        },
        {
          "internalType": "address",
          "name": "to",
          "type": "address"
        },
        {
          "internalType": "uint256",
          "name": "tokenId",
          "type": "uint256"
        }
      ],
      "name": "transferFrom",
      "outputs": [],
      "stateMutability": "nonpayable",
      "type": "function"
    },
    {
      "inputs": [
        {
          "internalType": "enum AlgemLiquidStakingDiscount.TokenType",
          "name": "",
          "type": "uint8"
        }
      ],
      "name": "typeToURI",
      "outputs": [
        {
          "internalType": "string",
          "name": "",
          "type": "string"
        }
      ],
      "stateMutability": "view",
      "type": "function"
    },
    {
      "inputs": [],
      "name": "unpause",
      "outputs": [],
      "stateMutability": "nonpayable",
      "type": "function"
    },
    {
      "inputs": [],
      "name": "utilName",
      "outputs": [
        {
          "internalType": "string",
          "name": "",
          "type": "string"
        }
      ],
      "stateMutability": "view",
      "type": "function"
    }
  ],
  "bytecode": {
    "object": "0x60806040523480156200001157600080fd5b506200001c62000022565b620000e4565b600054610100900460ff16156200008f5760405162461bcd60e51b815260206004820152602760248201527f496e697469616c697a61626c653a20636f6e747261637420697320696e697469604482015266616c697a696e6760c81b606482015260840160405180910390fd5b60005460ff9081161015620000e2576000805460ff191660ff9081179091556040519081527f7f26b83ff96e1f2b6a682f133852f6798a09c465da95921460cefb38474024989060200160405180910390a15b565b61316c80620000f46000396000f3fe608060405234801561001057600080fd5b506004361061028a5760003560e01c80638456cb591161015c578063c71bc893116100ce578063e45b907d11610087578063e45b907d1461057e578063e63ab1e914610591578063e985e9c5146105a6578063ec87621c146105e2578063eed89142146105f7578063f4797d221461060a57600080fd5b8063c71bc89314610513578063c87b56dd14610526578063ca15c87314610539578063d53913931461054c578063d547741f14610561578063d5abeb011461057457600080fd5b8063a22cb46511610120578063a22cb465146104ab578063a6487c53146104be578063ab486929146104d1578063ac18de43146104d9578063b88d4fde146104ec578063bd1bbd3b146104ff57600080fd5b80638456cb591461046d5780639010d07c1461047557806391d148541461048857806395d89b411461049b578063a217fddf146104a357600080fd5b806336568abe116102005780635c975abb116101b95780635c975abb146104025780636352211e1461040e578063691562a0146104215780636a6278421461043457806370a082311461044757806370b8d88d1461045a57600080fd5b806336568abe1461039b5780633f4ba83a146103ae578063404c7cdd146103b657806342842e0e146103c957806342966c68146103dc5780634f6ccce7146103ef57600080fd5b806318160ddd1161025257806318160ddd1461031a57806323b872dd1461032c578063248a9ca31461033f5780632d06177a146103625780632f2ff15d146103755780632f745c591461038857600080fd5b806301ffc9a71461028f57806306fdde03146102b7578063081812fc146102cc578063095ea7b3146102f7578063158ef93e1461030c575b600080fd5b6102a261029d366004612b46565b61063b565b60405190151581526020015b60405180910390f35b6102bf61064c565b6040516102ae9190612d6e565b6102df6102da366004612aeb565b6106de565b6040516001600160a01b0390911681526020016102ae565b61030a610305366004612a01565b610705565b005b6101f8546102a29060ff1681565b60fd545b6040519081526020016102ae565b61030a61033a3660046128ea565b610820565b61031e61034d366004612aeb565b60009081526065602052604090206001015490565b61030a61037036600461289e565b610851565b61030a610383366004612b03565b610878565b61031e610396366004612a01565b61089d565b61030a6103a9366004612b03565b610933565b61030a6109ad565b61030a6103c4366004612aeb565b610a43565b61030a6103d73660046128ea565b610aad565b61030a6103ea366004612aeb565b610ac8565b61031e6103fd366004612aeb565b610b03565b61015f5460ff166102a2565b6102df61041c366004612aeb565b610ba4565b61030a61042f3660046129d8565b610c04565b61030a61044236600461289e565b610d2a565b61031e61045536600461289e565b610dd9565b61030a610468366004612a2a565b610e5f565b61030a610f2b565b6102df610483366004612b25565b610fbd565b6102a2610496366004612b03565b610fdc565b6102bf611007565b61031e600081565b61030a6104b936600461299e565b611016565b61030a6104cc366004612be4565b611021565b6102bf61112b565b61030a6104e736600461289e565b6111ba565b61030a6104fa366004612925565b6111dd565b6101f5546102df906001600160a01b031681565b6102bf610521366004612b7e565b61120f565b6102bf610534366004612aeb565b611229565b61031e610547366004612aeb565b61137c565b61031e60008051602061311783398151915281565b61030a61056f366004612b03565b611393565b61031e6101f75481565b6102a261058c36600461289e565b611405565b61031e6000805160206130f783398151915281565b6102a26105b43660046128b8565b6001600160a01b03918216600090815260ce6020908152604080832093909416825291909152205460ff1690565b61031e6000805160206130d783398151915281565b61030a610605366004612b98565b611418565b61062e610618366004612aeb565b6101f96020526000908152604090205460ff1681565b6040516102ae9190612d46565b600061064682611496565b92915050565b606060c9805461065b90613059565b80601f016020809104026020016040519081016040528092919081815260200182805461068790613059565b80156106d45780601f106106a9576101008083540402835291602001916106d4565b820191906000526020600020905b8154815290600101906020018083116106b757829003601f168201915b5050505050905090565b60006106e9826114bb565b50600090815260cd60205260409020546001600160a01b031690565b600061071082610ba4565b9050806001600160a01b0316836001600160a01b031614156107835760405162461bcd60e51b815260206004820152602160248201527f4552433732313a20617070726f76616c20746f2063757272656e74206f776e656044820152603960f91b60648201526084015b60405180910390fd5b336001600160a01b038216148061079f575061079f81336105b4565b6108115760405162461bcd60e51b815260206004820152603e60248201527f4552433732313a20617070726f76652063616c6c6572206973206e6f7420746f60448201527f6b656e206f776e6572206e6f7220617070726f76656420666f7220616c6c0000606482015260840161077a565b61081b838361151a565b505050565b61082a3382611588565b6108465760405162461bcd60e51b815260040161077a90612f49565b61081b838383611607565b600061085c816117ae565b6108746000805160206130d7833981519152836117b8565b5050565b600082815260656020526040902060010154610893816117ae565b61081b83836117b8565b60006108a883610dd9565b821061090a5760405162461bcd60e51b815260206004820152602b60248201527f455243373231456e756d657261626c653a206f776e657220696e646578206f7560448201526a74206f6620626f756e647360a81b606482015260840161077a565b506001600160a01b0391909116600090815260fb60209081526040808320938352929052205490565b6001600160a01b03811633146109a35760405162461bcd60e51b815260206004820152602f60248201527f416363657373436f6e74726f6c3a2063616e206f6e6c792072656e6f756e636560448201526e103937b632b9903337b91039b2b63360891b606482015260840161077a565b61087482826117da565b6109c56000805160206130f783398151915233610fdc565b610a39576040805162461bcd60e51b81526020600482015260248101919091527f4552433732315072657365744d696e7465725061757365724175746f49643a2060448201527f6d75737420686176652070617573657220726f6c6520746f20756e7061757365606482015260840161077a565b610a416117fc565b565b6000805160206130d7833981519152610a5b816117ae565b60fd54821015610aa65760405162461bcd60e51b8152602060048201526016602482015275496e636f727265637420737570706c792076616c756560501b604482015260640161077a565b506101f755565b61081b838383604051806020016040528060008152506111dd565b60405162461bcd60e51b815260206004820152601060248201526f43616e74206275726e20746f6b656e7360801b604482015260640161077a565b6000610b0e60fd5490565b8210610b715760405162461bcd60e51b815260206004820152602c60248201527f455243373231456e756d657261626c653a20676c6f62616c20696e646578206f60448201526b7574206f6620626f756e647360a01b606482015260840161077a565b60fd8281548110610b9257634e487b7160e01b600052603260045260246000fd5b90600052602060002001549050919050565b600081815260cb60205260408120546001600160a01b0316806106465760405162461bcd60e51b8152602060048201526018602482015277115490cdcc8c4e881a5b9d985b1a59081d1bdad95b88125160421b604482015260640161077a565b6101f560009054906101000a90046001600160a01b03166001600160a01b03166368a82ef66040518163ffffffff1660e01b8152600401600060405180830381600087803b158015610c5557600080fd5b505af1158015610c69573d6000803e3d6000fd5b50505050600080516020613117833981519152610c85816117ae565b6101f75460fd5410610ccf5760405162461bcd60e51b8152602060048201526013602482015272151bdad95b881b1a5b5a5d081c995858da1959606a1b604482015260640161077a565b6000610cda60fd5490565b60008181526101f9602052604090208054919250849160ff19166001836003811115610d1657634e487b7160e01b600052602160045260246000fd5b0217905550610d2484610d2a565b50505050565b610d4260008051602061311783398151915233610fdc565b610db45760405162461bcd60e51b815260206004820152603d60248201527f4552433732315072657365744d696e7465725061757365724175746f49643a2060448201527f6d7573742068617665206d696e74657220726f6c6520746f206d696e74000000606482015260840161077a565b610dc781610dc26101c35490565b61184f565b610dd66101c380546001019055565b50565b60006001600160a01b038216610e435760405162461bcd60e51b815260206004820152602960248201527f4552433732313a2061646472657373207a65726f206973206e6f7420612076616044820152683634b21037bbb732b960b91b606482015260840161077a565b506001600160a01b0316600090815260cc602052604090205490565b600080516020613117833981519152610e77816117ae565b82516101f754600182610e8960fd5490565b610e939190612fc8565b610e9d9190612fff565b10610ee05760405162461bcd60e51b8152602060048201526013602482015272151bdad95b881b1a5b5a5d081c995858da1959606a1b604482015260640161077a565b60005b81811015610f2457610f1c858281518110610f0e57634e487b7160e01b600052603260045260246000fd5b602002602001015185610c04565b600101610ee3565b5050505050565b610f436000805160206130f783398151915233610fdc565b610fb55760405162461bcd60e51b815260206004820152603e60248201527f4552433732315072657365744d696e7465725061757365724175746f49643a2060448201527f6d75737420686176652070617573657220726f6c6520746f2070617573650000606482015260840161077a565b610a4161199d565b6000828152609760205260408120610fd590836119db565b9392505050565b60009182526065602090815260408084206001600160a01b0393909316845291905290205460ff1690565b606060ca805461065b90613059565b6108743383836119e7565b600054610100900460ff16158080156110415750600054600160ff909116105b8061105b5750303b15801561105b575060005460ff166001145b6110775760405162461bcd60e51b815260040161077a90612eb0565b6000805460ff19166001179055801561109a576000805461ff0019166101001790555b6110a5848484611ab6565b6110b06000336117b8565b6110c86000805160206130d7833981519152336117b8565b6110e0600080516020613117833981519152336117b8565b8015610d24576000805461ff0019169055604051600181527f7f26b83ff96e1f2b6a682f133852f6798a09c465da95921460cefb38474024989060200160405180910390a150505050565b6101f6805461113990613059565b80601f016020809104026020016040519081016040528092919081815260200182805461116590613059565b80156111b25780601f10611187576101008083540402835291602001916111b2565b820191906000526020600020905b81548152906001019060200180831161119557829003601f168201915b505050505081565b60006111c5816117ae565b6108746000805160206130d7833981519152836117da565b6111e73383611588565b6112035760405162461bcd60e51b815260040161077a90612f49565b610d2484848484611b3a565b6101fa602052600090815260409020805461113990613059565b600081815260cb60205260409020546060906001600160a01b03166112885760405162461bcd60e51b8152602060048201526015602482015274546f6b656e20646f6573206e6f742065786973742160581b604482015260640161077a565b60008281526101f960205260408120546101fa919060ff1660038111156112bf57634e487b7160e01b600052602160045260246000fd5b60038111156112de57634e487b7160e01b600052602160045260246000fd5b815260200190815260200160002080546112f790613059565b80601f016020809104026020016040519081016040528092919081815260200182805461132390613059565b80156113705780601f1061134557610100808354040283529160200191611370565b820191906000526020600020905b81548152906001019060200180831161135357829003601f168201915b50505050509050919050565b600081815260976020526040812061064690611b6d565b6000828152606560205260409020600101546113ae816117ae565b826113fb5760405162461bcd60e51b815260206004820181905260248201527f4e6f7420616c6c6f77656420746f207265766f6b652061646d696e20726f6c65604482015260640161077a565b61081b83836117da565b60008061141183610dd9565b1192915050565b6000805160206130d7833981519152611430816117ae565b816101fa600085600381111561145657634e487b7160e01b600052602160045260246000fd5b600381111561147557634e487b7160e01b600052602160045260246000fd5b81526020019081526020016000209080519060200190610d24929190612763565b60006001600160e01b0319821663780e9d6360e01b1480610646575061064682611b77565b600081815260cb60205260409020546001600160a01b0316610dd65760405162461bcd60e51b8152602060048201526018602482015277115490cdcc8c4e881a5b9d985b1a59081d1bdad95b88125160421b604482015260640161077a565b600081815260cd6020526040902080546001600160a01b0319166001600160a01b038416908117909155819061154f82610ba4565b6001600160a01b03167f8c5be1e5ebec7d5bd14f71427d1e84f3dd0314c0f7b2291e5b200ac8c7c3b92560405160405180910390a45050565b60008061159483610ba4565b9050806001600160a01b0316846001600160a01b031614806115db57506001600160a01b03808216600090815260ce602090815260408083209388168352929052205460ff165b806115ff5750836001600160a01b03166115f4846106de565b6001600160a01b0316145b949350505050565b826001600160a01b031661161a82610ba4565b6001600160a01b03161461167e5760405162461bcd60e51b815260206004820152602560248201527f4552433732313a207472616e736665722066726f6d20696e636f72726563742060448201526437bbb732b960d91b606482015260840161077a565b6001600160a01b0382166116e05760405162461bcd60e51b8152602060048201526024808201527f4552433732313a207472616e7366657220746f20746865207a65726f206164646044820152637265737360e01b606482015260840161077a565b6116eb838383611bb7565b6116f660008261151a565b6001600160a01b038316600090815260cc6020526040812080546001929061171f908490612fff565b90915550506001600160a01b038216600090815260cc6020526040812080546001929061174d908490612fc8565b9091555050600081815260cb602052604080822080546001600160a01b0319166001600160a01b0386811691821790925591518493918716917fddf252ad1be2c89b69c2b068fc378daa952ba7f163c4a11628f55a4df523b3ef91a4505050565b610dd68133611c33565b6117c28282611c97565b600082815260976020526040902061081b9082611d1d565b6117e48282611d32565b600082815260976020526040902061081b9082611d99565b611804611dae565b61015f805460ff191690557f5db9ee0a495bf2e6ff9c91a7834c1ba4fdd244a5e8aa4e537bd38aeae4b073aa335b6040516001600160a01b03909116815260200160405180910390a1565b6001600160a01b0382166118a55760405162461bcd60e51b815260206004820181905260248201527f4552433732313a206d696e7420746f20746865207a65726f2061646472657373604482015260640161077a565b600081815260cb60205260409020546001600160a01b03161561190a5760405162461bcd60e51b815260206004820152601c60248201527f4552433732313a20746f6b656e20616c7265616479206d696e74656400000000604482015260640161077a565b61191660008383611bb7565b6001600160a01b038216600090815260cc6020526040812080546001929061193f908490612fc8565b9091555050600081815260cb602052604080822080546001600160a01b0319166001600160a01b03861690811790915590518392907fddf252ad1be2c89b69c2b068fc378daa952ba7f163c4a11628f55a4df523b3ef908290a45050565b6119a5611df8565b61015f805460ff191660011790557f62e78cea01bee320cd4e420270b5ea74000d11b0c9f74754ebdbfc544b05a2586118323390565b6000610fd58383611e3f565b816001600160a01b0316836001600160a01b03161415611a495760405162461bcd60e51b815260206004820152601960248201527f4552433732313a20617070726f766520746f2063616c6c657200000000000000604482015260640161077a565b6001600160a01b03838116600081815260ce6020908152604080832094871680845294825291829020805460ff191686151590811790915591519182527f17307eab39ab6107e8899845ad3d59bd9653f200f220920489ca2b5937696c31910160405180910390a3505050565b600054610100900460ff1615808015611ad65750600054600160ff909116105b80611af05750303b158015611af0575060005460ff166001145b611b0c5760405162461bcd60e51b815260040161077a90612eb0565b6000805460ff191660011790558015611b2f576000805461ff0019166101001790555b6110e0848484611e77565b611b45848484611607565b611b5184848484611ebb565b610d245760405162461bcd60e51b815260040161077a90612e5e565b6000610646825490565b60006001600160e01b031982166380ac58cd60e01b1480611ba857506001600160e01b03198216635b5e139f60e01b145b80610646575061064682611fc8565b611bc2838383611fed565b6101f55460405163013c282360e31b81526001600160a01b03909116906309e1411890611bfc906101f69087908790600190600401612d81565b600060405180830381600087803b158015611c1657600080fd5b505af1158015611c2a573d6000803e3d6000fd5b50505050505050565b611c3d8282610fdc565b61087457611c55816001600160a01b03166014611ff8565b611c60836020611ff8565b604051602001611c71929190612c94565b60408051601f198184030181529082905262461bcd60e51b825261077a91600401612d6e565b611ca18282610fdc565b6108745760008281526065602090815260408083206001600160a01b03851684529091529020805460ff19166001179055611cd93390565b6001600160a01b0316816001600160a01b0316837f2f8788117e7eff1d82e926ec794901d17c78024a50270940304540a733656f0d60405160405180910390a45050565b6000610fd5836001600160a01b0384166121da565b611d3c8282610fdc565b156108745760008281526065602090815260408083206001600160a01b0385168085529252808320805460ff1916905551339285917ff6391f5c32d9c69d2a47ea670b442974b53935d1edc7fd64eb21e047a839171b9190a45050565b6000610fd5836001600160a01b038416612229565b61015f5460ff16610a415760405162461bcd60e51b815260206004820152601460248201527314185d5cd8589b194e881b9bdd081c185d5cd95960621b604482015260640161077a565b61015f5460ff1615610a415760405162461bcd60e51b815260206004820152601060248201526f14185d5cd8589b194e881c185d5cd95960821b604482015260640161077a565b6000826000018281548110611e6457634e487b7160e01b600052603260045260246000fd5b9060005260206000200154905092915050565b600054610100900460ff16611e9e5760405162461bcd60e51b815260040161077a90612efe565b611ea88383612346565b611eb0612394565b61081b8383836123c8565b60006001600160a01b0384163b15611fbd57604051630a85bd0160e11b81526001600160a01b0385169063150b7a0290611eff903390899088908890600401612d09565b602060405180830381600087803b158015611f1957600080fd5b505af1925050508015611f49575060408051601f3d908101601f19168201909252611f4691810190612b62565b60015b611fa3573d808015611f77576040519150601f19603f3d011682016040523d82523d6000602084013e611f7c565b606091505b508051611f9b5760405162461bcd60e51b815260040161077a90612e5e565b805181602001fd5b6001600160e01b031916630a85bd0160e11b1490506115ff565b506001949350505050565b60006001600160e01b03198216635a05180f60e01b148061064657506106468261243f565b61081b838383612474565b60606000612007836002612fe0565b612012906002612fc8565b67ffffffffffffffff81111561203857634e487b7160e01b600052604160045260246000fd5b6040519080825280601f01601f191660200182016040528015612062576020820181803683370190505b509050600360fc1b8160008151811061208b57634e487b7160e01b600052603260045260246000fd5b60200101906001600160f81b031916908160001a905350600f60fb1b816001815181106120c857634e487b7160e01b600052603260045260246000fd5b60200101906001600160f81b031916908160001a90535060006120ec846002612fe0565b6120f7906001612fc8565b90505b600181111561218b576f181899199a1a9b1b9c1cb0b131b232b360811b85600f166010811061213957634e487b7160e01b600052603260045260246000fd5b1a60f81b82828151811061215d57634e487b7160e01b600052603260045260246000fd5b60200101906001600160f81b031916908160001a90535060049490941c9361218481613042565b90506120fa565b508315610fd55760405162461bcd60e51b815260206004820181905260248201527f537472696e67733a20686578206c656e67746820696e73756666696369656e74604482015260640161077a565b600081815260018301602052604081205461222157508154600181810184556000848152602080822090930184905584548482528286019093526040902091909155610646565b506000610646565b6000818152600183016020526040812054801561233c57600061224d600183612fff565b855490915060009061226190600190612fff565b90508181146122e257600086600001828154811061228f57634e487b7160e01b600052603260045260246000fd5b90600052602060002001549050808760000184815481106122c057634e487b7160e01b600052603260045260246000fd5b6000918252602080832090910192909255918252600188019052604090208390555b855486908061230157634e487b7160e01b600052603160045260246000fd5b600190038181906000526020600020016000905590558560010160008681526020019081526020016000206000905560019350505050610646565b6000915050610646565b600054610100900460ff1661236d5760405162461bcd60e51b815260040161077a90612efe565b81516123809060c9906020850190612763565b50805161081b9060ca906020840190612763565b600054610100900460ff166123bb5760405162461bcd60e51b815260040161077a90612efe565b61015f805460ff19169055565b600054610100900460ff166123ef5760405162461bcd60e51b815260040161077a90612efe565b8051612403906101c4906020840190612763565b5061240f6000336124e7565b612427600080516020613117833981519152336124e7565b61081b6000805160206130f7833981519152336124e7565b60006001600160e01b03198216637965db0b60e01b148061064657506301ffc9a760e01b6001600160e01b0319831614610646565b61247f8383836124f1565b61015f5460ff161561081b5760405162461bcd60e51b815260206004820152602b60248201527f4552433732315061757361626c653a20746f6b656e207472616e73666572207760448201526a1a1a5b19481c185d5cd95960aa1b606482015260840161077a565b61087482826117b8565b6001600160a01b03831661254c576125478160fd8054600083815260fe60205260408120829055600182018355919091527f9346ac6dd7de6b96975fec380d4d994c4c12e6a8897544f22915316cc6cca2800155565b61256f565b816001600160a01b0316836001600160a01b03161461256f5761256f83826125a9565b6001600160a01b0382166125865761081b81612646565b826001600160a01b0316826001600160a01b03161461081b5761081b828261271f565b600060016125b684610dd9565b6125c09190612fff565b600083815260fc6020526040902054909150808214612613576001600160a01b038416600090815260fb60209081526040808320858452825280832054848452818420819055835260fc90915290208190555b50600091825260fc602090815260408084208490556001600160a01b03909416835260fb81528383209183525290812055565b60fd5460009061265890600190612fff565b600083815260fe602052604081205460fd805493945090928490811061268e57634e487b7160e01b600052603260045260246000fd5b906000526020600020015490508060fd83815481106126bd57634e487b7160e01b600052603260045260246000fd5b600091825260208083209091019290925582815260fe909152604080822084905585825281205560fd80548061270357634e487b7160e01b600052603160045260246000fd5b6001900381819060005260206000200160009055905550505050565b600061272a83610dd9565b6001600160a01b03909316600090815260fb60209081526040808320868452825280832085905593825260fc9052919091209190915550565b82805461276f90613059565b90600052602060002090601f01602090048101928261279157600085556127d7565b82601f106127aa57805160ff19168380011785556127d7565b828001600101855582156127d7579182015b828111156127d75782518255916020019190600101906127bc565b506127e39291506127e7565b5090565b5b808211156127e357600081556001016127e8565b600067ffffffffffffffff831115612816576128166130aa565b612829601f8401601f1916602001612f97565b905082815283838301111561283d57600080fd5b828260208301376000602084830101529392505050565b80356001600160a01b038116811461286b57600080fd5b919050565b80356004811061286b57600080fd5b600082601f83011261288f578081fd5b610fd5838335602085016127fc565b6000602082840312156128af578081fd5b610fd582612854565b600080604083850312156128ca578081fd5b6128d383612854565b91506128e160208401612854565b90509250929050565b6000806000606084860312156128fe578081fd5b61290784612854565b925061291560208501612854565b9150604084013590509250925092565b6000806000806080858703121561293a578081fd5b61294385612854565b935061295160208601612854565b925060408501359150606085013567ffffffffffffffff811115612973578182fd5b8501601f81018713612983578182fd5b612992878235602084016127fc565b91505092959194509250565b600080604083850312156129b0578182fd5b6129b983612854565b9150602083013580151581146129cd578182fd5b809150509250929050565b600080604083850312156129ea578182fd5b6129f383612854565b91506128e160208401612870565b60008060408385031215612a13578182fd5b612a1c83612854565b946020939093013593505050565b60008060408385031215612a3c578182fd5b823567ffffffffffffffff80821115612a53578384fd5b818501915085601f830112612a66578384fd5b8135602082821115612a7a57612a7a6130aa565b8160051b9250612a8b818401612f97565b8281528181019085830185870184018b1015612aa5578889fd5b8896505b84871015612ace57612aba81612854565b835260019690960195918301918301612aa9565b509650612ade9050878201612870565b9450505050509250929050565b600060208284031215612afc578081fd5b5035919050565b60008060408385031215612b15578182fd5b823591506128e160208401612854565b60008060408385031215612b37578182fd5b50508035926020909101359150565b600060208284031215612b57578081fd5b8135610fd5816130c0565b600060208284031215612b73578081fd5b8151610fd5816130c0565b600060208284031215612b8f578081fd5b610fd582612870565b60008060408385031215612baa578182fd5b612bb383612870565b9150602083013567ffffffffffffffff811115612bce578182fd5b612bda8582860161287f565b9150509250929050565b600080600060608486031215612bf8578081fd5b833567ffffffffffffffff80821115612c0f578283fd5b612c1b8783880161287f565b94506020860135915080821115612c30578283fd5b612c3c8783880161287f565b93506040860135915080821115612c51578283fd5b50612c5e8682870161287f565b9150509250925092565b60008151808452612c80816020860160208601613016565b601f01601f19169290920160200192915050565b7f416363657373436f6e74726f6c3a206163636f756e7420000000000000000000815260008351612ccc816017850160208801613016565b7001034b99036b4b9b9b4b733903937b6329607d1b6017918401918201528351612cfd816028840160208801613016565b01602801949350505050565b6001600160a01b0385811682528416602082015260408101839052608060608201819052600090612d3c90830184612c68565b9695505050505050565b6020810160048310612d6857634e487b7160e01b600052602160045260246000fd5b91905290565b602081526000610fd56020830184612c68565b60808152600080865482600182811c915080831680612da157607f831692505b6020808410821415612dc157634e487b7160e01b87526022600452602487fd5b6080880184905260a08801828015612de05760018114612df157612e1b565b60ff19871682528282019750612e1b565b60008e815260209020895b87811015612e1557815484820152908601908401612dfc565b83019850505b5050859650612e348189018c6001600160a01b03169052565b505050505050612e4f60408301856001600160a01b03169052565b82606083015295945050505050565b60208082526032908201527f4552433732313a207472616e7366657220746f206e6f6e20455243373231526560408201527131b2b4bb32b91034b6b83632b6b2b73a32b960711b606082015260800190565b6020808252602e908201527f496e697469616c697a61626c653a20636f6e747261637420697320616c72656160408201526d191e481a5b9a5d1a585b1a5e995960921b606082015260800190565b6020808252602b908201527f496e697469616c697a61626c653a20636f6e7472616374206973206e6f74206960408201526a6e697469616c697a696e6760a81b606082015260800190565b6020808252602e908201527f4552433732313a2063616c6c6572206973206e6f7420746f6b656e206f776e6560408201526d1c881b9bdc88185c1c1c9bdd995960921b606082015260800190565b604051601f8201601f1916810167ffffffffffffffff81118282101715612fc057612fc06130aa565b604052919050565b60008219821115612fdb57612fdb613094565b500190565b6000816000190483118215151615612ffa57612ffa613094565b500290565b60008282101561301157613011613094565b500390565b60005b83811015613031578181015183820152602001613019565b83811115610d245750506000910152565b60008161305157613051613094565b506000190190565b600181811c9082168061306d57607f821691505b6020821081141561308e57634e487b7160e01b600052602260045260246000fd5b50919050565b634e487b7160e01b600052601160045260246000fd5b634e487b7160e01b600052604160045260246000fd5b6001600160e01b031981168114610dd657600080fdfe241ecf16d79d0f8dbfb92cbc07fe17840425976cf0667f022fe9877caa831b0865d7a28e3265b37a6474929f336521b332c1681b933f6cb9f3376673440d862a9f2df0fed2c77648de5860a4cc508cd0818c85b8b8a1ab4ceeef8d981c8956a6a2646970667358221220d018a0acf30562cc7a518539e49ec1899ee821954f549ce72c71c665b958966e64736f6c63430008040033",
    "linkReferences": {}
  },
  "methodIdentifiers": {
    "DEFAULT_ADMIN_ROLE()": "a217fddf",
    "MANAGER_ROLE()": "ec87621c",
    "MINTER_ROLE()": "d5391393",
    "PAUSER_ROLE()": "e63ab1e9",
    "addManager(address)": "2d06177a",
    "approve(address,uint256)": "095ea7b3",
    "balanceOf(address)": "70a08231",
    "burn(uint256)": "42966c68",
    "changeMaxSupply(uint256)": "404c7cdd",
    "getApproved(uint256)": "081812fc",
    "getRoleAdmin(bytes32)": "248a9ca3",
    "getRoleMember(bytes32,uint256)": "9010d07c",
    "getRoleMemberCount(bytes32)": "ca15c873",
    "grantRole(bytes32,address)": "2f2ff15d",
    "hasRole(bytes32,address)": "91d14854",
    "haveTokens(address)": "e45b907d",
    "idToType(uint256)": "f4797d22",
    "initialize(string,string,string)": "a6487c53",
    "initialized()": "158ef93e",
    "isApprovedForAll(address,address)": "e985e9c5",
    "maxSupply()": "d5abeb01",
    "mint(address)": "6a627842",
    "mint(address,uint8)": "691562a0",
    "mintBatch(address[],uint8)": "70b8d88d",
    "name()": "06fdde03",
    "nftDistr()": "bd1bbd3b",
    "ownerOf(uint256)": "6352211e",
    "pause()": "8456cb59",
    "paused()": "5c975abb",
    "removeManager(address)": "ac18de43",
    "renounceRole(bytes32,address)": "36568abe",
    "revokeRole(bytes32,address)": "d547741f",
    "safeTransferFrom(address,address,uint256)": "42842e0e",
    "safeTransferFrom(address,address,uint256,bytes)": "b88d4fde",
    "setApprovalForAll(address,bool)": "a22cb465",
    "setTypeURI(uint8,string)": "eed89142",
    "supportsInterface(bytes4)": "01ffc9a7",
    "symbol()": "95d89b41",
    "tokenByIndex(uint256)": "4f6ccce7",
    "tokenOfOwnerByIndex(address,uint256)": "2f745c59",
    "tokenURI(uint256)": "c87b56dd",
    "totalSupply()": "18160ddd",
    "transferFrom(address,address,uint256)": "23b872dd",
    "typeToURI(uint8)": "c71bc893",
    "unpause()": "3f4ba83a",
    "utilName()": "ab486929"
  },
  "id": 3
}