{
  "abi": [
    {
      "inputs": [
        {
          "internalType": "contract MockERC20",
          "name": "_arsw",
          "type": "address"
        },
        {
          "internalType": "contract MockERC20",
          "name": "_lp",
          "type": "address"
        }
      ],
      "stateMutability": "nonpayable",
      "type": "constructor"
    },
    {
      "inputs": [],
      "name": "REWARDS_PRECISION",
      "outputs": [
        {
          "internalType": "uint256",
          "name": "",
          "type": "uint256"
        }
      ],
      "stateMutability": "view",
      "type": "function"
    },
    {
      "inputs": [],
      "name": "accRewsPerShare",
      "outputs": [
        {
          "internalType": "uint256",
          "name": "",
          "type": "uint256"
        }
      ],
      "stateMutability": "view",
      "type": "function"
    },
    {
      "inputs": [],
      "name": "arsw",
      "outputs": [
        {
          "internalType": "contract MockERC20",
          "name": "",
          "type": "address"
        }
      ],
      "stateMutability": "view",
      "type": "function"
    },
    {
      "inputs": [
        {
          "internalType": "uint256",
          "name": "pid",
          "type": "uint256"
        },
        {
          "internalType": "uint256",
          "name": "amount",
          "type": "uint256"
        },
        {
          "internalType": "address",
          "name": "to",
          "type": "address"
        }
      ],
      "name": "deposit",
      "outputs": [],
      "stateMutability": "nonpayable",
      "type": "function"
    },
    {
      "inputs": [
        {
          "internalType": "uint256",
          "name": "pid",
          "type": "uint256"
        },
        {
          "internalType": "address",
          "name": "to",
          "type": "address"
        }
      ],
      "name": "harvest",
      "outputs": [],
      "stateMutability": "nonpayable",
      "type": "function"
    },
    {
      "inputs": [],
      "name": "lastBlock",
      "outputs": [
        {
          "internalType": "uint256",
          "name": "",
          "type": "uint256"
        }
      ],
      "stateMutability": "view",
      "type": "function"
    },
    {
      "inputs": [],
      "name": "lp",
      "outputs": [
        {
          "internalType": "contract MockERC20",
          "name": "",
          "type": "address"
        }
      ],
      "stateMutability": "view",
      "type": "function"
    },
    {
      "inputs": [
        {
          "internalType": "uint256",
          "name": "pid",
          "type": "uint256"
        },
        {
          "internalType": "address",
          "name": "user",
          "type": "address"
        }
      ],
      "name": "pendingARSW",
      "outputs": [
        {
          "internalType": "uint256",
          "name": "",
          "type": "uint256"
        }
      ],
      "stateMutability": "view",
      "type": "function"
    },
    {
      "inputs": [
        {
          "internalType": "address",
          "name": "",
          "type": "address"
        }
      ],
      "name": "rewardDebt",
      "outputs": [
        {
          "internalType": "uint256",
          "name": "",
          "type": "uint256"
        }
      ],
      "stateMutability": "view",
      "type": "function"
    },
    {
      "inputs": [
        {
          "internalType": "address",
          "name": "",
          "type": "address"
        }
      ],
      "name": "rewards",
      "outputs": [
        {
          "internalType": "uint256",
          "name": "",
          "type": "uint256"
        }
      ],
      "stateMutability": "view",
      "type": "function"
    },
    {
      "inputs": [
        {
          "internalType": "address",
          "name": "",
          "type": "address"
        }
      ],
      "name": "stakedByAdapter",
      "outputs": [
        {
          "internalType": "uint256",
          "name": "",
          "type": "uint256"
        }
      ],
      "stateMutability": "view",
      "type": "function"
    },
    {
      "inputs": [],
      "name": "totalStaked",
      "outputs": [
        {
          "internalType": "uint256",
          "name": "",
          "type": "uint256"
        }
      ],
      "stateMutability": "view",
      "type": "function"
    },
    {
      "inputs": [
        {
          "internalType": "uint256",
          "name": "pid",
          "type": "uint256"
        },
        {
          "internalType": "uint256",
          "name": "amount",
          "type": "uint256"
        },
        {
          "internalType": "address",
          "name": "to",
          "type": "address"
        }
      ],
      "name": "withdraw",
      "outputs": [],
      "stateMutability": "nonpayable",
      "type": "function"
    }
  ],
  "bytecode": {
    "object": "0x608060405234801561001057600080fd5b5060405161078638038061078683398101604081905261002f91610080565b600080546001600160a01b039384166001600160a01b03199182161790915560018054929093169116179055436003556100b2565b80516001600160a01b038116811461007b57600080fd5b919050565b60008060408385031215610092578182fd5b61009b83610064565b91506100a960208401610064565b90509250929050565b6106c5806100c16000396000f3fe608060405234801561001057600080fd5b50600436106100cf5760003560e01c8063817b1cd21161008c5780639d1e0d76116100665780639d1e0d76146101ab578063a57fb803146101b4578063b34bed82146101c7578063fcdc4c1b146101da57600080fd5b8063817b1cd21461018357806386b3cd261461018c5780638dbdbe6d1461019857600080fd5b80630700037d146100d45780630ad58d2f1461010757806318fccc761461011c578063313c06a01461012f5780635873eb9b1461015a578063806b984f1461017a575b600080fd5b6100f46100e236600461057a565b60076020526000908152604090205481565b6040519081526020015b60405180910390f35b61011a6101153660046105f7565b6101fa565b005b61011a61012a3660046105cc565b61038f565b600154610142906001600160a01b031681565b6040516001600160a01b0390911681526020016100fe565b6100f461016836600461057a565b60066020526000908152604090205481565b6100f460035481565b6100f460045481565b6100f464e8d4a5100081565b61011a6101a63660046105f7565b61046c565b6100f460025481565b600054610142906001600160a01b031681565b6100f46101d53660046105cc565b610539565b6100f46101e836600461057a565b60056020526000908152604090205481565b6001546040516370a0823160e01b815230600482015283916001600160a01b0316906370a082319060240160206040518083038186803b15801561023d57600080fd5b505afa158015610251573d6000803e3d6000fd5b505050506040513d601f19601f8201168201806040525081019061027591906105b4565b10156102c85760405162461bcd60e51b815260206004820152601e60248201527f4e6f7420656e6f756768204c50206f6e206661726d20636f6e7472616374000060448201526064015b60405180910390fd5b33600090815260056020526040812080548492906102e7908490610662565b9250508190555081600460008282546103009190610662565b909155505060015460405163a9059cbb60e01b8152336004820152602481018490526001600160a01b039091169063a9059cbb90604401602060405180830381600087803b15801561035157600080fd5b505af1158015610365573d6000803e3d6000fd5b505050506040513d601f19601f820116820180604052508101906103899190610594565b50505050565b60035443116103e05760405162461bcd60e51b815260206004820152601760248201527f5468657265206973206e6f20616e79207265776172647300000000000000000060448201526064016102bf565b6000600354436103f09190610662565b6103fe90633b9aca00610643565b436003556000546040516340c10f1960e01b8152336004820152602481018390529192506001600160a01b0316906340c10f1990604401600060405180830381600087803b15801561044f57600080fd5b505af1158015610463573d6000803e3d6000fd5b50505050505050565b6001546040516323b872dd60e01b8152336004820152306024820152604481018490526001600160a01b03909116906323b872dd90606401602060405180830381600087803b1580156104be57600080fd5b505af11580156104d2573d6000803e3d6000fd5b505050506040513d601f19601f820116820180604052508101906104f69190610594565b50336000908152600560205260408120805484929061051690849061062b565b92505081905550816004600082825461052f919061062b565b9091555050505050565b6000600354436105499190610662565b61055790633b9aca00610643565b9392505050565b80356001600160a01b038116811461057557600080fd5b919050565b60006020828403121561058b578081fd5b6105578261055e565b6000602082840312156105a5578081fd5b81518015158114610557578182fd5b6000602082840312156105c5578081fd5b5051919050565b600080604083850312156105de578081fd5b823591506105ee6020840161055e565b90509250929050565b60008060006060848603121561060b578081fd5b83359250602084013591506106226040850161055e565b90509250925092565b6000821982111561063e5761063e610679565b500190565b600081600019048311821515161561065d5761065d610679565b500290565b60008282101561067457610674610679565b500390565b634e487b7160e01b600052601160045260246000fdfea2646970667358221220eed978c797fec6d2ae26c7bf57a152bc87c5d7765c24e072c3e68d0b88652a4364736f6c63430008040033",
    "linkReferences": {}
  },
  "methodIdentifiers": {
    "REWARDS_PRECISION()": "86b3cd26",
    "accRewsPerShare()": "9d1e0d76",
    "arsw()": "a57fb803",
    "deposit(uint256,uint256,address)": "8dbdbe6d",
    "harvest(uint256,address)": "18fccc76",
    "lastBlock()": "806b984f",
    "lp()": "313c06a0",
    "pendingARSW(uint256,address)": "b34bed82",
    "rewardDebt(address)": "5873eb9b",
    "rewards(address)": "0700037d",
    "stakedByAdapter(address)": "fcdc4c1b",
    "totalStaked()": "817b1cd2",
    "withdraw(uint256,uint256,address)": "0ad58d2f"
  },
  "id": 52
}