{
  "abi": [
    {
      "inputs": [
        {
          "internalType": "contract MockERC20",
          "name": "_arsw",
          "type": "address"
        },
        {
          "internalType": "contract MockERC20",
          "name": "_lp",
          "type": "address"
        }
      ],
      "stateMutability": "nonpayable",
      "type": "constructor"
    },
    {
      "inputs": [],
      "name": "arsw",
      "outputs": [
        {
          "internalType": "contract MockERC20",
          "name": "",
          "type": "address"
        }
      ],
      "stateMutability": "view",
      "type": "function"
    },
    {
      "inputs": [
        {
          "internalType": "uint256",
          "name": "pid",
          "type": "uint256"
        },
        {
          "internalType": "uint256",
          "name": "amount",
          "type": "uint256"
        },
        {
          "internalType": "address",
          "name": "to",
          "type": "address"
        }
      ],
      "name": "deposit",
      "outputs": [],
      "stateMutability": "nonpayable",
      "type": "function"
    },
    {
      "inputs": [
        {
          "internalType": "uint256",
          "name": "pid",
          "type": "uint256"
        },
        {
          "internalType": "address",
          "name": "to",
          "type": "address"
        }
      ],
      "name": "harvest",
      "outputs": [],
      "stateMutability": "nonpayable",
      "type": "function"
    },
    {
      "inputs": [],
      "name": "lp",
      "outputs": [
        {
          "internalType": "contract MockERC20",
          "name": "",
          "type": "address"
        }
      ],
      "stateMutability": "view",
      "type": "function"
    },
    {
      "inputs": [
        {
          "internalType": "uint256",
          "name": "pid",
          "type": "uint256"
        },
        {
          "internalType": "address",
          "name": "user",
          "type": "address"
        }
      ],
      "name": "pendingARSW",
      "outputs": [
        {
          "internalType": "uint256",
          "name": "",
          "type": "uint256"
        }
      ],
      "stateMutability": "view",
      "type": "function"
    },
    {
      "inputs": [
        {
          "internalType": "address",
          "name": "",
          "type": "address"
        }
      ],
      "name": "startTime",
      "outputs": [
        {
          "internalType": "uint256",
          "name": "",
          "type": "uint256"
        }
      ],
      "stateMutability": "view",
      "type": "function"
    },
    {
      "inputs": [
        {
          "internalType": "uint256",
          "name": "pid",
          "type": "uint256"
        },
        {
          "internalType": "uint256",
          "name": "amount",
          "type": "uint256"
        },
        {
          "internalType": "address",
          "name": "to",
          "type": "address"
        }
      ],
      "name": "withdraw",
      "outputs": [],
      "stateMutability": "nonpayable",
      "type": "function"
    }
  ],
  "bytecode": {
    "object": "0x608060405234801561001057600080fd5b5060405161067338038061067383398101604081905261002f9161007c565b600080546001600160a01b039384166001600160a01b031991821617909155600180549290931691161790556100ae565b80516001600160a01b038116811461007757600080fd5b919050565b6000806040838503121561008e578182fd5b61009783610060565b91506100a560208401610060565b90509250929050565b6105b6806100bd6000396000f3fe608060405234801561001057600080fd5b506004361061007d5760003560e01c80636e1dc66e1161005b5780636e1dc66e146100da5780638dbdbe6d14610108578063a57fb8031461011b578063b34bed821461012e57600080fd5b80630ad58d2f1461008257806318fccc7614610097578063313c06a0146100aa575b600080fd5b610095610090366004610500565b610141565b005b6100956100a53660046104d5565b61029a565b6001546100bd906001600160a01b031681565b6040516001600160a01b0390911681526020015b60405180910390f35b6100fa6100e836600461047c565b60026020526000908152604090205481565b6040519081526020016100d1565b610095610116366004610500565b61038b565b6000546100bd906001600160a01b031681565b6100fa61013c3660046104d5565b61042d565b6001546040516370a0823160e01b815230600482015283916001600160a01b0316906370a082319060240160206040518083038186803b15801561018457600080fd5b505afa158015610198573d6000803e3d6000fd5b505050506040513d601f19601f820116820180604052508101906101bc91906104bd565b101561020f5760405162461bcd60e51b815260206004820152601e60248201527f4e6f7420656e6f756768204c50206f6e206661726d20636f6e7472616374000060448201526064015b60405180910390fd5b60015460405163a9059cbb60e01b8152336004820152602481018490526001600160a01b039091169063a9059cbb906044015b602060405180830381600087803b15801561025c57600080fd5b505af1158015610270573d6000803e3d6000fd5b505050506040513d601f19601f82011682018060405250810190610294919061049d565b50505050565b33600090815260026020526040902054158015906102c657503360009081526002602052604090205442115b61031e5760405162461bcd60e51b8152602060048201526024808201527f4c502077657265206e6f74206465706f73697465642062792074686520616461604482015263383a32b960e11b6064820152608401610206565b336000908152600260205260408120546103389042610553565b6000549091506001600160a01b031663a9059cbb3361035a84620f4240610534565b6040516001600160e01b031960e085901b1681526001600160a01b0390921660048301526024820152604401610242565b6001546040516323b872dd60e01b8152336004820152306024820152604481018490526001600160a01b03909116906323b872dd90606401602060405180830381600087803b1580156103dd57600080fd5b505af11580156103f1573d6000803e3d6000fd5b505050506040513d601f19601f82011682018060405250810190610415919061049d565b50503360009081526002602052604090204290555050565b3360009081526002602052604081205481906104499042610553565b905061045881620f4240610534565b949350505050565b80356001600160a01b038116811461047757600080fd5b919050565b60006020828403121561048d578081fd5b61049682610460565b9392505050565b6000602082840312156104ae578081fd5b81518015158114610496578182fd5b6000602082840312156104ce578081fd5b5051919050565b600080604083850312156104e7578081fd5b823591506104f760208401610460565b90509250929050565b600080600060608486031215610514578081fd5b833592506020840135915061052b60408501610460565b90509250925092565b600081600019048311821515161561054e5761054e61056a565b500290565b6000828210156105655761056561056a565b500390565b634e487b7160e01b600052601160045260246000fdfea2646970667358221220da5012fcb33b0527d057ff9c2c2381f82c07ce584dc747efa2b196517f6142c864736f6c63430008040033",
    "linkReferences": {}
  },
  "methodIdentifiers": {
    "arsw()": "a57fb803",
    "deposit(uint256,uint256,address)": "8dbdbe6d",
    "harvest(uint256,address)": "18fccc76",
    "lp()": "313c06a0",
    "pendingARSW(uint256,address)": "b34bed82",
    "startTime(address)": "6e1dc66e",
    "withdraw(uint256,uint256,address)": "0ad58d2f"
  },
  "id": 19
}