{
  "abi": [
    {
      "inputs": [
        {
          "internalType": "contract MockERC20",
          "name": "_arsw",
          "type": "address"
        },
        {
          "internalType": "contract MockERC20",
          "name": "_lp",
          "type": "address"
        }
      ],
      "stateMutability": "nonpayable",
      "type": "constructor"
    },
    {
      "inputs": [],
      "name": "REWARDS_PRECISION",
      "outputs": [
        {
          "internalType": "uint256",
          "name": "",
          "type": "uint256"
        }
      ],
      "stateMutability": "view",
      "type": "function"
    },
    {
      "inputs": [],
      "name": "accRewsPerShare",
      "outputs": [
        {
          "internalType": "uint256",
          "name": "",
          "type": "uint256"
        }
      ],
      "stateMutability": "view",
      "type": "function"
    },
    {
      "inputs": [],
      "name": "arsw",
      "outputs": [
        {
          "internalType": "contract MockERC20",
          "name": "",
          "type": "address"
        }
      ],
      "stateMutability": "view",
      "type": "function"
    },
    {
      "inputs": [
        {
          "internalType": "uint256",
          "name": "pid",
          "type": "uint256"
        }
      ],
      "name": "claim",
      "outputs": [],
      "stateMutability": "nonpayable",
      "type": "function"
    },
    {
      "inputs": [],
      "name": "lastBlock",
      "outputs": [
        {
          "internalType": "uint256",
          "name": "",
          "type": "uint256"
        }
      ],
      "stateMutability": "view",
      "type": "function"
    },
    {
      "inputs": [],
      "name": "lp",
      "outputs": [
        {
          "internalType": "contract MockERC20",
          "name": "",
          "type": "address"
        }
      ],
      "stateMutability": "view",
      "type": "function"
    },
    {
      "inputs": [
        {
          "internalType": "uint256",
          "name": "pid",
          "type": "uint256"
        },
        {
          "internalType": "address",
          "name": "user",
          "type": "address"
        }
      ],
      "name": "pendingRewards",
      "outputs": [
        {
          "internalType": "uint256[]",
          "name": "",
          "type": "uint256[]"
        },
        {
          "internalType": "uint256",
          "name": "",
          "type": "uint256"
        }
      ],
      "stateMutability": "view",
      "type": "function"
    },
    {
      "inputs": [
        {
          "internalType": "uint256",
          "name": "pid",
          "type": "uint256"
        },
        {
          "internalType": "address",
          "name": "to",
          "type": "address"
        },
        {
          "internalType": "uint256",
          "name": "amount",
          "type": "uint256"
        }
      ],
      "name": "redeem",
      "outputs": [],
      "stateMutability": "nonpayable",
      "type": "function"
    },
    {
      "inputs": [
        {
          "internalType": "address",
          "name": "",
          "type": "address"
        }
      ],
      "name": "rewardDebt",
      "outputs": [
        {
          "internalType": "uint256",
          "name": "",
          "type": "uint256"
        }
      ],
      "stateMutability": "view",
      "type": "function"
    },
    {
      "inputs": [
        {
          "internalType": "address",
          "name": "",
          "type": "address"
        }
      ],
      "name": "rewards",
      "outputs": [
        {
          "internalType": "uint256",
          "name": "",
          "type": "uint256"
        }
      ],
      "stateMutability": "view",
      "type": "function"
    },
    {
      "inputs": [
        {
          "internalType": "uint256",
          "name": "pid",
          "type": "uint256"
        },
        {
          "internalType": "address",
          "name": "to",
          "type": "address"
        },
        {
          "internalType": "uint256",
          "name": "amount",
          "type": "uint256"
        }
      ],
      "name": "stake",
      "outputs": [],
      "stateMutability": "nonpayable",
      "type": "function"
    },
    {
      "inputs": [
        {
          "internalType": "address",
          "name": "",
          "type": "address"
        }
      ],
      "name": "stakedByAdapter",
      "outputs": [
        {
          "internalType": "uint256",
          "name": "",
          "type": "uint256"
        }
      ],
      "stateMutability": "view",
      "type": "function"
    },
    {
      "inputs": [],
      "name": "totalStaked",
      "outputs": [
        {
          "internalType": "uint256",
          "name": "",
          "type": "uint256"
        }
      ],
      "stateMutability": "view",
      "type": "function"
    }
  ],
  "bytecode": {
    "object": "0x608060405234801561001057600080fd5b5060405161085038038061085083398101604081905261002f91610080565b600080546001600160a01b039384166001600160a01b03199182161790915560018054929093169116179055436003556100b2565b80516001600160a01b038116811461007b57600080fd5b919050565b60008060408385031215610092578182fd5b61009b83610064565b91506100a960208401610064565b90509250929050565b61078f806100c16000396000f3fe608060405234801561001057600080fd5b50600436106100cf5760003560e01c8063817b1cd21161008c578063a57fb80311610066578063a57fb803146101a1578063d18df53c146101b4578063d8780161146101d5578063fcdc4c1b146101e857600080fd5b8063817b1cd21461018357806386b3cd261461018c5780639d1e0d761461019857600080fd5b80630700037d146100d4578063313c06a014610107578063379607f5146101325780635873eb9b146101475780636e9c931c14610167578063806b984f1461017a575b600080fd5b6100f46100e23660046105dd565b60076020526000908152604090205481565b6040519081526020015b60405180910390f35b60015461011a906001600160a01b031681565b6040516001600160a01b0390911681526020016100fe565b61014561014036600461061e565b610208565b005b6100f46101553660046105dd565b60066020526000908152604090205481565b610145610175366004610679565b6102e9565b6100f460035481565b6100f460045481565b6100f464e8d4a5100081565b6100f460025481565b60005461011a906001600160a01b031681565b6101c76101c236600461064e565b6103b6565b6040516100fe9291906106ad565b6101456101e3366004610679565b610431565b6100f46101f63660046105dd565b60056020526000908152604090205481565b600354431161025e5760405162461bcd60e51b815260206004820152601760248201527f5468657265206973206e6f20616e79207265776172647300000000000000000060448201526064015b60405180910390fd5b60006003544361026e919061072c565b61027c90633b9aca0061070d565b436003556000546040516340c10f1960e01b8152336004820152602481018390529192506001600160a01b0316906340c10f1990604401600060405180830381600087803b1580156102cd57600080fd5b505af11580156102e1573d6000803e3d6000fd5b505050505050565b6001546040516323b872dd60e01b8152336004820152306024820152604481018390526001600160a01b03909116906323b872dd90606401602060405180830381600087803b15801561033b57600080fd5b505af115801561034f573d6000803e3d6000fd5b505050506040513d601f19601f8201168201806040525081019061037391906105fe565b5033600090815260056020526040812080548392906103939084906106f5565b9250508190555080600460008282546103ac91906106f5565b9091555050505050565b60408051600280825260608281019093526000918291816020016020820280368337019050509050600354436103ec919061072c565b6103fa90633b9aca0061070d565b8160008151811061041b57634e487b7160e01b600052603260045260246000fd5b6020908102919091010152946000945092505050565b6001546040516370a0823160e01b815230600482015282916001600160a01b0316906370a082319060240160206040518083038186803b15801561047457600080fd5b505afa158015610488573d6000803e3d6000fd5b505050506040513d601f19601f820116820180604052508101906104ac9190610636565b10156104fa5760405162461bcd60e51b815260206004820152601e60248201527f4e6f7420656e6f756768204c50206f6e206661726d20636f6e747261637400006044820152606401610255565b336000908152600560205260408120805483929061051990849061072c565b925050819055508060046000828254610532919061072c565b909155505060015460405163a9059cbb60e01b8152336004820152602481018390526001600160a01b039091169063a9059cbb90604401602060405180830381600087803b15801561058357600080fd5b505af1158015610597573d6000803e3d6000fd5b505050506040513d601f19601f820116820180604052508101906105bb91906105fe565b50505050565b80356001600160a01b03811681146105d857600080fd5b919050565b6000602082840312156105ee578081fd5b6105f7826105c1565b9392505050565b60006020828403121561060f578081fd5b815180151581146105f7578182fd5b60006020828403121561062f578081fd5b5035919050565b600060208284031215610647578081fd5b5051919050565b60008060408385031215610660578081fd5b82359150610670602084016105c1565b90509250929050565b60008060006060848603121561068d578081fd5b8335925061069d602085016105c1565b9150604084013590509250925092565b604080825283519082018190526000906020906060840190828701845b828110156106e6578151845292840192908401906001016106ca565b50505092019290925292915050565b6000821982111561070857610708610743565b500190565b600081600019048311821515161561072757610727610743565b500290565b60008282101561073e5761073e610743565b500390565b634e487b7160e01b600052601160045260246000fdfea26469706673582212207c41e100cae481532dd546bf5295e64a6c6cab21b4e4170848fbd4cf218787d564736f6c63430008040033",
    "linkReferences": {}
  },
  "methodIdentifiers": {
    "REWARDS_PRECISION()": "86b3cd26",
    "accRewsPerShare()": "9d1e0d76",
    "arsw()": "a57fb803",
    "claim(uint256)": "379607f5",
    "lastBlock()": "806b984f",
    "lp()": "313c06a0",
    "pendingRewards(uint256,address)": "d18df53c",
    "redeem(uint256,address,uint256)": "d8780161",
    "rewardDebt(address)": "5873eb9b",
    "rewards(address)": "0700037d",
    "stake(uint256,address,uint256)": "6e9c931c",
    "stakedByAdapter(address)": "fcdc4c1b",
    "totalStaked()": "817b1cd2"
  },
  "id": 56
}