{
  "abi": [
    {
      "inputs": [
        {
          "internalType": "contract MockERC20",
          "name": "_lp",
          "type": "address"
        },
        {
          "internalType": "contract MockERC20",
          "name": "_nastr",
          "type": "address"
        }
      ],
      "stateMutability": "nonpayable",
      "type": "constructor"
    },
    {
      "inputs": [
        {
          "internalType": "address",
          "name": "token",
          "type": "address"
        },
        {
          "internalType": "uint256",
          "name": "amountTokenDesired",
          "type": "uint256"
        },
        {
          "internalType": "uint256",
          "name": "amountTokenMin",
          "type": "uint256"
        },
        {
          "internalType": "uint256",
          "name": "amountETHMin",
          "type": "uint256"
        },
        {
          "internalType": "address",
          "name": "to",
          "type": "address"
        },
        {
          "internalType": "uint256",
          "name": "deadline",
          "type": "uint256"
        }
      ],
      "name": "addLiquidityETH",
      "outputs": [
        {
          "internalType": "uint256",
          "name": "amountToken",
          "type": "uint256"
        },
        {
          "internalType": "uint256",
          "name": "amountETH",
          "type": "uint256"
        },
        {
          "internalType": "uint256",
          "name": "liquidity",
          "type": "uint256"
        }
      ],
      "stateMutability": "payable",
      "type": "function"
    },
    {
      "inputs": [],
      "name": "lp",
      "outputs": [
        {
          "internalType": "contract MockERC20",
          "name": "",
          "type": "address"
        }
      ],
      "stateMutability": "view",
      "type": "function"
    },
    {
      "inputs": [],
      "name": "nastr",
      "outputs": [
        {
          "internalType": "contract MockERC20",
          "name": "",
          "type": "address"
        }
      ],
      "stateMutability": "view",
      "type": "function"
    },
    {
      "inputs": [
        {
          "internalType": "uint256",
          "name": "amountA",
          "type": "uint256"
        },
        {
          "internalType": "uint256",
          "name": "reserveA",
          "type": "uint256"
        },
        {
          "internalType": "uint256",
          "name": "reserveB",
          "type": "uint256"
        }
      ],
      "name": "quote",
      "outputs": [
        {
          "internalType": "uint256",
          "name": "amountB",
          "type": "uint256"
        }
      ],
      "stateMutability": "pure",
      "type": "function"
    },
    {
      "inputs": [
        {
          "internalType": "address",
          "name": "token",
          "type": "address"
        },
        {
          "internalType": "uint256",
          "name": "liquidity",
          "type": "uint256"
        },
        {
          "internalType": "uint256",
          "name": "amountTokenMin",
          "type": "uint256"
        },
        {
          "internalType": "uint256",
          "name": "amountETHMin",
          "type": "uint256"
        },
        {
          "internalType": "address",
          "name": "to",
          "type": "address"
        },
        {
          "internalType": "uint256",
          "name": "deadline",
          "type": "uint256"
        }
      ],
      "name": "removeLiquidityETH",
      "outputs": [
        {
          "internalType": "uint256",
          "name": "amountToken",
          "type": "uint256"
        },
        {
          "internalType": "uint256",
          "name": "amountETH",
          "type": "uint256"
        }
      ],
      "stateMutability": "nonpayable",
      "type": "function"
    },
    {
      "inputs": [],
      "name": "reservesN",
      "outputs": [
        {
          "internalType": "uint256",
          "name": "",
          "type": "uint256"
        }
      ],
      "stateMutability": "view",
      "type": "function"
    },
    {
      "inputs": [],
      "name": "reservesT",
      "outputs": [
        {
          "internalType": "uint256",
          "name": "",
          "type": "uint256"
        }
      ],
      "stateMutability": "view",
      "type": "function"
    }
  ],
  "bytecode": {
    "object": "0x608060405234801561001057600080fd5b5060405161082338038061082383398101604081905261002f9161008e565b600080546001600160a01b039384166001600160a01b0319918216179091556001805492909316911617905568056bc75e2d6310000060028190556003556100c0565b80516001600160a01b038116811461008957600080fd5b919050565b600080604083850312156100a0578182fd5b6100a983610072565b91506100b760208401610072565b90509250929050565b610754806100cf6000396000f3fe6080604052600436106100705760003560e01c80634a6846ec1161004e5780634a6846ec146101075780635d8de3161461012b578063ad615dec14610141578063f305d7191461016157600080fd5b806302751cec14610075578063313c06a0146100af57806342c99509146100e7575b600080fd5b34801561008157600080fd5b506100956100903660046105d9565b61018f565b604080519283526020830191909152015b60405180910390f35b3480156100bb57600080fd5b506000546100cf906001600160a01b031681565b6040516001600160a01b0390911681526020016100a6565b3480156100f357600080fd5b506001546100cf906001600160a01b031681565b34801561011357600080fd5b5061011d60025481565b6040519081526020016100a6565b34801561013757600080fd5b5061011d60035481565b34801561014d57600080fd5b5061011d61015c36600461066f565b6103dd565b61017461016f3660046105d9565b6103fc565b604080519384526020840192909252908201526060016100a6565b60008060008060009054906101000a90046001600160a01b03166001600160a01b03166318160ddd6040518163ffffffff1660e01b815260040160206040518083038186803b1580156101e157600080fd5b505afa1580156101f5573d6000803e3d6000fd5b505050506040513d601f19601f820116820180604052508101906102199190610657565b9050808860025461022a91906106d2565b61023491906106b2565b9250808860035461024591906106d2565b61024f91906106b2565b9150826001600160701b03166002600082825461026c91906106f1565b92505081905550816001600160701b03166003600082825461028e91906106f1565b90915550506000546040516323b872dd60e01b8152336004820152306024820152604481018a90526001600160a01b03909116906323b872dd90606401602060405180830381600087803b1580156102e557600080fd5b505af11580156102f9573d6000803e3d6000fd5b505050506040513d601f19601f8201168201806040525081019061031d9190610630565b5060015460405163a9059cbb60e01b8152336004820152602481018590526001600160a01b039091169063a9059cbb90604401602060405180830381600087803b15801561036a57600080fd5b505af115801561037e573d6000803e3d6000fd5b505050506040513d601f19601f820116820180604052508101906103a29190610630565b50604051339083156108fc029084906000818181858888f193505050501580156103d0573d6000803e3d6000fd5b5050965096945050505050565b6000826103ea83866106d2565b6103f491906106b2565b949350505050565b6001546040516323b872dd60e01b815233600482015230602482015260448101879052600091829182916001600160a01b0316906323b872dd90606401602060405180830381600087803b15801561045357600080fd5b505af1158015610467573d6000803e3d6000fd5b505050506040513d601f19601f8201168201806040525081019061048b9190610630565b5061049e610499348a6106d2565b610552565b9050876001600160701b0316600260008282546104bb919061069a565b92505081905550346001600160701b0316600360008282546104dd919061069a565b90915550506000546040516340c10f1960e01b8152336004820152602481018390526001600160a01b03909116906340c10f1990604401600060405180830381600087803b15801561052e57600080fd5b505af1158015610542573d6000803e3d6000fd5b5050505096509650969350505050565b600060038211156105b3575080600061056c6002836106b2565b61057790600161069a565b90505b818110156105ad5790508060028161059281866106b2565b61059c919061069a565b6105a691906106b2565b905061057a565b50919050565b81156105bd575060015b919050565b80356001600160a01b03811681146105bd57600080fd5b60008060008060008060c087890312156105f1578182fd5b6105fa876105c2565b955060208701359450604087013593506060870135925061061d608088016105c2565b915060a087013590509295509295509295565b600060208284031215610641578081fd5b81518015158114610650578182fd5b9392505050565b600060208284031215610668578081fd5b5051919050565b600080600060608486031215610683578283fd5b505081359360208301359350604090920135919050565b600082198211156106ad576106ad610708565b500190565b6000826106cd57634e487b7160e01b81526012600452602481fd5b500490565b60008160001904831182151516156106ec576106ec610708565b500290565b60008282101561070357610703610708565b500390565b634e487b7160e01b600052601160045260246000fdfea2646970667358221220a9f1e7d16d31a7bc398a488e25137937ca2a7e4563c3be01424c4a67de3a9e8c64736f6c63430008040033",
    "linkReferences": {}
  },
  "methodIdentifiers": {
    "addLiquidityETH(address,uint256,uint256,uint256,address,uint256)": "f305d719",
    "lp()": "313c06a0",
    "nastr()": "42c99509",
    "quote(uint256,uint256,uint256)": "ad615dec",
    "removeLiquidityETH(address,uint256,uint256,uint256,address,uint256)": "02751cec",
    "reservesN()": "4a6846ec",
    "reservesT()": "5d8de316"
  },
  "id": 21
}