{
  "abi": [
    {
      "inputs": [
        {
          "internalType": "contract MockERC20",
          "name": "_lp",
          "type": "address"
        },
        {
          "internalType": "contract MockERC20",
          "name": "_nastr",
          "type": "address"
        }
      ],
      "stateMutability": "nonpayable",
      "type": "constructor"
    },
    {
      "inputs": [
        {
          "internalType": "address",
          "name": "token",
          "type": "address"
        },
        {
          "internalType": "uint256",
          "name": "amountTokenDesired",
          "type": "uint256"
        },
        {
          "internalType": "uint256",
          "name": "amountTokenMin",
          "type": "uint256"
        },
        {
          "internalType": "uint256",
          "name": "amountETHMin",
          "type": "uint256"
        },
        {
          "internalType": "address",
          "name": "to",
          "type": "address"
        },
        {
          "internalType": "uint256",
          "name": "deadline",
          "type": "uint256"
        }
      ],
      "name": "addLiquidityETH",
      "outputs": [
        {
          "internalType": "uint256",
          "name": "amountToken",
          "type": "uint256"
        },
        {
          "internalType": "uint256",
          "name": "amountETH",
          "type": "uint256"
        },
        {
          "internalType": "uint256",
          "name": "liquidity",
          "type": "uint256"
        }
      ],
      "stateMutability": "payable",
      "type": "function"
    },
    {
      "inputs": [],
      "name": "lp",
      "outputs": [
        {
          "internalType": "contract MockERC20",
          "name": "",
          "type": "address"
        }
      ],
      "stateMutability": "view",
      "type": "function"
    },
    {
      "inputs": [],
      "name": "nastr",
      "outputs": [
        {
          "internalType": "contract MockERC20",
          "name": "",
          "type": "address"
        }
      ],
      "stateMutability": "view",
      "type": "function"
    },
    {
      "inputs": [
        {
          "internalType": "uint256",
          "name": "amountA",
          "type": "uint256"
        },
        {
          "internalType": "uint256",
          "name": "reserveA",
          "type": "uint256"
        },
        {
          "internalType": "uint256",
          "name": "reserveB",
          "type": "uint256"
        }
      ],
      "name": "quote",
      "outputs": [
        {
          "internalType": "uint256",
          "name": "amountB",
          "type": "uint256"
        }
      ],
      "stateMutability": "pure",
      "type": "function"
    },
    {
      "inputs": [
        {
          "internalType": "address",
          "name": "token",
          "type": "address"
        },
        {
          "internalType": "uint256",
          "name": "liquidity",
          "type": "uint256"
        },
        {
          "internalType": "uint256",
          "name": "amountTokenMin",
          "type": "uint256"
        },
        {
          "internalType": "uint256",
          "name": "amountETHMin",
          "type": "uint256"
        },
        {
          "internalType": "address",
          "name": "to",
          "type": "address"
        },
        {
          "internalType": "uint256",
          "name": "deadline",
          "type": "uint256"
        }
      ],
      "name": "removeLiquidityETH",
      "outputs": [
        {
          "internalType": "uint256",
          "name": "amountToken",
          "type": "uint256"
        },
        {
          "internalType": "uint256",
          "name": "amountETH",
          "type": "uint256"
        }
      ],
      "stateMutability": "nonpayable",
      "type": "function"
    },
    {
      "inputs": [],
      "name": "reservesN",
      "outputs": [
        {
          "internalType": "uint256",
          "name": "",
          "type": "uint256"
        }
      ],
      "stateMutability": "view",
      "type": "function"
    },
    {
      "inputs": [],
      "name": "reservesT",
      "outputs": [
        {
          "internalType": "uint256",
          "name": "",
          "type": "uint256"
        }
      ],
      "stateMutability": "view",
      "type": "function"
    }
  ],
  "bytecode": {
    "object": "0x608060405234801561001057600080fd5b5060405161088738038061088783398101604081905261002f9161008e565b600080546001600160a01b039384166001600160a01b0319918216179091556001805492909316911617905568056bc75e2d6310000060028190556003556100c0565b80516001600160a01b038116811461008957600080fd5b919050565b600080604083850312156100a0578182fd5b6100a983610072565b91506100b760208401610072565b90509250929050565b6107b8806100cf6000396000f3fe6080604052600436106100705760003560e01c80634a6846ec1161004e5780634a6846ec146101075780635d8de3161461012b578063ad615dec14610141578063f305d7191461016157600080fd5b806302751cec14610075578063313c06a0146100af57806342c99509146100e7575b600080fd5b34801561008157600080fd5b5061009561009036600461063d565b61018f565b604080519283526020830191909152015b60405180910390f35b3480156100bb57600080fd5b506000546100cf906001600160a01b031681565b6040516001600160a01b0390911681526020016100a6565b3480156100f357600080fd5b506001546100cf906001600160a01b031681565b34801561011357600080fd5b5061011d60025481565b6040519081526020016100a6565b34801561013757600080fd5b5061011d60035481565b34801561014d57600080fd5b5061011d61015c3660046106d3565b610441565b61017461016f36600461063d565b610460565b604080519384526020840192909252908201526060016100a6565b60008060008060009054906101000a90046001600160a01b03166001600160a01b03166318160ddd6040518163ffffffff1660e01b815260040160206040518083038186803b1580156101e157600080fd5b505afa1580156101f5573d6000803e3d6000fd5b505050506040513d601f19601f8201168201806040525081019061021991906106bb565b9050808860025461022a9190610736565b6102349190610716565b925080886003546102459190610736565b61024f9190610716565b9150826001600160701b03166002600082825461026c9190610755565b92505081905550816001600160701b03166003600082825461028e9190610755565b90915550506000546040516323b872dd60e01b8152336004820152306024820152604481018a90526001600160a01b03909116906323b872dd90606401602060405180830381600087803b1580156102e557600080fd5b505af11580156102f9573d6000803e3d6000fd5b505050506040513d601f19601f8201168201806040525081019061031d9190610694565b50600054604051632770a7eb60e21b8152306004820152602481018a90526001600160a01b0390911690639dc29fac90604401600060405180830381600087803b15801561036a57600080fd5b505af115801561037e573d6000803e3d6000fd5b505060015460405163a9059cbb60e01b8152336004820152602481018790526001600160a01b03909116925063a9059cbb9150604401602060405180830381600087803b1580156103ce57600080fd5b505af11580156103e2573d6000803e3d6000fd5b505050506040513d601f19601f820116820180604052508101906104069190610694565b50604051339083156108fc029084906000818181858888f19350505050158015610434573d6000803e3d6000fd5b5050965096945050505050565b60008261044e8386610736565b6104589190610716565b949350505050565b6001546040516323b872dd60e01b815233600482015230602482015260448101879052600091829182916001600160a01b0316906323b872dd90606401602060405180830381600087803b1580156104b757600080fd5b505af11580156104cb573d6000803e3d6000fd5b505050506040513d601f19601f820116820180604052508101906104ef9190610694565b506105026104fd348a610736565b6105b6565b9050876001600160701b03166002600082825461051f91906106fe565b92505081905550346001600160701b03166003600082825461054191906106fe565b90915550506000546040516340c10f1960e01b8152336004820152602481018390526001600160a01b03909116906340c10f1990604401600060405180830381600087803b15801561059257600080fd5b505af11580156105a6573d6000803e3d6000fd5b5050505096509650969350505050565b6000600382111561061757508060006105d0600283610716565b6105db9060016106fe565b90505b81811015610611579050806002816105f68186610716565b61060091906106fe565b61060a9190610716565b90506105de565b50919050565b8115610621575060015b919050565b80356001600160a01b038116811461062157600080fd5b60008060008060008060c08789031215610655578182fd5b61065e87610626565b955060208701359450604087013593506060870135925061068160808801610626565b915060a087013590509295509295509295565b6000602082840312156106a5578081fd5b815180151581146106b4578182fd5b9392505050565b6000602082840312156106cc578081fd5b5051919050565b6000806000606084860312156106e7578283fd5b505081359360208301359350604090920135919050565b600082198211156107115761071161076c565b500190565b60008261073157634e487b7160e01b81526012600452602481fd5b500490565b60008160001904831182151516156107505761075061076c565b500290565b6000828210156107675761076761076c565b500390565b634e487b7160e01b600052601160045260246000fdfea264697066735822122056405e947d5e60e8213341902a074410a93391be5ba3445a4847ce861cfbd38664736f6c63430008040033",
    "linkReferences": {}
  },
  "methodIdentifiers": {
    "addLiquidityETH(address,uint256,uint256,uint256,address,uint256)": "f305d719",
    "lp()": "313c06a0",
    "nastr()": "42c99509",
    "quote(uint256,uint256,uint256)": "ad615dec",
    "removeLiquidityETH(address,uint256,uint256,uint256,address,uint256)": "02751cec",
    "reservesN()": "4a6846ec",
    "reservesT()": "5d8de316"
  },
  "id": 54
}