{
  "abi": [
    {
      "inputs": [],
      "stateMutability": "nonpayable",
      "type": "constructor"
    },
    {
      "inputs": [],
      "name": "DAPPS_STAKING",
      "outputs": [
        {
          "internalType": "contract DappsStaking",
          "name": "",
          "type": "address"
        }
      ],
      "stateMutability": "view",
      "type": "function"
    },
    {
      "inputs": [],
      "name": "lastUpdated",
      "outputs": [
        {
          "internalType": "uint256",
          "name": "",
          "type": "uint256"
        }
      ],
      "stateMutability": "view",
      "type": "function"
    },
    {
      "inputs": [],
      "name": "uselessString",
      "outputs": [
        {
          "internalType": "string",
          "name": "",
          "type": "string"
        }
      ],
      "stateMutability": "view",
      "type": "function"
    },
    {
      "stateMutability": "payable",
      "type": "receive"
    }
  ],
  "bytecode": {
    "object": "0x608060405234801561001057600080fd5b50604080518082019091526004808252636d6f636b60e01b602090920191825261003c916001916100d7565b50600080546001600160a01b0319166150019081179091556040805163e608d80b60e01b815290516001929163e608d80b916004808301926020929190829003018186803b15801561008d57600080fd5b505afa1580156100a1573d6000803e3d6000fd5b505050506040513d601f19601f820116820180604052508101906100c59190610170565b6100cf9190610188565b6002556101e6565b8280546100e3906101ab565b90600052602060002090601f016020900481019282610105576000855561014b565b82601f1061011e57805160ff191683800117855561014b565b8280016001018555821561014b579182015b8281111561014b578251825591602001919060010190610130565b5061015792915061015b565b5090565b5b80821115610157576000815560010161015c565b600060208284031215610181578081fd5b5051919050565b6000828210156101a657634e487b7160e01b81526011600452602481fd5b500390565b600181811c908216806101bf57607f821691505b602082108114156101e057634e487b7160e01b600052602260045260246000fd5b50919050565b610219806101f56000396000f3fe6080604052600436106100385760003560e01c806359b40f41146100445780639bab9c0014610081578063d0b06f5d146100a357600080fd5b3661003f57005b600080fd5b34801561005057600080fd5b50600054610064906001600160a01b031681565b6040516001600160a01b0390911681526020015b60405180910390f35b34801561008d57600080fd5b506100966100c7565b6040516100789190610155565b3480156100af57600080fd5b506100b960025481565b604051908152602001610078565b600180546100d4906101a8565b80601f0160208091040260200160405190810160405280929190818152602001828054610100906101a8565b801561014d5780601f106101225761010080835404028352916020019161014d565b820191906000526020600020905b81548152906001019060200180831161013057829003601f168201915b505050505081565b6000602080835283518082850152825b8181101561018157858101830151858201604001528201610165565b818111156101925783604083870101525b50601f01601f1916929092016040019392505050565b600181811c908216806101bc57607f821691505b602082108114156101dd57634e487b7160e01b600052602260045260246000fd5b5091905056fea26469706673582212202cd6a679ae7e27655511e1923a111419f1e36e64b110aa1035fc4ec803d287d064736f6c63430008040033",
    "linkReferences": {}
  },
  "methodIdentifiers": {
    "DAPPS_STAKING()": "59b40f41",
    "lastUpdated()": "d0b06f5d",
    "uselessString()": "9bab9c00"
  },
  "id": 60
}