{
  "abi": [
    {
      "inputs": [],
      "stateMutability": "nonpayable",
      "type": "constructor"
    },
    {
      "anonymous": false,
      "inputs": [
        {
          "indexed": false,
          "internalType": "uint8",
          "name": "version",
          "type": "uint8"
        }
      ],
      "name": "Initialized",
      "type": "event"
    },
    {
      "anonymous": false,
      "inputs": [
        {
          "indexed": true,
          "internalType": "bytes32",
          "name": "role",
          "type": "bytes32"
        },
        {
          "indexed": true,
          "internalType": "bytes32",
          "name": "previousAdminRole",
          "type": "bytes32"
        },
        {
          "indexed": true,
          "internalType": "bytes32",
          "name": "newAdminRole",
          "type": "bytes32"
        }
      ],
      "name": "RoleAdminChanged",
      "type": "event"
    },
    {
      "anonymous": false,
      "inputs": [
        {
          "indexed": true,
          "internalType": "bytes32",
          "name": "role",
          "type": "bytes32"
        },
        {
          "indexed": true,
          "internalType": "address",
          "name": "account",
          "type": "address"
        },
        {
          "indexed": true,
          "internalType": "address",
          "name": "sender",
          "type": "address"
        }
      ],
      "name": "RoleGranted",
      "type": "event"
    },
    {
      "anonymous": false,
      "inputs": [
        {
          "indexed": true,
          "internalType": "bytes32",
          "name": "role",
          "type": "bytes32"
        },
        {
          "indexed": true,
          "internalType": "address",
          "name": "account",
          "type": "address"
        },
        {
          "indexed": true,
          "internalType": "address",
          "name": "sender",
          "type": "address"
        }
      ],
      "name": "RoleRevoked",
      "type": "event"
    },
    {
      "inputs": [],
      "name": "ADAPTER",
      "outputs": [
        {
          "internalType": "bytes32",
          "name": "",
          "type": "bytes32"
        }
      ],
      "stateMutability": "view",
      "type": "function"
    },
    {
      "inputs": [],
      "name": "DEFAULT_ADMIN_ROLE",
      "outputs": [
        {
          "internalType": "bytes32",
          "name": "",
          "type": "bytes32"
        }
      ],
      "stateMutability": "view",
      "type": "function"
    },
    {
      "inputs": [],
      "name": "MANAGER",
      "outputs": [
        {
          "internalType": "bytes32",
          "name": "",
          "type": "bytes32"
        }
      ],
      "stateMutability": "view",
      "type": "function"
    },
    {
      "inputs": [
        {
          "internalType": "string",
          "name": "",
          "type": "string"
        }
      ],
      "name": "adapterId",
      "outputs": [
        {
          "internalType": "uint256",
          "name": "",
          "type": "uint256"
        }
      ],
      "stateMutability": "view",
      "type": "function"
    },
    {
      "inputs": [
        {
          "internalType": "string",
          "name": "",
          "type": "string"
        }
      ],
      "name": "adapters",
      "outputs": [
        {
          "internalType": "address",
          "name": "contractAddress",
          "type": "address"
        }
      ],
      "stateMutability": "view",
      "type": "function"
    },
    {
      "inputs": [
        {
          "internalType": "uint256",
          "name": "",
          "type": "uint256"
        }
      ],
      "name": "adaptersList",
      "outputs": [
        {
          "internalType": "string",
          "name": "",
          "type": "string"
        }
      ],
      "stateMutability": "view",
      "type": "function"
    },
    {
      "inputs": [
        {
          "internalType": "address",
          "name": "_contractAddress",
          "type": "address"
        },
        {
          "internalType": "string",
          "name": "_utility",
          "type": "string"
        }
      ],
      "name": "addAdapter",
      "outputs": [],
      "stateMutability": "nonpayable",
      "type": "function"
    },
    {
      "inputs": [
        {
          "internalType": "bytes32",
          "name": "role",
          "type": "bytes32"
        }
      ],
      "name": "getRoleAdmin",
      "outputs": [
        {
          "internalType": "bytes32",
          "name": "",
          "type": "bytes32"
        }
      ],
      "stateMutability": "view",
      "type": "function"
    },
    {
      "inputs": [],
      "name": "getTotalASTR",
      "outputs": [
        {
          "internalType": "uint256",
          "name": "total",
          "type": "uint256"
        }
      ],
      "stateMutability": "view",
      "type": "function"
    },
    {
      "inputs": [
        {
          "internalType": "address",
          "name": "user",
          "type": "address"
        }
      ],
      "name": "getUserBalanceInAdapters",
      "outputs": [
        {
          "internalType": "uint256",
          "name": "",
          "type": "uint256"
        }
      ],
      "stateMutability": "view",
      "type": "function"
    },
    {
      "inputs": [
        {
          "internalType": "bytes32",
          "name": "role",
          "type": "bytes32"
        },
        {
          "internalType": "address",
          "name": "account",
          "type": "address"
        }
      ],
      "name": "grantRole",
      "outputs": [],
      "stateMutability": "nonpayable",
      "type": "function"
    },
    {
      "inputs": [
        {
          "internalType": "bytes32",
          "name": "role",
          "type": "bytes32"
        },
        {
          "internalType": "address",
          "name": "account",
          "type": "address"
        }
      ],
      "name": "hasRole",
      "outputs": [
        {
          "internalType": "bool",
          "name": "",
          "type": "bool"
        }
      ],
      "stateMutability": "view",
      "type": "function"
    },
    {
      "inputs": [
        {
          "internalType": "string",
          "name": "",
          "type": "string"
        }
      ],
      "name": "haveAdapter",
      "outputs": [
        {
          "internalType": "bool",
          "name": "",
          "type": "bool"
        }
      ],
      "stateMutability": "view",
      "type": "function"
    },
    {
      "inputs": [
        {
          "internalType": "address",
          "name": "_liquidStaking",
          "type": "address"
        }
      ],
      "name": "initialize",
      "outputs": [],
      "stateMutability": "nonpayable",
      "type": "function"
    },
    {
      "inputs": [],
      "name": "liquidStaking",
      "outputs": [
        {
          "internalType": "contract ILiquidStaking",
          "name": "",
          "type": "address"
        }
      ],
      "stateMutability": "view",
      "type": "function"
    },
    {
      "inputs": [],
      "name": "nftDistr",
      "outputs": [
        {
          "internalType": "contract NFTDistributor",
          "name": "",
          "type": "address"
        }
      ],
      "stateMutability": "view",
      "type": "function"
    },
    {
      "inputs": [
        {
          "internalType": "string",
          "name": "_utility",
          "type": "string"
        }
      ],
      "name": "removeAdapter",
      "outputs": [],
      "stateMutability": "nonpayable",
      "type": "function"
    },
    {
      "inputs": [
        {
          "internalType": "bytes32",
          "name": "role",
          "type": "bytes32"
        },
        {
          "internalType": "address",
          "name": "account",
          "type": "address"
        }
      ],
      "name": "renounceRole",
      "outputs": [],
      "stateMutability": "nonpayable",
      "type": "function"
    },
    {
      "inputs": [
        {
          "internalType": "bytes32",
          "name": "role",
          "type": "bytes32"
        },
        {
          "internalType": "address",
          "name": "account",
          "type": "address"
        }
      ],
      "name": "revokeRole",
      "outputs": [],
      "stateMutability": "nonpayable",
      "type": "function"
    },
    {
      "inputs": [
        {
          "internalType": "address",
          "name": "_nftDistr",
          "type": "address"
        }
      ],
      "name": "setNftDistributor",
      "outputs": [],
      "stateMutability": "nonpayable",
      "type": "function"
    },
    {
      "inputs": [
        {
          "internalType": "bytes4",
          "name": "interfaceId",
          "type": "bytes4"
        }
      ],
      "name": "supportsInterface",
      "outputs": [
        {
          "internalType": "bool",
          "name": "",
          "type": "bool"
        }
      ],
      "stateMutability": "view",
      "type": "function"
    },
    {
      "inputs": [],
      "name": "totalAmount",
      "outputs": [
        {
          "internalType": "uint256",
          "name": "",
          "type": "uint256"
        }
      ],
      "stateMutability": "view",
      "type": "function"
    },
    {
      "inputs": [
        {
          "internalType": "string",
          "name": "_adapter",
          "type": "string"
        },
        {
          "internalType": "address",
          "name": "user",
          "type": "address"
        },
        {
          "internalType": "uint256",
          "name": "amountAfter",
          "type": "uint256"
        }
      ],
      "name": "updateBalanceInAdapter",
      "outputs": [],
      "stateMutability": "nonpayable",
      "type": "function"
    },
    {
      "inputs": [],
      "name": "updateBalances",
      "outputs": [],
      "stateMutability": "nonpayable",
      "type": "function"
    },
    {
      "inputs": [],
      "name": "utilName",
      "outputs": [
        {
          "internalType": "string",
          "name": "",
          "type": "string"
        }
      ],
      "stateMutability": "view",
      "type": "function"
    }
  ],
  "bytecode": {
    "object": "0x608060405234801561001057600080fd5b5061001961001e565b6100de565b600054610100900460ff161561008a5760405162461bcd60e51b815260206004820152602760248201527f496e697469616c697a61626c653a20636f6e747261637420697320696e697469604482015266616c697a696e6760c81b606482015260840160405180910390fd5b60005460ff90811610156100dc576000805460ff191660ff9081179091556040519081527f7f26b83ff96e1f2b6a682f133852f6798a09c465da95921460cefb38474024989060200160405180910390a15b565b611aa8806100ed6000396000f3fe608060405234801561001057600080fd5b50600436106101735760003560e01c806386e09b0e116100de578063bd1bbd3b11610097578063d547741f11610071578063d547741f1461038c578063e189091c1461039f578063e911a628146103a7578063ee623987146103d257600080fd5b8063bd1bbd3b14610353578063c4d66de814610366578063cfc1ef771461037957600080fd5b806386e09b0e146102a857806391d14854146102d1578063a217fddf146102e4578063ab486929146102ec578063b825b1f8146102f4578063b84f5d1e1461030757600080fd5b80632f2ff15d116101305780632f2ff15d1461021957806336568abe1461022c5780633ef11fd71461023f57806355639859146102525780636f3fe404146102725780637545efa81461027a57600080fd5b806301ffc9a714610178578063062bf53d146101a0578063121193f0146101b55780631a39d8ef146101d85780631b2df850146101e1578063248a9ca3146101f6575b600080fd5b61018b610186366004611645565b6103e5565b60405190151581526020015b60405180910390f35b6101b36101ae3660046115b6565b61041c565b005b6101ca600080516020611a5383398151915281565b604051908152602001610197565b6101ca609a5481565b6101ca600080516020611a3383398151915281565b6101ca610204366004611602565b60009081526065602052604090206001015490565b6101b361022736600461161a565b6105e4565b6101b361023a36600461161a565b610609565b6101b361024d36600461166d565b610687565b610265610260366004611602565b6108a8565b604051610197919061188c565b6101b3610954565b61018b61028836600461166d565b8051602081830181018051609d8252928201919093012091525460ff1681565b6101ca6102b636600461159c565b6001600160a01b03166000908152609b602052604090205490565b61018b6102df36600461161a565b610aee565b6101ca600081565b610265610b19565b6101b36103023660046116a8565b610b26565b61033b61031536600461166d565b8051602081830181018051609c825292820191909301209152546001600160a01b031681565b6040516001600160a01b039091168152602001610197565b60985461033b906001600160a01b031681565b6101b361037436600461159c565b610b49565b60975461033b906001600160a01b031681565b6101b361039a36600461161a565b610cc7565b6101ca610cec565b6101ca6103b536600461166d565b8051602081830181018051609e8252928201919093012091525481565b6101b36103e036600461159c565b610de2565b60006001600160e01b03198216637965db0b60e01b148061041657506301ffc9a760e01b6001600160e01b03198316145b92915050565b600080516020611a3383398151915261043481610e10565b6001600160a01b0383166104835760405162461bcd60e51b8152602060048201526011602482015270496e636f7272656374206164647265737360781b60448201526064015b60405180910390fd5b609d82604051610493919061178c565b9081526040519081900360200190205460ff16156104ea5760405162461bcd60e51b815260206004820152601460248201527320b63932b0b23c903430bb329030b230b83a32b960611b604482015260640161047a565b6001609d836040516104fc919061178c565b908152604051908190036020018120805492151560ff1990931692909217909155609f5490609e9061052f90859061178c565b9081526040516020918190038201902091909155609f80546001810182556000919091528351610586927f0bc14066c33013fe88f66e314e4cf150b0b2d4d6451a1a51dbbd1c27cd11de28909201918501906113af565b5082609c83604051610598919061178c565b90815260405190819003602001902080546001600160a01b03929092166001600160a01b03199092169190911790556105df600080516020611a5383398151915284610e1d565b505050565b6000828152606560205260409020600101546105ff81610e10565b6105df8383610e1d565b6001600160a01b03811633146106795760405162461bcd60e51b815260206004820152602f60248201527f416363657373436f6e74726f6c3a2063616e206f6e6c792072656e6f756e636560448201526e103937b632b9903337b91039b2b63360891b606482015260840161047a565b6106838282610ea3565b5050565b600080516020611a3383398151915261069f81610e10565b609d826040516106af919061178c565b9081526040519081900360200190205460ff166107025760405162461bcd60e51b81526020600482015260116024820152701059185c1d195c881b9bdd08199bdd5b99607a1b604482015260640161047a565b6000609c83604051610714919061178c565b908152604051908190036020018120546001600160a01b03169150600090609d9061074090869061178c565b908152604051908190036020018120805492151560ff1990931692909217909155600090609e9061077290869061178c565b9081526020016040518091039020549050609f6001609f805490506107979190611956565b815481106107b557634e487b7160e01b600052603260045260246000fd5b90600052602060002001609f82815481106107e057634e487b7160e01b600052603260045260246000fd5b906000526020600020019080546107f6906119b0565b610801929190611433565b5080609e609f838154811061082657634e487b7160e01b600052603260045260246000fd5b9060005260206000200160405161083d91906117a8565b90815260405190819003602001902055609f80548061086c57634e487b7160e01b600052603160045260246000fd5b60019003818190600052602060002001600061088891906114ae565b90556108a2600080516020611a5383398151915283610ea3565b50505050565b609f81815481106108b857600080fd5b9060005260206000200160009150905080546108d3906119b0565b80601f01602080910402602001604051908101604052809291908181526020018280546108ff906119b0565b801561094c5780601f106109215761010080835404028352916020019161094c565b820191906000526020600020905b81548152906001019060200180831161092f57829003601f168201915b505050505081565b609f5460005b8181101561068357610adc609f828154811061098657634e487b7160e01b600052603260045260246000fd5b90600052602060002001805461099b906119b0565b80601f01602080910402602001604051908101604052809291908181526020018280546109c7906119b0565b8015610a145780601f106109e957610100808354040283529160200191610a14565b820191906000526020600020905b8154815290600101906020018083116109f757829003601f168201915b505050505033609c609f8581548110610a3d57634e487b7160e01b600052603260045260246000fd5b90600052602060002001604051610a5491906117a8565b90815260405190819003602001812054630419c05b60e11b82523360048301526001600160a01b03169063083380b69060240160206040518083038186803b158015610a9f57600080fd5b505afa158015610ab3573d6000803e3d6000fd5b505050506040513d601f19601f82011682018060405250810190610ad791906116fd565b610f0a565b80610ae6816119eb565b91505061095a565b60009182526065602090815260408084206001600160a01b0393909316845291905290205460ff1690565b609980546108d3906119b0565b600080516020611a53833981519152610b3e81610e10565b6108a2848484610f0a565b600054610100900460ff1615808015610b695750600054600160ff909116105b80610b835750303b158015610b83575060005460ff166001145b610be65760405162461bcd60e51b815260206004820152602e60248201527f496e697469616c697a61626c653a20636f6e747261637420697320616c72656160448201526d191e481a5b9a5d1a585b1a5e995960921b606482015260840161047a565b6000805460ff191660011790558015610c09576000805461ff0019166101001790555b609780546001600160a01b0319166001600160a01b03841617905560408051808201909152600f8082526e41646170746572735574696c69747960881b6020909201918252610c5a916099916113af565b50610c66600033610e1d565b610c7e600080516020611a3383398151915233610e1d565b8015610683576000805461ff0019169055604051600181527f7f26b83ff96e1f2b6a682f133852f6798a09c465da95921460cefb38474024989060200160405180910390a15050565b600082815260656020526040902060010154610ce281610e10565b6105df8383610ea3565b609f54600090815b81811015610ddd576000609c609f8381548110610d2157634e487b7160e01b600052603260045260246000fd5b90600052602060002001604051610d3891906117a8565b908152604080516020928190038301812054630d0fd91960e11b825291516001600160a01b0390921693508392631a1fb23292600480840193829003018186803b158015610d8557600080fd5b505afa158015610d99573d6000803e3d6000fd5b505050506040513d601f19601f82011682018060405250810190610dbd91906116fd565b610dc7908561191f565b9350508080610dd5906119eb565b915050610cf4565b505090565b6000610ded81610e10565b50609880546001600160a01b0319166001600160a01b0392909216919091179055565b610e1a8133611162565b50565b610e278282610aee565b6106835760008281526065602090815260408083206001600160a01b03851684529091529020805460ff19166001179055610e5f3390565b6001600160a01b0316816001600160a01b0316837f2f8788117e7eff1d82e926ec794901d17c78024a50270940304540a733656f0d60405160405180910390a45050565b610ead8282610aee565b156106835760008281526065602090815260408083206001600160a01b0385168085529252808320805460ff1916905551339285917ff6391f5c32d9c69d2a47ea670b442974b53935d1edc7fd64eb21e047a839171b9190a45050565b6000609c84604051610f1c919061178c565b90815260200160405180910390206001016000846001600160a01b03166001600160a01b0316815260200190815260200160002054905081811415610f615750505050565b8082609a54610f70919061191f565b610f7a9190611956565b609a556001600160a01b0383166000908152609b60205260409020548190610fa390849061191f565b610fad9190611956565b6001600160a01b0384166000908152609b60205260409081902091909155518290609c90610fdc90879061178c565b90815260408051602092819003830190206001600160a01b0387166000908152600190910190925290205580821115611085576098546001600160a01b031663f42ff803609960008661102f8688611956565b6040518563ffffffff1660e01b815260040161104e94939291906118e9565b600060405180830381600087803b15801561106857600080fd5b505af115801561107c573d6000803e3d6000fd5b505050506110f7565b6098546001600160a01b031663f42ff80360998560006110a58787611956565b6040518563ffffffff1660e01b81526004016110c494939291906118e9565b600060405180830381600087803b1580156110de57600080fd5b505af11580156110f2573d6000803e3d6000fd5b505050505b6097546040516331e1cc7760e21b81526001600160a01b039091169063c78731dc9061112a9060999087906004016118bf565b600060405180830381600087803b15801561114457600080fd5b505af1158015611158573d6000803e3d6000fd5b5050505050505050565b61116c8282610aee565b61068357611184816001600160a01b031660146111c6565b61118f8360206111c6565b6040516020016111a0929190611817565b60408051601f198184030181529082905262461bcd60e51b825261047a9160040161188c565b606060006111d5836002611937565b6111e090600261191f565b67ffffffffffffffff81111561120657634e487b7160e01b600052604160045260246000fd5b6040519080825280601f01601f191660200182016040528015611230576020820181803683370190505b509050600360fc1b8160008151811061125957634e487b7160e01b600052603260045260246000fd5b60200101906001600160f81b031916908160001a905350600f60fb1b8160018151811061129657634e487b7160e01b600052603260045260246000fd5b60200101906001600160f81b031916908160001a90535060006112ba846002611937565b6112c590600161191f565b90505b6001811115611359576f181899199a1a9b1b9c1cb0b131b232b360811b85600f166010811061130757634e487b7160e01b600052603260045260246000fd5b1a60f81b82828151811061132b57634e487b7160e01b600052603260045260246000fd5b60200101906001600160f81b031916908160001a90535060049490941c9361135281611999565b90506112c8565b5083156113a85760405162461bcd60e51b815260206004820181905260248201527f537472696e67733a20686578206c656e67746820696e73756666696369656e74604482015260640161047a565b9392505050565b8280546113bb906119b0565b90600052602060002090601f0160209004810192826113dd5760008555611423565b82601f106113f657805160ff1916838001178555611423565b82800160010185558215611423579182015b82811115611423578251825591602001919060010190611408565b5061142f9291506114e4565b5090565b82805461143f906119b0565b90600052602060002090601f0160209004810192826114615760008555611423565b82601f106114725780548555611423565b8280016001018555821561142357600052602060002091601f016020900482015b82811115611423578254825591600101919060010190611493565b5080546114ba906119b0565b6000825580601f106114ca575050565b601f016020900490600052602060002090810190610e1a91905b5b8082111561142f57600081556001016114e5565b80356001600160a01b038116811461151057600080fd5b919050565b600082601f830112611525578081fd5b813567ffffffffffffffff8082111561154057611540611a1c565b604051601f8301601f19908116603f0116810190828211818310171561156857611568611a1c565b81604052838152866020858801011115611580578485fd5b8360208701602083013792830160200193909352509392505050565b6000602082840312156115ad578081fd5b6113a8826114f9565b600080604083850312156115c8578081fd5b6115d1836114f9565b9150602083013567ffffffffffffffff8111156115ec578182fd5b6115f885828601611515565b9150509250929050565b600060208284031215611613578081fd5b5035919050565b6000806040838503121561162c578182fd5b8235915061163c602084016114f9565b90509250929050565b600060208284031215611656578081fd5b81356001600160e01b0319811681146113a8578182fd5b60006020828403121561167e578081fd5b813567ffffffffffffffff811115611694578182fd5b6116a084828501611515565b949350505050565b6000806000606084860312156116bc578081fd5b833567ffffffffffffffff8111156116d2578182fd5b6116de86828701611515565b9350506116ed602085016114f9565b9150604084013590509250925092565b60006020828403121561170e578081fd5b5051919050565b60008154611722816119b0565b80855260206001838116801561173f576001811461175357611781565b60ff19851688840152604088019550611781565b866000528260002060005b858110156117795781548a820186015290830190840161175e565b890184019650505b505050505092915050565b6000825161179e81846020870161196d565b9190910192915050565b60008083546117b6816119b0565b600182811680156117ce57600181146117df5761180b565b60ff1984168752828701945061180b565b8786526020808720875b858110156118025781548a8201529084019082016117e9565b50505082870194505b50929695505050505050565b7f416363657373436f6e74726f6c3a206163636f756e742000000000000000000081526000835161184f81601785016020880161196d565b7001034b99036b4b9b9b4b733903937b6329607d1b601791840191820152835161188081602884016020880161196d565b01602801949350505050565b60208152600082518060208401526118ab81604085016020870161196d565b601f01601f19169190910160400192915050565b6040815260006118d26040830185611715565b905060018060a01b03831660208301529392505050565b6080815260006118fc6080830187611715565b6001600160a01b0395861660208401529390941660408201526060015292915050565b6000821982111561193257611932611a06565b500190565b600081600019048311821515161561195157611951611a06565b500290565b60008282101561196857611968611a06565b500390565b60005b83811015611988578181015183820152602001611970565b838111156108a25750506000910152565b6000816119a8576119a8611a06565b506000190190565b600181811c908216806119c457607f821691505b602082108114156119e557634e487b7160e01b600052602260045260246000fd5b50919050565b60006000198214156119ff576119ff611a06565b5060010190565b634e487b7160e01b600052601160045260246000fd5b634e487b7160e01b600052604160045260246000fdfeaf290d8680820aad922855f39b306097b20e28774d6c1ad35a20325630c3a02c71d8ae6a51fa86ac5153cb7dbfc1d174e0ce1dbd51710446fa5a3b7aee37423fa2646970667358221220f11ee10c5a74417d8898bccc7bd01ed3d1233116263a6d9b4c26e8eb191873e564736f6c63430008040033",
    "linkReferences": {}
  },
  "methodIdentifiers": {
    "ADAPTER()": "121193f0",
    "DEFAULT_ADMIN_ROLE()": "a217fddf",
    "MANAGER()": "1b2df850",
    "adapterId(string)": "e911a628",
    "adapters(string)": "b84f5d1e",
    "adaptersList(uint256)": "55639859",
    "addAdapter(address,string)": "062bf53d",
    "getRoleAdmin(bytes32)": "248a9ca3",
    "getTotalASTR()": "e189091c",
    "getUserBalanceInAdapters(address)": "86e09b0e",
    "grantRole(bytes32,address)": "2f2ff15d",
    "hasRole(bytes32,address)": "91d14854",
    "haveAdapter(string)": "7545efa8",
    "initialize(address)": "c4d66de8",
    "liquidStaking()": "cfc1ef77",
    "nftDistr()": "bd1bbd3b",
    "removeAdapter(string)": "3ef11fd7",
    "renounceRole(bytes32,address)": "36568abe",
    "revokeRole(bytes32,address)": "d547741f",
    "setNftDistributor(address)": "ee623987",
    "supportsInterface(bytes4)": "01ffc9a7",
    "totalAmount()": "1a39d8ef",
    "updateBalanceInAdapter(string,address,uint256)": "b825b1f8",
    "updateBalances()": "6f3fe404",
    "utilName()": "ab486929"
  },
  "id": 1
}