{
  "abi": [
    {
      "inputs": [
        {
          "internalType": "contract ISio2LendingPool",
          "name": "_pool",
          "type": "address"
        },
        {
          "internalType": "contract Sio2Adapter",
          "name": "_adapter",
          "type": "address"
        },
        {
          "internalType": "contract Sio2AdapterAssetManager",
          "name": "_assetManager",
          "type": "address"
        },
        {
          "internalType": "contract ISio2LendingPoolAddressesProvider",
          "name": "_provider",
          "type": "address"
        },
        {
          "internalType": "contract Sio2AdapterData",
          "name": "_data",
          "type": "address"
        },
        {
          "internalType": "address",
          "name": "_nastrAddr",
          "type": "address"
        }
      ],
      "stateMutability": "nonpayable",
      "type": "constructor"
    },
    {
      "anonymous": false,
      "inputs": [
        {
          "indexed": true,
          "internalType": "bytes32",
          "name": "role",
          "type": "bytes32"
        },
        {
          "indexed": true,
          "internalType": "bytes32",
          "name": "previousAdminRole",
          "type": "bytes32"
        },
        {
          "indexed": true,
          "internalType": "bytes32",
          "name": "newAdminRole",
          "type": "bytes32"
        }
      ],
      "name": "RoleAdminChanged",
      "type": "event"
    },
    {
      "anonymous": false,
      "inputs": [
        {
          "indexed": true,
          "internalType": "bytes32",
          "name": "role",
          "type": "bytes32"
        },
        {
          "indexed": true,
          "internalType": "address",
          "name": "account",
          "type": "address"
        },
        {
          "indexed": true,
          "internalType": "address",
          "name": "sender",
          "type": "address"
        }
      ],
      "name": "RoleGranted",
      "type": "event"
    },
    {
      "anonymous": false,
      "inputs": [
        {
          "indexed": true,
          "internalType": "bytes32",
          "name": "role",
          "type": "bytes32"
        },
        {
          "indexed": true,
          "internalType": "address",
          "name": "account",
          "type": "address"
        },
        {
          "indexed": true,
          "internalType": "address",
          "name": "sender",
          "type": "address"
        }
      ],
      "name": "RoleRevoked",
      "type": "event"
    },
    {
      "anonymous": false,
      "inputs": [
        {
          "indexed": false,
          "internalType": "address",
          "name": "caller",
          "type": "address"
        }
      ],
      "name": "SomeEvent",
      "type": "event"
    },
    {
      "anonymous": false,
      "inputs": [
        {
          "indexed": false,
          "internalType": "address",
          "name": "caller",
          "type": "address"
        },
        {
          "indexed": false,
          "internalType": "uint256",
          "name": "amount",
          "type": "uint256"
        }
      ],
      "name": "Withdraw",
      "type": "event"
    },
    {
      "anonymous": false,
      "inputs": [
        {
          "indexed": false,
          "internalType": "address",
          "name": "token",
          "type": "address"
        },
        {
          "indexed": false,
          "internalType": "uint256",
          "name": "amount",
          "type": "uint256"
        }
      ],
      "name": "WithdrawToken",
      "type": "event"
    },
    {
      "inputs": [],
      "name": "ADDRESSES_PROVIDER",
      "outputs": [
        {
          "internalType": "contract ISio2LendingPoolAddressesProvider",
          "name": "",
          "type": "address"
        }
      ],
      "stateMutability": "view",
      "type": "function"
    },
    {
      "inputs": [],
      "name": "DEFAULT_ADMIN_ROLE",
      "outputs": [
        {
          "internalType": "bytes32",
          "name": "",
          "type": "bytes32"
        }
      ],
      "stateMutability": "view",
      "type": "function"
    },
    {
      "inputs": [],
      "name": "FACTORY",
      "outputs": [
        {
          "internalType": "contract IArthswapFactory",
          "name": "",
          "type": "address"
        }
      ],
      "stateMutability": "view",
      "type": "function"
    },
    {
      "inputs": [],
      "name": "LENDING_POOL",
      "outputs": [
        {
          "internalType": "contract ISio2LendingPool",
          "name": "",
          "type": "address"
        }
      ],
      "stateMutability": "view",
      "type": "function"
    },
    {
      "inputs": [],
      "name": "LIQUIDATOR",
      "outputs": [
        {
          "internalType": "bytes32",
          "name": "",
          "type": "bytes32"
        }
      ],
      "stateMutability": "view",
      "type": "function"
    },
    {
      "inputs": [],
      "name": "ROUTER",
      "outputs": [
        {
          "internalType": "contract IPancakeRouter01",
          "name": "",
          "type": "address"
        }
      ],
      "stateMutability": "view",
      "type": "function"
    },
    {
      "inputs": [],
      "name": "adapter",
      "outputs": [
        {
          "internalType": "contract Sio2Adapter",
          "name": "",
          "type": "address"
        }
      ],
      "stateMutability": "view",
      "type": "function"
    },
    {
      "inputs": [
        {
          "internalType": "string",
          "name": "_name",
          "type": "string"
        }
      ],
      "name": "addrByName",
      "outputs": [
        {
          "internalType": "address",
          "name": "addr",
          "type": "address"
        }
      ],
      "stateMutability": "view",
      "type": "function"
    },
    {
      "inputs": [
        {
          "internalType": "uint256",
          "name": "",
          "type": "uint256"
        }
      ],
      "name": "amountsAfterFlashloan",
      "outputs": [
        {
          "internalType": "uint256",
          "name": "",
          "type": "uint256"
        }
      ],
      "stateMutability": "view",
      "type": "function"
    },
    {
      "inputs": [
        {
          "internalType": "uint256",
          "name": "",
          "type": "uint256"
        }
      ],
      "name": "amountsForFlashloan",
      "outputs": [
        {
          "internalType": "uint256",
          "name": "",
          "type": "uint256"
        }
      ],
      "stateMutability": "view",
      "type": "function"
    },
    {
      "inputs": [],
      "name": "assetManager",
      "outputs": [
        {
          "internalType": "contract Sio2AdapterAssetManager",
          "name": "",
          "type": "address"
        }
      ],
      "stateMutability": "view",
      "type": "function"
    },
    {
      "inputs": [
        {
          "internalType": "uint256",
          "name": "",
          "type": "uint256"
        }
      ],
      "name": "assetsAfterFlashloan",
      "outputs": [
        {
          "internalType": "address",
          "name": "",
          "type": "address"
        }
      ],
      "stateMutability": "view",
      "type": "function"
    },
    {
      "inputs": [
        {
          "internalType": "uint256",
          "name": "",
          "type": "uint256"
        }
      ],
      "name": "assetsForFlashloan",
      "outputs": [
        {
          "internalType": "address",
          "name": "",
          "type": "address"
        }
      ],
      "stateMutability": "view",
      "type": "function"
    },
    {
      "inputs": [
        {
          "internalType": "uint256",
          "name": "",
          "type": "uint256"
        }
      ],
      "name": "assetsToLiquidate",
      "outputs": [
        {
          "internalType": "string",
          "name": "name",
          "type": "string"
        },
        {
          "internalType": "uint256",
          "name": "debt",
          "type": "uint256"
        }
      ],
      "stateMutability": "view",
      "type": "function"
    },
    {
      "inputs": [],
      "name": "astrBalAfterSwap",
      "outputs": [
        {
          "internalType": "uint256",
          "name": "",
          "type": "uint256"
        }
      ],
      "stateMutability": "view",
      "type": "function"
    },
    {
      "inputs": [],
      "name": "astrBalBeforeSwap",
      "outputs": [
        {
          "internalType": "uint256",
          "name": "",
          "type": "uint256"
        }
      ],
      "stateMutability": "view",
      "type": "function"
    },
    {
      "inputs": [],
      "name": "baiAddr",
      "outputs": [
        {
          "internalType": "address",
          "name": "",
          "type": "address"
        }
      ],
      "stateMutability": "view",
      "type": "function"
    },
    {
      "inputs": [],
      "name": "bnbAddr",
      "outputs": [
        {
          "internalType": "address",
          "name": "",
          "type": "address"
        }
      ],
      "stateMutability": "view",
      "type": "function"
    },
    {
      "inputs": [],
      "name": "busdAddr",
      "outputs": [
        {
          "internalType": "address",
          "name": "",
          "type": "address"
        }
      ],
      "stateMutability": "view",
      "type": "function"
    },
    {
      "inputs": [],
      "name": "ceusdcAddr",
      "outputs": [
        {
          "internalType": "address",
          "name": "",
          "type": "address"
        }
      ],
      "stateMutability": "view",
      "type": "function"
    },
    {
      "inputs": [],
      "name": "ceusdtAddr",
      "outputs": [
        {
          "internalType": "address",
          "name": "",
          "type": "address"
        }
      ],
      "stateMutability": "view",
      "type": "function"
    },
    {
      "inputs": [
        {
          "internalType": "uint256",
          "name": "",
          "type": "uint256"
        }
      ],
      "name": "colToASTRPath",
      "outputs": [
        {
          "internalType": "address",
          "name": "",
          "type": "address"
        }
      ],
      "stateMutability": "view",
      "type": "function"
    },
    {
      "inputs": [],
      "name": "collBalAfterLiq",
      "outputs": [
        {
          "internalType": "uint256",
          "name": "",
          "type": "uint256"
        }
      ],
      "stateMutability": "view",
      "type": "function"
    },
    {
      "inputs": [],
      "name": "collBalBeforeLiq",
      "outputs": [
        {
          "internalType": "uint256",
          "name": "",
          "type": "uint256"
        }
      ],
      "stateMutability": "view",
      "type": "function"
    },
    {
      "inputs": [],
      "name": "currentUser",
      "outputs": [
        {
          "internalType": "address",
          "name": "",
          "type": "address"
        }
      ],
      "stateMutability": "view",
      "type": "function"
    },
    {
      "inputs": [],
      "name": "daiAddr",
      "outputs": [
        {
          "internalType": "address",
          "name": "",
          "type": "address"
        }
      ],
      "stateMutability": "view",
      "type": "function"
    },
    {
      "inputs": [],
      "name": "data",
      "outputs": [
        {
          "internalType": "contract Sio2AdapterData",
          "name": "",
          "type": "address"
        }
      ],
      "stateMutability": "view",
      "type": "function"
    },
    {
      "inputs": [],
      "name": "dotAddr",
      "outputs": [
        {
          "internalType": "address",
          "name": "",
          "type": "address"
        }
      ],
      "stateMutability": "view",
      "type": "function"
    },
    {
      "inputs": [],
      "name": "eventEmitting",
      "outputs": [],
      "stateMutability": "nonpayable",
      "type": "function"
    },
    {
      "inputs": [
        {
          "internalType": "address[]",
          "name": "assets",
          "type": "address[]"
        },
        {
          "internalType": "uint256[]",
          "name": "amounts",
          "type": "uint256[]"
        },
        {
          "internalType": "uint256[]",
          "name": "premiums",
          "type": "uint256[]"
        },
        {
          "internalType": "address",
          "name": "",
          "type": "address"
        },
        {
          "internalType": "bytes",
          "name": "",
          "type": "bytes"
        }
      ],
      "name": "executeOperation",
      "outputs": [
        {
          "internalType": "bool",
          "name": "",
          "type": "bool"
        }
      ],
      "stateMutability": "nonpayable",
      "type": "function"
    },
    {
      "inputs": [
        {
          "components": [
            {
              "internalType": "string",
              "name": "name",
              "type": "string"
            },
            {
              "internalType": "uint256",
              "name": "debt",
              "type": "uint256"
            }
          ],
          "internalType": "struct Liquidator.DebtAsset[]",
          "name": "_sortedDebtAssets",
          "type": "tuple[]"
        },
        {
          "internalType": "uint256",
          "name": "_totalDebtUSD",
          "type": "uint256"
        }
      ],
      "name": "fillAssetsToLiquidate",
      "outputs": [
        {
          "internalType": "address[]",
          "name": "",
          "type": "address[]"
        },
        {
          "internalType": "uint256[]",
          "name": "",
          "type": "uint256[]"
        }
      ],
      "stateMutability": "view",
      "type": "function"
    },
    {
      "inputs": [
        {
          "internalType": "address[]",
          "name": "_assets",
          "type": "address[]"
        },
        {
          "internalType": "uint256[]",
          "name": "_amounts",
          "type": "uint256[]"
        }
      ],
      "name": "flashloan",
      "outputs": [],
      "stateMutability": "nonpayable",
      "type": "function"
    },
    {
      "inputs": [
        {
          "internalType": "string",
          "name": "_name",
          "type": "string"
        },
        {
          "internalType": "uint256",
          "name": "_amount",
          "type": "uint256"
        }
      ],
      "name": "fromUSD",
      "outputs": [
        {
          "internalType": "uint256",
          "name": "",
          "type": "uint256"
        }
      ],
      "stateMutability": "view",
      "type": "function"
    },
    {
      "inputs": [],
      "name": "getAssetsAfterFlashloan",
      "outputs": [
        {
          "internalType": "address[]",
          "name": "",
          "type": "address[]"
        },
        {
          "internalType": "uint256[]",
          "name": "",
          "type": "uint256[]"
        }
      ],
      "stateMutability": "view",
      "type": "function"
    },
    {
      "inputs": [],
      "name": "getAssetsAfterFlashloanLength",
      "outputs": [
        {
          "internalType": "uint256",
          "name": "",
          "type": "uint256"
        }
      ],
      "stateMutability": "view",
      "type": "function"
    },
    {
      "inputs": [],
      "name": "getAssetsForFlashloan",
      "outputs": [
        {
          "internalType": "address[]",
          "name": "",
          "type": "address[]"
        },
        {
          "internalType": "uint256[]",
          "name": "",
          "type": "uint256[]"
        }
      ],
      "stateMutability": "view",
      "type": "function"
    },
    {
      "inputs": [],
      "name": "getAssetsForFlashloanLength",
      "outputs": [
        {
          "internalType": "uint256",
          "name": "",
          "type": "uint256"
        }
      ],
      "stateMutability": "view",
      "type": "function"
    },
    {
      "inputs": [
        {
          "components": [
            {
              "internalType": "string",
              "name": "name",
              "type": "string"
            },
            {
              "internalType": "uint256",
              "name": "debt",
              "type": "uint256"
            }
          ],
          "internalType": "struct Liquidator.DebtAsset",
          "name": "_asset",
          "type": "tuple"
        }
      ],
      "name": "getPriceUSD",
      "outputs": [
        {
          "internalType": "uint256",
          "name": "",
          "type": "uint256"
        }
      ],
      "stateMutability": "view",
      "type": "function"
    },
    {
      "inputs": [
        {
          "internalType": "bytes32",
          "name": "role",
          "type": "bytes32"
        }
      ],
      "name": "getRoleAdmin",
      "outputs": [
        {
          "internalType": "bytes32",
          "name": "",
          "type": "bytes32"
        }
      ],
      "stateMutability": "view",
      "type": "function"
    },
    {
      "inputs": [
        {
          "internalType": "bytes32",
          "name": "role",
          "type": "bytes32"
        },
        {
          "internalType": "address",
          "name": "account",
          "type": "address"
        }
      ],
      "name": "grantRole",
      "outputs": [],
      "stateMutability": "nonpayable",
      "type": "function"
    },
    {
      "inputs": [
        {
          "internalType": "bytes32",
          "name": "role",
          "type": "bytes32"
        },
        {
          "internalType": "address",
          "name": "account",
          "type": "address"
        }
      ],
      "name": "hasRole",
      "outputs": [
        {
          "internalType": "bool",
          "name": "",
          "type": "bool"
        }
      ],
      "stateMutability": "view",
      "type": "function"
    },
    {
      "inputs": [
        {
          "internalType": "address",
          "name": "_user",
          "type": "address"
        }
      ],
      "name": "liquidate",
      "outputs": [],
      "stateMutability": "nonpayable",
      "type": "function"
    },
    {
      "inputs": [
        {
          "internalType": "string[]",
          "name": "_names",
          "type": "string[]"
        },
        {
          "internalType": "uint256[]",
          "name": "_debts",
          "type": "uint256[]"
        }
      ],
      "name": "mergeArraysAndCalcSumUSD",
      "outputs": [
        {
          "components": [
            {
              "internalType": "string",
              "name": "name",
              "type": "string"
            },
            {
              "internalType": "uint256",
              "name": "debt",
              "type": "uint256"
            }
          ],
          "internalType": "struct Liquidator.DebtAsset[]",
          "name": "",
          "type": "tuple[]"
        },
        {
          "internalType": "uint256",
          "name": "",
          "type": "uint256"
        }
      ],
      "stateMutability": "view",
      "type": "function"
    },
    {
      "inputs": [],
      "name": "nastrAddr",
      "outputs": [
        {
          "internalType": "address",
          "name": "",
          "type": "address"
        }
      ],
      "stateMutability": "view",
      "type": "function"
    },
    {
      "inputs": [
        {
          "internalType": "address",
          "name": "",
          "type": "address"
        },
        {
          "internalType": "address",
          "name": "",
          "type": "address"
        },
        {
          "internalType": "uint256",
          "name": "",
          "type": "uint256"
        }
      ],
      "name": "pairToPath",
      "outputs": [
        {
          "internalType": "address",
          "name": "",
          "type": "address"
        }
      ],
      "stateMutability": "view",
      "type": "function"
    },
    {
      "inputs": [],
      "name": "pool",
      "outputs": [
        {
          "internalType": "contract ISio2LendingPool",
          "name": "",
          "type": "address"
        }
      ],
      "stateMutability": "view",
      "type": "function"
    },
    {
      "inputs": [
        {
          "internalType": "bytes32",
          "name": "role",
          "type": "bytes32"
        },
        {
          "internalType": "address",
          "name": "account",
          "type": "address"
        }
      ],
      "name": "renounceRole",
      "outputs": [],
      "stateMutability": "nonpayable",
      "type": "function"
    },
    {
      "inputs": [
        {
          "internalType": "bytes32",
          "name": "role",
          "type": "bytes32"
        },
        {
          "internalType": "address",
          "name": "account",
          "type": "address"
        }
      ],
      "name": "revokeRole",
      "outputs": [],
      "stateMutability": "nonpayable",
      "type": "function"
    },
    {
      "inputs": [
        {
          "internalType": "address",
          "name": "tokenA",
          "type": "address"
        },
        {
          "internalType": "address",
          "name": "tokenB",
          "type": "address"
        },
        {
          "internalType": "address[]",
          "name": "path",
          "type": "address[]"
        }
      ],
      "name": "setPath",
      "outputs": [],
      "stateMutability": "nonpayable",
      "type": "function"
    },
    {
      "inputs": [
        {
          "internalType": "bytes4",
          "name": "interfaceId",
          "type": "bytes4"
        }
      ],
      "name": "supportsInterface",
      "outputs": [
        {
          "internalType": "bool",
          "name": "",
          "type": "bool"
        }
      ],
      "stateMutability": "view",
      "type": "function"
    },
    {
      "inputs": [],
      "name": "swapCollateralToASTR",
      "outputs": [],
      "stateMutability": "nonpayable",
      "type": "function"
    },
    {
      "inputs": [
        {
          "components": [
            {
              "internalType": "string",
              "name": "name",
              "type": "string"
            },
            {
              "internalType": "uint256",
              "name": "debt",
              "type": "uint256"
            }
          ],
          "internalType": "struct Liquidator.DebtAsset[]",
          "name": "_assets",
          "type": "tuple[]"
        }
      ],
      "name": "toDescendingOrder",
      "outputs": [
        {
          "components": [
            {
              "internalType": "string",
              "name": "name",
              "type": "string"
            },
            {
              "internalType": "uint256",
              "name": "debt",
              "type": "uint256"
            }
          ],
          "internalType": "struct Liquidator.DebtAsset[]",
          "name": "assets",
          "type": "tuple[]"
        }
      ],
      "stateMutability": "view",
      "type": "function"
    },
    {
      "inputs": [],
      "name": "totalDebtUSDglobal",
      "outputs": [
        {
          "internalType": "uint256",
          "name": "",
          "type": "uint256"
        }
      ],
      "stateMutability": "view",
      "type": "function"
    },
    {
      "inputs": [],
      "name": "wastrAddr",
      "outputs": [
        {
          "internalType": "address",
          "name": "",
          "type": "address"
        }
      ],
      "stateMutability": "view",
      "type": "function"
    },
    {
      "inputs": [],
      "name": "wbtcAddr",
      "outputs": [
        {
          "internalType": "address",
          "name": "",
          "type": "address"
        }
      ],
      "stateMutability": "view",
      "type": "function"
    },
    {
      "inputs": [],
      "name": "wethAddr",
      "outputs": [
        {
          "internalType": "address",
          "name": "",
          "type": "address"
        }
      ],
      "stateMutability": "view",
      "type": "function"
    },
    {
      "inputs": [],
      "name": "withdraw",
      "outputs": [],
      "stateMutability": "nonpayable",
      "type": "function"
    },
    {
      "inputs": [
        {
          "internalType": "address",
          "name": "token",
          "type": "address"
        },
        {
          "internalType": "uint256",
          "name": "amount",
          "type": "uint256"
        }
      ],
      "name": "withdrawToken",
      "outputs": [],
      "stateMutability": "nonpayable",
      "type": "function"
    },
    {
      "stateMutability": "payable",
      "type": "receive"
    }
  ],
  "bytecode": {
    "object": "0x60c0604052600580546001600160a01b03199081166001600160a01b03179091556006805482166000805160206200507e83398151915217905560078054821673733ebcc6df85f8266349defd0980f8ced9b45f35179055600880548216736a2d262d56735dba19dd70682b39f6be9a931d98179055600980548216733795c36e7d12a8c252a20c5a7b455f7c57b60283179055600a80548216734bf769b05e832fcdc9053fffbc78ca889acb5e1e179055600b80548216736de33698e9e9b787e09d3bd7771ef63557e148bb179055600c805482167381ecac0d6be0550a00ff064a4f9dd2400585fe9c179055600d8054821673ad543f18cff85c77e140e3e5e3c3392f6ba9d5ca179055600e8054909116737f27352d5f83db87a5a3e00f4b07cc2138d8ee521790553480156200013757600080fd5b506040516200509e3803806200509e8339810160408190526200015a916200092e565b82806001600160a01b03166080816001600160a01b031660601b81525050806001600160a01b0316630261bf8b6040518163ffffffff1660e01b815260040160206040518083038186803b158015620001b257600080fd5b505afa158015620001c7573d6000803e3d6000fd5b505050506040513d601f19601f82011682018060405250810190620001ed919062000908565b60601b6001600160601b03191660a052506200020b600033620007e6565b604051692624a8aaa4a220aa27a960b11b60208201526200024c90602a016040516020818303038152906040528051906020012033620007e660201b60201c565b600180546001600160a01b03199081166001600160a01b0389811691909117909255600280548216888416179055600380548216878416178155600f80548316858516908117909155600480549093168685161790925560408051606081018252736de33698e9e9b787e09d3bd7771ef63557e148bb8152736a2d262d56735dba19dd70682b39f6be9a931d986020808301919091526000805160206200507e833981519152828401526000948552601381528285206006549096168552949094529091206200031e92909162000887565b506040805180820182526000805160206200507e83398151915281526001600160a01b03602080830182905260065482166000908152601382528481206005549093168152919052919091206200037791600262000887565b506040805180820182526000805160206200507e833981519152815273733ebcc6df85f8266349defd0980f8ced9b45f356020808301919091526006546001600160a01b039081166000908152601383528481206007549092168152915291909120620003e691600262000887565b506040805180820182526000805160206200507e8339815191528152736a2d262d56735dba19dd70682b39f6be9a931d986020808301919091526006546001600160a01b0390811660009081526013835284812060085490921681529152919091206200045591600262000887565b506040805180820182526000805160206200507e8339815191528152733795c36e7d12a8c252a20c5a7b455f7c57b602836020808301919091526006546001600160a01b039081166000908152601383528481206009549092168152915291909120620004c491600262000887565b50604080516060810182526000805160206200507e8339815191528152736a2d262d56735dba19dd70682b39f6be9a931d98602080830191909152734bf769b05e832fcdc9053fffbc78ca889acb5e1e828401526006546001600160a01b03908116600090815260138352848120600a5490921681529152919091206200054d91600362000887565b50604080516080810182526000805160206200507e8339815191528152737f27352d5f83db87a5a3e00f4b07cc2138d8ee5260208083019190915273de2578edec4669ba7f41c5d5d2386300bcea467882840152736de33698e9e9b787e09d3bd7771ef63557e148bb60608301526006546001600160a01b03908116600090815260138352848120600b549092168152915291909120620005f091600462000887565b50604080516080810182526000805160206200507e83398151915281527375364d4f779d0bd0facd9a218c67f87dd9aff3b460208083019190915273dd90e5e87a2081dcf0391920868ebc2ffb81a1af828401527381ecac0d6be0550a00ff064a4f9dd2400585fe9c60608301526006546001600160a01b03908116600090815260138352848120600c5490921681529152919091206200069391600462000887565b50604080516080810182526000805160206200507e8339815191528152737f27352d5f83db87a5a3e00f4b07cc2138d8ee5260208083019190915273de2578edec4669ba7f41c5d5d2386300bcea46788284015273ad543f18cff85c77e140e3e5e3c3392f6ba9d5ca60608301526006546001600160a01b03908116600090815260138352848120600d5490921681529152919091206200073691600462000887565b50604080516080810182526000805160206200507e83398151915281527375364d4f779d0bd0facd9a218c67f87dd9aff3b460208083019190915273dd90e5e87a2081dcf0391920868ebc2ffb81a1af82840152737f27352d5f83db87a5a3e00f4b07cc2138d8ee5260608301526006546001600160a01b03908116600090815260138352848120600e549092168152915291909120620007d991600462000887565b50505050505050620009da565b6000828152602081815260408083206001600160a01b038516845290915290205460ff1662000883576000828152602081815260408083206001600160a01b03851684529091529020805460ff19166001179055620008423390565b6001600160a01b0316816001600160a01b0316837f2f8788117e7eff1d82e926ec794901d17c78024a50270940304540a733656f0d60405160405180910390a45b5050565b828054828255906000526020600020908101928215620008df579160200282015b82811115620008df57825182546001600160a01b0319166001600160a01b03909116178255602090920191600190910190620008a8565b50620008ed929150620008f1565b5090565b5b80821115620008ed5760008155600101620008f2565b6000602082840312156200091a578081fd5b81516200092781620009c1565b9392505050565b60008060008060008060c0878903121562000947578182fd5b86516200095481620009c1565b60208801519096506200096781620009c1565b60408801519095506200097a81620009c1565b60608801519094506200098d81620009c1565b6080880151909350620009a081620009c1565b60a0880151909250620009b381620009c1565b809150509295509295509295565b6001600160a01b0381168114620009d757600080fd5b50565b60805160601c60a05160601c61466a62000a14600039600081816109e201528181611ce3015261230401526000610410015261466a6000f3fe6080604052600436106103855760003560e01c806374b74a5e116101d1578063adf9ca0211610102578063d0c964ae116100a0578063e569d83d1161006f578063e569d83d14610ab0578063ee52a50414610ad0578063f2c78d0914610af0578063f2d5f21c14610b1057600080fd5b8063d0c964ae14610a44578063d547741f14610a64578063de3696d814610a84578063e1f1ee5314610a9a57600080fd5b8063b1dc1aac116100dc578063b1dc1aac146109b0578063b4dcfc77146109d0578063b6a635d614610a04578063b7f6055014610a2457600080fd5b8063adf9ca0214610970578063b00a769214610986578063b1988dda1461099b57600080fd5b806394217ad11161016f578063a217fddf11610149578063a217fddf146108ed578063a48a45a014610902578063a58e062214610930578063a933963c1461095057600080fd5b806394217ad11461087f5780639b9bc9741461089f5780639e281a98146108cd57600080fd5b80637ef11761116101ab5780637ef11761146107ff57806391d148541461081f578063920f5c841461083f57806392ee03341461085f57600080fd5b806374b74a5e1461079f57806374fa0a63146107bf5780637d5aa5f4146107df57600080fd5b806332fe7b26116102b65780634fe52f3e116102545780635963ddc1116102235780635963ddc11461071f5780636af13ea71461073f5780637386f0a11461075f57806373d4a13a1461077f57600080fd5b80634fe52f3e146106b457806351319b82146106ca578063554ec192146106ea57806357a8b0a11461070a57600080fd5b80633ccfd60b116102905780633ccfd60b1461061a5780633dedb8401461062f5780633f3dcc711461064f57806346b887961461067257600080fd5b806332fe7b26146105b257806335354bb7146105da57806336568abe146105fa57600080fd5b80631e90cb08116103235780632dd31000116102fd5780632dd310001461051d5780632f2ff15d146105455780632f8655681461056557806330be62581461058557600080fd5b80631e90cb08146104c2578063248a9ca3146104d857806328ccaddd1461050857600080fd5b8063055227a11161035f578063055227a11461043257806316f0115b146104545780631c29f303146104745780631d93aa361461049457600080fd5b806301ffc9a71461039157806303eadcfc146103c65780630542975c146103fe57600080fd5b3661038c57005b600080fd5b34801561039d57600080fd5b506103b16103ac366004613efc565b610b25565b60405190151581526020015b60405180910390f35b3480156103d257600080fd5b506002546103e6906001600160a01b031681565b6040516001600160a01b0390911681526020016103bd565b34801561040a57600080fd5b506103e67f000000000000000000000000000000000000000000000000000000000000000081565b34801561043e57600080fd5b5061045261044d366004613a44565b610b5c565b005b34801561046057600080fd5b506001546103e6906001600160a01b031681565b34801561048057600080fd5b506009546103e6906001600160a01b031681565b3480156104a057600080fd5b506104b46104af366004613fbb565b610c5a565b6040519081526020016103bd565b3480156104ce57600080fd5b506104b460185481565b3480156104e457600080fd5b506104b46104f3366004613eb5565b60009081526020819052604090206001015490565b34801561051457600080fd5b50610452610cfc565b34801561052957600080fd5b506103e673a9473608514457b4bf083f9045fa63ae5810a03e81565b34801561055157600080fd5b50610452610560366004613ecd565b610d31565b34801561057157600080fd5b50610452610580366004613a0c565b610d5b565b34801561059157600080fd5b506105a56105a0366004613def565b611080565b6040516103bd919061435f565b3480156105be57600080fd5b506103e673e915d2393a08a00c5a463053edd31bae2199b9e781565b3480156105e657600080fd5b506103e66105f5366004613aa3565b611209565b34801561060657600080fd5b50610452610615366004613ecd565b61124e565b34801561062657600080fd5b506104526112cc565b34801561063b57600080fd5b506104b461064a366004613eb5565b61137f565b34801561065b57600080fd5b506106646113a0565b6040516103bd929190614331565b34801561067e57600080fd5b506104b4604051692624a8aaa4a220aa27a960b11b6020820152602a016040516020818303038152906040528051906020012081565b3480156106c057600080fd5b506104b460175481565b3480156106d657600080fd5b50600f546103e6906001600160a01b031681565b3480156106f657600080fd5b506104b4610705366004613f88565b61145d565b34801561071657600080fd5b506019546104b4565b34801561072b57600080fd5b506005546103e6906001600160a01b031681565b34801561074b57600080fd5b506007546103e6906001600160a01b031681565b34801561076b57600080fd5b506103e661077a366004613eb5565b6114ff565b34801561078b57600080fd5b506004546103e6906001600160a01b031681565b3480156107ab57600080fd5b506006546103e6906001600160a01b031681565b3480156107cb57600080fd5b50600b546103e6906001600160a01b031681565b3480156107eb57600080fd5b50600c546103e6906001600160a01b031681565b34801561080b57600080fd5b50600d546103e6906001600160a01b031681565b34801561082b57600080fd5b506103b161083a366004613ecd565b611529565b34801561084b57600080fd5b506103b161085a366004613b0e565b611552565b34801561086b57600080fd5b506010546103e6906001600160a01b031681565b34801561088b57600080fd5b506003546103e6906001600160a01b031681565b3480156108ab57600080fd5b506108bf6108ba366004613c6a565b611d90565b6040516103bd929190614372565b3480156108d957600080fd5b506104526108e8366004613ae3565b611fdc565b3480156108f957600080fd5b506104b4600081565b34801561090e57600080fd5b5061092261091d366004613eb5565b61216a565b6040516103bd9291906143d5565b34801561093c57600080fd5b506103e661094b366004613eb5565b612226565b34801561095c57600080fd5b5061045261096b366004613c0a565b612236565b34801561097c57600080fd5b506104b460165481565b34801561099257600080fd5b50610452612380565b3480156109a757600080fd5b506106646126ac565b3480156109bc57600080fd5b506008546103e6906001600160a01b031681565b3480156109dc57600080fd5b506103e67f000000000000000000000000000000000000000000000000000000000000000081565b348015610a1057600080fd5b50610664610a1f366004613e21565b612765565b348015610a3057600080fd5b50600e546103e6906001600160a01b031681565b348015610a5057600080fd5b506103e6610a5f366004613eb5565b612c08565b348015610a7057600080fd5b50610452610a7f366004613ecd565b612c18565b348015610a9057600080fd5b506104b460155481565b348015610aa657600080fd5b506104b460145481565b348015610abc57600080fd5b506104b4610acb366004613eb5565b612c3d565b348015610adc57600080fd5b506103e6610aeb366004613f24565b612c4d565b348015610afc57600080fd5b50600a546103e6906001600160a01b031681565b348015610b1c57600080fd5b50601b546104b4565b60006001600160e01b03198216637965db0b60e01b1480610b5657506301ffc9a760e01b6001600160e01b03198316145b92915050565b6000610b6781612ce2565b6001600160a01b03841615801590610b8757506001600160a01b03831615155b610bcd5760405162461bcd60e51b81526020600482015260126024820152715a65726f206164647265737320616c61726d60701b60448201526064015b60405180910390fd5b6000825111610c1e5760405162461bcd60e51b815260206004820152601760248201527f506174682073686f756c646e277420626520656d7074790000000000000000006044820152606401610bc4565b6001600160a01b03808516600090815260136020908152604080832093871683529281529190208351610c539285019061367f565b5050505050565b60025481516000916001600160a01b03169063cd4f4a9c90610c7b90612c4d565b60208501516040516001600160e01b031960e085901b1681526001600160a01b039092166004830152602482015260440160206040518083038186803b158015610cc457600080fd5b505afa158015610cd8573d6000803e3d6000fd5b505050506040513d601f19601f82011682018060405250810190610b56919061403b565b6040513381527f62e1088ac332ffa611ac64bd5a2aef2c27de42d3c61c686ec5c53753c35c7f689060200160405180910390a1565b600082815260208190526040902060010154610d4c81612ce2565b610d568383612cef565b505050565b604051692624a8aaa4a220aa27a960b11b6020820152602a0160405160208183030381529060405280519060200120610d9381612ce2565b6004805460405163e11fffb160e01b81526001600160a01b0385811693820193909352670de0b6b3a7640000929091169063e11fffb19060240160206040518083038186803b158015610de557600080fd5b505afa158015610df9573d6000803e3d6000fd5b505050506040513d601f19601f82011682018060405250810190610e1d919061403b565b10610e625760405162461bcd60e51b81526020600482015260156024820152740a0dee640d2e640d0cac2d8e8d0f240cadcdeeaced605b1b6044820152606401610bc4565b601080546001600160a01b0319166001600160a01b0384811691821790925560035460405163cde131d560e01b81526004810192909252600092839291169063cde131d59060240160006040518083038186803b158015610ec257600080fd5b505afa158015610ed6573d6000803e3d6000fd5b505050506040513d6000823e601f3d908101601f19168201604052610efe9190810190613d25565b815191935091506000816001600160401b03811115610f2d57634e487b7160e01b600052604160045260246000fd5b604051908082528060200260200182016040528015610f7357816020015b604080518082019091526060815260006020820152815260200190600190039081610f4b5790505b5090506000610f828585611d90565b601481905590925090506000610f9783611080565b9050600080610fa68385612765565b9150915060005b8251811015611069576019838281518110610fd857634e487b7160e01b600052603260045260246000fd5b60209081029190910181015182546001810184556000938452919092200180546001600160a01b0319166001600160a01b039092169190911790558151601a9083908390811061103857634e487b7160e01b600052603260045260246000fd5b6020908102919091018101518254600181018455600093845291909220015580611061816145d8565b915050610fad565b506110748282612236565b50505050505050505050565b805181906000805b611093600184614543565b8110156112015760005b60016110a98386614543565b6110b39190614543565b8110156111eb576110f4856110c98360016144ec565b815181106110e757634e487b7160e01b600052603260045260246000fd5b6020026020010151610c5a565b6111178683815181106110e757634e487b7160e01b600052603260045260246000fd5b10156111e3576001925060008561112e83866144ec565b8151811061114c57634e487b7160e01b600052603260045260246000fd5b6020026020010151905085828151811061117657634e487b7160e01b600052603260045260246000fd5b60200260200101518683600161118c91906144ec565b815181106111aa57634e487b7160e01b600052603260045260246000fd5b6020026020010181905250808683815181106111d657634e487b7160e01b600052603260045260246000fd5b6020026020010181905250505b60010161109d565b50816111f957505050919050565b600101611088565b505050919050565b6013602052826000526040600020602052816000526040600020818154811061123157600080fd5b6000918252602090912001546001600160a01b0316925083915050565b6001600160a01b03811633146112be5760405162461bcd60e51b815260206004820152602f60248201527f416363657373436f6e74726f6c3a2063616e206f6e6c792072656e6f756e636560448201526e103937b632b9903337b91039b2b63360891b6064820152608401610bc4565b6112c88282612d73565b5050565b60006112d781612ce2565b47806113145760405162461bcd60e51b815260206004820152600c60248201526b5a65726f2062616c616e636560a01b6044820152606401610bc4565b604051339082156108fc029083906000818181858888f19350505050158015611341573d6000803e3d6000fd5b5060408051338152602081018390527f884edad9ce6fa2440d8a54cc123490eb96d2768479d49ff9c7366125a9424364910160405180910390a15050565b601a818154811061138f57600080fd5b600091825260209091200154905081565b6060806019601a818054806020026020016040519081016040528092919081815260200182805480156113fc57602002820191906000526020600020905b81546001600160a01b031681526001909101906020018083116113de575b505050505091508080548060200260200160405190810160405280929190818152602001828054801561144e57602002820191906000526020600020905b81548152602001906001019080831161143a575b50505050509050915091509091565b6002546000906001600160a01b03166387ef186a61147a85612c4d565b6040516001600160e01b031960e084901b1681526001600160a01b0390911660048201526024810185905260440160206040518083038186803b1580156114c057600080fd5b505afa1580156114d4573d6000803e3d6000fd5b505050506040513d601f19601f820116820180604052508101906114f8919061403b565b9392505050565b6019818154811061150f57600080fd5b6000918252602090912001546001600160a01b0316905081565b6000918252602082815260408084206001600160a01b0393909316845291905290205460ff1690565b6000805b8981101561161d57601b8b8b8381811061158057634e487b7160e01b600052603260045260246000fd5b90506020020160208101906115959190613a0c565b81546001810183556000928352602090922090910180546001600160a01b0319166001600160a01b03909216919091179055601c8989838181106115e957634e487b7160e01b600052603260045260246000fd5b8354600181018555600094855260209485902091909402929092013591909201555080611615816145d8565b915050611556565b50600f546040516370a0823160e01b81523060048201526001600160a01b03909116906370a082319060240160206040518083038186803b15801561166157600080fd5b505afa158015611675573d6000803e3d6000fd5b505050506040513d601f19601f82011682018060405250810190611699919061403b565b60155560005b89811015611904578a8a828181106116c757634e487b7160e01b600052603260045260246000fd5b90506020020160208101906116dc9190613a0c565b6002546001600160a01b039182169163095ea7b391168b8b8581811061171257634e487b7160e01b600052603260045260246000fd5b6040516001600160e01b031960e087901b1681526001600160a01b0390941660048501526020029190910135602483015250604401602060405180830381600087803b15801561176157600080fd5b505af1158015611775573d6000803e3d6000fd5b505050506040513d601f19601f820116820180604052508101906117999190613e95565b506002546000906001600160a01b031663fbc1f9778d8d858181106117ce57634e487b7160e01b600052603260045260246000fd5b90506020020160208101906117e39190613a0c565b6001600160a01b03166395d89b416040518163ffffffff1660e01b815260040160006040518083038186803b15801561181b57600080fd5b505afa15801561182f573d6000803e3d6000fd5b505050506040513d6000823e601f3d908101601f191682016040526118579190810190613f56565b6010546001600160a01b03168d8d8781811061188357634e487b7160e01b600052603260045260246000fd5b905060200201356040518463ffffffff1660e01b81526004016118a8939291906143a7565b602060405180830381600087803b1580156118c257600080fd5b505af11580156118d6573d6000803e3d6000fd5b505050506040513d601f19601f820116820180604052508101906118fa919061403b565b505060010161169f565b50600f546040516370a0823160e01b81523060048201526001600160a01b03909116906370a082319060240160206040518083038186803b15801561194857600080fd5b505afa15801561195c573d6000803e3d6000fd5b505050506040513d601f19601f82011682018060405250810190611980919061403b565b6016554760175561198f612380565b4760185560005b89811015611d7f5760008b8b838181106119c057634e487b7160e01b600052603260045260246000fd5b90506020020160208101906119d59190613a0c565b9050600073e915d2393a08a00c5a463053edd31bae2199b9e7631f00ca748a8a86818110611a1357634e487b7160e01b600052603260045260246000fd5b905060200201358d8d87818110611a3a57634e487b7160e01b600052603260045260246000fd5b90506020020135611a4b91906144ec565b6006546001600160a01b039081166000908152601360209081526040808320938916835292905281902090516001600160e01b031960e085901b168152611a969291906004016143e8565b60006040518083038186803b158015611aae57600080fd5b505afa158015611ac2573d6000803e3d6000fd5b505050506040513d6000823e601f3d908101601f19168201604052611aea9190810190613e63565b905073e915d2393a08a00c5a463053edd31bae2199b9e76001600160a01b031663fb3bdb4182600081518110611b3057634e487b7160e01b600052603260045260246000fd5b60200260200101518b8b87818110611b5857634e487b7160e01b600052603260045260246000fd5b905060200201358e8e88818110611b7f57634e487b7160e01b600052603260045260246000fd5b90506020020135611b9091906144ec565b6006546001600160a01b039081166000908152601360209081526040808320938a1683529290522030611bc5426104b06144ec565b6040518663ffffffff1660e01b8152600401611be49493929190614401565b6000604051808303818588803b158015611bfd57600080fd5b505af1158015611c11573d6000803e3d6000fd5b50505050506040513d6000823e601f3d908101601f19168201604052611c3a9190810190613e63565b506000898985818110611c5d57634e487b7160e01b600052603260045260246000fd5b905060200201358c8c86818110611c8457634e487b7160e01b600052603260045260246000fd5b90506020020135611c9591906144ec565b90508d8d85818110611cb757634e487b7160e01b600052603260045260246000fd5b9050602002016020810190611ccc9190613a0c565b60405163095ea7b360e01b81526001600160a01b037f00000000000000000000000000000000000000000000000000000000000000008116600483015260248201849052919091169063095ea7b390604401602060405180830381600087803b158015611d3857600080fd5b505af1158015611d4c573d6000803e3d6000fd5b505050506040513d601f19601f82011682018060405250810190611d709190613e95565b50836001019350505050611996565b5060019a9950505050505050505050565b81516060906000908180826001600160401b03811115611dc057634e487b7160e01b600052604160045260246000fd5b604051908082528060200260200182016040528015611e0657816020015b604080518082019091526060815260006020820152815260200190600190039081611dde5790505b50905060005b83811015611fce57878181518110611e3457634e487b7160e01b600052603260045260246000fd5b6020026020010151828281518110611e5c57634e487b7160e01b600052603260045260246000fd5b602002602001015160000181905250868181518110611e8b57634e487b7160e01b600052603260045260246000fd5b6020026020010151828281518110611eb357634e487b7160e01b600052603260045260246000fd5b602090810291909101810151015260025482516001600160a01b039091169063cd4f4a9c90611f0d90859085908110611efc57634e487b7160e01b600052603260045260246000fd5b602002602001015160000151612c4d565b848481518110611f2d57634e487b7160e01b600052603260045260246000fd5b6020026020010151602001516040518363ffffffff1660e01b8152600401611f6a9291906001600160a01b03929092168252602082015260400190565b60206040518083038186803b158015611f8257600080fd5b505afa158015611f96573d6000803e3d6000fd5b505050506040513d601f19601f82011682018060405250810190611fba919061403b565b611fc490846144ec565b9250600101611e0c565b5093509150505b9250929050565b6000611fe781612ce2565b6040516370a0823160e01b815230600482015282906001600160a01b038516906370a082319060240160206040518083038186803b15801561202857600080fd5b505afa15801561203c573d6000803e3d6000fd5b505050506040513d601f19601f82011682018060405250810190612060919061403b565b10156120a25760405162461bcd60e51b81526020600482015260116024820152704e6f7420656e6f75676820746f6b656e7360781b6044820152606401610bc4565b60405163a9059cbb60e01b8152336004820152602481018390526001600160a01b0384169063a9059cbb90604401602060405180830381600087803b1580156120ea57600080fd5b505af11580156120fe573d6000803e3d6000fd5b505050506040513d601f19601f820116820180604052508101906121229190613e95565b50604080516001600160a01b0385168152602081018490527f992ee874049a42cae0757a765cd7f641b6028cc35c3478bde8330bf417c3a7a9910160405180910390a1505050565b6011818154811061217a57600080fd5b906000526020600020906002020160009150905080600001805461219d9061459d565b80601f01602080910402602001604051908101604052809291908181526020018280546121c99061459d565b80156122165780601f106121eb57610100808354040283529160200191612216565b820191906000526020600020905b8154815290600101906020018083116121f957829003601f168201915b5050505050908060010154905082565b601b818154811061150f57600080fd5b60408051602081019091526000808252835130928392909181906001600160401b0381111561227557634e487b7160e01b600052604160045260246000fd5b60405190808252806020026020018201604052801561229e578160200160208202803683370190505b50905060005b87518110156122ec5760008282815181106122cf57634e487b7160e01b600052603260045260246000fd5b6020908102919091010152806122e4816145d8565b9150506122a4565b5060405163ab9c4b5d60e01b81526001600160a01b037f0000000000000000000000000000000000000000000000000000000000000000169063ab9c4b5d906123459088908b908b9087908b908b908b906004016142b3565b600060405180830381600087803b15801561235f57600080fd5b505af1158015612373573d6000803e3d6000fd5b5050505050505050505050565b600f546040516370a0823160e01b81523060048201526000916001600160a01b0316906370a082319060240160206040518083038186803b1580156123c457600080fd5b505afa1580156123d8573d6000803e3d6000fd5b505050506040513d601f19601f820116820180604052508101906123fc919061403b565b9050600061250d73e915d2393a08a00c5a463053edd31bae2199b9e76001600160a01b031663c45a01556040518163ffffffff1660e01b815260040160206040518083038186803b15801561245057600080fd5b505afa158015612464573d6000803e3d6000fd5b505050506040513d601f19601f820116820180604052508101906124889190613a28565b600f546001600160a01b039081166000908152601360209081526040808320600654909416835292815290829020805483518184028101840190945280845287939283018282801561250357602002820191906000526020600020905b81546001600160a01b031681526001909101906020018083116124e5575b5050505050612dd8565b905060008160018151811061253257634e487b7160e01b600052603260045260246000fd5b6020908102919091010151600f5460405163095ea7b360e01b815273e915d2393a08a00c5a463053edd31bae2199b9e7600482015260001960248201529192506001600160a01b03169063095ea7b390604401602060405180830381600087803b15801561259f57600080fd5b505af11580156125b3573d6000803e3d6000fd5b505050506040513d601f19601f820116820180604052508101906125d79190613e95565b50600f546001600160a01b03908116600090815260136020908152604080832060065490941683529290522073e915d2393a08a00c5a463053edd31bae2199b9e7906318cbafe5908590849030612630426104b06144ec565b6040518663ffffffff1660e01b8152600401612650959493929190614436565b600060405180830381600087803b15801561266a57600080fd5b505af115801561267e573d6000803e3d6000fd5b505050506040513d6000823e601f3d908101601f191682016040526126a69190810190613e63565b50505050565b606080601b601c818054806020026020016040519081016040528092919081815260200182805480156113fc576020028201919060005260206000209081546001600160a01b031681526001909101906020018083116113de57505050505091508080548060200260200160405190810160405280929190818152602001828054801561144e576020028201919060005260206000209081548152602001906001019080831161143a5750505050509050915091509091565b6060806000612775600285614504565b855190915060009081816001600160401b038111156127a457634e487b7160e01b600052604160045260246000fd5b6040519080825280602002602001820160405280156127cd578160200160208202803683370190505b5090506000826001600160401b038111156127f857634e487b7160e01b600052604160045260246000fd5b604051908082528060200260200182016040528015612821578160200160208202803683370190505b50905060005b83811015612a2d5760006128548b83815181106110e757634e487b7160e01b600052603260045260246000fd5b90506128608688614543565b8111612931576128898b8381518110611efc57634e487b7160e01b600052603260045260246000fd5b8483815181106128a957634e487b7160e01b600052603260045260246000fd5b60200260200101906001600160a01b031690816001600160a01b0316815250508a82815181106128e957634e487b7160e01b600052603260045260246000fd5b60200260200101516020015183838151811061291557634e487b7160e01b600052603260045260246000fd5b602090810291909101015261292a81876144ec565b9550612a17565b600061296e8c848151811061295657634e487b7160e01b600052603260045260246000fd5b602002602001015160000151888a6107059190614543565b90506129938c8481518110611efc57634e487b7160e01b600052603260045260246000fd5b8584815181106129b357634e487b7160e01b600052603260045260246000fd5b60200260200101906001600160a01b031690816001600160a01b031681525050808484815181106129f457634e487b7160e01b600052603260045260246000fd5b6020908102919091010152612a098789614543565b612a1390886144ec565b9650505b868610612a245750612a2d565b50600101612827565b506000805b84811015612a7f57828181518110612a5a57634e487b7160e01b600052603260045260246000fd5b6020026020010151600014612a775781612a73816145d8565b9250505b600101612a32565b506000816001600160401b03811115612aa857634e487b7160e01b600052604160045260246000fd5b604051908082528060200260200182016040528015612ad1578160200160208202803683370190505b5090506000826001600160401b03811115612afc57634e487b7160e01b600052604160045260246000fd5b604051908082528060200260200182016040528015612b25578160200160208202803683370190505b50905060005b83811015612bf657858181518110612b5357634e487b7160e01b600052603260045260246000fd5b6020026020010151838281518110612b7b57634e487b7160e01b600052603260045260246000fd5b60200260200101906001600160a01b031690816001600160a01b031681525050848181518110612bbb57634e487b7160e01b600052603260045260246000fd5b6020026020010151828281518110612be357634e487b7160e01b600052603260045260246000fd5b6020908102919091010152600101612b2b565b50909b909a5098505050505050505050565b6012818154811061150f57600080fd5b600082815260208190526040902060010154612c3381612ce2565b610d568383612d73565b601c818154811061138f57600080fd5b60035460405163eb4c0ae560e01b81526000916001600160a01b03169063eb4c0ae590612c7e908590600401614394565b60006040518083038186803b158015612c9657600080fd5b505afa158015612caa573d6000803e3d6000fd5b505050506040513d6000823e601f3d908101601f19168201604052612cd29190810190614053565b50959a9950505050505050505050565b612cec8133612fb6565b50565b612cf98282611529565b6112c8576000828152602081815260408083206001600160a01b03851684529091529020805460ff19166001179055612d2f3390565b6001600160a01b0316816001600160a01b0316837f2f8788117e7eff1d82e926ec794901d17c78024a50270940304540a733656f0d60405160405180910390a45050565b612d7d8282611529565b156112c8576000828152602081815260408083206001600160a01b0385168085529252808320805460ff1916905551339285917ff6391f5c32d9c69d2a47ea670b442974b53935d1edc7fd64eb21e047a839171b9190a45050565b6060600282511015612e2c5760405162461bcd60e51b815260206004820152601c60248201527f50616e63616b654c6962726172793a20494e56414c49445f50415448000000006044820152606401610bc4565b81516001600160401b03811115612e5357634e487b7160e01b600052604160045260246000fd5b604051908082528060200260200182016040528015612e7c578160200160208202803683370190505b5090508281600081518110612ea157634e487b7160e01b600052603260045260246000fd5b60200260200101818152505060005b60018351612ebe9190614543565b811015612fae57600080612f2d87868581518110612eec57634e487b7160e01b600052603260045260246000fd5b602002602001015187866001612f0291906144ec565b81518110612f2057634e487b7160e01b600052603260045260246000fd5b602002602001015161301a565b91509150612f63848481518110612f5457634e487b7160e01b600052603260045260246000fd5b602002602001015183836130ff565b84612f6f8560016144ec565b81518110612f8d57634e487b7160e01b600052603260045260246000fd5b60200260200101818152505050508080612fa6906145d8565b915050612eb0565b509392505050565b612fc08282611529565b6112c857612fd8816001600160a01b0316601461321a565b612fe383602061321a565b604051602001612ff492919061423e565b60408051601f198184030181529082905262461bcd60e51b8252610bc491600401614394565b600080600061302985856133fb565b5090506130378686866134ea565b506000806130468888886134ea565b6001600160a01b0316630902f1ac6040518163ffffffff1660e01b815260040160606040518083038186803b15801561307e57600080fd5b505afa158015613092573d6000803e3d6000fd5b505050506040513d601f19601f820116820180604052508101906130b69190613fed565b506001600160701b031691506001600160701b03169150826001600160a01b0316876001600160a01b0316146130ed5780826130f0565b81815b90999098509650505050505050565b60008084116131625760405162461bcd60e51b815260206004820152602960248201527f50616e63616b654c6962726172793a20494e53554646494349454e545f494e50604482015268155517d05353d5539560ba1b6064820152608401610bc4565b6000831180156131725750600082115b6131cd5760405162461bcd60e51b815260206004820152602660248201527f50616e63616b654c6962726172793a20494e53554646494349454e545f4c495160448201526555494449545960d01b6064820152608401610bc4565b60006131db856103e56135c3565b905060006131e982856135c3565b90506000613203836131fd886103e86135c3565b9061362a565b905061320f8183614504565b979650505050505050565b60606000613229836002614524565b6132349060026144ec565b6001600160401b0381111561325957634e487b7160e01b600052604160045260246000fd5b6040519080825280601f01601f191660200182016040528015613283576020820181803683370190505b509050600360fc1b816000815181106132ac57634e487b7160e01b600052603260045260246000fd5b60200101906001600160f81b031916908160001a905350600f60fb1b816001815181106132e957634e487b7160e01b600052603260045260246000fd5b60200101906001600160f81b031916908160001a905350600061330d846002614524565b6133189060016144ec565b90505b60018111156133ac576f181899199a1a9b1b9c1cb0b131b232b360811b85600f166010811061335a57634e487b7160e01b600052603260045260246000fd5b1a60f81b82828151811061337e57634e487b7160e01b600052603260045260246000fd5b60200101906001600160f81b031916908160001a90535060049490941c936133a581614586565b905061331b565b5083156114f85760405162461bcd60e51b815260206004820181905260248201527f537472696e67733a20686578206c656e67746820696e73756666696369656e746044820152606401610bc4565b600080826001600160a01b0316846001600160a01b0316141561346c5760405162461bcd60e51b815260206004820152602360248201527f50616e63616b654c6962726172793a204944454e544943414c5f41444452455360448201526253455360e81b6064820152608401610bc4565b826001600160a01b0316846001600160a01b03161061348c57828461348f565b83835b90925090506001600160a01b038216611fd55760405162461bcd60e51b815260206004820152601c60248201527f50616e63616b654c6962726172793a205a45524f5f41444452455353000000006044820152606401610bc4565b60008060006134f985856133fb565b6040516bffffffffffffffffffffffff19606084811b8216602084015283901b16603482015291935091508690604801604051602081830303815290604052805190602001206040516020016135a19291906001600160f81b0319815260609290921b6bffffffffffffffffffffffff1916600183015260158201527f613b36de6401276e4d938ad0db4063490e66bb3ab2e4aec17cab78a15ea7a0b6603582015260550190565b60408051601f1981840301815291905280516020909101209695505050505050565b60008115806135e7575082826135d98183614524565b92506135e59083614504565b145b610b565760405162461bcd60e51b815260206004820152601460248201527364732d6d6174682d6d756c2d6f766572666c6f7760601b6044820152606401610bc4565b60008261363783826144ec565b9150811015610b565760405162461bcd60e51b815260206004820152601460248201527364732d6d6174682d6164642d6f766572666c6f7760601b6044820152606401610bc4565b8280548282559060005260206000209081019282156136d4579160200282015b828111156136d457825182546001600160a01b0319166001600160a01b0390911617825560209092019160019091019061369f565b506136e09291506136e4565b5090565b5b808211156136e057600081556001016136e5565b60008083601f84011261370a578182fd5b5081356001600160401b03811115613720578182fd5b6020830191508360208260051b8501011115611fd557600080fd5b600082601f83011261374b578081fd5b8135602061376061375b836144a2565b614472565b80838252828201915082860187848660051b890101111561377f578586fd5b855b858110156137a65781356137948161461f565b84529284019290840190600101613781565b5090979650505050505050565b600082601f8301126137c3578081fd5b813560206137d361375b836144a2565b80838252828201915082860187848660051b89010111156137f2578586fd5b855b858110156137a65781356001600160401b03811115613811578788fd5b61381f8a87838c0101613983565b85525092840192908401906001016137f4565b600082601f830112613842578081fd5b8135602061385261375b836144a2565b80838252828201915082860187848660051b8901011115613871578586fd5b855b858110156137a657813584529284019290840190600101613873565b600082601f83011261389f578081fd5b815160206138af61375b836144a2565b80838252828201915082860187848660051b89010111156138ce578586fd5b855b858110156137a6578151845292840192908401906001016138d0565b600082601f8301126138fc578081fd5b813561390a61375b826144c5565b81815284602083860101111561391e578283fd5b816020850160208301379081016020019190915292915050565b600082601f830112613948578081fd5b815161395661375b826144c5565b81815284602083860101111561396a578283fd5b61397b82602083016020870161455a565b949350505050565b600060408284031215613994578081fd5b604051604081016001600160401b0382821081831117156139b7576139b7614609565b8160405282935084359150808211156139cf57600080fd5b506139dc858286016138ec565b825250602083013560208201525092915050565b80516001600160701b0381168114613a0757600080fd5b919050565b600060208284031215613a1d578081fd5b81356114f88161461f565b600060208284031215613a39578081fd5b81516114f88161461f565b600080600060608486031215613a58578182fd5b8335613a638161461f565b92506020840135613a738161461f565b915060408401356001600160401b03811115613a8d578182fd5b613a998682870161373b565b9150509250925092565b600080600060608486031215613ab7578081fd5b8335613ac28161461f565b92506020840135613ad28161461f565b929592945050506040919091013590565b60008060408385031215613af5578182fd5b8235613b008161461f565b946020939093013593505050565b600080600080600080600080600060a08a8c031215613b2b578687fd5b89356001600160401b0380821115613b41578889fd5b613b4d8d838e016136f9565b909b50995060208c0135915080821115613b65578889fd5b613b718d838e016136f9565b909950975060408c0135915080821115613b89578687fd5b613b958d838e016136f9565b909750955060608c01359150613baa8261461f565b90935060808b01359080821115613bbf578384fd5b818c0191508c601f830112613bd2578384fd5b813581811115613be0578485fd5b8d6020828501011115613bf1578485fd5b6020830194508093505050509295985092959850929598565b60008060408385031215613c1c578182fd5b82356001600160401b0380821115613c32578384fd5b613c3e8683870161373b565b93506020850135915080821115613c53578283fd5b50613c6085828601613832565b9150509250929050565b60008060408385031215613c7c578182fd5b82356001600160401b0380821115613c92578384fd5b818501915085601f830112613ca5578384fd5b81356020613cb561375b836144a2565b8083825282820191508286018a848660051b8901011115613cd4578889fd5b885b85811015613d0d57813587811115613cec578a8bfd5b613cfa8d87838c01016138ec565b8552509284019290840190600101613cd6565b50909750505086013592505080821115613c53578283fd5b60008060408385031215613d37578182fd5b82516001600160401b0380821115613d4d578384fd5b818501915085601f830112613d60578384fd5b81516020613d7061375b836144a2565b8083825282820191508286018a848660051b8901011115613d8f578889fd5b885b85811015613dc857815187811115613da7578a8bfd5b613db58d87838c0101613938565b8552509284019290840190600101613d91565b505091880151919650909350505080821115613de2578283fd5b50613c608582860161388f565b600060208284031215613e00578081fd5b81356001600160401b03811115613e15578182fd5b61397b848285016137b3565b60008060408385031215613e33578182fd5b82356001600160401b03811115613e48578283fd5b613e54858286016137b3565b95602094909401359450505050565b600060208284031215613e74578081fd5b81516001600160401b03811115613e89578182fd5b61397b8482850161388f565b600060208284031215613ea6578081fd5b815180151581146114f8578182fd5b600060208284031215613ec6578081fd5b5035919050565b60008060408385031215613edf578182fd5b823591506020830135613ef18161461f565b809150509250929050565b600060208284031215613f0d578081fd5b81356001600160e01b0319811681146114f8578182fd5b600060208284031215613f35578081fd5b81356001600160401b03811115613f4a578182fd5b61397b848285016138ec565b600060208284031215613f67578081fd5b81516001600160401b03811115613f7c578182fd5b61397b84828501613938565b60008060408385031215613f9a578182fd5b82356001600160401b03811115613faf578283fd5b613e54858286016138ec565b600060208284031215613fcc578081fd5b81356001600160401b03811115613fe1578182fd5b61397b84828501613983565b600080600060608486031215614001578081fd5b61400a846139f0565b9250614018602085016139f0565b9150604084015163ffffffff81168114614030578182fd5b809150509250925092565b60006020828403121561404c578081fd5b5051919050565b6000806000806000806000806000806101408b8d031215614072578384fd5b8a51995060208b01516001600160401b0381111561408e578485fd5b61409a8d828e01613938565b99505060408b01516140ab8161461f565b60608c01519098506140bc8161461f565b8097505060808b0151955060a08b0151945060c08b0151935060e08b015192506101008b015191506101208b015190509295989b9194979a5092959850565b6000815180845260208085019450808401835b838110156141335781516001600160a01b03168752958201959082019060010161410e565b509495945050505050565b6000815480845260208085019450838352808320835b838110156141335781546001600160a01b031687529582019560019182019101614154565b600081518084526020808501808196508360051b81019150828601855b858110156141d65782840389528151604081518187526141b882880182614212565b92880151968801969096525098850198935090840190600101614196565b5091979650505050505050565b6000815180845260208085019450808401835b83811015614133578151875295820195908201906001016141f6565b6000815180845261422a81602086016020860161455a565b601f01601f19169290920160200192915050565b7f416363657373436f6e74726f6c3a206163636f756e742000000000000000000081526000835161427681601785016020880161455a565b7001034b99036b4b9b9b4b733903937b6329607d1b60179184019182015283516142a781602884016020880161455a565b01602801949350505050565b600060018060a01b03808a16835260e060208401526142d560e084018a6140fb565b83810360408501526142e7818a6141e3565b905083810360608501526142fb81896141e3565b9050818716608085015283810360a08501526143178187614212565b9250505061ffff831660c083015298975050505050505050565b60408152600061434460408301856140fb565b828103602084015261435681856141e3565b95945050505050565b6020815260006114f86020830184614179565b6040815260006143856040830185614179565b90508260208301529392505050565b6020815260006114f86020830184614212565b6060815260006143ba6060830186614212565b6001600160a01b039490941660208301525060400152919050565b6040815260006143856040830185614212565b82815260406020820152600061397b604083018461413e565b84815260806020820152600061441a608083018661413e565b6001600160a01b03949094166040830152506060015292915050565b85815284602082015260a06040820152600061445560a083018661413e565b6001600160a01b0394909416606083015250608001529392505050565b604051601f8201601f191681016001600160401b038111828210171561449a5761449a614609565b604052919050565b60006001600160401b038211156144bb576144bb614609565b5060051b60200190565b60006001600160401b038211156144de576144de614609565b50601f01601f191660200190565b600082198211156144ff576144ff6145f3565b500190565b60008261451f57634e487b7160e01b81526012600452602481fd5b500490565b600081600019048311821515161561453e5761453e6145f3565b500290565b600082821015614555576145556145f3565b500390565b60005b8381101561457557818101518382015260200161455d565b838111156126a65750506000910152565b600081614595576145956145f3565b506000190190565b600181811c908216806145b157607f821691505b602082108114156145d257634e487b7160e01b600052602260045260246000fd5b50919050565b60006000198214156145ec576145ec6145f3565b5060010190565b634e487b7160e01b600052601160045260246000fd5b634e487b7160e01b600052604160045260246000fd5b6001600160a01b0381168114612cec57600080fdfea2646970667358221220a9f35b4b8996f10670f2771f743d2293c7a3cf58dadcb72f3dd3842b937a308b64736f6c63430008040033000000000000000000000000aeaaf0e2c81af264101b9129c00f4440ccf0f720",
    "linkReferences": {}
  },
  "methodIdentifiers": {
    "ADDRESSES_PROVIDER()": "0542975c",
    "DEFAULT_ADMIN_ROLE()": "a217fddf",
    "FACTORY()": "2dd31000",
    "LENDING_POOL()": "b4dcfc77",
    "LIQUIDATOR()": "46b88796",
    "ROUTER()": "32fe7b26",
    "adapter()": "03eadcfc",
    "addrByName(string)": "ee52a504",
    "amountsAfterFlashloan(uint256)": "e569d83d",
    "amountsForFlashloan(uint256)": "3dedb840",
    "assetManager()": "94217ad1",
    "assetsAfterFlashloan(uint256)": "a58e0622",
    "assetsForFlashloan(uint256)": "7386f0a1",
    "assetsToLiquidate(uint256)": "a48a45a0",
    "astrBalAfterSwap()": "1e90cb08",
    "astrBalBeforeSwap()": "4fe52f3e",
    "baiAddr()": "6af13ea7",
    "bnbAddr()": "b7f60550",
    "busdAddr()": "f2c78d09",
    "ceusdcAddr()": "b1dc1aac",
    "ceusdtAddr()": "1c29f303",
    "colToASTRPath(uint256)": "d0c964ae",
    "collBalAfterLiq()": "adf9ca02",
    "collBalBeforeLiq()": "de3696d8",
    "currentUser()": "92ee0334",
    "daiAddr()": "74fa0a63",
    "data()": "73d4a13a",
    "dotAddr()": "5963ddc1",
    "eventEmitting()": "28ccaddd",
    "executeOperation(address[],uint256[],uint256[],address,bytes)": "920f5c84",
    "fillAssetsToLiquidate((string,uint256)[],uint256)": "b6a635d6",
    "flashloan(address[],uint256[])": "a933963c",
    "fromUSD(string,uint256)": "554ec192",
    "getAssetsAfterFlashloan()": "b1988dda",
    "getAssetsAfterFlashloanLength()": "f2d5f21c",
    "getAssetsForFlashloan()": "3f3dcc71",
    "getAssetsForFlashloanLength()": "57a8b0a1",
    "getPriceUSD((string,uint256))": "1d93aa36",
    "getRoleAdmin(bytes32)": "248a9ca3",
    "grantRole(bytes32,address)": "2f2ff15d",
    "hasRole(bytes32,address)": "91d14854",
    "liquidate(address)": "2f865568",
    "mergeArraysAndCalcSumUSD(string[],uint256[])": "9b9bc974",
    "nastrAddr()": "51319b82",
    "pairToPath(address,address,uint256)": "35354bb7",
    "pool()": "16f0115b",
    "renounceRole(bytes32,address)": "36568abe",
    "revokeRole(bytes32,address)": "d547741f",
    "setPath(address,address,address[])": "055227a1",
    "supportsInterface(bytes4)": "01ffc9a7",
    "swapCollateralToASTR()": "b00a7692",
    "toDescendingOrder((string,uint256)[])": "30be6258",
    "totalDebtUSDglobal()": "e1f1ee53",
    "wastrAddr()": "74b74a5e",
    "wbtcAddr()": "7ef11761",
    "wethAddr()": "7d5aa5f4",
    "withdraw()": "3ccfd60b",
    "withdrawToken(address,uint256)": "9e281a98"
  },
  "id": 1
}