{
  "abi": [
    {
      "inputs": [
        {
          "internalType": "contract ISio2LendingPool",
          "name": "_pool",
          "type": "address"
        },
        {
          "internalType": "contract Sio2Adapter",
          "name": "_adapter",
          "type": "address"
        },
        {
          "internalType": "contract Sio2AdapterAssetManager",
          "name": "_assetManager",
          "type": "address"
        },
        {
          "internalType": "contract ISio2LendingPoolAddressesProvider",
          "name": "_provider",
          "type": "address"
        },
        {
          "internalType": "address",
          "name": "_nastrAddr",
          "type": "address"
        }
      ],
      "stateMutability": "nonpayable",
      "type": "constructor"
    },
    {
      "anonymous": false,
      "inputs": [
        {
          "indexed": true,
          "internalType": "bytes32",
          "name": "role",
          "type": "bytes32"
        },
        {
          "indexed": true,
          "internalType": "bytes32",
          "name": "previousAdminRole",
          "type": "bytes32"
        },
        {
          "indexed": true,
          "internalType": "bytes32",
          "name": "newAdminRole",
          "type": "bytes32"
        }
      ],
      "name": "RoleAdminChanged",
      "type": "event"
    },
    {
      "anonymous": false,
      "inputs": [
        {
          "indexed": true,
          "internalType": "bytes32",
          "name": "role",
          "type": "bytes32"
        },
        {
          "indexed": true,
          "internalType": "address",
          "name": "account",
          "type": "address"
        },
        {
          "indexed": true,
          "internalType": "address",
          "name": "sender",
          "type": "address"
        }
      ],
      "name": "RoleGranted",
      "type": "event"
    },
    {
      "anonymous": false,
      "inputs": [
        {
          "indexed": true,
          "internalType": "bytes32",
          "name": "role",
          "type": "bytes32"
        },
        {
          "indexed": true,
          "internalType": "address",
          "name": "account",
          "type": "address"
        },
        {
          "indexed": true,
          "internalType": "address",
          "name": "sender",
          "type": "address"
        }
      ],
      "name": "RoleRevoked",
      "type": "event"
    },
    {
      "anonymous": false,
      "inputs": [
        {
          "indexed": false,
          "internalType": "address",
          "name": "caller",
          "type": "address"
        }
      ],
      "name": "SomeEvent",
      "type": "event"
    },
    {
      "anonymous": false,
      "inputs": [
        {
          "indexed": false,
          "internalType": "address",
          "name": "caller",
          "type": "address"
        },
        {
          "indexed": false,
          "internalType": "uint256",
          "name": "amount",
          "type": "uint256"
        }
      ],
      "name": "Withdraw",
      "type": "event"
    },
    {
      "anonymous": false,
      "inputs": [
        {
          "indexed": false,
          "internalType": "address",
          "name": "token",
          "type": "address"
        },
        {
          "indexed": false,
          "internalType": "uint256",
          "name": "amount",
          "type": "uint256"
        }
      ],
      "name": "WithdrawToken",
      "type": "event"
    },
    {
      "inputs": [],
      "name": "ADDRESSES_PROVIDER",
      "outputs": [
        {
          "internalType": "contract ISio2LendingPoolAddressesProvider",
          "name": "",
          "type": "address"
        }
      ],
      "stateMutability": "view",
      "type": "function"
    },
    {
      "inputs": [],
      "name": "DEFAULT_ADMIN_ROLE",
      "outputs": [
        {
          "internalType": "bytes32",
          "name": "",
          "type": "bytes32"
        }
      ],
      "stateMutability": "view",
      "type": "function"
    },
    {
      "inputs": [],
      "name": "FACTORY",
      "outputs": [
        {
          "internalType": "contract IArthswapFactory",
          "name": "",
          "type": "address"
        }
      ],
      "stateMutability": "view",
      "type": "function"
    },
    {
      "inputs": [],
      "name": "LENDING_POOL",
      "outputs": [
        {
          "internalType": "contract ISio2LendingPool",
          "name": "",
          "type": "address"
        }
      ],
      "stateMutability": "view",
      "type": "function"
    },
    {
      "inputs": [],
      "name": "LIQUIDATOR",
      "outputs": [
        {
          "internalType": "bytes32",
          "name": "",
          "type": "bytes32"
        }
      ],
      "stateMutability": "view",
      "type": "function"
    },
    {
      "inputs": [],
      "name": "ROUTER",
      "outputs": [
        {
          "internalType": "contract IPancakeRouter01",
          "name": "",
          "type": "address"
        }
      ],
      "stateMutability": "view",
      "type": "function"
    },
    {
      "inputs": [],
      "name": "adapter",
      "outputs": [
        {
          "internalType": "contract Sio2Adapter",
          "name": "",
          "type": "address"
        }
      ],
      "stateMutability": "view",
      "type": "function"
    },
    {
      "inputs": [
        {
          "internalType": "string",
          "name": "_name",
          "type": "string"
        }
      ],
      "name": "addrByName",
      "outputs": [
        {
          "internalType": "address",
          "name": "addr",
          "type": "address"
        }
      ],
      "stateMutability": "view",
      "type": "function"
    },
    {
      "inputs": [],
      "name": "assetManager",
      "outputs": [
        {
          "internalType": "contract Sio2AdapterAssetManager",
          "name": "",
          "type": "address"
        }
      ],
      "stateMutability": "view",
      "type": "function"
    },
    {
      "inputs": [
        {
          "internalType": "uint256",
          "name": "",
          "type": "uint256"
        }
      ],
      "name": "assetsToLiquidate",
      "outputs": [
        {
          "internalType": "string",
          "name": "name",
          "type": "string"
        },
        {
          "internalType": "uint256",
          "name": "debt",
          "type": "uint256"
        }
      ],
      "stateMutability": "view",
      "type": "function"
    },
    {
      "inputs": [],
      "name": "baiAddr",
      "outputs": [
        {
          "internalType": "address",
          "name": "",
          "type": "address"
        }
      ],
      "stateMutability": "view",
      "type": "function"
    },
    {
      "inputs": [],
      "name": "bnbAddr",
      "outputs": [
        {
          "internalType": "address",
          "name": "",
          "type": "address"
        }
      ],
      "stateMutability": "view",
      "type": "function"
    },
    {
      "inputs": [],
      "name": "busdAddr",
      "outputs": [
        {
          "internalType": "address",
          "name": "",
          "type": "address"
        }
      ],
      "stateMutability": "view",
      "type": "function"
    },
    {
      "inputs": [],
      "name": "ceusdcAddr",
      "outputs": [
        {
          "internalType": "address",
          "name": "",
          "type": "address"
        }
      ],
      "stateMutability": "view",
      "type": "function"
    },
    {
      "inputs": [],
      "name": "ceusdtAddr",
      "outputs": [
        {
          "internalType": "address",
          "name": "",
          "type": "address"
        }
      ],
      "stateMutability": "view",
      "type": "function"
    },
    {
      "inputs": [
        {
          "internalType": "uint256",
          "name": "",
          "type": "uint256"
        }
      ],
      "name": "colToASTRPath",
      "outputs": [
        {
          "internalType": "address",
          "name": "",
          "type": "address"
        }
      ],
      "stateMutability": "view",
      "type": "function"
    },
    {
      "inputs": [],
      "name": "currentUser",
      "outputs": [
        {
          "internalType": "address",
          "name": "",
          "type": "address"
        }
      ],
      "stateMutability": "view",
      "type": "function"
    },
    {
      "inputs": [],
      "name": "daiAddr",
      "outputs": [
        {
          "internalType": "address",
          "name": "",
          "type": "address"
        }
      ],
      "stateMutability": "view",
      "type": "function"
    },
    {
      "inputs": [],
      "name": "dotAddr",
      "outputs": [
        {
          "internalType": "address",
          "name": "",
          "type": "address"
        }
      ],
      "stateMutability": "view",
      "type": "function"
    },
    {
      "inputs": [],
      "name": "eventEmitting",
      "outputs": [],
      "stateMutability": "nonpayable",
      "type": "function"
    },
    {
      "inputs": [
        {
          "internalType": "address[]",
          "name": "assets",
          "type": "address[]"
        },
        {
          "internalType": "uint256[]",
          "name": "amounts",
          "type": "uint256[]"
        },
        {
          "internalType": "uint256[]",
          "name": "premiums",
          "type": "uint256[]"
        },
        {
          "internalType": "address",
          "name": "",
          "type": "address"
        },
        {
          "internalType": "bytes",
          "name": "",
          "type": "bytes"
        }
      ],
      "name": "executeOperation",
      "outputs": [
        {
          "internalType": "bool",
          "name": "",
          "type": "bool"
        }
      ],
      "stateMutability": "nonpayable",
      "type": "function"
    },
    {
      "inputs": [
        {
          "components": [
            {
              "internalType": "string",
              "name": "name",
              "type": "string"
            },
            {
              "internalType": "uint256",
              "name": "debt",
              "type": "uint256"
            }
          ],
          "internalType": "struct Liquidator.DebtAsset[]",
          "name": "_sortedDebtAssets",
          "type": "tuple[]"
        },
        {
          "internalType": "uint256",
          "name": "_totalDebtUSD",
          "type": "uint256"
        }
      ],
      "name": "fillAssetsToLiquidate",
      "outputs": [
        {
          "internalType": "address[]",
          "name": "",
          "type": "address[]"
        },
        {
          "internalType": "uint256[]",
          "name": "",
          "type": "uint256[]"
        }
      ],
      "stateMutability": "view",
      "type": "function"
    },
    {
      "inputs": [
        {
          "internalType": "address[]",
          "name": "_assets",
          "type": "address[]"
        },
        {
          "internalType": "uint256[]",
          "name": "_amounts",
          "type": "uint256[]"
        }
      ],
      "name": "flashloan",
      "outputs": [],
      "stateMutability": "nonpayable",
      "type": "function"
    },
    {
      "inputs": [
        {
          "internalType": "string",
          "name": "_name",
          "type": "string"
        },
        {
          "internalType": "uint256",
          "name": "_amount",
          "type": "uint256"
        }
      ],
      "name": "fromUSD",
      "outputs": [
        {
          "internalType": "uint256",
          "name": "",
          "type": "uint256"
        }
      ],
      "stateMutability": "view",
      "type": "function"
    },
    {
      "inputs": [
        {
          "components": [
            {
              "internalType": "string",
              "name": "name",
              "type": "string"
            },
            {
              "internalType": "uint256",
              "name": "debt",
              "type": "uint256"
            }
          ],
          "internalType": "struct Liquidator.DebtAsset",
          "name": "_asset",
          "type": "tuple"
        }
      ],
      "name": "getPriceUSD",
      "outputs": [
        {
          "internalType": "uint256",
          "name": "",
          "type": "uint256"
        }
      ],
      "stateMutability": "view",
      "type": "function"
    },
    {
      "inputs": [
        {
          "internalType": "bytes32",
          "name": "role",
          "type": "bytes32"
        }
      ],
      "name": "getRoleAdmin",
      "outputs": [
        {
          "internalType": "bytes32",
          "name": "",
          "type": "bytes32"
        }
      ],
      "stateMutability": "view",
      "type": "function"
    },
    {
      "inputs": [
        {
          "internalType": "bytes32",
          "name": "role",
          "type": "bytes32"
        },
        {
          "internalType": "address",
          "name": "account",
          "type": "address"
        }
      ],
      "name": "grantRole",
      "outputs": [],
      "stateMutability": "nonpayable",
      "type": "function"
    },
    {
      "inputs": [
        {
          "internalType": "bytes32",
          "name": "role",
          "type": "bytes32"
        },
        {
          "internalType": "address",
          "name": "account",
          "type": "address"
        }
      ],
      "name": "hasRole",
      "outputs": [
        {
          "internalType": "bool",
          "name": "",
          "type": "bool"
        }
      ],
      "stateMutability": "view",
      "type": "function"
    },
    {
      "inputs": [
        {
          "internalType": "address",
          "name": "_user",
          "type": "address"
        }
      ],
      "name": "liquidate",
      "outputs": [],
      "stateMutability": "nonpayable",
      "type": "function"
    },
    {
      "inputs": [
        {
          "internalType": "string[]",
          "name": "_names",
          "type": "string[]"
        },
        {
          "internalType": "uint256[]",
          "name": "_debts",
          "type": "uint256[]"
        }
      ],
      "name": "mergeArraysAndCalcSumUSD",
      "outputs": [
        {
          "components": [
            {
              "internalType": "string",
              "name": "name",
              "type": "string"
            },
            {
              "internalType": "uint256",
              "name": "debt",
              "type": "uint256"
            }
          ],
          "internalType": "struct Liquidator.DebtAsset[]",
          "name": "",
          "type": "tuple[]"
        },
        {
          "internalType": "uint256",
          "name": "",
          "type": "uint256"
        }
      ],
      "stateMutability": "view",
      "type": "function"
    },
    {
      "inputs": [],
      "name": "nastrAddr",
      "outputs": [
        {
          "internalType": "address",
          "name": "",
          "type": "address"
        }
      ],
      "stateMutability": "view",
      "type": "function"
    },
    {
      "inputs": [
        {
          "internalType": "address",
          "name": "",
          "type": "address"
        },
        {
          "internalType": "address",
          "name": "",
          "type": "address"
        },
        {
          "internalType": "uint256",
          "name": "",
          "type": "uint256"
        }
      ],
      "name": "pairToPath",
      "outputs": [
        {
          "internalType": "address",
          "name": "",
          "type": "address"
        }
      ],
      "stateMutability": "view",
      "type": "function"
    },
    {
      "inputs": [],
      "name": "pool",
      "outputs": [
        {
          "internalType": "contract ISio2LendingPool",
          "name": "",
          "type": "address"
        }
      ],
      "stateMutability": "view",
      "type": "function"
    },
    {
      "inputs": [
        {
          "internalType": "bytes32",
          "name": "role",
          "type": "bytes32"
        },
        {
          "internalType": "address",
          "name": "account",
          "type": "address"
        }
      ],
      "name": "renounceRole",
      "outputs": [],
      "stateMutability": "nonpayable",
      "type": "function"
    },
    {
      "inputs": [
        {
          "internalType": "bytes32",
          "name": "role",
          "type": "bytes32"
        },
        {
          "internalType": "address",
          "name": "account",
          "type": "address"
        }
      ],
      "name": "revokeRole",
      "outputs": [],
      "stateMutability": "nonpayable",
      "type": "function"
    },
    {
      "inputs": [
        {
          "internalType": "address",
          "name": "tokenA",
          "type": "address"
        },
        {
          "internalType": "address",
          "name": "tokenB",
          "type": "address"
        },
        {
          "internalType": "address[]",
          "name": "path",
          "type": "address[]"
        }
      ],
      "name": "setPath",
      "outputs": [],
      "stateMutability": "nonpayable",
      "type": "function"
    },
    {
      "inputs": [
        {
          "internalType": "bytes4",
          "name": "interfaceId",
          "type": "bytes4"
        }
      ],
      "name": "supportsInterface",
      "outputs": [
        {
          "internalType": "bool",
          "name": "",
          "type": "bool"
        }
      ],
      "stateMutability": "view",
      "type": "function"
    },
    {
      "inputs": [
        {
          "components": [
            {
              "internalType": "string",
              "name": "name",
              "type": "string"
            },
            {
              "internalType": "uint256",
              "name": "debt",
              "type": "uint256"
            }
          ],
          "internalType": "struct Liquidator.DebtAsset[]",
          "name": "_assets",
          "type": "tuple[]"
        }
      ],
      "name": "toDescendingOrder",
      "outputs": [
        {
          "components": [
            {
              "internalType": "string",
              "name": "name",
              "type": "string"
            },
            {
              "internalType": "uint256",
              "name": "debt",
              "type": "uint256"
            }
          ],
          "internalType": "struct Liquidator.DebtAsset[]",
          "name": "assets",
          "type": "tuple[]"
        }
      ],
      "stateMutability": "view",
      "type": "function"
    },
    {
      "inputs": [],
      "name": "wastrAddr",
      "outputs": [
        {
          "internalType": "address",
          "name": "",
          "type": "address"
        }
      ],
      "stateMutability": "view",
      "type": "function"
    },
    {
      "inputs": [],
      "name": "wbtcAddr",
      "outputs": [
        {
          "internalType": "address",
          "name": "",
          "type": "address"
        }
      ],
      "stateMutability": "view",
      "type": "function"
    },
    {
      "inputs": [],
      "name": "wethAddr",
      "outputs": [
        {
          "internalType": "address",
          "name": "",
          "type": "address"
        }
      ],
      "stateMutability": "view",
      "type": "function"
    },
    {
      "inputs": [],
      "name": "withdraw",
      "outputs": [],
      "stateMutability": "nonpayable",
      "type": "function"
    },
    {
      "inputs": [
        {
          "internalType": "address",
          "name": "token",
          "type": "address"
        },
        {
          "internalType": "uint256",
          "name": "amount",
          "type": "uint256"
        }
      ],
      "name": "withdrawToken",
      "outputs": [],
      "stateMutability": "nonpayable",
      "type": "function"
    },
    {
      "stateMutability": "payable",
      "type": "receive"
    }
  ],
  "bytecode": {
    "object": "0x60c0604052600480546001600160a01b03199081166001600160a01b03179091556005805482166000805160206200494283398151915217905560068054821673733ebcc6df85f8266349defd0980f8ced9b45f35179055600780548216736a2d262d56735dba19dd70682b39f6be9a931d98179055600880548216733795c36e7d12a8c252a20c5a7b455f7c57b60283179055600980548216734bf769b05e832fcdc9053fffbc78ca889acb5e1e179055600a80548216736de33698e9e9b787e09d3bd7771ef63557e148bb179055600b805482167381ecac0d6be0550a00ff064a4f9dd2400585fe9c179055600c8054821673ad543f18cff85c77e140e3e5e3c3392f6ba9d5ca179055600d8054909116737f27352d5f83db87a5a3e00f4b07cc2138d8ee521790553480156200013757600080fd5b5060405162004962380380620049628339810160408190526200015a9162000902565b81806001600160a01b03166080816001600160a01b031660601b81525050806001600160a01b0316630261bf8b6040518163ffffffff1660e01b815260040160206040518083038186803b158015620001b257600080fd5b505afa158015620001c7573d6000803e3d6000fd5b505050506040513d601f19601f82011682018060405250810190620001ed9190620008dc565b60601b6001600160601b03191660a052506200020b600033620007ba565b604051692624a8aaa4a220aa27a960b11b60208201526200024c90602a016040516020818303038152906040528051906020012033620007ba60201b60201c565b600180546001600160a01b038088166001600160a01b0319928316179092556002805487841690831617815560038054878516908416179055600e805485851693168317905560408051808201825273e511ed88575c57767bafb72bfd10775413e3f2b0815260008051602062004942833981519152602080830191909152600094855260128152828520600554909616855294909452909120620002f39290916200085b565b506040805180820182526000805160206200494283398151915281526001600160a01b03602080830182905260055482166000908152601282528481206004549093168152919052919091206200034c9160026200085b565b5060408051808201825260008051602062004942833981519152815273733ebcc6df85f8266349defd0980f8ced9b45f356020808301919091526005546001600160a01b039081166000908152601283528481206006549092168152915291909120620003bb9160026200085b565b50604080518082018252600080516020620049428339815191528152736a2d262d56735dba19dd70682b39f6be9a931d986020808301919091526005546001600160a01b0390811660009081526012835284812060075490921681529152919091206200042a9160026200085b565b50604080518082018252600080516020620049428339815191528152733795c36e7d12a8c252a20c5a7b455f7c57b602836020808301919091526005546001600160a01b039081166000908152601283528481206008549092168152915291909120620004999160026200085b565b5060408051606081018252600080516020620049428339815191528152736a2d262d56735dba19dd70682b39f6be9a931d98602080830191909152734bf769b05e832fcdc9053fffbc78ca889acb5e1e828401526005546001600160a01b039081166000908152601283528481206009549092168152915291909120620005229160036200085b565b5060408051608081018252600080516020620049428339815191528152737f27352d5f83db87a5a3e00f4b07cc2138d8ee5260208083019190915273de2578edec4669ba7f41c5d5d2386300bcea467882840152736de33698e9e9b787e09d3bd7771ef63557e148bb60608301526005546001600160a01b03908116600090815260128352848120600a549092168152915291909120620005c59160046200085b565b50604080516080810182526000805160206200494283398151915281527375364d4f779d0bd0facd9a218c67f87dd9aff3b460208083019190915273dd90e5e87a2081dcf0391920868ebc2ffb81a1af828401527381ecac0d6be0550a00ff064a4f9dd2400585fe9c60608301526005546001600160a01b03908116600090815260128352848120600b549092168152915291909120620006689160046200085b565b5060408051608081018252600080516020620049428339815191528152737f27352d5f83db87a5a3e00f4b07cc2138d8ee5260208083019190915273de2578edec4669ba7f41c5d5d2386300bcea46788284015273ad543f18cff85c77e140e3e5e3c3392f6ba9d5ca60608301526005546001600160a01b03908116600090815260128352848120600c5490921681529152919091206200070b9160046200085b565b50604080516080810182526000805160206200494283398151915281527375364d4f779d0bd0facd9a218c67f87dd9aff3b460208083019190915273dd90e5e87a2081dcf0391920868ebc2ffb81a1af82840152737f27352d5f83db87a5a3e00f4b07cc2138d8ee5260608301526005546001600160a01b03908116600090815260128352848120600d549092168152915291909120620007ae9160046200085b565b5050505050506200099a565b6000828152602081815260408083206001600160a01b038516845290915290205460ff1662000857576000828152602081815260408083206001600160a01b03851684529091529020805460ff19166001179055620008163390565b6001600160a01b0316816001600160a01b0316837f2f8788117e7eff1d82e926ec794901d17c78024a50270940304540a733656f0d60405160405180910390a45b5050565b828054828255906000526020600020908101928215620008b3579160200282015b82811115620008b357825182546001600160a01b0319166001600160a01b039091161782556020909201916001909101906200087c565b50620008c1929150620008c5565b5090565b5b80821115620008c15760008155600101620008c6565b600060208284031215620008ee578081fd5b8151620008fb8162000981565b9392505050565b600080600080600060a086880312156200091a578081fd5b8551620009278162000981565b60208701519095506200093a8162000981565b60408701519094506200094d8162000981565b6060870151909350620009608162000981565b6080870151909250620009738162000981565b809150509295509295909350565b6001600160a01b03811681146200099757600080fd5b50565b60805160601c60a05160601c613f6e620009d460003960008181610799015281816116a60152611cb7015260006102eb0152613f6e6000f3fe6080604052600436106102605760003560e01c80636af13ea711610144578063a217fddf116100b6578063b6a635d61161007a578063b6a635d6146107bb578063b7f60550146107e9578063d0c964ae14610809578063d547741f14610829578063ee52a50414610849578063f2c78d091461086957600080fd5b8063a217fddf14610704578063a48a45a014610719578063a933963c14610747578063b1dc1aac14610767578063b4dcfc771461078757600080fd5b806391d148541161010857806391d1485414610636578063920f5c841461065657806392ee03341461067657806394217ad1146106965780639b9bc974146106b65780639e281a98146106e457600080fd5b80636af13ea71461059657806374b74a5e146105b657806374fa0a63146105d65780637d5aa5f4146105f65780637ef117611461061657600080fd5b80632f2ff15d116101dd57806336568abe116101a157806336568abe146104bf5780633ccfd60b146104df57806346b88796146104f457806351319b8214610536578063554ec192146105565780635963ddc11461057657600080fd5b80632f2ff15d1461040a5780632f8655681461042a57806330be62581461044a57806332fe7b261461047757806335354bb71461049f57600080fd5b80631c29f303116102245780631c29f3031461034f5780631d93aa361461036f578063248a9ca31461039d57806328ccaddd146103cd5780632dd31000146103e257600080fd5b806301ffc9a71461026c57806303eadcfc146102a15780630542975c146102d9578063055227a11461030d57806316f0115b1461032f57600080fd5b3661026757005b600080fd5b34801561027857600080fd5b5061028c610287366004613800565b610889565b60405190151581526020015b60405180910390f35b3480156102ad57600080fd5b506002546102c1906001600160a01b031681565b6040516001600160a01b039091168152602001610298565b3480156102e557600080fd5b506102c17f000000000000000000000000000000000000000000000000000000000000000081565b34801561031957600080fd5b5061032d610328366004613348565b6108c0565b005b34801561033b57600080fd5b506001546102c1906001600160a01b031681565b34801561035b57600080fd5b506008546102c1906001600160a01b031681565b34801561037b57600080fd5b5061038f61038a3660046138bf565b6109be565b604051908152602001610298565b3480156103a957600080fd5b5061038f6103b83660046137b9565b60009081526020819052604090206001015490565b3480156103d957600080fd5b5061032d610a60565b3480156103ee57600080fd5b506102c173a9473608514457b4bf083f9045fa63ae5810a03e81565b34801561041657600080fd5b5061032d6104253660046137d1565b610a95565b34801561043657600080fd5b5061032d610445366004613310565b610abf565b34801561045657600080fd5b5061046a6104653660046136f3565b610d1a565b6040516102989190613c63565b34801561048357600080fd5b506102c173e915d2393a08a00c5a463053edd31bae2199b9e781565b3480156104ab57600080fd5b506102c16104ba3660046133a7565b610ea3565b3480156104cb57600080fd5b5061032d6104da3660046137d1565b610ee8565b3480156104eb57600080fd5b5061032d610f66565b34801561050057600080fd5b5061038f604051692624a8aaa4a220aa27a960b11b6020820152602a016040516020818303038152906040528051906020012081565b34801561054257600080fd5b50600e546102c1906001600160a01b031681565b34801561056257600080fd5b5061038f61057136600461388c565b611019565b34801561058257600080fd5b506004546102c1906001600160a01b031681565b3480156105a257600080fd5b506006546102c1906001600160a01b031681565b3480156105c257600080fd5b506005546102c1906001600160a01b031681565b3480156105e257600080fd5b50600a546102c1906001600160a01b031681565b34801561060257600080fd5b50600b546102c1906001600160a01b031681565b34801561062257600080fd5b50600c546102c1906001600160a01b031681565b34801561064257600080fd5b5061028c6106513660046137d1565b6110bb565b34801561066257600080fd5b5061028c610671366004613412565b6110e4565b34801561068257600080fd5b50600f546102c1906001600160a01b031681565b3480156106a257600080fd5b506003546102c1906001600160a01b031681565b3480156106c257600080fd5b506106d66106d136600461356e565b611753565b604051610298929190613c76565b3480156106f057600080fd5b5061032d6106ff3660046133e7565b61199f565b34801561071057600080fd5b5061038f600081565b34801561072557600080fd5b506107396107343660046137b9565b611b2d565b604051610298929190613cd9565b34801561075357600080fd5b5061032d61076236600461350e565b611be9565b34801561077357600080fd5b506007546102c1906001600160a01b031681565b34801561079357600080fd5b506102c17f000000000000000000000000000000000000000000000000000000000000000081565b3480156107c757600080fd5b506107db6107d6366004613725565b611d33565b604051610298929190613c35565b3480156107f557600080fd5b50600d546102c1906001600160a01b031681565b34801561081557600080fd5b506102c16108243660046137b9565b6121d6565b34801561083557600080fd5b5061032d6108443660046137d1565b612200565b34801561085557600080fd5b506102c1610864366004613828565b612225565b34801561087557600080fd5b506009546102c1906001600160a01b031681565b60006001600160e01b03198216637965db0b60e01b14806108ba57506301ffc9a760e01b6001600160e01b03198316145b92915050565b60006108cb816122ba565b6001600160a01b038416158015906108eb57506001600160a01b03831615155b6109315760405162461bcd60e51b81526020600482015260126024820152715a65726f206164647265737320616c61726d60701b60448201526064015b60405180910390fd5b60008251116109825760405162461bcd60e51b815260206004820152601760248201527f506174682073686f756c646e277420626520656d7074790000000000000000006044820152606401610928565b6001600160a01b038085166000908152601260209081526040808320938716835292815291902083516109b792850190612f83565b5050505050565b60025481516000916001600160a01b03169063cd4f4a9c906109df90612225565b60208501516040516001600160e01b031960e085901b1681526001600160a01b039092166004830152602482015260440160206040518083038186803b158015610a2857600080fd5b505afa158015610a3c573d6000803e3d6000fd5b505050506040513d601f19601f820116820180604052508101906108ba919061393f565b6040513381527f62e1088ac332ffa611ac64bd5a2aef2c27de42d3c61c686ec5c53753c35c7f689060200160405180910390a1565b600082815260208190526040902060010154610ab0816122ba565b610aba83836122c7565b505050565b604051692624a8aaa4a220aa27a960b11b6020820152602a0160405160208183030381529060405280519060200120610af7816122ba565b60025460405163e11fffb160e01b81526001600160a01b038481166004830152670de0b6b3a764000092169063e11fffb19060240160206040518083038186803b158015610b4457600080fd5b505afa158015610b58573d6000803e3d6000fd5b505050506040513d601f19601f82011682018060405250810190610b7c919061393f565b10610bc15760405162461bcd60e51b81526020600482015260156024820152740a0dee640d2e640d0cac2d8e8d0f240cadcdeeaced605b1b6044820152606401610928565b600f80546001600160a01b0319166001600160a01b0384811691821790925560035460405163cde131d560e01b81526004810192909252600092839291169063cde131d59060240160006040518083038186803b158015610c2157600080fd5b505afa158015610c35573d6000803e3d6000fd5b505050506040513d6000823e601f3d908101601f19168201604052610c5d9190810190613629565b815191935091506000816001600160401b03811115610c8c57634e487b7160e01b600052604160045260246000fd5b604051908082528060200260200182016040528015610cd257816020015b604080518082019091526060815260006020820152815260200190600190039081610caa5790505b5090506000610ce18585611753565b90925090506000610cf183610d1a565b9050600080610d008385611d33565b91509150610d0e8282611be9565b50505050505050505050565b805181906000805b610d2d600184613e47565b811015610e9b5760005b6001610d438386613e47565b610d4d9190613e47565b811015610e8557610d8e85610d63836001613df0565b81518110610d8157634e487b7160e01b600052603260045260246000fd5b60200260200101516109be565b610db1868381518110610d8157634e487b7160e01b600052603260045260246000fd5b1015610e7d5760019250600085610dc88386613df0565b81518110610de657634e487b7160e01b600052603260045260246000fd5b60200260200101519050858281518110610e1057634e487b7160e01b600052603260045260246000fd5b602002602001015186836001610e269190613df0565b81518110610e4457634e487b7160e01b600052603260045260246000fd5b602002602001018190525080868381518110610e7057634e487b7160e01b600052603260045260246000fd5b6020026020010181905250505b600101610d37565b5081610e9357505050919050565b600101610d22565b505050919050565b60126020528260005260406000206020528160005260406000208181548110610ecb57600080fd5b6000918252602090912001546001600160a01b0316925083915050565b6001600160a01b0381163314610f585760405162461bcd60e51b815260206004820152602f60248201527f416363657373436f6e74726f6c3a2063616e206f6e6c792072656e6f756e636560448201526e103937b632b9903337b91039b2b63360891b6064820152608401610928565b610f62828261234b565b5050565b6000610f71816122ba565b4780610fae5760405162461bcd60e51b815260206004820152600c60248201526b5a65726f2062616c616e636560a01b6044820152606401610928565b604051339082156108fc029083906000818181858888f19350505050158015610fdb573d6000803e3d6000fd5b5060408051338152602081018390527f884edad9ce6fa2440d8a54cc123490eb96d2768479d49ff9c7366125a9424364910160405180910390a15050565b6002546000906001600160a01b03166387ef186a61103685612225565b6040516001600160e01b031960e084901b1681526001600160a01b0390911660048201526024810185905260440160206040518083038186803b15801561107c57600080fd5b505afa158015611090573d6000803e3d6000fd5b505050506040513d601f19601f820116820180604052508101906110b4919061393f565b9392505050565b6000918252602082815260408084206001600160a01b0393909316845291905290205460ff1690565b6000805b8981101561134d578a8a8281811061111057634e487b7160e01b600052603260045260246000fd5b90506020020160208101906111259190613310565b6002546001600160a01b039182169163095ea7b391168b8b8581811061115b57634e487b7160e01b600052603260045260246000fd5b6040516001600160e01b031960e087901b1681526001600160a01b0390941660048501526020029190910135602483015250604401602060405180830381600087803b1580156111aa57600080fd5b505af11580156111be573d6000803e3d6000fd5b505050506040513d601f19601f820116820180604052508101906111e29190613799565b506002546000906001600160a01b031663fbc1f9778d8d8581811061121757634e487b7160e01b600052603260045260246000fd5b905060200201602081019061122c9190613310565b6001600160a01b03166395d89b416040518163ffffffff1660e01b815260040160006040518083038186803b15801561126457600080fd5b505afa158015611278573d6000803e3d6000fd5b505050506040513d6000823e601f3d908101601f191682016040526112a0919081019061385a565b600f546001600160a01b03168d8d878181106112cc57634e487b7160e01b600052603260045260246000fd5b905060200201356040518463ffffffff1660e01b81526004016112f193929190613cab565b602060405180830381600087803b15801561130b57600080fd5b505af115801561131f573d6000803e3d6000fd5b505050506040513d601f19601f82011682018060405250810190611343919061393f565b50506001016110e8565b506113566123b0565b60005b898110156117425760008b8b8381811061138357634e487b7160e01b600052603260045260246000fd5b90506020020160208101906113989190613310565b9050600073e915d2393a08a00c5a463053edd31bae2199b9e7631f00ca748a8a868181106113d657634e487b7160e01b600052603260045260246000fd5b905060200201358d8d878181106113fd57634e487b7160e01b600052603260045260246000fd5b9050602002013561140e9190613df0565b6005546001600160a01b039081166000908152601260209081526040808320938916835292905281902090516001600160e01b031960e085901b168152611459929190600401613cec565b60006040518083038186803b15801561147157600080fd5b505afa158015611485573d6000803e3d6000fd5b505050506040513d6000823e601f3d908101601f191682016040526114ad9190810190613767565b905073e915d2393a08a00c5a463053edd31bae2199b9e76001600160a01b031663fb3bdb41826000815181106114f357634e487b7160e01b600052603260045260246000fd5b60200260200101518b8b8781811061151b57634e487b7160e01b600052603260045260246000fd5b905060200201358e8e8881811061154257634e487b7160e01b600052603260045260246000fd5b905060200201356115539190613df0565b6005546001600160a01b039081166000908152601260209081526040808320938a1683529290522030611588426104b0613df0565b6040518663ffffffff1660e01b81526004016115a79493929190613d05565b6000604051808303818588803b1580156115c057600080fd5b505af11580156115d4573d6000803e3d6000fd5b50505050506040513d6000823e601f3d908101601f191682016040526115fd9190810190613767565b50600089898581811061162057634e487b7160e01b600052603260045260246000fd5b905060200201358c8c8681811061164757634e487b7160e01b600052603260045260246000fd5b905060200201356116589190613df0565b90508d8d8581811061167a57634e487b7160e01b600052603260045260246000fd5b905060200201602081019061168f9190613310565b60405163095ea7b360e01b81526001600160a01b037f00000000000000000000000000000000000000000000000000000000000000008116600483015260248201849052919091169063095ea7b390604401602060405180830381600087803b1580156116fb57600080fd5b505af115801561170f573d6000803e3d6000fd5b505050506040513d601f19601f820116820180604052508101906117339190613799565b50836001019350505050611359565b5060019a9950505050505050505050565b81516060906000908180826001600160401b0381111561178357634e487b7160e01b600052604160045260246000fd5b6040519080825280602002602001820160405280156117c957816020015b6040805180820190915260608152600060208201528152602001906001900390816117a15790505b50905060005b83811015611991578781815181106117f757634e487b7160e01b600052603260045260246000fd5b602002602001015182828151811061181f57634e487b7160e01b600052603260045260246000fd5b60200260200101516000018190525086818151811061184e57634e487b7160e01b600052603260045260246000fd5b602002602001015182828151811061187657634e487b7160e01b600052603260045260246000fd5b602090810291909101810151015260025482516001600160a01b039091169063cd4f4a9c906118d0908590859081106118bf57634e487b7160e01b600052603260045260246000fd5b602002602001015160000151612225565b8484815181106118f057634e487b7160e01b600052603260045260246000fd5b6020026020010151602001516040518363ffffffff1660e01b815260040161192d9291906001600160a01b03929092168252602082015260400190565b60206040518083038186803b15801561194557600080fd5b505afa158015611959573d6000803e3d6000fd5b505050506040513d601f19601f8201168201806040525081019061197d919061393f565b6119879084613df0565b92506001016117cf565b5093509150505b9250929050565b60006119aa816122ba565b6040516370a0823160e01b815230600482015282906001600160a01b038516906370a082319060240160206040518083038186803b1580156119eb57600080fd5b505afa1580156119ff573d6000803e3d6000fd5b505050506040513d601f19601f82011682018060405250810190611a23919061393f565b1015611a655760405162461bcd60e51b81526020600482015260116024820152704e6f7420656e6f75676820746f6b656e7360781b6044820152606401610928565b60405163a9059cbb60e01b8152336004820152602481018390526001600160a01b0384169063a9059cbb90604401602060405180830381600087803b158015611aad57600080fd5b505af1158015611ac1573d6000803e3d6000fd5b505050506040513d601f19601f82011682018060405250810190611ae59190613799565b50604080516001600160a01b0385168152602081018490527f992ee874049a42cae0757a765cd7f641b6028cc35c3478bde8330bf417c3a7a9910160405180910390a1505050565b60108181548110611b3d57600080fd5b9060005260206000209060020201600091509050806000018054611b6090613ea1565b80601f0160208091040260200160405190810160405280929190818152602001828054611b8c90613ea1565b8015611bd95780601f10611bae57610100808354040283529160200191611bd9565b820191906000526020600020905b815481529060010190602001808311611bbc57829003601f168201915b5050505050908060010154905082565b60408051602081019091526000808252835130928392909181906001600160401b03811115611c2857634e487b7160e01b600052604160045260246000fd5b604051908082528060200260200182016040528015611c51578160200160208202803683370190505b50905060005b8751811015611c9f576000828281518110611c8257634e487b7160e01b600052603260045260246000fd5b602090810291909101015280611c9781613edc565b915050611c57565b5060405163ab9c4b5d60e01b81526001600160a01b037f0000000000000000000000000000000000000000000000000000000000000000169063ab9c4b5d90611cf89088908b908b9087908b908b908b90600401613bb7565b600060405180830381600087803b158015611d1257600080fd5b505af1158015611d26573d6000803e3d6000fd5b5050505050505050505050565b6060806000611d43600285613e08565b855190915060009081816001600160401b03811115611d7257634e487b7160e01b600052604160045260246000fd5b604051908082528060200260200182016040528015611d9b578160200160208202803683370190505b5090506000826001600160401b03811115611dc657634e487b7160e01b600052604160045260246000fd5b604051908082528060200260200182016040528015611def578160200160208202803683370190505b50905060005b83811015611ffb576000611e228b8381518110610d8157634e487b7160e01b600052603260045260246000fd5b9050611e2e8688613e47565b8111611eff57611e578b83815181106118bf57634e487b7160e01b600052603260045260246000fd5b848381518110611e7757634e487b7160e01b600052603260045260246000fd5b60200260200101906001600160a01b031690816001600160a01b0316815250508a8281518110611eb757634e487b7160e01b600052603260045260246000fd5b602002602001015160200151838381518110611ee357634e487b7160e01b600052603260045260246000fd5b6020908102919091010152611ef88187613df0565b9550611fe5565b6000611f3c8c8481518110611f2457634e487b7160e01b600052603260045260246000fd5b602002602001015160000151888a6105719190613e47565b9050611f618c84815181106118bf57634e487b7160e01b600052603260045260246000fd5b858481518110611f8157634e487b7160e01b600052603260045260246000fd5b60200260200101906001600160a01b031690816001600160a01b03168152505080848481518110611fc257634e487b7160e01b600052603260045260246000fd5b6020908102919091010152611fd78789613e47565b611fe19088613df0565b9650505b868610611ff25750611ffb565b50600101611df5565b506000805b8481101561204d5782818151811061202857634e487b7160e01b600052603260045260246000fd5b6020026020010151600014612045578161204181613edc565b9250505b600101612000565b506000816001600160401b0381111561207657634e487b7160e01b600052604160045260246000fd5b60405190808252806020026020018201604052801561209f578160200160208202803683370190505b5090506000826001600160401b038111156120ca57634e487b7160e01b600052604160045260246000fd5b6040519080825280602002602001820160405280156120f3578160200160208202803683370190505b50905060005b838110156121c45785818151811061212157634e487b7160e01b600052603260045260246000fd5b602002602001015183828151811061214957634e487b7160e01b600052603260045260246000fd5b60200260200101906001600160a01b031690816001600160a01b03168152505084818151811061218957634e487b7160e01b600052603260045260246000fd5b60200260200101518282815181106121b157634e487b7160e01b600052603260045260246000fd5b60209081029190910101526001016120f9565b50909b909a5098505050505050505050565b601181815481106121e657600080fd5b6000918252602090912001546001600160a01b0316905081565b60008281526020819052604090206001015461221b816122ba565b610aba838361234b565b60035460405163eb4c0ae560e01b81526000916001600160a01b03169063eb4c0ae590612256908590600401613c98565b60006040518083038186803b15801561226e57600080fd5b505afa158015612282573d6000803e3d6000fd5b505050506040513d6000823e601f3d908101601f191682016040526122aa9190810190613957565b50959a9950505050505050505050565b6122c481336126dc565b50565b6122d182826110bb565b610f62576000828152602081815260408083206001600160a01b03851684529091529020805460ff191660011790556123073390565b6001600160a01b0316816001600160a01b0316837f2f8788117e7eff1d82e926ec794901d17c78024a50270940304540a733656f0d60405160405180910390a45050565b61235582826110bb565b15610f62576000828152602081815260408083206001600160a01b0385168085529252808320805460ff1916905551339285917ff6391f5c32d9c69d2a47ea670b442974b53935d1edc7fd64eb21e047a839171b9190a45050565b600e546040516370a0823160e01b81523060048201526000916001600160a01b0316906370a082319060240160206040518083038186803b1580156123f457600080fd5b505afa158015612408573d6000803e3d6000fd5b505050506040513d601f19601f8201168201806040525081019061242c919061393f565b9050600061253d73e915d2393a08a00c5a463053edd31bae2199b9e76001600160a01b031663c45a01556040518163ffffffff1660e01b815260040160206040518083038186803b15801561248057600080fd5b505afa158015612494573d6000803e3d6000fd5b505050506040513d601f19601f820116820180604052508101906124b8919061332c565b600e546001600160a01b039081166000908152601260209081526040808320600554909416835292815290829020805483518184028101840190945280845287939283018282801561253357602002820191906000526020600020905b81546001600160a01b03168152600190910190602001808311612515575b5050505050612740565b905060008160018151811061256257634e487b7160e01b600052603260045260246000fd5b6020908102919091010151600e5460405163095ea7b360e01b815273e915d2393a08a00c5a463053edd31bae2199b9e7600482015260001960248201529192506001600160a01b03169063095ea7b390604401602060405180830381600087803b1580156125cf57600080fd5b505af11580156125e3573d6000803e3d6000fd5b505050506040513d601f19601f820116820180604052508101906126079190613799565b50600e546001600160a01b03908116600090815260126020908152604080832060055490941683529290522073e915d2393a08a00c5a463053edd31bae2199b9e7906318cbafe5908590849030612660426104b0613df0565b6040518663ffffffff1660e01b8152600401612680959493929190613d3a565b600060405180830381600087803b15801561269a57600080fd5b505af11580156126ae573d6000803e3d6000fd5b505050506040513d6000823e601f3d908101601f191682016040526126d69190810190613767565b50505050565b6126e682826110bb565b610f62576126fe816001600160a01b0316601461291e565b61270983602061291e565b60405160200161271a929190613b42565b60408051601f198184030181529082905262461bcd60e51b825261092891600401613c98565b60606002825110156127945760405162461bcd60e51b815260206004820152601c60248201527f50616e63616b654c6962726172793a20494e56414c49445f50415448000000006044820152606401610928565b81516001600160401b038111156127bb57634e487b7160e01b600052604160045260246000fd5b6040519080825280602002602001820160405280156127e4578160200160208202803683370190505b509050828160008151811061280957634e487b7160e01b600052603260045260246000fd5b60200260200101818152505060005b600183516128269190613e47565b811015612916576000806128958786858151811061285457634e487b7160e01b600052603260045260246000fd5b60200260200101518786600161286a9190613df0565b8151811061288857634e487b7160e01b600052603260045260246000fd5b6020026020010151612aff565b915091506128cb8484815181106128bc57634e487b7160e01b600052603260045260246000fd5b60200260200101518383612be4565b846128d7856001613df0565b815181106128f557634e487b7160e01b600052603260045260246000fd5b6020026020010181815250505050808061290e90613edc565b915050612818565b509392505050565b6060600061292d836002613e28565b612938906002613df0565b6001600160401b0381111561295d57634e487b7160e01b600052604160045260246000fd5b6040519080825280601f01601f191660200182016040528015612987576020820181803683370190505b509050600360fc1b816000815181106129b057634e487b7160e01b600052603260045260246000fd5b60200101906001600160f81b031916908160001a905350600f60fb1b816001815181106129ed57634e487b7160e01b600052603260045260246000fd5b60200101906001600160f81b031916908160001a9053506000612a11846002613e28565b612a1c906001613df0565b90505b6001811115612ab0576f181899199a1a9b1b9c1cb0b131b232b360811b85600f1660108110612a5e57634e487b7160e01b600052603260045260246000fd5b1a60f81b828281518110612a8257634e487b7160e01b600052603260045260246000fd5b60200101906001600160f81b031916908160001a90535060049490941c93612aa981613e8a565b9050612a1f565b5083156110b45760405162461bcd60e51b815260206004820181905260248201527f537472696e67733a20686578206c656e67746820696e73756666696369656e746044820152606401610928565b6000806000612b0e8585612cff565b509050612b1c868686612dee565b50600080612b2b888888612dee565b6001600160a01b0316630902f1ac6040518163ffffffff1660e01b815260040160606040518083038186803b158015612b6357600080fd5b505afa158015612b77573d6000803e3d6000fd5b505050506040513d601f19601f82011682018060405250810190612b9b91906138f1565b506001600160701b031691506001600160701b03169150826001600160a01b0316876001600160a01b031614612bd2578082612bd5565b81815b90999098509650505050505050565b6000808411612c475760405162461bcd60e51b815260206004820152602960248201527f50616e63616b654c6962726172793a20494e53554646494349454e545f494e50604482015268155517d05353d5539560ba1b6064820152608401610928565b600083118015612c575750600082115b612cb25760405162461bcd60e51b815260206004820152602660248201527f50616e63616b654c6962726172793a20494e53554646494349454e545f4c495160448201526555494449545960d01b6064820152608401610928565b6000612cc0856103e5612ec7565b90506000612cce8285612ec7565b90506000612ce883612ce2886103e8612ec7565b90612f2e565b9050612cf48183613e08565b979650505050505050565b600080826001600160a01b0316846001600160a01b03161415612d705760405162461bcd60e51b815260206004820152602360248201527f50616e63616b654c6962726172793a204944454e544943414c5f41444452455360448201526253455360e81b6064820152608401610928565b826001600160a01b0316846001600160a01b031610612d90578284612d93565b83835b90925090506001600160a01b0382166119985760405162461bcd60e51b815260206004820152601c60248201527f50616e63616b654c6962726172793a205a45524f5f41444452455353000000006044820152606401610928565b6000806000612dfd8585612cff565b6040516bffffffffffffffffffffffff19606084811b8216602084015283901b1660348201529193509150869060480160405160208183030381529060405280519060200120604051602001612ea59291906001600160f81b0319815260609290921b6bffffffffffffffffffffffff1916600183015260158201527f613b36de6401276e4d938ad0db4063490e66bb3ab2e4aec17cab78a15ea7a0b6603582015260550190565b60408051601f1981840301815291905280516020909101209695505050505050565b6000811580612eeb57508282612edd8183613e28565b9250612ee99083613e08565b145b6108ba5760405162461bcd60e51b815260206004820152601460248201527364732d6d6174682d6d756c2d6f766572666c6f7760601b6044820152606401610928565b600082612f3b8382613df0565b91508110156108ba5760405162461bcd60e51b815260206004820152601460248201527364732d6d6174682d6164642d6f766572666c6f7760601b6044820152606401610928565b828054828255906000526020600020908101928215612fd8579160200282015b82811115612fd857825182546001600160a01b0319166001600160a01b03909116178255602090920191600190910190612fa3565b50612fe4929150612fe8565b5090565b5b80821115612fe45760008155600101612fe9565b60008083601f84011261300e578182fd5b5081356001600160401b03811115613024578182fd5b6020830191508360208260051b850101111561199857600080fd5b600082601f83011261304f578081fd5b8135602061306461305f83613da6565b613d76565b80838252828201915082860187848660051b8901011115613083578586fd5b855b858110156130aa57813561309881613f23565b84529284019290840190600101613085565b5090979650505050505050565b600082601f8301126130c7578081fd5b813560206130d761305f83613da6565b80838252828201915082860187848660051b89010111156130f6578586fd5b855b858110156130aa5781356001600160401b03811115613115578788fd5b6131238a87838c0101613287565b85525092840192908401906001016130f8565b600082601f830112613146578081fd5b8135602061315661305f83613da6565b80838252828201915082860187848660051b8901011115613175578586fd5b855b858110156130aa57813584529284019290840190600101613177565b600082601f8301126131a3578081fd5b815160206131b361305f83613da6565b80838252828201915082860187848660051b89010111156131d2578586fd5b855b858110156130aa578151845292840192908401906001016131d4565b600082601f830112613200578081fd5b813561320e61305f82613dc9565b818152846020838601011115613222578283fd5b816020850160208301379081016020019190915292915050565b600082601f83011261324c578081fd5b815161325a61305f82613dc9565b81815284602083860101111561326e578283fd5b61327f826020830160208701613e5e565b949350505050565b600060408284031215613298578081fd5b604051604081016001600160401b0382821081831117156132bb576132bb613f0d565b8160405282935084359150808211156132d357600080fd5b506132e0858286016131f0565b825250602083013560208201525092915050565b80516001600160701b038116811461330b57600080fd5b919050565b600060208284031215613321578081fd5b81356110b481613f23565b60006020828403121561333d578081fd5b81516110b481613f23565b60008060006060848603121561335c578182fd5b833561336781613f23565b9250602084013561337781613f23565b915060408401356001600160401b03811115613391578182fd5b61339d8682870161303f565b9150509250925092565b6000806000606084860312156133bb578081fd5b83356133c681613f23565b925060208401356133d681613f23565b929592945050506040919091013590565b600080604083850312156133f9578182fd5b823561340481613f23565b946020939093013593505050565b600080600080600080600080600060a08a8c03121561342f578687fd5b89356001600160401b0380821115613445578889fd5b6134518d838e01612ffd565b909b50995060208c0135915080821115613469578889fd5b6134758d838e01612ffd565b909950975060408c013591508082111561348d578687fd5b6134998d838e01612ffd565b909750955060608c013591506134ae82613f23565b90935060808b013590808211156134c3578384fd5b818c0191508c601f8301126134d6578384fd5b8135818111156134e4578485fd5b8d60208285010111156134f5578485fd5b6020830194508093505050509295985092959850929598565b60008060408385031215613520578182fd5b82356001600160401b0380821115613536578384fd5b6135428683870161303f565b93506020850135915080821115613557578283fd5b5061356485828601613136565b9150509250929050565b60008060408385031215613580578182fd5b82356001600160401b0380821115613596578384fd5b818501915085601f8301126135a9578384fd5b813560206135b961305f83613da6565b8083825282820191508286018a848660051b89010111156135d8578889fd5b885b85811015613611578135878111156135f0578a8bfd5b6135fe8d87838c01016131f0565b85525092840192908401906001016135da565b50909750505086013592505080821115613557578283fd5b6000806040838503121561363b578182fd5b82516001600160401b0380821115613651578384fd5b818501915085601f830112613664578384fd5b8151602061367461305f83613da6565b8083825282820191508286018a848660051b8901011115613693578889fd5b885b858110156136cc578151878111156136ab578a8bfd5b6136b98d87838c010161323c565b8552509284019290840190600101613695565b5050918801519196509093505050808211156136e6578283fd5b5061356485828601613193565b600060208284031215613704578081fd5b81356001600160401b03811115613719578182fd5b61327f848285016130b7565b60008060408385031215613737578182fd5b82356001600160401b0381111561374c578283fd5b613758858286016130b7565b95602094909401359450505050565b600060208284031215613778578081fd5b81516001600160401b0381111561378d578182fd5b61327f84828501613193565b6000602082840312156137aa578081fd5b815180151581146110b4578182fd5b6000602082840312156137ca578081fd5b5035919050565b600080604083850312156137e3578182fd5b8235915060208301356137f581613f23565b809150509250929050565b600060208284031215613811578081fd5b81356001600160e01b0319811681146110b4578182fd5b600060208284031215613839578081fd5b81356001600160401b0381111561384e578182fd5b61327f848285016131f0565b60006020828403121561386b578081fd5b81516001600160401b03811115613880578182fd5b61327f8482850161323c565b6000806040838503121561389e578182fd5b82356001600160401b038111156138b3578283fd5b613758858286016131f0565b6000602082840312156138d0578081fd5b81356001600160401b038111156138e5578182fd5b61327f84828501613287565b600080600060608486031215613905578081fd5b61390e846132f4565b925061391c602085016132f4565b9150604084015163ffffffff81168114613934578182fd5b809150509250925092565b600060208284031215613950578081fd5b5051919050565b6000806000806000806000806000806101408b8d031215613976578384fd5b8a51995060208b01516001600160401b03811115613992578485fd5b61399e8d828e0161323c565b99505060408b01516139af81613f23565b60608c01519098506139c081613f23565b8097505060808b0151955060a08b0151945060c08b0151935060e08b015192506101008b015191506101208b015190509295989b9194979a5092959850565b6000815180845260208085019450808401835b83811015613a375781516001600160a01b031687529582019590820190600101613a12565b509495945050505050565b6000815480845260208085019450838352808320835b83811015613a375781546001600160a01b031687529582019560019182019101613a58565b600081518084526020808501808196508360051b81019150828601855b85811015613ada578284038952815160408151818752613abc82880182613b16565b92880151968801969096525098850198935090840190600101613a9a565b5091979650505050505050565b6000815180845260208085019450808401835b83811015613a3757815187529582019590820190600101613afa565b60008151808452613b2e816020860160208601613e5e565b601f01601f19169290920160200192915050565b7f416363657373436f6e74726f6c3a206163636f756e7420000000000000000000815260008351613b7a816017850160208801613e5e565b7001034b99036b4b9b9b4b733903937b6329607d1b6017918401918201528351613bab816028840160208801613e5e565b01602801949350505050565b600060018060a01b03808a16835260e06020840152613bd960e084018a6139ff565b8381036040850152613beb818a613ae7565b90508381036060850152613bff8189613ae7565b9050818716608085015283810360a0850152613c1b8187613b16565b9250505061ffff831660c083015298975050505050505050565b604081526000613c4860408301856139ff565b8281036020840152613c5a8185613ae7565b95945050505050565b6020815260006110b46020830184613a7d565b604081526000613c896040830185613a7d565b90508260208301529392505050565b6020815260006110b46020830184613b16565b606081526000613cbe6060830186613b16565b6001600160a01b039490941660208301525060400152919050565b604081526000613c896040830185613b16565b82815260406020820152600061327f6040830184613a42565b848152608060208201526000613d1e6080830186613a42565b6001600160a01b03949094166040830152506060015292915050565b85815284602082015260a060408201526000613d5960a0830186613a42565b6001600160a01b0394909416606083015250608001529392505050565b604051601f8201601f191681016001600160401b0381118282101715613d9e57613d9e613f0d565b604052919050565b60006001600160401b03821115613dbf57613dbf613f0d565b5060051b60200190565b60006001600160401b03821115613de257613de2613f0d565b50601f01601f191660200190565b60008219821115613e0357613e03613ef7565b500190565b600082613e2357634e487b7160e01b81526012600452602481fd5b500490565b6000816000190483118215151615613e4257613e42613ef7565b500290565b600082821015613e5957613e59613ef7565b500390565b60005b83811015613e79578181015183820152602001613e61565b838111156126d65750506000910152565b600081613e9957613e99613ef7565b506000190190565b600181811c90821680613eb557607f821691505b60208210811415613ed657634e487b7160e01b600052602260045260246000fd5b50919050565b6000600019821415613ef057613ef0613ef7565b5060010190565b634e487b7160e01b600052601160045260246000fd5b634e487b7160e01b600052604160045260246000fd5b6001600160a01b03811681146122c457600080fdfea2646970667358221220f176690e29983cc6d4fa77e0eae437238ce5870f9de9bb990a77a648835ac3cc64736f6c63430008040033000000000000000000000000aeaaf0e2c81af264101b9129c00f4440ccf0f720",
    "linkReferences": {}
  },
  "methodIdentifiers": {
    "ADDRESSES_PROVIDER()": "0542975c",
    "DEFAULT_ADMIN_ROLE()": "a217fddf",
    "FACTORY()": "2dd31000",
    "LENDING_POOL()": "b4dcfc77",
    "LIQUIDATOR()": "46b88796",
    "ROUTER()": "32fe7b26",
    "adapter()": "03eadcfc",
    "addrByName(string)": "ee52a504",
    "assetManager()": "94217ad1",
    "assetsToLiquidate(uint256)": "a48a45a0",
    "baiAddr()": "6af13ea7",
    "bnbAddr()": "b7f60550",
    "busdAddr()": "f2c78d09",
    "ceusdcAddr()": "b1dc1aac",
    "ceusdtAddr()": "1c29f303",
    "colToASTRPath(uint256)": "d0c964ae",
    "currentUser()": "92ee0334",
    "daiAddr()": "74fa0a63",
    "dotAddr()": "5963ddc1",
    "eventEmitting()": "28ccaddd",
    "executeOperation(address[],uint256[],uint256[],address,bytes)": "920f5c84",
    "fillAssetsToLiquidate((string,uint256)[],uint256)": "b6a635d6",
    "flashloan(address[],uint256[])": "a933963c",
    "fromUSD(string,uint256)": "554ec192",
    "getPriceUSD((string,uint256))": "1d93aa36",
    "getRoleAdmin(bytes32)": "248a9ca3",
    "grantRole(bytes32,address)": "2f2ff15d",
    "hasRole(bytes32,address)": "91d14854",
    "liquidate(address)": "2f865568",
    "mergeArraysAndCalcSumUSD(string[],uint256[])": "9b9bc974",
    "nastrAddr()": "51319b82",
    "pairToPath(address,address,uint256)": "35354bb7",
    "pool()": "16f0115b",
    "renounceRole(bytes32,address)": "36568abe",
    "revokeRole(bytes32,address)": "d547741f",
    "setPath(address,address,address[])": "055227a1",
    "supportsInterface(bytes4)": "01ffc9a7",
    "toDescendingOrder((string,uint256)[])": "30be6258",
    "wastrAddr()": "74b74a5e",
    "wbtcAddr()": "7ef11761",
    "wethAddr()": "7d5aa5f4",
    "withdraw()": "3ccfd60b",
    "withdrawToken(address,uint256)": "9e281a98"
  },
  "id": 4
}