{
  "abi": [
    {
      "inputs": [
        {
          "internalType": "contract MockSCollateralToken",
          "name": "_snastr",
          "type": "address"
        },
        {
          "internalType": "contract MockERC20",
          "name": "_nastr",
          "type": "address"
        },
        {
          "internalType": "contract MockERC20",
          "name": "_busd",
          "type": "address"
        },
        {
          "internalType": "contract MockERC20",
          "name": "_dot",
          "type": "address"
        },
        {
          "internalType": "contract MockVDToken",
          "name": "_vdbusd",
          "type": "address"
        },
        {
          "internalType": "contract MockVDToken",
          "name": "_vddot",
          "type": "address"
        },
        {
          "internalType": "contract MockERC20",
          "name": "_dai",
          "type": "address"
        },
        {
          "internalType": "contract MockVDToken",
          "name": "_vddai",
          "type": "address"
        },
        {
          "internalType": "contract MockERC20",
          "name": "_usdc",
          "type": "address"
        },
        {
          "internalType": "contract MockVDToken",
          "name": "_vdusdc",
          "type": "address"
        },
        {
          "internalType": "contract MockERC20",
          "name": "_usdt",
          "type": "address"
        },
        {
          "internalType": "contract MockVDToken",
          "name": "_vdusdt",
          "type": "address"
        }
      ],
      "stateMutability": "nonpayable",
      "type": "constructor"
    },
    {
      "inputs": [
        {
          "internalType": "address",
          "name": "",
          "type": "address"
        }
      ],
      "name": "assets",
      "outputs": [
        {
          "internalType": "contract MockERC20",
          "name": "",
          "type": "address"
        }
      ],
      "stateMutability": "view",
      "type": "function"
    },
    {
      "inputs": [
        {
          "internalType": "address",
          "name": "asset",
          "type": "address"
        },
        {
          "internalType": "uint256",
          "name": "amount",
          "type": "uint256"
        },
        {
          "internalType": "uint256",
          "name": "interestRateMode",
          "type": "uint256"
        },
        {
          "internalType": "uint16",
          "name": "referralCode",
          "type": "uint16"
        },
        {
          "internalType": "address",
          "name": "onBehalfOf",
          "type": "address"
        }
      ],
      "name": "borrow",
      "outputs": [],
      "stateMutability": "nonpayable",
      "type": "function"
    },
    {
      "inputs": [],
      "name": "borrowAmount",
      "outputs": [
        {
          "internalType": "uint256",
          "name": "",
          "type": "uint256"
        }
      ],
      "stateMutability": "view",
      "type": "function"
    },
    {
      "inputs": [],
      "name": "busd",
      "outputs": [
        {
          "internalType": "contract MockERC20",
          "name": "",
          "type": "address"
        }
      ],
      "stateMutability": "view",
      "type": "function"
    },
    {
      "inputs": [],
      "name": "busdConfigMap",
      "outputs": [
        {
          "internalType": "uint256",
          "name": "data",
          "type": "uint256"
        }
      ],
      "stateMutability": "view",
      "type": "function"
    },
    {
      "inputs": [
        {
          "internalType": "address",
          "name": "",
          "type": "address"
        }
      ],
      "name": "collateralAmount",
      "outputs": [
        {
          "internalType": "uint256",
          "name": "",
          "type": "uint256"
        }
      ],
      "stateMutability": "view",
      "type": "function"
    },
    {
      "inputs": [],
      "name": "dai",
      "outputs": [
        {
          "internalType": "contract MockERC20",
          "name": "",
          "type": "address"
        }
      ],
      "stateMutability": "view",
      "type": "function"
    },
    {
      "inputs": [
        {
          "internalType": "address",
          "name": "",
          "type": "address"
        }
      ],
      "name": "debtAssets",
      "outputs": [
        {
          "internalType": "contract MockVDToken",
          "name": "",
          "type": "address"
        }
      ],
      "stateMutability": "view",
      "type": "function"
    },
    {
      "inputs": [
        {
          "internalType": "address",
          "name": "asset",
          "type": "address"
        },
        {
          "internalType": "uint256",
          "name": "amount",
          "type": "uint256"
        },
        {
          "internalType": "address",
          "name": "onBehalfOf",
          "type": "address"
        },
        {
          "internalType": "uint16",
          "name": "referralCode",
          "type": "uint16"
        }
      ],
      "name": "deposit",
      "outputs": [],
      "stateMutability": "nonpayable",
      "type": "function"
    },
    {
      "inputs": [
        {
          "internalType": "address",
          "name": "asset",
          "type": "address"
        }
      ],
      "name": "getConfiguration",
      "outputs": [
        {
          "components": [
            {
              "internalType": "uint256",
              "name": "data",
              "type": "uint256"
            }
          ],
          "internalType": "struct DataTypes.ReserveConfigurationMap",
          "name": "",
          "type": "tuple"
        }
      ],
      "stateMutability": "view",
      "type": "function"
    },
    {
      "inputs": [
        {
          "internalType": "address",
          "name": "user",
          "type": "address"
        }
      ],
      "name": "getUserAccountData",
      "outputs": [
        {
          "internalType": "uint256",
          "name": "totalCollateralETH",
          "type": "uint256"
        },
        {
          "internalType": "uint256",
          "name": "totalDebtETH",
          "type": "uint256"
        },
        {
          "internalType": "uint256",
          "name": "availableBorrowsETH",
          "type": "uint256"
        },
        {
          "internalType": "uint256",
          "name": "currentLiquidationThreshold",
          "type": "uint256"
        },
        {
          "internalType": "uint256",
          "name": "ltv",
          "type": "uint256"
        },
        {
          "internalType": "uint256",
          "name": "healthFactor",
          "type": "uint256"
        }
      ],
      "stateMutability": "view",
      "type": "function"
    },
    {
      "inputs": [],
      "name": "nastr",
      "outputs": [
        {
          "internalType": "contract MockERC20",
          "name": "",
          "type": "address"
        }
      ],
      "stateMutability": "view",
      "type": "function"
    },
    {
      "inputs": [
        {
          "internalType": "address",
          "name": "asset",
          "type": "address"
        },
        {
          "internalType": "uint256",
          "name": "amount",
          "type": "uint256"
        },
        {
          "internalType": "uint256",
          "name": "rateMode",
          "type": "uint256"
        },
        {
          "internalType": "address",
          "name": "onBehalfOf",
          "type": "address"
        }
      ],
      "name": "repay",
      "outputs": [
        {
          "internalType": "uint256",
          "name": "",
          "type": "uint256"
        }
      ],
      "stateMutability": "nonpayable",
      "type": "function"
    },
    {
      "inputs": [],
      "name": "snastr",
      "outputs": [
        {
          "internalType": "contract MockSCollateralToken",
          "name": "",
          "type": "address"
        }
      ],
      "stateMutability": "view",
      "type": "function"
    },
    {
      "inputs": [],
      "name": "vdbusd",
      "outputs": [
        {
          "internalType": "contract MockVDToken",
          "name": "",
          "type": "address"
        }
      ],
      "stateMutability": "view",
      "type": "function"
    },
    {
      "inputs": [],
      "name": "vddai",
      "outputs": [
        {
          "internalType": "contract MockVDToken",
          "name": "",
          "type": "address"
        }
      ],
      "stateMutability": "view",
      "type": "function"
    },
    {
      "inputs": [
        {
          "internalType": "address",
          "name": "asset",
          "type": "address"
        },
        {
          "internalType": "uint256",
          "name": "amount",
          "type": "uint256"
        },
        {
          "internalType": "address",
          "name": "to",
          "type": "address"
        }
      ],
      "name": "withdraw",
      "outputs": [
        {
          "internalType": "uint256",
          "name": "",
          "type": "uint256"
        }
      ],
      "stateMutability": "nonpayable",
      "type": "function"
    }
  ],
  "bytecode": {
    "object": "0x60806040523480156200001157600080fd5b5060405162000ed138038062000ed183398101604081905262000034916200039d565b8b6000806101000a8154816001600160a01b0302191690836001600160a01b031602179055506905dc0d12280a21341f406002600001819055508a600160006101000a8154816001600160a01b0302191690836001600160a01b0316021790555089600760008c6001600160a01b03166001600160a01b0316815260200190815260200160002060006101000a8154816001600160a01b0302191690836001600160a01b0316021790555088600760008b6001600160a01b03166001600160a01b0316815260200190815260200160002060006101000a8154816001600160a01b0302191690836001600160a01b0316021790555087600860008c6001600160a01b03166001600160a01b0316815260200190815260200160002060006101000a8154816001600160a01b0302191690836001600160a01b0316021790555086600860008b6001600160a01b03166001600160a01b0316815260200190815260200160002060006101000a8154816001600160a01b0302191690836001600160a01b031602179055508560076000886001600160a01b03166001600160a01b0316815260200190815260200160002060006101000a8154816001600160a01b0302191690836001600160a01b031602179055508460086000886001600160a01b03166001600160a01b0316815260200190815260200160002060006101000a8154816001600160a01b0302191690836001600160a01b031602179055508360076000866001600160a01b03166001600160a01b0316815260200190815260200160002060006101000a8154816001600160a01b0302191690836001600160a01b031602179055508260086000866001600160a01b03166001600160a01b0316815260200190815260200160002060006101000a8154816001600160a01b0302191690836001600160a01b031602179055508160076000846001600160a01b03166001600160a01b0316815260200190815260200160002060006101000a8154816001600160a01b0302191690836001600160a01b031602179055508060086000846001600160a01b03166001600160a01b0316815260200190815260200160002060006101000a8154816001600160a01b0302191690836001600160a01b03160217905550505050505050505050505050620004bb565b80516200039881620004a2565b919050565b6000806000806000806000806000806000806101808d8f031215620003c0578788fd5b8c51620003cd81620004a2565b60208e0151909c50620003e081620004a2565b60408e0151909b50620003f381620004a2565b60608e0151909a506200040681620004a2565b60808e01519099506200041981620004a2565b60a08e01519098506200042c81620004a2565b96506200043c60c08e016200038b565b95506200044c60e08e016200038b565b94506200045d6101008e016200038b565b93506200046e6101208e016200038b565b92506200047f6101408e016200038b565b9150620004906101608e016200038b565b90509295989b509295989b509295989b565b6001600160a01b0381168114620004b857600080fd5b50565b610a0680620004cb6000396000f3fe608060405234801561001057600080fd5b506004361061010b5760003560e01c8063a415bcad116100a2578063bf92857c11610071578063bf92857c14610231578063c44b11f714610280578063e8eda9df146102be578063f11b8188146102d1578063f4b9fa75146102fa57600080fd5b8063a415bcad146101e0578063b2cd0fdc146101f5578063b7dd32aa14610215578063bd728a541461021e57600080fd5b80633ca5b234116100de5780633ca5b2341461019457806342c99509146101a7578063573ade81146101ba57806369328dec146101cd57600080fd5b80631be30612146101105780631da3501f146101405780631eb738a31461015357806333ec1a261461017c575b600080fd5b600454610123906001600160a01b031681565b6040516001600160a01b0390911681526020015b60405180910390f35b600654610123906001600160a01b031681565b610123610161366004610833565b6008602052600090815260409020546001600160a01b031681565b6002546101869081565b604051908152602001610137565b600354610123906001600160a01b031681565b600154610123906001600160a01b031681565b6101866101c83660046108db565b61030d565b6101866101db366004610854565b61043b565b6101f36101ee366004610915565b6105c7565b005b610186610203366004610833565b60096020526000908152604090205481565b610186600a5481565b600054610123906001600160a01b031681565b61025361023f366004610833565b506000908190819061203a90611e46908390565b604080519687526020870195909552938501929092526060840152608083015260a082015260c001610137565b6102af61028e366004610833565b50604080516020808201835260009091528151908101909152600254815290565b60405190518152602001610137565b6101f36102cc36600461088f565b6106ec565b6101236102df366004610833565b6007602052600090815260409020546001600160a01b031681565b600554610123906001600160a01b031681565b600083600a600082825461032191906109a3565b90915550506001600160a01b03858116600090815260076020526040908190205490516323b872dd60e01b8152336004820152306024820152604481018790529116906323b872dd90606401602060405180830381600087803b15801561038757600080fd5b505af115801561039b573d6000803e3d6000fd5b505050506040513d601f19601f820116820180604052508101906103bf919061096b565b506001600160a01b0385811660009081526008602052604090819020549051632770a7eb60e21b815233600482015260248101879052911690639dc29fac90604401600060405180830381600087803b15801561041b57600080fd5b505af115801561042f573d6000803e3d6000fd5b50505050949350505050565b336000908152600960205260408120548311156104b25760405162461bcd60e51b815260206004820152602b60248201527f4d6f636b3a204e6f7420656e6f75676820636f6c6c61746572616c20696e206c60448201526a195b991a5b99c81c1bdbdb60aa1b606482015260840160405180910390fd5b33600090815260096020526040812080548592906104d19084906109a3565b9091555050600054604051632770a7eb60e21b8152336004820152602481018590526001600160a01b0390911690639dc29fac90604401600060405180830381600087803b15801561052257600080fd5b505af1158015610536573d6000803e3d6000fd5b505060015460405163a9059cbb60e01b8152336004820152602481018790526001600160a01b03909116925063a9059cbb9150604401602060405180830381600087803b15801561058657600080fd5b505af115801561059a573d6000803e3d6000fd5b505050506040513d601f19601f820116820180604052508101906105be919061096b565b50919392505050565b83600a60008282546105d9919061098b565b90915550506001600160a01b03858116600090815260076020526040908190205490516340c10f1960e01b8152336004820152602481018790529116906340c10f1990604401602060405180830381600087803b15801561063957600080fd5b505af115801561064d573d6000803e3d6000fd5b505050506040513d601f19601f82011682018060405250810190610671919061096b565b506001600160a01b03858116600090815260086020526040908190205490516340c10f1960e01b8152336004820152602481018790529116906340c10f1990604401600060405180830381600087803b1580156106cd57600080fd5b505af11580156106e1573d6000803e3d6000fd5b505050505050505050565b336000908152600960205260408120805485929061070b90849061098b565b90915550506000546040516340c10f1960e01b8152336004820152602481018590526001600160a01b03909116906340c10f1990604401600060405180830381600087803b15801561075c57600080fd5b505af1158015610770573d6000803e3d6000fd5b50506001546040516323b872dd60e01b8152336004820152306024820152604481018790526001600160a01b0390911692506323b872dd9150606401602060405180830381600087803b1580156107c657600080fd5b505af11580156107da573d6000803e3d6000fd5b505050506040513d601f19601f820116820180604052508101906107fe919061096b565b5050505050565b80356001600160a01b038116811461081c57600080fd5b919050565b803561ffff8116811461081c57600080fd5b600060208284031215610844578081fd5b61084d82610805565b9392505050565b600080600060608486031215610868578182fd5b61087184610805565b92506020840135915061088660408501610805565b90509250925092565b600080600080608085870312156108a4578081fd5b6108ad85610805565b9350602085013592506108c260408601610805565b91506108d060608601610821565b905092959194509250565b600080600080608085870312156108f0578384fd5b6108f985610805565b935060208501359250604085013591506108d060608601610805565b600080600080600060a0868803121561092c578081fd5b61093586610805565b9450602086013593506040860135925061095160608701610821565b915061095f60808701610805565b90509295509295909350565b60006020828403121561097c578081fd5b8151801515811461084d578182fd5b6000821982111561099e5761099e6109ba565b500190565b6000828210156109b5576109b56109ba565b500390565b634e487b7160e01b600052601160045260246000fdfea2646970667358221220485fdc685837b02228bbde1e1ad0fc99565a6523b78d4f3fa5cc897c0880dd1564736f6c63430008040033",
    "linkReferences": {}
  },
  "methodIdentifiers": {
    "assets(address)": "f11b8188",
    "borrow(address,uint256,uint256,uint16,address)": "a415bcad",
    "borrowAmount()": "b7dd32aa",
    "busd()": "3ca5b234",
    "busdConfigMap()": "33ec1a26",
    "collateralAmount(address)": "b2cd0fdc",
    "dai()": "f4b9fa75",
    "debtAssets(address)": "1eb738a3",
    "deposit(address,uint256,address,uint16)": "e8eda9df",
    "getConfiguration(address)": "c44b11f7",
    "getUserAccountData(address)": "bf92857c",
    "nastr()": "42c99509",
    "repay(address,uint256,uint256,address)": "573ade81",
    "snastr()": "bd728a54",
    "vdbusd()": "1be30612",
    "vddai()": "1da3501f",
    "withdraw(address,uint256,address)": "69328dec"
  },
  "id": 78
}