{
  "abi": [
    {
      "inputs": [
        {
          "internalType": "contract MockERC20",
          "name": "_gauge",
          "type": "address"
        },
        {
          "internalType": "contract MockERC20",
          "name": "_lp",
          "type": "address"
        }
      ],
      "stateMutability": "nonpayable",
      "type": "constructor"
    },
    {
      "inputs": [
        {
          "internalType": "address",
          "name": "_addr",
          "type": "address"
        }
      ],
      "name": "claimableTokens",
      "outputs": [
        {
          "internalType": "uint256",
          "name": "",
          "type": "uint256"
        }
      ],
      "stateMutability": "nonpayable",
      "type": "function"
    },
    {
      "inputs": [
        {
          "internalType": "uint256",
          "name": "value",
          "type": "uint256"
        },
        {
          "internalType": "address",
          "name": "account",
          "type": "address"
        },
        {
          "internalType": "bool",
          "name": "_claimRewards",
          "type": "bool"
        }
      ],
      "name": "deposit",
      "outputs": [],
      "stateMutability": "nonpayable",
      "type": "function"
    },
    {
      "inputs": [],
      "name": "gauge",
      "outputs": [
        {
          "internalType": "contract MockERC20",
          "name": "",
          "type": "address"
        }
      ],
      "stateMutability": "view",
      "type": "function"
    },
    {
      "inputs": [],
      "name": "lp",
      "outputs": [
        {
          "internalType": "contract MockERC20",
          "name": "",
          "type": "address"
        }
      ],
      "stateMutability": "view",
      "type": "function"
    },
    {
      "inputs": [
        {
          "internalType": "address",
          "name": "user",
          "type": "address"
        },
        {
          "internalType": "uint256",
          "name": "time",
          "type": "uint256"
        }
      ],
      "name": "setStartTime",
      "outputs": [],
      "stateMutability": "nonpayable",
      "type": "function"
    },
    {
      "inputs": [
        {
          "internalType": "address",
          "name": "",
          "type": "address"
        }
      ],
      "name": "startTime",
      "outputs": [
        {
          "internalType": "uint256",
          "name": "",
          "type": "uint256"
        }
      ],
      "stateMutability": "view",
      "type": "function"
    },
    {
      "inputs": [
        {
          "internalType": "uint256",
          "name": "value",
          "type": "uint256"
        },
        {
          "internalType": "bool",
          "name": "_claimRewards",
          "type": "bool"
        }
      ],
      "name": "withdraw",
      "outputs": [],
      "stateMutability": "nonpayable",
      "type": "function"
    }
  ],
  "bytecode": {
    "object": "0x608060405234801561001057600080fd5b506040516105dd3803806105dd83398101604081905261002f9161007c565b600080546001600160a01b039384166001600160a01b031991821617909155600180549290931691161790556100ae565b80516001600160a01b038116811461007757600080fd5b919050565b6000806040838503121561008e578182fd5b61009783610060565b91506100a560208401610060565b90509250929050565b610520806100bd6000396000f3fe608060405234801561001057600080fd5b506004361061007d5760003560e01c806383df67471161005b57806383df6747146100f557806384d2422614610108578063a6f19c841461011b578063d684395d1461012e57600080fd5b8063313c06a01461008257806338d07436146100b25780636e1dc66e146100c7575b600080fd5b600154610095906001600160a01b031681565b6040516001600160a01b0390911681526020015b60405180910390f35b6100c56100c036600461045e565b610158565b005b6100e76100d53660046103c0565b60026020526000908152604090205481565b6040519081526020016100a9565b6100c561010336600461041f565b61026c565b6100e76101163660046103c0565b610372565b600054610095906001600160a01b031681565b6100c561013c3660046103da565b6001600160a01b03909116600090815260026020526040902055565b6000546040516323b872dd60e01b8152336004820152306024820152604481018490526001600160a01b03909116906323b872dd90606401602060405180830381600087803b1580156101aa57600080fd5b505af11580156101be573d6000803e3d6000fd5b505050506040513d601f19601f820116820180604052508101906101e29190610403565b5060015460405163a9059cbb60e01b8152336004820152602481018490526001600160a01b039091169063a9059cbb90604401602060405180830381600087803b15801561022f57600080fd5b505af1158015610243573d6000803e3d6000fd5b505050506040513d601f19601f820116820180604052508101906102679190610403565b505050565b6001546040516323b872dd60e01b8152336004820152306024820152604481018590526001600160a01b03909116906323b872dd90606401602060405180830381600087803b1580156102be57600080fd5b505af11580156102d2573d6000803e3d6000fd5b505050506040513d601f19601f820116820180604052508101906102f69190610403565b506000546040516340c10f1960e01b8152336004820152602481018590526001600160a01b03909116906340c10f1990604401600060405180830381600087803b15801561034357600080fd5b505af1158015610357573d6000803e3d6000fd5b50503360009081526002602052604090204290555050505050565b33600090815260026020526040812054819061038e90426104ac565b905061039d81620f424061048d565b9392505050565b80356001600160a01b03811681146103bb57600080fd5b919050565b6000602082840312156103d1578081fd5b61039d826103a4565b600080604083850312156103ec578081fd5b6103f5836103a4565b946020939093013593505050565b600060208284031215610414578081fd5b815161039d816104d9565b600080600060608486031215610433578081fd5b83359250610443602085016103a4565b91506040840135610453816104d9565b809150509250925092565b60008060408385031215610470578182fd5b823591506020830135610482816104d9565b809150509250929050565b60008160001904831182151516156104a7576104a76104c3565b500290565b6000828210156104be576104be6104c3565b500390565b634e487b7160e01b600052601160045260246000fd5b80151581146104e757600080fd5b5056fea26469706673582212208508789318b131335899b60a62ccc93a060ce07e29440cc03e1054d57ad2f36b64736f6c63430008040033",
    "linkReferences": {}
  },
  "methodIdentifiers": {
    "claimableTokens(address)": "84d24226",
    "deposit(uint256,address,bool)": "83df6747",
    "gauge()": "a6f19c84",
    "lp()": "313c06a0",
    "setStartTime(address,uint256)": "d684395d",
    "startTime(address)": "6e1dc66e",
    "withdraw(uint256,bool)": "38d07436"
  },
  "id": 23
}