{
  "abi": [
    {
      "anonymous": false,
      "inputs": [
        {
          "indexed": true,
          "internalType": "address",
          "name": "owner",
          "type": "address"
        },
        {
          "indexed": true,
          "internalType": "address",
          "name": "approved",
          "type": "address"
        },
        {
          "indexed": true,
          "internalType": "uint256",
          "name": "tokenId",
          "type": "uint256"
        }
      ],
      "name": "Approval",
      "type": "event"
    },
    {
      "anonymous": false,
      "inputs": [
        {
          "indexed": true,
          "internalType": "address",
          "name": "owner",
          "type": "address"
        },
        {
          "indexed": true,
          "internalType": "address",
          "name": "operator",
          "type": "address"
        },
        {
          "indexed": false,
          "internalType": "bool",
          "name": "approved",
          "type": "bool"
        }
      ],
      "name": "ApprovalForAll",
      "type": "event"
    },
    {
      "anonymous": false,
      "inputs": [
        {
          "indexed": false,
          "internalType": "uint8",
          "name": "version",
          "type": "uint8"
        }
      ],
      "name": "Initialized",
      "type": "event"
    },
    {
      "anonymous": false,
      "inputs": [
        {
          "indexed": false,
          "internalType": "address",
          "name": "account",
          "type": "address"
        }
      ],
      "name": "Paused",
      "type": "event"
    },
    {
      "anonymous": false,
      "inputs": [
        {
          "indexed": true,
          "internalType": "bytes32",
          "name": "role",
          "type": "bytes32"
        },
        {
          "indexed": true,
          "internalType": "bytes32",
          "name": "previousAdminRole",
          "type": "bytes32"
        },
        {
          "indexed": true,
          "internalType": "bytes32",
          "name": "newAdminRole",
          "type": "bytes32"
        }
      ],
      "name": "RoleAdminChanged",
      "type": "event"
    },
    {
      "anonymous": false,
      "inputs": [
        {
          "indexed": true,
          "internalType": "bytes32",
          "name": "role",
          "type": "bytes32"
        },
        {
          "indexed": true,
          "internalType": "address",
          "name": "account",
          "type": "address"
        },
        {
          "indexed": true,
          "internalType": "address",
          "name": "sender",
          "type": "address"
        }
      ],
      "name": "RoleGranted",
      "type": "event"
    },
    {
      "anonymous": false,
      "inputs": [
        {
          "indexed": true,
          "internalType": "bytes32",
          "name": "role",
          "type": "bytes32"
        },
        {
          "indexed": true,
          "internalType": "address",
          "name": "account",
          "type": "address"
        },
        {
          "indexed": true,
          "internalType": "address",
          "name": "sender",
          "type": "address"
        }
      ],
      "name": "RoleRevoked",
      "type": "event"
    },
    {
      "anonymous": false,
      "inputs": [
        {
          "indexed": true,
          "internalType": "address",
          "name": "from",
          "type": "address"
        },
        {
          "indexed": true,
          "internalType": "address",
          "name": "to",
          "type": "address"
        },
        {
          "indexed": true,
          "internalType": "uint256",
          "name": "tokenId",
          "type": "uint256"
        }
      ],
      "name": "Transfer",
      "type": "event"
    },
    {
      "anonymous": false,
      "inputs": [
        {
          "indexed": false,
          "internalType": "address",
          "name": "account",
          "type": "address"
        }
      ],
      "name": "Unpaused",
      "type": "event"
    },
    {
      "inputs": [],
      "name": "DEFAULT_ADMIN_ROLE",
      "outputs": [
        {
          "internalType": "bytes32",
          "name": "",
          "type": "bytes32"
        }
      ],
      "stateMutability": "view",
      "type": "function"
    },
    {
      "inputs": [],
      "name": "MINTER_ROLE",
      "outputs": [
        {
          "internalType": "bytes32",
          "name": "",
          "type": "bytes32"
        }
      ],
      "stateMutability": "view",
      "type": "function"
    },
    {
      "inputs": [],
      "name": "PAUSER_ROLE",
      "outputs": [
        {
          "internalType": "bytes32",
          "name": "",
          "type": "bytes32"
        }
      ],
      "stateMutability": "view",
      "type": "function"
    },
    {
      "inputs": [
        {
          "internalType": "address",
          "name": "to",
          "type": "address"
        },
        {
          "internalType": "uint256",
          "name": "tokenId",
          "type": "uint256"
        }
      ],
      "name": "approve",
      "outputs": [],
      "stateMutability": "nonpayable",
      "type": "function"
    },
    {
      "inputs": [
        {
          "internalType": "address",
          "name": "owner",
          "type": "address"
        }
      ],
      "name": "balanceOf",
      "outputs": [
        {
          "internalType": "uint256",
          "name": "",
          "type": "uint256"
        }
      ],
      "stateMutability": "view",
      "type": "function"
    },
    {
      "inputs": [
        {
          "internalType": "uint256",
          "name": "tokenId",
          "type": "uint256"
        }
      ],
      "name": "burn",
      "outputs": [],
      "stateMutability": "nonpayable",
      "type": "function"
    },
    {
      "inputs": [
        {
          "internalType": "uint256",
          "name": "tokenId",
          "type": "uint256"
        }
      ],
      "name": "getApproved",
      "outputs": [
        {
          "internalType": "address",
          "name": "",
          "type": "address"
        }
      ],
      "stateMutability": "view",
      "type": "function"
    },
    {
      "inputs": [
        {
          "internalType": "bytes32",
          "name": "role",
          "type": "bytes32"
        }
      ],
      "name": "getRoleAdmin",
      "outputs": [
        {
          "internalType": "bytes32",
          "name": "",
          "type": "bytes32"
        }
      ],
      "stateMutability": "view",
      "type": "function"
    },
    {
      "inputs": [
        {
          "internalType": "bytes32",
          "name": "role",
          "type": "bytes32"
        },
        {
          "internalType": "uint256",
          "name": "index",
          "type": "uint256"
        }
      ],
      "name": "getRoleMember",
      "outputs": [
        {
          "internalType": "address",
          "name": "",
          "type": "address"
        }
      ],
      "stateMutability": "view",
      "type": "function"
    },
    {
      "inputs": [
        {
          "internalType": "bytes32",
          "name": "role",
          "type": "bytes32"
        }
      ],
      "name": "getRoleMemberCount",
      "outputs": [
        {
          "internalType": "uint256",
          "name": "",
          "type": "uint256"
        }
      ],
      "stateMutability": "view",
      "type": "function"
    },
    {
      "inputs": [
        {
          "internalType": "bytes32",
          "name": "role",
          "type": "bytes32"
        },
        {
          "internalType": "address",
          "name": "account",
          "type": "address"
        }
      ],
      "name": "grantRole",
      "outputs": [],
      "stateMutability": "nonpayable",
      "type": "function"
    },
    {
      "inputs": [
        {
          "internalType": "bytes32",
          "name": "role",
          "type": "bytes32"
        },
        {
          "internalType": "address",
          "name": "account",
          "type": "address"
        }
      ],
      "name": "hasRole",
      "outputs": [
        {
          "internalType": "bool",
          "name": "",
          "type": "bool"
        }
      ],
      "stateMutability": "view",
      "type": "function"
    },
    {
      "inputs": [
        {
          "internalType": "string",
          "name": "name",
          "type": "string"
        },
        {
          "internalType": "string",
          "name": "symbol",
          "type": "string"
        },
        {
          "internalType": "string",
          "name": "baseTokenURI",
          "type": "string"
        }
      ],
      "name": "initialize",
      "outputs": [],
      "stateMutability": "nonpayable",
      "type": "function"
    },
    {
      "inputs": [
        {
          "internalType": "address",
          "name": "owner",
          "type": "address"
        },
        {
          "internalType": "address",
          "name": "operator",
          "type": "address"
        }
      ],
      "name": "isApprovedForAll",
      "outputs": [
        {
          "internalType": "bool",
          "name": "",
          "type": "bool"
        }
      ],
      "stateMutability": "view",
      "type": "function"
    },
    {
      "inputs": [
        {
          "internalType": "address",
          "name": "to",
          "type": "address"
        }
      ],
      "name": "mint",
      "outputs": [],
      "stateMutability": "nonpayable",
      "type": "function"
    },
    {
      "inputs": [],
      "name": "name",
      "outputs": [
        {
          "internalType": "string",
          "name": "",
          "type": "string"
        }
      ],
      "stateMutability": "view",
      "type": "function"
    },
    {
      "inputs": [
        {
          "internalType": "uint256",
          "name": "tokenId",
          "type": "uint256"
        }
      ],
      "name": "ownerOf",
      "outputs": [
        {
          "internalType": "address",
          "name": "",
          "type": "address"
        }
      ],
      "stateMutability": "view",
      "type": "function"
    },
    {
      "inputs": [],
      "name": "pause",
      "outputs": [],
      "stateMutability": "nonpayable",
      "type": "function"
    },
    {
      "inputs": [],
      "name": "paused",
      "outputs": [
        {
          "internalType": "bool",
          "name": "",
          "type": "bool"
        }
      ],
      "stateMutability": "view",
      "type": "function"
    },
    {
      "inputs": [
        {
          "internalType": "bytes32",
          "name": "role",
          "type": "bytes32"
        },
        {
          "internalType": "address",
          "name": "account",
          "type": "address"
        }
      ],
      "name": "renounceRole",
      "outputs": [],
      "stateMutability": "nonpayable",
      "type": "function"
    },
    {
      "inputs": [
        {
          "internalType": "bytes32",
          "name": "role",
          "type": "bytes32"
        },
        {
          "internalType": "address",
          "name": "account",
          "type": "address"
        }
      ],
      "name": "revokeRole",
      "outputs": [],
      "stateMutability": "nonpayable",
      "type": "function"
    },
    {
      "inputs": [
        {
          "internalType": "address",
          "name": "from",
          "type": "address"
        },
        {
          "internalType": "address",
          "name": "to",
          "type": "address"
        },
        {
          "internalType": "uint256",
          "name": "tokenId",
          "type": "uint256"
        }
      ],
      "name": "safeTransferFrom",
      "outputs": [],
      "stateMutability": "nonpayable",
      "type": "function"
    },
    {
      "inputs": [
        {
          "internalType": "address",
          "name": "from",
          "type": "address"
        },
        {
          "internalType": "address",
          "name": "to",
          "type": "address"
        },
        {
          "internalType": "uint256",
          "name": "tokenId",
          "type": "uint256"
        },
        {
          "internalType": "bytes",
          "name": "data",
          "type": "bytes"
        }
      ],
      "name": "safeTransferFrom",
      "outputs": [],
      "stateMutability": "nonpayable",
      "type": "function"
    },
    {
      "inputs": [
        {
          "internalType": "address",
          "name": "operator",
          "type": "address"
        },
        {
          "internalType": "bool",
          "name": "approved",
          "type": "bool"
        }
      ],
      "name": "setApprovalForAll",
      "outputs": [],
      "stateMutability": "nonpayable",
      "type": "function"
    },
    {
      "inputs": [
        {
          "internalType": "bytes4",
          "name": "interfaceId",
          "type": "bytes4"
        }
      ],
      "name": "supportsInterface",
      "outputs": [
        {
          "internalType": "bool",
          "name": "",
          "type": "bool"
        }
      ],
      "stateMutability": "view",
      "type": "function"
    },
    {
      "inputs": [],
      "name": "symbol",
      "outputs": [
        {
          "internalType": "string",
          "name": "",
          "type": "string"
        }
      ],
      "stateMutability": "view",
      "type": "function"
    },
    {
      "inputs": [
        {
          "internalType": "uint256",
          "name": "index",
          "type": "uint256"
        }
      ],
      "name": "tokenByIndex",
      "outputs": [
        {
          "internalType": "uint256",
          "name": "",
          "type": "uint256"
        }
      ],
      "stateMutability": "view",
      "type": "function"
    },
    {
      "inputs": [
        {
          "internalType": "address",
          "name": "owner",
          "type": "address"
        },
        {
          "internalType": "uint256",
          "name": "index",
          "type": "uint256"
        }
      ],
      "name": "tokenOfOwnerByIndex",
      "outputs": [
        {
          "internalType": "uint256",
          "name": "",
          "type": "uint256"
        }
      ],
      "stateMutability": "view",
      "type": "function"
    },
    {
      "inputs": [
        {
          "internalType": "uint256",
          "name": "tokenId",
          "type": "uint256"
        }
      ],
      "name": "tokenURI",
      "outputs": [
        {
          "internalType": "string",
          "name": "",
          "type": "string"
        }
      ],
      "stateMutability": "view",
      "type": "function"
    },
    {
      "inputs": [],
      "name": "totalSupply",
      "outputs": [
        {
          "internalType": "uint256",
          "name": "",
          "type": "uint256"
        }
      ],
      "stateMutability": "view",
      "type": "function"
    },
    {
      "inputs": [
        {
          "internalType": "address",
          "name": "from",
          "type": "address"
        },
        {
          "internalType": "address",
          "name": "to",
          "type": "address"
        },
        {
          "internalType": "uint256",
          "name": "tokenId",
          "type": "uint256"
        }
      ],
      "name": "transferFrom",
      "outputs": [],
      "stateMutability": "nonpayable",
      "type": "function"
    },
    {
      "inputs": [],
      "name": "unpause",
      "outputs": [],
      "stateMutability": "nonpayable",
      "type": "function"
    }
  ],
  "bytecode": {
    "object": "0x608060405234801561001057600080fd5b50612935806100206000396000f3fe608060405234801561001057600080fd5b50600436106101f05760003560e01c80636a6278421161010f578063a6487c53116100a2578063d539139311610071578063d539139314610416578063d547741f1461043d578063e63ab1e914610450578063e985e9c51461046557600080fd5b8063a6487c53146103ca578063b88d4fde146103dd578063c87b56dd146103f0578063ca15c8731461040357600080fd5b806391d14854116100de57806391d148541461039457806395d89b41146103a7578063a217fddf146103af578063a22cb465146103b757600080fd5b80636a6278421461035357806370a08231146103665780638456cb59146103795780639010d07c1461038157600080fd5b80632f745c591161018757806342966c681161015657806342966c681461030e5780634f6ccce7146103215780635c975abb146103345780636352211e1461034057600080fd5b80632f745c59146102cd57806336568abe146102e05780633f4ba83a146102f357806342842e0e146102fb57600080fd5b806318160ddd116101c357806318160ddd1461027257806323b872dd14610284578063248a9ca3146102975780632f2ff15d146102ba57600080fd5b806301ffc9a7146101f557806306fdde031461021d578063081812fc14610232578063095ea7b31461025d575b600080fd5b6102086102033660046124b1565b6104a1565b60405190151581526020015b60405180910390f35b6102256104b2565b604051610214919061267a565b610245610240366004612456565b610544565b6040516001600160a01b039091168152602001610214565b61027061026b36600461242d565b61056b565b005b60fd545b604051908152602001610214565b61027061029236600461233f565b610686565b6102766102a5366004612456565b60009081526065602052604090206001015490565b6102706102c836600461246e565b6106b8565b6102766102db36600461242d565b6106dd565b6102706102ee36600461246e565b610773565b6102706107f1565b61027061030936600461233f565b610887565b61027061031c366004612456565b6108a2565b61027661032f366004612456565b6108d3565b61015f5460ff16610208565b61024561034e366004612456565b610974565b6102706103613660046122f3565b6109d4565b6102766103743660046122f3565b610a92565b610270610b18565b61024561038f366004612490565b610baa565b6102086103a236600461246e565b610bc9565b610225610bf4565b610276600081565b6102706103c53660046123f3565b610c03565b6102706103d83660046124e9565b610c0e565b6102706103eb36600461237a565b610d25565b6102256103fe366004612456565b610d57565b610276610411366004612456565b610dbd565b6102767f9f2df0fed2c77648de5860a4cc508cd0818c85b8b8a1ab4ceeef8d981c8956a681565b61027061044b36600461246e565b610dd4565b6102766000805160206128e083398151915281565b61020861047336600461230d565b6001600160a01b03918216600090815260ce6020908152604080832093909416825291909152205460ff1690565b60006104ac82610df9565b92915050565b606060c980546104c19061281d565b80601f01602080910402602001604051908101604052809291908181526020018280546104ed9061281d565b801561053a5780601f1061050f5761010080835404028352916020019161053a565b820191906000526020600020905b81548152906001019060200180831161051d57829003601f168201915b5050505050905090565b600061054f82610e1e565b50600090815260cd60205260409020546001600160a01b031690565b600061057682610974565b9050806001600160a01b0316836001600160a01b031614156105e95760405162461bcd60e51b815260206004820152602160248201527f4552433732313a20617070726f76616c20746f2063757272656e74206f776e656044820152603960f91b60648201526084015b60405180910390fd5b336001600160a01b038216148061060557506106058133610473565b6106775760405162461bcd60e51b815260206004820152603e60248201527f4552433732313a20617070726f76652063616c6c6572206973206e6f7420746f60448201527f6b656e206f776e6572206e6f7220617070726f76656420666f7220616c6c000060648201526084016105e0565b6106818383610e7d565b505050565b610691335b82610eeb565b6106ad5760405162461bcd60e51b81526004016105e09061272a565b610681838383610f6a565b6000828152606560205260409020600101546106d381611111565b610681838361111b565b60006106e883610a92565b821061074a5760405162461bcd60e51b815260206004820152602b60248201527f455243373231456e756d657261626c653a206f776e657220696e646578206f7560448201526a74206f6620626f756e647360a81b60648201526084016105e0565b506001600160a01b0391909116600090815260fb60209081526040808320938352929052205490565b6001600160a01b03811633146107e35760405162461bcd60e51b815260206004820152602f60248201527f416363657373436f6e74726f6c3a2063616e206f6e6c792072656e6f756e636560448201526e103937b632b9903337b91039b2b63360891b60648201526084016105e0565b6107ed828261113d565b5050565b6108096000805160206128e083398151915233610bc9565b61087d576040805162461bcd60e51b81526020600482015260248101919091527f4552433732315072657365744d696e7465725061757365724175746f49643a2060448201527f6d75737420686176652070617573657220726f6c6520746f20756e706175736560648201526084016105e0565b61088561115f565b565b61068183838360405180602001604052806000815250610d25565b6108ab3361068b565b6108c75760405162461bcd60e51b81526004016105e09061272a565b6108d0816111b2565b50565b60006108de60fd5490565b82106109415760405162461bcd60e51b815260206004820152602c60248201527f455243373231456e756d657261626c653a20676c6f62616c20696e646578206f60448201526b7574206f6620626f756e647360a01b60648201526084016105e0565b60fd828154811061096257634e487b7160e01b600052603260045260246000fd5b90600052602060002001549050919050565b600081815260cb60205260408120546001600160a01b0316806104ac5760405162461bcd60e51b8152602060048201526018602482015277115490cdcc8c4e881a5b9d985b1a59081d1bdad95b88125160421b60448201526064016105e0565b6109fe7f9f2df0fed2c77648de5860a4cc508cd0818c85b8b8a1ab4ceeef8d981c8956a633610bc9565b610a705760405162461bcd60e51b815260206004820152603d60248201527f4552433732315072657365744d696e7465725061757365724175746f49643a2060448201527f6d7573742068617665206d696e74657220726f6c6520746f206d696e7400000060648201526084016105e0565b610a8381610a7e6101c35490565b611259565b6108d06101c380546001019055565b60006001600160a01b038216610afc5760405162461bcd60e51b815260206004820152602960248201527f4552433732313a2061646472657373207a65726f206973206e6f7420612076616044820152683634b21037bbb732b960b91b60648201526084016105e0565b506001600160a01b0316600090815260cc602052604090205490565b610b306000805160206128e083398151915233610bc9565b610ba25760405162461bcd60e51b815260206004820152603e60248201527f4552433732315072657365744d696e7465725061757365724175746f49643a2060448201527f6d75737420686176652070617573657220726f6c6520746f207061757365000060648201526084016105e0565b6108856113a7565b6000828152609760205260408120610bc290836113e5565b9392505050565b60009182526065602090815260408084206001600160a01b0393909316845291905290205460ff1690565b606060ca80546104c19061281d565b6107ed3383836113f1565b600054610100900460ff1615808015610c2e5750600054600160ff909116105b80610c485750303b158015610c48575060005460ff166001145b610cab5760405162461bcd60e51b815260206004820152602e60248201527f496e697469616c697a61626c653a20636f6e747261637420697320616c72656160448201526d191e481a5b9a5d1a585b1a5e995960921b60648201526084016105e0565b6000805460ff191660011790558015610cce576000805461ff0019166101001790555b610cd98484846114c0565b8015610d1f576000805461ff0019169055604051600181527f7f26b83ff96e1f2b6a682f133852f6798a09c465da95921460cefb38474024989060200160405180910390a15b50505050565b610d2f3383610eeb565b610d4b5760405162461bcd60e51b81526004016105e09061272a565b610d1f84848484611504565b6060610d6282610e1e565b6000610d6c611537565b90506000815111610d8c5760405180602001604052806000815250610bc2565b80610d9684611547565b604051602001610da7929190612599565b6040516020818303038152906040529392505050565b60008181526097602052604081206104ac90611661565b600082815260656020526040902060010154610def81611111565b610681838361113d565b60006001600160e01b0319821663780e9d6360e01b14806104ac57506104ac8261166b565b600081815260cb60205260409020546001600160a01b03166108d05760405162461bcd60e51b8152602060048201526018602482015277115490cdcc8c4e881a5b9d985b1a59081d1bdad95b88125160421b60448201526064016105e0565b600081815260cd6020526040902080546001600160a01b0319166001600160a01b0384169081179091558190610eb282610974565b6001600160a01b03167f8c5be1e5ebec7d5bd14f71427d1e84f3dd0314c0f7b2291e5b200ac8c7c3b92560405160405180910390a45050565b600080610ef783610974565b9050806001600160a01b0316846001600160a01b03161480610f3e57506001600160a01b03808216600090815260ce602090815260408083209388168352929052205460ff165b80610f625750836001600160a01b0316610f5784610544565b6001600160a01b0316145b949350505050565b826001600160a01b0316610f7d82610974565b6001600160a01b031614610fe15760405162461bcd60e51b815260206004820152602560248201527f4552433732313a207472616e736665722066726f6d20696e636f72726563742060448201526437bbb732b960d91b60648201526084016105e0565b6001600160a01b0382166110435760405162461bcd60e51b8152602060048201526024808201527f4552433732313a207472616e7366657220746f20746865207a65726f206164646044820152637265737360e01b60648201526084016105e0565b61104e8383836116ab565b611059600082610e7d565b6001600160a01b038316600090815260cc602052604081208054600192906110829084906127c3565b90915550506001600160a01b038216600090815260cc602052604081208054600192906110b0908490612778565b9091555050600081815260cb602052604080822080546001600160a01b0319166001600160a01b0386811691821790925591518493918716917fddf252ad1be2c89b69c2b068fc378daa952ba7f163c4a11628f55a4df523b3ef91a4505050565b6108d081336116b6565b611125828261171a565b600082815260976020526040902061068190826117a0565b61114782826117b5565b6000828152609760205260409020610681908261181c565b611167611831565b61015f805460ff191690557f5db9ee0a495bf2e6ff9c91a7834c1ba4fdd244a5e8aa4e537bd38aeae4b073aa335b6040516001600160a01b03909116815260200160405180910390a1565b60006111bd82610974565b90506111cb816000846116ab565b6111d6600083610e7d565b6001600160a01b038116600090815260cc602052604081208054600192906111ff9084906127c3565b9091555050600082815260cb602052604080822080546001600160a01b0319169055518391906001600160a01b038416907fddf252ad1be2c89b69c2b068fc378daa952ba7f163c4a11628f55a4df523b3ef908390a45050565b6001600160a01b0382166112af5760405162461bcd60e51b815260206004820181905260248201527f4552433732313a206d696e7420746f20746865207a65726f206164647265737360448201526064016105e0565b600081815260cb60205260409020546001600160a01b0316156113145760405162461bcd60e51b815260206004820152601c60248201527f4552433732313a20746f6b656e20616c7265616479206d696e7465640000000060448201526064016105e0565b611320600083836116ab565b6001600160a01b038216600090815260cc60205260408120805460019290611349908490612778565b9091555050600081815260cb602052604080822080546001600160a01b0319166001600160a01b03861690811790915590518392907fddf252ad1be2c89b69c2b068fc378daa952ba7f163c4a11628f55a4df523b3ef908290a45050565b6113af61187b565b61015f805460ff191660011790557f62e78cea01bee320cd4e420270b5ea74000d11b0c9f74754ebdbfc544b05a2586111953390565b6000610bc283836118c2565b816001600160a01b0316836001600160a01b031614156114535760405162461bcd60e51b815260206004820152601960248201527f4552433732313a20617070726f766520746f2063616c6c65720000000000000060448201526064016105e0565b6001600160a01b03838116600081815260ce6020908152604080832094871680845294825291829020805460ff191686151590811790915591519182527f17307eab39ab6107e8899845ad3d59bd9653f200f220920489ca2b5937696c31910160405180910390a3505050565b600054610100900460ff166114e75760405162461bcd60e51b81526004016105e0906126df565b6114f183836118fa565b6114f9611948565b61068183838361197c565b61150f848484610f6a565b61151b84848484611a05565b610d1f5760405162461bcd60e51b81526004016105e09061268d565b60606101c480546104c19061281d565b60608161156b5750506040805180820190915260018152600360fc1b602082015290565b8160005b8115611595578061157f81612858565b915061158e9050600a83612790565b915061156f565b60008167ffffffffffffffff8111156115be57634e487b7160e01b600052604160045260246000fd5b6040519080825280601f01601f1916602001820160405280156115e8576020820181803683370190505b5090505b8415610f62576115fd6001836127c3565b915061160a600a86612873565b611615906030612778565b60f81b81838151811061163857634e487b7160e01b600052603260045260246000fd5b60200101906001600160f81b031916908160001a90535061165a600a86612790565b94506115ec565b60006104ac825490565b60006001600160e01b031982166380ac58cd60e01b148061169c57506001600160e01b03198216635b5e139f60e01b145b806104ac57506104ac82611b12565b610681838383611b37565b6116c08282610bc9565b6107ed576116d8816001600160a01b03166014611baa565b6116e3836020611baa565b6040516020016116f49291906125c8565b60408051601f198184030181529082905262461bcd60e51b82526105e09160040161267a565b6117248282610bc9565b6107ed5760008281526065602090815260408083206001600160a01b03851684529091529020805460ff1916600117905561175c3390565b6001600160a01b0316816001600160a01b0316837f2f8788117e7eff1d82e926ec794901d17c78024a50270940304540a733656f0d60405160405180910390a45050565b6000610bc2836001600160a01b038416611d8c565b6117bf8282610bc9565b156107ed5760008281526065602090815260408083206001600160a01b0385168085529252808320805460ff1916905551339285917ff6391f5c32d9c69d2a47ea670b442974b53935d1edc7fd64eb21e047a839171b9190a45050565b6000610bc2836001600160a01b038416611ddb565b61015f5460ff166108855760405162461bcd60e51b815260206004820152601460248201527314185d5cd8589b194e881b9bdd081c185d5cd95960621b60448201526064016105e0565b61015f5460ff16156108855760405162461bcd60e51b815260206004820152601060248201526f14185d5cd8589b194e881c185d5cd95960821b60448201526064016105e0565b60008260000182815481106118e757634e487b7160e01b600052603260045260246000fd5b9060005260206000200154905092915050565b600054610100900460ff166119215760405162461bcd60e51b81526004016105e0906126df565b81516119349060c99060208501906121a9565b5080516106819060ca9060208401906121a9565b600054610100900460ff1661196f5760405162461bcd60e51b81526004016105e0906126df565b61015f805460ff19169055565b600054610100900460ff166119a35760405162461bcd60e51b81526004016105e0906126df565b80516119b7906101c49060208401906121a9565b506119c3600033611ef8565b6119ed7f9f2df0fed2c77648de5860a4cc508cd0818c85b8b8a1ab4ceeef8d981c8956a633611ef8565b6106816000805160206128e083398151915233611ef8565b60006001600160a01b0384163b15611b0757604051630a85bd0160e11b81526001600160a01b0385169063150b7a0290611a4990339089908890889060040161263d565b602060405180830381600087803b158015611a6357600080fd5b505af1925050508015611a93575060408051601f3d908101601f19168201909252611a90918101906124cd565b60015b611aed573d808015611ac1576040519150601f19603f3d011682016040523d82523d6000602084013e611ac6565b606091505b508051611ae55760405162461bcd60e51b81526004016105e09061268d565b805181602001fd5b6001600160e01b031916630a85bd0160e11b149050610f62565b506001949350505050565b60006001600160e01b03198216635a05180f60e01b14806104ac57506104ac82611f02565b611b42838383611f37565b61015f5460ff16156106815760405162461bcd60e51b815260206004820152602b60248201527f4552433732315061757361626c653a20746f6b656e207472616e73666572207760448201526a1a1a5b19481c185d5cd95960aa1b60648201526084016105e0565b60606000611bb98360026127a4565b611bc4906002612778565b67ffffffffffffffff811115611bea57634e487b7160e01b600052604160045260246000fd5b6040519080825280601f01601f191660200182016040528015611c14576020820181803683370190505b509050600360fc1b81600081518110611c3d57634e487b7160e01b600052603260045260246000fd5b60200101906001600160f81b031916908160001a905350600f60fb1b81600181518110611c7a57634e487b7160e01b600052603260045260246000fd5b60200101906001600160f81b031916908160001a9053506000611c9e8460026127a4565b611ca9906001612778565b90505b6001811115611d3d576f181899199a1a9b1b9c1cb0b131b232b360811b85600f1660108110611ceb57634e487b7160e01b600052603260045260246000fd5b1a60f81b828281518110611d0f57634e487b7160e01b600052603260045260246000fd5b60200101906001600160f81b031916908160001a90535060049490941c93611d3681612806565b9050611cac565b508315610bc25760405162461bcd60e51b815260206004820181905260248201527f537472696e67733a20686578206c656e67746820696e73756666696369656e7460448201526064016105e0565b6000818152600183016020526040812054611dd3575081546001818101845560008481526020808220909301849055845484825282860190935260409020919091556104ac565b5060006104ac565b60008181526001830160205260408120548015611eee576000611dff6001836127c3565b8554909150600090611e13906001906127c3565b9050818114611e94576000866000018281548110611e4157634e487b7160e01b600052603260045260246000fd5b9060005260206000200154905080876000018481548110611e7257634e487b7160e01b600052603260045260246000fd5b6000918252602080832090910192909255918252600188019052604090208390555b8554869080611eb357634e487b7160e01b600052603160045260246000fd5b6001900381819060005260206000200160009055905585600101600086815260200190815260200160002060009055600193505050506104ac565b60009150506104ac565b6107ed828261111b565b60006001600160e01b03198216637965db0b60e01b14806104ac57506301ffc9a760e01b6001600160e01b03198316146104ac565b6001600160a01b038316611f9257611f8d8160fd8054600083815260fe60205260408120829055600182018355919091527f9346ac6dd7de6b96975fec380d4d994c4c12e6a8897544f22915316cc6cca2800155565b611fb5565b816001600160a01b0316836001600160a01b031614611fb557611fb58382611fef565b6001600160a01b038216611fcc576106818161208c565b826001600160a01b0316826001600160a01b031614610681576106818282612165565b60006001611ffc84610a92565b61200691906127c3565b600083815260fc6020526040902054909150808214612059576001600160a01b038416600090815260fb60209081526040808320858452825280832054848452818420819055835260fc90915290208190555b50600091825260fc602090815260408084208490556001600160a01b03909416835260fb81528383209183525290812055565b60fd5460009061209e906001906127c3565b600083815260fe602052604081205460fd80549394509092849081106120d457634e487b7160e01b600052603260045260246000fd5b906000526020600020015490508060fd838154811061210357634e487b7160e01b600052603260045260246000fd5b600091825260208083209091019290925582815260fe909152604080822084905585825281205560fd80548061214957634e487b7160e01b600052603160045260246000fd5b6001900381819060005260206000200160009055905550505050565b600061217083610a92565b6001600160a01b03909316600090815260fb60209081526040808320868452825280832085905593825260fc9052919091209190915550565b8280546121b59061281d565b90600052602060002090601f0160209004810192826121d7576000855561221d565b82601f106121f057805160ff191683800117855561221d565b8280016001018555821561221d579182015b8281111561221d578251825591602001919060010190612202565b5061222992915061222d565b5090565b5b80821115612229576000815560010161222e565b600067ffffffffffffffff8084111561225d5761225d6128b3565b604051601f8501601f19908116603f01168101908282118183101715612285576122856128b3565b8160405280935085815286868601111561229e57600080fd5b858560208301376000602087830101525050509392505050565b80356001600160a01b03811681146122cf57600080fd5b919050565b600082601f8301126122e4578081fd5b610bc283833560208501612242565b600060208284031215612304578081fd5b610bc2826122b8565b6000806040838503121561231f578081fd5b612328836122b8565b9150612336602084016122b8565b90509250929050565b600080600060608486031215612353578081fd5b61235c846122b8565b925061236a602085016122b8565b9150604084013590509250925092565b6000806000806080858703121561238f578081fd5b612398856122b8565b93506123a6602086016122b8565b925060408501359150606085013567ffffffffffffffff8111156123c8578182fd5b8501601f810187136123d8578182fd5b6123e787823560208401612242565b91505092959194509250565b60008060408385031215612405578182fd5b61240e836122b8565b915060208301358015158114612422578182fd5b809150509250929050565b6000806040838503121561243f578182fd5b612448836122b8565b946020939093013593505050565b600060208284031215612467578081fd5b5035919050565b60008060408385031215612480578182fd5b82359150612336602084016122b8565b600080604083850312156124a2578182fd5b50508035926020909101359150565b6000602082840312156124c2578081fd5b8135610bc2816128c9565b6000602082840312156124de578081fd5b8151610bc2816128c9565b6000806000606084860312156124fd578283fd5b833567ffffffffffffffff80821115612514578485fd5b612520878388016122d4565b94506020860135915080821115612535578384fd5b612541878388016122d4565b93506040860135915080821115612556578283fd5b50612563868287016122d4565b9150509250925092565b600081518084526125858160208601602086016127da565b601f01601f19169290920160200192915050565b600083516125ab8184602088016127da565b8351908301906125bf8183602088016127da565b01949350505050565b7f416363657373436f6e74726f6c3a206163636f756e74200000000000000000008152600083516126008160178501602088016127da565b7001034b99036b4b9b9b4b733903937b6329607d1b60179184019182015283516126318160288401602088016127da565b01602801949350505050565b6001600160a01b03858116825284166020820152604081018390526080606082018190526000906126709083018461256d565b9695505050505050565b602081526000610bc2602083018461256d565b60208082526032908201527f4552433732313a207472616e7366657220746f206e6f6e20455243373231526560408201527131b2b4bb32b91034b6b83632b6b2b73a32b960711b606082015260800190565b6020808252602b908201527f496e697469616c697a61626c653a20636f6e7472616374206973206e6f74206960408201526a6e697469616c697a696e6760a81b606082015260800190565b6020808252602e908201527f4552433732313a2063616c6c6572206973206e6f7420746f6b656e206f776e6560408201526d1c881b9bdc88185c1c1c9bdd995960921b606082015260800190565b6000821982111561278b5761278b612887565b500190565b60008261279f5761279f61289d565b500490565b60008160001904831182151516156127be576127be612887565b500290565b6000828210156127d5576127d5612887565b500390565b60005b838110156127f55781810151838201526020016127dd565b83811115610d1f5750506000910152565b60008161281557612815612887565b506000190190565b600181811c9082168061283157607f821691505b6020821081141561285257634e487b7160e01b600052602260045260246000fd5b50919050565b600060001982141561286c5761286c612887565b5060010190565b6000826128825761288261289d565b500690565b634e487b7160e01b600052601160045260246000fd5b634e487b7160e01b600052601260045260246000fd5b634e487b7160e01b600052604160045260246000fd5b6001600160e01b0319811681146108d057600080fdfe65d7a28e3265b37a6474929f336521b332c1681b933f6cb9f3376673440d862aa26469706673582212206a4e96b1e69d57f3e3bc5c167700d6338f4f0c802274612b10b1783ab7a324ad64736f6c63430008040033",
    "linkReferences": {}
  },
  "methodIdentifiers": {
    "DEFAULT_ADMIN_ROLE()": "a217fddf",
    "MINTER_ROLE()": "d5391393",
    "PAUSER_ROLE()": "e63ab1e9",
    "approve(address,uint256)": "095ea7b3",
    "balanceOf(address)": "70a08231",
    "burn(uint256)": "42966c68",
    "getApproved(uint256)": "081812fc",
    "getRoleAdmin(bytes32)": "248a9ca3",
    "getRoleMember(bytes32,uint256)": "9010d07c",
    "getRoleMemberCount(bytes32)": "ca15c873",
    "grantRole(bytes32,address)": "2f2ff15d",
    "hasRole(bytes32,address)": "91d14854",
    "initialize(string,string,string)": "a6487c53",
    "isApprovedForAll(address,address)": "e985e9c5",
    "mint(address)": "6a627842",
    "name()": "06fdde03",
    "ownerOf(uint256)": "6352211e",
    "pause()": "8456cb59",
    "paused()": "5c975abb",
    "renounceRole(bytes32,address)": "36568abe",
    "revokeRole(bytes32,address)": "d547741f",
    "safeTransferFrom(address,address,uint256)": "42842e0e",
    "safeTransferFrom(address,address,uint256,bytes)": "b88d4fde",
    "setApprovalForAll(address,bool)": "a22cb465",
    "supportsInterface(bytes4)": "01ffc9a7",
    "symbol()": "95d89b41",
    "tokenByIndex(uint256)": "4f6ccce7",
    "tokenOfOwnerByIndex(address,uint256)": "2f745c59",
    "tokenURI(uint256)": "c87b56dd",
    "totalSupply()": "18160ddd",
    "transferFrom(address,address,uint256)": "23b872dd",
    "unpause()": "3f4ba83a"
  },
  "id": 100
}