{
  "abi": [
    {
      "anonymous": false,
      "inputs": [
        {
          "indexed": true,
          "internalType": "address",
          "name": "who",
          "type": "address"
        },
        {
          "indexed": true,
          "internalType": "uint256",
          "name": "amount",
          "type": "uint256"
        }
      ],
      "name": "AddSToken",
      "type": "event"
    },
    {
      "anonymous": false,
      "inputs": [
        {
          "indexed": true,
          "internalType": "address",
          "name": "who",
          "type": "address"
        },
        {
          "indexed": true,
          "internalType": "string",
          "name": "assetName",
          "type": "string"
        },
        {
          "indexed": true,
          "internalType": "uint256",
          "name": "amount",
          "type": "uint256"
        }
      ],
      "name": "Borrow",
      "type": "event"
    },
    {
      "anonymous": false,
      "inputs": [
        {
          "indexed": true,
          "internalType": "address",
          "name": "who",
          "type": "address"
        },
        {
          "indexed": false,
          "internalType": "uint256",
          "name": "rewardsToClaim",
          "type": "uint256"
        }
      ],
      "name": "ClaimRewards",
      "type": "event"
    },
    {
      "anonymous": false,
      "inputs": [
        {
          "indexed": true,
          "internalType": "address",
          "name": "who",
          "type": "address"
        },
        {
          "indexed": false,
          "internalType": "uint256",
          "name": "pendingRewards",
          "type": "uint256"
        }
      ],
      "name": "HarvestRewards",
      "type": "event"
    },
    {
      "anonymous": false,
      "inputs": [
        {
          "indexed": false,
          "internalType": "uint8",
          "name": "version",
          "type": "uint8"
        }
      ],
      "name": "Initialized",
      "type": "event"
    },
    {
      "anonymous": false,
      "inputs": [
        {
          "indexed": true,
          "internalType": "address",
          "name": "liquidatorAddr",
          "type": "address"
        },
        {
          "indexed": true,
          "internalType": "address",
          "name": "userAddr",
          "type": "address"
        },
        {
          "indexed": true,
          "internalType": "string",
          "name": "debtAsset",
          "type": "string"
        },
        {
          "indexed": false,
          "internalType": "uint256",
          "name": "debtToCover",
          "type": "uint256"
        }
      ],
      "name": "LiquidationCall",
      "type": "event"
    },
    {
      "anonymous": false,
      "inputs": [
        {
          "indexed": true,
          "internalType": "address",
          "name": "previousOwner",
          "type": "address"
        },
        {
          "indexed": true,
          "internalType": "address",
          "name": "newOwner",
          "type": "address"
        }
      ],
      "name": "OwnershipTransferred",
      "type": "event"
    },
    {
      "anonymous": false,
      "inputs": [
        {
          "indexed": true,
          "internalType": "address",
          "name": "user",
          "type": "address"
        },
        {
          "indexed": false,
          "internalType": "string",
          "name": "assetName",
          "type": "string"
        }
      ],
      "name": "RemoveAssetFromUser",
      "type": "event"
    },
    {
      "anonymous": false,
      "inputs": [
        {
          "indexed": true,
          "internalType": "address",
          "name": "user",
          "type": "address"
        }
      ],
      "name": "RemoveUser",
      "type": "event"
    },
    {
      "anonymous": false,
      "inputs": [
        {
          "indexed": true,
          "internalType": "address",
          "name": "who",
          "type": "address"
        },
        {
          "indexed": true,
          "internalType": "address",
          "name": "user",
          "type": "address"
        },
        {
          "indexed": true,
          "internalType": "string",
          "name": "assetName",
          "type": "string"
        },
        {
          "indexed": false,
          "internalType": "uint256",
          "name": "amount",
          "type": "uint256"
        }
      ],
      "name": "Repay",
      "type": "event"
    },
    {
      "anonymous": false,
      "inputs": [
        {
          "indexed": true,
          "internalType": "address",
          "name": "user",
          "type": "address"
        },
        {
          "indexed": true,
          "internalType": "uint256",
          "name": "amount",
          "type": "uint256"
        }
      ],
      "name": "Supply",
      "type": "event"
    },
    {
      "anonymous": false,
      "inputs": [
        {
          "indexed": true,
          "internalType": "address",
          "name": "who",
          "type": "address"
        },
        {
          "indexed": false,
          "internalType": "uint256",
          "name": "currentBalance",
          "type": "uint256"
        }
      ],
      "name": "UpdateLastSTokenBalance",
      "type": "event"
    },
    {
      "anonymous": false,
      "inputs": [
        {
          "indexed": true,
          "internalType": "address",
          "name": "who",
          "type": "address"
        }
      ],
      "name": "UpdatePools",
      "type": "event"
    },
    {
      "anonymous": false,
      "inputs": [
        {
          "indexed": true,
          "internalType": "address",
          "name": "user",
          "type": "address"
        }
      ],
      "name": "UpdateUserRewards",
      "type": "event"
    },
    {
      "anonymous": false,
      "inputs": [
        {
          "indexed": true,
          "internalType": "address",
          "name": "who",
          "type": "address"
        },
        {
          "indexed": true,
          "internalType": "address",
          "name": "user",
          "type": "address"
        }
      ],
      "name": "Updates",
      "type": "event"
    },
    {
      "anonymous": false,
      "inputs": [
        {
          "indexed": true,
          "internalType": "address",
          "name": "user",
          "type": "address"
        },
        {
          "indexed": true,
          "internalType": "uint256",
          "name": "amount",
          "type": "uint256"
        }
      ],
      "name": "Withdraw",
      "type": "event"
    },
    {
      "anonymous": false,
      "inputs": [
        {
          "indexed": true,
          "internalType": "address",
          "name": "who",
          "type": "address"
        },
        {
          "indexed": true,
          "internalType": "uint256",
          "name": "amount",
          "type": "uint256"
        }
      ],
      "name": "WithdrawRevenue",
      "type": "event"
    },
    {
      "inputs": [],
      "name": "REVENUE_FEE",
      "outputs": [
        {
          "internalType": "uint256",
          "name": "",
          "type": "uint256"
        }
      ],
      "stateMutability": "view",
      "type": "function"
    },
    {
      "inputs": [],
      "name": "accCollateralRewardsPerShare",
      "outputs": [
        {
          "internalType": "uint256",
          "name": "",
          "type": "uint256"
        }
      ],
      "stateMutability": "view",
      "type": "function"
    },
    {
      "inputs": [],
      "name": "accSTokensPerShare",
      "outputs": [
        {
          "internalType": "uint256",
          "name": "",
          "type": "uint256"
        }
      ],
      "stateMutability": "view",
      "type": "function"
    },
    {
      "inputs": [],
      "name": "adaptersDistributor",
      "outputs": [
        {
          "internalType": "contract IAdaptersDistributor",
          "name": "",
          "type": "address"
        }
      ],
      "stateMutability": "view",
      "type": "function"
    },
    {
      "inputs": [
        {
          "internalType": "uint256",
          "name": "_amount",
          "type": "uint256"
        }
      ],
      "name": "addSTokens",
      "outputs": [],
      "stateMutability": "nonpayable",
      "type": "function"
    },
    {
      "inputs": [],
      "name": "assetManager",
      "outputs": [
        {
          "internalType": "contract Sio2AdapterAssetManager",
          "name": "",
          "type": "address"
        }
      ],
      "stateMutability": "view",
      "type": "function"
    },
    {
      "inputs": [
        {
          "internalType": "address",
          "name": "_userAddr",
          "type": "address"
        }
      ],
      "name": "availableCollateralUSD",
      "outputs": [
        {
          "internalType": "uint256",
          "name": "toBorrow",
          "type": "uint256"
        },
        {
          "internalType": "uint256",
          "name": "toWithdraw",
          "type": "uint256"
        }
      ],
      "stateMutability": "view",
      "type": "function"
    },
    {
      "inputs": [
        {
          "internalType": "string",
          "name": "_assetName",
          "type": "string"
        },
        {
          "internalType": "uint256",
          "name": "_amount",
          "type": "uint256"
        }
      ],
      "name": "borrow",
      "outputs": [],
      "stateMutability": "nonpayable",
      "type": "function"
    },
    {
      "inputs": [
        {
          "internalType": "address",
          "name": "_userAddr",
          "type": "address"
        }
      ],
      "name": "calcEstimateUserCollateralUSD",
      "outputs": [
        {
          "internalType": "uint256",
          "name": "coll",
          "type": "uint256"
        }
      ],
      "stateMutability": "view",
      "type": "function"
    },
    {
      "inputs": [
        {
          "internalType": "address",
          "name": "_userAddr",
          "type": "address"
        }
      ],
      "name": "calcEstimateUserDebtUSD",
      "outputs": [
        {
          "internalType": "uint256",
          "name": "debtUSD",
          "type": "uint256"
        }
      ],
      "stateMutability": "view",
      "type": "function"
    },
    {
      "inputs": [],
      "name": "claimRewards",
      "outputs": [],
      "stateMutability": "nonpayable",
      "type": "function"
    },
    {
      "inputs": [],
      "name": "collateralLT",
      "outputs": [
        {
          "internalType": "uint256",
          "name": "",
          "type": "uint256"
        }
      ],
      "stateMutability": "view",
      "type": "function"
    },
    {
      "inputs": [],
      "name": "collateralLTV",
      "outputs": [
        {
          "internalType": "uint256",
          "name": "",
          "type": "uint256"
        }
      ],
      "stateMutability": "view",
      "type": "function"
    },
    {
      "inputs": [
        {
          "internalType": "address",
          "name": "",
          "type": "address"
        },
        {
          "internalType": "string",
          "name": "",
          "type": "string"
        }
      ],
      "name": "debts",
      "outputs": [
        {
          "internalType": "uint256",
          "name": "",
          "type": "uint256"
        }
      ],
      "stateMutability": "view",
      "type": "function"
    },
    {
      "inputs": [
        {
          "internalType": "address",
          "name": "_asset",
          "type": "address"
        },
        {
          "internalType": "uint256",
          "name": "_amount",
          "type": "uint256"
        }
      ],
      "name": "fromUSD",
      "outputs": [
        {
          "internalType": "uint256",
          "name": "",
          "type": "uint256"
        }
      ],
      "stateMutability": "view",
      "type": "function"
    },
    {
      "inputs": [
        {
          "internalType": "address",
          "name": "_user",
          "type": "address"
        }
      ],
      "name": "getLiquidationParameters",
      "outputs": [
        {
          "internalType": "uint256",
          "name": "hf",
          "type": "uint256"
        },
        {
          "internalType": "uint256",
          "name": "debtUSD",
          "type": "uint256"
        }
      ],
      "stateMutability": "nonpayable",
      "type": "function"
    },
    {
      "inputs": [
        {
          "internalType": "address",
          "name": "_user",
          "type": "address"
        }
      ],
      "name": "getUser",
      "outputs": [
        {
          "components": [
            {
              "internalType": "uint256",
              "name": "id",
              "type": "uint256"
            },
            {
              "internalType": "address",
              "name": "addr",
              "type": "address"
            },
            {
              "internalType": "uint256",
              "name": "collateralAmount",
              "type": "uint256"
            },
            {
              "internalType": "uint256",
              "name": "rewards",
              "type": "uint256"
            },
            {
              "internalType": "string[]",
              "name": "borrowedAssets",
              "type": "string[]"
            },
            {
              "internalType": "uint256",
              "name": "collateralRewardDebt",
              "type": "uint256"
            },
            {
              "internalType": "uint256",
              "name": "sTokensIncomeDebt",
              "type": "uint256"
            }
          ],
          "internalType": "struct Sio2Adapter.User",
          "name": "",
          "type": "tuple"
        }
      ],
      "stateMutability": "view",
      "type": "function"
    },
    {
      "inputs": [],
      "name": "getUsers",
      "outputs": [
        {
          "internalType": "address[]",
          "name": "",
          "type": "address[]"
        }
      ],
      "stateMutability": "view",
      "type": "function"
    },
    {
      "inputs": [],
      "name": "getUsersCount",
      "outputs": [
        {
          "internalType": "uint256",
          "name": "",
          "type": "uint256"
        }
      ],
      "stateMutability": "view",
      "type": "function"
    },
    {
      "inputs": [],
      "name": "incentivesController",
      "outputs": [
        {
          "internalType": "contract ISio2IncentivesController",
          "name": "",
          "type": "address"
        }
      ],
      "stateMutability": "view",
      "type": "function"
    },
    {
      "inputs": [
        {
          "internalType": "contract ISio2LendingPool",
          "name": "_pool",
          "type": "address"
        },
        {
          "internalType": "contract IERC20Upgradeable",
          "name": "_nastr",
          "type": "address"
        },
        {
          "internalType": "contract IERC20Upgradeable",
          "name": "_snastrToken",
          "type": "address"
        },
        {
          "internalType": "contract ISio2IncentivesController",
          "name": "_incentivesController",
          "type": "address"
        },
        {
          "internalType": "contract IERC20Upgradeable",
          "name": "_rewardToken",
          "type": "address"
        },
        {
          "internalType": "contract Sio2AdapterAssetManager",
          "name": "_assetManager",
          "type": "address"
        },
        {
          "internalType": "contract ISio2PriceOracle",
          "name": "_priceOracle",
          "type": "address"
        }
      ],
      "name": "initialize",
      "outputs": [],
      "stateMutability": "nonpayable",
      "type": "function"
    },
    {
      "inputs": [],
      "name": "lastSTokenBalance",
      "outputs": [
        {
          "internalType": "uint256",
          "name": "",
          "type": "uint256"
        }
      ],
      "stateMutability": "view",
      "type": "function"
    },
    {
      "inputs": [],
      "name": "lastUpdatedBlock",
      "outputs": [
        {
          "internalType": "uint256",
          "name": "",
          "type": "uint256"
        }
      ],
      "stateMutability": "view",
      "type": "function"
    },
    {
      "inputs": [
        {
          "internalType": "string",
          "name": "_debtAsset",
          "type": "string"
        },
        {
          "internalType": "address",
          "name": "_user",
          "type": "address"
        },
        {
          "internalType": "uint256",
          "name": "_debtToCover",
          "type": "uint256"
        }
      ],
      "name": "liquidationCall",
      "outputs": [
        {
          "internalType": "uint256",
          "name": "",
          "type": "uint256"
        }
      ],
      "stateMutability": "nonpayable",
      "type": "function"
    },
    {
      "inputs": [],
      "name": "liquidationPenalty",
      "outputs": [
        {
          "internalType": "uint256",
          "name": "",
          "type": "uint256"
        }
      ],
      "stateMutability": "view",
      "type": "function"
    },
    {
      "inputs": [],
      "name": "maxAmountToBorrow",
      "outputs": [
        {
          "internalType": "uint256",
          "name": "",
          "type": "uint256"
        }
      ],
      "stateMutability": "view",
      "type": "function"
    },
    {
      "inputs": [],
      "name": "nastr",
      "outputs": [
        {
          "internalType": "contract IERC20Upgradeable",
          "name": "",
          "type": "address"
        }
      ],
      "stateMutability": "view",
      "type": "function"
    },
    {
      "inputs": [],
      "name": "owner",
      "outputs": [
        {
          "internalType": "address",
          "name": "",
          "type": "address"
        }
      ],
      "stateMutability": "view",
      "type": "function"
    },
    {
      "inputs": [],
      "name": "pool",
      "outputs": [
        {
          "internalType": "contract ISio2LendingPool",
          "name": "",
          "type": "address"
        }
      ],
      "stateMutability": "view",
      "type": "function"
    },
    {
      "inputs": [],
      "name": "priceOracle",
      "outputs": [
        {
          "internalType": "contract ISio2PriceOracle",
          "name": "",
          "type": "address"
        }
      ],
      "stateMutability": "view",
      "type": "function"
    },
    {
      "inputs": [],
      "name": "renounceOwnership",
      "outputs": [],
      "stateMutability": "nonpayable",
      "type": "function"
    },
    {
      "inputs": [
        {
          "internalType": "string",
          "name": "_assetName",
          "type": "string"
        }
      ],
      "name": "repayFull",
      "outputs": [],
      "stateMutability": "nonpayable",
      "type": "function"
    },
    {
      "inputs": [
        {
          "internalType": "string",
          "name": "_assetName",
          "type": "string"
        },
        {
          "internalType": "uint256",
          "name": "_amount",
          "type": "uint256"
        }
      ],
      "name": "repayPart",
      "outputs": [],
      "stateMutability": "nonpayable",
      "type": "function"
    },
    {
      "inputs": [],
      "name": "revenuePool",
      "outputs": [
        {
          "internalType": "uint256",
          "name": "",
          "type": "uint256"
        }
      ],
      "stateMutability": "view",
      "type": "function"
    },
    {
      "inputs": [],
      "name": "rewardPool",
      "outputs": [
        {
          "internalType": "uint256",
          "name": "",
          "type": "uint256"
        }
      ],
      "stateMutability": "view",
      "type": "function"
    },
    {
      "inputs": [],
      "name": "rewardToken",
      "outputs": [
        {
          "internalType": "contract IERC20Upgradeable",
          "name": "",
          "type": "address"
        }
      ],
      "stateMutability": "view",
      "type": "function"
    },
    {
      "inputs": [
        {
          "internalType": "uint256",
          "name": "_lt",
          "type": "uint256"
        }
      ],
      "name": "setLT",
      "outputs": [],
      "stateMutability": "nonpayable",
      "type": "function"
    },
    {
      "inputs": [
        {
          "internalType": "uint256",
          "name": "_amount",
          "type": "uint256"
        }
      ],
      "name": "setMaxAmountToBorrow",
      "outputs": [],
      "stateMutability": "nonpayable",
      "type": "function"
    },
    {
      "inputs": [],
      "name": "snastrToken",
      "outputs": [
        {
          "internalType": "contract IERC20Upgradeable",
          "name": "",
          "type": "address"
        }
      ],
      "stateMutability": "view",
      "type": "function"
    },
    {
      "inputs": [
        {
          "internalType": "uint256",
          "name": "_amount",
          "type": "uint256"
        }
      ],
      "name": "supply",
      "outputs": [],
      "stateMutability": "nonpayable",
      "type": "function"
    },
    {
      "inputs": [
        {
          "internalType": "address",
          "name": "_asset",
          "type": "address"
        },
        {
          "internalType": "uint256",
          "name": "_amount",
          "type": "uint256"
        }
      ],
      "name": "toUSD",
      "outputs": [
        {
          "internalType": "uint256",
          "name": "",
          "type": "uint256"
        }
      ],
      "stateMutability": "view",
      "type": "function"
    },
    {
      "inputs": [],
      "name": "totalSupply",
      "outputs": [
        {
          "internalType": "uint256",
          "name": "",
          "type": "uint256"
        }
      ],
      "stateMutability": "view",
      "type": "function"
    },
    {
      "inputs": [
        {
          "internalType": "address",
          "name": "newOwner",
          "type": "address"
        }
      ],
      "name": "transferOwnership",
      "outputs": [],
      "stateMutability": "nonpayable",
      "type": "function"
    },
    {
      "inputs": [
        {
          "internalType": "address",
          "name": "",
          "type": "address"
        },
        {
          "internalType": "string",
          "name": "",
          "type": "string"
        }
      ],
      "name": "userBTokensIncomeDebt",
      "outputs": [
        {
          "internalType": "uint256",
          "name": "",
          "type": "uint256"
        }
      ],
      "stateMutability": "view",
      "type": "function"
    },
    {
      "inputs": [
        {
          "internalType": "address",
          "name": "",
          "type": "address"
        },
        {
          "internalType": "string",
          "name": "",
          "type": "string"
        }
      ],
      "name": "userBorrowedAssetID",
      "outputs": [
        {
          "internalType": "uint256",
          "name": "",
          "type": "uint256"
        }
      ],
      "stateMutability": "view",
      "type": "function"
    },
    {
      "inputs": [
        {
          "internalType": "address",
          "name": "",
          "type": "address"
        },
        {
          "internalType": "string",
          "name": "",
          "type": "string"
        }
      ],
      "name": "userBorrowedRewardDebt",
      "outputs": [
        {
          "internalType": "uint256",
          "name": "",
          "type": "uint256"
        }
      ],
      "stateMutability": "view",
      "type": "function"
    },
    {
      "inputs": [
        {
          "internalType": "address",
          "name": "",
          "type": "address"
        }
      ],
      "name": "userInfo",
      "outputs": [
        {
          "internalType": "uint256",
          "name": "id",
          "type": "uint256"
        },
        {
          "internalType": "address",
          "name": "addr",
          "type": "address"
        },
        {
          "internalType": "uint256",
          "name": "collateralAmount",
          "type": "uint256"
        },
        {
          "internalType": "uint256",
          "name": "rewards",
          "type": "uint256"
        },
        {
          "internalType": "uint256",
          "name": "collateralRewardDebt",
          "type": "uint256"
        },
        {
          "internalType": "uint256",
          "name": "sTokensIncomeDebt",
          "type": "uint256"
        }
      ],
      "stateMutability": "view",
      "type": "function"
    },
    {
      "inputs": [
        {
          "internalType": "uint256",
          "name": "",
          "type": "uint256"
        }
      ],
      "name": "users",
      "outputs": [
        {
          "internalType": "address",
          "name": "",
          "type": "address"
        }
      ],
      "stateMutability": "view",
      "type": "function"
    },
    {
      "inputs": [],
      "name": "utilityName",
      "outputs": [
        {
          "internalType": "string",
          "name": "",
          "type": "string"
        }
      ],
      "stateMutability": "view",
      "type": "function"
    },
    {
      "inputs": [
        {
          "internalType": "uint256",
          "name": "_amount",
          "type": "uint256"
        }
      ],
      "name": "withdraw",
      "outputs": [],
      "stateMutability": "nonpayable",
      "type": "function"
    },
    {
      "inputs": [
        {
          "internalType": "uint256",
          "name": "_amount",
          "type": "uint256"
        }
      ],
      "name": "withdrawRevenue",
      "outputs": [],
      "stateMutability": "nonpayable",
      "type": "function"
    }
  ],
  "bytecode": {
    "object": "0x60c0604052600c60808190526b29b4b7992fa0b230b83a32b960a11b60a09081526200002f9160af91906200006a565b5060b080546001600160a01b03191673294bb6b8e692543f373383a84a1f296d3c297aef1790553480156200006357600080fd5b506200014d565b828054620000789062000110565b90600052602060002090601f0160209004810192826200009c5760008555620000e7565b82601f10620000b757805160ff1916838001178555620000e7565b82800160010185558215620000e7579182015b82811115620000e7578251825591602001919060010190620000ca565b50620000f5929150620000f9565b5090565b5b80821115620000f55760008155600101620000fa565b600181811c908216806200012557607f821691505b602082108114156200014757634e487b7160e01b600052602260045260246000fd5b50919050565b615f09806200015d6000396000f3fe608060405234801561001057600080fd5b50600436106102f05760003560e01c80634ee4ced11161019d578063af1df255116100e9578063d6fe3d39116100a2578063f2fde38b1161007c578063f2fde38b1461074a578063f7c618c11461075d578063f90ce5ba14610770578063fbc1f9771461077957600080fd5b8063d6fe3d3914610725578063ee66cd7614610738578063f0b6e35d1461074157600080fd5b8063af1df25514610661578063b0afe8bf14610674578063bc06708c14610687578063c6543f4a1461069a578063cd4f4a9c146106d6578063d380f072146106e957600080fd5b806387ef186a116101565780638fe37556116101305780638fe37556146105f757806394217ad1146106335780639467b74614610646578063a4a1e2631461065957600080fd5b806387ef186a146105c057806389a4c5af146105d35780638da5cb5b146105e657600080fd5b80634ee4ced11461056a57806360bc351e1461057d57806366666aa9146105865780636f77926b1461058f578063715018a6146105af5780637f753de6146105b757600080fd5b80632bb3526e1161025c578063372500ab116102155780634421bd1e116101ef5780634421bd1e14610533578063495a3b841461053b5780634a5baa23146105445780634c7abd201461055757600080fd5b8063372500ab146105055780633ea5856f1461050d57806342c995091461052057600080fd5b80632bb3526e1461049b5780632e1a7d4d146104b0578063306f155d146104c357806335403023146104cc57806335876476146104df578063365b98b2146104f257600080fd5b806316f0115b116102ae57806316f0115b146103b957806318160ddd146103cc5780631959a002146103d557806323f5589a146104575780632630c12f14610460578063265844c31461047357600080fd5b8062ce8e3e146102f5578063016021be146103135780630b72a427146103345780630ceff2041461035f5780630d58feff146103745780631378860f1461037d575b600080fd5b6102fd61078c565b60405161030a9190615aba565b60405180910390f35b610326610321366004615555565b6107ee565b60405190815260200161030a565b609954610347906001600160a01b031681565b6040516001600160a01b03909116815260200161030a565b61037261036d3660046158ba565b610abf565b005b61032660a45481565b61032661038b366004615571565b60ac602090815260009283526040909220815180830184018051928152908401929093019190912091525481565b609754610347906001600160a01b031681565b610326609e5481565b6104226103e3366004615555565b60a86020526000908152604090208054600182015460028301546003840154600585015460069095015493946001600160a01b03909316939192909186565b604080519687526001600160a01b039095166020870152938501929092526060840152608083015260a082015260c00161030a565b61032660ae5481565b609b54610347906001600160a01b031681565b610486610481366004615555565b610c73565b6040805192835260208301919091520161030a565b6104a3610d47565b60405161030a9190615b00565b6103726104be3660046158ba565b610dd5565b61032660a35481565b6103726104da3660046158ba565b610df6565b6103726104ed366004615757565b611185565b6103476105003660046158ba565b6113fe565b610372611428565b60b054610347906001600160a01b031681565b609854610347906001600160a01b031681565b610326600a81565b61032660a55481565b6103726105523660046157ec565b611520565b6103726105653660046158ba565b611630565b610372610578366004615877565b611695565b61032660a05481565b61032660a15481565b6105a261059d366004615555565b6116e4565b60405161030a9190615c6f565b610372611865565b61032660a25481565b6103266105ce3660046155bf565b611879565b6103266105e1366004615555565b61191d565b6033546001600160a01b0316610347565b610326610605366004615571565b60a9602090815260009283526040909220815180830184018051928152908401929093019190912091525481565b609d54610347906001600160a01b031681565b6103726106543660046158ba565b611d8d565b60ad54610326565b609c54610347906001600160a01b031681565b610372610682366004615877565b611fcb565b6103726106953660046158ba565b61255f565b6103266106a8366004615571565b60aa602090815260009283526040909220815180830184018051928152908401929093019190912091525481565b6103266106e43660046155bf565b61256c565b6103266106f7366004615571565b60ab602090815260009283526040909220815180830184018051928152908401929093019190912091525481565b610486610733366004615555565b6125fe565b61032660a65481565b61032660a75481565b610372610758366004615555565b6126b5565b609a54610347906001600160a01b031681565b610326609f5481565b61032661078736600461581f565b61272b565b606060ad8054806020026020016040519081016040528092919081815260200182805480156107e457602002820191906000526020600020905b81546001600160a01b031681526001909101906020018083116107c6575b5050505050905090565b6001600160a01b03808216600090815260a860209081526040808320815160e08101835281548152600182015490951685840152600281015485830152600381015460608601526004810180548351818602810186019094528084529495869590949293608086019390929190879084015b8282101561090c57838290600052602060002001805461087f90615e3c565b80601f01602080910402602001604051908101604052809291908181526020018280546108ab90615e3c565b80156108f85780601f106108cd576101008083540402835291602001916108f8565b820191906000526020600020905b8154815290600101906020018083116108db57829003601f168201915b505050505081526020019060010190610860565b505050908252506005820154602082015260069091015460409182015260a7548282015160a05460995493516370a0823160e01b8152306004820152949550919390926001600160a01b0316906370a082319060240160206040518083038186803b15801561097a57600080fd5b505afa15801561098e573d6000803e3d6000fd5b505050506040513d601f19601f820116820180604052508101906109b291906158d2565b1115610a6a57609e5460a0546099546040516370a0823160e01b815230600482015264e8d4a5100092916001600160a01b0316906370a082319060240160206040518083038186803b158015610a0757600080fd5b505afa158015610a1b573d6000803e3d6000fd5b505050506040513d601f19601f82011682018060405250810190610a3f91906158d2565b610a499190615df9565b610a539190615dda565b610a5d9190615dba565b610a679083615da2565b91505b60c083015164e8d4a51000610a7f8484615dda565b610a899190615dba565b610a939190615df9565b610a9d9082615da2565b609854909150610ab6906001600160a01b03168261256c565b95945050505050565b610ac7612a0a565b60008111610af05760405162461bcd60e51b8152600401610ae790615bb6565b60405180910390fd5b609a546040516370a0823160e01b815230600482015282916001600160a01b0316906370a082319060240160206040518083038186803b158015610b3357600080fd5b505afa158015610b47573d6000803e3d6000fd5b505050506040513d601f19601f82011682018060405250810190610b6b91906158d2565b1015610bb95760405162461bcd60e51b815260206004820152601e60248201527f4e6f7420656e6f7567682053494f3220726576656e756520746f6b656e7300006044820152606401610ae7565b60a254811115610c155760405162461bcd60e51b815260206004820152602160248201527f4e6f7420656e6f75676820746f6b656e7320696e20726576656e756520706f6f6044820152601b60fa1b6064820152608401610ae7565b8060a26000828254610c279190615df9565b9091555050609a54610c43906001600160a01b03163383612a64565b604051819033907f447d53be88e315476bdbe2e63cef309461f6305d09aada67641c29e6b897e30190600090a350565b60008082610c8081612ac7565b610c898461191d565b915060008211610ccf5760405162461bcd60e51b81526020600482015260116024820152705573657220686173206e6f20646562747360781b6044820152606401610ae7565b6098546001600160a01b03858116600090815260a860205260408120600201549092610cfc92169061256c565b90508261271060a45483610d109190615dda565b610d2290670de0b6b3a7640000615dda565b610d2c9190615dba565b610d369190615dba565b935050610d41612bae565b50915091565b60af8054610d5490615e3c565b80601f0160208091040260200160405190810160405280929190818152602001828054610d8090615e3c565b8015610dcd5780601f10610da257610100808354040283529160200191610dcd565b820191906000526020600020905b815481529060010190602001808311610db057829003601f168201915b505050505081565b33610ddf81612ac7565b610de93383612c72565b50610df2612bae565b5050565b33610e0081612ac7565b60026065541415610e235760405162461bcd60e51b8152600401610ae790615c38565b600260655581610e455760405162461bcd60e51b8152600401610ae790615bb6565b6098546040516370a0823160e01b815233600482015283916001600160a01b0316906370a082319060240160206040518083038186803b158015610e8857600080fd5b505afa158015610e9c573d6000803e3d6000fd5b505050506040513d601f19601f82011682018060405250810190610ec091906158d2565b1015610f225760405162461bcd60e51b815260206004820152602b60248201527f4e6f7420656e6f756768206e4153545220746f6b656e73206f6e20746865207560448201526a7365722062616c616e636560a81b6064820152608401610ae7565b33600090815260a86020526040902060018101546001600160a01b0316610f9c5760ad8054825560018083018054336001600160a01b03199182168117909255835492830184556000939093527f0440fd76b4e685d17019b0eef836cea9994650028b99dddfb48be06fa4240aa690910180549092161790555b609854610fb4906001600160a01b0316333086612f02565b60985460975460405163095ea7b360e01b81526001600160a01b0391821660048201526024810186905291169063095ea7b390604401602060405180830381600087803b15801561100457600080fd5b505af1158015611018573d6000803e3d6000fd5b505050506040513d601f19601f8201168201806040525081019061103c9190615737565b5060975460985460405163e8eda9df60e01b81526001600160a01b039182166004820152602481018690523060448201526000606482015291169063e8eda9df90608401600060405180830381600087803b15801561109a57600080fd5b505af11580156110ae573d6000803e3d6000fd5b50505050828160020160008282546110c69190615da2565b9250508190555082609e60008282546110df9190615da2565b9091555050609d54604051630820ee1960e11b81523360048201526001600160a01b0390911690631041dc3290602401600060405180830381600087803b15801561112957600080fd5b505af115801561113d573d6000803e3d6000fd5b5050505061114a81612f40565b604051839033907fadacf827efe383160192c092d8658471945c074229a9746679b5e2b74adff19190600090a3506001606555610df2612bae565b600054610100900460ff16158080156111a55750600054600160ff909116105b806111bf5750303b1580156111bf575060005460ff166001145b6112225760405162461bcd60e51b815260206004820152602e60248201527f496e697469616c697a61626c653a20636f6e747261637420697320616c72656160448201526d191e481a5b9a5d1a585b1a5e995960921b6064820152608401610ae7565b6000805460ff191660011790558015611245576000805461ff0019166101001790555b61124d612f91565b611255612fc0565b609d80546001600160a01b03199081166001600160a01b038681169182179093556097805483168c85161790556098805483168b85169081179091556099805484168b8616179055609a80548416898616179055609c805484168a8616179055609b80549093169386169390931790915543609f55604051631299489960e31b81526004810192909252906394ca44c89060240160606040518083038186803b15801561130157600080fd5b505afa158015611315573d6000803e3d6000fd5b505050506040513d601f19601f820116820180604052508101906113399190615993565b60a35560ae5560a45560408051808201909152600c8082526b29b4b7992fa0b230b83a32b960a11b60209092019182526113759160af9161533c565b5060b080546001600160a01b03191673294bb6b8e692543f373383a84a1f296d3c297aef1790556113a6600f61255f565b6113ae612bae565b80156113f4576000805461ff0019169055604051600181527f7f26b83ff96e1f2b6a682f133852f6798a09c465da95921460cefb38474024989060200160405180910390a15b5050505050505050565b60ad818154811061140e57600080fd5b6000918252602090912001546001600160a01b0316905081565b3361143281612ac7565b33600090815260a86020526040902060038101546114925760405162461bcd60e51b815260206004820152601760248201527f5573657220686173206e6f20616e7920726577617264730000000000000000006044820152606401610ae7565b60038101805460009182905560a18054919283926114b1908490615df9565b9091555050609a546114cd906001600160a01b03163383612a64565b60028201546114de576114de612fef565b60405181815233907f1f89f96333d3133000ee447473151fa9606543368f02271c9d95ae14f13bcc679060200160405180910390a2505061151d612bae565b50565b3361152a81612ac7565b6002606554141561154d5760405162461bcd60e51b8152600401610ae790615c38565b6002606555609d5460405163eb4c0ae560e01b81526000916001600160a01b03169063eb4c0ae590611583908690600401615b00565b60006040518083038186803b15801561159b57600080fd5b505afa1580156115af573d6000803e3d6000fd5b505050506040513d6000823e601f3d908101601f191682016040526115d791908101906158ea565b505033600090815260a960205260408082209051989a509098509661160596508b95509350615a2f92505050565b90815260200160405180910390205490506116218482336131ed565b50506001606555610df2612bae565b611638612a0a565b60408051808201909152600c8082526b29b4b7992fa0b230b83a32b960a11b602090920191825261166b9160af9161533c565b505060b080546001600160a01b03191673294bb6b8e692543f373383a84a1f296d3c297aef179055565b3361169f81612ac7565b600260655414156116c25760405162461bcd60e51b8152600401610ae790615c38565b60026065556116d28383336131ed565b60016065556116df612bae565b505050565b61172d6040518060e001604052806000815260200160006001600160a01b0316815260200160008152602001600081526020016060815260200160008152602001600081525090565b6001600160a01b03808316600090815260a860209081526040808320815160e08101835281548152600182015490951685840152600281015485830152600381015460608601526004810180548351818602810186019094528084529194608087019491929184015b828210156118425783829060005260206000200180546117b590615e3c565b80601f01602080910402602001604051908101604052809291908181526020018280546117e190615e3c565b801561182e5780601f106118035761010080835404028352916020019161182e565b820191906000526020600020905b81548152906001019060200180831161181157829003601f168201915b505050505081526020019060010190611796565b505050508152602001600582015481526020016006820154815250509050919050565b61186d612a0a565b61187760006138d9565b565b609b5460405163b3596f0760e01b81526001600160a01b038481166004830152600092839291169063b3596f079060240160206040518083038186803b1580156118c257600080fd5b505afa1580156118d6573d6000803e3d6000fd5b505050506040513d601f19601f820116820180604052508101906118fa91906158d2565b90508061190b6305f5e10085615dda565b6119159190615dba565b949350505050565b6001600160a01b03808216600090815260a860209081526040808320815160e08101835281548152600182015490951685840152600281015485830152600381015460608601526004810180548351818602810186019094528084529495869590949293608086019390929190879084015b82821015611a3b5783829060005260206000200180546119ae90615e3c565b80601f01602080910402602001604051908101604052809291908181526020018280546119da90615e3c565b8015611a275780601f106119fc57610100808354040283529160200191611a27565b820191906000526020600020905b815481529060010190602001808311611a0a57829003601f168201915b50505050508152602001906001019061198f565b50505050815260200160058201548152602001600682015481525050905060005b816080015151811015611d8657600080600080600080609d60009054906101000a90046001600160a01b03166001600160a01b031663eb4c0ae589608001518981518110611aba57634e487b7160e01b600052603260045260246000fd5b60200260200101516040518263ffffffff1660e01b8152600401611ade9190615b00565b60006040518083038186803b158015611af657600080fd5b505afa158015611b0a573d6000803e3d6000fd5b505050506040513d6000823e601f3d908101601f19168201604052611b3291908101906158ea565b50985050975097505096509650965050600060a960008a602001516001600160a01b03166001600160a01b0316815260200190815260200160002087604051611b7b9190615a2f565b908152604051908190036020018120546370a0823160e01b825230600483015291506000908390879083906001600160a01b038316906370a082319060240160206040518083038186803b158015611bd257600080fd5b505afa158015611be6573d6000803e3d6000fd5b505050506040513d601f19601f82011682018060405250810190611c0a91906158d2565b609d5460405163337166db60e11b81526001600160a01b038c81166004830152602482018490529293509116906366e2cdb69060440160206040518083038186803b158015611c5857600080fd5b505afa158015611c6c573d6000803e3d6000fd5b505050506040513d601f19601f82011682018060405250810190611c9091906158d2565b905087811115611ca757611ca48882615df9565b93505b600087118015611cb75750600084115b15611d5a5786611ccc64e8d4a5100086615dda565b611cd69190615dba565b611ce09084615da2565b925060ab60008e602001516001600160a01b03166001600160a01b031681526020019081526020016000208b604051611d199190615a2f565b9081526040519081900360200190205464e8d4a51000611d398588615dda565b611d439190615dba565b611d4d9190615df9565b611d579086615da2565b94505b611d648a8661256c565b611d6e908f615da2565b9d508b6001019b505050505050505050505050611a5c565b5050919050565b33611d9781612ac7565b6099546040516370a0823160e01b815233600482015283916001600160a01b0316906370a082319060240160206040518083038186803b158015611dda57600080fd5b505afa158015611dee573d6000803e3d6000fd5b505050506040513d601f19601f82011682018060405250810190611e1291906158d2565b1015611e6b5760405162461bcd60e51b815260206004820152602260248201527f4e6f7420656e6f7567682073546f6b656e73206f6e20757365722062616c616e604482015261636560f01b6064820152608401610ae7565b33600090815260a86020526040902060018101546001600160a01b0316611ee55760ad8054825560018083018054336001600160a01b03199182168117909255835492830184556000939093527f0440fd76b4e685d17019b0eef836cea9994650028b99dddfb48be06fa4240aa690910180549092161790555b609954611efd906001600160a01b0316333086612f02565b82816002016000828254611f119190615da2565b9250508190555082609e6000828254611f2a9190615da2565b9091555050609d54604051630820ee1960e11b81523360048201526001600160a01b0390911690631041dc3290602401600060405180830381600087803b158015611f7457600080fd5b505af1158015611f88573d6000803e3d6000fd5b50505050611f9581612f40565b604051839033907fff262dedd9c374defba8a50fae9735db53fa696865ce2045ab78166b366ea06c90600090a350610df2612bae565b33611fd581612ac7565b60026065541415611ff85760405162461bcd60e51b8152600401610ae790615c38565b6002606555609d5460405163eb4c0ae560e01b81526000916001600160a01b03169063eb4c0ae59061202e908790600401615b00565b60006040518083038186803b15801561204657600080fd5b505afa15801561205a573d6000803e3d6000fd5b505050506040513d6000823e601f3d908101601f1916820160405261208291908101906158ea565b50505050505050925050506000612098336125fe565b509050806120a6838661256c565b11156120f45760405162461bcd60e51b815260206004820152601f60248201527f4e6f7420656e6f75676820636f6c6c61746572616c20746f20626f72726f77006044820152606401610ae7565b6001600160a01b0382166121395760405162461bcd60e51b815260206004820152600c60248201526b57726f6e672061737365742160a01b6044820152606401610ae7565b33600090815260a9602052604090819020905185919061215a908890615a2f565b908152602001604051809103902060008282546121779190615da2565b9091555050609d546040516335aa645360e01b81526001600160a01b03909116906335aa6453906121ae9088908890600401615b13565b600060405180830381600087803b1580156121c857600080fd5b505af11580156121dc573d6000803e3d6000fd5b505033600090815260a86020908152604080832060aa909252808320905191945091925061220b908990615a2f565b90815260405190819003602001902054600483015490915015806122a757508660405160200161223b9190615a2f565b6040516020818303038152906040528051906020012082600401828154811061227457634e487b7160e01b600052603260045260246000fd5b9060005260206000200160405160200161228e9190615a4b565b6040516020818303038152906040528051906020012014155b1561237a5760a5546004830154106123185760405162461bcd60e51b815260206004820152602e60248201527f4d617820616d6f756e74206f6620626f72726f7765642061737365747320686160448201526d1cc81899595b881c995858da195960921b6064820152608401610ae7565b600482015433600090815260aa602052604090819020905161233b908a90615a2f565b90815260405160209181900382019020919091556004830180546001810182556000918252908290208951612378939190920191908a019061533c565b505b609d546040516351d8dcab60e11b81526001600160a01b03868116600483015260248201899052600092169063a3b1b9569060440160206040518083038186803b1580156123c757600080fd5b505afa1580156123db573d6000803e3d6000fd5b505050506040513d601f19601f820116820180604052508101906123ff91906158d2565b60975460405163a415bcad60e01b81526001600160a01b03888116600483015260248201849052600260448301526000606483015230608483015292935091169063a415bcad9060a401600060405180830381600087803b15801561246357600080fd5b505af1158015612477573d6000803e3d6000fd5b505050600184015461249391506001600160a01b03168961392b565b609d546040516331ec641160e01b81526001600160a01b03909116906331ec6411906124c3908b90600401615b00565b600060405180830381600087803b1580156124dd57600080fd5b505af11580156124f1573d6000803e3d6000fd5b5061250a925050506001600160a01b0386163383612a64565b86886040516125199190615a2f565b6040519081900381209033907ffbb1365a39abe1ef4dafcb6483cbfc3301ffef63804560005d84a3075a5d0c3790600090a450506001606555506116df9150612bae9050565b612567612a0a565b60a555565b609b5460405163b3596f0760e01b81526001600160a01b038481166004830152600092839291169063b3596f079060240160206040518083038186803b1580156125b557600080fd5b505afa1580156125c9573d6000803e3d6000fd5b505050506040513d601f19601f820116820180604052508101906125ed91906158d2565b90506305f5e10061190b8285615dda565b6001600160a01b038116600090815260a86020526040812060020154819061262b57506000928392509050565b60006126368461191d565b90506000612643856107ee565b9050600061271060a354836126589190615dda565b6126629190615dba565b905082811115612679576126768382615df9565b94505b60a35460009061268b61271086615dda565b6126959190615dba565b9050808311156126ac576126a98184615df9565b94505b50505050915091565b6126bd612a0a565b6001600160a01b0381166127225760405162461bcd60e51b815260206004820152602660248201527f4f776e61626c653a206e6577206f776e657220697320746865207a65726f206160448201526564647265737360d01b6064820152608401610ae7565b61151d816138d9565b609d5460405163eb4c0ae560e01b815260009182916001600160a01b039091169063eb4c0ae590612760908890600401615b00565b60006040518083038186803b15801561277857600080fd5b505afa15801561278c573d6000803e3d6000fd5b505050506040513d6000823e601f3d908101601f191682016040526127b491908101906158ea565b50505050505050925050506000806127cb86610c73565b91509150670de0b6b3a764000082106128265760405162461bcd60e51b815260206004820181905260248201527f5573657220686173206865616c74687920656e6f75676820706f736974696f6e6044820152606401610ae7565b6001600160a01b038616600090815260a96020526040808220905161284c908a90615a2f565b90815260200160405180910390205490506000612869858861256c565b9050818711156128cf5760405162461bcd60e51b815260206004820152602b60248201527f5f64656274546f436f766572206578636565647320746865207573657227732060448201526a1919589d08185b5bdd5b9d60aa1b6064820152608401610ae7565b6128da600284615dba565b8111156129475760405162461bcd60e51b815260206004820152603560248201527f4465627420746f20636f766572206e65656420746f206265206c6f77657220746044820152741a185b880d4c09481bd9881d5cd95c9cc81919589d605a1b6064820152608401610ae7565b61295289888a6131ed565b600061271060ae54612964888b61256c565b61296e9190615dda565b6129789190615dba565b609854909150600090612994906001600160a01b031683611879565b905060006129a28b83612c72565b90508b6040516129b29190615a2f565b6040519081900381208b8252906001600160a01b038d169033907fb005459fdb84a243adb972c91b7494e1680d2c7425cf6ab104fdcf12bb12e4e79060200160405180910390a49750505050505050505b9392505050565b6033546001600160a01b031633146118775760405162461bcd60e51b815260206004820181905260248201527f4f776e61626c653a2063616c6c6572206973206e6f7420746865206f776e65726044820152606401610ae7565b6040516001600160a01b0383166024820152604481018290526116df90849063a9059cbb60e01b906064015b60408051601f198184030181529190526020810180516001600160e01b03166001600160e01b031990931692909217909152613af0565b609c54604051630cc7d40f60e11b81523060048201526000916001600160a01b03169063198fa81e9060240160206040518083038186803b158015612b0b57600080fd5b505afa158015612b1f573d6000803e3d6000fd5b505050506040513d601f19601f82011682018060405250810190612b4391906158d2565b90508015612b5457612b5481613bc2565b609f54431115612b7457612b66614574565b612b6f82614a17565b43609f555b6040516001600160a01b0383169033907f988052964d2e20387204cd50097a334c05aed0e74c4be03b8a4414575fda8d8890600090a35050565b6099546040516370a0823160e01b81523060048201526000916001600160a01b0316906370a082319060240160206040518083038186803b158015612bf257600080fd5b505afa158015612c06573d6000803e3d6000fd5b505050506040513d601f19601f82011682018060405250810190612c2a91906158d2565b90508060a0541461151d5760a081905560405181815233907fb1179dab10d9b0411cf1511118345c573d0f2ac8e2b3d37769e7a6bdd13ee08f9060200160405180910390a250565b600060026065541415612c975760405162461bcd60e51b8152600401610ae790615c38565b600260655581612cb95760405162461bcd60e51b8152600401610ae790615bb6565b336001600160a01b0384161415612d40576000612cd5846125fe565b609854909250612cef91506001600160a01b03168461256c565b811015612d3e5760405162461bcd60e51b815260206004820152601a60248201527f4e6f7420656e6f756768206465706f7369746564206e415354520000000000006044820152606401610ae7565b505b609754609854604051631a4ca37b60e21b81526001600160a01b0391821660048201526024810185905230604482015260009291909116906369328dec90606401602060405180830381600087803b158015612d9b57600080fd5b505af1158015612daf573d6000803e3d6000fd5b505050506040513d601f19601f82011682018060405250810190612dd391906158d2565b9050612ddd612bae565b6001600160a01b038416600090815260a860205260408120609e805491928492612e08908490615df9565b9250508190555081816002016000828254612e239190615df9565b9091555050609d54604051630820ee1960e11b81526001600160a01b03878116600483015290911690631041dc3290602401600060405180830381600087803b158015612e6f57600080fd5b505af1158015612e83573d6000803e3d6000fd5b50505050612e9081612f40565b609854612ea7906001600160a01b03163384612a64565b6002810154158015612ebb57506003810154155b15612ec857612ec8612fef565b604051849033907f884edad9ce6fa2440d8a54cc123490eb96d2768479d49ff9c7366125a942436490600090a35060016065559392505050565b6040516001600160a01b0380851660248301528316604482015260648101829052612f3a9085906323b872dd60e01b90608401612a90565b50505050565b64e8d4a5100060a7548260020154612f589190615dda565b612f629190615dba565b600682015560a654600282015464e8d4a5100091612f7f91615dda565b612f899190615dba565b600590910155565b600054610100900460ff16612fb85760405162461bcd60e51b8152600401610ae790615bed565b611877614f7f565b600054610100900460ff16612fe75760405162461bcd60e51b8152600401610ae790615bed565b611877614faf565b60ad5460009061300190600190615df9565b33600090815260a86020819052604082205460ad80549495509093849391908690811061303e57634e487b7160e01b600052603260045260246000fd5b60009182526020808320909101546001600160a01b0316835282019290925260400181209190915560ad805460a89291908490811061308d57634e487b7160e01b600052603260045260246000fd5b60009182526020808320909101546001600160a01b0316835282019290925260400181208181556001810180546001600160a01b03191690556002810182905560038101829055906130e260048301826153c0565b60058201600090556006820160009055505060ad828154811061311557634e487b7160e01b600052603260045260246000fd5b60009182526020909120015460ad80546001600160a01b03909216918390811061314f57634e487b7160e01b600052603260045260246000fd5b9060005260206000200160006101000a8154816001600160a01b0302191690836001600160a01b0316021790555060ad80548061319c57634e487b7160e01b600052603160045260246000fd5b600082815260208120820160001990810180546001600160a01b031916905590910190915560405133917f0ad8e54ac59bf2d8a7a1474c1af503b593553cf4fcaaffdef04ab5249f89762b91a25050565b609d5460405163eb4c0ae560e01b81526000916001600160a01b03169063eb4c0ae59061321e908790600401615b00565b60006040518083038186803b15801561323657600080fd5b505afa15801561324a573d6000803e3d6000fd5b505050506040513d6000823e601f3d908101601f1916820160405261327291908101906158ea565b50506040516370a0823160e01b815233600482015295985088975060009650506001600160a01b038716946370a08231945060240192506132b1915050565b60206040518083038186803b1580156132c957600080fd5b505afa1580156132dd573d6000803e3d6000fd5b505050506040513d601f19601f8201168201806040525081019061330191906158d2565b609d5460405163337166db60e11b81526001600160a01b038681166004830152602482018490529293509116906366e2cdb69060440160206040518083038186803b15801561334f57600080fd5b505afa158015613363573d6000803e3d6000fd5b505050506040513d601f19601f8201168201806040525081019061338791906158d2565b6001600160a01b038516600090815260a96020526040808220905192935090916133b2908990615a2f565b908152602001604051809103902054116134195760405162461bcd60e51b815260206004820152602260248201527f546865207573657220686173206e6f206465627420696e207468697320617373604482015261195d60f21b6064820152608401610ae7565b848110156134745760405162461bcd60e51b815260206004820152602260248201527f4e6f7420656e6f7567682077616c6c65742062616c616e636520746f20726570604482015261617960f01b6064820152608401610ae7565b600085116134cf5760405162461bcd60e51b815260206004820152602260248201527f416d6f756e742073686f756c642062652067726561746572207468616e207a65604482015261726f60f01b6064820152608401610ae7565b6001600160a01b038416600090815260a960205260409081902090518691906134f9908990615a2f565b90815260200160405180910390205410156135605760405162461bcd60e51b815260206004820152602160248201527f546f6f206c6172676520616d6f756e742c206465627420697320736d616c6c656044820152603960f91b6064820152608401610ae7565b609d546040516351d8dcab60e11b81526001600160a01b03858116600483015260248201889052600092169063a3b1b9569060440160206040518083038186803b1580156135ad57600080fd5b505afa1580156135c1573d6000803e3d6000fd5b505050506040513d601f19601f820116820180604052508101906135e591906158d2565b90506135fc6001600160a01b038416333084612f02565b6001600160a01b038516600090815260a96020526040908190209051879190613626908a90615a2f565b908152602001604051809103902060008282546136439190615df9565b9091555050609d546040516328474b6560e11b81526001600160a01b039091169063508e96ca9061367a908a908a90600401615b13565b600060405180830381600087803b15801561369457600080fd5b505af11580156136a8573d6000803e3d6000fd5b505050506001600160a01b038516600090815260a960205260409081902090516136d3908990615a2f565b908152602001604051809103902054600014156136f4576136f48786614fdd565b60975460405163095ea7b360e01b81526001600160a01b039182166004820152602481018390529084169063095ea7b390604401602060405180830381600087803b15801561374257600080fd5b505af1158015613756573d6000803e3d6000fd5b505050506040513d601f19601f8201168201806040525081019061377a9190615737565b5060975460405163573ade8160e01b81526001600160a01b03868116600483015260248201849052600260448301523060648301529091169063573ade8190608401602060405180830381600087803b1580156137d657600080fd5b505af11580156137ea573d6000803e3d6000fd5b505050506040513d601f19601f8201168201806040525081019061380e91906158d2565b50613819858861392b565b609d546040516331ec641160e01b81526001600160a01b03909116906331ec641190613849908a90600401615b00565b600060405180830381600087803b15801561386357600080fd5b505af1158015613877573d6000803e3d6000fd5b50505050866040516138899190615a2f565b604051908190038120878252906001600160a01b0387169033907f9224848400cfa1576c7e664421f4dd1637bde893ecde23b812b4c78c56a0af7b9060200160405180910390a450505050505050565b603380546001600160a01b038381166001600160a01b0319831681179093556040519116919082907f8be0079c531659141344cd1fd0a4f28419497f9722a3daafe3b4186f6b6457e090600090a35050565b609d5460405163eb4c0ae560e01b815260009182916001600160a01b039091169063eb4c0ae590613960908690600401615b00565b60006040518083038186803b15801561397857600080fd5b505afa15801561398c573d6000803e3d6000fd5b505050506040513d6000823e601f3d908101601f191682016040526139b491908101906158ea565b99509950505050505050505064e8d4a510008260a96000876001600160a01b03166001600160a01b03168152602001908152602001600020856040516139fa9190615a2f565b908152602001604051809103902054613a139190615dda565b613a1d9190615dba565b6001600160a01b038516600090815260ab6020526040908190209051613a44908690615a2f565b90815260200160405180910390208190555064e8d4a510008160a96000876001600160a01b03166001600160a01b0316815260200190815260200160002085604051613a909190615a2f565b908152602001604051809103902054613aa99190615dda565b613ab39190615dba565b6001600160a01b038516600090815260ac6020526040908190209051613ada908690615a2f565b9081526040519081900360200190205550505050565b6000613b45826040518060400160405280602081526020017f5361666545524332303a206c6f772d6c6576656c2063616c6c206661696c6564815250856001600160a01b03166152289092919063ffffffff16565b8051909150156116df5780806020019051810190613b639190615737565b6116df5760405162461bcd60e51b815260206004820152602a60248201527f5361666545524332303a204552433230206f7065726174696f6e20646964206e6044820152691bdd081cdd58d8d9595960b21b6064820152608401610ae7565b609d5460408051631034779560e31b815290516000926001600160a01b0316916381a3bca89160048083019286929190829003018186803b158015613c0657600080fd5b505afa158015613c1a573d6000803e3d6000fd5b505050506040513d6000823e601f3d908101601f19168201604052613c4291908101906155ea565b90506000609d60009054906101000a90046001600160a01b03166001600160a01b031663ac9cb4706040518163ffffffff1660e01b815260040160006040518083038186803b158015613c9457600080fd5b505afa158015613ca8573d6000803e3d6000fd5b505050506040513d6000823e601f3d908101601f19168201604052613cd09190810190615686565b609c54604051633111e7b360e01b81529192506000916001600160a01b0390911690633111e7b390613d0a90869088903090600401615acd565b602060405180830381600087803b158015613d2457600080fd5b505af1158015613d38573d6000803e3d6000fd5b505050506040513d601f19601f82011682018060405250810190613d5c91906158d2565b90506000613d6b600a83615dba565b9050613d778183615df9565b60a16000828254613d889190615da2565b925050819055508060a26000828254613da19190615da2565b9091555060009050613db38284615df9565b90506000609960009054906101000a90046001600160a01b03166001600160a01b03166318160ddd6040518163ffffffff1660e01b815260040160206040518083038186803b158015613e0557600080fd5b505afa158015613e19573d6000803e3d6000fd5b505050506040513d601f19601f82011682018060405250810190613e3d91906158d2565b6099546040516370a0823160e01b81523060048201526ec097ce7bc90715b34b9f1000000000916005916001600160a01b03909116906370a082319060240160206040518083038186803b158015613e9457600080fd5b505afa158015613ea8573d6000803e3d6000fd5b505050506040513d601f19601f82011682018060405250810190613ecc91906158d2565b613ed69190615dda565b613ee09190615dda565b613eea9190615dba565b905060005b855181101561410d57609d54865160009182916001600160a01b039091169063eb4c0ae5908a9086908110613f3457634e487b7160e01b600052603260045260246000fd5b60200260200101516040518263ffffffff1660e01b8152600401613f589190615b00565b60006040518083038186803b158015613f7057600080fd5b505afa158015613f84573d6000803e3d6000fd5b505050506040513d6000823e601f3d908101601f19168201604052613fac91908101906158ea565b50506040516370a0823160e01b8152306004820152949950975088965060009550506001600160a01b03861693506370a08231926024019150613fec9050565b60206040518083038186803b15801561400457600080fd5b505afa158015614018573d6000803e3d6000fd5b505050506040513d601f19601f8201168201806040525081019061403c91906158d2565b90506000826001600160a01b03166318160ddd6040518163ffffffff1660e01b815260040160206040518083038186803b15801561407957600080fd5b505afa15801561408d573d6000803e3d6000fd5b505050506040513d601f19601f820116820180604052508101906140b191906158d2565b905080156140f557806ec097ce7bc90715b34b9f10000000006140d48487615dda565b6140de9190615dda565b6140e89190615dba565b6140f29088615da2565b96505b5050505050808061410590615e77565b915050613eef565b5060005b85518110156143be57609d548651600091829182916001600160a01b03169063eb4c0ae5908b908790811061415657634e487b7160e01b600052603260045260246000fd5b60200260200101516040518263ffffffff1660e01b815260040161417a9190615b00565b60006040518083038186803b15801561419257600080fd5b505afa1580156141a6573d6000803e3d6000fd5b505050506040513d6000823e601f3d908101601f191682016040526141ce91908101906158ea565b5050975097505050955050505060008211156143b05760008390506000816001600160a01b03166318160ddd6040518163ffffffff1660e01b815260040160206040518083038186803b15801561422457600080fd5b505afa158015614238573d6000803e3d6000fd5b505050506040513d601f19601f8201168201806040525081019061425c91906158d2565b6040516370a0823160e01b81523060048201526ec097ce7bc90715b34b9f1000000000906001600160a01b038516906370a082319060240160206040518083038186803b1580156142ac57600080fd5b505afa1580156142c0573d6000803e3d6000fd5b505050506040513d601f19601f820116820180604052508101906142e491906158d2565b6142ee9190615dda565b6142f89190615dba565b905060008784614308848c615dda565b6143129190615dda565b61431c9190615dba565b609d548d519192506001600160a01b03169063e18cf0b3908e908a90811061435457634e487b7160e01b600052603260045260246000fd5b6020026020010151836040518363ffffffff1660e01b815260040161437a929190615b13565b600060405180830381600087803b15801561439457600080fd5b505af11580156143a8573d6000803e3d6000fd5b505050505050505b836001019350505050614111565b50609954604080516318160ddd60e01b815290516000926001600160a01b0316916318160ddd916004808301926020929190829003018186803b15801561440457600080fd5b505afa158015614418573d6000803e3d6000fd5b505050506040513d601f19601f8201168201806040525081019061443c91906158d2565b6099546040516370a0823160e01b81523060048201526ec097ce7bc90715b34b9f1000000000916001600160a01b0316906370a082319060240160206040518083038186803b15801561448e57600080fd5b505afa1580156144a2573d6000803e3d6000fd5b505050506040513d601f19601f820116820180604052508101906144c691906158d2565b6144d09190615dda565b6144da9190615dba565b905060008260056144eb8487615dda565b6144f59190615dda565b6144ff9190615dba565b609e5490915061451464e8d4a5100083615dda565b61451e9190615dba565b60a6600082825461452f9190615da2565b909155505060405189815233907fdaaebb9609cb2f719c59c9d334be287bf4def107ad3dec4a6f90d8abaa94c73c9060200160405180910390a2505050505050505050565b6099546040516370a0823160e01b81523060048201526000916001600160a01b0316906370a082319060240160206040518083038186803b1580156145b857600080fd5b505afa1580156145cc573d6000803e3d6000fd5b505050506040513d601f19601f820116820180604052508101906145f091906158d2565b90506000609d60009054906101000a90046001600160a01b03166001600160a01b031663ac9cb4706040518163ffffffff1660e01b815260040160006040518083038186803b15801561464257600080fd5b505afa158015614656573d6000803e3d6000fd5b505050506040513d6000823e601f3d908101601f1916820160405261467e9190810190615686565b905060a0548211156146cc57609e5464e8d4a5100060a054846146a19190615df9565b6146ab9190615dda565b6146b59190615dba565b60a760008282546146c69190615da2565b90915550505b60005b81518110156149e757609d548251600091829182916001600160a01b03169063eb4c0ae59087908790811061471457634e487b7160e01b600052603260045260246000fd5b60200260200101516040518263ffffffff1660e01b81526004016147389190615b00565b60006040518083038186803b15801561475057600080fd5b505afa158015614764573d6000803e3d6000fd5b505050506040513d6000823e601f3d908101601f1916820160405261478c91908101906158ea565b5050509650965050955050505060008111156149d9576040516370a0823160e01b81523060048201526000906001600160a01b038516906370a082319060240160206040518083038186803b1580156147e457600080fd5b505afa1580156147f8573d6000803e3d6000fd5b505050506040513d601f19601f8201168201806040525081019061481c91906158d2565b609d5460405163337166db60e11b81526001600160a01b038781166004830152602482018490529293509116906366e2cdb69060440160206040518083038186803b15801561486a57600080fd5b505afa15801561487e573d6000803e3d6000fd5b505050506040513d601f19601f820116820180604052508101906148a291906158d2565b90506000838211156149d6576148b88483615df9565b609d5488519192506001600160a01b031690635360d451908990899081106148f057634e487b7160e01b600052603260045260246000fd5b6020026020010151836040518363ffffffff1660e01b8152600401614916929190615b13565b600060405180830381600087803b15801561493057600080fd5b505af1158015614944573d6000803e3d6000fd5b5050609d5489516001600160a01b0390911692506331ec6411915089908990811061497f57634e487b7160e01b600052603260045260246000fd5b60200260200101516040518263ffffffff1660e01b81526004016149a39190615b00565b600060405180830381600087803b1580156149bd57600080fd5b505af11580156149d1573d6000803e3d6000fd5b505050505b50505b8360010193505050506146cf565b5060405133907f93c2cc09bcbf438c51ec7525786ac45b81e1b915aff401abdbb6aa0a85e7841e90600090a25050565b6001600160a01b038116600090815260a860205260408120905b6004820154811015614e43576000806000609d60009054906101000a90046001600160a01b03166001600160a01b031663eb4c0ae5866004018681548110614a8957634e487b7160e01b600052603260045260246000fd5b906000526020600020016040518263ffffffff1660e01b8152600401614aaf9190615b35565b60006040518083038186803b158015614ac757600080fd5b505afa158015614adb573d6000803e3d6000fd5b505050506040513d6000823e601f3d908101601f19168201604052614b0391908101906158ea565b99509950505050505050935050600060ab6000886001600160a01b03166001600160a01b0316815260200190815260200160002084604051614b459190615a2f565b90815260200160405180910390205464e8d4a510008460a960008b6001600160a01b03166001600160a01b0316815260200190815260200160002087604051614b8e9190615a2f565b908152602001604051809103902054614ba79190615dda565b614bb19190615dba565b614bbb9190615df9565b6001600160a01b038816600090815260a960205260409081902090519192508291614be7908790615a2f565b90815260200160405180910390206000828254614c049190615da2565b90915550506001600160a01b038716600090815260a9602052604090819020905164e8d4a51000918591614c39908890615a2f565b908152602001604051809103902054614c529190615dda565b614c5c9190615dba565b6001600160a01b038816600090815260ab6020526040908190209051614c83908790615a2f565b9081526040805160209281900383018120939093556001600160a01b038a16600090815260ac909252902090614cba908690615a2f565b90815260200160405180910390205464e8d4a510008360a960008b6001600160a01b03166001600160a01b0316815260200190815260200160002087604051614d039190615a2f565b908152602001604051809103902054614d1c9190615dda565b614d269190615dba565b614d309190615df9565b866003016000828254614d439190615da2565b90915550506001600160a01b038716600090815260a9602052604090819020905164e8d4a51000918491614d78908890615a2f565b908152602001604051809103902054614d919190615dda565b614d9b9190615dba565b6001600160a01b038816600090815260ac6020526040908190209051614dc2908790615a2f565b90815260405190819003602001812091909155609d546335aa645360e01b82526001600160a01b0316906335aa645390614e029087908590600401615b13565b600060405180830381600087803b158015614e1c57600080fd5b505af1158015614e30573d6000803e3d6000fd5b5050505084600101945050505050614a31565b50806005015464e8d4a5100060a6548360020154614e619190615dda565b614e6b9190615dba565b614e759190615df9565b816003016000828254614e889190615da2565b909155505060a654600282015464e8d4a5100091614ea591615dda565b614eaf9190615dba565b81600501819055506000816006015464e8d4a5100060a7548460020154614ed69190615dda565b614ee09190615dba565b614eea9190615df9565b905080826002016000828254614f009190615da2565b909155505060a754600283015464e8d4a5100091614f1d91615dda565b614f279190615dba565b826006018190555080609e6000828254614f419190615da2565b90915550506040516001600160a01b038416907f1193db31546f47ab08e167f5c0ed9e218691a488250659a1925618b92c9365de90600090a2505050565b600054610100900460ff16614fa65760405162461bcd60e51b8152600401610ae790615bed565b611877336138d9565b600054610100900460ff16614fd65760405162461bcd60e51b8152600401610ae790615bed565b6001606555565b6001600160a01b038116600090815260a86020908152604080832060aa909252808320905160049092019291615014908690615a2f565b90815260200160405180910390205490506000600183805490506150389190615df9565b9050600083828154811061505c57634e487b7160e01b600052603260045260246000fd5b90600052602060002001805461507190615e3c565b80601f016020809104026020016040519081016040528092919081815260200182805461509d90615e3c565b80156150ea5780601f106150bf576101008083540402835291602001916150ea565b820191906000526020600020905b8154815290600101906020018083116150cd57829003601f168201915b505050505090508260aa6000876001600160a01b03166001600160a01b03168152602001908152602001600020826040516151259190615a2f565b90815260200160405180910390208190555083828154811061515757634e487b7160e01b600052603260045260246000fd5b9060005260206000200184848154811061518157634e487b7160e01b600052603260045260246000fd5b9060005260206000200190805461519790615e3c565b6151a29291906153de565b50838054806151c157634e487b7160e01b600052603160045260246000fd5b6001900381819060005260206000200160006151dd9190615459565b9055846001600160a01b03167f999b3d8b83cddc0325df07aa8d17d19079ef66d0e897f868e76b7ddd0ba9b907876040516152189190615b00565b60405180910390a2505050505050565b60606119158484600085856001600160a01b0385163b61528a5760405162461bcd60e51b815260206004820152601d60248201527f416464726573733a2063616c6c20746f206e6f6e2d636f6e74726163740000006044820152606401610ae7565b600080866001600160a01b031685876040516152a69190615a2f565b60006040518083038185875af1925050503d80600081146152e3576040519150601f19603f3d011682016040523d82523d6000602084013e6152e8565b606091505b50915091506152f8828286615303565b979650505050505050565b60608315615312575081612a03565b8251156153225782518084602001fd5b8160405162461bcd60e51b8152600401610ae79190615b00565b82805461534890615e3c565b90600052602060002090601f01602090048101928261536a57600085556153b0565b82601f1061538357805160ff19168380011785556153b0565b828001600101855582156153b0579182015b828111156153b0578251825591602001919060010190615395565b506153bc92915061548f565b5090565b508054600082559060005260206000209081019061151d91906154a4565b8280546153ea90615e3c565b90600052602060002090601f01602090048101928261540c57600085556153b0565b82601f1061541d57805485556153b0565b828001600101855582156153b057600052602060002091601f016020900482015b828111156153b057825482559160010191906001019061543e565b50805461546590615e3c565b6000825580601f10615475575050565b601f01602090049060005260206000209081019061151d91905b5b808211156153bc5760008155600101615490565b808211156153bc5760006154b88282615459565b506001016154a4565b600082601f8301126154d1578081fd5b81356154e46154df82615d7a565b615d25565b8181528460208386010111156154f8578283fd5b816020850160208301379081016020019190915292915050565b600082601f830112615522578081fd5b81516155306154df82615d7a565b818152846020838601011115615544578283fd5b611915826020830160208701615e10565b600060208284031215615566578081fd5b8135612a0381615ebe565b60008060408385031215615583578081fd5b823561558e81615ebe565b9150602083013567ffffffffffffffff8111156155a9578182fd5b6155b5858286016154c1565b9150509250929050565b600080604083850312156155d1578182fd5b82356155dc81615ebe565b946020939093013593505050565b600060208083850312156155fc578182fd5b825167ffffffffffffffff811115615612578283fd5b8301601f81018513615622578283fd5b80516156306154df82615d56565b80828252848201915084840188868560051b870101111561564f578687fd5b8694505b8385101561567a57805161566681615ebe565b835260019490940193918501918501615653565b50979650505050505050565b60006020808385031215615698578182fd5b825167ffffffffffffffff808211156156af578384fd5b818501915085601f8301126156c2578384fd5b81516156d06154df82615d56565b80828252858201915085850189878560051b88010111156156ef578788fd5b875b848110156157285781518681111561570757898afd5b6157158c8a838b0101615512565b85525092870192908701906001016156f1565b50909998505050505050505050565b600060208284031215615748578081fd5b81518015158114612a03578182fd5b600080600080600080600060e0888a031215615771578283fd5b873561577c81615ebe565b9650602088013561578c81615ebe565b9550604088013561579c81615ebe565b945060608801356157ac81615ebe565b935060808801356157bc81615ebe565b925060a08801356157cc81615ebe565b915060c08801356157dc81615ebe565b8091505092959891949750929550565b6000602082840312156157fd578081fd5b813567ffffffffffffffff811115615813578182fd5b611915848285016154c1565b600080600060608486031215615833578081fd5b833567ffffffffffffffff811115615849578182fd5b615855868287016154c1565b935050602084013561586681615ebe565b929592945050506040919091013590565b60008060408385031215615889578182fd5b823567ffffffffffffffff81111561589f578283fd5b6158ab858286016154c1565b95602094909401359450505050565b6000602082840312156158cb578081fd5b5035919050565b6000602082840312156158e3578081fd5b5051919050565b6000806000806000806000806000806101408b8d031215615909578384fd5b8a51995060208b015167ffffffffffffffff811115615926578485fd5b6159328d828e01615512565b99505060408b015161594381615ebe565b60608c015190985061595481615ebe565b8097505060808b0151955060a08b0151945060c08b0151935060e08b015192506101008b015191506101208b015190509295989b9194979a5092959850565b6000806000606084860312156159a7578081fd5b8351925060208401519150604084015190509250925092565b6000815180845260208085019450808401835b838110156159f85781516001600160a01b0316875295820195908201906001016159d3565b509495945050505050565b60008151808452615a1b816020860160208601615e10565b601f01601f19169290920160200192915050565b60008251615a41818460208701615e10565b9190910192915050565b6000808354615a5981615e3c565b60018281168015615a715760018114615a8257615aae565b60ff19841687528287019450615aae565b8786526020808720875b85811015615aa55781548a820152908401908201615a8c565b50505082870194505b50929695505050505050565b602081526000612a0360208301846159c0565b606081526000615ae060608301866159c0565b6020830194909452506001600160a01b0391909116604090910152919050565b602081526000612a036020830184615a03565b604081526000615b266040830185615a03565b90508260208301529392505050565b60006020808352818454615b4881615e3c565b80848701526040600180841660008114615b695760018114615b7d57615ba8565b60ff19851689840152606089019550615ba8565b898852868820885b85811015615ba05781548b8201860152908301908801615b85565b8a0184019650505b509398975050505050505050565b6020808252601b908201527f53686f756c642062652067726561746572207468616e207a65726f0000000000604082015260600190565b6020808252602b908201527f496e697469616c697a61626c653a20636f6e7472616374206973206e6f74206960408201526a6e697469616c697a696e6760a81b606082015260800190565b6020808252601f908201527f5265656e7472616e637947756172643a207265656e7472616e742063616c6c00604082015260600190565b60006020808352610100830184518285015260018060a01b03828601511660408501526040850151606085015260608501516080850152608085015160e060a086015281815180845261012093508387019150838160051b88010193508483019250855b81811015615d025761011f19888603018352615cf0858551615a03565b94509285019291850191600101615cd3565b5050505060a085015160c085015260c085015160e0850152809250505092915050565b604051601f8201601f1916810167ffffffffffffffff81118282101715615d4e57615d4e615ea8565b604052919050565b600067ffffffffffffffff821115615d7057615d70615ea8565b5060051b60200190565b600067ffffffffffffffff821115615d9457615d94615ea8565b50601f01601f191660200190565b60008219821115615db557615db5615e92565b500190565b600082615dd557634e487b7160e01b81526012600452602481fd5b500490565b6000816000190483118215151615615df457615df4615e92565b500290565b600082821015615e0b57615e0b615e92565b500390565b60005b83811015615e2b578181015183820152602001615e13565b83811115612f3a5750506000910152565b600181811c90821680615e5057607f821691505b60208210811415615e7157634e487b7160e01b600052602260045260246000fd5b50919050565b6000600019821415615e8b57615e8b615e92565b5060010190565b634e487b7160e01b600052601160045260246000fd5b634e487b7160e01b600052604160045260246000fd5b6001600160a01b038116811461151d57600080fdfea264697066735822122073001cd2becd59e66fb77192f3475f5651f44099737bda363f068a180f2b7af364736f6c63430008040033",
    "linkReferences": {}
  },
  "methodIdentifiers": {
    "REVENUE_FEE()": "4421bd1e",
    "accCollateralRewardsPerShare()": "ee66cd76",
    "accSTokensPerShare()": "f0b6e35d",
    "adaptersDistributor()": "3ea5856f",
    "addSTokens(uint256)": "9467b746",
    "assetManager()": "94217ad1",
    "availableCollateralUSD(address)": "d6fe3d39",
    "borrow(string,uint256)": "b0afe8bf",
    "calcEstimateUserCollateralUSD(address)": "016021be",
    "calcEstimateUserDebtUSD(address)": "89a4c5af",
    "claimRewards()": "372500ab",
    "collateralLT()": "0d58feff",
    "collateralLTV()": "306f155d",
    "debts(address,string)": "8fe37556",
    "fromUSD(address,uint256)": "87ef186a",
    "getLiquidationParameters(address)": "265844c3",
    "getUser(address)": "6f77926b",
    "getUsers()": "00ce8e3e",
    "getUsersCount()": "a4a1e263",
    "incentivesController()": "af1df255",
    "initialize(address,address,address,address,address,address,address)": "35876476",
    "lastSTokenBalance()": "60bc351e",
    "lastUpdatedBlock()": "f90ce5ba",
    "liquidationCall(string,address,uint256)": "fbc1f977",
    "liquidationPenalty()": "23f5589a",
    "maxAmountToBorrow()": "495a3b84",
    "nastr()": "42c99509",
    "owner()": "8da5cb5b",
    "pool()": "16f0115b",
    "priceOracle()": "2630c12f",
    "renounceOwnership()": "715018a6",
    "repayFull(string)": "4a5baa23",
    "repayPart(string,uint256)": "4ee4ced1",
    "revenuePool()": "7f753de6",
    "rewardPool()": "66666aa9",
    "rewardToken()": "f7c618c1",
    "setLT(uint256)": "4c7abd20",
    "setMaxAmountToBorrow(uint256)": "bc06708c",
    "snastrToken()": "0b72a427",
    "supply(uint256)": "35403023",
    "toUSD(address,uint256)": "cd4f4a9c",
    "totalSupply()": "18160ddd",
    "transferOwnership(address)": "f2fde38b",
    "userBTokensIncomeDebt(address,string)": "d380f072",
    "userBorrowedAssetID(address,string)": "c6543f4a",
    "userBorrowedRewardDebt(address,string)": "1378860f",
    "userInfo(address)": "1959a002",
    "users(uint256)": "365b98b2",
    "utilityName()": "2bb3526e",
    "withdraw(uint256)": "2e1a7d4d",
    "withdrawRevenue(uint256)": "0ceff204"
  },
  "id": 2
}