{
  "abi": [
    {
      "anonymous": false,
      "inputs": [
        {
          "indexed": true,
          "internalType": "address",
          "name": "who",
          "type": "address"
        },
        {
          "indexed": true,
          "internalType": "uint256",
          "name": "amount",
          "type": "uint256"
        }
      ],
      "name": "AddSToken",
      "type": "event"
    },
    {
      "anonymous": false,
      "inputs": [
        {
          "indexed": true,
          "internalType": "address",
          "name": "who",
          "type": "address"
        },
        {
          "indexed": true,
          "internalType": "string",
          "name": "assetName",
          "type": "string"
        },
        {
          "indexed": true,
          "internalType": "uint256",
          "name": "amount",
          "type": "uint256"
        }
      ],
      "name": "Borrow",
      "type": "event"
    },
    {
      "anonymous": false,
      "inputs": [
        {
          "indexed": true,
          "internalType": "address",
          "name": "who",
          "type": "address"
        },
        {
          "indexed": false,
          "internalType": "uint256",
          "name": "rewardsToClaim",
          "type": "uint256"
        }
      ],
      "name": "ClaimRewards",
      "type": "event"
    },
    {
      "anonymous": false,
      "inputs": [
        {
          "indexed": true,
          "internalType": "address",
          "name": "who",
          "type": "address"
        },
        {
          "indexed": false,
          "internalType": "uint256",
          "name": "pendingRewards",
          "type": "uint256"
        }
      ],
      "name": "HarvestRewards",
      "type": "event"
    },
    {
      "anonymous": false,
      "inputs": [
        {
          "indexed": false,
          "internalType": "uint8",
          "name": "version",
          "type": "uint8"
        }
      ],
      "name": "Initialized",
      "type": "event"
    },
    {
      "anonymous": false,
      "inputs": [
        {
          "indexed": true,
          "internalType": "address",
          "name": "liquidatorAddr",
          "type": "address"
        },
        {
          "indexed": true,
          "internalType": "address",
          "name": "userAddr",
          "type": "address"
        },
        {
          "indexed": true,
          "internalType": "string",
          "name": "debtAsset",
          "type": "string"
        },
        {
          "indexed": false,
          "internalType": "uint256",
          "name": "debtToCover",
          "type": "uint256"
        }
      ],
      "name": "LiquidationCall",
      "type": "event"
    },
    {
      "anonymous": false,
      "inputs": [
        {
          "indexed": true,
          "internalType": "address",
          "name": "previousOwner",
          "type": "address"
        },
        {
          "indexed": true,
          "internalType": "address",
          "name": "newOwner",
          "type": "address"
        }
      ],
      "name": "OwnershipTransferred",
      "type": "event"
    },
    {
      "anonymous": false,
      "inputs": [
        {
          "indexed": true,
          "internalType": "address",
          "name": "user",
          "type": "address"
        },
        {
          "indexed": false,
          "internalType": "string",
          "name": "assetName",
          "type": "string"
        }
      ],
      "name": "RemoveAssetFromUser",
      "type": "event"
    },
    {
      "anonymous": false,
      "inputs": [
        {
          "indexed": true,
          "internalType": "address",
          "name": "user",
          "type": "address"
        }
      ],
      "name": "RemoveUser",
      "type": "event"
    },
    {
      "anonymous": false,
      "inputs": [
        {
          "indexed": true,
          "internalType": "address",
          "name": "who",
          "type": "address"
        },
        {
          "indexed": true,
          "internalType": "address",
          "name": "user",
          "type": "address"
        },
        {
          "indexed": true,
          "internalType": "string",
          "name": "assetName",
          "type": "string"
        },
        {
          "indexed": false,
          "internalType": "uint256",
          "name": "amount",
          "type": "uint256"
        }
      ],
      "name": "Repay",
      "type": "event"
    },
    {
      "anonymous": false,
      "inputs": [
        {
          "indexed": true,
          "internalType": "address",
          "name": "user",
          "type": "address"
        },
        {
          "indexed": true,
          "internalType": "uint256",
          "name": "amount",
          "type": "uint256"
        }
      ],
      "name": "Supply",
      "type": "event"
    },
    {
      "anonymous": false,
      "inputs": [
        {
          "indexed": true,
          "internalType": "address",
          "name": "who",
          "type": "address"
        },
        {
          "indexed": false,
          "internalType": "uint256",
          "name": "currentBalance",
          "type": "uint256"
        }
      ],
      "name": "UpdateLastSTokenBalance",
      "type": "event"
    },
    {
      "anonymous": false,
      "inputs": [
        {
          "indexed": true,
          "internalType": "address",
          "name": "who",
          "type": "address"
        }
      ],
      "name": "UpdatePools",
      "type": "event"
    },
    {
      "anonymous": false,
      "inputs": [
        {
          "indexed": true,
          "internalType": "address",
          "name": "user",
          "type": "address"
        }
      ],
      "name": "UpdateUserRewards",
      "type": "event"
    },
    {
      "anonymous": false,
      "inputs": [
        {
          "indexed": true,
          "internalType": "address",
          "name": "who",
          "type": "address"
        },
        {
          "indexed": true,
          "internalType": "address",
          "name": "user",
          "type": "address"
        }
      ],
      "name": "Updates",
      "type": "event"
    },
    {
      "anonymous": false,
      "inputs": [
        {
          "indexed": true,
          "internalType": "address",
          "name": "user",
          "type": "address"
        },
        {
          "indexed": true,
          "internalType": "uint256",
          "name": "amount",
          "type": "uint256"
        }
      ],
      "name": "Withdraw",
      "type": "event"
    },
    {
      "anonymous": false,
      "inputs": [
        {
          "indexed": true,
          "internalType": "address",
          "name": "who",
          "type": "address"
        },
        {
          "indexed": true,
          "internalType": "uint256",
          "name": "amount",
          "type": "uint256"
        }
      ],
      "name": "WithdrawRevenue",
      "type": "event"
    },
    {
      "inputs": [],
      "name": "REVENUE_FEE",
      "outputs": [
        {
          "internalType": "uint256",
          "name": "",
          "type": "uint256"
        }
      ],
      "stateMutability": "view",
      "type": "function"
    },
    {
      "inputs": [],
      "name": "accCollateralRewardsPerShare",
      "outputs": [
        {
          "internalType": "uint256",
          "name": "",
          "type": "uint256"
        }
      ],
      "stateMutability": "view",
      "type": "function"
    },
    {
      "inputs": [],
      "name": "accSTokensPerShare",
      "outputs": [
        {
          "internalType": "uint256",
          "name": "",
          "type": "uint256"
        }
      ],
      "stateMutability": "view",
      "type": "function"
    },
    {
      "inputs": [
        {
          "internalType": "uint256",
          "name": "_amount",
          "type": "uint256"
        }
      ],
      "name": "addSTokens",
      "outputs": [],
      "stateMutability": "nonpayable",
      "type": "function"
    },
    {
      "inputs": [],
      "name": "assetManager",
      "outputs": [
        {
          "internalType": "contract Sio2AdapterAssetManager",
          "name": "",
          "type": "address"
        }
      ],
      "stateMutability": "view",
      "type": "function"
    },
    {
      "inputs": [
        {
          "internalType": "address",
          "name": "_userAddr",
          "type": "address"
        }
      ],
      "name": "availableCollateralUSD",
      "outputs": [
        {
          "internalType": "uint256",
          "name": "toBorrow",
          "type": "uint256"
        },
        {
          "internalType": "uint256",
          "name": "toWithdraw",
          "type": "uint256"
        }
      ],
      "stateMutability": "view",
      "type": "function"
    },
    {
      "inputs": [
        {
          "internalType": "string",
          "name": "_assetName",
          "type": "string"
        },
        {
          "internalType": "uint256",
          "name": "_amount",
          "type": "uint256"
        }
      ],
      "name": "borrow",
      "outputs": [],
      "stateMutability": "nonpayable",
      "type": "function"
    },
    {
      "inputs": [
        {
          "internalType": "address",
          "name": "_userAddr",
          "type": "address"
        }
      ],
      "name": "calcEstimateUserCollateralUSD",
      "outputs": [
        {
          "internalType": "uint256",
          "name": "coll",
          "type": "uint256"
        }
      ],
      "stateMutability": "view",
      "type": "function"
    },
    {
      "inputs": [
        {
          "internalType": "address",
          "name": "_userAddr",
          "type": "address"
        }
      ],
      "name": "calcEstimateUserDebtUSD",
      "outputs": [
        {
          "internalType": "uint256",
          "name": "debtUSD",
          "type": "uint256"
        }
      ],
      "stateMutability": "view",
      "type": "function"
    },
    {
      "inputs": [],
      "name": "claimRewards",
      "outputs": [],
      "stateMutability": "nonpayable",
      "type": "function"
    },
    {
      "inputs": [],
      "name": "collateralLT",
      "outputs": [
        {
          "internalType": "uint256",
          "name": "",
          "type": "uint256"
        }
      ],
      "stateMutability": "view",
      "type": "function"
    },
    {
      "inputs": [],
      "name": "collateralLTV",
      "outputs": [
        {
          "internalType": "uint256",
          "name": "",
          "type": "uint256"
        }
      ],
      "stateMutability": "view",
      "type": "function"
    },
    {
      "inputs": [
        {
          "internalType": "address",
          "name": "",
          "type": "address"
        },
        {
          "internalType": "string",
          "name": "",
          "type": "string"
        }
      ],
      "name": "debts",
      "outputs": [
        {
          "internalType": "uint256",
          "name": "",
          "type": "uint256"
        }
      ],
      "stateMutability": "view",
      "type": "function"
    },
    {
      "inputs": [
        {
          "internalType": "address",
          "name": "_user",
          "type": "address"
        }
      ],
      "name": "estimateHF",
      "outputs": [
        {
          "internalType": "uint256",
          "name": "hf",
          "type": "uint256"
        }
      ],
      "stateMutability": "view",
      "type": "function"
    },
    {
      "inputs": [
        {
          "internalType": "address",
          "name": "_asset",
          "type": "address"
        },
        {
          "internalType": "uint256",
          "name": "_amount",
          "type": "uint256"
        }
      ],
      "name": "fromUSD",
      "outputs": [
        {
          "internalType": "uint256",
          "name": "",
          "type": "uint256"
        }
      ],
      "stateMutability": "view",
      "type": "function"
    },
    {
      "inputs": [
        {
          "internalType": "address",
          "name": "_assetAddr",
          "type": "address"
        }
      ],
      "name": "getAssetParameters",
      "outputs": [
        {
          "internalType": "uint256",
          "name": "liquidationThreshold",
          "type": "uint256"
        },
        {
          "internalType": "uint256",
          "name": "liquidationPenalty",
          "type": "uint256"
        },
        {
          "internalType": "uint256",
          "name": "loanToValue",
          "type": "uint256"
        }
      ],
      "stateMutability": "view",
      "type": "function"
    },
    {
      "inputs": [
        {
          "internalType": "address",
          "name": "_user",
          "type": "address"
        }
      ],
      "name": "getLiquidationParameters",
      "outputs": [
        {
          "internalType": "uint256",
          "name": "hf",
          "type": "uint256"
        },
        {
          "internalType": "uint256",
          "name": "debtUSD",
          "type": "uint256"
        }
      ],
      "stateMutability": "nonpayable",
      "type": "function"
    },
    {
      "inputs": [
        {
          "internalType": "address",
          "name": "_user",
          "type": "address"
        }
      ],
      "name": "getUser",
      "outputs": [
        {
          "components": [
            {
              "internalType": "uint256",
              "name": "id",
              "type": "uint256"
            },
            {
              "internalType": "address",
              "name": "addr",
              "type": "address"
            },
            {
              "internalType": "uint256",
              "name": "collateralAmount",
              "type": "uint256"
            },
            {
              "internalType": "uint256",
              "name": "rewards",
              "type": "uint256"
            },
            {
              "internalType": "string[]",
              "name": "borrowedAssets",
              "type": "string[]"
            },
            {
              "internalType": "uint256",
              "name": "collateralRewardDebt",
              "type": "uint256"
            },
            {
              "internalType": "uint256",
              "name": "sTokensIncomeDebt",
              "type": "uint256"
            }
          ],
          "internalType": "struct Sio2Adapter.User",
          "name": "",
          "type": "tuple"
        }
      ],
      "stateMutability": "view",
      "type": "function"
    },
    {
      "inputs": [],
      "name": "getUsers",
      "outputs": [
        {
          "internalType": "address[]",
          "name": "",
          "type": "address[]"
        }
      ],
      "stateMutability": "view",
      "type": "function"
    },
    {
      "inputs": [],
      "name": "getUsersCount",
      "outputs": [
        {
          "internalType": "uint256",
          "name": "",
          "type": "uint256"
        }
      ],
      "stateMutability": "view",
      "type": "function"
    },
    {
      "inputs": [],
      "name": "incentivesController",
      "outputs": [
        {
          "internalType": "contract ISio2IncentivesController",
          "name": "",
          "type": "address"
        }
      ],
      "stateMutability": "view",
      "type": "function"
    },
    {
      "inputs": [
        {
          "internalType": "contract ISio2LendingPool",
          "name": "_pool",
          "type": "address"
        },
        {
          "internalType": "contract IERC20Upgradeable",
          "name": "_nastr",
          "type": "address"
        },
        {
          "internalType": "contract IERC20Upgradeable",
          "name": "_snastrToken",
          "type": "address"
        },
        {
          "internalType": "contract ISio2IncentivesController",
          "name": "_incentivesController",
          "type": "address"
        },
        {
          "internalType": "contract IERC20Upgradeable",
          "name": "_rewardToken",
          "type": "address"
        },
        {
          "internalType": "contract Sio2AdapterAssetManager",
          "name": "_assetManager",
          "type": "address"
        },
        {
          "internalType": "contract ISio2PriceOracle",
          "name": "_priceOracle",
          "type": "address"
        }
      ],
      "name": "initialize",
      "outputs": [],
      "stateMutability": "nonpayable",
      "type": "function"
    },
    {
      "inputs": [],
      "name": "lastSTokenBalance",
      "outputs": [
        {
          "internalType": "uint256",
          "name": "",
          "type": "uint256"
        }
      ],
      "stateMutability": "view",
      "type": "function"
    },
    {
      "inputs": [],
      "name": "lastUpdatedBlock",
      "outputs": [
        {
          "internalType": "uint256",
          "name": "",
          "type": "uint256"
        }
      ],
      "stateMutability": "view",
      "type": "function"
    },
    {
      "inputs": [
        {
          "internalType": "string",
          "name": "_debtAsset",
          "type": "string"
        },
        {
          "internalType": "address",
          "name": "_user",
          "type": "address"
        },
        {
          "internalType": "uint256",
          "name": "_debtToCover",
          "type": "uint256"
        }
      ],
      "name": "liquidationCall",
      "outputs": [
        {
          "internalType": "uint256",
          "name": "",
          "type": "uint256"
        }
      ],
      "stateMutability": "nonpayable",
      "type": "function"
    },
    {
      "inputs": [],
      "name": "maxAmountToBorrow",
      "outputs": [
        {
          "internalType": "uint256",
          "name": "",
          "type": "uint256"
        }
      ],
      "stateMutability": "view",
      "type": "function"
    },
    {
      "inputs": [],
      "name": "nastr",
      "outputs": [
        {
          "internalType": "contract IERC20Upgradeable",
          "name": "",
          "type": "address"
        }
      ],
      "stateMutability": "view",
      "type": "function"
    },
    {
      "inputs": [],
      "name": "owner",
      "outputs": [
        {
          "internalType": "address",
          "name": "",
          "type": "address"
        }
      ],
      "stateMutability": "view",
      "type": "function"
    },
    {
      "inputs": [],
      "name": "pool",
      "outputs": [
        {
          "internalType": "contract ISio2LendingPool",
          "name": "",
          "type": "address"
        }
      ],
      "stateMutability": "view",
      "type": "function"
    },
    {
      "inputs": [],
      "name": "priceOracle",
      "outputs": [
        {
          "internalType": "contract ISio2PriceOracle",
          "name": "",
          "type": "address"
        }
      ],
      "stateMutability": "view",
      "type": "function"
    },
    {
      "inputs": [],
      "name": "renounceOwnership",
      "outputs": [],
      "stateMutability": "nonpayable",
      "type": "function"
    },
    {
      "inputs": [
        {
          "internalType": "string",
          "name": "_assetName",
          "type": "string"
        }
      ],
      "name": "repayFull",
      "outputs": [],
      "stateMutability": "nonpayable",
      "type": "function"
    },
    {
      "inputs": [
        {
          "internalType": "string",
          "name": "_assetName",
          "type": "string"
        },
        {
          "internalType": "uint256",
          "name": "_amount",
          "type": "uint256"
        }
      ],
      "name": "repayPart",
      "outputs": [],
      "stateMutability": "nonpayable",
      "type": "function"
    },
    {
      "inputs": [],
      "name": "revenuePool",
      "outputs": [
        {
          "internalType": "uint256",
          "name": "",
          "type": "uint256"
        }
      ],
      "stateMutability": "view",
      "type": "function"
    },
    {
      "inputs": [],
      "name": "rewardPool",
      "outputs": [
        {
          "internalType": "uint256",
          "name": "",
          "type": "uint256"
        }
      ],
      "stateMutability": "view",
      "type": "function"
    },
    {
      "inputs": [],
      "name": "rewardToken",
      "outputs": [
        {
          "internalType": "contract IERC20Upgradeable",
          "name": "",
          "type": "address"
        }
      ],
      "stateMutability": "view",
      "type": "function"
    },
    {
      "inputs": [
        {
          "internalType": "uint256",
          "name": "_lt",
          "type": "uint256"
        }
      ],
      "name": "setLT",
      "outputs": [],
      "stateMutability": "nonpayable",
      "type": "function"
    },
    {
      "inputs": [
        {
          "internalType": "uint256",
          "name": "_amount",
          "type": "uint256"
        }
      ],
      "name": "setMaxAmountToBorrow",
      "outputs": [],
      "stateMutability": "nonpayable",
      "type": "function"
    },
    {
      "inputs": [],
      "name": "snastrToken",
      "outputs": [
        {
          "internalType": "contract IERC20Upgradeable",
          "name": "",
          "type": "address"
        }
      ],
      "stateMutability": "view",
      "type": "function"
    },
    {
      "inputs": [
        {
          "internalType": "uint256",
          "name": "_amount",
          "type": "uint256"
        }
      ],
      "name": "supply",
      "outputs": [],
      "stateMutability": "nonpayable",
      "type": "function"
    },
    {
      "inputs": [
        {
          "internalType": "address",
          "name": "_asset",
          "type": "address"
        },
        {
          "internalType": "uint256",
          "name": "_amount",
          "type": "uint256"
        }
      ],
      "name": "toUSD",
      "outputs": [
        {
          "internalType": "uint256",
          "name": "",
          "type": "uint256"
        }
      ],
      "stateMutability": "view",
      "type": "function"
    },
    {
      "inputs": [],
      "name": "totalSupply",
      "outputs": [
        {
          "internalType": "uint256",
          "name": "",
          "type": "uint256"
        }
      ],
      "stateMutability": "view",
      "type": "function"
    },
    {
      "inputs": [
        {
          "internalType": "address",
          "name": "newOwner",
          "type": "address"
        }
      ],
      "name": "transferOwnership",
      "outputs": [],
      "stateMutability": "nonpayable",
      "type": "function"
    },
    {
      "inputs": [
        {
          "internalType": "address",
          "name": "",
          "type": "address"
        },
        {
          "internalType": "string",
          "name": "",
          "type": "string"
        }
      ],
      "name": "userBTokensIncomeDebt",
      "outputs": [
        {
          "internalType": "uint256",
          "name": "",
          "type": "uint256"
        }
      ],
      "stateMutability": "view",
      "type": "function"
    },
    {
      "inputs": [
        {
          "internalType": "address",
          "name": "",
          "type": "address"
        },
        {
          "internalType": "string",
          "name": "",
          "type": "string"
        }
      ],
      "name": "userBorrowedAssetID",
      "outputs": [
        {
          "internalType": "uint256",
          "name": "",
          "type": "uint256"
        }
      ],
      "stateMutability": "view",
      "type": "function"
    },
    {
      "inputs": [
        {
          "internalType": "address",
          "name": "",
          "type": "address"
        },
        {
          "internalType": "string",
          "name": "",
          "type": "string"
        }
      ],
      "name": "userBorrowedRewardDebt",
      "outputs": [
        {
          "internalType": "uint256",
          "name": "",
          "type": "uint256"
        }
      ],
      "stateMutability": "view",
      "type": "function"
    },
    {
      "inputs": [
        {
          "internalType": "address",
          "name": "",
          "type": "address"
        }
      ],
      "name": "userInfo",
      "outputs": [
        {
          "internalType": "uint256",
          "name": "id",
          "type": "uint256"
        },
        {
          "internalType": "address",
          "name": "addr",
          "type": "address"
        },
        {
          "internalType": "uint256",
          "name": "collateralAmount",
          "type": "uint256"
        },
        {
          "internalType": "uint256",
          "name": "rewards",
          "type": "uint256"
        },
        {
          "internalType": "uint256",
          "name": "collateralRewardDebt",
          "type": "uint256"
        },
        {
          "internalType": "uint256",
          "name": "sTokensIncomeDebt",
          "type": "uint256"
        }
      ],
      "stateMutability": "view",
      "type": "function"
    },
    {
      "inputs": [
        {
          "internalType": "uint256",
          "name": "",
          "type": "uint256"
        }
      ],
      "name": "users",
      "outputs": [
        {
          "internalType": "address",
          "name": "",
          "type": "address"
        }
      ],
      "stateMutability": "view",
      "type": "function"
    },
    {
      "inputs": [
        {
          "internalType": "uint256",
          "name": "_amount",
          "type": "uint256"
        }
      ],
      "name": "withdraw",
      "outputs": [],
      "stateMutability": "nonpayable",
      "type": "function"
    },
    {
      "inputs": [
        {
          "internalType": "uint256",
          "name": "_amount",
          "type": "uint256"
        }
      ],
      "name": "withdrawRevenue",
      "outputs": [],
      "stateMutability": "nonpayable",
      "type": "function"
    }
  ],
  "bytecode": {
    "object": "0x608060405234801561001057600080fd5b50615e9d80620000216000396000f3fe608060405234801561001057600080fd5b50600436106102d55760003560e01c80636f77926b11610182578063b0afe8bf116100e9578063e11fffb1116100a2578063f2fde38b1161007c578063f2fde38b1461073f578063f7c618c114610752578063f90ce5ba14610765578063fbc1f9771461076e57600080fd5b8063e11fffb11461071a578063ee66cd761461072d578063f0b6e35d1461073657600080fd5b8063b0afe8bf14610656578063bc06708c14610669578063c6543f4a1461067c578063cd4f4a9c146106b8578063d380f072146106cb578063d6fe3d391461070757600080fd5b80638fe375561161013b5780638fe37556146105ab57806394217ad1146105e75780639467b746146105fa57806394ca44c81461060d578063a4a1e2631461063b578063af1df2551461064357600080fd5b80636f77926b14610543578063715018a6146105635780637f753de61461056b57806387ef186a1461057457806389a4c5af146105875780638da5cb5b1461059a57600080fd5b8063306f155d116102415780634421bd1e116101fa5780634c7abd20116101d45780634c7abd201461050b5780634ee4ced11461051e57806360bc351e1461053157806366666aa91461053a57600080fd5b80634421bd1e146104e7578063495a3b84146104ef5780634a5baa23146104f857600080fd5b8063306f155d1461048a578063354030231461049357806335876476146104a6578063365b98b2146104b9578063372500ab146104cc57806342c99509146104d457600080fd5b806316f0115b1161029357806316f0115b1461039e57806318160ddd146103b15780631959a002146103ba5780632630c12f1461043c578063265844c31461044f5780632e1a7d4d1461047757600080fd5b8062ce8e3e146102da578063016021be146102f85780630b72a427146103195780630ceff204146103445780630d58feff146103595780631378860f14610362575b600080fd5b6102e2610781565b6040516102ef9190615943565b60405180910390f35b61030b6103063660046153a9565b6107e3565b6040519081526020016102ef565b60995461032c906001600160a01b031681565b6040516001600160a01b0390911681526020016102ef565b61035761035236600461574f565b610ab4565b005b61030b60a45481565b61030b6103703660046153c5565b60ac602090815260009283526040909220815180830184018051928152908401929093019190912091525481565b60975461032c906001600160a01b031681565b61030b609e5481565b6104076103c83660046153a9565b60a86020526000908152604090208054600182015460028301546003840154600585015460069095015493946001600160a01b03909316939192909186565b604080519687526001600160a01b039095166020870152938501929092526060840152608083015260a082015260c0016102ef565b609b5461032c906001600160a01b031681565b61046261045d3660046153a9565b610c68565b604080519283526020830191909152016102ef565b61035761048536600461574f565b610d3c565b61030b60a35481565b6103576104a136600461574f565b610d5d565b6103576104b43660046155ab565b611090565b61032c6104c736600461574f565b611247565b610357611271565b60985461032c906001600160a01b031681565b61030b600a81565b61030b60a55481565b610357610506366004615640565b611369565b61035761051936600461574f565b611479565b61035761052c3660046156cb565b611486565b61030b60a05481565b61030b60a15481565b6105566105513660046153a9565b6114d5565b6040516102ef9190615af8565b610357611656565b61030b60a25481565b61030b610582366004615413565b61166a565b61030b6105953660046153a9565b611710565b6033546001600160a01b031661032c565b61030b6105b93660046153c5565b60a9602090815260009283526040909220815180830184018051928152908401929093019190912091525481565b609d5461032c906001600160a01b031681565b61035761060836600461574f565b611b06565b61062061061b3660046153a9565b611ce8565b604080519384526020840192909252908201526060016102ef565b60ad5461030b565b609c5461032c906001600160a01b031681565b6103576106643660046156cb565b611d8b565b61035761067736600461574f565b6122a6565b61030b61068a3660046153c5565b60aa602090815260009283526040909220815180830184018051928152908401929093019190912091525481565b61030b6106c6366004615413565b6122b3565b61030b6106d93660046153c5565b60ab602090815260009283526040909220815180830184018051928152908401929093019190912091525481565b6104626107153660046153a9565b612345565b61030b6107283660046153a9565b6123fc565b61030b60a65481565b61030b60a75481565b61035761074d3660046153a9565b61249b565b609a5461032c906001600160a01b031681565b61030b609f5481565b61030b61077c366004615673565b612511565b606060ad8054806020026020016040519081016040528092919081815260200182805480156107d957602002820191906000526020600020905b81546001600160a01b031681526001909101906020018083116107bb575b5050505050905090565b6001600160a01b03808216600090815260a860209081526040808320815160e08101835281548152600182015490951685840152600281015485830152600381015460608601526004810180548351818602810186019094528084529495869590949293608086019390929190879084015b8282101561090157838290600052602060002001805461087490615dd6565b80601f01602080910402602001604051908101604052809291908181526020018280546108a090615dd6565b80156108ed5780601f106108c2576101008083540402835291602001916108ed565b820191906000526020600020905b8154815290600101906020018083116108d057829003601f168201915b505050505081526020019060010190610855565b505050908252506005820154602082015260069091015460409182015260a7548282015160a05460995493516370a0823160e01b8152306004820152949550919390926001600160a01b0316906370a082319060240160206040518083038186803b15801561096f57600080fd5b505afa158015610983573d6000803e3d6000fd5b505050506040513d601f19601f820116820180604052508101906109a79190615767565b1115610a5f57609e5460a0546099546040516370a0823160e01b815230600482015264e8d4a5100092916001600160a01b0316906370a082319060240160206040518083038186803b1580156109fc57600080fd5b505afa158015610a10573d6000803e3d6000fd5b505050506040513d601f19601f82011682018060405250810190610a349190615767565b610a3e9190615d70565b610a489190615d51565b610a529190615c43565b610a5c9083615c2b565b91505b60c083015164e8d4a51000610a748484615d51565b610a7e9190615c43565b610a889190615d70565b610a929082615c2b565b609854909150610aab906001600160a01b0316826122b3565b95945050505050565b610abc6127fe565b60008111610ae55760405162461bcd60e51b8152600401610adc90615a3f565b60405180910390fd5b609a546040516370a0823160e01b815230600482015282916001600160a01b0316906370a082319060240160206040518083038186803b158015610b2857600080fd5b505afa158015610b3c573d6000803e3d6000fd5b505050506040513d601f19601f82011682018060405250810190610b609190615767565b1015610bae5760405162461bcd60e51b815260206004820152601e60248201527f4e6f7420656e6f7567682053494f3220726576656e756520746f6b656e7300006044820152606401610adc565b60a254811115610c0a5760405162461bcd60e51b815260206004820152602160248201527f4e6f7420656e6f75676820746f6b656e7320696e20726576656e756520706f6f6044820152601b60fa1b6064820152608401610adc565b8060a26000828254610c1c9190615d70565b9091555050609a54610c38906001600160a01b03163383612858565b604051819033907f447d53be88e315476bdbe2e63cef309461f6305d09aada67641c29e6b897e30190600090a350565b60008082610c75816128bb565b610c7e84611710565b915060008211610cc45760405162461bcd60e51b81526020600482015260116024820152705573657220686173206e6f20646562747360781b6044820152606401610adc565b6098546001600160a01b03858116600090815260a860205260408120600201549092610cf19216906122b3565b90508261271060a45483610d059190615d51565b610d1790670de0b6b3a7640000615d51565b610d219190615c43565b610d2b9190615c43565b935050610d366129a2565b50915091565b33610d46816128bb565b610d503383612a66565b50610d596129a2565b5050565b33610d67816128bb565b60026065541415610d8a5760405162461bcd60e51b8152600401610adc90615ac1565b600260655581610dac5760405162461bcd60e51b8152600401610adc90615a3f565b6098546040516370a0823160e01b815233600482015283916001600160a01b0316906370a082319060240160206040518083038186803b158015610def57600080fd5b505afa158015610e03573d6000803e3d6000fd5b505050506040513d601f19601f82011682018060405250810190610e279190615767565b1015610e895760405162461bcd60e51b815260206004820152602b60248201527f4e6f7420656e6f756768206e4153545220746f6b656e73206f6e20746865207560448201526a7365722062616c616e636560a81b6064820152608401610adc565b33600090815260a86020526040902060018101546001600160a01b0316610f035760ad8054825560018083018054336001600160a01b03199182168117909255835492830184556000939093527f0440fd76b4e685d17019b0eef836cea9994650028b99dddfb48be06fa4240aa690910180549092161790555b609854610f1b906001600160a01b0316333086612c98565b60985460975460405163095ea7b360e01b81526001600160a01b0391821660048201526024810186905291169063095ea7b390604401602060405180830381600087803b158015610f6b57600080fd5b505af1158015610f7f573d6000803e3d6000fd5b505050506040513d601f19601f82011682018060405250810190610fa3919061558b565b5060975460985460405163e8eda9df60e01b81526001600160a01b039182166004820152602481018690523060448201526000606482015291169063e8eda9df90608401600060405180830381600087803b15801561100157600080fd5b505af1158015611015573d6000803e3d6000fd5b505050508281600201600082825461102d9190615c2b565b9250508190555082609e60008282546110469190615c2b565b90915550611055905081612cd6565b604051839033907fadacf827efe383160192c092d8658471945c074229a9746679b5e2b74adff19190600090a3506001606555610d596129a2565b600054610100900460ff16158080156110b05750600054600160ff909116105b806110ca5750303b1580156110ca575060005460ff166001145b61112d5760405162461bcd60e51b815260206004820152602e60248201527f496e697469616c697a61626c653a20636f6e747261637420697320616c72656160448201526d191e481a5b9a5d1a585b1a5e995960921b6064820152608401610adc565b6000805460ff191660011790558015611150576000805461ff0019166101001790555b611158612d27565b611160612d56565b609d80546001600160a01b03199081166001600160a01b03868116919091179092556097805482168b84161790556098805482168a84169081179091556099805483168a8516179055609a80548316888516179055609c80548316898516179055609b805490921692851692909217905543609f556111de90611ce8565b60a3555060a4556111ef600f6122a6565b6111f76129a2565b801561123d576000805461ff0019169055604051600181527f7f26b83ff96e1f2b6a682f133852f6798a09c465da95921460cefb38474024989060200160405180910390a15b5050505050505050565b60ad818154811061125757600080fd5b6000918252602090912001546001600160a01b0316905081565b3361127b816128bb565b33600090815260a86020526040902060038101546112db5760405162461bcd60e51b815260206004820152601760248201527f5573657220686173206e6f20616e7920726577617264730000000000000000006044820152606401610adc565b60038101805460009182905560a18054919283926112fa908490615d70565b9091555050609a54611316906001600160a01b03163383612858565b600282015461132757611327612d85565b60405181815233907f1f89f96333d3133000ee447473151fa9606543368f02271c9d95ae14f13bcc679060200160405180910390a250506113666129a2565b50565b33611373816128bb565b600260655414156113965760405162461bcd60e51b8152600401610adc90615ac1565b6002606555609d5460405163eb4c0ae560e01b81526000916001600160a01b03169063eb4c0ae5906113cc908690600401615989565b60006040518083038186803b1580156113e457600080fd5b505afa1580156113f8573d6000803e3d6000fd5b505050506040513d6000823e601f3d908101601f19168201604052611420919081019061577f565b505033600090815260a960205260408082209051989a509098509661144e96508b955093506158b892505050565b908152602001604051809103902054905061146a848233612f83565b50506001606555610d596129a2565b6114816127fe565b60a455565b33611490816128bb565b600260655414156114b35760405162461bcd60e51b8152600401610adc90615ac1565b60026065556114c3838333612f83565b60016065556114d06129a2565b505050565b61151e6040518060e001604052806000815260200160006001600160a01b0316815260200160008152602001600081526020016060815260200160008152602001600081525090565b6001600160a01b03808316600090815260a860209081526040808320815160e08101835281548152600182015490951685840152600281015485830152600381015460608601526004810180548351818602810186019094528084529194608087019491929184015b828210156116335783829060005260206000200180546115a690615dd6565b80601f01602080910402602001604051908101604052809291908181526020018280546115d290615dd6565b801561161f5780601f106115f45761010080835404028352916020019161161f565b820191906000526020600020905b81548152906001019060200180831161160257829003601f168201915b505050505081526020019060010190611587565b505050508152602001600582015481526020016006820154815250509050919050565b61165e6127fe565b611668600061357c565b565b609b5460405163b3596f0760e01b81526001600160a01b038481166004830152600092839291169063b3596f079060240160206040518083038186803b1580156116b357600080fd5b505afa1580156116c7573d6000803e3d6000fd5b505050506040513d601f19601f820116820180604052508101906116eb9190615767565b9050806116fc6305f5e10085615d51565b6117069190615c43565b9150505b92915050565b6001600160a01b03808216600090815260a860209081526040808320815160e08101835281548152600182015490951685840152600281015485830152600381015460608601526004810180548351818602810186019094528084529495869590949293608086019390929190879084015b8282101561182e5783829060005260206000200180546117a190615dd6565b80601f01602080910402602001604051908101604052809291908181526020018280546117cd90615dd6565b801561181a5780601f106117ef5761010080835404028352916020019161181a565b820191906000526020600020905b8154815290600101906020018083116117fd57829003601f168201915b505050505081526020019060010190611782565b50505050815260200160058201548152602001600682015481525050905060005b816080015151811015611aff57600080600080600080609d60009054906101000a90046001600160a01b03166001600160a01b031663eb4c0ae5896080015189815181106118ad57634e487b7160e01b600052603260045260246000fd5b60200260200101516040518263ffffffff1660e01b81526004016118d19190615989565b60006040518083038186803b1580156118e957600080fd5b505afa1580156118fd573d6000803e3d6000fd5b505050506040513d6000823e601f3d908101601f19168201604052611925919081019061577f565b50985050975097505096509650965050600060a960008a602001516001600160a01b03166001600160a01b031681526020019081526020016000208760405161196e91906158b8565b908152604051908190036020018120546370a0823160e01b825230600483015291506000908390879083906001600160a01b038316906370a082319060240160206040518083038186803b1580156119c557600080fd5b505afa1580156119d9573d6000803e3d6000fd5b505050506040513d601f19601f820116820180604052508101906119fd9190615767565b9050611a0989826135ce565b905087811115611a2057611a1d8882615d70565b93505b600087118015611a305750600084115b15611ad35786611a4564e8d4a5100086615d51565b611a4f9190615c43565b611a599084615c2b565b925060ab60008e602001516001600160a01b03166001600160a01b031681526020019081526020016000208b604051611a9291906158b8565b9081526040519081900360200190205464e8d4a51000611ab28588615d51565b611abc9190615c43565b611ac69190615d70565b611ad09086615c2b565b94505b611add8a866122b3565b611ae7908f615c2b565b9d508b6001019b50505050505050505050505061184f565b5050919050565b33611b10816128bb565b6099546040516370a0823160e01b815233600482015283916001600160a01b0316906370a082319060240160206040518083038186803b158015611b5357600080fd5b505afa158015611b67573d6000803e3d6000fd5b505050506040513d601f19601f82011682018060405250810190611b8b9190615767565b1015611be45760405162461bcd60e51b815260206004820152602260248201527f4e6f7420656e6f7567682073546f6b656e73206f6e20757365722062616c616e604482015261636560f01b6064820152608401610adc565b33600090815260a86020526040902060018101546001600160a01b0316611c5e5760ad8054825560018083018054336001600160a01b03199182168117909255835492830184556000939093527f0440fd76b4e685d17019b0eef836cea9994650028b99dddfb48be06fa4240aa690910180549092161790555b609954611c76906001600160a01b0316333086612c98565b82816002016000828254611c8a9190615c2b565b9250508190555082609e6000828254611ca39190615c2b565b90915550611cb2905081612cd6565b604051839033907fff262dedd9c374defba8a50fae9735db53fa696865ce2045ab78166b366ea06c90600090a350610d596129a2565b60975460405163c44b11f760e01b81526001600160a01b038381166004830152600092839283928392169063c44b11f79060240160206040518083038186803b158015611d3457600080fd5b505afa158015611d48573d6000803e3d6000fd5b505050506040513d601f19601f82011682018060405250810190611d6c919061570e565b5161ffff601082901c811697602083901c821697509116945092505050565b33611d95816128bb565b60026065541415611db85760405162461bcd60e51b8152600401610adc90615ac1565b6002606555609d5460405163eb4c0ae560e01b81526000916001600160a01b03169063eb4c0ae590611dee908790600401615989565b60006040518083038186803b158015611e0657600080fd5b505afa158015611e1a573d6000803e3d6000fd5b505050506040513d6000823e601f3d908101601f19168201604052611e42919081019061577f565b50505050505050925050506000611e5833612345565b50905080611e6683866122b3565b1115611eb45760405162461bcd60e51b815260206004820152601f60248201527f4e6f7420656e6f75676820636f6c6c61746572616c20746f20626f72726f77006044820152606401610adc565b6001600160a01b038216611ef95760405162461bcd60e51b815260206004820152600c60248201526b57726f6e672061737365742160a01b6044820152606401610adc565b33600090815260a96020526040908190209051859190611f1a9088906158b8565b90815260200160405180910390206000828254611f379190615c2b565b9091555050609d546040516335aa645360e01b81526001600160a01b03909116906335aa645390611f6e908890889060040161599c565b600060405180830381600087803b158015611f8857600080fd5b505af1158015611f9c573d6000803e3d6000fd5b505033600090815260a86020908152604080832060aa9092528083209051919450919250611fcb9089906158b8565b9081526040519081900360200190205460048301549091501580612067575086604051602001611ffb91906158b8565b6040516020818303038152906040528051906020012082600401828154811061203457634e487b7160e01b600052603260045260246000fd5b9060005260206000200160405160200161204e91906158d4565b6040516020818303038152906040528051906020012014155b1561213a5760a5546004830154106120d85760405162461bcd60e51b815260206004820152602e60248201527f4d617820616d6f756e74206f6620626f72726f7765642061737365747320686160448201526d1cc81899595b881c995858da195960921b6064820152608401610adc565b600482015433600090815260aa60205260409081902090516120fb908a906158b8565b90815260405160209181900382019020919091556004830180546001810182556000918252908290208951612138939190920191908a0190615190565b505b600061214685886136ea565b60975460405163a415bcad60e01b81526001600160a01b03888116600483015260248201849052600260448301526000606483015230608483015292935091169063a415bcad9060a401600060405180830381600087803b1580156121aa57600080fd5b505af11580156121be573d6000803e3d6000fd5b50505060018401546121da91506001600160a01b0316896137f9565b609d546040516331ec641160e01b81526001600160a01b03909116906331ec64119061220a908b90600401615989565b600060405180830381600087803b15801561222457600080fd5b505af1158015612238573d6000803e3d6000fd5b50612251925050506001600160a01b0386163383612858565b868860405161226091906158b8565b6040519081900381209033907ffbb1365a39abe1ef4dafcb6483cbfc3301ffef63804560005d84a3075a5d0c3790600090a450506001606555506114d091506129a29050565b6122ae6127fe565b60a555565b609b5460405163b3596f0760e01b81526001600160a01b038481166004830152600092839291169063b3596f079060240160206040518083038186803b1580156122fc57600080fd5b505afa158015612310573d6000803e3d6000fd5b505050506040513d601f19601f820116820180604052508101906123349190615767565b90506305f5e1006116fc8285615d51565b6001600160a01b038116600090815260a86020526040812060020154819061237257506000928392509050565b600061237d84611710565b9050600061238a856107e3565b9050600061271060a3548361239f9190615d51565b6123a99190615c43565b9050828111156123c0576123bd8382615d70565b94505b60a3546000906123d261271086615d51565b6123dc9190615c43565b9050808311156123f3576123f08184615d70565b94505b50505050915091565b600080612408836107e3565b9050600061241584611710565b90506000811161245b5760405162461bcd60e51b81526020600482015260116024820152705573657220686173206e6f20646562747360781b6044820152606401610adc565b8061271060a4548461246d9190615d51565b61247f90670de0b6b3a7640000615d51565b6124899190615c43565b6124939190615c43565b949350505050565b6124a36127fe565b6001600160a01b0381166125085760405162461bcd60e51b815260206004820152602660248201527f4f776e61626c653a206e6577206f776e657220697320746865207a65726f206160448201526564647265737360d01b6064820152608401610adc565b6113668161357c565b609d5460405163eb4c0ae560e01b815260009182916001600160a01b039091169063eb4c0ae590612546908890600401615989565b60006040518083038186803b15801561255e57600080fd5b505afa158015612572573d6000803e3d6000fd5b505050506040513d6000823e601f3d908101601f1916820160405261259a919081019061577f565b50505050505050925050506000806125b186610c68565b91509150670de0b6b3a7640000821061260c5760405162461bcd60e51b815260206004820181905260248201527f5573657220686173206865616c74687920656e6f75676820706f736974696f6e6044820152606401610adc565b6001600160a01b038616600090815260a960205260408082209051612632908a906158b8565b9081526020016040518091039020549050600061264f85886122b3565b9050818711156126b55760405162461bcd60e51b815260206004820152602b60248201527f5f64656274546f436f766572206578636565647320746865207573657227732060448201526a1919589d08185b5bdd5b9d60aa1b6064820152608401610adc565b6126c0600284615c43565b81111561272d5760405162461bcd60e51b815260206004820152603560248201527f4465627420746f20636f766572206e65656420746f206265206c6f77657220746044820152741a185b880d4c09481bd9881d5cd95c9cc81919589d605a1b6064820152608401610adc565b61273889888a612f83565b600061274386611ce8565b50915050600061271082612757898c6122b3565b6127619190615d51565b61276b9190615c43565b609854909150600090612787906001600160a01b03168361166a565b905060006127958c83612a66565b90508c6040516127a591906158b8565b6040519081900381208c8252906001600160a01b038e169033907fb005459fdb84a243adb972c91b7494e1680d2c7425cf6ab104fdcf12bb12e4e79060200160405180910390a4985050505050505050505b9392505050565b6033546001600160a01b031633146116685760405162461bcd60e51b815260206004820181905260248201527f4f776e61626c653a2063616c6c6572206973206e6f7420746865206f776e65726044820152606401610adc565b6040516001600160a01b0383166024820152604481018290526114d090849063a9059cbb60e01b906064015b60408051601f198184030181529190526020810180516001600160e01b03166001600160e01b0319909316929092179091526139be565b609c54604051630cc7d40f60e11b81523060048201526000916001600160a01b03169063198fa81e9060240160206040518083038186803b1580156128ff57600080fd5b505afa158015612913573d6000803e3d6000fd5b505050506040513d601f19601f820116820180604052508101906129379190615767565b905080156129485761294881613a90565b609f544311156129685761295a614442565b6129638261486b565b43609f555b6040516001600160a01b0383169033907f988052964d2e20387204cd50097a334c05aed0e74c4be03b8a4414575fda8d8890600090a35050565b6099546040516370a0823160e01b81523060048201526000916001600160a01b0316906370a082319060240160206040518083038186803b1580156129e657600080fd5b505afa1580156129fa573d6000803e3d6000fd5b505050506040513d601f19601f82011682018060405250810190612a1e9190615767565b90508060a054146113665760a081905560405181815233907fb1179dab10d9b0411cf1511118345c573d0f2ac8e2b3d37769e7a6bdd13ee08f9060200160405180910390a250565b600060026065541415612a8b5760405162461bcd60e51b8152600401610adc90615ac1565b600260655581612aad5760405162461bcd60e51b8152600401610adc90615a3f565b336001600160a01b0384161415612b34576000612ac984612345565b609854909250612ae391506001600160a01b0316846122b3565b811015612b325760405162461bcd60e51b815260206004820152601a60248201527f4e6f7420656e6f756768206465706f7369746564206e415354520000000000006044820152606401610adc565b505b609754609854604051631a4ca37b60e21b81526001600160a01b0391821660048201526024810185905230604482015260009291909116906369328dec90606401602060405180830381600087803b158015612b8f57600080fd5b505af1158015612ba3573d6000803e3d6000fd5b505050506040513d601f19601f82011682018060405250810190612bc79190615767565b9050612bd16129a2565b6001600160a01b038416600090815260a860205260408120609e805491928492612bfc908490615d70565b9250508190555081816002016000828254612c179190615d70565b90915550612c26905081612cd6565b609854612c3d906001600160a01b03163384612858565b6002810154158015612c5157506003810154155b15612c5e57612c5e612d85565b604051849033907f884edad9ce6fa2440d8a54cc123490eb96d2768479d49ff9c7366125a942436490600090a35060016065559392505050565b6040516001600160a01b0380851660248301528316604482015260648101829052612cd09085906323b872dd60e01b90608401612884565b50505050565b64e8d4a5100060a7548260020154612cee9190615d51565b612cf89190615c43565b600682015560a654600282015464e8d4a5100091612d1591615d51565b612d1f9190615c43565b600590910155565b600054610100900460ff16612d4e5760405162461bcd60e51b8152600401610adc90615a76565b611668614dd3565b600054610100900460ff16612d7d5760405162461bcd60e51b8152600401610adc90615a76565b611668614e03565b60ad54600090612d9790600190615d70565b33600090815260a86020819052604082205460ad805494955090938493919086908110612dd457634e487b7160e01b600052603260045260246000fd5b60009182526020808320909101546001600160a01b0316835282019290925260400181209190915560ad805460a892919084908110612e2357634e487b7160e01b600052603260045260246000fd5b60009182526020808320909101546001600160a01b0316835282019290925260400181208181556001810180546001600160a01b0319169055600281018290556003810182905590612e786004830182615214565b60058201600090556006820160009055505060ad8281548110612eab57634e487b7160e01b600052603260045260246000fd5b60009182526020909120015460ad80546001600160a01b039092169183908110612ee557634e487b7160e01b600052603260045260246000fd5b9060005260206000200160006101000a8154816001600160a01b0302191690836001600160a01b0316021790555060ad805480612f3257634e487b7160e01b600052603160045260246000fd5b600082815260208120820160001990810180546001600160a01b031916905590910190915560405133917f0ad8e54ac59bf2d8a7a1474c1af503b593553cf4fcaaffdef04ab5249f89762b91a25050565b609d5460405163eb4c0ae560e01b81526000916001600160a01b03169063eb4c0ae590612fb4908790600401615989565b60006040518083038186803b158015612fcc57600080fd5b505afa158015612fe0573d6000803e3d6000fd5b505050506040513d6000823e601f3d908101601f19168201604052613008919081019061577f565b50506040516370a0823160e01b815233600482015295985088975060009650506001600160a01b038716946370a0823194506024019250613047915050565b60206040518083038186803b15801561305f57600080fd5b505afa158015613073573d6000803e3d6000fd5b505050506040513d601f19601f820116820180604052508101906130979190615767565b90506130a383826135ce565b6001600160a01b038516600090815260a96020526040808220905192935090916130ce9089906158b8565b908152602001604051809103902054116131355760405162461bcd60e51b815260206004820152602260248201527f546865207573657220686173206e6f206465627420696e207468697320617373604482015261195d60f21b6064820152608401610adc565b848110156131905760405162461bcd60e51b815260206004820152602260248201527f4e6f7420656e6f7567682077616c6c65742062616c616e636520746f20726570604482015261617960f01b6064820152608401610adc565b600085116131eb5760405162461bcd60e51b815260206004820152602260248201527f416d6f756e742073686f756c642062652067726561746572207468616e207a65604482015261726f60f01b6064820152608401610adc565b6001600160a01b038416600090815260a960205260409081902090518691906132159089906158b8565b908152602001604051809103902054101561327c5760405162461bcd60e51b815260206004820152602160248201527f546f6f206c6172676520616d6f756e742c206465627420697320736d616c6c656044820152603960f91b6064820152608401610adc565b600061328884876136ea565b905061329f6001600160a01b038416333084612c98565b6001600160a01b038516600090815260a960205260409081902090518791906132c9908a906158b8565b908152602001604051809103902060008282546132e69190615d70565b9091555050609d546040516328474b6560e11b81526001600160a01b039091169063508e96ca9061331d908a908a9060040161599c565b600060405180830381600087803b15801561333757600080fd5b505af115801561334b573d6000803e3d6000fd5b505050506001600160a01b038516600090815260a960205260409081902090516133769089906158b8565b90815260200160405180910390205460001415613397576133978786614e31565b60975460405163095ea7b360e01b81526001600160a01b039182166004820152602481018390529084169063095ea7b390604401602060405180830381600087803b1580156133e557600080fd5b505af11580156133f9573d6000803e3d6000fd5b505050506040513d601f19601f8201168201806040525081019061341d919061558b565b5060975460405163573ade8160e01b81526001600160a01b03868116600483015260248201849052600260448301523060648301529091169063573ade8190608401602060405180830381600087803b15801561347957600080fd5b505af115801561348d573d6000803e3d6000fd5b505050506040513d601f19601f820116820180604052508101906134b19190615767565b506134bc85886137f9565b609d546040516331ec641160e01b81526001600160a01b03909116906331ec6411906134ec908a90600401615989565b600060405180830381600087803b15801561350657600080fd5b505af115801561351a573d6000803e3d6000fd5b505050508660405161352c91906158b8565b604051908190038120878252906001600160a01b0387169033907f9224848400cfa1576c7e664421f4dd1637bde893ecde23b812b4c78c56a0af7b9060200160405180910390a450505050505050565b603380546001600160a01b038381166001600160a01b0319831681179093556040519116919082907f8be0079c531659141344cd1fd0a4f28419497f9722a3daafe3b4186f6b6457e090600090a35050565b60006012836001600160a01b031663313ce5676040518163ffffffff1660e01b815260040160206040518083038186803b15801561360b57600080fd5b505afa15801561361f573d6000803e3d6000fd5b505050506040513d601f19601f820116820180604052508101906136439190615828565b60ff1610156136e457826001600160a01b031663313ce5676040518163ffffffff1660e01b815260040160206040518083038186803b15801561368557600080fd5b505afa158015613699573d6000803e3d6000fd5b505050506040513d601f19601f820116820180604052508101906136bd9190615828565b6136c8906012615d87565b6136d390600a615ca6565b6136dd9083615d51565b905061170a565b50919050565b60006012836001600160a01b031663313ce5676040518163ffffffff1660e01b815260040160206040518083038186803b15801561372757600080fd5b505afa15801561373b573d6000803e3d6000fd5b505050506040513d601f19601f8201168201806040525081019061375f9190615828565b60ff1610156136e457826001600160a01b031663313ce5676040518163ffffffff1660e01b815260040160206040518083038186803b1580156137a157600080fd5b505afa1580156137b5573d6000803e3d6000fd5b505050506040513d601f19601f820116820180604052508101906137d99190615828565b6137e4906012615d87565b6137ef90600a615ca6565b6136dd9083615c43565b609d5460405163eb4c0ae560e01b815260009182916001600160a01b039091169063eb4c0ae59061382e908690600401615989565b60006040518083038186803b15801561384657600080fd5b505afa15801561385a573d6000803e3d6000fd5b505050506040513d6000823e601f3d908101601f19168201604052613882919081019061577f565b99509950505050505050505064e8d4a510008260a96000876001600160a01b03166001600160a01b03168152602001908152602001600020856040516138c891906158b8565b9081526020016040518091039020546138e19190615d51565b6138eb9190615c43565b6001600160a01b038516600090815260ab60205260409081902090516139129086906158b8565b90815260200160405180910390208190555064e8d4a510008160a96000876001600160a01b03166001600160a01b031681526020019081526020016000208560405161395e91906158b8565b9081526020016040518091039020546139779190615d51565b6139819190615c43565b6001600160a01b038516600090815260ac60205260409081902090516139a89086906158b8565b9081526040519081900360200190205550505050565b6000613a13826040518060400160405280602081526020017f5361666545524332303a206c6f772d6c6576656c2063616c6c206661696c6564815250856001600160a01b031661507c9092919063ffffffff16565b8051909150156114d05780806020019051810190613a31919061558b565b6114d05760405162461bcd60e51b815260206004820152602a60248201527f5361666545524332303a204552433230206f7065726174696f6e20646964206e6044820152691bdd081cdd58d8d9595960b21b6064820152608401610adc565b609d5460408051631034779560e31b815290516000926001600160a01b0316916381a3bca89160048083019286929190829003018186803b158015613ad457600080fd5b505afa158015613ae8573d6000803e3d6000fd5b505050506040513d6000823e601f3d908101601f19168201604052613b10919081019061543e565b90506000609d60009054906101000a90046001600160a01b03166001600160a01b031663ac9cb4706040518163ffffffff1660e01b815260040160006040518083038186803b158015613b6257600080fd5b505afa158015613b76573d6000803e3d6000fd5b505050506040513d6000823e601f3d908101601f19168201604052613b9e91908101906154da565b609c54604051633111e7b360e01b81529192506000916001600160a01b0390911690633111e7b390613bd890869088903090600401615956565b602060405180830381600087803b158015613bf257600080fd5b505af1158015613c06573d6000803e3d6000fd5b505050506040513d601f19601f82011682018060405250810190613c2a9190615767565b90506000613c39600a83615c43565b9050613c458183615d70565b60a16000828254613c569190615c2b565b925050819055508060a26000828254613c6f9190615c2b565b9091555060009050613c818284615d70565b90506000609960009054906101000a90046001600160a01b03166001600160a01b03166318160ddd6040518163ffffffff1660e01b815260040160206040518083038186803b158015613cd357600080fd5b505afa158015613ce7573d6000803e3d6000fd5b505050506040513d601f19601f82011682018060405250810190613d0b9190615767565b6099546040516370a0823160e01b81523060048201526ec097ce7bc90715b34b9f1000000000916005916001600160a01b03909116906370a082319060240160206040518083038186803b158015613d6257600080fd5b505afa158015613d76573d6000803e3d6000fd5b505050506040513d601f19601f82011682018060405250810190613d9a9190615767565b613da49190615d51565b613dae9190615d51565b613db89190615c43565b905060005b8551811015613fdb57609d54865160009182916001600160a01b039091169063eb4c0ae5908a9086908110613e0257634e487b7160e01b600052603260045260246000fd5b60200260200101516040518263ffffffff1660e01b8152600401613e269190615989565b60006040518083038186803b158015613e3e57600080fd5b505afa158015613e52573d6000803e3d6000fd5b505050506040513d6000823e601f3d908101601f19168201604052613e7a919081019061577f565b50506040516370a0823160e01b8152306004820152949950975088965060009550506001600160a01b03861693506370a08231926024019150613eba9050565b60206040518083038186803b158015613ed257600080fd5b505afa158015613ee6573d6000803e3d6000fd5b505050506040513d601f19601f82011682018060405250810190613f0a9190615767565b90506000826001600160a01b03166318160ddd6040518163ffffffff1660e01b815260040160206040518083038186803b158015613f4757600080fd5b505afa158015613f5b573d6000803e3d6000fd5b505050506040513d601f19601f82011682018060405250810190613f7f9190615767565b90508015613fc357806ec097ce7bc90715b34b9f1000000000613fa28487615d51565b613fac9190615d51565b613fb69190615c43565b613fc09088615c2b565b96505b50505050508080613fd390615e0b565b915050613dbd565b5060005b855181101561428c57609d548651600091829182916001600160a01b03169063eb4c0ae5908b908790811061402457634e487b7160e01b600052603260045260246000fd5b60200260200101516040518263ffffffff1660e01b81526004016140489190615989565b60006040518083038186803b15801561406057600080fd5b505afa158015614074573d6000803e3d6000fd5b505050506040513d6000823e601f3d908101601f1916820160405261409c919081019061577f565b50509750975050509550505050600082111561427e5760008390506000816001600160a01b03166318160ddd6040518163ffffffff1660e01b815260040160206040518083038186803b1580156140f257600080fd5b505afa158015614106573d6000803e3d6000fd5b505050506040513d601f19601f8201168201806040525081019061412a9190615767565b6040516370a0823160e01b81523060048201526ec097ce7bc90715b34b9f1000000000906001600160a01b038516906370a082319060240160206040518083038186803b15801561417a57600080fd5b505afa15801561418e573d6000803e3d6000fd5b505050506040513d601f19601f820116820180604052508101906141b29190615767565b6141bc9190615d51565b6141c69190615c43565b9050600087846141d6848c615d51565b6141e09190615d51565b6141ea9190615c43565b609d548d519192506001600160a01b03169063e18cf0b3908e908a90811061422257634e487b7160e01b600052603260045260246000fd5b6020026020010151836040518363ffffffff1660e01b815260040161424892919061599c565b600060405180830381600087803b15801561426257600080fd5b505af1158015614276573d6000803e3d6000fd5b505050505050505b836001019350505050613fdf565b50609954604080516318160ddd60e01b815290516000926001600160a01b0316916318160ddd916004808301926020929190829003018186803b1580156142d257600080fd5b505afa1580156142e6573d6000803e3d6000fd5b505050506040513d601f19601f8201168201806040525081019061430a9190615767565b6099546040516370a0823160e01b81523060048201526ec097ce7bc90715b34b9f1000000000916001600160a01b0316906370a082319060240160206040518083038186803b15801561435c57600080fd5b505afa158015614370573d6000803e3d6000fd5b505050506040513d601f19601f820116820180604052508101906143949190615767565b61439e9190615d51565b6143a89190615c43565b905060008260056143b98487615d51565b6143c39190615d51565b6143cd9190615c43565b609e549091506143e264e8d4a5100083615d51565b6143ec9190615c43565b60a660008282546143fd9190615c2b565b909155505060405189815233907fdaaebb9609cb2f719c59c9d334be287bf4def107ad3dec4a6f90d8abaa94c73c9060200160405180910390a2505050505050505050565b6099546040516370a0823160e01b81523060048201526000916001600160a01b0316906370a082319060240160206040518083038186803b15801561448657600080fd5b505afa15801561449a573d6000803e3d6000fd5b505050506040513d601f19601f820116820180604052508101906144be9190615767565b90506000609d60009054906101000a90046001600160a01b03166001600160a01b031663ac9cb4706040518163ffffffff1660e01b815260040160006040518083038186803b15801561451057600080fd5b505afa158015614524573d6000803e3d6000fd5b505050506040513d6000823e601f3d908101601f1916820160405261454c91908101906154da565b905060a05482111561459a57609e5464e8d4a5100060a0548461456f9190615d70565b6145799190615d51565b6145839190615c43565b60a760008282546145949190615c2b565b90915550505b60005b815181101561483b57609d548251600091829182916001600160a01b03169063eb4c0ae5908790879081106145e257634e487b7160e01b600052603260045260246000fd5b60200260200101516040518263ffffffff1660e01b81526004016146069190615989565b60006040518083038186803b15801561461e57600080fd5b505afa158015614632573d6000803e3d6000fd5b505050506040513d6000823e601f3d908101601f1916820160405261465a919081019061577f565b50505096509650509550505050600081111561482d576040516370a0823160e01b81523060048201526000906001600160a01b038516906370a082319060240160206040518083038186803b1580156146b257600080fd5b505afa1580156146c6573d6000803e3d6000fd5b505050506040513d601f19601f820116820180604052508101906146ea9190615767565b90506146f684826135ce565b905060008382111561482a5761470c8483615d70565b609d5488519192506001600160a01b031690635360d4519089908990811061474457634e487b7160e01b600052603260045260246000fd5b6020026020010151836040518363ffffffff1660e01b815260040161476a92919061599c565b600060405180830381600087803b15801561478457600080fd5b505af1158015614798573d6000803e3d6000fd5b5050609d5489516001600160a01b0390911692506331ec641191508990899081106147d357634e487b7160e01b600052603260045260246000fd5b60200260200101516040518263ffffffff1660e01b81526004016147f79190615989565b600060405180830381600087803b15801561481157600080fd5b505af1158015614825573d6000803e3d6000fd5b505050505b50505b83600101935050505061459d565b5060405133907f93c2cc09bcbf438c51ec7525786ac45b81e1b915aff401abdbb6aa0a85e7841e90600090a25050565b6001600160a01b038116600090815260a860205260408120905b6004820154811015614c97576000806000609d60009054906101000a90046001600160a01b03166001600160a01b031663eb4c0ae58660040186815481106148dd57634e487b7160e01b600052603260045260246000fd5b906000526020600020016040518263ffffffff1660e01b815260040161490391906159be565b60006040518083038186803b15801561491b57600080fd5b505afa15801561492f573d6000803e3d6000fd5b505050506040513d6000823e601f3d908101601f19168201604052614957919081019061577f565b99509950505050505050935050600060ab6000886001600160a01b03166001600160a01b031681526020019081526020016000208460405161499991906158b8565b90815260200160405180910390205464e8d4a510008460a960008b6001600160a01b03166001600160a01b03168152602001908152602001600020876040516149e291906158b8565b9081526020016040518091039020546149fb9190615d51565b614a059190615c43565b614a0f9190615d70565b6001600160a01b038816600090815260a960205260409081902090519192508291614a3b9087906158b8565b90815260200160405180910390206000828254614a589190615c2b565b90915550506001600160a01b038716600090815260a9602052604090819020905164e8d4a51000918591614a8d9088906158b8565b908152602001604051809103902054614aa69190615d51565b614ab09190615c43565b6001600160a01b038816600090815260ab6020526040908190209051614ad79087906158b8565b9081526040805160209281900383018120939093556001600160a01b038a16600090815260ac909252902090614b0e9086906158b8565b90815260200160405180910390205464e8d4a510008360a960008b6001600160a01b03166001600160a01b0316815260200190815260200160002087604051614b5791906158b8565b908152602001604051809103902054614b709190615d51565b614b7a9190615c43565b614b849190615d70565b866003016000828254614b979190615c2b565b90915550506001600160a01b038716600090815260a9602052604090819020905164e8d4a51000918491614bcc9088906158b8565b908152602001604051809103902054614be59190615d51565b614bef9190615c43565b6001600160a01b038816600090815260ac6020526040908190209051614c169087906158b8565b90815260405190819003602001812091909155609d546335aa645360e01b82526001600160a01b0316906335aa645390614c56908790859060040161599c565b600060405180830381600087803b158015614c7057600080fd5b505af1158015614c84573d6000803e3d6000fd5b5050505084600101945050505050614885565b50806005015464e8d4a5100060a6548360020154614cb59190615d51565b614cbf9190615c43565b614cc99190615d70565b816003016000828254614cdc9190615c2b565b909155505060a654600282015464e8d4a5100091614cf991615d51565b614d039190615c43565b81600501819055506000816006015464e8d4a5100060a7548460020154614d2a9190615d51565b614d349190615c43565b614d3e9190615d70565b905080826002016000828254614d549190615c2b565b909155505060a754600283015464e8d4a5100091614d7191615d51565b614d7b9190615c43565b826006018190555080609e6000828254614d959190615c2b565b90915550506040516001600160a01b038416907f1193db31546f47ab08e167f5c0ed9e218691a488250659a1925618b92c9365de90600090a2505050565b600054610100900460ff16614dfa5760405162461bcd60e51b8152600401610adc90615a76565b6116683361357c565b600054610100900460ff16614e2a5760405162461bcd60e51b8152600401610adc90615a76565b6001606555565b6001600160a01b038116600090815260a86020908152604080832060aa909252808320905160049092019291614e689086906158b8565b9081526020016040518091039020549050600060018380549050614e8c9190615d70565b90506000838281548110614eb057634e487b7160e01b600052603260045260246000fd5b906000526020600020018054614ec590615dd6565b80601f0160208091040260200160405190810160405280929190818152602001828054614ef190615dd6565b8015614f3e5780601f10614f1357610100808354040283529160200191614f3e565b820191906000526020600020905b815481529060010190602001808311614f2157829003601f168201915b505050505090508260aa6000876001600160a01b03166001600160a01b0316815260200190815260200160002082604051614f7991906158b8565b908152602001604051809103902081905550838281548110614fab57634e487b7160e01b600052603260045260246000fd5b90600052602060002001848481548110614fd557634e487b7160e01b600052603260045260246000fd5b90600052602060002001908054614feb90615dd6565b614ff6929190615232565b508380548061501557634e487b7160e01b600052603160045260246000fd5b60019003818190600052602060002001600061503191906152ad565b9055846001600160a01b03167f999b3d8b83cddc0325df07aa8d17d19079ef66d0e897f868e76b7ddd0ba9b9078760405161506c9190615989565b60405180910390a2505050505050565b60606124938484600085856001600160a01b0385163b6150de5760405162461bcd60e51b815260206004820152601d60248201527f416464726573733a2063616c6c20746f206e6f6e2d636f6e74726163740000006044820152606401610adc565b600080866001600160a01b031685876040516150fa91906158b8565b60006040518083038185875af1925050503d8060008114615137576040519150601f19603f3d011682016040523d82523d6000602084013e61513c565b606091505b509150915061514c828286615157565b979650505050505050565b606083156151665750816127f7565b8251156151765782518084602001fd5b8160405162461bcd60e51b8152600401610adc9190615989565b82805461519c90615dd6565b90600052602060002090601f0160209004810192826151be5760008555615204565b82601f106151d757805160ff1916838001178555615204565b82800160010185558215615204579182015b828111156152045782518255916020019190600101906151e9565b506152109291506152e3565b5090565b508054600082559060005260206000209081019061136691906152f8565b82805461523e90615dd6565b90600052602060002090601f0160209004810192826152605760008555615204565b82601f106152715780548555615204565b8280016001018555821561520457600052602060002091601f016020900482015b82811115615204578254825591600101919060010190615292565b5080546152b990615dd6565b6000825580601f106152c9575050565b601f01602090049060005260206000209081019061136691905b5b8082111561521057600081556001016152e4565b8082111561521057600061530c82826152ad565b506001016152f8565b600082601f830112615325578081fd5b813561533861533382615c03565b615bae565b81815284602083860101111561534c578283fd5b816020850160208301379081016020019190915292915050565b600082601f830112615376578081fd5b815161538461533382615c03565b818152846020838601011115615398578283fd5b612493826020830160208701615daa565b6000602082840312156153ba578081fd5b81356127f781615e52565b600080604083850312156153d7578081fd5b82356153e281615e52565b9150602083013567ffffffffffffffff8111156153fd578182fd5b61540985828601615315565b9150509250929050565b60008060408385031215615425578182fd5b823561543081615e52565b946020939093013593505050565b60006020808385031215615450578182fd5b825167ffffffffffffffff811115615466578283fd5b8301601f81018513615476578283fd5b805161548461533382615bdf565b80828252848201915084840188868560051b87010111156154a3578687fd5b8694505b838510156154ce5780516154ba81615e52565b8352600194909401939185019185016154a7565b50979650505050505050565b600060208083850312156154ec578182fd5b825167ffffffffffffffff80821115615503578384fd5b818501915085601f830112615516578384fd5b815161552461533382615bdf565b80828252858201915085850189878560051b8801011115615543578788fd5b875b8481101561557c5781518681111561555b57898afd5b6155698c8a838b0101615366565b8552509287019290870190600101615545565b50909998505050505050505050565b60006020828403121561559c578081fd5b815180151581146127f7578182fd5b600080600080600080600060e0888a0312156155c5578283fd5b87356155d081615e52565b965060208801356155e081615e52565b955060408801356155f081615e52565b9450606088013561560081615e52565b9350608088013561561081615e52565b925060a088013561562081615e52565b915060c088013561563081615e52565b8091505092959891949750929550565b600060208284031215615651578081fd5b813567ffffffffffffffff811115615667578182fd5b61170684828501615315565b600080600060608486031215615687578081fd5b833567ffffffffffffffff81111561569d578182fd5b6156a986828701615315565b93505060208401356156ba81615e52565b929592945050506040919091013590565b600080604083850312156156dd578182fd5b823567ffffffffffffffff8111156156f3578283fd5b6156ff85828601615315565b95602094909401359450505050565b60006020828403121561571f578081fd5b6040516020810181811067ffffffffffffffff8211171561574257615742615e3c565b6040529151825250919050565b600060208284031215615760578081fd5b5035919050565b600060208284031215615778578081fd5b5051919050565b6000806000806000806000806000806101408b8d03121561579e578384fd5b8a51995060208b015167ffffffffffffffff8111156157bb578485fd5b6157c78d828e01615366565b99505060408b01516157d881615e52565b60608c01519098506157e981615e52565b8097505060808b0151955060a08b0151945060c08b0151935060e08b015192506101008b015191506101208b015190509295989b9194979a5092959850565b600060208284031215615839578081fd5b815160ff811681146127f7578182fd5b6000815180845260208085019450808401835b838110156158815781516001600160a01b03168752958201959082019060010161585c565b509495945050505050565b600081518084526158a4816020860160208601615daa565b601f01601f19169290920160200192915050565b600082516158ca818460208701615daa565b9190910192915050565b60008083546158e281615dd6565b600182811680156158fa576001811461590b57615937565b60ff19841687528287019450615937565b8786526020808720875b8581101561592e5781548a820152908401908201615915565b50505082870194505b50929695505050505050565b6020815260006127f76020830184615849565b6060815260006159696060830186615849565b6020830194909452506001600160a01b0391909116604090910152919050565b6020815260006127f7602083018461588c565b6040815260006159af604083018561588c565b90508260208301529392505050565b600060208083528184546159d181615dd6565b808487015260406001808416600081146159f25760018114615a0657615a31565b60ff19851689840152606089019550615a31565b898852868820885b85811015615a295781548b8201860152908301908801615a0e565b8a0184019650505b509398975050505050505050565b6020808252601b908201527f53686f756c642062652067726561746572207468616e207a65726f0000000000604082015260600190565b6020808252602b908201527f496e697469616c697a61626c653a20636f6e7472616374206973206e6f74206960408201526a6e697469616c697a696e6760a81b606082015260800190565b6020808252601f908201527f5265656e7472616e637947756172643a207265656e7472616e742063616c6c00604082015260600190565b60006020808352610100830184518285015260018060a01b03828601511660408501526040850151606085015260608501516080850152608085015160e060a086015281815180845261012093508387019150838160051b88010193508483019250855b81811015615b8b5761011f19888603018352615b7985855161588c565b94509285019291850191600101615b5c565b5050505060a085015160c085015260c085015160e0850152809250505092915050565b604051601f8201601f1916810167ffffffffffffffff81118282101715615bd757615bd7615e3c565b604052919050565b600067ffffffffffffffff821115615bf957615bf9615e3c565b5060051b60200190565b600067ffffffffffffffff821115615c1d57615c1d615e3c565b50601f01601f191660200190565b60008219821115615c3e57615c3e615e26565b500190565b600082615c5e57634e487b7160e01b81526012600452602481fd5b500490565b600181815b80851115615c9e578160001904821115615c8457615c84615e26565b80851615615c9157918102915b93841c9390800290615c68565b509250929050565b60006127f760ff841683600082615cbf5750600161170a565b81615ccc5750600061170a565b8160018114615ce25760028114615cec57615d08565b600191505061170a565b60ff841115615cfd57615cfd615e26565b50506001821b61170a565b5060208310610133831016604e8410600b8410161715615d2b575081810a61170a565b615d358383615c63565b8060001904821115615d4957615d49615e26565b029392505050565b6000816000190483118215151615615d6b57615d6b615e26565b500290565b600082821015615d8257615d82615e26565b500390565b600060ff821660ff841680821015615da157615da1615e26565b90039392505050565b60005b83811015615dc5578181015183820152602001615dad565b83811115612cd05750506000910152565b600181811c90821680615dea57607f821691505b602082108114156136e457634e487b7160e01b600052602260045260246000fd5b6000600019821415615e1f57615e1f615e26565b5060010190565b634e487b7160e01b600052601160045260246000fd5b634e487b7160e01b600052604160045260246000fd5b6001600160a01b038116811461136657600080fdfea264697066735822122066abc0065cc27d392f9e18ba7818840fd8b3e74f6ca76a5c8906a03da19ef2fe64736f6c63430008040033",
    "linkReferences": {}
  },
  "methodIdentifiers": {
    "REVENUE_FEE()": "4421bd1e",
    "accCollateralRewardsPerShare()": "ee66cd76",
    "accSTokensPerShare()": "f0b6e35d",
    "addSTokens(uint256)": "9467b746",
    "assetManager()": "94217ad1",
    "availableCollateralUSD(address)": "d6fe3d39",
    "borrow(string,uint256)": "b0afe8bf",
    "calcEstimateUserCollateralUSD(address)": "016021be",
    "calcEstimateUserDebtUSD(address)": "89a4c5af",
    "claimRewards()": "372500ab",
    "collateralLT()": "0d58feff",
    "collateralLTV()": "306f155d",
    "debts(address,string)": "8fe37556",
    "estimateHF(address)": "e11fffb1",
    "fromUSD(address,uint256)": "87ef186a",
    "getAssetParameters(address)": "94ca44c8",
    "getLiquidationParameters(address)": "265844c3",
    "getUser(address)": "6f77926b",
    "getUsers()": "00ce8e3e",
    "getUsersCount()": "a4a1e263",
    "incentivesController()": "af1df255",
    "initialize(address,address,address,address,address,address,address)": "35876476",
    "lastSTokenBalance()": "60bc351e",
    "lastUpdatedBlock()": "f90ce5ba",
    "liquidationCall(string,address,uint256)": "fbc1f977",
    "maxAmountToBorrow()": "495a3b84",
    "nastr()": "42c99509",
    "owner()": "8da5cb5b",
    "pool()": "16f0115b",
    "priceOracle()": "2630c12f",
    "renounceOwnership()": "715018a6",
    "repayFull(string)": "4a5baa23",
    "repayPart(string,uint256)": "4ee4ced1",
    "revenuePool()": "7f753de6",
    "rewardPool()": "66666aa9",
    "rewardToken()": "f7c618c1",
    "setLT(uint256)": "4c7abd20",
    "setMaxAmountToBorrow(uint256)": "bc06708c",
    "snastrToken()": "0b72a427",
    "supply(uint256)": "35403023",
    "toUSD(address,uint256)": "cd4f4a9c",
    "totalSupply()": "18160ddd",
    "transferOwnership(address)": "f2fde38b",
    "userBTokensIncomeDebt(address,string)": "d380f072",
    "userBorrowedAssetID(address,string)": "c6543f4a",
    "userBorrowedRewardDebt(address,string)": "1378860f",
    "userInfo(address)": "1959a002",
    "users(uint256)": "365b98b2",
    "withdraw(uint256)": "2e1a7d4d",
    "withdrawRevenue(uint256)": "0ceff204"
  },
  "id": 5
}