{
  "abi": [
    {
      "anonymous": false,
      "inputs": [
        {
          "indexed": true,
          "internalType": "uint256",
          "name": "amount",
          "type": "uint256"
        },
        {
          "indexed": true,
          "internalType": "uint256",
          "name": "era",
          "type": "uint256"
        },
        {
          "indexed": true,
          "internalType": "bytes",
          "name": "reason",
          "type": "bytes"
        }
      ],
      "name": "ClaimDappError",
      "type": "event"
    },
    {
      "anonymous": false,
      "inputs": [
        {
          "indexed": false,
          "internalType": "uint256",
          "name": "eraStakerReward",
          "type": "uint256"
        },
        {
          "indexed": true,
          "internalType": "uint256",
          "name": "_era",
          "type": "uint256"
        }
      ],
      "name": "ClaimDappSuccess",
      "type": "event"
    },
    {
      "anonymous": false,
      "inputs": [
        {
          "indexed": true,
          "internalType": "string",
          "name": "utility",
          "type": "string"
        },
        {
          "indexed": true,
          "internalType": "uint256",
          "name": "era",
          "type": "uint256"
        },
        {
          "indexed": true,
          "internalType": "bytes",
          "name": "reason",
          "type": "bytes"
        }
      ],
      "name": "ClaimStakerError",
      "type": "event"
    },
    {
      "anonymous": false,
      "inputs": [
        {
          "indexed": true,
          "internalType": "uint256",
          "name": "era",
          "type": "uint256"
        },
        {
          "indexed": false,
          "internalType": "uint256",
          "name": "lastClaimed",
          "type": "uint256"
        }
      ],
      "name": "ClaimStakerSuccess",
      "type": "event"
    },
    {
      "anonymous": false,
      "inputs": [
        {
          "indexed": true,
          "internalType": "address",
          "name": "user",
          "type": "address"
        },
        {
          "indexed": false,
          "internalType": "uint256",
          "name": "amount",
          "type": "uint256"
        }
      ],
      "name": "Claimed",
      "type": "event"
    },
    {
      "anonymous": false,
      "inputs": [
        {
          "indexed": true,
          "internalType": "address",
          "name": "user",
          "type": "address"
        },
        {
          "indexed": true,
          "internalType": "string",
          "name": "utility",
          "type": "string"
        },
        {
          "indexed": false,
          "internalType": "uint256",
          "name": "amount",
          "type": "uint256"
        }
      ],
      "name": "ClaimedFromUtility",
      "type": "event"
    },
    {
      "anonymous": false,
      "inputs": [
        {
          "indexed": true,
          "internalType": "address",
          "name": "sender",
          "type": "address"
        },
        {
          "indexed": false,
          "internalType": "uint256",
          "name": "value",
          "type": "uint256"
        }
      ],
      "name": "FillRewardPool",
      "type": "event"
    },
    {
      "anonymous": false,
      "inputs": [
        {
          "indexed": true,
          "internalType": "address",
          "name": "sender",
          "type": "address"
        },
        {
          "indexed": false,
          "internalType": "uint256",
          "name": "value",
          "type": "uint256"
        }
      ],
      "name": "FillUnbonded",
      "type": "event"
    },
    {
      "anonymous": false,
      "inputs": [
        {
          "indexed": true,
          "internalType": "address",
          "name": "sender",
          "type": "address"
        },
        {
          "indexed": false,
          "internalType": "uint256",
          "name": "value",
          "type": "uint256"
        }
      ],
      "name": "FillUnstaking",
      "type": "event"
    },
    {
      "anonymous": false,
      "inputs": [
        {
          "indexed": true,
          "internalType": "address",
          "name": "user",
          "type": "address"
        },
        {
          "indexed": true,
          "internalType": "string",
          "name": "utility",
          "type": "string"
        },
        {
          "indexed": false,
          "internalType": "uint256",
          "name": "amount",
          "type": "uint256"
        }
      ],
      "name": "HarvestRewards",
      "type": "event"
    },
    {
      "anonymous": false,
      "inputs": [
        {
          "indexed": false,
          "internalType": "uint8",
          "name": "version",
          "type": "uint8"
        }
      ],
      "name": "Initialized",
      "type": "event"
    },
    {
      "anonymous": false,
      "inputs": [
        {
          "indexed": true,
          "internalType": "bytes32",
          "name": "role",
          "type": "bytes32"
        },
        {
          "indexed": true,
          "internalType": "bytes32",
          "name": "previousAdminRole",
          "type": "bytes32"
        },
        {
          "indexed": true,
          "internalType": "bytes32",
          "name": "newAdminRole",
          "type": "bytes32"
        }
      ],
      "name": "RoleAdminChanged",
      "type": "event"
    },
    {
      "anonymous": false,
      "inputs": [
        {
          "indexed": true,
          "internalType": "bytes32",
          "name": "role",
          "type": "bytes32"
        },
        {
          "indexed": true,
          "internalType": "address",
          "name": "account",
          "type": "address"
        },
        {
          "indexed": true,
          "internalType": "address",
          "name": "sender",
          "type": "address"
        }
      ],
      "name": "RoleGranted",
      "type": "event"
    },
    {
      "anonymous": false,
      "inputs": [
        {
          "indexed": true,
          "internalType": "bytes32",
          "name": "role",
          "type": "bytes32"
        },
        {
          "indexed": true,
          "internalType": "address",
          "name": "account",
          "type": "address"
        },
        {
          "indexed": true,
          "internalType": "address",
          "name": "sender",
          "type": "address"
        }
      ],
      "name": "RoleRevoked",
      "type": "event"
    },
    {
      "anonymous": false,
      "inputs": [
        {
          "indexed": true,
          "internalType": "address",
          "name": "sender",
          "type": "address"
        },
        {
          "indexed": false,
          "internalType": "uint256",
          "name": "amount",
          "type": "uint256"
        }
      ],
      "name": "SetMinStakeAmount",
      "type": "event"
    },
    {
      "anonymous": false,
      "inputs": [
        {
          "indexed": true,
          "internalType": "address",
          "name": "user",
          "type": "address"
        },
        {
          "indexed": false,
          "internalType": "uint256",
          "name": "val",
          "type": "uint256"
        }
      ],
      "name": "Staked",
      "type": "event"
    },
    {
      "anonymous": false,
      "inputs": [
        {
          "indexed": true,
          "internalType": "address",
          "name": "user",
          "type": "address"
        },
        {
          "indexed": true,
          "internalType": "string",
          "name": "utility",
          "type": "string"
        },
        {
          "indexed": false,
          "internalType": "uint256",
          "name": "val",
          "type": "uint256"
        }
      ],
      "name": "StakedInUtility",
      "type": "event"
    },
    {
      "anonymous": false,
      "inputs": [
        {
          "indexed": true,
          "internalType": "address",
          "name": "sender",
          "type": "address"
        },
        {
          "indexed": true,
          "internalType": "uint256",
          "name": "era",
          "type": "uint256"
        }
      ],
      "name": "Synchronization",
      "type": "event"
    },
    {
      "anonymous": false,
      "inputs": [
        {
          "indexed": true,
          "internalType": "string",
          "name": "utility",
          "type": "string"
        },
        {
          "indexed": false,
          "internalType": "uint256",
          "name": "sum2unstake",
          "type": "uint256"
        },
        {
          "indexed": true,
          "internalType": "uint256",
          "name": "era",
          "type": "uint256"
        },
        {
          "indexed": true,
          "internalType": "bytes",
          "name": "reason",
          "type": "bytes"
        }
      ],
      "name": "UnbondAndUnstakeError",
      "type": "event"
    },
    {
      "anonymous": false,
      "inputs": [
        {
          "indexed": true,
          "internalType": "uint256",
          "name": "era",
          "type": "uint256"
        },
        {
          "indexed": false,
          "internalType": "uint256",
          "name": "sum2unstake",
          "type": "uint256"
        }
      ],
      "name": "UnbondAndUnstakeSuccess",
      "type": "event"
    },
    {
      "anonymous": false,
      "inputs": [
        {
          "indexed": true,
          "internalType": "address",
          "name": "user",
          "type": "address"
        },
        {
          "indexed": false,
          "internalType": "uint256",
          "name": "amount",
          "type": "uint256"
        },
        {
          "indexed": false,
          "internalType": "bool",
          "name": "immediate",
          "type": "bool"
        }
      ],
      "name": "Unstaked",
      "type": "event"
    },
    {
      "anonymous": false,
      "inputs": [
        {
          "indexed": true,
          "internalType": "address",
          "name": "user",
          "type": "address"
        },
        {
          "indexed": true,
          "internalType": "string",
          "name": "utility",
          "type": "string"
        },
        {
          "indexed": false,
          "internalType": "uint256",
          "name": "amount",
          "type": "uint256"
        },
        {
          "indexed": false,
          "internalType": "bool",
          "name": "immediate",
          "type": "bool"
        }
      ],
      "name": "UnstakedFromUtility",
      "type": "event"
    },
    {
      "anonymous": false,
      "inputs": [
        {
          "indexed": false,
          "internalType": "uint256",
          "name": "amount",
          "type": "uint256"
        }
      ],
      "name": "WithdrawRevenue",
      "type": "event"
    },
    {
      "anonymous": false,
      "inputs": [
        {
          "indexed": true,
          "internalType": "uint256",
          "name": "_era",
          "type": "uint256"
        },
        {
          "indexed": true,
          "internalType": "bytes",
          "name": "reason",
          "type": "bytes"
        }
      ],
      "name": "WithdrawUnbondedError",
      "type": "event"
    },
    {
      "anonymous": false,
      "inputs": [
        {
          "indexed": true,
          "internalType": "uint256",
          "name": "_era",
          "type": "uint256"
        }
      ],
      "name": "WithdrawUnbondedSuccess",
      "type": "event"
    },
    {
      "anonymous": false,
      "inputs": [
        {
          "indexed": true,
          "internalType": "address",
          "name": "user",
          "type": "address"
        },
        {
          "indexed": false,
          "internalType": "uint256",
          "name": "val",
          "type": "uint256"
        }
      ],
      "name": "Withdrawn",
      "type": "event"
    },
    {
      "inputs": [],
      "name": "DAPPS_STAKING",
      "outputs": [
        {
          "internalType": "contract DappsStaking",
          "name": "",
          "type": "address"
        }
      ],
      "stateMutability": "view",
      "type": "function"
    },
    {
      "inputs": [],
      "name": "DEFAULT_ADMIN_ROLE",
      "outputs": [
        {
          "internalType": "bytes32",
          "name": "",
          "type": "bytes32"
        }
      ],
      "stateMutability": "view",
      "type": "function"
    },
    {
      "inputs": [],
      "name": "DNTname",
      "outputs": [
        {
          "internalType": "string",
          "name": "",
          "type": "string"
        }
      ],
      "stateMutability": "view",
      "type": "function"
    },
    {
      "inputs": [],
      "name": "MANAGEMENT_FEE",
      "outputs": [
        {
          "internalType": "uint8",
          "name": "",
          "type": "uint8"
        }
      ],
      "stateMutability": "view",
      "type": "function"
    },
    {
      "inputs": [],
      "name": "MANAGER",
      "outputs": [
        {
          "internalType": "bytes32",
          "name": "",
          "type": "bytes32"
        }
      ],
      "stateMutability": "view",
      "type": "function"
    },
    {
      "inputs": [],
      "name": "REVENUE_FEE",
      "outputs": [
        {
          "internalType": "uint8",
          "name": "",
          "type": "uint8"
        }
      ],
      "stateMutability": "view",
      "type": "function"
    },
    {
      "inputs": [],
      "name": "REWARDS_PRECISION",
      "outputs": [
        {
          "internalType": "uint256",
          "name": "",
          "type": "uint256"
        }
      ],
      "stateMutability": "view",
      "type": "function"
    },
    {
      "inputs": [],
      "name": "UNSTAKING_FEE",
      "outputs": [
        {
          "internalType": "uint8",
          "name": "",
          "type": "uint8"
        }
      ],
      "stateMutability": "view",
      "type": "function"
    },
    {
      "inputs": [
        {
          "internalType": "uint256",
          "name": "",
          "type": "uint256"
        }
      ],
      "name": "accumulatedRewardsPerShare",
      "outputs": [
        {
          "internalType": "uint256",
          "name": "",
          "type": "uint256"
        }
      ],
      "stateMutability": "view",
      "type": "function"
    },
    {
      "inputs": [],
      "name": "adaptersDistr",
      "outputs": [
        {
          "internalType": "contract IAdaptersDistributor",
          "name": "",
          "type": "address"
        }
      ],
      "stateMutability": "view",
      "type": "function"
    },
    {
      "inputs": [
        {
          "internalType": "address",
          "name": "_partner",
          "type": "address"
        }
      ],
      "name": "addPartner",
      "outputs": [],
      "stateMutability": "nonpayable",
      "type": "function"
    },
    {
      "inputs": [
        {
          "internalType": "address",
          "name": "_addr",
          "type": "address"
        },
        {
          "internalType": "string",
          "name": "_utility",
          "type": "string"
        }
      ],
      "name": "addStaker",
      "outputs": [],
      "stateMutability": "nonpayable",
      "type": "function"
    },
    {
      "inputs": [
        {
          "internalType": "address[]",
          "name": "_stakers",
          "type": "address[]"
        }
      ],
      "name": "addStakers",
      "outputs": [],
      "stateMutability": "nonpayable",
      "type": "function"
    },
    {
      "inputs": [
        {
          "internalType": "address",
          "name": "",
          "type": "address"
        },
        {
          "internalType": "uint256",
          "name": "",
          "type": "uint256"
        }
      ],
      "name": "buffer",
      "outputs": [
        {
          "internalType": "uint256",
          "name": "",
          "type": "uint256"
        }
      ],
      "stateMutability": "view",
      "type": "function"
    },
    {
      "inputs": [
        {
          "internalType": "string[]",
          "name": "_utilities",
          "type": "string[]"
        },
        {
          "internalType": "uint256[]",
          "name": "_amounts",
          "type": "uint256[]"
        }
      ],
      "name": "claim",
      "outputs": [],
      "stateMutability": "nonpayable",
      "type": "function"
    },
    {
      "inputs": [],
      "name": "claimAll",
      "outputs": [],
      "stateMutability": "nonpayable",
      "type": "function"
    },
    {
      "inputs": [],
      "name": "claimingTxLimit",
      "outputs": [
        {
          "internalType": "uint256",
          "name": "",
          "type": "uint256"
        }
      ],
      "stateMutability": "view",
      "type": "function"
    },
    {
      "inputs": [],
      "name": "currentEra",
      "outputs": [
        {
          "internalType": "uint256",
          "name": "",
          "type": "uint256"
        }
      ],
      "stateMutability": "view",
      "type": "function"
    },
    {
      "inputs": [
        {
          "internalType": "string",
          "name": "",
          "type": "string"
        }
      ],
      "name": "dapps",
      "outputs": [
        {
          "internalType": "address",
          "name": "dappAddress",
          "type": "address"
        },
        {
          "internalType": "uint256",
          "name": "stakedBalance",
          "type": "uint256"
        },
        {
          "internalType": "uint256",
          "name": "sum2unstake",
          "type": "uint256"
        }
      ],
      "stateMutability": "view",
      "type": "function"
    },
    {
      "inputs": [
        {
          "internalType": "uint256",
          "name": "",
          "type": "uint256"
        }
      ],
      "name": "dappsList",
      "outputs": [
        {
          "internalType": "string",
          "name": "",
          "type": "string"
        }
      ],
      "stateMutability": "view",
      "type": "function"
    },
    {
      "inputs": [
        {
          "internalType": "string",
          "name": "",
          "type": "string"
        }
      ],
      "name": "deactivationEra",
      "outputs": [
        {
          "internalType": "uint256",
          "name": "",
          "type": "uint256"
        }
      ],
      "stateMutability": "view",
      "type": "function"
    },
    {
      "inputs": [],
      "name": "distr",
      "outputs": [
        {
          "internalType": "contract NDistributor",
          "name": "",
          "type": "address"
        }
      ],
      "stateMutability": "view",
      "type": "function"
    },
    {
      "inputs": [],
      "name": "dntToken",
      "outputs": [
        {
          "internalType": "address",
          "name": "",
          "type": "address"
        }
      ],
      "stateMutability": "view",
      "type": "function"
    },
    {
      "inputs": [
        {
          "internalType": "uint256",
          "name": "",
          "type": "uint256"
        }
      ],
      "name": "eraBuffer",
      "outputs": [
        {
          "internalType": "uint256",
          "name": "",
          "type": "uint256"
        }
      ],
      "stateMutability": "view",
      "type": "function"
    },
    {
      "inputs": [
        {
          "internalType": "uint256",
          "name": "",
          "type": "uint256"
        }
      ],
      "name": "eraRevenue",
      "outputs": [
        {
          "internalType": "bool",
          "name": "done",
          "type": "bool"
        },
        {
          "internalType": "uint256",
          "name": "val",
          "type": "uint256"
        }
      ],
      "stateMutability": "view",
      "type": "function"
    },
    {
      "inputs": [
        {
          "internalType": "uint256",
          "name": "",
          "type": "uint256"
        }
      ],
      "name": "eraRewards",
      "outputs": [
        {
          "internalType": "uint256",
          "name": "",
          "type": "uint256"
        }
      ],
      "stateMutability": "view",
      "type": "function"
    },
    {
      "inputs": [],
      "name": "eraShotsLimit",
      "outputs": [
        {
          "internalType": "uint256",
          "name": "",
          "type": "uint256"
        }
      ],
      "stateMutability": "view",
      "type": "function"
    },
    {
      "inputs": [
        {
          "internalType": "uint256",
          "name": "",
          "type": "uint256"
        }
      ],
      "name": "eraStakerReward",
      "outputs": [
        {
          "internalType": "bool",
          "name": "done",
          "type": "bool"
        },
        {
          "internalType": "uint256",
          "name": "val",
          "type": "uint256"
        }
      ],
      "stateMutability": "view",
      "type": "function"
    },
    {
      "inputs": [
        {
          "internalType": "uint256",
          "name": "",
          "type": "uint256"
        }
      ],
      "name": "eraUnstaked",
      "outputs": [
        {
          "internalType": "bool",
          "name": "done",
          "type": "bool"
        },
        {
          "internalType": "uint256",
          "name": "val",
          "type": "uint256"
        }
      ],
      "stateMutability": "view",
      "type": "function"
    },
    {
      "inputs": [
        {
          "internalType": "bytes32",
          "name": "role",
          "type": "bytes32"
        }
      ],
      "name": "getRoleAdmin",
      "outputs": [
        {
          "internalType": "bytes32",
          "name": "",
          "type": "bytes32"
        }
      ],
      "stateMutability": "view",
      "type": "function"
    },
    {
      "inputs": [],
      "name": "getSelectors",
      "outputs": [
        {
          "internalType": "bytes4[2]",
          "name": "",
          "type": "bytes4[2]"
        }
      ],
      "stateMutability": "pure",
      "type": "function"
    },
    {
      "inputs": [
        {
          "internalType": "bytes32",
          "name": "role",
          "type": "bytes32"
        },
        {
          "internalType": "address",
          "name": "account",
          "type": "address"
        }
      ],
      "name": "grantRole",
      "outputs": [],
      "stateMutability": "nonpayable",
      "type": "function"
    },
    {
      "inputs": [
        {
          "internalType": "bytes32",
          "name": "role",
          "type": "bytes32"
        },
        {
          "internalType": "address",
          "name": "account",
          "type": "address"
        }
      ],
      "name": "hasRole",
      "outputs": [
        {
          "internalType": "bool",
          "name": "",
          "type": "bool"
        }
      ],
      "stateMutability": "view",
      "type": "function"
    },
    {
      "inputs": [
        {
          "internalType": "string",
          "name": "",
          "type": "string"
        }
      ],
      "name": "haveUtility",
      "outputs": [
        {
          "internalType": "bool",
          "name": "",
          "type": "bool"
        }
      ],
      "stateMutability": "view",
      "type": "function"
    },
    {
      "inputs": [
        {
          "internalType": "string",
          "name": "",
          "type": "string"
        }
      ],
      "name": "isActive",
      "outputs": [
        {
          "internalType": "bool",
          "name": "",
          "type": "bool"
        }
      ],
      "stateMutability": "view",
      "type": "function"
    },
    {
      "inputs": [
        {
          "internalType": "address",
          "name": "",
          "type": "address"
        }
      ],
      "name": "isLpToken",
      "outputs": [
        {
          "internalType": "bool",
          "name": "",
          "type": "bool"
        }
      ],
      "stateMutability": "view",
      "type": "function"
    },
    {
      "inputs": [
        {
          "internalType": "address",
          "name": "",
          "type": "address"
        }
      ],
      "name": "isPartner",
      "outputs": [
        {
          "internalType": "bool",
          "name": "",
          "type": "bool"
        }
      ],
      "stateMutability": "view",
      "type": "function"
    },
    {
      "inputs": [
        {
          "internalType": "address",
          "name": "",
          "type": "address"
        }
      ],
      "name": "isStaker",
      "outputs": [
        {
          "internalType": "bool",
          "name": "",
          "type": "bool"
        }
      ],
      "stateMutability": "view",
      "type": "function"
    },
    {
      "inputs": [],
      "name": "isUnstakes",
      "outputs": [
        {
          "internalType": "bool",
          "name": "",
          "type": "bool"
        }
      ],
      "stateMutability": "view",
      "type": "function"
    },
    {
      "inputs": [],
      "name": "lastClaimed",
      "outputs": [
        {
          "internalType": "uint256",
          "name": "",
          "type": "uint256"
        }
      ],
      "stateMutability": "view",
      "type": "function"
    },
    {
      "inputs": [],
      "name": "lastEraTotalBalance",
      "outputs": [
        {
          "internalType": "uint256",
          "name": "",
          "type": "uint256"
        }
      ],
      "stateMutability": "view",
      "type": "function"
    },
    {
      "inputs": [],
      "name": "lastStaked",
      "outputs": [
        {
          "internalType": "uint256",
          "name": "",
          "type": "uint256"
        }
      ],
      "stateMutability": "view",
      "type": "function"
    },
    {
      "inputs": [],
      "name": "lastUnstaked",
      "outputs": [
        {
          "internalType": "uint256",
          "name": "",
          "type": "uint256"
        }
      ],
      "stateMutability": "view",
      "type": "function"
    },
    {
      "inputs": [],
      "name": "lastUpdated",
      "outputs": [
        {
          "internalType": "uint256",
          "name": "",
          "type": "uint256"
        }
      ],
      "stateMutability": "view",
      "type": "function"
    },
    {
      "inputs": [],
      "name": "liquidStakingManager",
      "outputs": [
        {
          "internalType": "address",
          "name": "",
          "type": "address"
        }
      ],
      "stateMutability": "view",
      "type": "function"
    },
    {
      "inputs": [
        {
          "internalType": "address",
          "name": "",
          "type": "address"
        }
      ],
      "name": "lpHandlers",
      "outputs": [
        {
          "internalType": "address",
          "name": "",
          "type": "address"
        }
      ],
      "stateMutability": "view",
      "type": "function"
    },
    {
      "inputs": [
        {
          "internalType": "uint256",
          "name": "",
          "type": "uint256"
        }
      ],
      "name": "lpTokens",
      "outputs": [
        {
          "internalType": "address",
          "name": "",
          "type": "address"
        }
      ],
      "stateMutability": "view",
      "type": "function"
    },
    {
      "inputs": [],
      "name": "minStakeAmount",
      "outputs": [
        {
          "internalType": "uint256",
          "name": "",
          "type": "uint256"
        }
      ],
      "stateMutability": "view",
      "type": "function"
    },
    {
      "inputs": [],
      "name": "nftDistr",
      "outputs": [
        {
          "internalType": "contract INFTDistributor",
          "name": "",
          "type": "address"
        }
      ],
      "stateMutability": "view",
      "type": "function"
    },
    {
      "inputs": [
        {
          "internalType": "address",
          "name": "",
          "type": "address"
        }
      ],
      "name": "partnerIdx",
      "outputs": [
        {
          "internalType": "uint256",
          "name": "",
          "type": "uint256"
        }
      ],
      "stateMutability": "view",
      "type": "function"
    },
    {
      "inputs": [
        {
          "internalType": "uint256",
          "name": "",
          "type": "uint256"
        }
      ],
      "name": "partners",
      "outputs": [
        {
          "internalType": "address",
          "name": "",
          "type": "address"
        }
      ],
      "stateMutability": "view",
      "type": "function"
    },
    {
      "inputs": [],
      "name": "partnersLimit",
      "outputs": [
        {
          "internalType": "uint256",
          "name": "",
          "type": "uint256"
        }
      ],
      "stateMutability": "view",
      "type": "function"
    },
    {
      "inputs": [],
      "name": "paused",
      "outputs": [
        {
          "internalType": "bool",
          "name": "",
          "type": "bool"
        }
      ],
      "stateMutability": "view",
      "type": "function"
    },
    {
      "inputs": [
        {
          "internalType": "string",
          "name": "_utility",
          "type": "string"
        },
        {
          "internalType": "address",
          "name": "_user",
          "type": "address"
        }
      ],
      "name": "previewUserRewards",
      "outputs": [
        {
          "internalType": "uint256",
          "name": "",
          "type": "uint256"
        }
      ],
      "stateMutability": "view",
      "type": "function"
    },
    {
      "inputs": [],
      "name": "removeStakers",
      "outputs": [],
      "stateMutability": "nonpayable",
      "type": "function"
    },
    {
      "inputs": [
        {
          "internalType": "bytes32",
          "name": "role",
          "type": "bytes32"
        },
        {
          "internalType": "address",
          "name": "account",
          "type": "address"
        }
      ],
      "name": "renounceRole",
      "outputs": [],
      "stateMutability": "nonpayable",
      "type": "function"
    },
    {
      "inputs": [
        {
          "internalType": "bytes32",
          "name": "role",
          "type": "bytes32"
        },
        {
          "internalType": "address",
          "name": "account",
          "type": "address"
        }
      ],
      "name": "revokeRole",
      "outputs": [],
      "stateMutability": "nonpayable",
      "type": "function"
    },
    {
      "inputs": [],
      "name": "rewardPool",
      "outputs": [
        {
          "internalType": "uint256",
          "name": "",
          "type": "uint256"
        }
      ],
      "stateMutability": "view",
      "type": "function"
    },
    {
      "inputs": [],
      "name": "setFreeDest",
      "outputs": [],
      "stateMutability": "nonpayable",
      "type": "function"
    },
    {
      "inputs": [
        {
          "internalType": "string[]",
          "name": "_utilities",
          "type": "string[]"
        },
        {
          "internalType": "uint256[]",
          "name": "_amounts",
          "type": "uint256[]"
        }
      ],
      "name": "stake",
      "outputs": [],
      "stateMutability": "payable",
      "type": "function"
    },
    {
      "inputs": [
        {
          "internalType": "uint256",
          "name": "",
          "type": "uint256"
        }
      ],
      "name": "stakers",
      "outputs": [
        {
          "internalType": "address",
          "name": "",
          "type": "address"
        }
      ],
      "stateMutability": "view",
      "type": "function"
    },
    {
      "inputs": [
        {
          "internalType": "address",
          "name": "",
          "type": "address"
        }
      ],
      "name": "stakes",
      "outputs": [
        {
          "internalType": "uint256",
          "name": "totalBalance",
          "type": "uint256"
        },
        {
          "internalType": "uint256",
          "name": "eraStarted",
          "type": "uint256"
        }
      ],
      "stateMutability": "view",
      "type": "function"
    },
    {
      "inputs": [],
      "name": "sum2unstake",
      "outputs": [
        {
          "internalType": "uint256",
          "name": "",
          "type": "uint256"
        }
      ],
      "stateMutability": "view",
      "type": "function"
    },
    {
      "inputs": [
        {
          "internalType": "bytes4",
          "name": "interfaceId",
          "type": "bytes4"
        }
      ],
      "name": "supportsInterface",
      "outputs": [
        {
          "internalType": "bool",
          "name": "",
          "type": "bool"
        }
      ],
      "stateMutability": "view",
      "type": "function"
    },
    {
      "inputs": [
        {
          "internalType": "uint256",
          "name": "_era",
          "type": "uint256"
        }
      ],
      "name": "sync",
      "outputs": [],
      "stateMutability": "nonpayable",
      "type": "function"
    },
    {
      "inputs": [
        {
          "internalType": "address",
          "name": "_user",
          "type": "address"
        },
        {
          "internalType": "string[]",
          "name": "_utilities",
          "type": "string[]"
        }
      ],
      "name": "syncHarvest",
      "outputs": [],
      "stateMutability": "nonpayable",
      "type": "function"
    },
    {
      "inputs": [],
      "name": "totalBalance",
      "outputs": [
        {
          "internalType": "uint256",
          "name": "",
          "type": "uint256"
        }
      ],
      "stateMutability": "view",
      "type": "function"
    },
    {
      "inputs": [],
      "name": "totalRevenue",
      "outputs": [
        {
          "internalType": "uint256",
          "name": "",
          "type": "uint256"
        }
      ],
      "stateMutability": "view",
      "type": "function"
    },
    {
      "inputs": [
        {
          "internalType": "address",
          "name": "",
          "type": "address"
        }
      ],
      "name": "totalUserRewards",
      "outputs": [
        {
          "internalType": "uint256",
          "name": "",
          "type": "uint256"
        }
      ],
      "stateMutability": "view",
      "type": "function"
    },
    {
      "inputs": [],
      "name": "unbondedPool",
      "outputs": [
        {
          "internalType": "uint256",
          "name": "",
          "type": "uint256"
        }
      ],
      "stateMutability": "view",
      "type": "function"
    },
    {
      "inputs": [
        {
          "internalType": "string[]",
          "name": "_utilities",
          "type": "string[]"
        },
        {
          "internalType": "uint256[]",
          "name": "_amounts",
          "type": "uint256[]"
        },
        {
          "internalType": "bool",
          "name": "_immediate",
          "type": "bool"
        }
      ],
      "name": "unstake",
      "outputs": [],
      "stateMutability": "nonpayable",
      "type": "function"
    },
    {
      "inputs": [],
      "name": "unstakingPool",
      "outputs": [
        {
          "internalType": "uint256",
          "name": "",
          "type": "uint256"
        }
      ],
      "stateMutability": "view",
      "type": "function"
    },
    {
      "inputs": [],
      "name": "update",
      "outputs": [],
      "stateMutability": "nonpayable",
      "type": "function"
    },
    {
      "inputs": [
        {
          "internalType": "string",
          "name": "_utility",
          "type": "string"
        },
        {
          "internalType": "address",
          "name": "_user",
          "type": "address"
        }
      ],
      "name": "updateUserBalanceInAdapter",
      "outputs": [],
      "stateMutability": "nonpayable",
      "type": "function"
    },
    {
      "inputs": [
        {
          "internalType": "string",
          "name": "_utility",
          "type": "string"
        },
        {
          "internalType": "address",
          "name": "_user",
          "type": "address"
        }
      ],
      "name": "updateUserBalanceInUtility",
      "outputs": [],
      "stateMutability": "nonpayable",
      "type": "function"
    },
    {
      "inputs": [
        {
          "internalType": "address",
          "name": "",
          "type": "address"
        },
        {
          "internalType": "uint256",
          "name": "",
          "type": "uint256"
        },
        {
          "internalType": "uint256",
          "name": "",
          "type": "uint256"
        }
      ],
      "name": "usersShotsPerEra",
      "outputs": [
        {
          "internalType": "uint256",
          "name": "",
          "type": "uint256"
        }
      ],
      "stateMutability": "view",
      "type": "function"
    },
    {
      "inputs": [],
      "name": "utilName",
      "outputs": [
        {
          "internalType": "string",
          "name": "",
          "type": "string"
        }
      ],
      "stateMutability": "view",
      "type": "function"
    },
    {
      "inputs": [
        {
          "internalType": "uint256",
          "name": "_id",
          "type": "uint256"
        }
      ],
      "name": "withdraw",
      "outputs": [],
      "stateMutability": "nonpayable",
      "type": "function"
    },
    {
      "inputs": [],
      "name": "withdrawBlock",
      "outputs": [
        {
          "internalType": "uint256",
          "name": "",
          "type": "uint256"
        }
      ],
      "stateMutability": "view",
      "type": "function"
    },
    {
      "inputs": [
        {
          "internalType": "address",
          "name": "",
          "type": "address"
        },
        {
          "internalType": "uint256",
          "name": "",
          "type": "uint256"
        }
      ],
      "name": "withdrawals",
      "outputs": [
        {
          "internalType": "uint256",
          "name": "val",
          "type": "uint256"
        },
        {
          "internalType": "uint256",
          "name": "eraReq",
          "type": "uint256"
        },
        {
          "internalType": "uint256",
          "name": "lag",
          "type": "uint256"
        }
      ],
      "stateMutability": "view",
      "type": "function"
    }
  ],
  "bytecode": {
    "object": "0x608060405234801561001057600080fd5b50615d3880620000216000396000f3fe6080604052600436106104725760003560e01c80638c0f9aac1161024a578063c4e137e711610139578063dcf425df116100b6578063eb51a44c1161007a578063eb51a44c14610eef578063f128f63114610f29578063f188768414610f3f578063fc6e678614610f55578063fd5e6dd114610f6a57600080fd5b8063dcf425df14610ded578063e09c195414610e63578063e2e836f814610e99578063e77ee34514610eb9578063e932b37b14610ecf57600080fd5b8063d1058e59116100fd578063d1058e5914610d63578063d547741f14610d78578063d6356ff414610d98578063d78cfe0614610db8578063da3bc95814610dcd57600080fd5b8063c4e137e714610ca2578063c71367b514610cdc578063c78731dc14610cf2578063c8902a2114610d12578063d0b06f5d14610d4d57600080fd5b8063ad7a672f116101c7578063bd1bbd3b1161018b578063bd1bbd3b14610c0c578063bf29084514610c2c578063bf2d9e0b14610c4c578063c21a727614610c62578063c3b49d0414610c8257600080fd5b8063ad7a672f14610b8a578063adc1b95614610ba0578063af66c36b14610bb6578063b1357bf914610bcc578063b8d7cac914610bec57600080fd5b8063a2ce0f4a1161020e578063a2ce0f4a14610ad9578063a2e6204514610b06578063a44bca8e14610b1b578063a5ae02ac14610b48578063ab48692914610b7557600080fd5b80638c0f9aac14610a4c57806391d1485414610a7c578063973628f614610a9c578063a217fddf14610ab1578063a22eae1b14610ac657600080fd5b8063386df6eb116103665780635c975abb116102e35780636f1e8533116102a75780636f1e8533146109925780636f5e4488146109c25780636f68f2e9146109d857806386b3cd2614610a135780638bf3423714610a2c57600080fd5b80635c975abb146109065780635ca5914e146109275780635f1554e31461094757806366666aa91461095c5780636bbea7661461097257600080fd5b80634d6174511161032a5780634d617451146108775780635495ec811461088d57806354b057f9146108a357806359601ebc146108db57806359b40f41146108f057600080fd5b8063386df6eb146107b157806340bf8a8d146107d1578063422b1077146107f35780634421bd1e1461082e5780634b503f0b1461085557600080fd5b80631f19014b116103f45780632e1a7d4d116103b85780632e1a7d4d146106e65780632e4a4a17146107065780632ea31bf6146107205780632f2ff15d1461077157806336568abe1461079157600080fd5b80631f19014b1461062857806324025b1914610648578063248a9ca31461065e57806324f0f5481461068e5780632a14d8f4146106ae57600080fd5b806312b3b4e61161043b57806312b3b4e61461054e57806316934fc4146105705780631b2df850146105b95780631bb5e2dc146105db5780631dc00785146105fb57600080fd5b8062179fbd1461047757806301ffc9a7146104a057806305e2a217146104d05780630f24ca7d1461050857806312a12a0614610538575b600080fd5b34801561048357600080fd5b5061048d60b75481565b6040519081526020015b60405180910390f35b3480156104ac57600080fd5b506104c06104bb366004615621565b610f8a565b6040519015158152602001610497565b3480156104dc57600080fd5b5060a6546104f0906001600160a01b031681565b6040516001600160a01b039091168152602001610497565b34801561051457600080fd5b506104c06105233660046151f3565b60aa6020526000908152604090205460ff1681565b34801561054457600080fd5b5061048d60a85481565b34801561055a57600080fd5b5061056e61056936600461520d565b610fc1565b005b34801561057c57600080fd5b506105a461058b3660046151f3565b609e602052600090815260409020805460019091015482565b60408051928352602083019190915201610497565b3480156105c557600080fd5b5061048d600080516020615ce383398151915281565b3480156105e757600080fd5b506104f06105f63660046155de565b611085565b34801561060757600080fd5b5061048d6106163660046155de565b60ac6020526000908152604090205481565b34801561063457600080fd5b5061056e610643366004615475565b6110af565b34801561065457600080fd5b5061048d609a5481565b34801561066a57600080fd5b5061048d6106793660046155de565b60009081526065602052604090206001015490565b34801561069a57600080fd5b5061056e6106a93660046154cb565b6111b6565b3480156106ba57600080fd5b5061048d6106c9366004615649565b805160208183018101805160c38252928201919093012091525481565b3480156106f257600080fd5b5061056e6107013660046155de565b611785565b34801561071257600080fd5b5060b6546104c09060ff1681565b34801561072c57600080fd5b5061075a61073b3660046155de565b60a1602052600090815260409020805460019091015460ff9091169082565b604080519215158352602083019190915201610497565b34801561077d57600080fd5b5061056e61078c3660046155f6565b611985565b34801561079d57600080fd5b5061056e6107ac3660046155f6565b6119af565b3480156107bd57600080fd5b5061056e6107cc36600461567b565b611a2d565b3480156107dd57600080fd5b506107e6611a76565b60405161049791906159b6565b3480156107ff57600080fd5b5061081361080e366004615299565b611b04565b60408051938452602084019290925290820152606001610497565b34801561083a57600080fd5b50610843600981565b60405160ff9091168152602001610497565b34801561086157600080fd5b5061086a611b46565b6040516104979190615953565b34801561088357600080fd5b5061048d60bb5481565b34801561089957600080fd5b5061048d60a95481565b3480156108af57600080fd5b5061048d6108be366004615299565b60ae60209081526000928352604080842090915290825290205481565b3480156108e757600080fd5b50610843600181565b3480156108fc57600080fd5b506104f061500181565b34801561091257600080fd5b5060c7546104c090600160a01b900460ff1681565b34801561093357600080fd5b5060c7546104f0906001600160a01b031681565b34801561095357600080fd5b50610843600a81565b34801561096857600080fd5b5061048d609c5481565b34801561097e57600080fd5b50609d546104f0906001600160a01b031681565b34801561099e57600080fd5b506104c06109ad3660046151f3565b60a76020526000908152604090205460ff1681565b3480156109ce57600080fd5b5061048d609b5481565b3480156109e457600080fd5b506104c06109f3366004615649565b805160208183018101805160c18252928201919093012091525460ff1681565b348015610a1f57600080fd5b5061048d64e8d4a5100081565b348015610a3857600080fd5b5061056e610a473660046151f3565b611b73565b348015610a5857600080fd5b506104c0610a673660046151f3565b60b86020526000908152604090205460ff1681565b348015610a8857600080fd5b506104c0610a973660046155f6565b611bf2565b348015610aa857600080fd5b5061048d611c1d565b348015610abd57600080fd5b5061048d600081565b61056e610ad4366004615475565b611c97565b348015610ae557600080fd5b5061048d610af43660046155de565b60c46020526000908152604090205481565b348015610b1257600080fd5b5061056e6122f1565b348015610b2757600080fd5b5061048d610b363660046151f3565b60b06020526000908152604090205481565b348015610b5457600080fd5b5061048d610b633660046151f3565b60b96020526000908152604090205481565b348015610b8157600080fd5b506107e661234c565b348015610b9657600080fd5b5061048d60995481565b348015610bac57600080fd5b5061048d60b35481565b348015610bc257600080fd5b5061048d60b55481565b348015610bd857600080fd5b5061056e610be73660046155de565b612359565b348015610bf857600080fd5b5061048d610c0736600461567b565b612401565b348015610c1857600080fd5b5060c5546104f0906001600160a01b031681565b348015610c3857600080fd5b5061056e610c473660046152f4565b612465565b348015610c5857600080fd5b5061048d60ad5481565b348015610c6e57600080fd5b5061048d610c7d3660046155de565b612714565b348015610c8e57600080fd5b506104f0610c9d3660046155de565b61272b565b348015610cae57600080fd5b5061075a610cbd3660046155de565b60a0602052600090815260409020805460019091015460ff9091169082565b348015610ce857600080fd5b5061048d60a35481565b348015610cfe57600080fd5b5061056e610d0d36600461567b565b61273b565b348015610d1e57600080fd5b506104c0610d2d366004615649565b805160208183018101805160c28252928201919093012091525460ff1681565b348015610d5957600080fd5b5061048d60a45481565b348015610d6f57600080fd5b5061056e612852565b348015610d8457600080fd5b5061056e610d933660046155f6565b612bdb565b348015610da457600080fd5b5061048d610db33660046152c2565b612c00565b348015610dc457600080fd5b5061056e612c3e565b348015610dd957600080fd5b506107e6610de83660046155de565b612cb1565b348015610df957600080fd5b50610e3e610e08366004615649565b805160208183018101805160c0825292820191909301209152805460018201546002909201546001600160a01b03909116919083565b604080516001600160a01b039094168452602084019290925290820152606001610497565b348015610e6f57600080fd5b506104f0610e7e3660046151f3565b60b1602052600090815260409020546001600160a01b031681565b348015610ea557600080fd5b5060c6546104f0906001600160a01b031681565b348015610ec557600080fd5b5061048d60bc5481565b348015610edb57600080fd5b5061056e610eea366004615258565b612cdc565b348015610efb57600080fd5b5061075a610f0a3660046155de565b60a2602052600090815260409020805460019091015460ff9091169082565b348015610f3557600080fd5b5061048d60b25481565b348015610f4b57600080fd5b5061048d60b45481565b348015610f6157600080fd5b5061056e612e46565b348015610f7657600080fd5b506104f0610f853660046155de565b612e6d565b60006001600160e01b03198216637965db0b60e01b1480610fbb57506301ffc9a760e01b6001600160e01b03198316145b92915050565b600080516020615ce3833981519152610fd981612e7d565b81518390839060005b8181101561102d5761101b83828151811061100d57634e487b7160e01b600052603260045260246000fd5b602002602001015185612e87565b8061102581615c8d565b915050610fe2565b5060005b8181101561107c5761106a83828151811061105c57634e487b7160e01b600052603260045260246000fd5b6020026020010151856131f2565b8061107481615c8d565b915050611031565b50505050505050565b60ab818154811061109557600080fd5b6000918252602090912001546001600160a01b0316905081565b818160008251116110db5760405162461bcd60e51b81526004016110d290615a9e565b60405180910390fd5b80518251146110fc5760405162461bcd60e51b81526004016110d290615a67565b6000611106611c1d565b90508060a4541461111a5761111a81613274565b84513390869060005b818110156111605761114e83828151811061100d57634e487b7160e01b600052603260045260246000fd5b8061115881615c8d565b915050611123565b5061116b888861329d565b60005b818110156111ab5761119983828151811061105c57634e487b7160e01b600052603260045260246000fd5b806111a381615c8d565b91505061116e565b505050505050505050565b828260008251116111d95760405162461bcd60e51b81526004016110d290615a9e565b80518251146111fa5760405162461bcd60e51b81526004016110d290615a67565b6000611204611c1d565b90508060a454146112185761121881613274565b600080611223611c1d565b885190915060005b8181101561171c5760c18a828151811061125557634e487b7160e01b600052603260045260246000fd5b602002602001015160405161126a91906157ef565b9081526040519081900360200190205460ff166112bb5760405162461bcd60e51b815260206004820152600f60248201526e556e6b6e6f776e207574696c69747960881b60448201526064016110d2565b60008982815181106112dd57634e487b7160e01b600052603260045260246000fd5b6020026020010151111561170a5760008a828151811061130d57634e487b7160e01b600052603260045260246000fd5b6020026020010151905060008a838151811061133957634e487b7160e01b600052603260045260246000fd5b6020908102919091010151609d5460405163e1d9b41760e01b81529192506000916001600160a01b039091169063e1d9b4179061137f9033908790609890600401615880565b60206040518083038186803b15801561139757600080fd5b505afa1580156113ab573d6000803e3d6000fd5b505050506040513d601f19601f820116820180604052508101906113cf91906156bd565b9050818110156114215760405162461bcd60e51b815260206004820152601b60248201527f4e6f7420656e6f756768206e4153545220696e207574696c697479000000000060448201526064016110d2565b600060c08460405161143391906157ef565b9081526020016040518091039020905061144d8433612e87565b61145881888561371b565b8281600201600082825461146c9190615b7e565b9250508190555082609960008282546114859190615bd5565b92505081905550828160010160008282546114a09190615bd5565b9091555050609d54604051632937555f60e21b81526001600160a01b039091169063a4dd557c906114dc9033908790899060989060040161590f565b600060405180830381600087803b1580156114f657600080fd5b505af115801561150a573d6000803e3d6000fd5b505050508b156115c05782609b5410156115665760405162461bcd60e51b815260206004820152601760248201527f556e7374616b696e6720706f6f6c20647261696e65642100000000000000000060448201526064016110d2565b6000611573606485615b96565b90508060ad60008282546115879190615b7e565b9250508190555083609b60008282546115a09190615bd5565b909155506115ba90506115b38286615bd5565b33906137d8565b506116a8565b60006115cd88600a615bb6565b6004609a54600a6115de9190615bb6565b6115e89190615b96565b60a9546115f690600a615bb6565b6116009190615b7e565b11156116515761161188600a615bb6565b6004609a54600a6116229190615bb6565b61162c9190615b96565b60a95461163a90600a615bb6565b6116449190615b7e565b61164e9190615bd5565b90505b336000908152609f6020908152604080832081516060810183528881528084018d81529281019586528154600181810184559286529390942093516003909302909301918255519181019190915590516002909101555b6116b28389615b7e565b9750836040516116c291906157ef565b604080519182900382208583528e151560208401529133917f9ea511fbdfb8cad72fe86c90f2b4bd44693fb585a82c8719ca0c2ac8b4053c6b910160405180910390a3505050505b8061171481615c8d565b91505061122b565b5082156111ab578260bd60010160008282546117389190615b7e565b909155505060408051848152881515602082015233917f4416ca74b4c9dd8d6070d91c267a6cf53734c0f343ced0ad02471ccb5417037e91015b60405180910390a2505050505050505050565b600061178f611c1d565b90508060a454146117a3576117a381613274565b336000908152609f602052604081208054849081106117d257634e487b7160e01b600052603260045260246000fd5b6000918252602082206003909102018054909250906117ef611c1d565b90508260010154600014156118465760405162461bcd60e51b815260206004820152601a60248201527f5769746864726177616c20616c726561647920636c61696d656400000000000060448201526064016110d2565b6002830154609a5461185990600a615bb6565b6118639190615b7e565b600184015461187390600a615bb6565b61187e83600a615bb6565b6118889190615bd5565b10156118d65760405162461bcd60e51b815260206004820152601760248201527f4e6f7420656e6f7567682065726173207061737365642100000000000000000060448201526064016110d2565b8160a35410156119215760405162461bcd60e51b8152602060048201526016602482015275556e626f6e64656420706f6f6c20647261696e65642160501b60448201526064016110d2565b8160a360008282546119339190615bd5565b90915550506000600184015561194933836137d8565b60405182815233907f7084f5476618d8e60b11ef0d7d3f06914655adb8793e28ff7f018d4c76d505d59060200160405180910390a25050505050565b6000828152606560205260409020600101546119a081612e7d565b6119aa83836138f1565b505050565b6001600160a01b0381163314611a1f5760405162461bcd60e51b815260206004820152602f60248201527f416363657373436f6e74726f6c3a2063616e206f6e6c792072656e6f756e636560448201526e103937b632b9903337b91039b2b63360891b60648201526084016110d2565b611a298282613977565b5050565b609d546001600160a01b0316331480611a50575060c6546001600160a01b031633145b611a6c5760405162461bcd60e51b81526004016110d290615ad5565b611a2982826131f2565b60988054611a8390615c52565b80601f0160208091040260200160405190810160405280929190818152602001828054611aaf90615c52565b8015611afc5780601f10611ad157610100808354040283529160200191611afc565b820191906000526020600020905b815481529060010190602001808311611adf57829003601f168201915b505050505081565b609f6020528160005260406000208181548110611b2057600080fd5b600091825260209091206003909102018054600182015460029092015490935090915083565b611b4e61504d565b506040805180820190915263bf29084560e01b8152637e3733c360e11b602082015290565b600080516020615ce3833981519152611b8b81612e7d565b506001600160a01b0316600081815260b860205260408120805460ff1916600190811790915560ba805491820181559091527ff3b9eb9e163af2088b11de0a369fb583f58f9440e0e5c70fce0c59909ecece8a0180546001600160a01b0319169091179055565b60009182526065602090815260408084206001600160a01b0393909316845291905290205460ff1690565b60006150016001600160a01b031663e608d80b6040518163ffffffff1660e01b815260040160206040518083038186803b158015611c5a57600080fd5b505afa158015611c6e573d6000803e3d6000fd5b505050506040513d601f19601f82011682018060405250810190611c9291906156bd565b905090565b81816000825111611cba5760405162461bcd60e51b81526004016110d290615a9e565b8051825114611cdb5760405162461bcd60e51b81526004016110d290615a67565b6000611ce5611c1d565b90508060a45414611cf957611cf981613274565b845134906000805b82811015611e515760c2898281518110611d2b57634e487b7160e01b600052603260045260246000fd5b6020026020010151604051611d4091906157ef565b9081526040519081900360200190205460ff16611d915760405162461bcd60e51b815260206004820152600f60248201526e44617070206e6f742061637469766560881b60448201526064016110d2565b60b454888281518110611db457634e487b7160e01b600052603260045260246000fd5b60200260200101511015611e0a5760405162461bcd60e51b815260206004820152601760248201527f4e6f7420656e6f756768207374616b6520616d6f756e7400000000000000000060448201526064016110d2565b878181518110611e2a57634e487b7160e01b600052603260045260246000fd5b602002602001015182611e3d9190615b7e565b915080611e4981615c8d565b915050611d01565b5060008111611e965760405162461bcd60e51b8152602060048201526011602482015270496e636f727265637420616d6f756e747360781b60448201526064016110d2565b80831015611ed85760405162461bcd60e51b815260206004820152600f60248201526e496e636f72726563742076616c756560881b60448201526064016110d2565b8060bd6000016000828254611eed9190615b7e565b9091555060009050611efd611c1d565b33600090815260a7602052604090205490915060ff16611f325733600090815260a760205260409020805460ff191660011790555b8160996000828254611f449190615b7e565b90915550611f5790506115b38386615bd5565b60005b838110156122be5760c08a8281518110611f8457634e487b7160e01b600052603260045260246000fd5b6020026020010151604051611f9991906157ef565b908152604080516020928190038301902033600090815260039182019093529120015461202657611fcb826001615b7e565b60c08b8381518110611fed57634e487b7160e01b600052603260045260246000fd5b602002602001015160405161200291906157ef565b90815260408051602092819003830190203360009081526003918201909352912001555b600089828151811061204857634e487b7160e01b600052603260045260246000fd5b602002602001015111156122ac5760008a828151811061207857634e487b7160e01b600052603260045260246000fd5b602002602001015190506150016001600160a01b03166352b73e4160c0836040516120a391906157ef565b908152604051908190036020019020548c516001600160a01b03909116908d90869081106120e157634e487b7160e01b600052603260045260246000fd5b60200260200101516040518363ffffffff1660e01b81526004016121069291906158e4565b600060405180830381600087803b15801561212057600080fd5b505af1158015612134573d6000803e3d6000fd5b5050609d548c516001600160a01b03909116925063398a1329915033908d908690811061217157634e487b7160e01b600052603260045260246000fd5b60200260200101518460986040518563ffffffff1660e01b815260040161219b949392919061590f565b600060405180830381600087803b1580156121b557600080fd5b505af11580156121c9573d6000803e3d6000fd5b505050508982815181106121ed57634e487b7160e01b600052603260045260246000fd5b602002602001015160c08260405161220591906157ef565b908152602001604051809103902060010160008282546122259190615b7e565b90915550506040516122389082906157ef565b6040518091039020336001600160a01b03167f3c8bcf34be6605e590f1ef6c776b246c9568fd25b21b847fe22f998cff48eb9e8c858151811061228b57634e487b7160e01b600052603260045260246000fd5b60200260200101516040516122a291815260200190565b60405180910390a3505b806122b681615c8d565b915050611f5a565b5060405182815233907f9e71bc8eea02a63969f509818f2dafb9254532904319f9dbda79b67bd34a5f3d90602001611772565b600080516020615ce383398151915261230981612e7d565b60405164416c67656d60d81b815260c09060050190815260405190819003602001902080546001600160a01b031916815560006001820181905560029091015550565b60978054611a8390615c52565b600080516020615ce383398151915261237181612e7d565b60a454821180156123895750612385611c1d565b8211155b6123c75760405162461bcd60e51b815260206004820152600f60248201526e57726f6e67206572612072616e676560881b60448201526064016110d2565b6123d082613274565b604051829033907fb3a1bc35f2ae5834830c888981da2a3da5e47f57fc47da50ca9e18d31a083d0490600090a35050565b60008061240e84846139de565b505050905060c08460405161242391906157ef565b90815260408051602092819003830190206001600160a01b03861660009081526003909101835220600201549082015161245d9190615b7e565b949350505050565b600080516020615ce383398151915261247d81612e7d565b6040805161010081018252600d60c082019081526c4c69717569645374616b696e6760981b60e0830152815281518083018352600c81526b417374617220446567656e7360a01b60208281019190915280830191909152825180840184526008815267041727468537761760c41b818301528284015282518084018452601781527f417374617220436f726520436f6e7472696275746f7273000000000000000000818301526060830152825180840184526005815264416c67656d60d81b8183015260808301528251808401909352600983526841737472696444414f60b81b9083015260a081019190915260005b835181101561270e57600084828151811061259857634e487b7160e01b600052603260045260246000fd5b6020908102919091018101516001600160a01b038116600081815260a790935260408320805460ff1916600190811790915560a58054918201815584527fb29a2b3b6f2ff1b765777a231725941da5072cc4fcc30ac4a2ce09706e8ddeff0180546001600160a01b031916909117905591505b60068110156127045760c084826006811061263657634e487b7160e01b600052603260045260246000fd5b602002015160405161264891906157ef565b90815260200160405180910390206003016000836001600160a01b03166001600160a01b0316815260200190815260200160002060030154600014156126fc57612690611c1d565b61269b906001615b7e565b60c08583600681106126bd57634e487b7160e01b600052603260045260246000fd5b60200201516040516126cf91906157ef565b90815260408051602092819003830190206001600160a01b03861660009081526003918201909352912001555b60010161260b565b505060010161256d565b50505050565b60bd816002811061272457600080fd5b0154905081565b60ba818154811061109557600080fd5b609d546001600160a01b031633148061275e575060c6546001600160a01b031633145b61277a5760405162461bcd60e51b81526004016110d290615ad5565b6001600160a01b0381166127c65760405162461bcd60e51b81526020600482015260136024820152725a65726f206164647265737320616c61726d2160681b60448201526064016110d2565b60c6546040516343704d8760e11b81526001600160a01b03838116600483015260009216906386e09b0e906024015b60206040518083038186803b15801561280d57600080fd5b505afa158015612821573d6000803e3d6000fd5b505050506040513d601f19601f8201168201806040525081019061284591906156bd565b90506119aa838383613f54565b600061285c611c1d565b90508060a454146128705761287081613274565b609d5460405163e0a3b21f60e01b81526000916001600160a01b03169063e0a3b21f906128a49033906098906004016158c0565b60006040518083038186803b1580156128bc57600080fd5b505afa1580156128d0573d6000803e3d6000fd5b505050506040513d6000823e601f3d908101601f191682016040526128f8919081019061538d565b8051909150600061290a826001615b7e565b6001600160401b0381111561292f57634e487b7160e01b600052604160045260246000fd5b604051908082528060200260200182016040528015612958578160200160208202803683370190505b5090506000612968836001615b7e565b6001600160401b0381111561298d57634e487b7160e01b600052604160045260246000fd5b6040519080825280602002602001820160405280156129c057816020015b60608152602001906001900390816129ab5790505b50905060005b83811015612a34578481815181106129ee57634e487b7160e01b600052603260045260246000fd5b6020026020010151828281518110612a1657634e487b7160e01b600052603260045260246000fd5b60200260200101819052508080612a2c90615c8d565b9150506129c6565b506040518060400160405280600f81526020016e41646170746572735574696c69747960881b815250818481518110612a7d57634e487b7160e01b600052603260045260246000fd5b602002602001018190525060005b612a96846001615b7e565b811015612b7a57612ace828281518110612ac057634e487b7160e01b600052603260045260246000fd5b602002602001015133612e87565b60c0828281518110612af057634e487b7160e01b600052603260045260246000fd5b6020026020010151604051612b0591906157ef565b90815260200160405180910390206003016000336001600160a01b03166001600160a01b0316815260200190815260200160002060020154838281518110612b5d57634e487b7160e01b600052603260045260246000fd5b602090810291909101015280612b7281615c8d565b915050612a8b565b50612b85818361329d565b60005b83811015612bd357612bc1828281518110612bb357634e487b7160e01b600052603260045260246000fd5b6020026020010151336131f2565b80612bcb81615c8d565b915050612b88565b505050505050565b600082815260656020526040902060010154612bf681612e7d565b6119aa8383613977565b60af6020528260005260406000206020528160005260406000208181548110612c2857600080fd5b9060005260206000200160009250925050505481565b600080516020615ce3833981519152612c5681612e7d565b60405163258d874360e11b815261500190634b1b0e8690612c7c9060009060040161598e565b600060405180830381600087803b158015612c9657600080fd5b505af1158015612caa573d6000803e3d6000fd5b5050505050565b60bf8181548110612cc157600080fd5b906000526020600020016000915090508054611a8390615c52565b609d546001600160a01b0316331480612cff575060c6546001600160a01b031633145b612d1b5760405162461bcd60e51b81526004016110d290615ad5565b6001600160a01b038216600090815260a7602052604090205460ff16612da1576001600160a01b038216600081815260a760205260408120805460ff1916600190811790915560a5805491820181559091527fb29a2b3b6f2ff1b765777a231725941da5072cc4fcc30ac4a2ce09706e8ddeff0180546001600160a01b03191690911790555b60c081604051612db191906157ef565b90815260200160405180910390206003016000836001600160a01b03166001600160a01b031681526020019081526020016000206003015460001415611a2957612df9611c1d565b612e04906001615b7e565b60c082604051612e1491906157ef565b908152604080519182900360209081019092206001600160a01b03861660009081526003918201909352912001555050565b600080516020615ce3833981519152612e5e81612e7d565b612e6a60a5600061506b565b50565b60a5818154811061109557600080fd5b612e6a813361407c565b600080600080612e9786866139de565b9350935093509350801561305e578160c087604051612eb691906157ef565b90815260408051602092819003830190206001600160a01b03891660009081526003909101835281812060a454825290925290205581612ef7576001612efa565b60005b60c087604051612f0a91906157ef565b90815260408051602092819003830190206001600160a01b0389811660009081526003909201845282822060a480548452600191820190955292909120805460ff19169415159490941790935560c5549154919092169163fb35f9879189918991612f759190615bd5565b88516040516001600160e01b031960e087901b168152612f9b94939291906004016159f7565b600060405180830381600087803b158015612fb557600080fd5b505af1158015612fc9573d6000803e3d6000fd5b505060c55460a4546001600160a01b039091169250630cbd535e915087908690612ff590600190615bd5565b6040516001600160e01b031960e086901b1681526001600160a01b03909316600484015260ff90911660248301526044820152606401600060405180830381600087803b15801561304557600080fd5b505af1158015613059573d6000803e3d6000fd5b505050505b60c08660405161306e91906157ef565b90815260200160405180910390206003016000866001600160a01b03166001600160a01b03168152602001908152602001600020600301546000146130ed5760a45460c0876040516130c091906157ef565b90815260408051602092819003830190206001600160a01b03891660009081526003918201909352912001555b60208401516130fe57505050505050565b602084015160405160c0906131149089906157ef565b90815260200160405180910390206003016000876001600160a01b03166001600160a01b03168152602001908152602001600020600201600082825461315a9190615b7e565b90915550506020808501516001600160a01b038716600090815260b09092526040822080549192909161318e908490615b7e565b90915550506040516131a19087906157ef565b604051908190038120602080870151835290916001600160a01b038816917fe031024ebd0ad1a1f63e67d469a2409c8f8877c863d4213103c331bbabafa0a6910160405180910390a3505050505050565b6001600160a01b03811661323e5760405162461bcd60e51b81526020600482015260136024820152725a65726f206164647265737320616c61726d2160681b60448201526064016110d2565b609d5460405163e1d9b41760e01b81526000916001600160a01b03169063e1d9b417906127f59085908790609890600401615880565b61327d816140e0565b613286816141fe565b61328f816148df565b613298816149c8565b60a455565b33600090815260b8602052604090205460ff16156133095760405162461bcd60e51b815260206004820152602360248201527f436c61696d206e6f7420616c6c6f77656420666f7220706172746e657220706f6044820152626f6c7360e81b60648201526084016110d2565b81516000805b8281101561369257600084828151811061333957634e487b7160e01b600052603260045260246000fd5b6020026020010151111561368057600060c086838151811061336b57634e487b7160e01b600052603260045260246000fd5b602002602001015160405161338091906157ef565b908152602001604051809103902090508482815181106133b057634e487b7160e01b600052603260045260246000fd5b6020026020010151816003016000336001600160a01b03166001600160a01b031681526020019081526020016000206002015410156134275760405162461bcd60e51b81526020600482015260136024820152724e6f7420656e6f75676820726577617264732160681b60448201526064016110d2565b84828151811061344757634e487b7160e01b600052603260045260246000fd5b6020026020010151609c5410156134975760405162461bcd60e51b815260206004820152601460248201527314995dd85c991cc81c1bdbdb08191c985a5b995960621b60448201526064016110d2565b8482815181106134b757634e487b7160e01b600052603260045260246000fd5b6020026020010151609c60008282546134d09190615bd5565b925050819055508482815181106134f757634e487b7160e01b600052603260045260246000fd5b6020026020010151816003016000336001600160a01b03166001600160a01b0316815260200190815260200160002060020160008282546135389190615bd5565b9250508190555084828151811061355f57634e487b7160e01b600052603260045260246000fd5b602002602001015160b06000336001600160a01b03166001600160a01b03168152602001908152602001600020600082825461359b9190615bd5565b925050819055508482815181106135c257634e487b7160e01b600052603260045260246000fd5b6020026020010151836135d59190615b7e565b92508582815181106135f757634e487b7160e01b600052603260045260246000fd5b602002602001015160405161360c91906157ef565b6040518091039020336001600160a01b03167f797a477e49f23d65ef8588df156ba8c74c6e21a51d6cf6737320d868c0e7c9f887858151811061365f57634e487b7160e01b600052603260045260246000fd5b602002602001015160405161367691815260200190565b60405180910390a3505b8061368a81615c8d565b91505061330f565b50600081116136d65760405162461bcd60e51b815260206004820152601060248201526f4e6f7468696e6720746f20636c61696d60801b60448201526064016110d2565b6136e033826137d8565b60405181815233907fd8138f8a3f377c5259ca548e70e4c2de94f129f5a11036a15b69513cba2b426a9060200160405180910390a250505050565b336000908152600384016020908152604080832085845260010190915290205460ff166119aa57336000908152600384016020908152604080832085845290915290205481101561379d57336000908152600384016020908152604080832085845290915281208054839290613792908490615bd5565b909155506119aa9050565b50336000908152600392909201602090815260408084209284528282528084208490556001928301909152909120805460ff19169091179055565b804710156138285760405162461bcd60e51b815260206004820152601d60248201527f416464726573733a20696e73756666696369656e742062616c616e636500000060448201526064016110d2565b6000826001600160a01b03168260405160006040518083038185875af1925050503d8060008114613875576040519150601f19603f3d011682016040523d82523d6000602084013e61387a565b606091505b50509050806119aa5760405162461bcd60e51b815260206004820152603a60248201527f416464726573733a20756e61626c6520746f2073656e642076616c75652c207260448201527f6563697069656e74206d6179206861766520726576657274656400000000000060648201526084016110d2565b6138fb8282611bf2565b611a295760008281526065602090815260408083206001600160a01b03851684529091529020805460ff191660011790556139333390565b6001600160a01b0316816001600160a01b0316837f2f8788117e7eff1d82e926ec794901d17c78024a50270940304540a733656f0d60405160405180910390a45050565b6139818282611bf2565b15611a295760008281526065602090815260408083206001600160a01b0385168085529252808320805460ff1916905551339285917ff6391f5c32d9c69d2a47ea670b442974b53935d1edc7fd64eb21e047a839171b9190a45050565b6139e661504d565b60008060008060c0876040516139fc91906157ef565b90815260408051602092819003830190206001600160a01b03891660009081526003909101835281812060b8909352205490915060ff1680613a44575060a454816003015410155b80613a5157506003810154155b15613a66575060009250829150819050613f4b565b60c55460038201546001600160a01b039091169063933c9a249089908990613a9090600190615bd5565b6040518463ffffffff1660e01b8152600401613aae939291906159c9565b604080518083038186803b158015613ac557600080fd5b505afa158015613ad9573d6000803e3d6000fd5b505050506040513d601f19601f82011682018060405250810190613afd91906156d5565b50855260c55460038201546000916001600160a01b031690633f1fb67c908990613b2990600190615bd5565b6040516001600160e01b031960e085901b1681526001600160a01b039092166004830152602482015260440160206040518083038186803b158015613b6d57600080fd5b505afa158015613b81573d6000803e3d6000fd5b505050506040513d601f19601f82011682018060405250810190613ba59190615704565b905060ff8116613bb3575060095b60038201546000908152602083905260408082205460c55491516339770cd160e11b81529092916001600160a01b0316906372ee19a290613bf8908d906004016159b6565b60206040518083038186803b158015613c1057600080fd5b505afa158015613c24573d6000803e3d6000fd5b505050506040513d601f19601f82011682018060405250810190613c4891906155c2565b60038501549091505b60a454811015613f3e578215613d6957885115801590613c6e5750815b15613cf85760c5546040516314d6a44160e21b81526001600160a01b039091169063535a910490613ca5908e908890600401615a2f565b60206040518083038186803b158015613cbd57600080fd5b505afa158015613cd1573d6000803e3d6000fd5b505050506040513d601f19601f82011682018060405250810190613cf59190615704565b93505b600081815260c4602052604081205464e8d4a5100090613d189086615bb6565b613d229190615b96565b905060646001613d328783615bec565b613d3c9190615bec565b613d499060ff1683615bb6565b613d539190615b96565b60208b018051613d64908390615b7e565b905250505b846000613d77836001615b7e565b81526020019081526020016000205460001415613dc457846001016000826001613da19190615b7e565b815260208101919091526040016000205460ff1615613dbf57600092505b613de4565b846000613dd2836001615b7e565b81526020019081526020016000205492505b60008060c560009054906101000a90046001600160a01b03166001600160a01b031663933c9a248e8e866040518463ffffffff1660e01b8152600401613e2c939291906159c9565b604080518083038186803b158015613e4357600080fd5b505afa158015613e57573d6000803e3d6000fd5b505050506040513d601f19601f82011682018060405250810190613e7b91906156d5565b915091508160001415613e98578015613e935760008b525b613e9c565b818b525b60c554604051630fc7ed9f60e21b81526001600160a01b038e81166004830152602482018690526000921690633f1fb67c9060440160206040518083038186803b158015613ee957600080fd5b505afa158015613efd573d6000803e3d6000fd5b505050506040513d601f19601f82011682018060405250810190613f219190615704565b905060ff811615613f30578096505b836001019350505050613c51565b5091955093506001925050505b92959194509250565b6000613f5e611c1d565b613f69906001615b7e565b9050600060c085604051613f7d91906157ef565b9081526040805191829003602090810183206001600160a01b0388166000908152600390910190915220915060c090613fb79087906157ef565b90815260200160405180910390206003016000856001600160a01b03166001600160a01b031681526020019081526020016000206003015460001415614035578160c08660405161400891906157ef565b90815260408051602092819003830190206001600160a01b03881660009081526003918201909352912001555b600082815260208290526040902083905582614052576001614055565b60005b60009283526001919091016020526040909120805460ff1916911515919091179055505050565b6140868282611bf2565b611a295761409e816001600160a01b03166014614ae9565b6140a9836020614ae9565b6040516020016140ba92919061580b565b60408051601f198184030181529082905262461bcd60e51b82526110d2916004016159b6565b60004790506150016001600160a01b03166377a0fe026040518163ffffffff1660e01b8152600401600060405180830381600087803b15801561412257600080fd5b505af1925050508015614133575060015b6141ad573d808015614161576040519150601f19603f3d011682016040523d82523d6000602084013e614166565b606091505b508060405161417591906157ef565b6040519081900381209084907ff031b94d40b16f5c2b8213e25ea0f640687fa24e99f6a0ef56cdd46762434a2f90600090a3506141d8565b60405182907e973a60d81248412b3530a2ff12c475667dc3c0ece650fb361c044aa240565b90600090a25b476141e38282615bd5565b60a360008282546141f49190615b7e565b9091555050505050565b8060a4541061420a5750565b60bf544760005b828110156142f9576142e760bf828154811061423d57634e487b7160e01b600052603260045260246000fd5b90600052602060002001805461425290615c52565b80601f016020809104026020016040519081016040528092919081815260200182805461427e90615c52565b80156142cb5780601f106142a0576101008083540402835291602001916142cb565b820191906000526020600020905b8154815290600101906020018083116142ae57829003601f168201915b505050505060a45460a45460016142e29190615b7e565b614cd1565b806142f181615c8d565b915050614211565b504761430361504d565b61430d8383615bd5565b815260005b848110156143f8576143e660bf828154811061433e57634e487b7160e01b600052603260045260246000fd5b90600052602060002001805461435390615c52565b80601f016020809104026020016040519081016040528092919081815260200182805461437f90615c52565b80156143cc5780601f106143a1576101008083540402835291602001916143cc565b820191906000526020600020905b8154815290600101906020018083116143af57829003601f168201915b505050505060a45460016143e09190615b7e565b88614cd1565b806143f081615c8d565b915050614312565b506144038247615bd5565b60208201819052815160009161441891615b7e565b9050600060a4548761442a9190615bd5565b90506000614439600183615bd5565b60be546144469190615bb6565b614451600184615bd5565b60bd5461445e9190615bb6565b8360bc5461446c9190615bb6565b6144769190615b7e565b6144809190615bd5565b9050801561482f5760c55460a4546000916001600160a01b031690633cc2681e906144ad90600190615bd5565b6144b860018d615bd5565b6040516001600160e01b031960e085901b168152600481019290925260248201526044016040805180830381600087803b1580156144f557600080fd5b505af1158015614509573d6000803e3d6000fd5b505050506040513d601f19601f8201168201806040525081019061452d919061553f565b60c55460a4549192506000916001600160a01b0390911690632eedcb189061455790600190615bd5565b6040518263ffffffff1660e01b815260040161457591815260200190565b604080518083038186803b15801561458c57600080fd5b505afa1580156145a0573d6000803e3d6000fd5b505050506040513d601f19601f820116820180604052508101906145c4919061553f565b905060008060008060bc54111561468a5760bc5489516145ea9064e8d4a5100090615bb6565b6145f49190615b96565b925061460664e8d4a510006064615bb6565b60208501516146159085615bb6565b61461f9190615b96565b6146299083615b7e565b915061463b64e8d4a510006064615bb6565b845160bc5461464a9190615bd5565b614655600986615bb6565b61465f9190615bb6565b6146699190615b96565b6146739082615b7e565b60a454600090815260c46020526040902084905590505b60bc5486111561479d5760bc546146a19087615bd5565b60208a01516146b69064e8d4a5100090615bb6565b6146c09190615b96565b92506146d264e8d4a510006064615bb6565b602080860151908701516146e69190615bd5565b6146f09085615bb6565b6146fa9190615b96565b6147049083615b7e565b915061471664e8d4a510006064615bb6565b845186516147249190615bd5565b60bc546147319089615bd5565b61473b9190615bd5565b614746600986615bb6565b6147509190615bb6565b61475a9190615b96565b6147649082615b7e565b9050600060a45460016147779190615b7e565b90505b8d81101561479b57600081815260c46020526040902084905560010161477a565b505b60006147aa60648a615b96565b9050600081836147ba868d615bd5565b6147c49190615bd5565b6147ce9190615bd5565b90506147da8385615b7e565b60ad60008282546147eb9190615b7e565b9250508190555081609b60008282546148049190615b7e565b9250508190555080609c600082825461481d9190615b7e565b90915550614847975050505050505050565b8260ad60008282546148419190615b7e565b90915550505b600060be81905560bd55609d5460405163b39fd5cf60e01b81526001600160a01b039091169063b39fd5cf9061488290609890600401615a54565b60206040518083038186803b15801561489a57600080fd5b505afa1580156148ae573d6000803e3d6000fd5b505050506040513d601f19601f820116820180604052508101906148d291906156bd565b60bc555050505050505050565b60a4545b81811015611a2957604051631b70ba6560e01b815261500190631b70ba659061491290309085906004016158e4565b600060405180830381600087803b15801561492c57600080fd5b505af192505050801561493d575060015b6149c0573d80801561496b576040519150601f19603f3d011682016040523d82523d6000602084013e614970565b606091505b508060405161497f91906157ef565b60408051918290038220600085815260c460205291822054909285927fd498dea2d0c05beb55c31ed0854ee53e1cae52b3032855d37a0e7cc1af9a275491a4505b6001016148e3565b6004609a54600a6149d99190615bb6565b6149e39190615b96565b60a9546149f190600a615bb6565b6149fb9190615b7e565b614a0682600a615bb6565b1015614a0f5750565b60bf5460005b81811015614ae257614ada60bf8281548110614a4157634e487b7160e01b600052603260045260246000fd5b906000526020600020018054614a5690615c52565b80601f0160208091040260200160405190810160405280929190818152602001828054614a8290615c52565b8015614acf5780601f10614aa457610100808354040283529160200191614acf565b820191906000526020600020905b815481529060010190602001808311614ab257829003601f168201915b505050505084614e7c565b600101614a15565b505060a955565b60606000614af8836002615bb6565b614b03906002615b7e565b6001600160401b03811115614b2857634e487b7160e01b600052604160045260246000fd5b6040519080825280601f01601f191660200182016040528015614b52576020820181803683370190505b509050600360fc1b81600081518110614b7b57634e487b7160e01b600052603260045260246000fd5b60200101906001600160f81b031916908160001a905350600f60fb1b81600181518110614bb857634e487b7160e01b600052603260045260246000fd5b60200101906001600160f81b031916908160001a9053506000614bdc846002615bb6565b614be7906001615b7e565b90505b6001811115614c7b576f181899199a1a9b1b9c1cb0b131b232b360811b85600f1660108110614c2957634e487b7160e01b600052603260045260246000fd5b1a60f81b828281518110614c4d57634e487b7160e01b600052603260045260246000fd5b60200101906001600160f81b031916908160001a90535060049490941c93614c7481615c3b565b9050614bea565b508315614cca5760405162461bcd60e51b815260206004820181905260248201527f537472696e67733a20686578206c656e67746820696e73756666696369656e7460448201526064016110d2565b9392505050565b600060c284604051614ce391906157ef565b9081526040519081900360200190205460ff16614d1e5760c384604051614d0a91906157ef565b908152602001604051809103902054614d20565b815b9050825b81811015612caa576150016001600160a01b031663a0b9d8be60c087604051614d4d91906157ef565b908152604051908190036020018120546001600160e01b031960e084901b1682526001600160a01b03166004820152602401600060405180830381600087803b158015614d9957600080fd5b505af1925050508015614daa575060015b614e39573d808015614dd8576040519150601f19603f3d011682016040523d82523d6000602084013e614ddd565b606091505b5080604051614dec91906157ef565b60405180910390208287604051614e0391906157ef565b604051908190038120907fe92a3c7a04201825f5511627b1065ebf99f2e562a3071da98959b67390f40b8590600090a450614e74565b807fe3ad3e6ae6e2f00623af1899e05e142e09f8af5b7f4e9b765d94646d6bb9b89282604051614e6b91815260200190565b60405180910390a25b600101614d24565b600060c083604051614e8e91906157ef565b90815260200160405180910390209050806002015460001415614eb057505050565b60c283604051614ec091906157ef565b9081526040519081900360200190205460ff16158015614efd575060c383604051614eeb91906157ef565b90815260200160405180910390205482115b15614f0757505050565b805460028201546040516363c20ee960e11b81526150019263c7841dd292614f3d926001600160a01b03909216916004016158e4565b600060405180830381600087803b158015614f5757600080fd5b505af1925050508015614f68575060015b615005573d808015614f96576040519150601f19603f3d011682016040523d82523d6000602084013e614f9b565b606091505b5080604051614faa91906157ef565b60405180910390208385604051614fc191906157ef565b60405190819003812060028601548252907f3e8c350ba500216bc0dc1717cad4db6a92e07dedabe48c3498743b062f8fa5229060200160405180910390a450505050565b817fd112be63e7fceb2dddc1fcf8ae6159d873af98be4505daee865e08f2aeae802d60b55460405161503991815260200190565b60405180910390a260006002820155505050565b60405180604001604052806002906020820280368337509192915050565b5080546000825590600052602060002090810190612e6a91905b808211156150995760008155600101615085565b5090565b80356001600160a01b03811681146150b457600080fd5b919050565b600082601f8301126150c9578081fd5b813560206150de6150d983615b34565b615b04565b80838252828201915082860187848660051b89010111156150fd578586fd5b855b8581101561513d5781356001600160401b0381111561511c578788fd5b61512a8a87838c01016151a7565b85525092840192908401906001016150ff565b5090979650505050505050565b600082601f83011261515a578081fd5b8135602061516a6150d983615b34565b80838252828201915082860187848660051b8901011115615189578586fd5b855b8581101561513d5781358452928401929084019060010161518b565b600082601f8301126151b7578081fd5b81356151c56150d982615b57565b8181528460208386010111156151d9578283fd5b816020850160208301379081016020019190915292915050565b600060208284031215615204578081fd5b614cca8261509d565b6000806040838503121561521f578081fd5b6152288361509d565b915060208301356001600160401b03811115615242578182fd5b61524e858286016150b9565b9150509250929050565b6000806040838503121561526a578182fd5b6152738361509d565b915060208301356001600160401b0381111561528d578182fd5b61524e858286016151a7565b600080604083850312156152ab578182fd5b6152b48361509d565b946020939093013593505050565b6000806000606084860312156152d6578081fd5b6152df8461509d565b95602085013595506040909401359392505050565b60006020808385031215615306578182fd5b82356001600160401b0381111561531b578283fd5b8301601f8101851361532b578283fd5b80356153396150d982615b34565b80828252848201915084840188868560051b8701011115615358578687fd5b8694505b838510156153815761536d8161509d565b83526001949094019391850191850161535c565b50979650505050505050565b6000602080838503121561539f578182fd5b82516001600160401b03808211156153b5578384fd5b818501915085601f8301126153c8578384fd5b81516153d66150d982615b34565b80828252858201915085850189878560051b88010111156153f5578788fd5b875b848110156154665781518681111561540d57898afd5b8701603f81018c1361541d57898afd5b88810151604061542f6150d983615b57565b8281528e82848601011115615442578c8dfd5b615451838d8301848701615c0f565b875250505092870192908701906001016153f7565b50909998505050505050505050565b60008060408385031215615487578182fd5b82356001600160401b038082111561549d578384fd5b6154a9868387016150b9565b935060208501359150808211156154be578283fd5b5061524e8582860161514a565b6000806000606084860312156154df578081fd5b83356001600160401b03808211156154f5578283fd5b615501878388016150b9565b94506020860135915080821115615516578283fd5b506155238682870161514a565b925050604084013561553481615cd4565b809150509250925092565b600060408284031215615550578081fd5b82601f83011261555e578081fd5b604051604081018181106001600160401b038211171561558057615580615cbe565b8060405250808385604086011115615596578384fd5b835b60028110156155b7578151835260209283019290910190600101615598565b509195945050505050565b6000602082840312156155d3578081fd5b8151614cca81615cd4565b6000602082840312156155ef578081fd5b5035919050565b60008060408385031215615608578182fd5b823591506156186020840161509d565b90509250929050565b600060208284031215615632578081fd5b81356001600160e01b031981168114614cca578182fd5b60006020828403121561565a578081fd5b81356001600160401b0381111561566f578182fd5b61245d848285016151a7565b6000806040838503121561568d578182fd5b82356001600160401b038111156156a2578283fd5b6156ae858286016151a7565b9250506156186020840161509d565b6000602082840312156156ce578081fd5b5051919050565b600080604083850312156156e7578182fd5b8251915060208301516156f981615cd4565b809150509250929050565b600060208284031215615715578081fd5b815160ff81168114614cca578182fd5b6000815180845261573d816020860160208601615c0f565b601f01601f19169290920160200192915050565b8054600090600181811c908083168061576b57607f831692505b602080841082141561578b57634e487b7160e01b86526022600452602486fd5b838852602088018280156157a657600181146157b7576157e2565b60ff198716825282820197506157e2565b60008981526020902060005b878110156157dc578154848201529086019084016157c3565b83019850505b5050505050505092915050565b60008251615801818460208701615c0f565b9190910192915050565b7f416363657373436f6e74726f6c3a206163636f756e7420000000000000000000815260008351615843816017850160208801615c0f565b7001034b99036b4b9b9b4b733903937b6329607d1b6017918401918201528351615874816028840160208801615c0f565b01602801949350505050565b6001600160a01b03841681526060602082018190526000906158a490830185615725565b82810360408401526158b68185615751565b9695505050505050565b6001600160a01b038316815260406020820181905260009061245d90830184615751565b6001600160a01b039290921682526fffffffffffffffffffffffffffffffff16602082015260400190565b60018060a01b03851681528360208201526080604082015260006159366080830185615725565b82810360608401526159488185615751565b979650505050505050565b60408101818360005b60028110156159855781516001600160e01b03191683526020928301929091019060010161595c565b50505092915050565b60208101600283106159b057634e487b7160e01b600052602160045260246000fd5b91905290565b602081526000614cca6020830184615725565b6060815260006159dc6060830186615725565b6001600160a01b039490941660208301525060400152919050565b608081526000615a0a6080830187615725565b6001600160a01b03959095166020830152506040810192909252606090910152919050565b604081526000615a426040830185615725565b905060ff831660208301529392505050565b602081526000614cca6020830184615751565b60208082526017908201527f496e636f727265637420617272617973206c656e677468000000000000000000604082015260600190565b60208082526017908201527f4e6f206f6e65207574696c6974792073656c6563746564000000000000000000604082015260600190565b6020808252601590820152744f6e6c7920666f72206469737472696275746f722160581b604082015260600190565b604051601f8201601f191681016001600160401b0381118282101715615b2c57615b2c615cbe565b604052919050565b60006001600160401b03821115615b4d57615b4d615cbe565b5060051b60200190565b60006001600160401b03821115615b7057615b70615cbe565b50601f01601f191660200190565b60008219821115615b9157615b91615ca8565b500190565b600082615bb157634e487b7160e01b81526012600452602481fd5b500490565b6000816000190483118215151615615bd057615bd0615ca8565b500290565b600082821015615be757615be7615ca8565b500390565b600060ff821660ff841680821015615c0657615c06615ca8565b90039392505050565b60005b83811015615c2a578181015183820152602001615c12565b8381111561270e5750506000910152565b600081615c4a57615c4a615ca8565b506000190190565b600181811c90821680615c6657607f821691505b60208210811415615c8757634e487b7160e01b600052602260045260246000fd5b50919050565b6000600019821415615ca157615ca1615ca8565b5060010190565b634e487b7160e01b600052601160045260246000fd5b634e487b7160e01b600052604160045260246000fd5b8015158114612e6a57600080fdfeaf290d8680820aad922855f39b306097b20e28774d6c1ad35a20325630c3a02ca2646970667358221220e72bf4cc4040739331d5848024dec7bafb2c336eb4a20076bdc3db5bda3f3cb964736f6c63430008040033",
    "linkReferences": {}
  },
  "methodIdentifiers": {
    "DAPPS_STAKING()": "59b40f41",
    "DEFAULT_ADMIN_ROLE()": "a217fddf",
    "DNTname()": "40bf8a8d",
    "MANAGEMENT_FEE()": "5f1554e3",
    "MANAGER()": "1b2df850",
    "REVENUE_FEE()": "4421bd1e",
    "REWARDS_PRECISION()": "86b3cd26",
    "UNSTAKING_FEE()": "59601ebc",
    "accumulatedRewardsPerShare(uint256)": "a2ce0f4a",
    "adaptersDistr()": "e2e836f8",
    "addPartner(address)": "8bf34237",
    "addStaker(address,string)": "e932b37b",
    "addStakers(address[])": "bf290845",
    "buffer(address,uint256)": "54b057f9",
    "claim(string[],uint256[])": "1f19014b",
    "claimAll()": "d1058e59",
    "claimingTxLimit()": "00179fbd",
    "currentEra()": "973628f6",
    "dapps(string)": "dcf425df",
    "dappsList(uint256)": "da3bc958",
    "deactivationEra(string)": "2a14d8f4",
    "distr()": "6bbea766",
    "dntToken()": "05e2a217",
    "eraBuffer(uint256)": "c21a7276",
    "eraRevenue(uint256)": "eb51a44c",
    "eraRewards(uint256)": "1dc00785",
    "eraShotsLimit()": "f128f631",
    "eraStakerReward(uint256)": "2ea31bf6",
    "eraUnstaked(uint256)": "c4e137e7",
    "getRoleAdmin(bytes32)": "248a9ca3",
    "getSelectors()": "4b503f0b",
    "grantRole(bytes32,address)": "2f2ff15d",
    "hasRole(bytes32,address)": "91d14854",
    "haveUtility(string)": "6f68f2e9",
    "isActive(string)": "c8902a21",
    "isLpToken(address)": "0f24ca7d",
    "isPartner(address)": "8c0f9aac",
    "isStaker(address)": "6f1e8533",
    "isUnstakes()": "2e4a4a17",
    "lastClaimed()": "adc1b956",
    "lastEraTotalBalance()": "e77ee345",
    "lastStaked()": "12a12a06",
    "lastUnstaked()": "5495ec81",
    "lastUpdated()": "d0b06f5d",
    "liquidStakingManager()": "5ca5914e",
    "lpHandlers(address)": "e09c1954",
    "lpTokens(uint256)": "1bb5e2dc",
    "minStakeAmount()": "f1887684",
    "nftDistr()": "bd1bbd3b",
    "partnerIdx(address)": "a5ae02ac",
    "partners(uint256)": "c3b49d04",
    "partnersLimit()": "4d617451",
    "paused()": "5c975abb",
    "previewUserRewards(string,address)": "b8d7cac9",
    "removeStakers()": "fc6e6786",
    "renounceRole(bytes32,address)": "36568abe",
    "revokeRole(bytes32,address)": "d547741f",
    "rewardPool()": "66666aa9",
    "setFreeDest()": "d78cfe06",
    "stake(string[],uint256[])": "a22eae1b",
    "stakers(uint256)": "fd5e6dd1",
    "stakes(address)": "16934fc4",
    "sum2unstake()": "af66c36b",
    "supportsInterface(bytes4)": "01ffc9a7",
    "sync(uint256)": "b1357bf9",
    "syncHarvest(address,string[])": "12b3b4e6",
    "totalBalance()": "ad7a672f",
    "totalRevenue()": "bf2d9e0b",
    "totalUserRewards(address)": "a44bca8e",
    "unbondedPool()": "c71367b5",
    "unstake(string[],uint256[],bool)": "24f0f548",
    "unstakingPool()": "6f5e4488",
    "update()": "a2e62045",
    "updateUserBalanceInAdapter(string,address)": "c78731dc",
    "updateUserBalanceInUtility(string,address)": "386df6eb",
    "usersShotsPerEra(address,uint256,uint256)": "d6356ff4",
    "utilName()": "ab486929",
    "withdraw(uint256)": "2e1a7d4d",
    "withdrawBlock()": "24025b19",
    "withdrawals(address,uint256)": "422b1077"
  },
  "id": 3
}