{
  "abi": [
    {
      "anonymous": false,
      "inputs": [
        {
          "indexed": true,
          "internalType": "uint256",
          "name": "amount",
          "type": "uint256"
        },
        {
          "indexed": true,
          "internalType": "uint256",
          "name": "era",
          "type": "uint256"
        },
        {
          "indexed": true,
          "internalType": "bytes",
          "name": "reason",
          "type": "bytes"
        }
      ],
      "name": "ClaimDappError",
      "type": "event"
    },
    {
      "anonymous": false,
      "inputs": [
        {
          "indexed": false,
          "internalType": "uint256",
          "name": "eraStakerReward",
          "type": "uint256"
        },
        {
          "indexed": true,
          "internalType": "uint256",
          "name": "_era",
          "type": "uint256"
        }
      ],
      "name": "ClaimDappSuccess",
      "type": "event"
    },
    {
      "anonymous": false,
      "inputs": [
        {
          "indexed": true,
          "internalType": "string",
          "name": "utility",
          "type": "string"
        },
        {
          "indexed": true,
          "internalType": "uint256",
          "name": "era",
          "type": "uint256"
        },
        {
          "indexed": true,
          "internalType": "bytes",
          "name": "reason",
          "type": "bytes"
        }
      ],
      "name": "ClaimStakerError",
      "type": "event"
    },
    {
      "anonymous": false,
      "inputs": [
        {
          "indexed": true,
          "internalType": "uint256",
          "name": "era",
          "type": "uint256"
        },
        {
          "indexed": false,
          "internalType": "uint256",
          "name": "lastClaimed",
          "type": "uint256"
        }
      ],
      "name": "ClaimStakerSuccess",
      "type": "event"
    },
    {
      "anonymous": false,
      "inputs": [
        {
          "indexed": true,
          "internalType": "address",
          "name": "user",
          "type": "address"
        },
        {
          "indexed": false,
          "internalType": "uint256",
          "name": "amount",
          "type": "uint256"
        }
      ],
      "name": "Claimed",
      "type": "event"
    },
    {
      "anonymous": false,
      "inputs": [
        {
          "indexed": true,
          "internalType": "address",
          "name": "user",
          "type": "address"
        },
        {
          "indexed": true,
          "internalType": "string",
          "name": "utility",
          "type": "string"
        },
        {
          "indexed": false,
          "internalType": "uint256",
          "name": "amount",
          "type": "uint256"
        }
      ],
      "name": "ClaimedFromUtility",
      "type": "event"
    },
    {
      "anonymous": false,
      "inputs": [
        {
          "indexed": true,
          "internalType": "address",
          "name": "sender",
          "type": "address"
        },
        {
          "indexed": false,
          "internalType": "uint256",
          "name": "value",
          "type": "uint256"
        }
      ],
      "name": "FillRewardPool",
      "type": "event"
    },
    {
      "anonymous": false,
      "inputs": [
        {
          "indexed": true,
          "internalType": "address",
          "name": "sender",
          "type": "address"
        },
        {
          "indexed": false,
          "internalType": "uint256",
          "name": "value",
          "type": "uint256"
        }
      ],
      "name": "FillUnbonded",
      "type": "event"
    },
    {
      "anonymous": false,
      "inputs": [
        {
          "indexed": true,
          "internalType": "address",
          "name": "sender",
          "type": "address"
        },
        {
          "indexed": false,
          "internalType": "uint256",
          "name": "value",
          "type": "uint256"
        }
      ],
      "name": "FillUnstaking",
      "type": "event"
    },
    {
      "anonymous": false,
      "inputs": [
        {
          "indexed": true,
          "internalType": "address",
          "name": "user",
          "type": "address"
        },
        {
          "indexed": true,
          "internalType": "string",
          "name": "utility",
          "type": "string"
        },
        {
          "indexed": false,
          "internalType": "uint256",
          "name": "amount",
          "type": "uint256"
        }
      ],
      "name": "HarvestRewards",
      "type": "event"
    },
    {
      "anonymous": false,
      "inputs": [
        {
          "indexed": false,
          "internalType": "uint8",
          "name": "version",
          "type": "uint8"
        }
      ],
      "name": "Initialized",
      "type": "event"
    },
    {
      "anonymous": false,
      "inputs": [
        {
          "indexed": true,
          "internalType": "bytes32",
          "name": "role",
          "type": "bytes32"
        },
        {
          "indexed": true,
          "internalType": "bytes32",
          "name": "previousAdminRole",
          "type": "bytes32"
        },
        {
          "indexed": true,
          "internalType": "bytes32",
          "name": "newAdminRole",
          "type": "bytes32"
        }
      ],
      "name": "RoleAdminChanged",
      "type": "event"
    },
    {
      "anonymous": false,
      "inputs": [
        {
          "indexed": true,
          "internalType": "bytes32",
          "name": "role",
          "type": "bytes32"
        },
        {
          "indexed": true,
          "internalType": "address",
          "name": "account",
          "type": "address"
        },
        {
          "indexed": true,
          "internalType": "address",
          "name": "sender",
          "type": "address"
        }
      ],
      "name": "RoleGranted",
      "type": "event"
    },
    {
      "anonymous": false,
      "inputs": [
        {
          "indexed": true,
          "internalType": "bytes32",
          "name": "role",
          "type": "bytes32"
        },
        {
          "indexed": true,
          "internalType": "address",
          "name": "account",
          "type": "address"
        },
        {
          "indexed": true,
          "internalType": "address",
          "name": "sender",
          "type": "address"
        }
      ],
      "name": "RoleRevoked",
      "type": "event"
    },
    {
      "anonymous": false,
      "inputs": [
        {
          "indexed": true,
          "internalType": "address",
          "name": "sender",
          "type": "address"
        },
        {
          "indexed": false,
          "internalType": "uint256",
          "name": "amount",
          "type": "uint256"
        }
      ],
      "name": "SetMinStakeAmount",
      "type": "event"
    },
    {
      "anonymous": false,
      "inputs": [
        {
          "indexed": true,
          "internalType": "address",
          "name": "user",
          "type": "address"
        },
        {
          "indexed": false,
          "internalType": "uint256",
          "name": "val",
          "type": "uint256"
        }
      ],
      "name": "Staked",
      "type": "event"
    },
    {
      "anonymous": false,
      "inputs": [
        {
          "indexed": true,
          "internalType": "address",
          "name": "user",
          "type": "address"
        },
        {
          "indexed": true,
          "internalType": "string",
          "name": "utility",
          "type": "string"
        },
        {
          "indexed": false,
          "internalType": "uint256",
          "name": "val",
          "type": "uint256"
        }
      ],
      "name": "StakedInUtility",
      "type": "event"
    },
    {
      "anonymous": false,
      "inputs": [
        {
          "indexed": true,
          "internalType": "address",
          "name": "sender",
          "type": "address"
        },
        {
          "indexed": true,
          "internalType": "uint256",
          "name": "era",
          "type": "uint256"
        }
      ],
      "name": "Synchronization",
      "type": "event"
    },
    {
      "anonymous": false,
      "inputs": [
        {
          "indexed": true,
          "internalType": "string",
          "name": "utility",
          "type": "string"
        },
        {
          "indexed": false,
          "internalType": "uint256",
          "name": "sum2unstake",
          "type": "uint256"
        },
        {
          "indexed": true,
          "internalType": "uint256",
          "name": "era",
          "type": "uint256"
        },
        {
          "indexed": true,
          "internalType": "bytes",
          "name": "reason",
          "type": "bytes"
        }
      ],
      "name": "UnbondAndUnstakeError",
      "type": "event"
    },
    {
      "anonymous": false,
      "inputs": [
        {
          "indexed": true,
          "internalType": "uint256",
          "name": "era",
          "type": "uint256"
        },
        {
          "indexed": false,
          "internalType": "uint256",
          "name": "sum2unstake",
          "type": "uint256"
        }
      ],
      "name": "UnbondAndUnstakeSuccess",
      "type": "event"
    },
    {
      "anonymous": false,
      "inputs": [
        {
          "indexed": true,
          "internalType": "address",
          "name": "user",
          "type": "address"
        },
        {
          "indexed": false,
          "internalType": "uint256",
          "name": "amount",
          "type": "uint256"
        },
        {
          "indexed": false,
          "internalType": "bool",
          "name": "immediate",
          "type": "bool"
        }
      ],
      "name": "Unstaked",
      "type": "event"
    },
    {
      "anonymous": false,
      "inputs": [
        {
          "indexed": true,
          "internalType": "address",
          "name": "user",
          "type": "address"
        },
        {
          "indexed": true,
          "internalType": "string",
          "name": "utility",
          "type": "string"
        },
        {
          "indexed": false,
          "internalType": "uint256",
          "name": "amount",
          "type": "uint256"
        },
        {
          "indexed": false,
          "internalType": "bool",
          "name": "immediate",
          "type": "bool"
        }
      ],
      "name": "UnstakedFromUtility",
      "type": "event"
    },
    {
      "anonymous": false,
      "inputs": [
        {
          "indexed": false,
          "internalType": "uint256",
          "name": "amount",
          "type": "uint256"
        }
      ],
      "name": "WithdrawRevenue",
      "type": "event"
    },
    {
      "anonymous": false,
      "inputs": [
        {
          "indexed": true,
          "internalType": "uint256",
          "name": "_era",
          "type": "uint256"
        },
        {
          "indexed": true,
          "internalType": "bytes",
          "name": "reason",
          "type": "bytes"
        }
      ],
      "name": "WithdrawUnbondedError",
      "type": "event"
    },
    {
      "anonymous": false,
      "inputs": [
        {
          "indexed": true,
          "internalType": "uint256",
          "name": "_era",
          "type": "uint256"
        }
      ],
      "name": "WithdrawUnbondedSuccess",
      "type": "event"
    },
    {
      "anonymous": false,
      "inputs": [
        {
          "indexed": true,
          "internalType": "address",
          "name": "user",
          "type": "address"
        },
        {
          "indexed": false,
          "internalType": "uint256",
          "name": "val",
          "type": "uint256"
        }
      ],
      "name": "Withdrawn",
      "type": "event"
    },
    {
      "inputs": [],
      "name": "DAPPS_STAKING",
      "outputs": [
        {
          "internalType": "contract DappsStaking",
          "name": "",
          "type": "address"
        }
      ],
      "stateMutability": "view",
      "type": "function"
    },
    {
      "inputs": [],
      "name": "DEFAULT_ADMIN_ROLE",
      "outputs": [
        {
          "internalType": "bytes32",
          "name": "",
          "type": "bytes32"
        }
      ],
      "stateMutability": "view",
      "type": "function"
    },
    {
      "inputs": [],
      "name": "DNTname",
      "outputs": [
        {
          "internalType": "string",
          "name": "",
          "type": "string"
        }
      ],
      "stateMutability": "view",
      "type": "function"
    },
    {
      "inputs": [],
      "name": "MANAGEMENT_FEE",
      "outputs": [
        {
          "internalType": "uint8",
          "name": "",
          "type": "uint8"
        }
      ],
      "stateMutability": "view",
      "type": "function"
    },
    {
      "inputs": [],
      "name": "MANAGER",
      "outputs": [
        {
          "internalType": "bytes32",
          "name": "",
          "type": "bytes32"
        }
      ],
      "stateMutability": "view",
      "type": "function"
    },
    {
      "inputs": [],
      "name": "REVENUE_FEE",
      "outputs": [
        {
          "internalType": "uint8",
          "name": "",
          "type": "uint8"
        }
      ],
      "stateMutability": "view",
      "type": "function"
    },
    {
      "inputs": [],
      "name": "REWARDS_PRECISION",
      "outputs": [
        {
          "internalType": "uint256",
          "name": "",
          "type": "uint256"
        }
      ],
      "stateMutability": "view",
      "type": "function"
    },
    {
      "inputs": [],
      "name": "UNSTAKING_FEE",
      "outputs": [
        {
          "internalType": "uint8",
          "name": "",
          "type": "uint8"
        }
      ],
      "stateMutability": "view",
      "type": "function"
    },
    {
      "inputs": [
        {
          "internalType": "uint256",
          "name": "",
          "type": "uint256"
        }
      ],
      "name": "accumulatedRewardsPerShare",
      "outputs": [
        {
          "internalType": "uint256",
          "name": "",
          "type": "uint256"
        }
      ],
      "stateMutability": "view",
      "type": "function"
    },
    {
      "inputs": [],
      "name": "adaptersDistr",
      "outputs": [
        {
          "internalType": "contract IAdaptersDistributor",
          "name": "",
          "type": "address"
        }
      ],
      "stateMutability": "view",
      "type": "function"
    },
    {
      "inputs": [
        {
          "internalType": "address",
          "name": "_addr",
          "type": "address"
        },
        {
          "internalType": "string",
          "name": "_utility",
          "type": "string"
        }
      ],
      "name": "addStaker",
      "outputs": [],
      "stateMutability": "nonpayable",
      "type": "function"
    },
    {
      "inputs": [
        {
          "internalType": "address[]",
          "name": "_stakers",
          "type": "address[]"
        }
      ],
      "name": "addStakers",
      "outputs": [],
      "stateMutability": "nonpayable",
      "type": "function"
    },
    {
      "inputs": [
        {
          "internalType": "address",
          "name": "",
          "type": "address"
        },
        {
          "internalType": "uint256",
          "name": "",
          "type": "uint256"
        }
      ],
      "name": "buffer",
      "outputs": [
        {
          "internalType": "uint256",
          "name": "",
          "type": "uint256"
        }
      ],
      "stateMutability": "view",
      "type": "function"
    },
    {
      "inputs": [
        {
          "internalType": "string[]",
          "name": "_utilities",
          "type": "string[]"
        },
        {
          "internalType": "uint256[]",
          "name": "_amounts",
          "type": "uint256[]"
        }
      ],
      "name": "claim",
      "outputs": [],
      "stateMutability": "nonpayable",
      "type": "function"
    },
    {
      "inputs": [],
      "name": "claimAll",
      "outputs": [],
      "stateMutability": "nonpayable",
      "type": "function"
    },
    {
      "inputs": [],
      "name": "claimingTxLimit",
      "outputs": [
        {
          "internalType": "uint256",
          "name": "",
          "type": "uint256"
        }
      ],
      "stateMutability": "view",
      "type": "function"
    },
    {
      "inputs": [],
      "name": "currentEra",
      "outputs": [
        {
          "internalType": "uint256",
          "name": "",
          "type": "uint256"
        }
      ],
      "stateMutability": "view",
      "type": "function"
    },
    {
      "inputs": [
        {
          "internalType": "string",
          "name": "",
          "type": "string"
        }
      ],
      "name": "dapps",
      "outputs": [
        {
          "internalType": "address",
          "name": "dappAddress",
          "type": "address"
        },
        {
          "internalType": "uint256",
          "name": "stakedBalance",
          "type": "uint256"
        },
        {
          "internalType": "uint256",
          "name": "sum2unstake",
          "type": "uint256"
        }
      ],
      "stateMutability": "view",
      "type": "function"
    },
    {
      "inputs": [
        {
          "internalType": "uint256",
          "name": "",
          "type": "uint256"
        }
      ],
      "name": "dappsList",
      "outputs": [
        {
          "internalType": "string",
          "name": "",
          "type": "string"
        }
      ],
      "stateMutability": "view",
      "type": "function"
    },
    {
      "inputs": [
        {
          "internalType": "string",
          "name": "",
          "type": "string"
        }
      ],
      "name": "deactivationEra",
      "outputs": [
        {
          "internalType": "uint256",
          "name": "",
          "type": "uint256"
        }
      ],
      "stateMutability": "view",
      "type": "function"
    },
    {
      "inputs": [],
      "name": "distr",
      "outputs": [
        {
          "internalType": "contract NDistributor",
          "name": "",
          "type": "address"
        }
      ],
      "stateMutability": "view",
      "type": "function"
    },
    {
      "inputs": [],
      "name": "dntToken",
      "outputs": [
        {
          "internalType": "address",
          "name": "",
          "type": "address"
        }
      ],
      "stateMutability": "view",
      "type": "function"
    },
    {
      "inputs": [
        {
          "internalType": "uint256",
          "name": "",
          "type": "uint256"
        }
      ],
      "name": "eraBuffer",
      "outputs": [
        {
          "internalType": "uint256",
          "name": "",
          "type": "uint256"
        }
      ],
      "stateMutability": "view",
      "type": "function"
    },
    {
      "inputs": [
        {
          "internalType": "uint256",
          "name": "",
          "type": "uint256"
        }
      ],
      "name": "eraRevenue",
      "outputs": [
        {
          "internalType": "bool",
          "name": "done",
          "type": "bool"
        },
        {
          "internalType": "uint256",
          "name": "val",
          "type": "uint256"
        }
      ],
      "stateMutability": "view",
      "type": "function"
    },
    {
      "inputs": [
        {
          "internalType": "uint256",
          "name": "",
          "type": "uint256"
        }
      ],
      "name": "eraRewards",
      "outputs": [
        {
          "internalType": "uint256",
          "name": "",
          "type": "uint256"
        }
      ],
      "stateMutability": "view",
      "type": "function"
    },
    {
      "inputs": [],
      "name": "eraShotsLimit",
      "outputs": [
        {
          "internalType": "uint256",
          "name": "",
          "type": "uint256"
        }
      ],
      "stateMutability": "view",
      "type": "function"
    },
    {
      "inputs": [
        {
          "internalType": "uint256",
          "name": "",
          "type": "uint256"
        }
      ],
      "name": "eraStakerReward",
      "outputs": [
        {
          "internalType": "bool",
          "name": "done",
          "type": "bool"
        },
        {
          "internalType": "uint256",
          "name": "val",
          "type": "uint256"
        }
      ],
      "stateMutability": "view",
      "type": "function"
    },
    {
      "inputs": [
        {
          "internalType": "uint256",
          "name": "",
          "type": "uint256"
        }
      ],
      "name": "eraUnstaked",
      "outputs": [
        {
          "internalType": "bool",
          "name": "done",
          "type": "bool"
        },
        {
          "internalType": "uint256",
          "name": "val",
          "type": "uint256"
        }
      ],
      "stateMutability": "view",
      "type": "function"
    },
    {
      "inputs": [
        {
          "internalType": "bytes32",
          "name": "role",
          "type": "bytes32"
        }
      ],
      "name": "getRoleAdmin",
      "outputs": [
        {
          "internalType": "bytes32",
          "name": "",
          "type": "bytes32"
        }
      ],
      "stateMutability": "view",
      "type": "function"
    },
    {
      "inputs": [],
      "name": "getSelectors",
      "outputs": [
        {
          "internalType": "bytes4[2]",
          "name": "",
          "type": "bytes4[2]"
        }
      ],
      "stateMutability": "pure",
      "type": "function"
    },
    {
      "inputs": [
        {
          "internalType": "bytes32",
          "name": "role",
          "type": "bytes32"
        },
        {
          "internalType": "address",
          "name": "account",
          "type": "address"
        }
      ],
      "name": "grantRole",
      "outputs": [],
      "stateMutability": "nonpayable",
      "type": "function"
    },
    {
      "inputs": [
        {
          "internalType": "bytes32",
          "name": "role",
          "type": "bytes32"
        },
        {
          "internalType": "address",
          "name": "account",
          "type": "address"
        }
      ],
      "name": "hasRole",
      "outputs": [
        {
          "internalType": "bool",
          "name": "",
          "type": "bool"
        }
      ],
      "stateMutability": "view",
      "type": "function"
    },
    {
      "inputs": [
        {
          "internalType": "string",
          "name": "",
          "type": "string"
        }
      ],
      "name": "haveUtility",
      "outputs": [
        {
          "internalType": "bool",
          "name": "",
          "type": "bool"
        }
      ],
      "stateMutability": "view",
      "type": "function"
    },
    {
      "inputs": [
        {
          "internalType": "string",
          "name": "",
          "type": "string"
        }
      ],
      "name": "isActive",
      "outputs": [
        {
          "internalType": "bool",
          "name": "",
          "type": "bool"
        }
      ],
      "stateMutability": "view",
      "type": "function"
    },
    {
      "inputs": [
        {
          "internalType": "address",
          "name": "",
          "type": "address"
        }
      ],
      "name": "isLpToken",
      "outputs": [
        {
          "internalType": "bool",
          "name": "",
          "type": "bool"
        }
      ],
      "stateMutability": "view",
      "type": "function"
    },
    {
      "inputs": [
        {
          "internalType": "address",
          "name": "",
          "type": "address"
        }
      ],
      "name": "isPartner",
      "outputs": [
        {
          "internalType": "bool",
          "name": "",
          "type": "bool"
        }
      ],
      "stateMutability": "view",
      "type": "function"
    },
    {
      "inputs": [
        {
          "internalType": "address",
          "name": "",
          "type": "address"
        }
      ],
      "name": "isStaker",
      "outputs": [
        {
          "internalType": "bool",
          "name": "",
          "type": "bool"
        }
      ],
      "stateMutability": "view",
      "type": "function"
    },
    {
      "inputs": [],
      "name": "isUnstakes",
      "outputs": [
        {
          "internalType": "bool",
          "name": "",
          "type": "bool"
        }
      ],
      "stateMutability": "view",
      "type": "function"
    },
    {
      "inputs": [],
      "name": "lastClaimed",
      "outputs": [
        {
          "internalType": "uint256",
          "name": "",
          "type": "uint256"
        }
      ],
      "stateMutability": "view",
      "type": "function"
    },
    {
      "inputs": [],
      "name": "lastEraTotalBalance",
      "outputs": [
        {
          "internalType": "uint256",
          "name": "",
          "type": "uint256"
        }
      ],
      "stateMutability": "view",
      "type": "function"
    },
    {
      "inputs": [],
      "name": "lastStaked",
      "outputs": [
        {
          "internalType": "uint256",
          "name": "",
          "type": "uint256"
        }
      ],
      "stateMutability": "view",
      "type": "function"
    },
    {
      "inputs": [],
      "name": "lastUnstaked",
      "outputs": [
        {
          "internalType": "uint256",
          "name": "",
          "type": "uint256"
        }
      ],
      "stateMutability": "view",
      "type": "function"
    },
    {
      "inputs": [],
      "name": "lastUpdated",
      "outputs": [
        {
          "internalType": "uint256",
          "name": "",
          "type": "uint256"
        }
      ],
      "stateMutability": "view",
      "type": "function"
    },
    {
      "inputs": [],
      "name": "liquidStakingManager",
      "outputs": [
        {
          "internalType": "address",
          "name": "",
          "type": "address"
        }
      ],
      "stateMutability": "view",
      "type": "function"
    },
    {
      "inputs": [
        {
          "internalType": "address",
          "name": "",
          "type": "address"
        }
      ],
      "name": "lpHandlers",
      "outputs": [
        {
          "internalType": "address",
          "name": "",
          "type": "address"
        }
      ],
      "stateMutability": "view",
      "type": "function"
    },
    {
      "inputs": [
        {
          "internalType": "uint256",
          "name": "",
          "type": "uint256"
        }
      ],
      "name": "lpTokens",
      "outputs": [
        {
          "internalType": "address",
          "name": "",
          "type": "address"
        }
      ],
      "stateMutability": "view",
      "type": "function"
    },
    {
      "inputs": [],
      "name": "minStakeAmount",
      "outputs": [
        {
          "internalType": "uint256",
          "name": "",
          "type": "uint256"
        }
      ],
      "stateMutability": "view",
      "type": "function"
    },
    {
      "inputs": [],
      "name": "nftDistr",
      "outputs": [
        {
          "internalType": "contract INFTDistributor",
          "name": "",
          "type": "address"
        }
      ],
      "stateMutability": "view",
      "type": "function"
    },
    {
      "inputs": [
        {
          "internalType": "address",
          "name": "",
          "type": "address"
        }
      ],
      "name": "partnerIdx",
      "outputs": [
        {
          "internalType": "uint256",
          "name": "",
          "type": "uint256"
        }
      ],
      "stateMutability": "view",
      "type": "function"
    },
    {
      "inputs": [
        {
          "internalType": "uint256",
          "name": "",
          "type": "uint256"
        }
      ],
      "name": "partners",
      "outputs": [
        {
          "internalType": "address",
          "name": "",
          "type": "address"
        }
      ],
      "stateMutability": "view",
      "type": "function"
    },
    {
      "inputs": [],
      "name": "partnersLimit",
      "outputs": [
        {
          "internalType": "uint256",
          "name": "",
          "type": "uint256"
        }
      ],
      "stateMutability": "view",
      "type": "function"
    },
    {
      "inputs": [],
      "name": "paused",
      "outputs": [
        {
          "internalType": "bool",
          "name": "",
          "type": "bool"
        }
      ],
      "stateMutability": "view",
      "type": "function"
    },
    {
      "inputs": [
        {
          "internalType": "string",
          "name": "_utility",
          "type": "string"
        },
        {
          "internalType": "address",
          "name": "_user",
          "type": "address"
        }
      ],
      "name": "previewUserRewards",
      "outputs": [
        {
          "internalType": "uint256",
          "name": "",
          "type": "uint256"
        }
      ],
      "stateMutability": "view",
      "type": "function"
    },
    {
      "inputs": [],
      "name": "removeStakers",
      "outputs": [],
      "stateMutability": "nonpayable",
      "type": "function"
    },
    {
      "inputs": [
        {
          "internalType": "bytes32",
          "name": "role",
          "type": "bytes32"
        },
        {
          "internalType": "address",
          "name": "account",
          "type": "address"
        }
      ],
      "name": "renounceRole",
      "outputs": [],
      "stateMutability": "nonpayable",
      "type": "function"
    },
    {
      "inputs": [
        {
          "internalType": "bytes32",
          "name": "role",
          "type": "bytes32"
        },
        {
          "internalType": "address",
          "name": "account",
          "type": "address"
        }
      ],
      "name": "revokeRole",
      "outputs": [],
      "stateMutability": "nonpayable",
      "type": "function"
    },
    {
      "inputs": [],
      "name": "rewardPool",
      "outputs": [
        {
          "internalType": "uint256",
          "name": "",
          "type": "uint256"
        }
      ],
      "stateMutability": "view",
      "type": "function"
    },
    {
      "inputs": [],
      "name": "setFreeDest",
      "outputs": [],
      "stateMutability": "nonpayable",
      "type": "function"
    },
    {
      "inputs": [
        {
          "internalType": "string[]",
          "name": "_utilities",
          "type": "string[]"
        },
        {
          "internalType": "uint256[]",
          "name": "_amounts",
          "type": "uint256[]"
        }
      ],
      "name": "stake",
      "outputs": [],
      "stateMutability": "payable",
      "type": "function"
    },
    {
      "inputs": [
        {
          "internalType": "uint256",
          "name": "",
          "type": "uint256"
        }
      ],
      "name": "stakers",
      "outputs": [
        {
          "internalType": "address",
          "name": "",
          "type": "address"
        }
      ],
      "stateMutability": "view",
      "type": "function"
    },
    {
      "inputs": [
        {
          "internalType": "address",
          "name": "",
          "type": "address"
        }
      ],
      "name": "stakes",
      "outputs": [
        {
          "internalType": "uint256",
          "name": "totalBalance",
          "type": "uint256"
        },
        {
          "internalType": "uint256",
          "name": "eraStarted",
          "type": "uint256"
        }
      ],
      "stateMutability": "view",
      "type": "function"
    },
    {
      "inputs": [],
      "name": "sum2unstake",
      "outputs": [
        {
          "internalType": "uint256",
          "name": "",
          "type": "uint256"
        }
      ],
      "stateMutability": "view",
      "type": "function"
    },
    {
      "inputs": [
        {
          "internalType": "bytes4",
          "name": "interfaceId",
          "type": "bytes4"
        }
      ],
      "name": "supportsInterface",
      "outputs": [
        {
          "internalType": "bool",
          "name": "",
          "type": "bool"
        }
      ],
      "stateMutability": "view",
      "type": "function"
    },
    {
      "inputs": [
        {
          "internalType": "uint256",
          "name": "_era",
          "type": "uint256"
        }
      ],
      "name": "sync",
      "outputs": [],
      "stateMutability": "nonpayable",
      "type": "function"
    },
    {
      "inputs": [
        {
          "internalType": "address",
          "name": "_user",
          "type": "address"
        },
        {
          "internalType": "string[]",
          "name": "_utilities",
          "type": "string[]"
        }
      ],
      "name": "syncHarvest",
      "outputs": [],
      "stateMutability": "nonpayable",
      "type": "function"
    },
    {
      "inputs": [],
      "name": "totalBalance",
      "outputs": [
        {
          "internalType": "uint256",
          "name": "",
          "type": "uint256"
        }
      ],
      "stateMutability": "view",
      "type": "function"
    },
    {
      "inputs": [],
      "name": "totalRevenue",
      "outputs": [
        {
          "internalType": "uint256",
          "name": "",
          "type": "uint256"
        }
      ],
      "stateMutability": "view",
      "type": "function"
    },
    {
      "inputs": [
        {
          "internalType": "address",
          "name": "",
          "type": "address"
        }
      ],
      "name": "totalUserRewards",
      "outputs": [
        {
          "internalType": "uint256",
          "name": "",
          "type": "uint256"
        }
      ],
      "stateMutability": "view",
      "type": "function"
    },
    {
      "inputs": [],
      "name": "unbondedPool",
      "outputs": [
        {
          "internalType": "uint256",
          "name": "",
          "type": "uint256"
        }
      ],
      "stateMutability": "view",
      "type": "function"
    },
    {
      "inputs": [
        {
          "internalType": "string[]",
          "name": "_utilities",
          "type": "string[]"
        },
        {
          "internalType": "uint256[]",
          "name": "_amounts",
          "type": "uint256[]"
        },
        {
          "internalType": "bool",
          "name": "_immediate",
          "type": "bool"
        }
      ],
      "name": "unstake",
      "outputs": [],
      "stateMutability": "nonpayable",
      "type": "function"
    },
    {
      "inputs": [],
      "name": "unstakingPool",
      "outputs": [
        {
          "internalType": "uint256",
          "name": "",
          "type": "uint256"
        }
      ],
      "stateMutability": "view",
      "type": "function"
    },
    {
      "inputs": [
        {
          "internalType": "string",
          "name": "_utility",
          "type": "string"
        },
        {
          "internalType": "address",
          "name": "_user",
          "type": "address"
        }
      ],
      "name": "updateUserBalanceInAdapter",
      "outputs": [],
      "stateMutability": "nonpayable",
      "type": "function"
    },
    {
      "inputs": [
        {
          "internalType": "string",
          "name": "_utility",
          "type": "string"
        },
        {
          "internalType": "address",
          "name": "_user",
          "type": "address"
        }
      ],
      "name": "updateUserBalanceInUtility",
      "outputs": [],
      "stateMutability": "nonpayable",
      "type": "function"
    },
    {
      "inputs": [
        {
          "internalType": "address",
          "name": "",
          "type": "address"
        },
        {
          "internalType": "uint256",
          "name": "",
          "type": "uint256"
        },
        {
          "internalType": "uint256",
          "name": "",
          "type": "uint256"
        }
      ],
      "name": "usersShotsPerEra",
      "outputs": [
        {
          "internalType": "uint256",
          "name": "",
          "type": "uint256"
        }
      ],
      "stateMutability": "view",
      "type": "function"
    },
    {
      "inputs": [],
      "name": "utilName",
      "outputs": [
        {
          "internalType": "string",
          "name": "",
          "type": "string"
        }
      ],
      "stateMutability": "view",
      "type": "function"
    },
    {
      "inputs": [
        {
          "internalType": "uint256",
          "name": "_id",
          "type": "uint256"
        }
      ],
      "name": "withdraw",
      "outputs": [],
      "stateMutability": "nonpayable",
      "type": "function"
    },
    {
      "inputs": [],
      "name": "withdrawBlock",
      "outputs": [
        {
          "internalType": "uint256",
          "name": "",
          "type": "uint256"
        }
      ],
      "stateMutability": "view",
      "type": "function"
    },
    {
      "inputs": [
        {
          "internalType": "address",
          "name": "",
          "type": "address"
        },
        {
          "internalType": "uint256",
          "name": "",
          "type": "uint256"
        }
      ],
      "name": "withdrawals",
      "outputs": [
        {
          "internalType": "uint256",
          "name": "val",
          "type": "uint256"
        },
        {
          "internalType": "uint256",
          "name": "eraReq",
          "type": "uint256"
        },
        {
          "internalType": "uint256",
          "name": "lag",
          "type": "uint256"
        }
      ],
      "stateMutability": "view",
      "type": "function"
    }
  ],
  "bytecode": {
    "object": "0x608060405234801561001057600080fd5b50615b9f80620000216000396000f3fe60806040526004361061045c5760003560e01c80638c0f9aac1161023f578063c4e137e711610139578063dcf425df116100b6578063eb51a44c1161007a578063eb51a44c14610ea4578063f128f63114610ede578063f188768414610ef4578063fc6e678614610f0a578063fd5e6dd114610f1f57600080fd5b8063dcf425df14610da2578063e09c195414610e18578063e2e836f814610e4e578063e77ee34514610e6e578063e932b37b14610e8457600080fd5b8063d1058e59116100fd578063d1058e5914610d18578063d547741f14610d2d578063d6356ff414610d4d578063d78cfe0614610d6d578063da3bc95814610d8257600080fd5b8063c4e137e714610c57578063c71367b514610c91578063c78731dc14610ca7578063c8902a2114610cc7578063d0b06f5d14610d0257600080fd5b8063ad7a672f116101c7578063bd1bbd3b1161018b578063bd1bbd3b14610bc1578063bf29084514610be1578063bf2d9e0b14610c01578063c21a727614610c17578063c3b49d0414610c3757600080fd5b8063ad7a672f14610b3f578063adc1b95614610b55578063af66c36b14610b6b578063b1357bf914610b81578063b8d7cac914610ba157600080fd5b8063a22eae1b1161020e578063a22eae1b14610a90578063a2ce0f4a14610aa3578063a44bca8e14610ad0578063a5ae02ac14610afd578063ab48692914610b2a57600080fd5b80638c0f9aac14610a1657806391d1485414610a46578063973628f614610a66578063a217fddf14610a7b57600080fd5b806336568abe1161035b57806359b40f41116102d85780636bbea7661161029c5780636bbea7661461095c5780636f1e85331461097c5780636f5e4488146109ac5780636f68f2e9146109c257806386b3cd26146109fd57600080fd5b806359b40f41146108da5780635c975abb146108f05780635ca5914e146109115780635f1554e31461093157806366666aa91461094657600080fd5b80634b503f0b1161031f5780634b503f0b1461083f5780634d617451146108615780635495ec811461087757806354b057f91461088d57806359601ebc146108c557600080fd5b806336568abe1461077b578063386df6eb1461079b57806340bf8a8d146107bb578063422b1077146107dd5780634421bd1e1461081857600080fd5b80631dc00785116103e95780632a14d8f4116103ad5780632a14d8f4146106985780632e1a7d4d146106d05780632e4a4a17146106f05780632ea31bf61461070a5780632f2ff15d1461075b57600080fd5b80631dc00785146105e55780631f19014b1461061257806324025b1914610632578063248a9ca31461064857806324f0f5481461067857600080fd5b806312a12a061161043057806312a12a061461052257806312b3b4e61461053857806316934fc41461055a5780631b2df850146105a35780631bb5e2dc146105c557600080fd5b8062179fbd1461046157806301ffc9a71461048a57806305e2a217146104ba5780630f24ca7d146104f2575b600080fd5b34801561046d57600080fd5b5061047760b75481565b6040519081526020015b60405180910390f35b34801561049657600080fd5b506104aa6104a5366004615488565b610f3f565b6040519015158152602001610481565b3480156104c657600080fd5b5060a6546104da906001600160a01b031681565b6040516001600160a01b039091168152602001610481565b3480156104fe57600080fd5b506104aa61050d36600461505a565b60aa6020526000908152604090205460ff1681565b34801561052e57600080fd5b5061047760a85481565b34801561054457600080fd5b50610558610553366004615074565b610f76565b005b34801561056657600080fd5b5061058e61057536600461505a565b609e602052600090815260409020805460019091015482565b60408051928352602083019190915201610481565b3480156105af57600080fd5b50610477600080516020615b4a83398151915281565b3480156105d157600080fd5b506104da6105e0366004615445565b61103a565b3480156105f157600080fd5b50610477610600366004615445565b60ac6020526000908152604090205481565b34801561061e57600080fd5b5061055861062d3660046152dc565b611064565b34801561063e57600080fd5b50610477609a5481565b34801561065457600080fd5b50610477610663366004615445565b60009081526065602052604090206001015490565b34801561068457600080fd5b50610558610693366004615332565b61116b565b3480156106a457600080fd5b506104776106b33660046154b0565b805160208183018101805160c38252928201919093012091525481565b3480156106dc57600080fd5b506105586106eb366004615445565b61173a565b3480156106fc57600080fd5b5060b6546104aa9060ff1681565b34801561071657600080fd5b50610744610725366004615445565b60a1602052600090815260409020805460019091015460ff9091169082565b604080519215158352602083019190915201610481565b34801561076757600080fd5b5061055861077636600461545d565b61193a565b34801561078757600080fd5b5061055861079636600461545d565b611964565b3480156107a757600080fd5b506105586107b63660046154e2565b6119e2565b3480156107c757600080fd5b506107d0611a2b565b604051610481919061581d565b3480156107e957600080fd5b506107fd6107f8366004615100565b611ab9565b60408051938452602084019290925290820152606001610481565b34801561082457600080fd5b5061082d600981565b60405160ff9091168152602001610481565b34801561084b57600080fd5b50610854611afb565b60405161048191906157ba565b34801561086d57600080fd5b5061047760bb5481565b34801561088357600080fd5b5061047760a95481565b34801561089957600080fd5b506104776108a8366004615100565b60ae60209081526000928352604080842090915290825290205481565b3480156108d157600080fd5b5061082d600181565b3480156108e657600080fd5b506104da61500181565b3480156108fc57600080fd5b5060c7546104aa90600160a01b900460ff1681565b34801561091d57600080fd5b5060c7546104da906001600160a01b031681565b34801561093d57600080fd5b5061082d600a81565b34801561095257600080fd5b50610477609c5481565b34801561096857600080fd5b50609d546104da906001600160a01b031681565b34801561098857600080fd5b506104aa61099736600461505a565b60a76020526000908152604090205460ff1681565b3480156109b857600080fd5b50610477609b5481565b3480156109ce57600080fd5b506104aa6109dd3660046154b0565b805160208183018101805160c18252928201919093012091525460ff1681565b348015610a0957600080fd5b5061047764e8d4a5100081565b348015610a2257600080fd5b506104aa610a3136600461505a565b60b86020526000908152604090205460ff1681565b348015610a5257600080fd5b506104aa610a6136600461545d565b611b28565b348015610a7257600080fd5b50610477611b53565b348015610a8757600080fd5b50610477600081565b610558610a9e3660046152dc565b611bcd565b348015610aaf57600080fd5b50610477610abe366004615445565b60c46020526000908152604090205481565b348015610adc57600080fd5b50610477610aeb36600461505a565b60b06020526000908152604090205481565b348015610b0957600080fd5b50610477610b1836600461505a565b60b96020526000908152604090205481565b348015610b3657600080fd5b506107d0612227565b348015610b4b57600080fd5b5061047760995481565b348015610b6157600080fd5b5061047760b35481565b348015610b7757600080fd5b5061047760b55481565b348015610b8d57600080fd5b50610558610b9c366004615445565b612234565b348015610bad57600080fd5b50610477610bbc3660046154e2565b6122dc565b348015610bcd57600080fd5b5060c5546104da906001600160a01b031681565b348015610bed57600080fd5b50610558610bfc36600461515b565b612340565b348015610c0d57600080fd5b5061047760ad5481565b348015610c2357600080fd5b50610477610c32366004615445565b6125ef565b348015610c4357600080fd5b506104da610c52366004615445565b612606565b348015610c6357600080fd5b50610744610c72366004615445565b60a0602052600090815260409020805460019091015460ff9091169082565b348015610c9d57600080fd5b5061047760a35481565b348015610cb357600080fd5b50610558610cc23660046154e2565b612616565b348015610cd357600080fd5b506104aa610ce23660046154b0565b805160208183018101805160c28252928201919093012091525460ff1681565b348015610d0e57600080fd5b5061047760a45481565b348015610d2457600080fd5b5061055861272d565b348015610d3957600080fd5b50610558610d4836600461545d565b612ab6565b348015610d5957600080fd5b50610477610d68366004615129565b612adb565b348015610d7957600080fd5b50610558612b19565b348015610d8e57600080fd5b506107d0610d9d366004615445565b612b8c565b348015610dae57600080fd5b50610df3610dbd3660046154b0565b805160208183018101805160c0825292820191909301209152805460018201546002909201546001600160a01b03909116919083565b604080516001600160a01b039094168452602084019290925290820152606001610481565b348015610e2457600080fd5b506104da610e3336600461505a565b60b1602052600090815260409020546001600160a01b031681565b348015610e5a57600080fd5b5060c6546104da906001600160a01b031681565b348015610e7a57600080fd5b5061047760bc5481565b348015610e9057600080fd5b50610558610e9f3660046150bf565b612bb7565b348015610eb057600080fd5b50610744610ebf366004615445565b60a2602052600090815260409020805460019091015460ff9091169082565b348015610eea57600080fd5b5061047760b25481565b348015610f0057600080fd5b5061047760b45481565b348015610f1657600080fd5b50610558612d21565b348015610f2b57600080fd5b506104da610f3a366004615445565b612d48565b60006001600160e01b03198216637965db0b60e01b1480610f7057506301ffc9a760e01b6001600160e01b03198316145b92915050565b600080516020615b4a833981519152610f8e81612d58565b81518390839060005b81811015610fe257610fd0838281518110610fc257634e487b7160e01b600052603260045260246000fd5b602002602001015185612d62565b80610fda81615af4565b915050610f97565b5060005b818110156110315761101f83828151811061101157634e487b7160e01b600052603260045260246000fd5b6020026020010151856130cd565b8061102981615af4565b915050610fe6565b50505050505050565b60ab818154811061104a57600080fd5b6000918252602090912001546001600160a01b0316905081565b818160008251116110905760405162461bcd60e51b815260040161108790615905565b60405180910390fd5b80518251146110b15760405162461bcd60e51b8152600401611087906158ce565b60006110bb611b53565b90508060a454146110cf576110cf8161314f565b84513390869060005b8181101561111557611103838281518110610fc257634e487b7160e01b600052603260045260246000fd5b8061110d81615af4565b9150506110d8565b506111208888613178565b60005b818110156111605761114e83828151811061101157634e487b7160e01b600052603260045260246000fd5b8061115881615af4565b915050611123565b505050505050505050565b8282600082511161118e5760405162461bcd60e51b815260040161108790615905565b80518251146111af5760405162461bcd60e51b8152600401611087906158ce565b60006111b9611b53565b90508060a454146111cd576111cd8161314f565b6000806111d8611b53565b885190915060005b818110156116d15760c18a828151811061120a57634e487b7160e01b600052603260045260246000fd5b602002602001015160405161121f9190615656565b9081526040519081900360200190205460ff166112705760405162461bcd60e51b815260206004820152600f60248201526e556e6b6e6f776e207574696c69747960881b6044820152606401611087565b600089828151811061129257634e487b7160e01b600052603260045260246000fd5b602002602001015111156116bf5760008a82815181106112c257634e487b7160e01b600052603260045260246000fd5b6020026020010151905060008a83815181106112ee57634e487b7160e01b600052603260045260246000fd5b6020908102919091010151609d5460405163e1d9b41760e01b81529192506000916001600160a01b039091169063e1d9b4179061133490339087906098906004016156e7565b60206040518083038186803b15801561134c57600080fd5b505afa158015611360573d6000803e3d6000fd5b505050506040513d601f19601f820116820180604052508101906113849190615524565b9050818110156113d65760405162461bcd60e51b815260206004820152601b60248201527f4e6f7420656e6f756768206e4153545220696e207574696c69747900000000006044820152606401611087565b600060c0846040516113e89190615656565b908152602001604051809103902090506114028433612d62565b61140d81888561358a565b8281600201600082825461142191906159e5565b92505081905550826099600082825461143a9190615a3c565b92505081905550828160010160008282546114559190615a3c565b9091555050609d54604051632937555f60e21b81526001600160a01b039091169063a4dd557c9061149190339087908990609890600401615776565b600060405180830381600087803b1580156114ab57600080fd5b505af11580156114bf573d6000803e3d6000fd5b505050508b156115755782609b54101561151b5760405162461bcd60e51b815260206004820152601760248201527f556e7374616b696e6720706f6f6c20647261696e6564210000000000000000006044820152606401611087565b60006115286064856159fd565b90508060ad600082825461153c91906159e5565b9250508190555083609b60008282546115559190615a3c565b9091555061156f90506115688286615a3c565b3390613647565b5061165d565b600061158288600a615a1d565b6004609a54600a6115939190615a1d565b61159d91906159fd565b60a9546115ab90600a615a1d565b6115b591906159e5565b1115611606576115c688600a615a1d565b6004609a54600a6115d79190615a1d565b6115e191906159fd565b60a9546115ef90600a615a1d565b6115f991906159e5565b6116039190615a3c565b90505b336000908152609f6020908152604080832081516060810183528881528084018d81529281019586528154600181810184559286529390942093516003909302909301918255519181019190915590516002909101555b61166783896159e5565b9750836040516116779190615656565b604080519182900382208583528e151560208401529133917f9ea511fbdfb8cad72fe86c90f2b4bd44693fb585a82c8719ca0c2ac8b4053c6b910160405180910390a3505050505b806116c981615af4565b9150506111e0565b508215611160578260bd60010160008282546116ed91906159e5565b909155505060408051848152881515602082015233917f4416ca74b4c9dd8d6070d91c267a6cf53734c0f343ced0ad02471ccb5417037e91015b60405180910390a2505050505050505050565b6000611744611b53565b90508060a45414611758576117588161314f565b336000908152609f6020526040812080548490811061178757634e487b7160e01b600052603260045260246000fd5b6000918252602082206003909102018054909250906117a4611b53565b90508260010154600014156117fb5760405162461bcd60e51b815260206004820152601a60248201527f5769746864726177616c20616c726561647920636c61696d65640000000000006044820152606401611087565b6002830154609a5461180e90600a615a1d565b61181891906159e5565b600184015461182890600a615a1d565b61183383600a615a1d565b61183d9190615a3c565b101561188b5760405162461bcd60e51b815260206004820152601760248201527f4e6f7420656e6f756768206572617320706173736564210000000000000000006044820152606401611087565b8160a35410156118d65760405162461bcd60e51b8152602060048201526016602482015275556e626f6e64656420706f6f6c20647261696e65642160501b6044820152606401611087565b8160a360008282546118e89190615a3c565b9091555050600060018401556118fe3383613647565b60405182815233907f7084f5476618d8e60b11ef0d7d3f06914655adb8793e28ff7f018d4c76d505d59060200160405180910390a25050505050565b60008281526065602052604090206001015461195581612d58565b61195f8383613760565b505050565b6001600160a01b03811633146119d45760405162461bcd60e51b815260206004820152602f60248201527f416363657373436f6e74726f6c3a2063616e206f6e6c792072656e6f756e636560448201526e103937b632b9903337b91039b2b63360891b6064820152608401611087565b6119de82826137e6565b5050565b609d546001600160a01b0316331480611a05575060c6546001600160a01b031633145b611a215760405162461bcd60e51b81526004016110879061593c565b6119de82826130cd565b60988054611a3890615ab9565b80601f0160208091040260200160405190810160405280929190818152602001828054611a6490615ab9565b8015611ab15780601f10611a8657610100808354040283529160200191611ab1565b820191906000526020600020905b815481529060010190602001808311611a9457829003601f168201915b505050505081565b609f6020528160005260406000208181548110611ad557600080fd5b600091825260209091206003909102018054600182015460029092015490935090915083565b611b03614eb4565b506040805180820190915263bf29084560e01b8152637e3733c360e11b602082015290565b60009182526065602090815260408084206001600160a01b0393909316845291905290205460ff1690565b60006150016001600160a01b031663e608d80b6040518163ffffffff1660e01b815260040160206040518083038186803b158015611b9057600080fd5b505afa158015611ba4573d6000803e3d6000fd5b505050506040513d601f19601f82011682018060405250810190611bc89190615524565b905090565b81816000825111611bf05760405162461bcd60e51b815260040161108790615905565b8051825114611c115760405162461bcd60e51b8152600401611087906158ce565b6000611c1b611b53565b90508060a45414611c2f57611c2f8161314f565b845134906000805b82811015611d875760c2898281518110611c6157634e487b7160e01b600052603260045260246000fd5b6020026020010151604051611c769190615656565b9081526040519081900360200190205460ff16611cc75760405162461bcd60e51b815260206004820152600f60248201526e44617070206e6f742061637469766560881b6044820152606401611087565b60b454888281518110611cea57634e487b7160e01b600052603260045260246000fd5b60200260200101511015611d405760405162461bcd60e51b815260206004820152601760248201527f4e6f7420656e6f756768207374616b6520616d6f756e740000000000000000006044820152606401611087565b878181518110611d6057634e487b7160e01b600052603260045260246000fd5b602002602001015182611d7391906159e5565b915080611d7f81615af4565b915050611c37565b5060008111611dcc5760405162461bcd60e51b8152602060048201526011602482015270496e636f727265637420616d6f756e747360781b6044820152606401611087565b80831015611e0e5760405162461bcd60e51b815260206004820152600f60248201526e496e636f72726563742076616c756560881b6044820152606401611087565b8060bd6000016000828254611e2391906159e5565b9091555060009050611e33611b53565b33600090815260a7602052604090205490915060ff16611e685733600090815260a760205260409020805460ff191660011790555b8160996000828254611e7a91906159e5565b90915550611e8d90506115688386615a3c565b60005b838110156121f45760c08a8281518110611eba57634e487b7160e01b600052603260045260246000fd5b6020026020010151604051611ecf9190615656565b9081526040805160209281900383019020336000908152600391820190935291200154611f5c57611f018260016159e5565b60c08b8381518110611f2357634e487b7160e01b600052603260045260246000fd5b6020026020010151604051611f389190615656565b90815260408051602092819003830190203360009081526003918201909352912001555b6000898281518110611f7e57634e487b7160e01b600052603260045260246000fd5b602002602001015111156121e25760008a8281518110611fae57634e487b7160e01b600052603260045260246000fd5b602002602001015190506150016001600160a01b03166352b73e4160c083604051611fd99190615656565b908152604051908190036020019020548c516001600160a01b03909116908d908690811061201757634e487b7160e01b600052603260045260246000fd5b60200260200101516040518363ffffffff1660e01b815260040161203c92919061574b565b600060405180830381600087803b15801561205657600080fd5b505af115801561206a573d6000803e3d6000fd5b5050609d548c516001600160a01b03909116925063398a1329915033908d90869081106120a757634e487b7160e01b600052603260045260246000fd5b60200260200101518460986040518563ffffffff1660e01b81526004016120d19493929190615776565b600060405180830381600087803b1580156120eb57600080fd5b505af11580156120ff573d6000803e3d6000fd5b5050505089828151811061212357634e487b7160e01b600052603260045260246000fd5b602002602001015160c08260405161213b9190615656565b9081526020016040518091039020600101600082825461215b91906159e5565b909155505060405161216e908290615656565b6040518091039020336001600160a01b03167f3c8bcf34be6605e590f1ef6c776b246c9568fd25b21b847fe22f998cff48eb9e8c85815181106121c157634e487b7160e01b600052603260045260246000fd5b60200260200101516040516121d891815260200190565b60405180910390a3505b806121ec81615af4565b915050611e90565b5060405182815233907f9e71bc8eea02a63969f509818f2dafb9254532904319f9dbda79b67bd34a5f3d90602001611727565b60978054611a3890615ab9565b600080516020615b4a83398151915261224c81612d58565b60a454821180156122645750612260611b53565b8211155b6122a25760405162461bcd60e51b815260206004820152600f60248201526e57726f6e67206572612072616e676560881b6044820152606401611087565b6122ab8261314f565b604051829033907fb3a1bc35f2ae5834830c888981da2a3da5e47f57fc47da50ca9e18d31a083d0490600090a35050565b6000806122e9848461384d565b505050905060c0846040516122fe9190615656565b90815260408051602092819003830190206001600160a01b03861660009081526003909101835220600201549082015161233891906159e5565b949350505050565b600080516020615b4a83398151915261235881612d58565b6040805161010081018252600d60c082019081526c4c69717569645374616b696e6760981b60e0830152815281518083018352600c81526b417374617220446567656e7360a01b60208281019190915280830191909152825180840184526008815267041727468537761760c41b818301528284015282518084018452601781527f417374617220436f726520436f6e7472696275746f7273000000000000000000818301526060830152825180840184526005815264416c67656d60d81b8183015260808301528251808401909352600983526841737472696444414f60b81b9083015260a081019190915260005b83518110156125e957600084828151811061247357634e487b7160e01b600052603260045260246000fd5b6020908102919091018101516001600160a01b038116600081815260a790935260408320805460ff1916600190811790915560a58054918201815584527fb29a2b3b6f2ff1b765777a231725941da5072cc4fcc30ac4a2ce09706e8ddeff0180546001600160a01b031916909117905591505b60068110156125df5760c084826006811061251157634e487b7160e01b600052603260045260246000fd5b60200201516040516125239190615656565b90815260200160405180910390206003016000836001600160a01b03166001600160a01b0316815260200190815260200160002060030154600014156125d75761256b611b53565b6125769060016159e5565b60c085836006811061259857634e487b7160e01b600052603260045260246000fd5b60200201516040516125aa9190615656565b90815260408051602092819003830190206001600160a01b03861660009081526003918201909352912001555b6001016124e6565b5050600101612448565b50505050565b60bd81600281106125ff57600080fd5b0154905081565b60ba818154811061104a57600080fd5b609d546001600160a01b0316331480612639575060c6546001600160a01b031633145b6126555760405162461bcd60e51b81526004016110879061593c565b6001600160a01b0381166126a15760405162461bcd60e51b81526020600482015260136024820152725a65726f206164647265737320616c61726d2160681b6044820152606401611087565b60c6546040516343704d8760e11b81526001600160a01b03838116600483015260009216906386e09b0e906024015b60206040518083038186803b1580156126e857600080fd5b505afa1580156126fc573d6000803e3d6000fd5b505050506040513d601f19601f820116820180604052508101906127209190615524565b905061195f838383613dbb565b6000612737611b53565b90508060a4541461274b5761274b8161314f565b609d5460405163e0a3b21f60e01b81526000916001600160a01b03169063e0a3b21f9061277f903390609890600401615727565b60006040518083038186803b15801561279757600080fd5b505afa1580156127ab573d6000803e3d6000fd5b505050506040513d6000823e601f3d908101601f191682016040526127d391908101906151f4565b805190915060006127e58260016159e5565b6001600160401b0381111561280a57634e487b7160e01b600052604160045260246000fd5b604051908082528060200260200182016040528015612833578160200160208202803683370190505b50905060006128438360016159e5565b6001600160401b0381111561286857634e487b7160e01b600052604160045260246000fd5b60405190808252806020026020018201604052801561289b57816020015b60608152602001906001900390816128865790505b50905060005b8381101561290f578481815181106128c957634e487b7160e01b600052603260045260246000fd5b60200260200101518282815181106128f157634e487b7160e01b600052603260045260246000fd5b6020026020010181905250808061290790615af4565b9150506128a1565b506040518060400160405280600f81526020016e41646170746572735574696c69747960881b81525081848151811061295857634e487b7160e01b600052603260045260246000fd5b602002602001018190525060005b6129718460016159e5565b811015612a55576129a982828151811061299b57634e487b7160e01b600052603260045260246000fd5b602002602001015133612d62565b60c08282815181106129cb57634e487b7160e01b600052603260045260246000fd5b60200260200101516040516129e09190615656565b90815260200160405180910390206003016000336001600160a01b03166001600160a01b0316815260200190815260200160002060020154838281518110612a3857634e487b7160e01b600052603260045260246000fd5b602090810291909101015280612a4d81615af4565b915050612966565b50612a608183613178565b60005b83811015612aae57612a9c828281518110612a8e57634e487b7160e01b600052603260045260246000fd5b6020026020010151336130cd565b80612aa681615af4565b915050612a63565b505050505050565b600082815260656020526040902060010154612ad181612d58565b61195f83836137e6565b60af6020528260005260406000206020528160005260406000208181548110612b0357600080fd5b9060005260206000200160009250925050505481565b600080516020615b4a833981519152612b3181612d58565b60405163258d874360e11b815261500190634b1b0e8690612b57906000906004016157f5565b600060405180830381600087803b158015612b7157600080fd5b505af1158015612b85573d6000803e3d6000fd5b5050505050565b60bf8181548110612b9c57600080fd5b906000526020600020016000915090508054611a3890615ab9565b609d546001600160a01b0316331480612bda575060c6546001600160a01b031633145b612bf65760405162461bcd60e51b81526004016110879061593c565b6001600160a01b038216600090815260a7602052604090205460ff16612c7c576001600160a01b038216600081815260a760205260408120805460ff1916600190811790915560a5805491820181559091527fb29a2b3b6f2ff1b765777a231725941da5072cc4fcc30ac4a2ce09706e8ddeff0180546001600160a01b03191690911790555b60c081604051612c8c9190615656565b90815260200160405180910390206003016000836001600160a01b03166001600160a01b0316815260200190815260200160002060030154600014156119de57612cd4611b53565b612cdf9060016159e5565b60c082604051612cef9190615656565b908152604080519182900360209081019092206001600160a01b03861660009081526003918201909352912001555050565b600080516020615b4a833981519152612d3981612d58565b612d4560a56000614ed2565b50565b60a5818154811061104a57600080fd5b612d458133613ee3565b600080600080612d72868661384d565b93509350935093508015612f39578160c087604051612d919190615656565b90815260408051602092819003830190206001600160a01b03891660009081526003909101835281812060a454825290925290205581612dd2576001612dd5565b60005b60c087604051612de59190615656565b90815260408051602092819003830190206001600160a01b0389811660009081526003909201845282822060a480548452600191820190955292909120805460ff19169415159490941790935560c5549154919092169163fb35f9879189918991612e509190615a3c565b88516040516001600160e01b031960e087901b168152612e76949392919060040161585e565b600060405180830381600087803b158015612e9057600080fd5b505af1158015612ea4573d6000803e3d6000fd5b505060c55460a4546001600160a01b039091169250630cbd535e915087908690612ed090600190615a3c565b6040516001600160e01b031960e086901b1681526001600160a01b03909316600484015260ff90911660248301526044820152606401600060405180830381600087803b158015612f2057600080fd5b505af1158015612f34573d6000803e3d6000fd5b505050505b60c086604051612f499190615656565b90815260200160405180910390206003016000866001600160a01b03166001600160a01b0316815260200190815260200160002060030154600014612fc85760a45460c087604051612f9b9190615656565b90815260408051602092819003830190206001600160a01b03891660009081526003918201909352912001555b6020840151612fd957505050505050565b602084015160405160c090612fef908990615656565b90815260200160405180910390206003016000876001600160a01b03166001600160a01b03168152602001908152602001600020600201600082825461303591906159e5565b90915550506020808501516001600160a01b038716600090815260b0909252604082208054919290916130699084906159e5565b909155505060405161307c908790615656565b604051908190038120602080870151835290916001600160a01b038816917fe031024ebd0ad1a1f63e67d469a2409c8f8877c863d4213103c331bbabafa0a6910160405180910390a3505050505050565b6001600160a01b0381166131195760405162461bcd60e51b81526020600482015260136024820152725a65726f206164647265737320616c61726d2160681b6044820152606401611087565b609d5460405163e1d9b41760e01b81526000916001600160a01b03169063e1d9b417906126d090859087906098906004016156e7565b61315881613f47565b61316181614065565b61316a81614746565b6131738161482f565b60a455565b81516000805b828110156135015760008482815181106131a857634e487b7160e01b600052603260045260246000fd5b602002602001015111156134ef57600060c08683815181106131da57634e487b7160e01b600052603260045260246000fd5b60200260200101516040516131ef9190615656565b9081526020016040518091039020905084828151811061321f57634e487b7160e01b600052603260045260246000fd5b6020026020010151816003016000336001600160a01b03166001600160a01b031681526020019081526020016000206002015410156132965760405162461bcd60e51b81526020600482015260136024820152724e6f7420656e6f75676820726577617264732160681b6044820152606401611087565b8482815181106132b657634e487b7160e01b600052603260045260246000fd5b6020026020010151609c5410156133065760405162461bcd60e51b815260206004820152601460248201527314995dd85c991cc81c1bdbdb08191c985a5b995960621b6044820152606401611087565b84828151811061332657634e487b7160e01b600052603260045260246000fd5b6020026020010151609c600082825461333f9190615a3c565b9250508190555084828151811061336657634e487b7160e01b600052603260045260246000fd5b6020026020010151816003016000336001600160a01b03166001600160a01b0316815260200190815260200160002060020160008282546133a79190615a3c565b925050819055508482815181106133ce57634e487b7160e01b600052603260045260246000fd5b602002602001015160b06000336001600160a01b03166001600160a01b03168152602001908152602001600020600082825461340a9190615a3c565b9250508190555084828151811061343157634e487b7160e01b600052603260045260246000fd5b60200260200101518361344491906159e5565b925085828151811061346657634e487b7160e01b600052603260045260246000fd5b602002602001015160405161347b9190615656565b6040518091039020336001600160a01b03167f797a477e49f23d65ef8588df156ba8c74c6e21a51d6cf6737320d868c0e7c9f88785815181106134ce57634e487b7160e01b600052603260045260246000fd5b60200260200101516040516134e591815260200190565b60405180910390a3505b806134f981615af4565b91505061317e565b50600081116135455760405162461bcd60e51b815260206004820152601060248201526f4e6f7468696e6720746f20636c61696d60801b6044820152606401611087565b61354f3382613647565b60405181815233907fd8138f8a3f377c5259ca548e70e4c2de94f129f5a11036a15b69513cba2b426a9060200160405180910390a250505050565b336000908152600384016020908152604080832085845260010190915290205460ff1661195f57336000908152600384016020908152604080832085845290915290205481101561360c57336000908152600384016020908152604080832085845290915281208054839290613601908490615a3c565b9091555061195f9050565b50336000908152600392909201602090815260408084209284528282528084208490556001928301909152909120805460ff19169091179055565b804710156136975760405162461bcd60e51b815260206004820152601d60248201527f416464726573733a20696e73756666696369656e742062616c616e63650000006044820152606401611087565b6000826001600160a01b03168260405160006040518083038185875af1925050503d80600081146136e4576040519150601f19603f3d011682016040523d82523d6000602084013e6136e9565b606091505b505090508061195f5760405162461bcd60e51b815260206004820152603a60248201527f416464726573733a20756e61626c6520746f2073656e642076616c75652c207260448201527f6563697069656e74206d617920686176652072657665727465640000000000006064820152608401611087565b61376a8282611b28565b6119de5760008281526065602090815260408083206001600160a01b03851684529091529020805460ff191660011790556137a23390565b6001600160a01b0316816001600160a01b0316837f2f8788117e7eff1d82e926ec794901d17c78024a50270940304540a733656f0d60405160405180910390a45050565b6137f08282611b28565b156119de5760008281526065602090815260408083206001600160a01b0385168085529252808320805460ff1916905551339285917ff6391f5c32d9c69d2a47ea670b442974b53935d1edc7fd64eb21e047a839171b9190a45050565b613855614eb4565b60008060008060c08760405161386b9190615656565b90815260200160405180910390206003016000876001600160a01b03166001600160a01b03168152602001908152602001600020905060a45481600301541015806138b857506003810154155b156138cd575060009250829150819050613db2565b60c55460038201546001600160a01b039091169063933c9a2490899089906138f790600190615a3c565b6040518463ffffffff1660e01b815260040161391593929190615830565b604080518083038186803b15801561392c57600080fd5b505afa158015613940573d6000803e3d6000fd5b505050506040513d601f19601f82011682018060405250810190613964919061553c565b50855260c55460038201546000916001600160a01b031690633f1fb67c90899061399090600190615a3c565b6040516001600160e01b031960e085901b1681526001600160a01b039092166004830152602482015260440160206040518083038186803b1580156139d457600080fd5b505afa1580156139e8573d6000803e3d6000fd5b505050506040513d601f19601f82011682018060405250810190613a0c919061556b565b905060ff8116613a1a575060095b60038201546000908152602083905260408082205460c55491516339770cd160e11b81529092916001600160a01b0316906372ee19a290613a5f908d9060040161581d565b60206040518083038186803b158015613a7757600080fd5b505afa158015613a8b573d6000803e3d6000fd5b505050506040513d601f19601f82011682018060405250810190613aaf9190615429565b60038501549091505b60a454811015613da5578215613bd057885115801590613ad55750815b15613b5f5760c5546040516314d6a44160e21b81526001600160a01b039091169063535a910490613b0c908e908890600401615896565b60206040518083038186803b158015613b2457600080fd5b505afa158015613b38573d6000803e3d6000fd5b505050506040513d601f19601f82011682018060405250810190613b5c919061556b565b93505b600081815260c4602052604081205464e8d4a5100090613b7f9086615a1d565b613b8991906159fd565b905060646001613b998783615a53565b613ba39190615a53565b613bb09060ff1683615a1d565b613bba91906159fd565b60208b018051613bcb9083906159e5565b905250505b846000613bde8360016159e5565b81526020019081526020016000205460001415613c2b57846001016000826001613c0891906159e5565b815260208101919091526040016000205460ff1615613c2657600092505b613c4b565b846000613c398360016159e5565b81526020019081526020016000205492505b60008060c560009054906101000a90046001600160a01b03166001600160a01b031663933c9a248e8e866040518463ffffffff1660e01b8152600401613c9393929190615830565b604080518083038186803b158015613caa57600080fd5b505afa158015613cbe573d6000803e3d6000fd5b505050506040513d601f19601f82011682018060405250810190613ce2919061553c565b915091508160001415613cff578015613cfa5760008b525b613d03565b818b525b60c554604051630fc7ed9f60e21b81526001600160a01b038e81166004830152602482018690526000921690633f1fb67c9060440160206040518083038186803b158015613d5057600080fd5b505afa158015613d64573d6000803e3d6000fd5b505050506040513d601f19601f82011682018060405250810190613d88919061556b565b905060ff811615613d97578096505b836001019350505050613ab8565b5091955093506001925050505b92959194509250565b6000613dc5611b53565b613dd09060016159e5565b9050600060c085604051613de49190615656565b9081526040805191829003602090810183206001600160a01b0388166000908152600390910190915220915060c090613e1e908790615656565b90815260200160405180910390206003016000856001600160a01b03166001600160a01b031681526020019081526020016000206003015460001415613e9c578160c086604051613e6f9190615656565b90815260408051602092819003830190206001600160a01b03881660009081526003918201909352912001555b600082815260208290526040902083905582613eb9576001613ebc565b60005b60009283526001919091016020526040909120805460ff1916911515919091179055505050565b613eed8282611b28565b6119de57613f05816001600160a01b03166014614950565b613f10836020614950565b604051602001613f21929190615672565b60408051601f198184030181529082905262461bcd60e51b82526110879160040161581d565b60004790506150016001600160a01b03166377a0fe026040518163ffffffff1660e01b8152600401600060405180830381600087803b158015613f8957600080fd5b505af1925050508015613f9a575060015b614014573d808015613fc8576040519150601f19603f3d011682016040523d82523d6000602084013e613fcd565b606091505b5080604051613fdc9190615656565b6040519081900381209084907ff031b94d40b16f5c2b8213e25ea0f640687fa24e99f6a0ef56cdd46762434a2f90600090a35061403f565b60405182907e973a60d81248412b3530a2ff12c475667dc3c0ece650fb361c044aa240565b90600090a25b4761404a8282615a3c565b60a3600082825461405b91906159e5565b9091555050505050565b8060a454106140715750565b60bf544760005b828110156141605761414e60bf82815481106140a457634e487b7160e01b600052603260045260246000fd5b9060005260206000200180546140b990615ab9565b80601f01602080910402602001604051908101604052809291908181526020018280546140e590615ab9565b80156141325780601f1061410757610100808354040283529160200191614132565b820191906000526020600020905b81548152906001019060200180831161411557829003601f168201915b505050505060a45460a454600161414991906159e5565b614b38565b8061415881615af4565b915050614078565b504761416a614eb4565b6141748383615a3c565b815260005b8481101561425f5761424d60bf82815481106141a557634e487b7160e01b600052603260045260246000fd5b9060005260206000200180546141ba90615ab9565b80601f01602080910402602001604051908101604052809291908181526020018280546141e690615ab9565b80156142335780601f1061420857610100808354040283529160200191614233565b820191906000526020600020905b81548152906001019060200180831161421657829003601f168201915b505050505060a454600161424791906159e5565b88614b38565b8061425781615af4565b915050614179565b5061426a8247615a3c565b60208201819052815160009161427f916159e5565b9050600060a454876142919190615a3c565b905060006142a0600183615a3c565b60be546142ad9190615a1d565b6142b8600184615a3c565b60bd546142c59190615a1d565b8360bc546142d39190615a1d565b6142dd91906159e5565b6142e79190615a3c565b905080156146965760c55460a4546000916001600160a01b031690633cc2681e9061431490600190615a3c565b61431f60018d615a3c565b6040516001600160e01b031960e085901b168152600481019290925260248201526044016040805180830381600087803b15801561435c57600080fd5b505af1158015614370573d6000803e3d6000fd5b505050506040513d601f19601f8201168201806040525081019061439491906153a6565b60c55460a4549192506000916001600160a01b0390911690632eedcb18906143be90600190615a3c565b6040518263ffffffff1660e01b81526004016143dc91815260200190565b604080518083038186803b1580156143f357600080fd5b505afa158015614407573d6000803e3d6000fd5b505050506040513d601f19601f8201168201806040525081019061442b91906153a6565b905060008060008060bc5411156144f15760bc5489516144519064e8d4a5100090615a1d565b61445b91906159fd565b925061446d64e8d4a510006064615a1d565b602085015161447c9085615a1d565b61448691906159fd565b61449090836159e5565b91506144a264e8d4a510006064615a1d565b845160bc546144b19190615a3c565b6144bc600986615a1d565b6144c69190615a1d565b6144d091906159fd565b6144da90826159e5565b60a454600090815260c46020526040902084905590505b60bc548611156146045760bc546145089087615a3c565b60208a015161451d9064e8d4a5100090615a1d565b61452791906159fd565b925061453964e8d4a510006064615a1d565b6020808601519087015161454d9190615a3c565b6145579085615a1d565b61456191906159fd565b61456b90836159e5565b915061457d64e8d4a510006064615a1d565b8451865161458b9190615a3c565b60bc546145989089615a3c565b6145a29190615a3c565b6145ad600986615a1d565b6145b79190615a1d565b6145c191906159fd565b6145cb90826159e5565b9050600060a45460016145de91906159e5565b90505b8d81101561460257600081815260c4602052604090208490556001016145e1565b505b600061461160648a6159fd565b905060008183614621868d615a3c565b61462b9190615a3c565b6146359190615a3c565b905061464183856159e5565b60ad600082825461465291906159e5565b9250508190555081609b600082825461466b91906159e5565b9250508190555080609c600082825461468491906159e5565b909155506146ae975050505050505050565b8260ad60008282546146a891906159e5565b90915550505b600060be81905560bd55609d5460405163b39fd5cf60e01b81526001600160a01b039091169063b39fd5cf906146e9906098906004016158bb565b60206040518083038186803b15801561470157600080fd5b505afa158015614715573d6000803e3d6000fd5b505050506040513d601f19601f820116820180604052508101906147399190615524565b60bc555050505050505050565b60a4545b818110156119de57604051631b70ba6560e01b815261500190631b70ba6590614779903090859060040161574b565b600060405180830381600087803b15801561479357600080fd5b505af19250505080156147a4575060015b614827573d8080156147d2576040519150601f19603f3d011682016040523d82523d6000602084013e6147d7565b606091505b50806040516147e69190615656565b60408051918290038220600085815260c460205291822054909285927fd498dea2d0c05beb55c31ed0854ee53e1cae52b3032855d37a0e7cc1af9a275491a4505b60010161474a565b6004609a54600a6148409190615a1d565b61484a91906159fd565b60a95461485890600a615a1d565b61486291906159e5565b61486d82600a615a1d565b10156148765750565b60bf5460005b818110156149495761494160bf82815481106148a857634e487b7160e01b600052603260045260246000fd5b9060005260206000200180546148bd90615ab9565b80601f01602080910402602001604051908101604052809291908181526020018280546148e990615ab9565b80156149365780601f1061490b57610100808354040283529160200191614936565b820191906000526020600020905b81548152906001019060200180831161491957829003601f168201915b505050505084614ce3565b60010161487c565b505060a955565b6060600061495f836002615a1d565b61496a9060026159e5565b6001600160401b0381111561498f57634e487b7160e01b600052604160045260246000fd5b6040519080825280601f01601f1916602001820160405280156149b9576020820181803683370190505b509050600360fc1b816000815181106149e257634e487b7160e01b600052603260045260246000fd5b60200101906001600160f81b031916908160001a905350600f60fb1b81600181518110614a1f57634e487b7160e01b600052603260045260246000fd5b60200101906001600160f81b031916908160001a9053506000614a43846002615a1d565b614a4e9060016159e5565b90505b6001811115614ae2576f181899199a1a9b1b9c1cb0b131b232b360811b85600f1660108110614a9057634e487b7160e01b600052603260045260246000fd5b1a60f81b828281518110614ab457634e487b7160e01b600052603260045260246000fd5b60200101906001600160f81b031916908160001a90535060049490941c93614adb81615aa2565b9050614a51565b508315614b315760405162461bcd60e51b815260206004820181905260248201527f537472696e67733a20686578206c656e67746820696e73756666696369656e746044820152606401611087565b9392505050565b600060c284604051614b4a9190615656565b9081526040519081900360200190205460ff16614b855760c384604051614b719190615656565b908152602001604051809103902054614b87565b815b9050825b81811015612b85576150016001600160a01b031663a0b9d8be60c087604051614bb49190615656565b908152604051908190036020018120546001600160e01b031960e084901b1682526001600160a01b03166004820152602401600060405180830381600087803b158015614c0057600080fd5b505af1925050508015614c11575060015b614ca0573d808015614c3f576040519150601f19603f3d011682016040523d82523d6000602084013e614c44565b606091505b5080604051614c539190615656565b60405180910390208287604051614c6a9190615656565b604051908190038120907fe92a3c7a04201825f5511627b1065ebf99f2e562a3071da98959b67390f40b8590600090a450614cdb565b807fe3ad3e6ae6e2f00623af1899e05e142e09f8af5b7f4e9b765d94646d6bb9b89282604051614cd291815260200190565b60405180910390a25b600101614b8b565b600060c083604051614cf59190615656565b90815260200160405180910390209050806002015460001415614d1757505050565b60c283604051614d279190615656565b9081526040519081900360200190205460ff16158015614d64575060c383604051614d529190615656565b90815260200160405180910390205482115b15614d6e57505050565b805460028201546040516363c20ee960e11b81526150019263c7841dd292614da4926001600160a01b039092169160040161574b565b600060405180830381600087803b158015614dbe57600080fd5b505af1925050508015614dcf575060015b614e6c573d808015614dfd576040519150601f19603f3d011682016040523d82523d6000602084013e614e02565b606091505b5080604051614e119190615656565b60405180910390208385604051614e289190615656565b60405190819003812060028601548252907f3e8c350ba500216bc0dc1717cad4db6a92e07dedabe48c3498743b062f8fa5229060200160405180910390a450505050565b817fd112be63e7fceb2dddc1fcf8ae6159d873af98be4505daee865e08f2aeae802d60b554604051614ea091815260200190565b60405180910390a260006002820155505050565b60405180604001604052806002906020820280368337509192915050565b5080546000825590600052602060002090810190612d4591905b80821115614f005760008155600101614eec565b5090565b80356001600160a01b0381168114614f1b57600080fd5b919050565b600082601f830112614f30578081fd5b81356020614f45614f408361599b565b61596b565b80838252828201915082860187848660051b8901011115614f64578586fd5b855b85811015614fa45781356001600160401b03811115614f83578788fd5b614f918a87838c010161500e565b8552509284019290840190600101614f66565b5090979650505050505050565b600082601f830112614fc1578081fd5b81356020614fd1614f408361599b565b80838252828201915082860187848660051b8901011115614ff0578586fd5b855b85811015614fa457813584529284019290840190600101614ff2565b600082601f83011261501e578081fd5b813561502c614f40826159be565b818152846020838601011115615040578283fd5b816020850160208301379081016020019190915292915050565b60006020828403121561506b578081fd5b614b3182614f04565b60008060408385031215615086578081fd5b61508f83614f04565b915060208301356001600160401b038111156150a9578182fd5b6150b585828601614f20565b9150509250929050565b600080604083850312156150d1578182fd5b6150da83614f04565b915060208301356001600160401b038111156150f4578182fd5b6150b58582860161500e565b60008060408385031215615112578182fd5b61511b83614f04565b946020939093013593505050565b60008060006060848603121561513d578081fd5b61514684614f04565b95602085013595506040909401359392505050565b6000602080838503121561516d578182fd5b82356001600160401b03811115615182578283fd5b8301601f81018513615192578283fd5b80356151a0614f408261599b565b80828252848201915084840188868560051b87010111156151bf578687fd5b8694505b838510156151e8576151d481614f04565b8352600194909401939185019185016151c3565b50979650505050505050565b60006020808385031215615206578182fd5b82516001600160401b038082111561521c578384fd5b818501915085601f83011261522f578384fd5b815161523d614f408261599b565b80828252858201915085850189878560051b880101111561525c578788fd5b875b848110156152cd5781518681111561527457898afd5b8701603f81018c1361528457898afd5b888101516040615296614f40836159be565b8281528e828486010111156152a9578c8dfd5b6152b8838d8301848701615a76565b8752505050928701929087019060010161525e565b50909998505050505050505050565b600080604083850312156152ee578182fd5b82356001600160401b0380821115615304578384fd5b61531086838701614f20565b93506020850135915080821115615325578283fd5b506150b585828601614fb1565b600080600060608486031215615346578081fd5b83356001600160401b038082111561535c578283fd5b61536887838801614f20565b9450602086013591508082111561537d578283fd5b5061538a86828701614fb1565b925050604084013561539b81615b3b565b809150509250925092565b6000604082840312156153b7578081fd5b82601f8301126153c5578081fd5b604051604081018181106001600160401b03821117156153e7576153e7615b25565b80604052508083856040860111156153fd578384fd5b835b600281101561541e5781518352602092830192909101906001016153ff565b509195945050505050565b60006020828403121561543a578081fd5b8151614b3181615b3b565b600060208284031215615456578081fd5b5035919050565b6000806040838503121561546f578182fd5b8235915061547f60208401614f04565b90509250929050565b600060208284031215615499578081fd5b81356001600160e01b031981168114614b31578182fd5b6000602082840312156154c1578081fd5b81356001600160401b038111156154d6578182fd5b6123388482850161500e565b600080604083850312156154f4578182fd5b82356001600160401b03811115615509578283fd5b6155158582860161500e565b92505061547f60208401614f04565b600060208284031215615535578081fd5b5051919050565b6000806040838503121561554e578182fd5b82519150602083015161556081615b3b565b809150509250929050565b60006020828403121561557c578081fd5b815160ff81168114614b31578182fd5b600081518084526155a4816020860160208601615a76565b601f01601f19169290920160200192915050565b8054600090600181811c90808316806155d257607f831692505b60208084108214156155f257634e487b7160e01b86526022600452602486fd5b8388526020880182801561560d576001811461561e57615649565b60ff19871682528282019750615649565b60008981526020902060005b878110156156435781548482015290860190840161562a565b83019850505b5050505050505092915050565b60008251615668818460208701615a76565b9190910192915050565b7f416363657373436f6e74726f6c3a206163636f756e74200000000000000000008152600083516156aa816017850160208801615a76565b7001034b99036b4b9b9b4b733903937b6329607d1b60179184019182015283516156db816028840160208801615a76565b01602801949350505050565b6001600160a01b038416815260606020820181905260009061570b9083018561558c565b828103604084015261571d81856155b8565b9695505050505050565b6001600160a01b0383168152604060208201819052600090612338908301846155b8565b6001600160a01b039290921682526fffffffffffffffffffffffffffffffff16602082015260400190565b60018060a01b038516815283602082015260806040820152600061579d608083018561558c565b82810360608401526157af81856155b8565b979650505050505050565b60408101818360005b60028110156157ec5781516001600160e01b0319168352602092830192909101906001016157c3565b50505092915050565b602081016002831061581757634e487b7160e01b600052602160045260246000fd5b91905290565b602081526000614b31602083018461558c565b606081526000615843606083018661558c565b6001600160a01b039490941660208301525060400152919050565b608081526000615871608083018761558c565b6001600160a01b03959095166020830152506040810192909252606090910152919050565b6040815260006158a9604083018561558c565b905060ff831660208301529392505050565b602081526000614b3160208301846155b8565b60208082526017908201527f496e636f727265637420617272617973206c656e677468000000000000000000604082015260600190565b60208082526017908201527f4e6f206f6e65207574696c6974792073656c6563746564000000000000000000604082015260600190565b6020808252601590820152744f6e6c7920666f72206469737472696275746f722160581b604082015260600190565b604051601f8201601f191681016001600160401b038111828210171561599357615993615b25565b604052919050565b60006001600160401b038211156159b4576159b4615b25565b5060051b60200190565b60006001600160401b038211156159d7576159d7615b25565b50601f01601f191660200190565b600082198211156159f8576159f8615b0f565b500190565b600082615a1857634e487b7160e01b81526012600452602481fd5b500490565b6000816000190483118215151615615a3757615a37615b0f565b500290565b600082821015615a4e57615a4e615b0f565b500390565b600060ff821660ff841680821015615a6d57615a6d615b0f565b90039392505050565b60005b83811015615a91578181015183820152602001615a79565b838111156125e95750506000910152565b600081615ab157615ab1615b0f565b506000190190565b600181811c90821680615acd57607f821691505b60208210811415615aee57634e487b7160e01b600052602260045260246000fd5b50919050565b6000600019821415615b0857615b08615b0f565b5060010190565b634e487b7160e01b600052601160045260246000fd5b634e487b7160e01b600052604160045260246000fd5b8015158114612d4557600080fdfeaf290d8680820aad922855f39b306097b20e28774d6c1ad35a20325630c3a02ca2646970667358221220819f95c9e36df8cb41238db7986710291acef007234822b313d44dfd393ca4fb64736f6c63430008040033",
    "linkReferences": {}
  },
  "methodIdentifiers": {
    "DAPPS_STAKING()": "59b40f41",
    "DEFAULT_ADMIN_ROLE()": "a217fddf",
    "DNTname()": "40bf8a8d",
    "MANAGEMENT_FEE()": "5f1554e3",
    "MANAGER()": "1b2df850",
    "REVENUE_FEE()": "4421bd1e",
    "REWARDS_PRECISION()": "86b3cd26",
    "UNSTAKING_FEE()": "59601ebc",
    "accumulatedRewardsPerShare(uint256)": "a2ce0f4a",
    "adaptersDistr()": "e2e836f8",
    "addStaker(address,string)": "e932b37b",
    "addStakers(address[])": "bf290845",
    "buffer(address,uint256)": "54b057f9",
    "claim(string[],uint256[])": "1f19014b",
    "claimAll()": "d1058e59",
    "claimingTxLimit()": "00179fbd",
    "currentEra()": "973628f6",
    "dapps(string)": "dcf425df",
    "dappsList(uint256)": "da3bc958",
    "deactivationEra(string)": "2a14d8f4",
    "distr()": "6bbea766",
    "dntToken()": "05e2a217",
    "eraBuffer(uint256)": "c21a7276",
    "eraRevenue(uint256)": "eb51a44c",
    "eraRewards(uint256)": "1dc00785",
    "eraShotsLimit()": "f128f631",
    "eraStakerReward(uint256)": "2ea31bf6",
    "eraUnstaked(uint256)": "c4e137e7",
    "getRoleAdmin(bytes32)": "248a9ca3",
    "getSelectors()": "4b503f0b",
    "grantRole(bytes32,address)": "2f2ff15d",
    "hasRole(bytes32,address)": "91d14854",
    "haveUtility(string)": "6f68f2e9",
    "isActive(string)": "c8902a21",
    "isLpToken(address)": "0f24ca7d",
    "isPartner(address)": "8c0f9aac",
    "isStaker(address)": "6f1e8533",
    "isUnstakes()": "2e4a4a17",
    "lastClaimed()": "adc1b956",
    "lastEraTotalBalance()": "e77ee345",
    "lastStaked()": "12a12a06",
    "lastUnstaked()": "5495ec81",
    "lastUpdated()": "d0b06f5d",
    "liquidStakingManager()": "5ca5914e",
    "lpHandlers(address)": "e09c1954",
    "lpTokens(uint256)": "1bb5e2dc",
    "minStakeAmount()": "f1887684",
    "nftDistr()": "bd1bbd3b",
    "partnerIdx(address)": "a5ae02ac",
    "partners(uint256)": "c3b49d04",
    "partnersLimit()": "4d617451",
    "paused()": "5c975abb",
    "previewUserRewards(string,address)": "b8d7cac9",
    "removeStakers()": "fc6e6786",
    "renounceRole(bytes32,address)": "36568abe",
    "revokeRole(bytes32,address)": "d547741f",
    "rewardPool()": "66666aa9",
    "setFreeDest()": "d78cfe06",
    "stake(string[],uint256[])": "a22eae1b",
    "stakers(uint256)": "fd5e6dd1",
    "stakes(address)": "16934fc4",
    "sum2unstake()": "af66c36b",
    "supportsInterface(bytes4)": "01ffc9a7",
    "sync(uint256)": "b1357bf9",
    "syncHarvest(address,string[])": "12b3b4e6",
    "totalBalance()": "ad7a672f",
    "totalRevenue()": "bf2d9e0b",
    "totalUserRewards(address)": "a44bca8e",
    "unbondedPool()": "c71367b5",
    "unstake(string[],uint256[],bool)": "24f0f548",
    "unstakingPool()": "6f5e4488",
    "updateUserBalanceInAdapter(string,address)": "c78731dc",
    "updateUserBalanceInUtility(string,address)": "386df6eb",
    "usersShotsPerEra(address,uint256,uint256)": "d6356ff4",
    "utilName()": "ab486929",
    "withdraw(uint256)": "2e1a7d4d",
    "withdrawBlock()": "24025b19",
    "withdrawals(address,uint256)": "422b1077"
  },
  "id": 12
}