{
  "abi": [
    {
      "inputs": [],
      "stateMutability": "nonpayable",
      "type": "constructor"
    },
    {
      "anonymous": false,
      "inputs": [
        {
          "indexed": true,
          "internalType": "address",
          "name": "previousOwner",
          "type": "address"
        },
        {
          "indexed": true,
          "internalType": "address",
          "name": "newOwner",
          "type": "address"
        }
      ],
      "name": "OwnershipTransferred",
      "type": "event"
    },
    {
      "inputs": [
        {
          "internalType": "address",
          "name": "",
          "type": "address"
        },
        {
          "internalType": "uint128",
          "name": "",
          "type": "uint128"
        }
      ],
      "name": "bond_and_stake",
      "outputs": [],
      "stateMutability": "payable",
      "type": "function"
    },
    {
      "inputs": [
        {
          "internalType": "address",
          "name": "",
          "type": "address"
        }
      ],
      "name": "claim_staker",
      "outputs": [],
      "stateMutability": "nonpayable",
      "type": "function"
    },
    {
      "inputs": [],
      "name": "era",
      "outputs": [
        {
          "internalType": "uint256",
          "name": "",
          "type": "uint256"
        }
      ],
      "stateMutability": "view",
      "type": "function"
    },
    {
      "inputs": [],
      "name": "eraDuration",
      "outputs": [
        {
          "internalType": "uint256",
          "name": "",
          "type": "uint256"
        }
      ],
      "stateMutability": "view",
      "type": "function"
    },
    {
      "inputs": [],
      "name": "owner",
      "outputs": [
        {
          "internalType": "address",
          "name": "",
          "type": "address"
        }
      ],
      "stateMutability": "view",
      "type": "function"
    },
    {
      "inputs": [],
      "name": "read_current_era",
      "outputs": [
        {
          "internalType": "uint256",
          "name": "",
          "type": "uint256"
        }
      ],
      "stateMutability": "view",
      "type": "function"
    },
    {
      "inputs": [],
      "name": "read_unbonding_period",
      "outputs": [
        {
          "internalType": "uint256",
          "name": "",
          "type": "uint256"
        }
      ],
      "stateMutability": "view",
      "type": "function"
    },
    {
      "inputs": [],
      "name": "renounceOwnership",
      "outputs": [],
      "stateMutability": "nonpayable",
      "type": "function"
    },
    {
      "inputs": [
        {
          "internalType": "uint256",
          "name": "_duration",
          "type": "uint256"
        }
      ],
      "name": "setEraDuration",
      "outputs": [],
      "stateMutability": "nonpayable",
      "type": "function"
    },
    {
      "inputs": [],
      "name": "stakerRewards",
      "outputs": [
        {
          "internalType": "uint256",
          "name": "",
          "type": "uint256"
        }
      ],
      "stateMutability": "view",
      "type": "function"
    },
    {
      "inputs": [],
      "name": "start",
      "outputs": [
        {
          "internalType": "uint256",
          "name": "",
          "type": "uint256"
        }
      ],
      "stateMutability": "view",
      "type": "function"
    },
    {
      "inputs": [
        {
          "internalType": "address",
          "name": "newOwner",
          "type": "address"
        }
      ],
      "name": "transferOwnership",
      "outputs": [],
      "stateMutability": "nonpayable",
      "type": "function"
    },
    {
      "inputs": [
        {
          "internalType": "address",
          "name": "",
          "type": "address"
        },
        {
          "internalType": "uint128",
          "name": "amount",
          "type": "uint128"
        }
      ],
      "name": "unbond_and_unstake",
      "outputs": [],
      "stateMutability": "nonpayable",
      "type": "function"
    },
    {
      "inputs": [
        {
          "internalType": "uint256",
          "name": "",
          "type": "uint256"
        }
      ],
      "name": "unstakes",
      "outputs": [
        {
          "internalType": "uint128",
          "name": "amount",
          "type": "uint128"
        },
        {
          "internalType": "uint128",
          "name": "startEra",
          "type": "uint128"
        }
      ],
      "stateMutability": "view",
      "type": "function"
    },
    {
      "inputs": [],
      "name": "unstakesSum",
      "outputs": [
        {
          "internalType": "uint256",
          "name": "",
          "type": "uint256"
        }
      ],
      "stateMutability": "view",
      "type": "function"
    },
    {
      "inputs": [],
      "name": "withdraw_unbonded",
      "outputs": [],
      "stateMutability": "nonpayable",
      "type": "function"
    },
    {
      "stateMutability": "payable",
      "type": "receive"
    }
  ],
  "bytecode": {
    "object": "0x60806040526064600155603c60035534801561001a57600080fd5b506100243361002d565b4260025561007d565b600080546001600160a01b038381166001600160a01b0319831681178455604051919092169283917f8be0079c531659141344cd1fd0a4f28419497f9722a3daafe3b4186f6b6457e09190a35050565b6108648061008c6000396000f3fe6080604052600436106100f65760003560e01c8063a0b9d8be1161008a578063d97c94ac11610059578063d97c94ac14610269578063db62b20114610289578063e608d80b1461029d578063f2fde38b146102b257600080fd5b8063a0b9d8be146101fd578063be9a65551461021d578063c7841dd214610233578063cfb9cfba1461025357600080fd5b8063715018a6116100c6578063715018a61461016b57806377441b701461018057806377a0fe02146101c05780638da5cb5b146101d557600080fd5b806227d97014610102578063143e55e01461012b5780634455a38f1461014157806352b73e411461015757600080fd5b366100fd57005b600080fd5b34801561010e57600080fd5b5061011860045481565b6040519081526020015b60405180910390f35b34801561013757600080fd5b5061011860015481565b34801561014d57600080fd5b5061011860035481565b610169610165366004610755565b5050565b005b34801561017757600080fd5b506101696102d2565b34801561018c57600080fd5b506101a061019b366004610796565b6102e6565b604080516001600160801b03938416815292909116602083015201610122565b3480156101cc57600080fd5b5061016961031b565b3480156101e157600080fd5b506000546040516001600160a01b039091168152602001610122565b34801561020957600080fd5b50610169610218366004610734565b6104e0565b34801561022957600080fd5b5061011860025481565b34801561023f57600080fd5b5061016961024e366004610755565b61051f565b34801561025f57600080fd5b5061011860055481565b34801561027557600080fd5b50610169610284366004610796565b600355565b34801561029557600080fd5b50600a610118565b3480156102a957600080fd5b506101186105c4565b3480156102be57600080fd5b506101696102cd366004610734565b6105f3565b6102da61066e565b6102e460006106c8565b565b600681815481106102f657600080fd5b6000918252602090912001546001600160801b038082169250600160801b9091041682565b60005b6006548110156104dd57600a6006828154811061034b57634e487b7160e01b600052603260045260246000fd5b60009182526020909120015461037190600160801b90046001600160801b0316426107e6565b101580156103b4575060006006828154811061039d57634e487b7160e01b600052603260045260246000fd5b6000918252602090912001546001600160801b0316115b156104cb57336001600160a01b03166108fc600683815481106103e757634e487b7160e01b600052603260045260246000fd5b60009182526020822001546040516001600160801b0390911680159093029291818181858888f19350505050158015610424573d6000803e3d6000fd5b506006818154811061044657634e487b7160e01b600052603260045260246000fd5b6000918252602082200154600480546001600160801b0390921692909161046e9084906107e6565b9250508190555060006006828154811061049857634e487b7160e01b600052603260045260246000fd5b600091825260209091200180546fffffffffffffffffffffffffffffffff19166001600160801b03929092169190911790555b806104d5816107fd565b91505061031e565b50565b6104e861066e565b600554604051339180156108fc02916000818181858888f19350505050158015610516573d6000803e3d6000fd5b50506000600555565b806001600160801b03166004600082825461053a91906107ae565b909155505060045447106101655760066040518060400160405280836001600160801b0316815260200161056c6105c4565b6001600160801b0390811690915282546001818101855560009485526020808620855191909501518416600160801b0293169290921792019190915560058054919290916105bb9084906107ae565b90915550505050565b6000600354600254426105d791906107e6565b6105e191906107c6565b6001546105ee91906107ae565b905090565b6105fb61066e565b6001600160a01b0381166106655760405162461bcd60e51b815260206004820152602660248201527f4f776e61626c653a206e6577206f776e657220697320746865207a65726f206160448201526564647265737360d01b60648201526084015b60405180910390fd5b6104dd816106c8565b6000546001600160a01b031633146102e45760405162461bcd60e51b815260206004820181905260248201527f4f776e61626c653a2063616c6c6572206973206e6f7420746865206f776e6572604482015260640161065c565b600080546001600160a01b038381166001600160a01b0319831681178455604051919092169283917f8be0079c531659141344cd1fd0a4f28419497f9722a3daafe3b4186f6b6457e09190a35050565b80356001600160a01b038116811461072f57600080fd5b919050565b600060208284031215610745578081fd5b61074e82610718565b9392505050565b60008060408385031215610767578081fd5b61077083610718565b915060208301356001600160801b038116811461078b578182fd5b809150509250929050565b6000602082840312156107a7578081fd5b5035919050565b600082198211156107c1576107c1610818565b500190565b6000826107e157634e487b7160e01b81526012600452602481fd5b500490565b6000828210156107f8576107f8610818565b500390565b600060001982141561081157610811610818565b5060010190565b634e487b7160e01b600052601160045260246000fdfea2646970667358221220da099552a3f2e792e0728ee380c681a3a9208bf6ab5ea5df5df53be5d6d5c3d764736f6c63430008040033",
    "linkReferences": {}
  },
  "methodIdentifiers": {
    "bond_and_stake(address,uint128)": "52b73e41",
    "claim_staker(address)": "a0b9d8be",
    "era()": "143e55e0",
    "eraDuration()": "4455a38f",
    "owner()": "8da5cb5b",
    "read_current_era()": "e608d80b",
    "read_unbonding_period()": "db62b201",
    "renounceOwnership()": "715018a6",
    "setEraDuration(uint256)": "d97c94ac",
    "stakerRewards()": "cfb9cfba",
    "start()": "be9a6555",
    "transferOwnership(address)": "f2fde38b",
    "unbond_and_unstake(address,uint128)": "c7841dd2",
    "unstakes(uint256)": "77441b70",
    "unstakesSum()": "0027d970",
    "withdraw_unbonded()": "77a0fe02"
  },
  "id": 6
}