{
  "abi": [
    {
      "anonymous": false,
      "inputs": [
        {
          "indexed": true,
          "internalType": "uint256",
          "name": "amount",
          "type": "uint256"
        },
        {
          "indexed": true,
          "internalType": "uint256",
          "name": "era",
          "type": "uint256"
        },
        {
          "indexed": true,
          "internalType": "bytes",
          "name": "reason",
          "type": "bytes"
        }
      ],
      "name": "ClaimDappError",
      "type": "event"
    },
    {
      "anonymous": false,
      "inputs": [
        {
          "indexed": false,
          "internalType": "uint256",
          "name": "eraStakerReward",
          "type": "uint256"
        },
        {
          "indexed": true,
          "internalType": "uint256",
          "name": "_era",
          "type": "uint256"
        }
      ],
      "name": "ClaimDappSuccess",
      "type": "event"
    },
    {
      "anonymous": false,
      "inputs": [
        {
          "indexed": true,
          "internalType": "string",
          "name": "utility",
          "type": "string"
        },
        {
          "indexed": true,
          "internalType": "uint256",
          "name": "era",
          "type": "uint256"
        },
        {
          "indexed": true,
          "internalType": "bytes",
          "name": "reason",
          "type": "bytes"
        }
      ],
      "name": "ClaimStakerError",
      "type": "event"
    },
    {
      "anonymous": false,
      "inputs": [
        {
          "indexed": true,
          "internalType": "uint256",
          "name": "era",
          "type": "uint256"
        },
        {
          "indexed": false,
          "internalType": "uint256",
          "name": "lastClaimed",
          "type": "uint256"
        }
      ],
      "name": "ClaimStakerSuccess",
      "type": "event"
    },
    {
      "anonymous": false,
      "inputs": [
        {
          "indexed": true,
          "internalType": "address",
          "name": "user",
          "type": "address"
        },
        {
          "indexed": false,
          "internalType": "uint256",
          "name": "amount",
          "type": "uint256"
        }
      ],
      "name": "Claimed",
      "type": "event"
    },
    {
      "anonymous": false,
      "inputs": [
        {
          "indexed": true,
          "internalType": "address",
          "name": "user",
          "type": "address"
        },
        {
          "indexed": true,
          "internalType": "string",
          "name": "utility",
          "type": "string"
        },
        {
          "indexed": false,
          "internalType": "uint256",
          "name": "amount",
          "type": "uint256"
        }
      ],
      "name": "ClaimedFromUtility",
      "type": "event"
    },
    {
      "anonymous": false,
      "inputs": [
        {
          "indexed": true,
          "internalType": "address",
          "name": "sender",
          "type": "address"
        },
        {
          "indexed": false,
          "internalType": "uint256",
          "name": "value",
          "type": "uint256"
        }
      ],
      "name": "FillRewardPool",
      "type": "event"
    },
    {
      "anonymous": false,
      "inputs": [
        {
          "indexed": true,
          "internalType": "address",
          "name": "sender",
          "type": "address"
        },
        {
          "indexed": false,
          "internalType": "uint256",
          "name": "value",
          "type": "uint256"
        }
      ],
      "name": "FillUnbonded",
      "type": "event"
    },
    {
      "anonymous": false,
      "inputs": [
        {
          "indexed": true,
          "internalType": "address",
          "name": "sender",
          "type": "address"
        },
        {
          "indexed": false,
          "internalType": "uint256",
          "name": "value",
          "type": "uint256"
        }
      ],
      "name": "FillUnstaking",
      "type": "event"
    },
    {
      "anonymous": false,
      "inputs": [
        {
          "indexed": true,
          "internalType": "address",
          "name": "user",
          "type": "address"
        },
        {
          "indexed": true,
          "internalType": "string",
          "name": "utility",
          "type": "string"
        },
        {
          "indexed": false,
          "internalType": "uint256",
          "name": "amount",
          "type": "uint256"
        }
      ],
      "name": "HarvestRewards",
      "type": "event"
    },
    {
      "anonymous": false,
      "inputs": [
        {
          "indexed": false,
          "internalType": "uint8",
          "name": "version",
          "type": "uint8"
        }
      ],
      "name": "Initialized",
      "type": "event"
    },
    {
      "anonymous": false,
      "inputs": [
        {
          "indexed": true,
          "internalType": "bytes32",
          "name": "role",
          "type": "bytes32"
        },
        {
          "indexed": true,
          "internalType": "bytes32",
          "name": "previousAdminRole",
          "type": "bytes32"
        },
        {
          "indexed": true,
          "internalType": "bytes32",
          "name": "newAdminRole",
          "type": "bytes32"
        }
      ],
      "name": "RoleAdminChanged",
      "type": "event"
    },
    {
      "anonymous": false,
      "inputs": [
        {
          "indexed": true,
          "internalType": "bytes32",
          "name": "role",
          "type": "bytes32"
        },
        {
          "indexed": true,
          "internalType": "address",
          "name": "account",
          "type": "address"
        },
        {
          "indexed": true,
          "internalType": "address",
          "name": "sender",
          "type": "address"
        }
      ],
      "name": "RoleGranted",
      "type": "event"
    },
    {
      "anonymous": false,
      "inputs": [
        {
          "indexed": true,
          "internalType": "bytes32",
          "name": "role",
          "type": "bytes32"
        },
        {
          "indexed": true,
          "internalType": "address",
          "name": "account",
          "type": "address"
        },
        {
          "indexed": true,
          "internalType": "address",
          "name": "sender",
          "type": "address"
        }
      ],
      "name": "RoleRevoked",
      "type": "event"
    },
    {
      "anonymous": false,
      "inputs": [
        {
          "indexed": true,
          "internalType": "address",
          "name": "sender",
          "type": "address"
        },
        {
          "indexed": false,
          "internalType": "uint256",
          "name": "amount",
          "type": "uint256"
        }
      ],
      "name": "SetMinStakeAmount",
      "type": "event"
    },
    {
      "anonymous": false,
      "inputs": [
        {
          "indexed": true,
          "internalType": "address",
          "name": "user",
          "type": "address"
        },
        {
          "indexed": false,
          "internalType": "uint256",
          "name": "val",
          "type": "uint256"
        }
      ],
      "name": "Staked",
      "type": "event"
    },
    {
      "anonymous": false,
      "inputs": [
        {
          "indexed": true,
          "internalType": "address",
          "name": "user",
          "type": "address"
        },
        {
          "indexed": true,
          "internalType": "string",
          "name": "utility",
          "type": "string"
        },
        {
          "indexed": false,
          "internalType": "uint256",
          "name": "val",
          "type": "uint256"
        }
      ],
      "name": "StakedInUtility",
      "type": "event"
    },
    {
      "anonymous": false,
      "inputs": [
        {
          "indexed": true,
          "internalType": "address",
          "name": "sender",
          "type": "address"
        },
        {
          "indexed": true,
          "internalType": "uint256",
          "name": "era",
          "type": "uint256"
        }
      ],
      "name": "Synchronization",
      "type": "event"
    },
    {
      "anonymous": false,
      "inputs": [
        {
          "indexed": true,
          "internalType": "string",
          "name": "utility",
          "type": "string"
        },
        {
          "indexed": false,
          "internalType": "uint256",
          "name": "sum2unstake",
          "type": "uint256"
        },
        {
          "indexed": true,
          "internalType": "uint256",
          "name": "era",
          "type": "uint256"
        },
        {
          "indexed": true,
          "internalType": "bytes",
          "name": "reason",
          "type": "bytes"
        }
      ],
      "name": "UnbondAndUnstakeError",
      "type": "event"
    },
    {
      "anonymous": false,
      "inputs": [
        {
          "indexed": true,
          "internalType": "uint256",
          "name": "era",
          "type": "uint256"
        },
        {
          "indexed": false,
          "internalType": "uint256",
          "name": "sum2unstake",
          "type": "uint256"
        }
      ],
      "name": "UnbondAndUnstakeSuccess",
      "type": "event"
    },
    {
      "anonymous": false,
      "inputs": [
        {
          "indexed": true,
          "internalType": "address",
          "name": "user",
          "type": "address"
        },
        {
          "indexed": false,
          "internalType": "uint256",
          "name": "amount",
          "type": "uint256"
        },
        {
          "indexed": false,
          "internalType": "bool",
          "name": "immediate",
          "type": "bool"
        }
      ],
      "name": "Unstaked",
      "type": "event"
    },
    {
      "anonymous": false,
      "inputs": [
        {
          "indexed": true,
          "internalType": "address",
          "name": "user",
          "type": "address"
        },
        {
          "indexed": true,
          "internalType": "string",
          "name": "utility",
          "type": "string"
        },
        {
          "indexed": false,
          "internalType": "uint256",
          "name": "amount",
          "type": "uint256"
        },
        {
          "indexed": false,
          "internalType": "bool",
          "name": "immediate",
          "type": "bool"
        }
      ],
      "name": "UnstakedFromUtility",
      "type": "event"
    },
    {
      "anonymous": false,
      "inputs": [
        {
          "indexed": false,
          "internalType": "uint256",
          "name": "amount",
          "type": "uint256"
        }
      ],
      "name": "WithdrawRevenue",
      "type": "event"
    },
    {
      "anonymous": false,
      "inputs": [
        {
          "indexed": true,
          "internalType": "uint256",
          "name": "_era",
          "type": "uint256"
        },
        {
          "indexed": true,
          "internalType": "bytes",
          "name": "reason",
          "type": "bytes"
        }
      ],
      "name": "WithdrawUnbondedError",
      "type": "event"
    },
    {
      "anonymous": false,
      "inputs": [
        {
          "indexed": true,
          "internalType": "uint256",
          "name": "_era",
          "type": "uint256"
        }
      ],
      "name": "WithdrawUnbondedSuccess",
      "type": "event"
    },
    {
      "anonymous": false,
      "inputs": [
        {
          "indexed": true,
          "internalType": "address",
          "name": "user",
          "type": "address"
        },
        {
          "indexed": false,
          "internalType": "uint256",
          "name": "val",
          "type": "uint256"
        }
      ],
      "name": "Withdrawn",
      "type": "event"
    },
    {
      "inputs": [],
      "name": "DAPPS_STAKING",
      "outputs": [
        {
          "internalType": "contract DappsStaking",
          "name": "",
          "type": "address"
        }
      ],
      "stateMutability": "view",
      "type": "function"
    },
    {
      "inputs": [],
      "name": "DEFAULT_ADMIN_ROLE",
      "outputs": [
        {
          "internalType": "bytes32",
          "name": "",
          "type": "bytes32"
        }
      ],
      "stateMutability": "view",
      "type": "function"
    },
    {
      "inputs": [],
      "name": "DNTname",
      "outputs": [
        {
          "internalType": "string",
          "name": "",
          "type": "string"
        }
      ],
      "stateMutability": "view",
      "type": "function"
    },
    {
      "inputs": [],
      "name": "MANAGEMENT_FEE",
      "outputs": [
        {
          "internalType": "uint8",
          "name": "",
          "type": "uint8"
        }
      ],
      "stateMutability": "view",
      "type": "function"
    },
    {
      "inputs": [],
      "name": "MANAGER",
      "outputs": [
        {
          "internalType": "bytes32",
          "name": "",
          "type": "bytes32"
        }
      ],
      "stateMutability": "view",
      "type": "function"
    },
    {
      "inputs": [],
      "name": "REVENUE_FEE",
      "outputs": [
        {
          "internalType": "uint8",
          "name": "",
          "type": "uint8"
        }
      ],
      "stateMutability": "view",
      "type": "function"
    },
    {
      "inputs": [],
      "name": "REWARDS_PRECISION",
      "outputs": [
        {
          "internalType": "uint256",
          "name": "",
          "type": "uint256"
        }
      ],
      "stateMutability": "view",
      "type": "function"
    },
    {
      "inputs": [],
      "name": "UNSTAKING_FEE",
      "outputs": [
        {
          "internalType": "uint8",
          "name": "",
          "type": "uint8"
        }
      ],
      "stateMutability": "view",
      "type": "function"
    },
    {
      "inputs": [
        {
          "internalType": "uint256",
          "name": "",
          "type": "uint256"
        }
      ],
      "name": "accumulatedRewardsPerShare",
      "outputs": [
        {
          "internalType": "uint256",
          "name": "",
          "type": "uint256"
        }
      ],
      "stateMutability": "view",
      "type": "function"
    },
    {
      "inputs": [],
      "name": "adaptersDistr",
      "outputs": [
        {
          "internalType": "contract IAdaptersDistributor",
          "name": "",
          "type": "address"
        }
      ],
      "stateMutability": "view",
      "type": "function"
    },
    {
      "inputs": [
        {
          "internalType": "address",
          "name": "",
          "type": "address"
        },
        {
          "internalType": "uint256",
          "name": "",
          "type": "uint256"
        }
      ],
      "name": "buffer",
      "outputs": [
        {
          "internalType": "uint256",
          "name": "",
          "type": "uint256"
        }
      ],
      "stateMutability": "view",
      "type": "function"
    },
    {
      "inputs": [],
      "name": "claimingTxLimit",
      "outputs": [
        {
          "internalType": "uint256",
          "name": "",
          "type": "uint256"
        }
      ],
      "stateMutability": "view",
      "type": "function"
    },
    {
      "inputs": [],
      "name": "currentEra",
      "outputs": [
        {
          "internalType": "uint256",
          "name": "",
          "type": "uint256"
        }
      ],
      "stateMutability": "view",
      "type": "function"
    },
    {
      "inputs": [
        {
          "internalType": "string",
          "name": "",
          "type": "string"
        }
      ],
      "name": "dapps",
      "outputs": [
        {
          "internalType": "address",
          "name": "dappAddress",
          "type": "address"
        },
        {
          "internalType": "uint256",
          "name": "stakedBalance",
          "type": "uint256"
        },
        {
          "internalType": "uint256",
          "name": "sum2unstake",
          "type": "uint256"
        }
      ],
      "stateMutability": "view",
      "type": "function"
    },
    {
      "inputs": [
        {
          "internalType": "uint256",
          "name": "",
          "type": "uint256"
        }
      ],
      "name": "dappsList",
      "outputs": [
        {
          "internalType": "string",
          "name": "",
          "type": "string"
        }
      ],
      "stateMutability": "view",
      "type": "function"
    },
    {
      "inputs": [
        {
          "internalType": "string",
          "name": "",
          "type": "string"
        }
      ],
      "name": "deactivationEra",
      "outputs": [
        {
          "internalType": "uint256",
          "name": "",
          "type": "uint256"
        }
      ],
      "stateMutability": "view",
      "type": "function"
    },
    {
      "inputs": [],
      "name": "distr",
      "outputs": [
        {
          "internalType": "contract NDistributor",
          "name": "",
          "type": "address"
        }
      ],
      "stateMutability": "view",
      "type": "function"
    },
    {
      "inputs": [],
      "name": "dntToken",
      "outputs": [
        {
          "internalType": "address",
          "name": "",
          "type": "address"
        }
      ],
      "stateMutability": "view",
      "type": "function"
    },
    {
      "inputs": [
        {
          "internalType": "uint256",
          "name": "",
          "type": "uint256"
        }
      ],
      "name": "eraBuffer",
      "outputs": [
        {
          "internalType": "uint256",
          "name": "",
          "type": "uint256"
        }
      ],
      "stateMutability": "view",
      "type": "function"
    },
    {
      "inputs": [
        {
          "internalType": "uint256",
          "name": "",
          "type": "uint256"
        }
      ],
      "name": "eraRevenue",
      "outputs": [
        {
          "internalType": "bool",
          "name": "done",
          "type": "bool"
        },
        {
          "internalType": "uint256",
          "name": "val",
          "type": "uint256"
        }
      ],
      "stateMutability": "view",
      "type": "function"
    },
    {
      "inputs": [
        {
          "internalType": "uint256",
          "name": "",
          "type": "uint256"
        }
      ],
      "name": "eraRewards",
      "outputs": [
        {
          "internalType": "uint256",
          "name": "",
          "type": "uint256"
        }
      ],
      "stateMutability": "view",
      "type": "function"
    },
    {
      "inputs": [
        {
          "internalType": "address",
          "name": "_user",
          "type": "address"
        }
      ],
      "name": "eraShot",
      "outputs": [],
      "stateMutability": "nonpayable",
      "type": "function"
    },
    {
      "inputs": [],
      "name": "eraShotsLimit",
      "outputs": [
        {
          "internalType": "uint256",
          "name": "",
          "type": "uint256"
        }
      ],
      "stateMutability": "view",
      "type": "function"
    },
    {
      "inputs": [
        {
          "internalType": "uint256",
          "name": "",
          "type": "uint256"
        }
      ],
      "name": "eraStakerReward",
      "outputs": [
        {
          "internalType": "bool",
          "name": "done",
          "type": "bool"
        },
        {
          "internalType": "uint256",
          "name": "val",
          "type": "uint256"
        }
      ],
      "stateMutability": "view",
      "type": "function"
    },
    {
      "inputs": [
        {
          "internalType": "uint256",
          "name": "",
          "type": "uint256"
        }
      ],
      "name": "eraUnstaked",
      "outputs": [
        {
          "internalType": "bool",
          "name": "done",
          "type": "bool"
        },
        {
          "internalType": "uint256",
          "name": "val",
          "type": "uint256"
        }
      ],
      "stateMutability": "view",
      "type": "function"
    },
    {
      "inputs": [
        {
          "internalType": "bytes32",
          "name": "role",
          "type": "bytes32"
        }
      ],
      "name": "getRoleAdmin",
      "outputs": [
        {
          "internalType": "bytes32",
          "name": "",
          "type": "bytes32"
        }
      ],
      "stateMutability": "view",
      "type": "function"
    },
    {
      "inputs": [
        {
          "internalType": "address",
          "name": "_user",
          "type": "address"
        }
      ],
      "name": "getUserLpTokens",
      "outputs": [
        {
          "internalType": "uint256",
          "name": "amount",
          "type": "uint256"
        }
      ],
      "stateMutability": "view",
      "type": "function"
    },
    {
      "inputs": [
        {
          "internalType": "bytes32",
          "name": "role",
          "type": "bytes32"
        },
        {
          "internalType": "address",
          "name": "account",
          "type": "address"
        }
      ],
      "name": "grantRole",
      "outputs": [],
      "stateMutability": "nonpayable",
      "type": "function"
    },
    {
      "inputs": [
        {
          "internalType": "bytes32",
          "name": "role",
          "type": "bytes32"
        },
        {
          "internalType": "address",
          "name": "account",
          "type": "address"
        }
      ],
      "name": "hasRole",
      "outputs": [
        {
          "internalType": "bool",
          "name": "",
          "type": "bool"
        }
      ],
      "stateMutability": "view",
      "type": "function"
    },
    {
      "inputs": [
        {
          "internalType": "string",
          "name": "",
          "type": "string"
        }
      ],
      "name": "haveUtility",
      "outputs": [
        {
          "internalType": "bool",
          "name": "",
          "type": "bool"
        }
      ],
      "stateMutability": "view",
      "type": "function"
    },
    {
      "inputs": [
        {
          "internalType": "string",
          "name": "",
          "type": "string"
        }
      ],
      "name": "isActive",
      "outputs": [
        {
          "internalType": "bool",
          "name": "",
          "type": "bool"
        }
      ],
      "stateMutability": "view",
      "type": "function"
    },
    {
      "inputs": [
        {
          "internalType": "address",
          "name": "",
          "type": "address"
        }
      ],
      "name": "isLpToken",
      "outputs": [
        {
          "internalType": "bool",
          "name": "",
          "type": "bool"
        }
      ],
      "stateMutability": "view",
      "type": "function"
    },
    {
      "inputs": [
        {
          "internalType": "address",
          "name": "",
          "type": "address"
        }
      ],
      "name": "isPartner",
      "outputs": [
        {
          "internalType": "bool",
          "name": "",
          "type": "bool"
        }
      ],
      "stateMutability": "view",
      "type": "function"
    },
    {
      "inputs": [
        {
          "internalType": "address",
          "name": "",
          "type": "address"
        }
      ],
      "name": "isStaker",
      "outputs": [
        {
          "internalType": "bool",
          "name": "",
          "type": "bool"
        }
      ],
      "stateMutability": "view",
      "type": "function"
    },
    {
      "inputs": [],
      "name": "isUnstakes",
      "outputs": [
        {
          "internalType": "bool",
          "name": "",
          "type": "bool"
        }
      ],
      "stateMutability": "view",
      "type": "function"
    },
    {
      "inputs": [],
      "name": "lastClaimed",
      "outputs": [
        {
          "internalType": "uint256",
          "name": "",
          "type": "uint256"
        }
      ],
      "stateMutability": "view",
      "type": "function"
    },
    {
      "inputs": [],
      "name": "lastEraTotalBalance",
      "outputs": [
        {
          "internalType": "uint256",
          "name": "",
          "type": "uint256"
        }
      ],
      "stateMutability": "view",
      "type": "function"
    },
    {
      "inputs": [],
      "name": "lastStaked",
      "outputs": [
        {
          "internalType": "uint256",
          "name": "",
          "type": "uint256"
        }
      ],
      "stateMutability": "view",
      "type": "function"
    },
    {
      "inputs": [],
      "name": "lastUnstaked",
      "outputs": [
        {
          "internalType": "uint256",
          "name": "",
          "type": "uint256"
        }
      ],
      "stateMutability": "view",
      "type": "function"
    },
    {
      "inputs": [],
      "name": "lastUpdated",
      "outputs": [
        {
          "internalType": "uint256",
          "name": "",
          "type": "uint256"
        }
      ],
      "stateMutability": "view",
      "type": "function"
    },
    {
      "inputs": [],
      "name": "liquidStakingManager",
      "outputs": [
        {
          "internalType": "address",
          "name": "",
          "type": "address"
        }
      ],
      "stateMutability": "view",
      "type": "function"
    },
    {
      "inputs": [
        {
          "internalType": "address",
          "name": "",
          "type": "address"
        }
      ],
      "name": "lpHandlers",
      "outputs": [
        {
          "internalType": "address",
          "name": "",
          "type": "address"
        }
      ],
      "stateMutability": "view",
      "type": "function"
    },
    {
      "inputs": [
        {
          "internalType": "uint256",
          "name": "",
          "type": "uint256"
        }
      ],
      "name": "lpTokens",
      "outputs": [
        {
          "internalType": "address",
          "name": "",
          "type": "address"
        }
      ],
      "stateMutability": "view",
      "type": "function"
    },
    {
      "inputs": [
        {
          "internalType": "address[]",
          "name": "_user",
          "type": "address[]"
        }
      ],
      "name": "migrateBatch",
      "outputs": [],
      "stateMutability": "nonpayable",
      "type": "function"
    },
    {
      "inputs": [],
      "name": "migrateInternalStorage",
      "outputs": [],
      "stateMutability": "nonpayable",
      "type": "function"
    },
    {
      "inputs": [
        {
          "internalType": "address",
          "name": "_user",
          "type": "address"
        }
      ],
      "name": "migrateStorage",
      "outputs": [],
      "stateMutability": "nonpayable",
      "type": "function"
    },
    {
      "inputs": [],
      "name": "minStakeAmount",
      "outputs": [
        {
          "internalType": "uint256",
          "name": "",
          "type": "uint256"
        }
      ],
      "stateMutability": "view",
      "type": "function"
    },
    {
      "inputs": [],
      "name": "nftDistr",
      "outputs": [
        {
          "internalType": "contract INFTDistributor",
          "name": "",
          "type": "address"
        }
      ],
      "stateMutability": "view",
      "type": "function"
    },
    {
      "inputs": [
        {
          "internalType": "address",
          "name": "",
          "type": "address"
        }
      ],
      "name": "partnerIdx",
      "outputs": [
        {
          "internalType": "uint256",
          "name": "",
          "type": "uint256"
        }
      ],
      "stateMutability": "view",
      "type": "function"
    },
    {
      "inputs": [
        {
          "internalType": "uint256",
          "name": "",
          "type": "uint256"
        }
      ],
      "name": "partners",
      "outputs": [
        {
          "internalType": "address",
          "name": "",
          "type": "address"
        }
      ],
      "stateMutability": "view",
      "type": "function"
    },
    {
      "inputs": [],
      "name": "partnersLimit",
      "outputs": [
        {
          "internalType": "uint256",
          "name": "",
          "type": "uint256"
        }
      ],
      "stateMutability": "view",
      "type": "function"
    },
    {
      "inputs": [],
      "name": "paused",
      "outputs": [
        {
          "internalType": "bool",
          "name": "",
          "type": "bool"
        }
      ],
      "stateMutability": "view",
      "type": "function"
    },
    {
      "inputs": [
        {
          "internalType": "bytes32",
          "name": "role",
          "type": "bytes32"
        },
        {
          "internalType": "address",
          "name": "account",
          "type": "address"
        }
      ],
      "name": "renounceRole",
      "outputs": [],
      "stateMutability": "nonpayable",
      "type": "function"
    },
    {
      "inputs": [
        {
          "internalType": "bytes32",
          "name": "role",
          "type": "bytes32"
        },
        {
          "internalType": "address",
          "name": "account",
          "type": "address"
        }
      ],
      "name": "revokeRole",
      "outputs": [],
      "stateMutability": "nonpayable",
      "type": "function"
    },
    {
      "inputs": [],
      "name": "rewardPool",
      "outputs": [
        {
          "internalType": "uint256",
          "name": "",
          "type": "uint256"
        }
      ],
      "stateMutability": "view",
      "type": "function"
    },
    {
      "inputs": [
        {
          "internalType": "uint256",
          "name": "",
          "type": "uint256"
        }
      ],
      "name": "stakers",
      "outputs": [
        {
          "internalType": "address",
          "name": "",
          "type": "address"
        }
      ],
      "stateMutability": "view",
      "type": "function"
    },
    {
      "inputs": [
        {
          "internalType": "address",
          "name": "",
          "type": "address"
        }
      ],
      "name": "stakes",
      "outputs": [
        {
          "internalType": "uint256",
          "name": "totalBalance",
          "type": "uint256"
        },
        {
          "internalType": "uint256",
          "name": "eraStarted",
          "type": "uint256"
        }
      ],
      "stateMutability": "view",
      "type": "function"
    },
    {
      "inputs": [],
      "name": "sum2unstake",
      "outputs": [
        {
          "internalType": "uint256",
          "name": "",
          "type": "uint256"
        }
      ],
      "stateMutability": "view",
      "type": "function"
    },
    {
      "inputs": [
        {
          "internalType": "bytes4",
          "name": "interfaceId",
          "type": "bytes4"
        }
      ],
      "name": "supportsInterface",
      "outputs": [
        {
          "internalType": "bool",
          "name": "",
          "type": "bool"
        }
      ],
      "stateMutability": "view",
      "type": "function"
    },
    {
      "inputs": [],
      "name": "totalBalance",
      "outputs": [
        {
          "internalType": "uint256",
          "name": "",
          "type": "uint256"
        }
      ],
      "stateMutability": "view",
      "type": "function"
    },
    {
      "inputs": [],
      "name": "totalRevenue",
      "outputs": [
        {
          "internalType": "uint256",
          "name": "",
          "type": "uint256"
        }
      ],
      "stateMutability": "view",
      "type": "function"
    },
    {
      "inputs": [
        {
          "internalType": "address",
          "name": "",
          "type": "address"
        }
      ],
      "name": "totalUserRewards",
      "outputs": [
        {
          "internalType": "uint256",
          "name": "",
          "type": "uint256"
        }
      ],
      "stateMutability": "view",
      "type": "function"
    },
    {
      "inputs": [],
      "name": "unbondedPool",
      "outputs": [
        {
          "internalType": "uint256",
          "name": "",
          "type": "uint256"
        }
      ],
      "stateMutability": "view",
      "type": "function"
    },
    {
      "inputs": [],
      "name": "unstakingPool",
      "outputs": [
        {
          "internalType": "uint256",
          "name": "",
          "type": "uint256"
        }
      ],
      "stateMutability": "view",
      "type": "function"
    },
    {
      "inputs": [
        {
          "internalType": "address",
          "name": "",
          "type": "address"
        },
        {
          "internalType": "uint256",
          "name": "",
          "type": "uint256"
        },
        {
          "internalType": "uint256",
          "name": "",
          "type": "uint256"
        }
      ],
      "name": "usersShotsPerEra",
      "outputs": [
        {
          "internalType": "uint256",
          "name": "",
          "type": "uint256"
        }
      ],
      "stateMutability": "view",
      "type": "function"
    },
    {
      "inputs": [],
      "name": "utilName",
      "outputs": [
        {
          "internalType": "string",
          "name": "",
          "type": "string"
        }
      ],
      "stateMutability": "view",
      "type": "function"
    },
    {
      "inputs": [],
      "name": "withdrawBlock",
      "outputs": [
        {
          "internalType": "uint256",
          "name": "",
          "type": "uint256"
        }
      ],
      "stateMutability": "view",
      "type": "function"
    },
    {
      "inputs": [
        {
          "internalType": "address",
          "name": "",
          "type": "address"
        },
        {
          "internalType": "uint256",
          "name": "",
          "type": "uint256"
        }
      ],
      "name": "withdrawals",
      "outputs": [
        {
          "internalType": "uint256",
          "name": "val",
          "type": "uint256"
        },
        {
          "internalType": "uint256",
          "name": "eraReq",
          "type": "uint256"
        },
        {
          "internalType": "uint256",
          "name": "lag",
          "type": "uint256"
        }
      ],
      "stateMutability": "view",
      "type": "function"
    }
  ],
  "bytecode": {
    "object": "0x608060405234801561001057600080fd5b5061239e806100206000396000f3fe608060405234801561001057600080fd5b50600436106103fb5760003560e01c80638062939011610215578063c3b49d0411610125578063dcf425df116100b8578063eb51a44c11610087578063eb51a44c146109f1578063f128f63114610a1e578063f188768414610a27578063fb67510514610a30578063fd5e6dd114610a3857600080fd5b8063dcf425df14610943578063e09c1954146109ac578063e2e836f8146109d5578063e77ee345146109e857600080fd5b8063d0b06f5d116100f4578063d0b06f5d14610901578063d547741f1461090a578063d6356ff41461091d578063da3bc9581461093057600080fd5b8063c3b49d041461088a578063c4e137e71461089d578063c71367b5146108ca578063c8902a21146108d357600080fd5b8063a5ae02ac116101a8578063af66c36b11610177578063af66c36b1461083f578063bd1bbd3b14610848578063bf2d9e0b1461085b578063bf8137ab14610864578063c21a72761461087757600080fd5b8063a5ae02ac14610805578063ab48692914610825578063ad7a672f1461082d578063adc1b9561461083657600080fd5b8063973628f6116101e4578063973628f6146107b5578063a217fddf146107bd578063a2ce0f4a146107c5578063a44bca8e146107e557600080fd5b8063806293901461076057806386b3cd26146107735780638c0f9aac1461077f57806391d14854146107a257600080fd5b806340bf8a8d116103105780635c975abb116102a35780636bbea766116102725780636bbea766146106e05780636f1e8533146106f35780636f5e4488146107165780636f68f2e91461071f5780637111dfa31461074d57600080fd5b80635c975abb146106a85780635ca5914e146106bc5780635f1554e3146106cf57806366666aa9146106d757600080fd5b80635495ec81116102df5780635495ec811461066357806354b057f91461066c57806359601ebc1461069757806359b40f411461069f57600080fd5b806340bf8a8d146105fd578063422b1077146106125780634421bd1e146106405780634d6174511461065a57600080fd5b80631bb5e2dc116103935780632a14d8f4116103625780632a14d8f4146105595780632e4a4a17146105845780632ea31bf6146105915780632f2ff15d146105d557806336568abe146105ea57600080fd5b80631bb5e2dc146104fa5780631dc007851461050d57806324025b191461052d578063248a9ca31461053657600080fd5b80630f24ca7d116103cf5780630f24ca7d1461047d57806312a12a06146104a057806316934fc4146104a95780631b2df850146104e557600080fd5b8062179fbd1461040057806301ffc9a71461041c5780630413f9a51461043f57806305e2a21714610452575b600080fd5b61040960b75481565b6040519081526020015b60405180910390f35b61042f61042a366004611f3b565b610a4b565b6040519015158152602001610413565b61040961044d366004611dd4565b610a82565b60a654610465906001600160a01b031681565b6040516001600160a01b039091168152602001610413565b61042f61048b366004611dd4565b60aa6020526000908152604090205460ff1681565b61040960a85481565b6104d06104b7366004611dd4565b609e602052600090815260409020805460019091015482565b60408051928352602083019190915201610413565b61040960008051602061234983398151915281565b610465610508366004611ef8565b610b6c565b61040961051b366004611ef8565b60ac6020526000908152604090205481565b610409609a5481565b610409610544366004611ef8565b60009081526065602052604090206001015490565b610409610567366004611f63565b805160208183018101805160c38252928201919093012091525481565b60b65461042f9060ff1681565b6105be61059f366004611ef8565b60a1602052600090815260409020805460019091015460ff9091169082565b604080519215158352602083019190915201610413565b6105e86105e3366004611f10565b610b96565b005b6105e86105f8366004611f10565b610bc0565b610605610c43565b6040516104139190612199565b610625610620366004611dee565b610cd1565b60408051938452602084019290925290820152606001610413565b610648600981565b60405160ff9091168152602001610413565b61040960bb5481565b61040960a95481565b61040961067a366004611dee565b60ae60209081526000928352604080842090915290825290205481565b610648600181565b61046561500181565b60c75461042f90600160a01b900460ff1681565b60c754610465906001600160a01b031681565b610648600a81565b610409609c5481565b609d54610465906001600160a01b031681565b61042f610701366004611dd4565b60a76020526000908152604090205460ff1681565b610409609b5481565b61042f61072d366004611f63565b805160208183018101805160c18252928201919093012091525460ff1681565b6105e861075b366004611dd4565b610d13565b6105e861076e366004611e49565b61116f565b61040964e8d4a5100081565b61042f61078d366004611dd4565b60b86020526000908152604090205460ff1681565b61042f6107b0366004611f10565b6111dc565b610409611207565b610409600081565b6104096107d3366004611ef8565b60c46020526000908152604090205481565b6104096107f3366004611dd4565b60b06020526000908152604090205481565b610409610813366004611dd4565b60b96020526000908152604090205481565b610605611281565b61040960995481565b61040960b35481565b61040960b55481565b60c554610465906001600160a01b031681565b61040960ad5481565b6105e8610872366004611dd4565b61128e565b610409610885366004611ef8565b6115ef565b610465610898366004611ef8565b611606565b6105be6108ab366004611ef8565b60a0602052600090815260409020805460019091015460ff9091169082565b61040960a35481565b61042f6108e1366004611f63565b805160208183018101805160c28252928201919093012091525460ff1681565b61040960a45481565b6105e8610918366004611f10565b611616565b61040961092b366004611e17565b61163b565b61060561093e366004611ef8565b611679565b610987610951366004611f63565b805160208183018101805160c0825292820191909301209152805460018201546002909201546001600160a01b03909116919083565b604080516001600160a01b039094168452602084019290925290820152606001610413565b6104656109ba366004611dd4565b60b1602052600090815260409020546001600160a01b031681565b60c654610465906001600160a01b031681565b61040960bc5481565b6105be6109ff366004611ef8565b60a2602052600090815260409020805460019091015460ff9091169082565b61040960b25481565b61040960b45481565b6105e86116a4565b610465610a46366004611ef8565b61171a565b60006001600160e01b03198216637965db0b60e01b1480610a7c57506301ffc9a760e01b6001600160e01b03198316145b92915050565b60ba54600090610a9457506000919050565b60005b60ba54811015610b665760ba8181548110610ac257634e487b7160e01b600052603260045260246000fd5b600091825260209091200154604051630419c05b60e11b81526001600160a01b0385811660048301529091169063083380b69060240160206040518083038186803b158015610b1057600080fd5b505afa158015610b24573d6000803e3d6000fd5b505050506040513d601f19601f82011682018060405250810190610b489190611ff0565b610b5290836121fd565b915080610b5e816122d7565b915050610a97565b50919050565b60ab8181548110610b7c57600080fd5b6000918252602090912001546001600160a01b0316905081565b600082815260656020526040902060010154610bb18161172a565b610bbb8383611737565b505050565b6001600160a01b0381163314610c355760405162461bcd60e51b815260206004820152602f60248201527f416363657373436f6e74726f6c3a2063616e206f6e6c792072656e6f756e636560448201526e103937b632b9903337b91039b2b63360891b60648201526084015b60405180910390fd5b610c3f82826117bd565b5050565b60988054610c50906122a2565b80601f0160208091040260200160405190810160405280929190818152602001828054610c7c906122a2565b8015610cc95780601f10610c9e57610100808354040283529160200191610cc9565b820191906000526020600020905b815481529060010190602001808311610cac57829003601f168201915b505050505081565b609f6020528160005260406000208181548110610ced57600080fd5b600091825260209091206003909102018054600182015460029092015490935090915083565b600080516020612349833981519152610d2b8161172a565b6001600160a01b038216610d3d575050565b6000610d47611207565b905060b06000846001600160a01b03166001600160a01b031681526020019081526020016000205460c06097604051610d80919061207f565b9081526040805191829003602090810183206001600160a01b038089166000908152600390920183528382206002019590955560ae82528281208682529091522054609d5463e1d9b41760e01b83529092169063e1d9b41790610ded908790609790609890600401612163565b60206040518083038186803b158015610e0557600080fd5b505afa158015610e19573d6000803e3d6000fd5b505050506040513d601f19601f82011682018060405250810190610e3d9190611ff0565b610e479190612248565b60c06097604051610e58919061207f565b9081526040805191829003602090810183206001600160a01b038816600090815260039091018252828120868252909152209190915560c090610e9d9060979061207f565b90815260408051602092819003830190206001600160a01b03861660009081526003909101835281812084825290925290205415610edc576000610edf565b60015b60c06097604051610ef0919061207f565b90815260408051602092819003830190206001600160a01b03871660008181526003909201845282822086835260019081018552838320805460ff191696151596909617909555815260ae909252812091610f4c9084906121fd565b81526020810191909152604090810160002054609d54915163e1d9b41760e01b815290916001600160a01b03169063e1d9b41790610f94908790609790609890600401612163565b60206040518083038186803b158015610fac57600080fd5b505afa158015610fc0573d6000803e3d6000fd5b505050506040513d601f19601f82011682018060405250810190610fe49190611ff0565b610fee9190612248565b60c06097604051610fff919061207f565b90815260408051602092819003830190206001600160a01b038716600090815260039091019092528120906110358460016121fd565b81526020019081526020016000208190555060c06097604051611058919061207f565b90815260408051602092819003830190206001600160a01b0386166000908152600390910190925281209061108e8360016121fd565b8152602001908152602001600020546000146110ab5760006110ae565b60015b60c060976040516110bf919061207f565b90815260200160405180910390206003016000856001600160a01b03166001600160a01b03168152602001908152602001600020600101600083600161110591906121fd565b815260200190815260200160002060006101000a81548160ff0219169083151502179055508060c0609760405161113c919061207f565b908152604080519182900360209081019092206001600160a01b0387166000908152600391820190935291200155505050565b6000805160206123498339815191526111878161172a565b815160005b818110156111d6576111c48482815181106111b757634e487b7160e01b600052603260045260246000fd5b6020026020010151610d13565b806111ce816122d7565b91505061118c565b50505050565b60009182526065602090815260408084206001600160a01b0393909316845291905290205460ff1690565b60006150016001600160a01b031663e608d80b6040518163ffffffff1660e01b815260040160206040518083038186803b15801561124457600080fd5b505afa158015611258573d6000803e3d6000fd5b505050506040513d601f19601f8201168201806040525081019061127c9190611ff0565b905090565b60978054610c50906122a2565b6000805160206123498339815191526112a68161172a565b6001600160a01b0382166112f25760405162461bcd60e51b81526020600482015260136024820152725a65726f206164647265737320616c61726d2160681b6044820152606401610c2c565b60006112fc611207565b60b2546001600160a01b038516600090815260af6020908152604080832085845290915290205491925010156113695760405162461bcd60e51b8152602060048201526012602482015271546f6f206d756368206572612073686f747360701b6044820152606401610c2c565b6001600160a01b038316600090815260af602090815260408083208484529091529020546115a6576001600160a01b038316600090815260af60205260408120816113b5600185612248565b815260200190815260200160002080548060200260200160405190810160405280929190818152602001828054801561140d57602002820191906000526020600020905b8154815260200190600101908083116113f9575b505050505090506000815111156115a457600061142982611824565b9050600060c0604051611451906e41646170746572735574696c69747960881b8152600f0190565b90815260200160405180910390206003016000876001600160a01b03166001600160a01b0316815260200190815260200160002090508181600001600086815260200190815260200160002060008282546114ac91906121fd565b90915550506000848152602082905260409020546114e657600084815260018281016020526040909120805460ff191690911790556114ff565b60008481526001820160205260409020805460ff191690555b604080516e41646170746572735574696c69747960881b815260c0600f820152815190819003602f0190206001600160a01b038816600090815260039182016020529190912001546115a1576115568460016121fd565b6040516e41646170746572735574696c69747960881b815260c090600f0190815260408051602092819003830190206001600160a01b038a1660009081526003918201909352912001555b50505b505b60006115b184610a82565b6001600160a01b03909416600090815260af602090815260408083209483529381529281208054600181018255908252929020909101929092555050565b60bd81600281106115ff57600080fd5b0154905081565b60ba8181548110610b7c57600080fd5b6000828152606560205260409020600101546116318161172a565b610bbb83836117bd565b60af602052826000526040600020602052816000526040600020818154811061166357600080fd5b9060005260206000200160009250925050505481565b60bf818154811061168957600080fd5b906000526020600020016000915090508054610c50906122a2565b6000805160206123498339815191526116bc8161172a565b60a55460005b81811015610bbb5761170860a582815481106116ee57634e487b7160e01b600052603260045260246000fd5b6000918252602090912001546001600160a01b0316610d13565b80611712816122d7565b9150506116c2565b60a58181548110610b7c57600080fd5b6117348133611b6b565b50565b61174182826111dc565b610c3f5760008281526065602090815260408083206001600160a01b03851684529091529020805460ff191660011790556117793390565b6001600160a01b0316816001600160a01b0316837f2f8788117e7eff1d82e926ec794901d17c78024a50270940304540a733656f0d60405160405180910390a45050565b6117c782826111dc565b15610c3f5760008281526065602090815260408083206001600160a01b0385168085529252808320805460ff1916905551339285917ff6391f5c32d9c69d2a47ea670b442974b53935d1edc7fd64eb21e047a839171b9190a45050565b8051600090829082805b611839600184612248565b811015611a8f5760005b600161184f8386612248565b6118599190612248565b81101561199a578461186c8260016121fd565b8151811061188a57634e487b7160e01b600052603260045260246000fd5b60200260200101518582815181106118b257634e487b7160e01b600052603260045260246000fd5b6020026020010151111561198857600192506000856118d183866121fd565b815181106118ef57634e487b7160e01b600052603260045260246000fd5b6020026020010151905085828151811061191957634e487b7160e01b600052603260045260246000fd5b60200260200101518683600161192f91906121fd565b8151811061194d57634e487b7160e01b600052603260045260246000fd5b6020026020010181815250508086838151811061197a57634e487b7160e01b600052603260045260246000fd5b602002602001018181525050505b80611992816122d7565b915050611843565b5081611a7d576119ab6002846122f2565b611a405760028460016119be8387612215565b6119c89190612248565b815181106119e657634e487b7160e01b600052603260045260246000fd5b6020026020010151856002866119fc9190612215565b81518110611a1a57634e487b7160e01b600052603260045260246000fd5b6020026020010151611a2c91906121fd565b611a369190612215565b9695505050505050565b83611a4c600285612215565b81518110611a6a57634e487b7160e01b600052603260045260246000fd5b6020026020010151945050505050919050565b80611a87816122d7565b91505061182e565b50611a9b6002836122f2565b611b2f576002836001611aae8386612215565b611ab89190612248565b81518110611ad657634e487b7160e01b600052603260045260246000fd5b602002602001015184600285611aec9190612215565b81518110611b0a57634e487b7160e01b600052603260045260246000fd5b6020026020010151611b1c91906121fd565b611b269190612215565b95945050505050565b82611b3b600284612215565b81518110611b5957634e487b7160e01b600052603260045260246000fd5b60200260200101519350505050919050565b611b7582826111dc565b610c3f57611b8d816001600160a01b03166014611bcf565b611b98836020611bcf565b604051602001611ba99291906120ee565b60408051601f198184030181529082905262461bcd60e51b8252610c2c91600401612199565b60606000611bde836002612229565b611be99060026121fd565b67ffffffffffffffff811115611c0f57634e487b7160e01b600052604160045260246000fd5b6040519080825280601f01601f191660200182016040528015611c39576020820181803683370190505b509050600360fc1b81600081518110611c6257634e487b7160e01b600052603260045260246000fd5b60200101906001600160f81b031916908160001a905350600f60fb1b81600181518110611c9f57634e487b7160e01b600052603260045260246000fd5b60200101906001600160f81b031916908160001a9053506000611cc3846002612229565b611cce9060016121fd565b90505b6001811115611d62576f181899199a1a9b1b9c1cb0b131b232b360811b85600f1660108110611d1057634e487b7160e01b600052603260045260246000fd5b1a60f81b828281518110611d3457634e487b7160e01b600052603260045260246000fd5b60200101906001600160f81b031916908160001a90535060049490941c93611d5b8161228b565b9050611cd1565b508315611db15760405162461bcd60e51b815260206004820181905260248201527f537472696e67733a20686578206c656e67746820696e73756666696369656e746044820152606401610c2c565b9392505050565b80356001600160a01b0381168114611dcf57600080fd5b919050565b600060208284031215611de5578081fd5b611db182611db8565b60008060408385031215611e00578081fd5b611e0983611db8565b946020939093013593505050565b600080600060608486031215611e2b578081fd5b611e3484611db8565b95602085013595506040909401359392505050565b60006020808385031215611e5b578182fd5b823567ffffffffffffffff80821115611e72578384fd5b818501915085601f830112611e85578384fd5b813581811115611e9757611e97612332565b8060051b9150611ea88483016121cc565b8181528481019084860184860187018a1015611ec2578788fd5b8795505b83861015611eeb57611ed781611db8565b835260019590950194918601918601611ec6565b5098975050505050505050565b600060208284031215611f09578081fd5b5035919050565b60008060408385031215611f22578182fd5b82359150611f3260208401611db8565b90509250929050565b600060208284031215611f4c578081fd5b81356001600160e01b031981168114611db1578182fd5b60006020808385031215611f75578182fd5b823567ffffffffffffffff80821115611f8c578384fd5b818501915085601f830112611f9f578384fd5b813581811115611fb157611fb1612332565b611fc3601f8201601f191685016121cc565b91508082528684828501011115611fd8578485fd5b80848401858401378101909201929092529392505050565b600060208284031215612001578081fd5b5051919050565b60008154612015816122a2565b808552602060018381168015612032576001811461204657612074565b60ff19851688840152604088019550612074565b866000528260002060005b8581101561206c5781548a8201860152908301908401612051565b890184019650505b505050505092915050565b600080835461208d816122a2565b600182811680156120a557600181146120b6576120e2565b60ff198416875282870194506120e2565b8786526020808720875b858110156120d95781548a8201529084019082016120c0565b50505082870194505b50929695505050505050565b7f416363657373436f6e74726f6c3a206163636f756e742000000000000000000081526000835161212681601785016020880161225f565b7001034b99036b4b9b9b4b733903937b6329607d1b601791840191820152835161215781602884016020880161225f565b01602801949350505050565b6001600160a01b038416815260606020820181905260009061218790830185612008565b8281036040840152611a368185612008565b60208152600082518060208401526121b881604085016020870161225f565b601f01601f19169190910160400192915050565b604051601f8201601f1916810167ffffffffffffffff811182821017156121f5576121f5612332565b604052919050565b6000821982111561221057612210612306565b500190565b6000826122245761222461231c565b500490565b600081600019048311821515161561224357612243612306565b500290565b60008282101561225a5761225a612306565b500390565b60005b8381101561227a578181015183820152602001612262565b838111156111d65750506000910152565b60008161229a5761229a612306565b506000190190565b600181811c908216806122b657607f821691505b60208210811415610b6657634e487b7160e01b600052602260045260246000fd5b60006000198214156122eb576122eb612306565b5060010190565b6000826123015761230161231c565b500690565b634e487b7160e01b600052601160045260246000fd5b634e487b7160e01b600052601260045260246000fd5b634e487b7160e01b600052604160045260246000fdfeaf290d8680820aad922855f39b306097b20e28774d6c1ad35a20325630c3a02ca2646970667358221220b902b50da85a6bacb86494f2e44a8eb8089eb9f5018557aee455aac64803780464736f6c63430008040033",
    "linkReferences": {}
  },
  "methodIdentifiers": {
    "DAPPS_STAKING()": "59b40f41",
    "DEFAULT_ADMIN_ROLE()": "a217fddf",
    "DNTname()": "40bf8a8d",
    "MANAGEMENT_FEE()": "5f1554e3",
    "MANAGER()": "1b2df850",
    "REVENUE_FEE()": "4421bd1e",
    "REWARDS_PRECISION()": "86b3cd26",
    "UNSTAKING_FEE()": "59601ebc",
    "accumulatedRewardsPerShare(uint256)": "a2ce0f4a",
    "adaptersDistr()": "e2e836f8",
    "buffer(address,uint256)": "54b057f9",
    "claimingTxLimit()": "00179fbd",
    "currentEra()": "973628f6",
    "dapps(string)": "dcf425df",
    "dappsList(uint256)": "da3bc958",
    "deactivationEra(string)": "2a14d8f4",
    "distr()": "6bbea766",
    "dntToken()": "05e2a217",
    "eraBuffer(uint256)": "c21a7276",
    "eraRevenue(uint256)": "eb51a44c",
    "eraRewards(uint256)": "1dc00785",
    "eraShot(address)": "bf8137ab",
    "eraShotsLimit()": "f128f631",
    "eraStakerReward(uint256)": "2ea31bf6",
    "eraUnstaked(uint256)": "c4e137e7",
    "getRoleAdmin(bytes32)": "248a9ca3",
    "getUserLpTokens(address)": "0413f9a5",
    "grantRole(bytes32,address)": "2f2ff15d",
    "hasRole(bytes32,address)": "91d14854",
    "haveUtility(string)": "6f68f2e9",
    "isActive(string)": "c8902a21",
    "isLpToken(address)": "0f24ca7d",
    "isPartner(address)": "8c0f9aac",
    "isStaker(address)": "6f1e8533",
    "isUnstakes()": "2e4a4a17",
    "lastClaimed()": "adc1b956",
    "lastEraTotalBalance()": "e77ee345",
    "lastStaked()": "12a12a06",
    "lastUnstaked()": "5495ec81",
    "lastUpdated()": "d0b06f5d",
    "liquidStakingManager()": "5ca5914e",
    "lpHandlers(address)": "e09c1954",
    "lpTokens(uint256)": "1bb5e2dc",
    "migrateBatch(address[])": "80629390",
    "migrateInternalStorage()": "fb675105",
    "migrateStorage(address)": "7111dfa3",
    "minStakeAmount()": "f1887684",
    "nftDistr()": "bd1bbd3b",
    "partnerIdx(address)": "a5ae02ac",
    "partners(uint256)": "c3b49d04",
    "partnersLimit()": "4d617451",
    "paused()": "5c975abb",
    "renounceRole(bytes32,address)": "36568abe",
    "revokeRole(bytes32,address)": "d547741f",
    "rewardPool()": "66666aa9",
    "stakers(uint256)": "fd5e6dd1",
    "stakes(address)": "16934fc4",
    "sum2unstake()": "af66c36b",
    "supportsInterface(bytes4)": "01ffc9a7",
    "totalBalance()": "ad7a672f",
    "totalRevenue()": "bf2d9e0b",
    "totalUserRewards(address)": "a44bca8e",
    "unbondedPool()": "c71367b5",
    "unstakingPool()": "6f5e4488",
    "usersShotsPerEra(address,uint256,uint256)": "d6356ff4",
    "utilName()": "ab486929",
    "withdrawBlock()": "24025b19",
    "withdrawals(address,uint256)": "422b1077"
  },
  "id": 13
}