{
  "abi": [
    {
      "inputs": [
        {
          "internalType": "string",
          "name": "_uri",
          "type": "string"
        }
      ],
      "stateMutability": "nonpayable",
      "type": "constructor"
    },
    {
      "anonymous": false,
      "inputs": [
        {
          "indexed": true,
          "internalType": "address",
          "name": "owner",
          "type": "address"
        },
        {
          "indexed": true,
          "internalType": "address",
          "name": "approved",
          "type": "address"
        },
        {
          "indexed": true,
          "internalType": "uint256",
          "name": "tokenId",
          "type": "uint256"
        }
      ],
      "name": "Approval",
      "type": "event"
    },
    {
      "anonymous": false,
      "inputs": [
        {
          "indexed": true,
          "internalType": "address",
          "name": "owner",
          "type": "address"
        },
        {
          "indexed": true,
          "internalType": "address",
          "name": "operator",
          "type": "address"
        },
        {
          "indexed": false,
          "internalType": "bool",
          "name": "approved",
          "type": "bool"
        }
      ],
      "name": "ApprovalForAll",
      "type": "event"
    },
    {
      "anonymous": false,
      "inputs": [
        {
          "indexed": true,
          "internalType": "address",
          "name": "to",
          "type": "address"
        },
        {
          "indexed": false,
          "internalType": "uint256",
          "name": "id",
          "type": "uint256"
        }
      ],
      "name": "Mint",
      "type": "event"
    },
    {
      "anonymous": false,
      "inputs": [
        {
          "indexed": true,
          "internalType": "address",
          "name": "minter",
          "type": "address"
        }
      ],
      "name": "MinterAdd",
      "type": "event"
    },
    {
      "anonymous": false,
      "inputs": [
        {
          "indexed": true,
          "internalType": "address",
          "name": "minter",
          "type": "address"
        }
      ],
      "name": "MinterRemove",
      "type": "event"
    },
    {
      "anonymous": false,
      "inputs": [
        {
          "indexed": true,
          "internalType": "bytes32",
          "name": "role",
          "type": "bytes32"
        },
        {
          "indexed": true,
          "internalType": "bytes32",
          "name": "previousAdminRole",
          "type": "bytes32"
        },
        {
          "indexed": true,
          "internalType": "bytes32",
          "name": "newAdminRole",
          "type": "bytes32"
        }
      ],
      "name": "RoleAdminChanged",
      "type": "event"
    },
    {
      "anonymous": false,
      "inputs": [
        {
          "indexed": true,
          "internalType": "bytes32",
          "name": "role",
          "type": "bytes32"
        },
        {
          "indexed": true,
          "internalType": "address",
          "name": "account",
          "type": "address"
        },
        {
          "indexed": true,
          "internalType": "address",
          "name": "sender",
          "type": "address"
        }
      ],
      "name": "RoleGranted",
      "type": "event"
    },
    {
      "anonymous": false,
      "inputs": [
        {
          "indexed": true,
          "internalType": "bytes32",
          "name": "role",
          "type": "bytes32"
        },
        {
          "indexed": true,
          "internalType": "address",
          "name": "account",
          "type": "address"
        },
        {
          "indexed": true,
          "internalType": "address",
          "name": "sender",
          "type": "address"
        }
      ],
      "name": "RoleRevoked",
      "type": "event"
    },
    {
      "anonymous": false,
      "inputs": [
        {
          "indexed": true,
          "internalType": "address",
          "name": "from",
          "type": "address"
        },
        {
          "indexed": true,
          "internalType": "address",
          "name": "to",
          "type": "address"
        },
        {
          "indexed": true,
          "internalType": "uint256",
          "name": "tokenId",
          "type": "uint256"
        }
      ],
      "name": "Transfer",
      "type": "event"
    },
    {
      "inputs": [],
      "name": "DEFAULT_ADMIN_ROLE",
      "outputs": [
        {
          "internalType": "bytes32",
          "name": "",
          "type": "bytes32"
        }
      ],
      "stateMutability": "view",
      "type": "function"
    },
    {
      "inputs": [],
      "name": "MINTER_ROLE",
      "outputs": [
        {
          "internalType": "bytes32",
          "name": "",
          "type": "bytes32"
        }
      ],
      "stateMutability": "view",
      "type": "function"
    },
    {
      "inputs": [],
      "name": "_baseUri",
      "outputs": [
        {
          "internalType": "string",
          "name": "uri_",
          "type": "string"
        }
      ],
      "stateMutability": "view",
      "type": "function"
    },
    {
      "inputs": [
        {
          "internalType": "address",
          "name": "_minter",
          "type": "address"
        }
      ],
      "name": "addMinter",
      "outputs": [],
      "stateMutability": "nonpayable",
      "type": "function"
    },
    {
      "inputs": [
        {
          "internalType": "address",
          "name": "to",
          "type": "address"
        },
        {
          "internalType": "uint256",
          "name": "id",
          "type": "uint256"
        }
      ],
      "name": "alarMint",
      "outputs": [],
      "stateMutability": "nonpayable",
      "type": "function"
    },
    {
      "inputs": [
        {
          "internalType": "address",
          "name": "to",
          "type": "address"
        },
        {
          "internalType": "uint256",
          "name": "tokenId",
          "type": "uint256"
        }
      ],
      "name": "approve",
      "outputs": [],
      "stateMutability": "nonpayable",
      "type": "function"
    },
    {
      "inputs": [
        {
          "internalType": "address",
          "name": "owner",
          "type": "address"
        }
      ],
      "name": "balanceOf",
      "outputs": [
        {
          "internalType": "uint256",
          "name": "",
          "type": "uint256"
        }
      ],
      "stateMutability": "view",
      "type": "function"
    },
    {
      "inputs": [
        {
          "internalType": "uint256",
          "name": "id",
          "type": "uint256"
        }
      ],
      "name": "exists",
      "outputs": [
        {
          "internalType": "bool",
          "name": "",
          "type": "bool"
        }
      ],
      "stateMutability": "view",
      "type": "function"
    },
    {
      "inputs": [
        {
          "internalType": "uint256",
          "name": "tokenId",
          "type": "uint256"
        }
      ],
      "name": "getApproved",
      "outputs": [
        {
          "internalType": "address",
          "name": "",
          "type": "address"
        }
      ],
      "stateMutability": "view",
      "type": "function"
    },
    {
      "inputs": [
        {
          "internalType": "bytes32",
          "name": "role",
          "type": "bytes32"
        }
      ],
      "name": "getRoleAdmin",
      "outputs": [
        {
          "internalType": "bytes32",
          "name": "",
          "type": "bytes32"
        }
      ],
      "stateMutability": "view",
      "type": "function"
    },
    {
      "inputs": [
        {
          "internalType": "bytes32",
          "name": "role",
          "type": "bytes32"
        },
        {
          "internalType": "address",
          "name": "account",
          "type": "address"
        }
      ],
      "name": "grantRole",
      "outputs": [],
      "stateMutability": "nonpayable",
      "type": "function"
    },
    {
      "inputs": [
        {
          "internalType": "bytes32",
          "name": "role",
          "type": "bytes32"
        },
        {
          "internalType": "address",
          "name": "account",
          "type": "address"
        }
      ],
      "name": "hasRole",
      "outputs": [
        {
          "internalType": "bool",
          "name": "",
          "type": "bool"
        }
      ],
      "stateMutability": "view",
      "type": "function"
    },
    {
      "inputs": [
        {
          "internalType": "address",
          "name": "owner",
          "type": "address"
        },
        {
          "internalType": "address",
          "name": "operator",
          "type": "address"
        }
      ],
      "name": "isApprovedForAll",
      "outputs": [
        {
          "internalType": "bool",
          "name": "",
          "type": "bool"
        }
      ],
      "stateMutability": "view",
      "type": "function"
    },
    {
      "inputs": [],
      "name": "maxTotal",
      "outputs": [
        {
          "internalType": "uint256",
          "name": "",
          "type": "uint256"
        }
      ],
      "stateMutability": "view",
      "type": "function"
    },
    {
      "inputs": [],
      "name": "name",
      "outputs": [
        {
          "internalType": "string",
          "name": "",
          "type": "string"
        }
      ],
      "stateMutability": "view",
      "type": "function"
    },
    {
      "inputs": [
        {
          "internalType": "uint256",
          "name": "tokenId",
          "type": "uint256"
        }
      ],
      "name": "ownerOf",
      "outputs": [
        {
          "internalType": "address",
          "name": "",
          "type": "address"
        }
      ],
      "stateMutability": "view",
      "type": "function"
    },
    {
      "inputs": [
        {
          "internalType": "address",
          "name": "_minter",
          "type": "address"
        }
      ],
      "name": "removeMinter",
      "outputs": [],
      "stateMutability": "nonpayable",
      "type": "function"
    },
    {
      "inputs": [
        {
          "internalType": "bytes32",
          "name": "role",
          "type": "bytes32"
        },
        {
          "internalType": "address",
          "name": "account",
          "type": "address"
        }
      ],
      "name": "renounceRole",
      "outputs": [],
      "stateMutability": "nonpayable",
      "type": "function"
    },
    {
      "inputs": [],
      "name": "reserved",
      "outputs": [
        {
          "internalType": "uint256",
          "name": "",
          "type": "uint256"
        }
      ],
      "stateMutability": "view",
      "type": "function"
    },
    {
      "inputs": [
        {
          "internalType": "address",
          "name": "to",
          "type": "address"
        },
        {
          "internalType": "uint256",
          "name": "id",
          "type": "uint256"
        }
      ],
      "name": "reservedMint",
      "outputs": [],
      "stateMutability": "nonpayable",
      "type": "function"
    },
    {
      "inputs": [
        {
          "internalType": "bytes32",
          "name": "role",
          "type": "bytes32"
        },
        {
          "internalType": "address",
          "name": "account",
          "type": "address"
        }
      ],
      "name": "revokeRole",
      "outputs": [],
      "stateMutability": "nonpayable",
      "type": "function"
    },
    {
      "inputs": [
        {
          "internalType": "address",
          "name": "to",
          "type": "address"
        },
        {
          "internalType": "uint256",
          "name": "id",
          "type": "uint256"
        }
      ],
      "name": "safeMint",
      "outputs": [],
      "stateMutability": "nonpayable",
      "type": "function"
    },
    {
      "inputs": [
        {
          "internalType": "address",
          "name": "from",
          "type": "address"
        },
        {
          "internalType": "address",
          "name": "to",
          "type": "address"
        },
        {
          "internalType": "uint256",
          "name": "tokenId",
          "type": "uint256"
        }
      ],
      "name": "safeTransferFrom",
      "outputs": [],
      "stateMutability": "nonpayable",
      "type": "function"
    },
    {
      "inputs": [
        {
          "internalType": "address",
          "name": "from",
          "type": "address"
        },
        {
          "internalType": "address",
          "name": "to",
          "type": "address"
        },
        {
          "internalType": "uint256",
          "name": "tokenId",
          "type": "uint256"
        },
        {
          "internalType": "bytes",
          "name": "data",
          "type": "bytes"
        }
      ],
      "name": "safeTransferFrom",
      "outputs": [],
      "stateMutability": "nonpayable",
      "type": "function"
    },
    {
      "inputs": [
        {
          "internalType": "address",
          "name": "operator",
          "type": "address"
        },
        {
          "internalType": "bool",
          "name": "approved",
          "type": "bool"
        }
      ],
      "name": "setApprovalForAll",
      "outputs": [],
      "stateMutability": "nonpayable",
      "type": "function"
    },
    {
      "inputs": [
        {
          "internalType": "string",
          "name": "_uri",
          "type": "string"
        }
      ],
      "name": "setBaseURI",
      "outputs": [],
      "stateMutability": "nonpayable",
      "type": "function"
    },
    {
      "inputs": [
        {
          "internalType": "bytes4",
          "name": "interfaceID",
          "type": "bytes4"
        }
      ],
      "name": "supportsInterface",
      "outputs": [
        {
          "internalType": "bool",
          "name": "",
          "type": "bool"
        }
      ],
      "stateMutability": "view",
      "type": "function"
    },
    {
      "inputs": [],
      "name": "symbol",
      "outputs": [
        {
          "internalType": "string",
          "name": "",
          "type": "string"
        }
      ],
      "stateMutability": "view",
      "type": "function"
    },
    {
      "inputs": [
        {
          "internalType": "uint256",
          "name": "id",
          "type": "uint256"
        }
      ],
      "name": "tokenURI",
      "outputs": [
        {
          "internalType": "string",
          "name": "",
          "type": "string"
        }
      ],
      "stateMutability": "view",
      "type": "function"
    },
    {
      "inputs": [],
      "name": "totalSupply",
      "outputs": [
        {
          "internalType": "uint256",
          "name": "",
          "type": "uint256"
        }
      ],
      "stateMutability": "view",
      "type": "function"
    },
    {
      "inputs": [
        {
          "internalType": "address",
          "name": "from",
          "type": "address"
        },
        {
          "internalType": "address",
          "name": "to",
          "type": "address"
        },
        {
          "internalType": "uint256",
          "name": "tokenId",
          "type": "uint256"
        }
      ],
      "name": "transferFrom",
      "outputs": [],
      "stateMutability": "nonpayable",
      "type": "function"
    }
  ],
  "bytecode": {
    "object": "0x6080604052611ecd60075560326009553480156200001c57600080fd5b5060405162002594380380620025948339810160408190526200003f916200022f565b604080518082018252601881527f416c67656d616e746973204e617574696c7573205061737300000000000000006020808301918252835180850190945260038452620414e560ec1b9084015281519192916200009f9160009162000189565b508051620000b590600190602084019062000189565b50620000c791506000905033620000e4565b8051620000dc90600a90602084019062000189565b505062000358565b60008281526006602090815260408083206001600160a01b038516845290915290205460ff16620001855760008281526006602090815260408083206001600160a01b03851684529091529020805460ff19166001179055620001443390565b6001600160a01b0316816001600160a01b0316837f2f8788117e7eff1d82e926ec794901d17c78024a50270940304540a733656f0d60405160405180910390a45b5050565b828054620001979062000305565b90600052602060002090601f016020900481019282620001bb576000855562000206565b82601f10620001d657805160ff191683800117855562000206565b8280016001018555821562000206579182015b8281111562000206578251825591602001919060010190620001e9565b506200021492915062000218565b5090565b5b8082111562000214576000815560010162000219565b6000602080838503121562000242578182fd5b82516001600160401b038082111562000259578384fd5b818501915085601f8301126200026d578384fd5b81518181111562000282576200028262000342565b604051601f8201601f19908116603f01168101908382118183101715620002ad57620002ad62000342565b816040528281528886848701011115620002c5578687fd5b8693505b82841015620002e85784840186015181850187015292850192620002c9565b82841115620002f957868684830101525b98975050505050505050565b600181811c908216806200031a57607f821691505b602082108114156200033c57634e487b7160e01b600052602260045260246000fd5b50919050565b634e487b7160e01b600052604160045260246000fd5b61222c80620003686000396000f3fe608060405234801561001057600080fd5b50600436106101e55760003560e01c80636352211e1161010f578063a22cb465116100a2578063d539139311610071578063d539139314610405578063d547741f1461041a578063e985e9c51461042d578063fe60d12c1461046957600080fd5b8063a22cb465146103b9578063b7a34c8a146103cc578063b88d4fde146103df578063c87b56dd146103f257600080fd5b806395d89b41116100de57806395d89b4114610383578063983b2d561461038b578063a14481941461039e578063a217fddf146103b157600080fd5b80636352211e14610341578063648e3c261461035457806370a082311461035d57806391d148541461037057600080fd5b80632f2ff15d1161018757806342842e0e1161015657806342842e0e146102f55780634f558e791461030857806355f804b31461031b57806362ee0c441461032e57600080fd5b80632f2ff15d146102b45780633092afd5146102c757806336568abe146102da5780633e63eb2a146102ed57600080fd5b8063095ea7b3116101c3578063095ea7b31461025257806318160ddd1461026757806323b872dd1461027e578063248a9ca31461029157600080fd5b806301ffc9a7146101ea57806306fdde0314610212578063081812fc14610227575b600080fd5b6101fd6101f8366004611cc9565b610472565b60405190151581526020015b60405180910390f35b61021a610483565b6040516102099190611f13565b61023a610235366004611c8f565b610515565b6040516001600160a01b039091168152602001610209565b610265610260366004611c66565b61053c565b005b61027060085481565b604051908152602001610209565b61026561028c366004611b78565b610657565b61027061029f366004611c8f565b60009081526006602052604090206001015490565b6102656102c2366004611ca7565b610688565b6102656102d5366004611b2c565b6106ad565b6102656102e8366004611ca7565b6107a3565b61021a610821565b610265610303366004611b78565b610830565b6101fd610316366004611c8f565b61084b565b610265610329366004611d01565b610856565b61026561033c366004611c66565b610874565b61023a61034f366004611c8f565b61097a565b61027060075481565b61027061036b366004611b2c565b6109da565b6101fd61037e366004611ca7565b610a60565b61021a610a8b565b610265610399366004611b2c565b610a9a565b6102656103ac366004611c66565b610b93565b610270600081565b6102656103c7366004611c2c565b610c93565b6102656103da366004611c66565b610c9e565b6102656103ed366004611bb3565b610dc2565b61021a610400366004611c8f565b610dfa565b6102706000805160206121d783398151915281565b610265610428366004611ca7565b610e81565b6101fd61043b366004611b46565b6001600160a01b03918216600090815260056020908152604080832093909416825291909152205460ff1690565b61027060095481565b600061047d82610ea6565b92915050565b60606000805461049290612114565b80601f01602080910402602001604051908101604052809291908181526020018280546104be90612114565b801561050b5780601f106104e05761010080835404028352916020019161050b565b820191906000526020600020905b8154815290600101906020018083116104ee57829003601f168201915b5050505050905090565b600061052082610ecb565b506000908152600460205260409020546001600160a01b031690565b60006105478261097a565b9050806001600160a01b0316836001600160a01b031614156105ba5760405162461bcd60e51b815260206004820152602160248201527f4552433732313a20617070726f76616c20746f2063757272656e74206f776e656044820152603960f91b60648201526084015b60405180910390fd5b336001600160a01b03821614806105d657506105d6813361043b565b6106485760405162461bcd60e51b815260206004820152603e60248201527f4552433732313a20617070726f76652063616c6c6572206973206e6f7420746f60448201527f6b656e206f776e6572206e6f7220617070726f76656420666f7220616c6c000060648201526084016105b1565b6106528383610f1e565b505050565b6106613382610f8c565b61067d5760405162461bcd60e51b81526004016105b190612021565b61065283838361100b565b6000828152600660205260409020600101546106a3816111a7565b61065283836111b1565b60006106b8816111a7565b6001600160a01b0382166107005760405162461bcd60e51b815260206004820152600f60248201526e496e76616c6964206164647265737360881b60448201526064016105b1565b6107186000805160206121d783398151915233610a60565b6107535760405162461bcd60e51b815260206004820152600c60248201526b2737ba10309036b4b73a32b960a11b60448201526064016105b1565b61076b6000805160206121d783398151915283611237565b6040516001600160a01b038316907f21650556aeea2219b7f230eca126c7585ac8ef7049d5bd4fff0f469cf692194390600090a25050565b6001600160a01b03811633146108135760405162461bcd60e51b815260206004820152602f60248201527f416363657373436f6e74726f6c3a2063616e206f6e6c792072656e6f756e636560448201526e103937b632b9903337b91039b2b63360891b60648201526084016105b1565b61081d8282611237565b5050565b6060600a805461049290612114565b61065283838360405180602001604052806000815250610dc2565b600061047d8261129e565b6000610861816111a7565b815161065290600a906020850190611a01565b8181611ece81106108975760405162461bcd60e51b81526004016105b190611fa6565b600754600854106108ba5760405162461bcd60e51b81526004016105b190611fca565b6001600160a01b0382166108e05760405162461bcd60e51b81526004016105b190611ff7565b6108e98161129e565b156109065760405162461bcd60e51b81526004016105b190611f78565b6000610911816111a7565b61091b85856112bb565b6008805490600061092b8361214f565b9190505550846001600160a01b03167f0f6798a560793a54c3bcfe86a93cde1e73087d944c0ea20544137d41213968858560405161096b91815260200190565b60405180910390a25050505050565b6000818152600260205260408120546001600160a01b03168061047d5760405162461bcd60e51b8152602060048201526018602482015277115490cdcc8c4e881a5b9d985b1a59081d1bdad95b88125160421b60448201526064016105b1565b60006001600160a01b038216610a445760405162461bcd60e51b815260206004820152602960248201527f4552433732313a2061646472657373207a65726f206973206e6f7420612076616044820152683634b21037bbb732b960b91b60648201526084016105b1565b506001600160a01b031660009081526003602052604090205490565b60009182526006602090815260408084206001600160a01b0393909316845291905290205460ff1690565b60606001805461049290612114565b6000610aa5816111a7565b6001600160a01b038216610aed5760405162461bcd60e51b815260206004820152600f60248201526e496e76616c6964206164647265737360881b60448201526064016105b1565b610b056000805160206121d783398151915233610a60565b15610b435760405162461bcd60e51b815260206004820152600e60248201526d20b63932b0b23c9036b4b73a32b960911b60448201526064016105b1565b610b5b6000805160206121d7833981519152836111b1565b6040516001600160a01b038316907f4861faea8abf6eeab0508d2a80a2849f5e615c23c44e786aa8298663806acb6690600090a25050565b8181611ece8110610bb65760405162461bcd60e51b81526004016105b190611fa6565b60075460085410610bd95760405162461bcd60e51b81526004016105b190611fca565b6001600160a01b038216610bff5760405162461bcd60e51b81526004016105b190611ff7565b610c088161129e565b15610c255760405162461bcd60e51b81526004016105b190611f78565b6000805160206121d7833981519152610c3d816111a7565b600954600854600754610c5091906120ba565b116109115760405162461bcd60e51b81526020600482015260136024820152724f6e6c79207265736572766564206c6566742160681b60448201526064016105b1565b61081d3383836112d5565b8181611ece8110610cc15760405162461bcd60e51b81526004016105b190611fa6565b60075460085410610ce45760405162461bcd60e51b81526004016105b190611fca565b6001600160a01b038216610d0a5760405162461bcd60e51b81526004016105b190611ff7565b610d138161129e565b15610d305760405162461bcd60e51b81526004016105b190611f78565b6000805160206121d7833981519152610d48816111a7565b600060095411610d935760405162461bcd60e51b81526020600482015260166024820152754e6f206d6f7265207265736572766564206c6566742160501b60448201526064016105b1565b610d9d85856112bb565b60088054906000610dad8361214f565b90915550506009805490600061092b836120fd565b610dcc3383610f8c565b610de85760405162461bcd60e51b81526004016105b190612021565b610df4848484846113a4565b50505050565b6060610e058261129e565b610e495760405162461bcd60e51b8152602060048201526015602482015274546f6b656e20646f6573206e6f742065786973742160581b60448201526064016105b1565b6000610e54836113d7565b9050600a81604051602001610e6a929190611d8f565b604051602081830303815290604052915050919050565b600082815260066020526040902060010154610e9c816111a7565b6106528383611237565b60006001600160e01b03198216637965db0b60e01b148061047d575061047d826114f1565b610ed48161129e565b610f1b5760405162461bcd60e51b8152602060048201526018602482015277115490cdcc8c4e881a5b9d985b1a59081d1bdad95b88125160421b60448201526064016105b1565b50565b600081815260046020526040902080546001600160a01b0319166001600160a01b0384169081179091558190610f538261097a565b6001600160a01b03167f8c5be1e5ebec7d5bd14f71427d1e84f3dd0314c0f7b2291e5b200ac8c7c3b92560405160405180910390a45050565b600080610f988361097a565b9050806001600160a01b0316846001600160a01b03161480610fdf57506001600160a01b0380821660009081526005602090815260408083209388168352929052205460ff165b806110035750836001600160a01b0316610ff884610515565b6001600160a01b0316145b949350505050565b826001600160a01b031661101e8261097a565b6001600160a01b0316146110825760405162461bcd60e51b815260206004820152602560248201527f4552433732313a207472616e736665722066726f6d20696e636f72726563742060448201526437bbb732b960d91b60648201526084016105b1565b6001600160a01b0382166110e45760405162461bcd60e51b8152602060048201526024808201527f4552433732313a207472616e7366657220746f20746865207a65726f206164646044820152637265737360e01b60648201526084016105b1565b6110ef600082610f1e565b6001600160a01b03831660009081526003602052604081208054600192906111189084906120ba565b90915550506001600160a01b038216600090815260036020526040812080546001929061114690849061206f565b909155505060008181526002602052604080822080546001600160a01b0319166001600160a01b0386811691821790925591518493918716917fddf252ad1be2c89b69c2b068fc378daa952ba7f163c4a11628f55a4df523b3ef91a4505050565b610f1b8133611541565b6111bb8282610a60565b61081d5760008281526006602090815260408083206001600160a01b03851684529091529020805460ff191660011790556111f33390565b6001600160a01b0316816001600160a01b0316837f2f8788117e7eff1d82e926ec794901d17c78024a50270940304540a733656f0d60405160405180910390a45050565b6112418282610a60565b1561081d5760008281526006602090815260408083206001600160a01b0385168085529252808320805460ff1916905551339285917ff6391f5c32d9c69d2a47ea670b442974b53935d1edc7fd64eb21e047a839171b9190a45050565b6000908152600260205260409020546001600160a01b0316151590565b61081d8282604051806020016040528060008152506115a5565b816001600160a01b0316836001600160a01b031614156113375760405162461bcd60e51b815260206004820152601960248201527f4552433732313a20617070726f766520746f2063616c6c65720000000000000060448201526064016105b1565b6001600160a01b03838116600081815260056020908152604080832094871680845294825291829020805460ff191686151590811790915591519182527f17307eab39ab6107e8899845ad3d59bd9653f200f220920489ca2b5937696c31910160405180910390a3505050565b6113af84848461100b565b6113bb848484846115d8565b610df45760405162461bcd60e51b81526004016105b190611f26565b6060816113fb5750506040805180820190915260018152600360fc1b602082015290565b8160005b8115611425578061140f8161214f565b915061141e9050600a83612087565b91506113ff565b60008167ffffffffffffffff81111561144e57634e487b7160e01b600052604160045260246000fd5b6040519080825280601f01601f191660200182016040528015611478576020820181803683370190505b5090505b84156110035761148d6001836120ba565b915061149a600a8661216a565b6114a590603061206f565b60f81b8183815181106114c857634e487b7160e01b600052603260045260246000fd5b60200101906001600160f81b031916908160001a9053506114ea600a86612087565b945061147c565b60006001600160e01b031982166380ac58cd60e01b148061152257506001600160e01b03198216635b5e139f60e01b145b8061047d57506301ffc9a760e01b6001600160e01b031983161461047d565b61154b8282610a60565b61081d57611563816001600160a01b031660146116e5565b61156e8360206116e5565b60405160200161157f929190611e61565b60408051601f198184030181529082905262461bcd60e51b82526105b191600401611f13565b6115af83836118ce565b6115bc60008484846115d8565b6106525760405162461bcd60e51b81526004016105b190611f26565b60006001600160a01b0384163b156116da57604051630a85bd0160e11b81526001600160a01b0385169063150b7a029061161c903390899088908890600401611ed6565b602060405180830381600087803b15801561163657600080fd5b505af1925050508015611666575060408051601f3d908101601f1916820190925261166391810190611ce5565b60015b6116c0573d808015611694576040519150601f19603f3d011682016040523d82523d6000602084013e611699565b606091505b5080516116b85760405162461bcd60e51b81526004016105b190611f26565b805181602001fd5b6001600160e01b031916630a85bd0160e11b149050611003565b506001949350505050565b606060006116f483600261209b565b6116ff90600261206f565b67ffffffffffffffff81111561172557634e487b7160e01b600052604160045260246000fd5b6040519080825280601f01601f19166020018201604052801561174f576020820181803683370190505b509050600360fc1b8160008151811061177857634e487b7160e01b600052603260045260246000fd5b60200101906001600160f81b031916908160001a905350600f60fb1b816001815181106117b557634e487b7160e01b600052603260045260246000fd5b60200101906001600160f81b031916908160001a90535060006117d984600261209b565b6117e490600161206f565b90505b6001811115611878576f181899199a1a9b1b9c1cb0b131b232b360811b85600f166010811061182657634e487b7160e01b600052603260045260246000fd5b1a60f81b82828151811061184a57634e487b7160e01b600052603260045260246000fd5b60200101906001600160f81b031916908160001a90535060049490941c93611871816120fd565b90506117e7565b5083156118c75760405162461bcd60e51b815260206004820181905260248201527f537472696e67733a20686578206c656e67746820696e73756666696369656e7460448201526064016105b1565b9392505050565b6001600160a01b0382166119245760405162461bcd60e51b815260206004820181905260248201527f4552433732313a206d696e7420746f20746865207a65726f206164647265737360448201526064016105b1565b61192d8161129e565b1561197a5760405162461bcd60e51b815260206004820152601c60248201527f4552433732313a20746f6b656e20616c7265616479206d696e7465640000000060448201526064016105b1565b6001600160a01b03821660009081526003602052604081208054600192906119a390849061206f565b909155505060008181526002602052604080822080546001600160a01b0319166001600160a01b03861690811790915590518392907fddf252ad1be2c89b69c2b068fc378daa952ba7f163c4a11628f55a4df523b3ef908290a45050565b828054611a0d90612114565b90600052602060002090601f016020900481019282611a2f5760008555611a75565b82601f10611a4857805160ff1916838001178555611a75565b82800160010185558215611a75579182015b82811115611a75578251825591602001919060010190611a5a565b50611a81929150611a85565b5090565b5b80821115611a815760008155600101611a86565b600067ffffffffffffffff80841115611ab557611ab56121aa565b604051601f8501601f19908116603f01168101908282118183101715611add57611add6121aa565b81604052809350858152868686011115611af657600080fd5b858560208301376000602087830101525050509392505050565b80356001600160a01b0381168114611b2757600080fd5b919050565b600060208284031215611b3d578081fd5b6118c782611b10565b60008060408385031215611b58578081fd5b611b6183611b10565b9150611b6f60208401611b10565b90509250929050565b600080600060608486031215611b8c578081fd5b611b9584611b10565b9250611ba360208501611b10565b9150604084013590509250925092565b60008060008060808587031215611bc8578081fd5b611bd185611b10565b9350611bdf60208601611b10565b925060408501359150606085013567ffffffffffffffff811115611c01578182fd5b8501601f81018713611c11578182fd5b611c2087823560208401611a9a565b91505092959194509250565b60008060408385031215611c3e578182fd5b611c4783611b10565b915060208301358015158114611c5b578182fd5b809150509250929050565b60008060408385031215611c78578182fd5b611c8183611b10565b946020939093013593505050565b600060208284031215611ca0578081fd5b5035919050565b60008060408385031215611cb9578182fd5b82359150611b6f60208401611b10565b600060208284031215611cda578081fd5b81356118c7816121c0565b600060208284031215611cf6578081fd5b81516118c7816121c0565b600060208284031215611d12578081fd5b813567ffffffffffffffff811115611d28578182fd5b8201601f81018413611d38578182fd5b61100384823560208401611a9a565b60008151808452611d5f8160208601602086016120d1565b601f01601f19169290920160200192915050565b60008151611d858185602086016120d1565b9290920192915050565b600080845482600182811c915080831680611dab57607f831692505b6020808410821415611dcb57634e487b7160e01b87526022600452602487fd5b818015611ddf5760018114611df057611e1c565b60ff19861689528489019650611e1c565b60008b815260209020885b86811015611e145781548b820152908501908301611dfb565b505084890196505b505050505050611e58611e47611e4183686d657461646174612f60b81b815260090190565b86611d73565b64173539b7b760d91b815260050190565b95945050505050565b7f416363657373436f6e74726f6c3a206163636f756e7420000000000000000000815260008351611e998160178501602088016120d1565b7001034b99036b4b9b9b4b733903937b6329607d1b6017918401918201528351611eca8160288401602088016120d1565b01602801949350505050565b6001600160a01b0385811682528416602082015260408101839052608060608201819052600090611f0990830184611d47565b9695505050505050565b6020815260006118c76020830184611d47565b60208082526032908201527f4552433732313a207472616e7366657220746f206e6f6e20455243373231526560408201527131b2b4bb32b91034b6b83632b6b2b73a32b960711b606082015260800190565b602080825260149082015273494420616c7265616479206f636375706965642160601b604082015260600190565b6020808252600a9082015269125b9d985b1a59081a5960b21b604082015260600190565b602080825260139082015272546f74616c20737570706c79206c696d69742160681b604082015260600190565b60208082526010908201526f496e76616c696420616464726573732160801b604082015260600190565b6020808252602e908201527f4552433732313a2063616c6c6572206973206e6f7420746f6b656e206f776e6560408201526d1c881b9bdc88185c1c1c9bdd995960921b606082015260800190565b600082198211156120825761208261217e565b500190565b60008261209657612096612194565b500490565b60008160001904831182151516156120b5576120b561217e565b500290565b6000828210156120cc576120cc61217e565b500390565b60005b838110156120ec5781810151838201526020016120d4565b83811115610df45750506000910152565b60008161210c5761210c61217e565b506000190190565b600181811c9082168061212857607f821691505b6020821081141561214957634e487b7160e01b600052602260045260246000fd5b50919050565b60006000198214156121635761216361217e565b5060010190565b60008261217957612179612194565b500690565b634e487b7160e01b600052601160045260246000fd5b634e487b7160e01b600052601260045260246000fd5b634e487b7160e01b600052604160045260246000fd5b6001600160e01b031981168114610f1b57600080fdfe9f2df0fed2c77648de5860a4cc508cd0818c85b8b8a1ab4ceeef8d981c8956a6a264697066735822122034b2e06515688352a9c93ee649d2c4076da285f08e1dca7b79ef90a4d8eace2864736f6c63430008040033",
    "linkReferences": {}
  },
  "methodIdentifiers": {
    "DEFAULT_ADMIN_ROLE()": "a217fddf",
    "MINTER_ROLE()": "d5391393",
    "_baseUri()": "3e63eb2a",
    "addMinter(address)": "983b2d56",
    "alarMint(address,uint256)": "62ee0c44",
    "approve(address,uint256)": "095ea7b3",
    "balanceOf(address)": "70a08231",
    "exists(uint256)": "4f558e79",
    "getApproved(uint256)": "081812fc",
    "getRoleAdmin(bytes32)": "248a9ca3",
    "grantRole(bytes32,address)": "2f2ff15d",
    "hasRole(bytes32,address)": "91d14854",
    "isApprovedForAll(address,address)": "e985e9c5",
    "maxTotal()": "648e3c26",
    "name()": "06fdde03",
    "ownerOf(uint256)": "6352211e",
    "removeMinter(address)": "3092afd5",
    "renounceRole(bytes32,address)": "36568abe",
    "reserved()": "fe60d12c",
    "reservedMint(address,uint256)": "b7a34c8a",
    "revokeRole(bytes32,address)": "d547741f",
    "safeMint(address,uint256)": "a1448194",
    "safeTransferFrom(address,address,uint256)": "42842e0e",
    "safeTransferFrom(address,address,uint256,bytes)": "b88d4fde",
    "setApprovalForAll(address,bool)": "a22cb465",
    "setBaseURI(string)": "55f804b3",
    "supportsInterface(bytes4)": "01ffc9a7",
    "symbol()": "95d89b41",
    "tokenURI(uint256)": "c87b56dd",
    "totalSupply()": "18160ddd",
    "transferFrom(address,address,uint256)": "23b872dd"
  },
  "id": 3
}