{
  "abi": [
    {
      "inputs": [],
      "stateMutability": "nonpayable",
      "type": "constructor"
    },
    {
      "anonymous": false,
      "inputs": [
        {
          "indexed": true,
          "internalType": "address",
          "name": "user",
          "type": "address"
        },
        {
          "indexed": true,
          "internalType": "uint256[2]",
          "name": "amounts",
          "type": "uint256[2]"
        },
        {
          "indexed": false,
          "internalType": "bool",
          "name": "autoStake",
          "type": "bool"
        },
        {
          "indexed": true,
          "internalType": "uint256",
          "name": "lpAmount",
          "type": "uint256"
        }
      ],
      "name": "AddLiquidity",
      "type": "event"
    },
    {
      "anonymous": false,
      "inputs": [
        {
          "indexed": true,
          "internalType": "address",
          "name": "user",
          "type": "address"
        },
        {
          "indexed": true,
          "internalType": "uint256",
          "name": "amount",
          "type": "uint256"
        }
      ],
      "name": "Claim",
      "type": "event"
    },
    {
      "anonymous": false,
      "inputs": [
        {
          "indexed": true,
          "internalType": "address",
          "name": "",
          "type": "address"
        },
        {
          "indexed": false,
          "internalType": "uint256",
          "name": "amount",
          "type": "uint256"
        }
      ],
      "name": "DepositLP",
      "type": "event"
    },
    {
      "anonymous": false,
      "inputs": [
        {
          "indexed": true,
          "internalType": "address",
          "name": "user",
          "type": "address"
        },
        {
          "indexed": true,
          "internalType": "uint256",
          "name": "rewardsToHarvest",
          "type": "uint256"
        }
      ],
      "name": "HarvestRewards",
      "type": "event"
    },
    {
      "anonymous": false,
      "inputs": [
        {
          "indexed": false,
          "internalType": "uint8",
          "name": "version",
          "type": "uint8"
        }
      ],
      "name": "Initialized",
      "type": "event"
    },
    {
      "anonymous": false,
      "inputs": [
        {
          "indexed": true,
          "internalType": "address",
          "name": "previousOwner",
          "type": "address"
        },
        {
          "indexed": true,
          "internalType": "address",
          "name": "newOwner",
          "type": "address"
        }
      ],
      "name": "OwnershipTransferred",
      "type": "event"
    },
    {
      "anonymous": false,
      "inputs": [
        {
          "indexed": true,
          "internalType": "address",
          "name": "user",
          "type": "address"
        },
        {
          "indexed": false,
          "internalType": "uint256",
          "name": "amountLP",
          "type": "uint256"
        },
        {
          "indexed": true,
          "internalType": "uint256",
          "name": "receivedASTR",
          "type": "uint256"
        }
      ],
      "name": "RemoveLiquidity",
      "type": "event"
    },
    {
      "anonymous": false,
      "inputs": [
        {
          "indexed": true,
          "internalType": "bool",
          "name": "_b",
          "type": "bool"
        }
      ],
      "name": "SetAbilityToAddLpAndGauge",
      "type": "event"
    },
    {
      "anonymous": false,
      "inputs": [
        {
          "indexed": false,
          "internalType": "address",
          "name": "user",
          "type": "address"
        },
        {
          "indexed": false,
          "internalType": "string",
          "name": "utilityName",
          "type": "string"
        },
        {
          "indexed": false,
          "internalType": "uint256",
          "name": "amount",
          "type": "uint256"
        },
        {
          "indexed": false,
          "internalType": "string",
          "name": "reason",
          "type": "string"
        }
      ],
      "name": "UpdateBalError",
      "type": "event"
    },
    {
      "anonymous": false,
      "inputs": [
        {
          "indexed": false,
          "internalType": "address",
          "name": "user",
          "type": "address"
        },
        {
          "indexed": false,
          "internalType": "string",
          "name": "utilityName",
          "type": "string"
        },
        {
          "indexed": false,
          "internalType": "uint256",
          "name": "amount",
          "type": "uint256"
        }
      ],
      "name": "UpdateBalSuccess",
      "type": "event"
    },
    {
      "anonymous": false,
      "inputs": [
        {
          "indexed": true,
          "internalType": "address",
          "name": "user",
          "type": "address"
        },
        {
          "indexed": true,
          "internalType": "uint256",
          "name": "amount",
          "type": "uint256"
        },
        {
          "indexed": true,
          "internalType": "bool",
          "name": "autoWithdraw",
          "type": "bool"
        }
      ],
      "name": "WithdrawLP",
      "type": "event"
    },
    {
      "inputs": [],
      "name": "REVENUE_FEE",
      "outputs": [
        {
          "internalType": "uint256",
          "name": "",
          "type": "uint256"
        }
      ],
      "stateMutability": "view",
      "type": "function"
    },
    {
      "inputs": [],
      "name": "accumulatedRewardsPerShare",
      "outputs": [
        {
          "internalType": "uint256",
          "name": "",
          "type": "uint256"
        }
      ],
      "stateMutability": "view",
      "type": "function"
    },
    {
      "inputs": [],
      "name": "adaptersDistributor",
      "outputs": [
        {
          "internalType": "contract IAdaptersDistributor",
          "name": "",
          "type": "address"
        }
      ],
      "stateMutability": "view",
      "type": "function"
    },
    {
      "inputs": [
        {
          "internalType": "uint256",
          "name": "_amount",
          "type": "uint256"
        }
      ],
      "name": "addGauge",
      "outputs": [],
      "stateMutability": "nonpayable",
      "type": "function"
    },
    {
      "inputs": [
        {
          "internalType": "uint256[]",
          "name": "_amounts",
          "type": "uint256[]"
        },
        {
          "internalType": "bool",
          "name": "_autoStake",
          "type": "bool"
        }
      ],
      "name": "addLiquidity",
      "outputs": [],
      "stateMutability": "payable",
      "type": "function"
    },
    {
      "inputs": [
        {
          "internalType": "uint256",
          "name": "_amount",
          "type": "uint256"
        },
        {
          "internalType": "bool",
          "name": "_autoDeposit",
          "type": "bool"
        }
      ],
      "name": "addLp",
      "outputs": [],
      "stateMutability": "nonpayable",
      "type": "function"
    },
    {
      "inputs": [
        {
          "internalType": "address",
          "name": "_user",
          "type": "address"
        }
      ],
      "name": "calc",
      "outputs": [
        {
          "internalType": "uint256",
          "name": "nShare",
          "type": "uint256"
        }
      ],
      "stateMutability": "view",
      "type": "function"
    },
    {
      "inputs": [
        {
          "internalType": "uint256",
          "name": "_lpAmount",
          "type": "uint256"
        }
      ],
      "name": "calculateRemoveLiquidity",
      "outputs": [
        {
          "internalType": "uint256[]",
          "name": "",
          "type": "uint256[]"
        }
      ],
      "stateMutability": "view",
      "type": "function"
    },
    {
      "inputs": [],
      "name": "claim",
      "outputs": [],
      "stateMutability": "nonpayable",
      "type": "function"
    },
    {
      "inputs": [
        {
          "internalType": "uint256",
          "name": "_amount",
          "type": "uint256"
        }
      ],
      "name": "depositLP",
      "outputs": [],
      "stateMutability": "nonpayable",
      "type": "function"
    },
    {
      "inputs": [],
      "name": "farm",
      "outputs": [
        {
          "internalType": "contract IKaglaFarm",
          "name": "",
          "type": "address"
        }
      ],
      "stateMutability": "view",
      "type": "function"
    },
    {
      "inputs": [],
      "name": "gauge",
      "outputs": [
        {
          "internalType": "contract IERC20Upgradeable",
          "name": "",
          "type": "address"
        }
      ],
      "stateMutability": "view",
      "type": "function"
    },
    {
      "inputs": [
        {
          "internalType": "address",
          "name": "",
          "type": "address"
        }
      ],
      "name": "gaugeBalances",
      "outputs": [
        {
          "internalType": "uint256",
          "name": "",
          "type": "uint256"
        }
      ],
      "stateMutability": "view",
      "type": "function"
    },
    {
      "inputs": [
        {
          "internalType": "contract IKaglaPool",
          "name": "_pool",
          "type": "address"
        },
        {
          "internalType": "contract IKaglaFarm",
          "name": "_farm",
          "type": "address"
        },
        {
          "internalType": "contract IERC20Upgradeable",
          "name": "_lp",
          "type": "address"
        },
        {
          "internalType": "contract IERC20Upgradeable",
          "name": "_nToken",
          "type": "address"
        },
        {
          "internalType": "contract IERC20Upgradeable",
          "name": "_gauge",
          "type": "address"
        },
        {
          "internalType": "contract IERC20Upgradeable",
          "name": "_kgl",
          "type": "address"
        },
        {
          "internalType": "contract IMinter",
          "name": "_minter",
          "type": "address"
        }
      ],
      "name": "initialize",
      "outputs": [],
      "stateMutability": "nonpayable",
      "type": "function"
    },
    {
      "inputs": [],
      "name": "kgl",
      "outputs": [
        {
          "internalType": "contract IERC20Upgradeable",
          "name": "",
          "type": "address"
        }
      ],
      "stateMutability": "view",
      "type": "function"
    },
    {
      "inputs": [],
      "name": "lp",
      "outputs": [
        {
          "internalType": "contract IERC20Upgradeable",
          "name": "",
          "type": "address"
        }
      ],
      "stateMutability": "view",
      "type": "function"
    },
    {
      "inputs": [
        {
          "internalType": "address",
          "name": "",
          "type": "address"
        }
      ],
      "name": "lpBalances",
      "outputs": [
        {
          "internalType": "uint256",
          "name": "",
          "type": "uint256"
        }
      ],
      "stateMutability": "view",
      "type": "function"
    },
    {
      "inputs": [],
      "name": "minter",
      "outputs": [
        {
          "internalType": "contract IMinter",
          "name": "",
          "type": "address"
        }
      ],
      "stateMutability": "view",
      "type": "function"
    },
    {
      "inputs": [],
      "name": "nToken",
      "outputs": [
        {
          "internalType": "contract IERC20Upgradeable",
          "name": "",
          "type": "address"
        }
      ],
      "stateMutability": "view",
      "type": "function"
    },
    {
      "inputs": [],
      "name": "owner",
      "outputs": [
        {
          "internalType": "address",
          "name": "",
          "type": "address"
        }
      ],
      "stateMutability": "view",
      "type": "function"
    },
    {
      "inputs": [
        {
          "internalType": "address",
          "name": "_user",
          "type": "address"
        }
      ],
      "name": "pendingRewards",
      "outputs": [
        {
          "internalType": "uint256",
          "name": "sum",
          "type": "uint256"
        }
      ],
      "stateMutability": "view",
      "type": "function"
    },
    {
      "inputs": [],
      "name": "pool",
      "outputs": [
        {
          "internalType": "contract IKaglaPool",
          "name": "",
          "type": "address"
        }
      ],
      "stateMutability": "view",
      "type": "function"
    },
    {
      "inputs": [
        {
          "internalType": "uint256",
          "name": "_amount",
          "type": "uint256"
        }
      ],
      "name": "removeLiquidity",
      "outputs": [],
      "stateMutability": "nonpayable",
      "type": "function"
    },
    {
      "inputs": [],
      "name": "renounceOwnership",
      "outputs": [],
      "stateMutability": "nonpayable",
      "type": "function"
    },
    {
      "inputs": [],
      "name": "revenuePool",
      "outputs": [
        {
          "internalType": "uint256",
          "name": "",
          "type": "uint256"
        }
      ],
      "stateMutability": "view",
      "type": "function"
    },
    {
      "inputs": [
        {
          "internalType": "address",
          "name": "",
          "type": "address"
        }
      ],
      "name": "rewardDebt",
      "outputs": [
        {
          "internalType": "uint256",
          "name": "",
          "type": "uint256"
        }
      ],
      "stateMutability": "view",
      "type": "function"
    },
    {
      "inputs": [
        {
          "internalType": "address",
          "name": "",
          "type": "address"
        }
      ],
      "name": "rewards",
      "outputs": [
        {
          "internalType": "uint256",
          "name": "",
          "type": "uint256"
        }
      ],
      "stateMutability": "view",
      "type": "function"
    },
    {
      "inputs": [
        {
          "internalType": "bool",
          "name": "_b",
          "type": "bool"
        }
      ],
      "name": "setAbilityToAddLpAndGauge",
      "outputs": [],
      "stateMutability": "nonpayable",
      "type": "function"
    },
    {
      "inputs": [
        {
          "internalType": "contract IAdaptersDistributor",
          "name": "_adaptersDistributor",
          "type": "address"
        }
      ],
      "name": "setAdaptersDistributor",
      "outputs": [],
      "stateMutability": "nonpayable",
      "type": "function"
    },
    {
      "inputs": [
        {
          "internalType": "address",
          "name": "adr",
          "type": "address"
        },
        {
          "internalType": "uint256",
          "name": "value",
          "type": "uint256"
        }
      ],
      "name": "setRewardDebt",
      "outputs": [],
      "stateMutability": "nonpayable",
      "type": "function"
    },
    {
      "inputs": [
        {
          "internalType": "string",
          "name": "_utilityName",
          "type": "string"
        }
      ],
      "name": "setUtilityName",
      "outputs": [],
      "stateMutability": "nonpayable",
      "type": "function"
    },
    {
      "inputs": [],
      "name": "totalStaked",
      "outputs": [
        {
          "internalType": "uint256",
          "name": "",
          "type": "uint256"
        }
      ],
      "stateMutability": "view",
      "type": "function"
    },
    {
      "inputs": [],
      "name": "totalStakedASTR",
      "outputs": [
        {
          "internalType": "uint256",
          "name": "",
          "type": "uint256"
        }
      ],
      "stateMutability": "view",
      "type": "function"
    },
    {
      "inputs": [
        {
          "internalType": "address",
          "name": "newOwner",
          "type": "address"
        }
      ],
      "name": "transferOwnership",
      "outputs": [],
      "stateMutability": "nonpayable",
      "type": "function"
    },
    {
      "inputs": [],
      "name": "utilityName",
      "outputs": [
        {
          "internalType": "string",
          "name": "",
          "type": "string"
        }
      ],
      "stateMutability": "view",
      "type": "function"
    },
    {
      "inputs": [
        {
          "internalType": "uint256",
          "name": "_amount",
          "type": "uint256"
        },
        {
          "internalType": "bool",
          "name": "_autoWithdraw",
          "type": "bool"
        }
      ],
      "name": "withdrawLP",
      "outputs": [],
      "stateMutability": "nonpayable",
      "type": "function"
    },
    {
      "inputs": [
        {
          "internalType": "uint256",
          "name": "_amount",
          "type": "uint256"
        }
      ],
      "name": "withdrawRevenue",
      "outputs": [],
      "stateMutability": "nonpayable",
      "type": "function"
    },
    {
      "stateMutability": "payable",
      "type": "receive"
    }
  ],
  "bytecode": {
    "object": "0x60806040523480156200001157600080fd5b506200001c62000022565b620000e4565b600054610100900460ff16156200008f5760405162461bcd60e51b815260206004820152602760248201527f496e697469616c697a61626c653a20636f6e747261637420697320696e697469604482015266616c697a696e6760c81b606482015260840160405180910390fd5b60005460ff9081161015620000e2576000805460ff191660ff9081179091556040519081527f7f26b83ff96e1f2b6a682f133852f6798a09c465da95921460cefb38474024989060200160405180910390a15b565b613ab180620000f46000396000f3fe60806040526004361061021e5760003560e01c80634e71d92d11610123578063a6f19c84116100ab578063e84b902c1161006f578063e84b902c146106ba578063eb37acfc146106da578063eeda2504146106fa578063f2fad2b61461070d578063f2fde38b1461073a57600080fd5b8063a6f19c841461061a578063abd779751461063a578063c75bef0a1461065a578063cfb79ed21461067a578063d782139a1461069a57600080fd5b806374baa655116100f257806374baa655146105905780637f753de6146105b0578063817b1cd2146105c65780638da5cb5b146105dc5780639c8f9f23146105fa57600080fd5b80634e71d92d14610519578063573219441461052e5780635873eb9b1461054e578063715018a61461057b57600080fd5b8063313c06a0116101a65780633ea5856f116101755780633ea5856f1461045b5780634158e3e31461048057806343a37564146104b75780634421bd1e146104d757806345418a4e146104ec57600080fd5b8063313c06a0146103db57806331d7a262146103fb578063358764761461041b57806336e9332d1461043b57600080fd5b80630b65092d116101ed5780630b65092d146103375780630ceff2041461036457806316f0115b146103845780631a1fb232146103a45780632bb3526e146103b957600080fd5b8063061960aa146102895780630700037d146102b257806307546172146102df578063083380b61461031757600080fd5b36610284576097546001600160a01b031633146102825760405162461bcd60e51b815260206004820152601a60248201527f53656e64696e6720746f6b656e73206e6f7420616c6c6f77656400000000000060448201526064015b60405180910390fd5b005b600080fd5b34801561029557600080fd5b5061029f609e5481565b6040519081526020015b60405180910390f35b3480156102be57600080fd5b5061029f6102cd366004613285565b60a36020526000908152604090205481565b3480156102eb57600080fd5b50609d546102ff906001600160a01b031681565b6040516001600160a01b0390911681526020016102a9565b34801561032357600080fd5b5061029f610332366004613285565b61075a565b34801561034357600080fd5b5061029f610352366004613285565b60a16020526000908152604090205481565b34801561037057600080fd5b5061028261037f36600461352f565b6107e5565b34801561039057600080fd5b506097546102ff906001600160a01b031681565b3480156103b057600080fd5b5061029f610930565b3480156103c557600080fd5b506103ce610a19565b6040516102a991906137b7565b3480156103e757600080fd5b506099546102ff906001600160a01b031681565b34801561040757600080fd5b5061029f610416366004613285565b610aa7565b34801561042757600080fd5b50610282610436366004613409565b610b53565b34801561044757600080fd5b506098546102ff906001600160a01b031681565b34801561046757600080fd5b5060a5546102ff9061010090046001600160a01b031681565b34801561048c57600080fd5b5061028261049b3660046132a1565b6001600160a01b03909116600090815260a46020526040902055565b3480156104c357600080fd5b506102826104d2366004613285565b610ceb565b3480156104e357600080fd5b5061029f600a81565b3480156104f857600080fd5b5061029f610507366004613285565b60a26020526000908152604090205481565b34801561052557600080fd5b50610282610d1b565b34801561053a57600080fd5b5061028261054936600461355f565b610ee9565b34801561055a57600080fd5b5061029f610569366004613285565b60a46020526000908152604090205481565b34801561058757600080fd5b5061028261132c565b34801561059c57600080fd5b50609a546102ff906001600160a01b031681565b3480156105bc57600080fd5b5061029f609f5481565b3480156105d257600080fd5b5061029f60a05481565b3480156105e857600080fd5b506033546001600160a01b03166102ff565b34801561060657600080fd5b5061028261061536600461352f565b61138e565b34801561062657600080fd5b50609b546102ff906001600160a01b031681565b34801561064657600080fd5b5061028261065536600461349e565b61179a565b34801561066657600080fd5b5061028261067536600461352f565b6117b9565b34801561068657600080fd5b5061028261069536600461355f565b611a31565b3480156106a657600080fd5b50609c546102ff906001600160a01b031681565b3480156106c657600080fd5b506102826106d53660046133d1565b611c1c565b3480156106e657600080fd5b506102826106f536600461352f565b611c61565b610282610708366004613350565b61208a565b34801561071957600080fd5b5061072d61072836600461352f565b6125fa565b6040516102a99190613773565b34801561074657600080fd5b50610282610755366004613285565b612841565b604080516002808252606082018352600092839291906020830190803683375050506001600160a01b038416600090815260a2602090815260408083205460a1909252909120549192506107b291610728919061388e565b9050806001815181106107d557634e487b7160e01b600052603260045260246000fd5b6020026020010151915050919050565b6107ed6128b7565b609c546040516370a0823160e01b815230600482015282916001600160a01b0316906370a082319060240160206040518083038186803b15801561083057600080fd5b505afa158015610844573d6000803e3d6000fd5b505050506040513d601f19601f820116820180604052508101906108689190613547565b10156108af5760405162461bcd60e51b81526020600482015260166024820152754e6f7420656e6f756768204b474c20726576656e756560501b6044820152606401610279565b600081116108ff5760405162461bcd60e51b815260206004820152601b60248201527f53686f756c642062652067726561746572207468616e207a65726f00000000006044820152606401610279565b80609f600082825461091191906138e5565b9091555050609c5461092d906001600160a01b03163383612913565b50565b60408051600280825260608201835260009283929190602083019080368337019050506099546040516370a0823160e01b81523060048201529192506000916001600160a01b03909116906370a082319060240160206040518083038186803b15801561099c57600080fd5b505afa1580156109b0573d6000803e3d6000fd5b505050506040513d601f19601f820116820180604052508101906109d49190613547565b90506109e78160a054610728919061388e565b915081600081518110610a0a57634e487b7160e01b600052603260045260246000fd5b60200260200101519250505090565b60a68054610a2690613928565b80601f0160208091040260200160405190810160405280929190818152602001828054610a5290613928565b8015610a9f5780601f10610a7457610100808354040283529160200191610a9f565b820191906000526020600020905b815481529060010190602001808311610a8257829003601f168201915b505050505081565b6001600160a01b038116600090815260a260205260408120548015610b31576001600160a01b038316600090815260a46020526040902054609e5464e8d4a5100090610af390846138c6565b610afd91906138a6565b6001600160a01b038516600090815260a36020526040902054610b20919061388e565b610b2a91906138e5565b9150610b4d565b6001600160a01b038316600090815260a3602052604090205491505b50919050565b600054610100900460ff1615808015610b735750600054600160ff909116105b80610b8d5750303b158015610b8d575060005460ff166001145b610bf05760405162461bcd60e51b815260206004820152602e60248201527f496e697469616c697a61626c653a20636f6e747261637420697320616c72656160448201526d191e481a5b9a5d1a585b1a5e995960921b6064820152608401610279565b6000805460ff191660011790558015610c13576000805461ff0019166101001790555b610c1b61297b565b610c236129aa565b609780546001600160a01b03199081166001600160a01b038b8116919091179092556098805482168a8416179055609980548216898416179055609a80548216888416179055609b80548216878416179055609c80548216868416179055609d8054909116918416919091179055610c9b6001611c1c565b8015610ce1576000805461ff0019169055604051600181527f7f26b83ff96e1f2b6a682f133852f6798a09c465da95921460cefb38474024989060200160405180910390a15b5050505050505050565b610cf36128b7565b60a580546001600160a01b0390921661010002610100600160a81b0319909216919091179055565b609854604051633313458360e01b81523060048201526000916001600160a01b031690633313458390602401602060405180830381600087803b158015610d6157600080fd5b505af1158015610d75573d6000803e3d6000fd5b505050506040513d601f19601f82011682018060405250810190610d999190613547565b90508015610da957610da96129d9565b610db1612b9b565b60026065541415610dd45760405162461bcd60e51b815260040161027990613843565b600260655533600090815260a36020526040902054610e355760405162461bcd60e51b815260206004820152601760248201527f5573657220686173206e6f20616e7920726577617264730000000000000000006044820152606401610279565b33600090815260a36020526040812054610e5190600a906138a6565b33600090815260a3602052604081205491925090610e709083906138e5565b905081609f6000828254610e84919061388e565b909155505033600081815260a36020526040812055609c54610eb2916001600160a01b039091169083612913565b604051819033907f47cee97cb7acd717b3c0aa1435d004cd5b3c8c57d70dbceb4e4458bbd60e39d490600090a35050600160655550565b609854604051633313458360e01b81523060048201526000916001600160a01b031690633313458390602401602060405180830381600087803b158015610f2f57600080fd5b505af1158015610f43573d6000803e3d6000fd5b505050506040513d601f19601f82011682018060405250810190610f679190613547565b90508015610f7757610f776129d9565b610f7f612b9b565b33600090815260a26020526040902054831115610fde5760405162461bcd60e51b815260206004820152601760248201527f4e6f7420656e6f75676820476175676520746f6b656e730000000000000000006044820152606401610279565b6000831161102e5760405162461bcd60e51b815260206004820152601a60248201527f53686f75642062652067726561746572207468616e207a65726f0000000000006044820152606401610279565b609b5460985460405163095ea7b360e01b81526001600160a01b0391821660048201526024810186905291169063095ea7b390604401602060405180830381600087803b15801561107e57600080fd5b505af1158015611092573d6000803e3d6000fd5b505050506040513d601f19601f820116820180604052508101906110b691906133ed565b506099546040516370a0823160e01b81523060048201526000916001600160a01b0316906370a082319060240160206040518083038186803b1580156110fb57600080fd5b505afa15801561110f573d6000803e3d6000fd5b505050506040513d601f19601f820116820180604052508101906111339190613547565b609854604051631c683a1b60e11b815260048101879052600060248201529192506001600160a01b0316906338d0743690604401600060405180830381600087803b15801561118157600080fd5b505af1158015611195573d6000803e3d6000fd5b50506099546040516370a0823160e01b8152306004820152600093506001600160a01b0390911691506370a082319060240160206040518083038186803b1580156111df57600080fd5b505afa1580156111f3573d6000803e3d6000fd5b505050506040513d601f19601f820116820180604052508101906112179190613547565b9050600061122583836138e5565b33600090815260a260205260408120805492935088929091906112499084906138e5565b925050819055508560a0600082825461126291906138e5565b909155505033600090815260a160205260408120805483929061128690849061388e565b90915550611295905033612c64565b609e5433600090815260a2602052604090205464e8d4a51000916112b8916138c6565b6112c291906138a6565b33600090815260a4602052604090205584156112f35733600090815260a160205260409020546112f18161138e565b505b60405185151590879033907f707698b04f0e54c638e6bc6e39a7cf7d534be15246dc474a1564a91c702c0b7690600090a4505050505050565b6113346128b7565b60405162461bcd60e51b815260206004820152602960248201527f4974206973206e6f7420706f737369626c6520746f2072656e6f756e6365206f604482015268776e6572736869702160b81b6064820152608401610279565b600260655414156113b15760405162461bcd60e51b815260040161027990613843565b6002606555806114035760405162461bcd60e51b815260206004820152601b60248201527f53686f756c642062652067726561746572207468616e207a65726f00000000006044820152606401610279565b33600090815260a160205260409020548111156114535760405162461bcd60e51b815260206004820152600e60248201526d4e6f7420656e6f756768204c502160901b6044820152606401610279565b600061145e826125fa565b60995460975460405163095ea7b360e01b81526001600160a01b03918216600482015260248101869052929350169063095ea7b390604401602060405180830381600087803b1580156114b057600080fd5b505af11580156114c4573d6000803e3d6000fd5b505050506040513d601f19601f820116820180604052508101906114e891906133ed565b50609a546040516370a0823160e01b815230600482015247916000916001600160a01b03909116906370a082319060240160206040518083038186803b15801561153157600080fd5b505afa158015611545573d6000803e3d6000fd5b505050506040513d601f19601f820116820180604052508101906115699190613547565b9050609760009054906101000a90046001600160a01b03166001600160a01b0316635b36389c856040518060400160405280876000815181106115bc57634e487b7160e01b600052603260045260246000fd5b60200260200101518152602001876001815181106115ea57634e487b7160e01b600052603260045260246000fd5b60200260200101518152506040518363ffffffff1660e01b815260040161161292919061387a565b6040805180830381600087803b15801561162b57600080fd5b505af115801561163f573d6000803e3d6000fd5b505050506040513d601f19601f8201168201806040525081019061166391906132cc565b50609a546040516370a0823160e01b815230600482015247916000916001600160a01b03909116906370a082319060240160206040518083038186803b1580156116ac57600080fd5b505afa1580156116c0573d6000803e3d6000fd5b505050506040513d601f19601f820116820180604052508101906116e49190613547565b905060006116f284836138e5565b9050600061170086856138e5565b33600090815260a16020526040812080549293508a929091906117249084906138e5565b90915550611733905033612c64565b609a5461174a906001600160a01b03163384612913565b6117543382612d90565b604051888152819033907f0fbf06c058b90cb038a618f8c2acbf6145f8b3570fd1fa56abb8f0f3f05b36e89060200160405180910390a350506001606555505050505050565b6117a26128b7565b80516117b59060a69060208401906131ec565b5050565b609854604051633313458360e01b81523060048201526000916001600160a01b031690633313458390602401602060405180830381600087803b1580156117ff57600080fd5b505af1158015611813573d6000803e3d6000fd5b505050506040513d601f19601f820116820180604052508101906118379190613547565b90508015611847576118476129d9565b61184f612b9b565b600260655414156118725760405162461bcd60e51b815260040161027990613843565b600260655560a55460ff16156118c35760405162461bcd60e51b8152602060048201526016602482015275119d5b98dd1a5bdb985b1a5d1e48191a5cd8589b195960521b6044820152606401610279565b609b546040516370a0823160e01b815233600482015283916001600160a01b0316906370a082319060240160206040518083038186803b15801561190657600080fd5b505afa15801561191a573d6000803e3d6000fd5b505050506040513d601f19601f8201168201806040525081019061193e9190613547565b101561198c5760405162461bcd60e51b815260206004820152601b60248201527f4e6f7420656e6f756768204761756765206f6e2062616c616e636500000000006044820152606401610279565b609b546119a4906001600160a01b0316333085612ea9565b33600090815260a26020526040812080548492906119c390849061388e565b925050819055508160a060008282546119dc919061388e565b909155506119eb905033612c64565b609e5433600090815260a2602052604090205464e8d4a5100091611a0e916138c6565b611a1891906138a6565b33600090815260a4602052604090205550506001606555565b60026065541415611a545760405162461bcd60e51b815260040161027990613843565b600260655560a55460ff1615611aa55760405162461bcd60e51b8152602060048201526016602482015275119d5b98dd1a5bdb985b1a5d1e48191a5cd8589b195960521b6044820152606401610279565b6099546040516370a0823160e01b815233600482015283916001600160a01b0316906370a082319060240160206040518083038186803b158015611ae857600080fd5b505afa158015611afc573d6000803e3d6000fd5b505050506040513d601f19601f82011682018060405250810190611b209190613547565b1015611b6e5760405162461bcd60e51b815260206004820152601860248201527f4e6f7420656e6f756768204c50206f6e2062616c616e636500000000000000006044820152606401610279565b60008211611bbe5760405162461bcd60e51b815260206004820152601a60248201527f53686f75642062652067726561746572207468616e207a65726f0000000000006044820152606401610279565b609954611bd6906001600160a01b0316333085612ea9565b33600090815260a1602052604081208054849290611bf590849061388e565b90915550611c04905033612c64565b8015611c1357611c1382611c61565b50506001606555565b611c246128b7565b60a5805460ff19168215159081179091556040517fc9a34b04a94880f16c28b61d1d7b6ca0b7f3d8c5743def715f1fb4e6ac539f5c90600090a250565b609854604051633313458360e01b81523060048201526000916001600160a01b031690633313458390602401602060405180830381600087803b158015611ca757600080fd5b505af1158015611cbb573d6000803e3d6000fd5b505050506040513d601f19601f82011682018060405250810190611cdf9190613547565b90508015611cef57611cef6129d9565b611cf7612b9b565b33600090815260a16020526040902054821115611d4d5760405162461bcd60e51b81526020600482015260146024820152734e6f7420656e6f756768204c5020746f6b656e7360601b6044820152606401610279565b60008211611d9d5760405162461bcd60e51b815260206004820152601b60248201527f53686f75642062652067726561746572207468616e207a65726f2100000000006044820152606401610279565b33600090815260a1602052604081208054849290611dbc9084906138e5565b909155505060995460985460405163095ea7b360e01b81526001600160a01b0391821660048201526024810185905291169063095ea7b390604401602060405180830381600087803b158015611e1157600080fd5b505af1158015611e25573d6000803e3d6000fd5b505050506040513d601f19601f82011682018060405250810190611e4991906133ed565b50609b546040516370a0823160e01b81523060048201526000916001600160a01b0316906370a082319060240160206040518083038186803b158015611e8e57600080fd5b505afa158015611ea2573d6000803e3d6000fd5b505050506040513d601f19601f82011682018060405250810190611ec69190613547565b6098546040516383df674760e01b815260048101869052306024820152600060448201529192506001600160a01b0316906383df674790606401600060405180830381600087803b158015611f1a57600080fd5b505af1158015611f2e573d6000803e3d6000fd5b5050609b546040516370a0823160e01b8152306004820152600093506001600160a01b0390911691506370a082319060240160206040518083038186803b158015611f7857600080fd5b505afa158015611f8c573d6000803e3d6000fd5b505050506040513d601f19601f82011682018060405250810190611fb09190613547565b90506000611fbe83836138e5565b33600090815260a26020526040812080549293508392909190611fe290849061388e565b90915550611ff1905033612c64565b8060a06000828254612003919061388e565b9091555050609e5433600090815260a2602052604090205464e8d4a510009161202b916138c6565b61203591906138a6565b33600081815260a46020526040908190209290925590517fa76194b11cf7b940f18e866ed3382a795bb09ca684db1b957d595417f63151f89061207b9088815260200190565b60405180910390a25050505050565b600260655414156120ad5760405162461bcd60e51b815260040161027990613843565b600260655582826000816120d157634e487b7160e01b600052603260045260246000fd5b9050602002013534146121375760405162461bcd60e51b815260206004820152602860248201527f56616c7565206e65656420746f20626520657175616c20746f20616d6f756e746044820152671037b31020a9aa2960c11b6064820152608401610279565b60008383600081811061215a57634e487b7160e01b600052603260045260246000fd5b90506020020135118015612195575060008383600181811061218c57634e487b7160e01b600052603260045260246000fd5b90506020020135115b6121f75760405162461bcd60e51b815260206004820152602d60248201527f416d6f756e7473206f6620746f6b656e732073686f756c64206265206772656160448201526c746572207468616e207a65726f60981b6064820152608401610279565b6002821461225a5760405162461bcd60e51b815260206004820152602a60248201527f546865206c656e677468206f6620616d6f756e7473206d75737420626520657160448201526975616c20746f2074776f60b01b6064820152608401610279565b61229d33308585600181811061228057634e487b7160e01b600052603260045260246000fd5b609a546001600160a01b0316949392602090910201359050612ea9565b60006040518060400160405280858560008181106122cb57634e487b7160e01b600052603260045260246000fd5b905060200201358152602001858560018181106122f857634e487b7160e01b600052603260045260246000fd5b60200291909101359091525060975460405163ed8e84f360e01b81529192506000916001600160a01b039091169063ed8e84f39061233d90859060019060040161373b565b60206040518083038186803b15801561235557600080fd5b505afa158015612369573d6000803e3d6000fd5b505050506040513d601f19601f8201168201806040525081019061238d9190613547565b9050600081116123f85760405162461bcd60e51b815260206004820152603060248201527f43616c63756c61746564204c5020616d6f756e742073686f756c64206265206760448201526f726561746572207468616e207a65726f60801b6064820152608401610279565b6000600a6124078360096138c6565b61241191906138a6565b609a546097549192506001600160a01b039081169163095ea7b391168888600181811061244e57634e487b7160e01b600052603260045260246000fd5b6040516001600160e01b031960e087901b1681526001600160a01b0390941660048501526020029190910135602483015250604401602060405180830381600087803b15801561249d57600080fd5b505af11580156124b1573d6000803e3d6000fd5b505050506040513d601f19601f820116820180604052508101906124d591906133ed565b50609754604051630b4c7e4d60e01b81526000916001600160a01b031690630b4c7e4d90349061250b9088908790600401613758565b6020604051808303818588803b15801561252457600080fd5b505af1158015612538573d6000803e3d6000fd5b50505050506040513d601f19601f8201168201806040525081019061255d9190613547565b33600090815260a1602052604081208054929350839290919061258190849061388e565b90915550612590905033612c64565b841561259f5761259f81611c61565b80846040516125ae919061367b565b60405190819003812087151582529033907f92874a101eb6ddac8f06197c8ed5632abbd28b8154cf3542f3555123329527cb9060200160405180910390a4505060016065555050505050565b60606000609960009054906101000a90046001600160a01b03166001600160a01b03166318160ddd6040518163ffffffff1660e01b815260040160206040518083038186803b15801561264c57600080fd5b505afa158015612660573d6000803e3d6000fd5b505050506040513d601f19601f820116820180604052508101906126849190613547565b609754604051634903b0d160e01b815260006004820181905292935082916001600160a01b031690634903b0d19060240160206040518083038186803b1580156126cd57600080fd5b505afa1580156126e1573d6000803e3d6000fd5b505050506040513d601f19601f820116820180604052508101906127059190613547565b609754604051634903b0d160e01b8152600160048201526001600160a01b0390911690634903b0d19060240160206040518083038186803b15801561274957600080fd5b505afa15801561275d573d6000803e3d6000fd5b505050506040513d601f19601f820116820180604052508101906127819190613547565b909250905060008361279384886138c6565b61279d91906138a6565b90506000846127ac84896138c6565b6127b691906138a6565b60408051600280825260608201835292935060009290916020830190803683370190505090508282826000815181106127ff57634e487b7160e01b600052603260045260246000fd5b602002602001018360018151811061282757634e487b7160e01b600052603260045260246000fd5b602090810291909101019190915252979650505050505050565b6128496128b7565b6001600160a01b0381166128ae5760405162461bcd60e51b815260206004820152602660248201527f4f776e61626c653a206e6577206f776e657220697320746865207a65726f206160448201526564647265737360d01b6064820152608401610279565b61092d81612ee7565b6033546001600160a01b031633146129115760405162461bcd60e51b815260206004820181905260248201527f4f776e61626c653a2063616c6c6572206973206e6f7420746865206f776e65726044820152606401610279565b565b6040516001600160a01b03831660248201526044810182905261297690849063a9059cbb60e01b906064015b60408051601f198184030181529190526020810180516001600160e01b03166001600160e01b031990931692909217909152612f39565b505050565b600054610100900460ff166129a25760405162461bcd60e51b8152600401610279906137f8565b61291161300b565b600054610100900460ff166129d15760405162461bcd60e51b8152600401610279906137f8565b61291161303b565b609c546040516370a0823160e01b81523060048201526000916001600160a01b0316906370a082319060240160206040518083038186803b158015612a1d57600080fd5b505afa158015612a31573d6000803e3d6000fd5b505050506040513d601f19601f82011682018060405250810190612a559190613547565b609d54609b546040516335313c2160e11b81526001600160a01b0391821660048201529293501690636a62784290602401600060405180830381600087803b158015612aa057600080fd5b505af1158015612ab4573d6000803e3d6000fd5b5050609c546040516370a0823160e01b8152306004820152600093506001600160a01b0390911691506370a082319060240160206040518083038186803b158015612afe57600080fd5b505afa158015612b12573d6000803e3d6000fd5b505050506040513d601f19601f82011682018060405250810190612b369190613547565b90506000828211612b48576000612b52565b612b5283836138e5565b905060a05460001415612b6457505050565b60a054612b7664e8d4a51000836138c6565b612b8091906138a6565b609e6000828254612b91919061388e565b9091555050505050565b33600090815260a2602090815260408083205460a4909252822054609e5491929164e8d4a5100090612bcd90856138c6565b612bd791906138a6565b612be191906138e5565b905064e8d4a51000609e5483612bf791906138c6565b612c0191906138a6565b33600090815260a4602090815260408083209390935560a390529081208054839290612c2e90849061388e565b9091555050604051819033907fdaaebb9609cb2f719c59c9d334be287bf4def107ad3dec4a6f90d8abaa94c73c90600090a35050565b6000612c6f8261075a565b60a554604051631704b63f60e31b815291925061010090046001600160a01b03169063b825b1f890612caa9060a690869086906004016137ca565b600060405180830381600087803b158015612cc457600080fd5b505af1925050508015612cd5575060015b612d5057612ce16139b6565b806308c379a01415612d445750612cf66139ce565b80612d015750612d46565b7f09ea598594b5fdf29f0c25c248aa5544ff0096cb773326201275441cf0e4e8cf8360a68484604051612d3794939291906136ff565b60405180910390a1505050565b505b3d6000803e3d6000fd5b7f8b82945fd970ddd18b63c39a87ceefd3db5966cb2ab0c9ec3043baa8a70b4c278260a683604051612d84939291906136cb565b60405180910390a15050565b80471015612de05760405162461bcd60e51b815260206004820152601d60248201527f416464726573733a20696e73756666696369656e742062616c616e63650000006044820152606401610279565b6000826001600160a01b03168260405160006040518083038185875af1925050503d8060008114612e2d576040519150601f19603f3d011682016040523d82523d6000602084013e612e32565b606091505b50509050806129765760405162461bcd60e51b815260206004820152603a60248201527f416464726573733a20756e61626c6520746f2073656e642076616c75652c207260448201527f6563697069656e74206d617920686176652072657665727465640000000000006064820152608401610279565b6040516001600160a01b0380851660248301528316604482015260648101829052612ee19085906323b872dd60e01b9060840161293f565b50505050565b603380546001600160a01b038381166001600160a01b0319831681179093556040519116919082907f8be0079c531659141344cd1fd0a4f28419497f9722a3daafe3b4186f6b6457e090600090a35050565b6000612f8e826040518060400160405280602081526020017f5361666545524332303a206c6f772d6c6576656c2063616c6c206661696c6564815250856001600160a01b03166130699092919063ffffffff16565b8051909150156129765780806020019051810190612fac91906133ed565b6129765760405162461bcd60e51b815260206004820152602a60248201527f5361666545524332303a204552433230206f7065726174696f6e20646964206e6044820152691bdd081cdd58d8d9595960b21b6064820152608401610279565b600054610100900460ff166130325760405162461bcd60e51b8152600401610279906137f8565b61291133612ee7565b600054610100900460ff166130625760405162461bcd60e51b8152600401610279906137f8565b6001606555565b60606130788484600085613082565b90505b9392505050565b6060824710156130e35760405162461bcd60e51b815260206004820152602660248201527f416464726573733a20696e73756666696369656e742062616c616e636520666f6044820152651c8818d85b1b60d21b6064820152608401610279565b6001600160a01b0385163b61313a5760405162461bcd60e51b815260206004820152601d60248201527f416464726573733a2063616c6c20746f206e6f6e2d636f6e74726163740000006044820152606401610279565b600080866001600160a01b0316858760405161315691906136af565b60006040518083038185875af1925050503d8060008114613193576040519150601f19603f3d011682016040523d82523d6000602084013e613198565b606091505b50915091506131a88282866131b3565b979650505050505050565b606083156131c257508161307b565b8251156131d25782518084602001fd5b8160405162461bcd60e51b815260040161027991906137b7565b8280546131f890613928565b90600052602060002090601f01602090048101928261321a5760008555613260565b82601f1061323357805160ff1916838001178555613260565b82800160010185558215613260579182015b82811115613260578251825591602001919060010190613245565b5061326c929150613270565b5090565b5b8082111561326c5760008155600101613271565b600060208284031215613296578081fd5b813561307b81613a58565b600080604083850312156132b3578081fd5b82356132be81613a58565b946020939093013593505050565b6000604082840312156132dd578081fd5b82601f8301126132eb578081fd5b6040516040810181811067ffffffffffffffff8211171561330e5761330e6139a0565b8060405250808385604086011115613324578384fd5b835b6002811015613345578151835260209283019290910190600101613326565b509195945050505050565b600080600060408486031215613364578081fd5b833567ffffffffffffffff8082111561337b578283fd5b818601915086601f83011261338e578283fd5b81358181111561339c578384fd5b8760208260051b85010111156133b0578384fd5b602092830195509350508401356133c681613a6d565b809150509250925092565b6000602082840312156133e2578081fd5b813561307b81613a6d565b6000602082840312156133fe578081fd5b815161307b81613a6d565b600080600080600080600060e0888a031215613423578283fd5b873561342e81613a58565b9650602088013561343e81613a58565b9550604088013561344e81613a58565b9450606088013561345e81613a58565b9350608088013561346e81613a58565b925060a088013561347e81613a58565b915060c088013561348e81613a58565b8091505092959891949750929550565b600060208083850312156134b0578182fd5b823567ffffffffffffffff808211156134c7578384fd5b818501915085601f8301126134da578384fd5b8135818111156134ec576134ec6139a0565b6040519150613504601f8201601f191685018361395d565b8082528684828501011115613517578485fd5b80848401858401378101909201929092529392505050565b600060208284031215613540578081fd5b5035919050565b600060208284031215613558578081fd5b5051919050565b60008060408385031215613571578182fd5b82359150602083013561358381613a6d565b809150509250929050565b8060005b6002811015612ee1578151845260209384019390910190600101613592565b600081518084526135c98160208601602086016138fc565b601f01601f19169290920160200192915050565b8054600090600181811c90808316806135f757607f831692505b602080841082141561361757634e487b7160e01b86526022600452602486fd5b8388526020880182801561363257600181146136435761366e565b60ff1987168252828201975061366e565b60008981526020902060005b878110156136685781548482015290860190840161364f565b83019850505b5050505050505092915050565b60008183825b60028110156136a0578151835260209283019290910190600101613681565b50505060408201905092915050565b600082516136c18184602087016138fc565b9190910192915050565b6001600160a01b03841681526060602082018190526000906136ef908301856135dd565b9050826040830152949350505050565b6001600160a01b0385168152608060208201819052600090613723908301866135dd565b84604084015282810360608401526131a881856135b1565b60608101613749828561358e565b82151560408301529392505050565b60608101613766828561358e565b8260408301529392505050565b6020808252825182820181905260009190848201906040850190845b818110156137ab5783518352928401929184019160010161378f565b50909695505050505050565b60208152600061307b60208301846135b1565b6060815260006137dd60608301866135dd565b6001600160a01b039490941660208301525060400152919050565b6020808252602b908201527f496e697469616c697a61626c653a20636f6e7472616374206973206e6f74206960408201526a6e697469616c697a696e6760a81b606082015260800190565b6020808252601f908201527f5265656e7472616e637947756172643a207265656e7472616e742063616c6c00604082015260600190565b8281526060810161307b602083018461358e565b600082198211156138a1576138a161398a565b500190565b6000826138c157634e487b7160e01b81526012600452602481fd5b500490565b60008160001904831182151516156138e0576138e061398a565b500290565b6000828210156138f7576138f761398a565b500390565b60005b838110156139175781810151838201526020016138ff565b83811115612ee15750506000910152565b600181811c9082168061393c57607f821691505b60208210811415610b4d57634e487b7160e01b600052602260045260246000fd5b601f8201601f1916810167ffffffffffffffff81118282101715613983576139836139a0565b6040525050565b634e487b7160e01b600052601160045260246000fd5b634e487b7160e01b600052604160045260246000fd5b600060033d11156139cb57600481823e5160e01c5b90565b600060443d10156139dc5790565b6040516003193d81016004833e81513d67ffffffffffffffff8160248401118184111715613a0c57505050505090565b8285019150815181811115613a245750505050505090565b843d8701016020828501011115613a3e5750505050505090565b613a4d6020828601018761395d565b509095945050505050565b6001600160a01b038116811461092d57600080fd5b801515811461092d57600080fdfea2646970667358221220809030f85ce9507ccbc7d458999388afb22ef03da9ffb4831ba881e543414ec364736f6c63430008040033",
    "linkReferences": {}
  },
  "methodIdentifiers": {
    "REVENUE_FEE()": "4421bd1e",
    "accumulatedRewardsPerShare()": "061960aa",
    "adaptersDistributor()": "3ea5856f",
    "addGauge(uint256)": "c75bef0a",
    "addLiquidity(uint256[],bool)": "eeda2504",
    "addLp(uint256,bool)": "cfb79ed2",
    "calc(address)": "083380b6",
    "calculateRemoveLiquidity(uint256)": "f2fad2b6",
    "claim()": "4e71d92d",
    "depositLP(uint256)": "eb37acfc",
    "farm()": "36e9332d",
    "gauge()": "a6f19c84",
    "gaugeBalances(address)": "45418a4e",
    "initialize(address,address,address,address,address,address,address)": "35876476",
    "kgl()": "d782139a",
    "lp()": "313c06a0",
    "lpBalances(address)": "0b65092d",
    "minter()": "07546172",
    "nToken()": "74baa655",
    "owner()": "8da5cb5b",
    "pendingRewards(address)": "31d7a262",
    "pool()": "16f0115b",
    "removeLiquidity(uint256)": "9c8f9f23",
    "renounceOwnership()": "715018a6",
    "revenuePool()": "7f753de6",
    "rewardDebt(address)": "5873eb9b",
    "rewards(address)": "0700037d",
    "setAbilityToAddLpAndGauge(bool)": "e84b902c",
    "setAdaptersDistributor(address)": "43a37564",
    "setRewardDebt(address,uint256)": "4158e3e3",
    "setUtilityName(string)": "abd77975",
    "totalStaked()": "817b1cd2",
    "totalStakedASTR()": "1a1fb232",
    "transferOwnership(address)": "f2fde38b",
    "utilityName()": "2bb3526e",
    "withdrawLP(uint256,bool)": "57321944",
    "withdrawRevenue(uint256)": "0ceff204"
  },
  "id": 5
}