{
  "abi": [
    {
      "inputs": [],
      "stateMutability": "nonpayable",
      "type": "constructor"
    },
    {
      "anonymous": false,
      "inputs": [
        {
          "indexed": true,
          "internalType": "address",
          "name": "owner",
          "type": "address"
        },
        {
          "indexed": true,
          "internalType": "address",
          "name": "approved",
          "type": "address"
        },
        {
          "indexed": true,
          "internalType": "uint256",
          "name": "tokenId",
          "type": "uint256"
        }
      ],
      "name": "Approval",
      "type": "event"
    },
    {
      "anonymous": false,
      "inputs": [
        {
          "indexed": true,
          "internalType": "address",
          "name": "owner",
          "type": "address"
        },
        {
          "indexed": true,
          "internalType": "address",
          "name": "operator",
          "type": "address"
        },
        {
          "indexed": false,
          "internalType": "bool",
          "name": "approved",
          "type": "bool"
        }
      ],
      "name": "ApprovalForAll",
      "type": "event"
    },
    {
      "anonymous": false,
      "inputs": [
        {
          "indexed": false,
          "internalType": "uint8",
          "name": "version",
          "type": "uint8"
        }
      ],
      "name": "Initialized",
      "type": "event"
    },
    {
      "anonymous": false,
      "inputs": [
        {
          "indexed": false,
          "internalType": "address",
          "name": "account",
          "type": "address"
        }
      ],
      "name": "Paused",
      "type": "event"
    },
    {
      "anonymous": false,
      "inputs": [
        {
          "indexed": true,
          "internalType": "bytes32",
          "name": "role",
          "type": "bytes32"
        },
        {
          "indexed": true,
          "internalType": "bytes32",
          "name": "previousAdminRole",
          "type": "bytes32"
        },
        {
          "indexed": true,
          "internalType": "bytes32",
          "name": "newAdminRole",
          "type": "bytes32"
        }
      ],
      "name": "RoleAdminChanged",
      "type": "event"
    },
    {
      "anonymous": false,
      "inputs": [
        {
          "indexed": true,
          "internalType": "bytes32",
          "name": "role",
          "type": "bytes32"
        },
        {
          "indexed": true,
          "internalType": "address",
          "name": "account",
          "type": "address"
        },
        {
          "indexed": true,
          "internalType": "address",
          "name": "sender",
          "type": "address"
        }
      ],
      "name": "RoleGranted",
      "type": "event"
    },
    {
      "anonymous": false,
      "inputs": [
        {
          "indexed": true,
          "internalType": "bytes32",
          "name": "role",
          "type": "bytes32"
        },
        {
          "indexed": true,
          "internalType": "address",
          "name": "account",
          "type": "address"
        },
        {
          "indexed": true,
          "internalType": "address",
          "name": "sender",
          "type": "address"
        }
      ],
      "name": "RoleRevoked",
      "type": "event"
    },
    {
      "anonymous": false,
      "inputs": [
        {
          "indexed": true,
          "internalType": "address",
          "name": "from",
          "type": "address"
        },
        {
          "indexed": true,
          "internalType": "address",
          "name": "to",
          "type": "address"
        },
        {
          "indexed": true,
          "internalType": "uint256",
          "name": "tokenId",
          "type": "uint256"
        }
      ],
      "name": "Transfer",
      "type": "event"
    },
    {
      "anonymous": false,
      "inputs": [
        {
          "indexed": false,
          "internalType": "address",
          "name": "account",
          "type": "address"
        }
      ],
      "name": "Unpaused",
      "type": "event"
    },
    {
      "inputs": [],
      "name": "DEFAULT_ADMIN_ROLE",
      "outputs": [
        {
          "internalType": "bytes32",
          "name": "",
          "type": "bytes32"
        }
      ],
      "stateMutability": "view",
      "type": "function"
    },
    {
      "inputs": [],
      "name": "MANAGER_ROLE",
      "outputs": [
        {
          "internalType": "bytes32",
          "name": "",
          "type": "bytes32"
        }
      ],
      "stateMutability": "view",
      "type": "function"
    },
    {
      "inputs": [],
      "name": "MINTER_ROLE",
      "outputs": [
        {
          "internalType": "bytes32",
          "name": "",
          "type": "bytes32"
        }
      ],
      "stateMutability": "view",
      "type": "function"
    },
    {
      "inputs": [],
      "name": "PAUSER_ROLE",
      "outputs": [
        {
          "internalType": "bytes32",
          "name": "",
          "type": "bytes32"
        }
      ],
      "stateMutability": "view",
      "type": "function"
    },
    {
      "inputs": [],
      "name": "_baseTokenURI",
      "outputs": [
        {
          "internalType": "string",
          "name": "",
          "type": "string"
        }
      ],
      "stateMutability": "view",
      "type": "function"
    },
    {
      "inputs": [
        {
          "internalType": "address",
          "name": "account",
          "type": "address"
        }
      ],
      "name": "addManager",
      "outputs": [],
      "stateMutability": "nonpayable",
      "type": "function"
    },
    {
      "inputs": [
        {
          "internalType": "address",
          "name": "to",
          "type": "address"
        },
        {
          "internalType": "uint256",
          "name": "tokenId",
          "type": "uint256"
        }
      ],
      "name": "approve",
      "outputs": [],
      "stateMutability": "nonpayable",
      "type": "function"
    },
    {
      "inputs": [
        {
          "internalType": "address",
          "name": "owner",
          "type": "address"
        }
      ],
      "name": "balanceOf",
      "outputs": [
        {
          "internalType": "uint256",
          "name": "",
          "type": "uint256"
        }
      ],
      "stateMutability": "view",
      "type": "function"
    },
    {
      "inputs": [
        {
          "internalType": "uint256",
          "name": "_tokenId",
          "type": "uint256"
        }
      ],
      "name": "burn",
      "outputs": [],
      "stateMutability": "nonpayable",
      "type": "function"
    },
    {
      "inputs": [
        {
          "internalType": "string",
          "name": "baseTokenURI_",
          "type": "string"
        }
      ],
      "name": "changeBaseURI",
      "outputs": [],
      "stateMutability": "nonpayable",
      "type": "function"
    },
    {
      "inputs": [
        {
          "internalType": "uint256",
          "name": "_maxSupply",
          "type": "uint256"
        }
      ],
      "name": "changeMaxSupply",
      "outputs": [],
      "stateMutability": "nonpayable",
      "type": "function"
    },
    {
      "inputs": [
        {
          "internalType": "uint256",
          "name": "tokenId",
          "type": "uint256"
        }
      ],
      "name": "getApproved",
      "outputs": [
        {
          "internalType": "address",
          "name": "",
          "type": "address"
        }
      ],
      "stateMutability": "view",
      "type": "function"
    },
    {
      "inputs": [
        {
          "internalType": "bytes32",
          "name": "role",
          "type": "bytes32"
        }
      ],
      "name": "getRoleAdmin",
      "outputs": [
        {
          "internalType": "bytes32",
          "name": "",
          "type": "bytes32"
        }
      ],
      "stateMutability": "view",
      "type": "function"
    },
    {
      "inputs": [
        {
          "internalType": "bytes32",
          "name": "role",
          "type": "bytes32"
        },
        {
          "internalType": "uint256",
          "name": "index",
          "type": "uint256"
        }
      ],
      "name": "getRoleMember",
      "outputs": [
        {
          "internalType": "address",
          "name": "",
          "type": "address"
        }
      ],
      "stateMutability": "view",
      "type": "function"
    },
    {
      "inputs": [
        {
          "internalType": "bytes32",
          "name": "role",
          "type": "bytes32"
        }
      ],
      "name": "getRoleMemberCount",
      "outputs": [
        {
          "internalType": "uint256",
          "name": "",
          "type": "uint256"
        }
      ],
      "stateMutability": "view",
      "type": "function"
    },
    {
      "inputs": [
        {
          "internalType": "bytes32",
          "name": "role",
          "type": "bytes32"
        },
        {
          "internalType": "address",
          "name": "account",
          "type": "address"
        }
      ],
      "name": "grantRole",
      "outputs": [],
      "stateMutability": "nonpayable",
      "type": "function"
    },
    {
      "inputs": [
        {
          "internalType": "bytes32",
          "name": "role",
          "type": "bytes32"
        },
        {
          "internalType": "address",
          "name": "account",
          "type": "address"
        }
      ],
      "name": "hasRole",
      "outputs": [
        {
          "internalType": "bool",
          "name": "",
          "type": "bool"
        }
      ],
      "stateMutability": "view",
      "type": "function"
    },
    {
      "inputs": [
        {
          "internalType": "address",
          "name": "account",
          "type": "address"
        }
      ],
      "name": "haveTokens",
      "outputs": [
        {
          "internalType": "bool",
          "name": "",
          "type": "bool"
        }
      ],
      "stateMutability": "view",
      "type": "function"
    },
    {
      "inputs": [
        {
          "internalType": "string",
          "name": "name",
          "type": "string"
        },
        {
          "internalType": "string",
          "name": "symbol",
          "type": "string"
        },
        {
          "internalType": "string",
          "name": "baseTokenURI",
          "type": "string"
        }
      ],
      "name": "initialize",
      "outputs": [],
      "stateMutability": "nonpayable",
      "type": "function"
    },
    {
      "inputs": [
        {
          "internalType": "address",
          "name": "_nftDistr",
          "type": "address"
        },
        {
          "internalType": "string",
          "name": "_utilName",
          "type": "string"
        },
        {
          "internalType": "uint256",
          "name": "_maxSupply",
          "type": "uint256"
        }
      ],
      "name": "initialize2",
      "outputs": [],
      "stateMutability": "nonpayable",
      "type": "function"
    },
    {
      "inputs": [],
      "name": "initialized",
      "outputs": [
        {
          "internalType": "bool",
          "name": "",
          "type": "bool"
        }
      ],
      "stateMutability": "view",
      "type": "function"
    },
    {
      "inputs": [
        {
          "internalType": "address",
          "name": "owner",
          "type": "address"
        },
        {
          "internalType": "address",
          "name": "operator",
          "type": "address"
        }
      ],
      "name": "isApprovedForAll",
      "outputs": [
        {
          "internalType": "bool",
          "name": "",
          "type": "bool"
        }
      ],
      "stateMutability": "view",
      "type": "function"
    },
    {
      "inputs": [],
      "name": "maxSupply",
      "outputs": [
        {
          "internalType": "uint256",
          "name": "",
          "type": "uint256"
        }
      ],
      "stateMutability": "view",
      "type": "function"
    },
    {
      "inputs": [
        {
          "internalType": "address",
          "name": "to",
          "type": "address"
        }
      ],
      "name": "mint",
      "outputs": [],
      "stateMutability": "nonpayable",
      "type": "function"
    },
    {
      "inputs": [
        {
          "internalType": "address[]",
          "name": "accounts",
          "type": "address[]"
        }
      ],
      "name": "mintBatch",
      "outputs": [],
      "stateMutability": "nonpayable",
      "type": "function"
    },
    {
      "inputs": [],
      "name": "name",
      "outputs": [
        {
          "internalType": "string",
          "name": "",
          "type": "string"
        }
      ],
      "stateMutability": "view",
      "type": "function"
    },
    {
      "inputs": [],
      "name": "nftDistr",
      "outputs": [
        {
          "internalType": "contract NFTDistributor",
          "name": "",
          "type": "address"
        }
      ],
      "stateMutability": "view",
      "type": "function"
    },
    {
      "inputs": [
        {
          "internalType": "uint256",
          "name": "tokenId",
          "type": "uint256"
        }
      ],
      "name": "ownerOf",
      "outputs": [
        {
          "internalType": "address",
          "name": "",
          "type": "address"
        }
      ],
      "stateMutability": "view",
      "type": "function"
    },
    {
      "inputs": [],
      "name": "pause",
      "outputs": [],
      "stateMutability": "nonpayable",
      "type": "function"
    },
    {
      "inputs": [],
      "name": "paused",
      "outputs": [
        {
          "internalType": "bool",
          "name": "",
          "type": "bool"
        }
      ],
      "stateMutability": "view",
      "type": "function"
    },
    {
      "inputs": [
        {
          "internalType": "address",
          "name": "account",
          "type": "address"
        }
      ],
      "name": "removeManager",
      "outputs": [],
      "stateMutability": "nonpayable",
      "type": "function"
    },
    {
      "inputs": [
        {
          "internalType": "bytes32",
          "name": "role",
          "type": "bytes32"
        },
        {
          "internalType": "address",
          "name": "account",
          "type": "address"
        }
      ],
      "name": "renounceRole",
      "outputs": [],
      "stateMutability": "nonpayable",
      "type": "function"
    },
    {
      "inputs": [
        {
          "internalType": "bytes32",
          "name": "role",
          "type": "bytes32"
        },
        {
          "internalType": "address",
          "name": "account",
          "type": "address"
        }
      ],
      "name": "revokeRole",
      "outputs": [],
      "stateMutability": "nonpayable",
      "type": "function"
    },
    {
      "inputs": [
        {
          "internalType": "address",
          "name": "from",
          "type": "address"
        },
        {
          "internalType": "address",
          "name": "to",
          "type": "address"
        },
        {
          "internalType": "uint256",
          "name": "tokenId",
          "type": "uint256"
        }
      ],
      "name": "safeTransferFrom",
      "outputs": [],
      "stateMutability": "nonpayable",
      "type": "function"
    },
    {
      "inputs": [
        {
          "internalType": "address",
          "name": "from",
          "type": "address"
        },
        {
          "internalType": "address",
          "name": "to",
          "type": "address"
        },
        {
          "internalType": "uint256",
          "name": "tokenId",
          "type": "uint256"
        },
        {
          "internalType": "bytes",
          "name": "data",
          "type": "bytes"
        }
      ],
      "name": "safeTransferFrom",
      "outputs": [],
      "stateMutability": "nonpayable",
      "type": "function"
    },
    {
      "inputs": [
        {
          "internalType": "address",
          "name": "operator",
          "type": "address"
        },
        {
          "internalType": "bool",
          "name": "approved",
          "type": "bool"
        }
      ],
      "name": "setApprovalForAll",
      "outputs": [],
      "stateMutability": "nonpayable",
      "type": "function"
    },
    {
      "inputs": [
        {
          "internalType": "bytes4",
          "name": "interfaceId",
          "type": "bytes4"
        }
      ],
      "name": "supportsInterface",
      "outputs": [
        {
          "internalType": "bool",
          "name": "",
          "type": "bool"
        }
      ],
      "stateMutability": "view",
      "type": "function"
    },
    {
      "inputs": [],
      "name": "symbol",
      "outputs": [
        {
          "internalType": "string",
          "name": "",
          "type": "string"
        }
      ],
      "stateMutability": "view",
      "type": "function"
    },
    {
      "inputs": [
        {
          "internalType": "uint256",
          "name": "index",
          "type": "uint256"
        }
      ],
      "name": "tokenByIndex",
      "outputs": [
        {
          "internalType": "uint256",
          "name": "",
          "type": "uint256"
        }
      ],
      "stateMutability": "view",
      "type": "function"
    },
    {
      "inputs": [
        {
          "internalType": "address",
          "name": "owner",
          "type": "address"
        },
        {
          "internalType": "uint256",
          "name": "index",
          "type": "uint256"
        }
      ],
      "name": "tokenOfOwnerByIndex",
      "outputs": [
        {
          "internalType": "uint256",
          "name": "",
          "type": "uint256"
        }
      ],
      "stateMutability": "view",
      "type": "function"
    },
    {
      "inputs": [
        {
          "internalType": "uint256",
          "name": "tokenId",
          "type": "uint256"
        }
      ],
      "name": "tokenURI",
      "outputs": [
        {
          "internalType": "string",
          "name": "",
          "type": "string"
        }
      ],
      "stateMutability": "view",
      "type": "function"
    },
    {
      "inputs": [],
      "name": "totalSupply",
      "outputs": [
        {
          "internalType": "uint256",
          "name": "",
          "type": "uint256"
        }
      ],
      "stateMutability": "view",
      "type": "function"
    },
    {
      "inputs": [
        {
          "internalType": "address",
          "name": "from",
          "type": "address"
        },
        {
          "internalType": "address",
          "name": "to",
          "type": "address"
        },
        {
          "internalType": "uint256",
          "name": "tokenId",
          "type": "uint256"
        }
      ],
      "name": "transferFrom",
      "outputs": [],
      "stateMutability": "nonpayable",
      "type": "function"
    },
    {
      "inputs": [],
      "name": "unpause",
      "outputs": [],
      "stateMutability": "nonpayable",
      "type": "function"
    },
    {
      "inputs": [],
      "name": "utilName",
      "outputs": [
        {
          "internalType": "string",
          "name": "",
          "type": "string"
        }
      ],
      "stateMutability": "view",
      "type": "function"
    }
  ],
  "bytecode": {
    "object": "0x60806040523480156200001157600080fd5b506200001c62000022565b620000e4565b600054610100900460ff16156200008f5760405162461bcd60e51b815260206004820152602760248201527f496e697469616c697a61626c653a20636f6e747261637420697320696e697469604482015266616c697a696e6760c81b606482015260840160405180910390fd5b60005460ff9081161015620000e2576000805460ff191660ff9081179091556040519081527f7f26b83ff96e1f2b6a682f133852f6798a09c465da95921460cefb38474024989060200160405180910390a15b565b61316e80620000f46000396000f3fe608060405234801561001057600080fd5b506004361061027f5760003560e01c80638456cb591161015c578063bd1bbd3b116100ce578063d5abeb0111610087578063d5abeb0114610570578063dd9b4e5f1461057a578063e45b907d1461058d578063e63ab1e9146105a0578063e985e9c5146105b5578063ec87621c146105f157600080fd5b8063bd1bbd3b146104f4578063c87b56dd14610508578063ca15c8731461051b578063cfc86f7b1461052e578063d539139314610536578063d547741f1461055d57600080fd5b8063a217fddf11610120578063a217fddf14610498578063a22cb465146104a0578063a6487c53146104b3578063ab486929146104c6578063ac18de43146104ce578063b88d4fde146104e157600080fd5b80638456cb591461044f5780639010d07c1461045757806391d148541461046a578063927f59ba1461047d57806395d89b411461049057600080fd5b806336568abe116101f557806342966c68116101b957806342966c68146103e45780634f6ccce7146103f75780635c975abb1461040a5780636352211e146104165780636a6278421461042957806370a082311461043c57600080fd5b806336568abe1461039057806339a0c6f9146103a35780633f4ba83a146103b6578063404c7cdd146103be57806342842e0e146103d157600080fd5b806318160ddd1161024757806318160ddd1461030f57806323b872dd14610321578063248a9ca3146103345780632d06177a146103575780632f2ff15d1461036a5780632f745c591461037d57600080fd5b806301ffc9a71461028457806306fdde03146102ac578063081812fc146102c1578063095ea7b3146102ec578063158ef93e14610301575b600080fd5b610297610292366004612b3b565b610606565b60405190151581526020015b60405180910390f35b6102b4610617565b6040516102a39190612d37565b6102d46102cf366004612ae0565b6106a9565b6040516001600160a01b0390911681526020016102a3565b6102ff6102fa366004612a08565b6106d0565b005b6101f9546102979060ff1681565b60fd545b6040519081526020016102a3565b6102ff61032f3660046128c5565b6107eb565b610313610342366004612ae0565b60009081526065602052604090206001015490565b6102ff610365366004612879565b61081c565b6102ff610378366004612af8565b610843565b61031361038b366004612a08565b610868565b6102ff61039e366004612af8565b6108fe565b6102ff6103b1366004612b73565b610978565b6102ff6109a4565b6102ff6103cc366004612ae0565b610a3a565b6102ff6103df3660046128c5565b610aa4565b6102ff6103f2366004612ae0565b610abf565b610313610405366004612ae0565b610afa565b61015f5460ff16610297565b6102d4610424366004612ae0565b610b9b565b6102ff610437366004612879565b610bfb565b61031361044a366004612879565b610cc0565b6102ff610d46565b6102d4610465366004612b1a565b610dd8565b610297610478366004612af8565b610df7565b6102ff61048b366004612a31565b610e22565b6102b4610ece565b610313600081565b6102ff6104ae366004612979565b610edd565b6102ff6104c1366004612ba6565b610ee8565b6102b4610fe5565b6102ff6104dc366004612879565b611074565b6102ff6104ef366004612900565b611097565b6101f5546102d4906001600160a01b031681565b6102b4610516366004612ae0565b6110c9565b610313610529366004612ae0565b61112f565b6102b4611146565b6103137f9f2df0fed2c77648de5860a4cc508cd0818c85b8b8a1ab4ceeef8d981c8956a681565b6102ff61056b366004612af8565b611154565b6103136101f85481565b6102ff6105883660046129b3565b6111c6565b61029761059b366004612879565b611273565b61031360008051602061311983398151915281565b6102976105c3366004612893565b6001600160a01b03918216600090815260ce6020908152604080832093909416825291909152205460ff1690565b6103136000805160206130f983398151915281565b600061061182611286565b92915050565b606060c9805461062690613036565b80601f016020809104026020016040519081016040528092919081815260200182805461065290613036565b801561069f5780601f106106745761010080835404028352916020019161069f565b820191906000526020600020905b81548152906001019060200180831161068257829003601f168201915b5050505050905090565b60006106b4826112ab565b50600090815260cd60205260409020546001600160a01b031690565b60006106db82610b9b565b9050806001600160a01b0316836001600160a01b0316141561074e5760405162461bcd60e51b815260206004820152602160248201527f4552433732313a20617070726f76616c20746f2063757272656e74206f776e656044820152603960f91b60648201526084015b60405180910390fd5b336001600160a01b038216148061076a575061076a81336105c3565b6107dc5760405162461bcd60e51b815260206004820152603e60248201527f4552433732313a20617070726f76652063616c6c6572206973206e6f7420746f60448201527f6b656e206f776e6572206e6f7220617070726f76656420666f7220616c6c00006064820152608401610745565b6107e6838361130a565b505050565b6107f53382611378565b6108115760405162461bcd60e51b815260040161074590612f12565b6107e68383836113f7565b60006108278161159e565b61083f6000805160206130f9833981519152836115a8565b5050565b60008281526065602052604090206001015461085e8161159e565b6107e683836115a8565b600061087383610cc0565b82106108d55760405162461bcd60e51b815260206004820152602b60248201527f455243373231456e756d657261626c653a206f776e657220696e646578206f7560448201526a74206f6620626f756e647360a81b6064820152608401610745565b506001600160a01b0391909116600090815260fb60209081526040808320938352929052205490565b6001600160a01b038116331461096e5760405162461bcd60e51b815260206004820152602f60248201527f416363657373436f6e74726f6c3a2063616e206f6e6c792072656e6f756e636560448201526e103937b632b9903337b91039b2b63360891b6064820152608401610745565b61083f82826115ca565b6000805160206130f98339815191526109908161159e565b81516107e6906101f790602085019061274d565b6109bc60008051602061311983398151915233610df7565b610a30576040805162461bcd60e51b81526020600482015260248101919091527f4552433732315072657365744d696e7465725061757365724175746f49643a2060448201527f6d75737420686176652070617573657220726f6c6520746f20756e70617573656064820152608401610745565b610a386115ec565b565b6000805160206130f9833981519152610a528161159e565b60fd54821015610a9d5760405162461bcd60e51b8152602060048201526016602482015275496e636f727265637420737570706c792076616c756560501b6044820152606401610745565b506101f855565b6107e683838360405180602001604052806000815250611097565b60405162461bcd60e51b815260206004820152601060248201526f43616e74206275726e20746f6b656e7360801b6044820152606401610745565b6000610b0560fd5490565b8210610b685760405162461bcd60e51b815260206004820152602c60248201527f455243373231456e756d657261626c653a20676c6f62616c20696e646578206f60448201526b7574206f6620626f756e647360a01b6064820152608401610745565b60fd8281548110610b8957634e487b7160e01b600052603260045260246000fd5b90600052602060002001549050919050565b600081815260cb60205260408120546001600160a01b0316806106115760405162461bcd60e51b8152602060048201526018602482015277115490cdcc8c4e881a5b9d985b1a59081d1bdad95b88125160421b6044820152606401610745565b6101f560009054906101000a90046001600160a01b03166001600160a01b03166368a82ef66040518163ffffffff1660e01b8152600401600060405180830381600087803b158015610c4c57600080fd5b505af1158015610c60573d6000803e3d6000fd5b505050506101f854610c7160fd5490565b10610cb45760405162461bcd60e51b8152602060048201526013602482015272151bdad95b881b1a5b5a5d081c995858da1959606a1b6044820152606401610745565b610cbd8161163f565b50565b60006001600160a01b038216610d2a5760405162461bcd60e51b815260206004820152602960248201527f4552433732313a2061646472657373207a65726f206973206e6f7420612076616044820152683634b21037bbb732b960b91b6064820152608401610745565b506001600160a01b0316600090815260cc602052604090205490565b610d5e60008051602061311983398151915233610df7565b610dd05760405162461bcd60e51b815260206004820152603e60248201527f4552433732315072657365744d696e7465725061757365724175746f49643a2060448201527f6d75737420686176652070617573657220726f6c6520746f20706175736500006064820152608401610745565b610a386116fd565b6000828152609760205260408120610df0908361173b565b9392505050565b60009182526065602090815260408084206001600160a01b0393909316845291905290205460ff1690565b80516101f854600182610e3460fd5490565b610e3e9190612f91565b610e489190612fdc565b10610e8b5760405162461bcd60e51b8152602060048201526013602482015272151bdad95b881b1a5b5a5d081c995858da1959606a1b6044820152606401610745565b60005b818110156107e657610ec6838281518110610eb957634e487b7160e01b600052603260045260246000fd5b602002602001015161163f565b600101610e8e565b606060ca805461062690613036565b61083f338383611747565b600054610100900460ff1615808015610f085750600054600160ff909116105b80610f225750303b158015610f22575060005460ff166001145b610f3e5760405162461bcd60e51b815260040161074590612e79565b6000805460ff191660011790558015610f61576000805461ff0019166101001790555b610f6c848484611816565b8151610f80906101f790602085019061274d565b50610f996000805160206130f9833981519152336115a8565b8015610fdf576000805461ff0019169055604051600181527f7f26b83ff96e1f2b6a682f133852f6798a09c465da95921460cefb38474024989060200160405180910390a15b50505050565b6101f68054610ff390613036565b80601f016020809104026020016040519081016040528092919081815260200182805461101f90613036565b801561106c5780601f106110415761010080835404028352916020019161106c565b820191906000526020600020905b81548152906001019060200180831161104f57829003601f168201915b505050505081565b600061107f8161159e565b61083f6000805160206130f9833981519152836115ca565b6110a13383611378565b6110bd5760405162461bcd60e51b815260040161074590612f12565b610fdf8484848461189a565b60606110d4826112ab565b60006110de6118cd565b905060008151116110fe5760405180602001604052806000815250610df0565b80611108846118dd565b604051602001611119929190612c56565b6040516020818303038152906040529392505050565b6000818152609760205260408120610611906119f7565b6101f78054610ff390613036565b60008281526065602052604090206001015461116f8161159e565b826111bc5760405162461bcd60e51b815260206004820181905260248201527f4e6f7420616c6c6f77656420746f207265766f6b652061646d696e20726f6c656044820152606401610745565b6107e683836115ca565b6000805160206130f98339815191526111de8161159e565b6101f95460ff16156112295760405162461bcd60e51b8152602060048201526014602482015273416c726561647920696e697469616c697a65642160601b6044820152606401610745565b6101f9805460ff191660011790556101f580546001600160a01b0386166001600160a01b03199091161790558251611269906101f690602086019061274d565b50506101f8555050565b60008061127f83610cc0565b1192915050565b60006001600160e01b0319821663780e9d6360e01b1480610611575061061182611a01565b600081815260cb60205260409020546001600160a01b0316610cbd5760405162461bcd60e51b8152602060048201526018602482015277115490cdcc8c4e881a5b9d985b1a59081d1bdad95b88125160421b6044820152606401610745565b600081815260cd6020526040902080546001600160a01b0319166001600160a01b038416908117909155819061133f82610b9b565b6001600160a01b03167f8c5be1e5ebec7d5bd14f71427d1e84f3dd0314c0f7b2291e5b200ac8c7c3b92560405160405180910390a45050565b60008061138483610b9b565b9050806001600160a01b0316846001600160a01b031614806113cb57506001600160a01b03808216600090815260ce602090815260408083209388168352929052205460ff165b806113ef5750836001600160a01b03166113e4846106a9565b6001600160a01b0316145b949350505050565b826001600160a01b031661140a82610b9b565b6001600160a01b03161461146e5760405162461bcd60e51b815260206004820152602560248201527f4552433732313a207472616e736665722066726f6d20696e636f72726563742060448201526437bbb732b960d91b6064820152608401610745565b6001600160a01b0382166114d05760405162461bcd60e51b8152602060048201526024808201527f4552433732313a207472616e7366657220746f20746865207a65726f206164646044820152637265737360e01b6064820152608401610745565b6114db838383611a41565b6114e660008261130a565b6001600160a01b038316600090815260cc6020526040812080546001929061150f908490612fdc565b90915550506001600160a01b038216600090815260cc6020526040812080546001929061153d908490612f91565b9091555050600081815260cb602052604080822080546001600160a01b0319166001600160a01b0386811691821790925591518493918716917fddf252ad1be2c89b69c2b068fc378daa952ba7f163c4a11628f55a4df523b3ef91a4505050565b610cbd8133611abd565b6115b28282611b21565b60008281526097602052604090206107e69082611ba7565b6115d48282611bbc565b60008281526097602052604090206107e69082611c23565b6115f4611c38565b61015f805460ff191690557f5db9ee0a495bf2e6ff9c91a7834c1ba4fdd244a5e8aa4e537bd38aeae4b073aa335b6040516001600160a01b03909116815260200160405180910390a1565b6116697f9f2df0fed2c77648de5860a4cc508cd0818c85b8b8a1ab4ceeef8d981c8956a633610df7565b6116db5760405162461bcd60e51b815260206004820152603d60248201527f4552433732315072657365744d696e7465725061757365724175746f49643a2060448201527f6d7573742068617665206d696e74657220726f6c6520746f206d696e740000006064820152608401610745565b6116ee816116e96101c35490565b611c82565b610cbd6101c380546001019055565b611705611dd0565b61015f805460ff191660011790557f62e78cea01bee320cd4e420270b5ea74000d11b0c9f74754ebdbfc544b05a2586116223390565b6000610df08383611e17565b816001600160a01b0316836001600160a01b031614156117a95760405162461bcd60e51b815260206004820152601960248201527f4552433732313a20617070726f766520746f2063616c6c6572000000000000006044820152606401610745565b6001600160a01b03838116600081815260ce6020908152604080832094871680845294825291829020805460ff191686151590811790915591519182527f17307eab39ab6107e8899845ad3d59bd9653f200f220920489ca2b5937696c31910160405180910390a3505050565b600054610100900460ff16158080156118365750600054600160ff909116105b806118505750303b158015611850575060005460ff166001145b61186c5760405162461bcd60e51b815260040161074590612e79565b6000805460ff19166001179055801561188f576000805461ff0019166101001790555b610f99848484611e4f565b6118a58484846113f7565b6118b184848484611e93565b610fdf5760405162461bcd60e51b815260040161074590612e27565b60606101f7805461062690613036565b6060816119015750506040805180820190915260018152600360fc1b602082015290565b8160005b811561192b578061191581613071565b91506119249050600a83612fa9565b9150611905565b60008167ffffffffffffffff81111561195457634e487b7160e01b600052604160045260246000fd5b6040519080825280601f01601f19166020018201604052801561197e576020820181803683370190505b5090505b84156113ef57611993600183612fdc565b91506119a0600a8661308c565b6119ab906030612f91565b60f81b8183815181106119ce57634e487b7160e01b600052603260045260246000fd5b60200101906001600160f81b031916908160001a9053506119f0600a86612fa9565b9450611982565b6000610611825490565b60006001600160e01b031982166380ac58cd60e01b1480611a3257506001600160e01b03198216635b5e139f60e01b145b80610611575061061182611fa0565b611a4c838383611fc5565b6101f55460405163013c282360e31b81526001600160a01b03909116906309e1411890611a86906101f69087908790600190600401612d4a565b600060405180830381600087803b158015611aa057600080fd5b505af1158015611ab4573d6000803e3d6000fd5b50505050505050565b611ac78282610df7565b61083f57611adf816001600160a01b03166014611fd0565b611aea836020611fd0565b604051602001611afb929190612c85565b60408051601f198184030181529082905262461bcd60e51b825261074591600401612d37565b611b2b8282610df7565b61083f5760008281526065602090815260408083206001600160a01b03851684529091529020805460ff19166001179055611b633390565b6001600160a01b0316816001600160a01b0316837f2f8788117e7eff1d82e926ec794901d17c78024a50270940304540a733656f0d60405160405180910390a45050565b6000610df0836001600160a01b0384166121b2565b611bc68282610df7565b1561083f5760008281526065602090815260408083206001600160a01b0385168085529252808320805460ff1916905551339285917ff6391f5c32d9c69d2a47ea670b442974b53935d1edc7fd64eb21e047a839171b9190a45050565b6000610df0836001600160a01b038416612201565b61015f5460ff16610a385760405162461bcd60e51b815260206004820152601460248201527314185d5cd8589b194e881b9bdd081c185d5cd95960621b6044820152606401610745565b6001600160a01b038216611cd85760405162461bcd60e51b815260206004820181905260248201527f4552433732313a206d696e7420746f20746865207a65726f20616464726573736044820152606401610745565b600081815260cb60205260409020546001600160a01b031615611d3d5760405162461bcd60e51b815260206004820152601c60248201527f4552433732313a20746f6b656e20616c7265616479206d696e746564000000006044820152606401610745565b611d4960008383611a41565b6001600160a01b038216600090815260cc60205260408120805460019290611d72908490612f91565b9091555050600081815260cb602052604080822080546001600160a01b0319166001600160a01b03861690811790915590518392907fddf252ad1be2c89b69c2b068fc378daa952ba7f163c4a11628f55a4df523b3ef908290a45050565b61015f5460ff1615610a385760405162461bcd60e51b815260206004820152601060248201526f14185d5cd8589b194e881c185d5cd95960821b6044820152606401610745565b6000826000018281548110611e3c57634e487b7160e01b600052603260045260246000fd5b9060005260206000200154905092915050565b600054610100900460ff16611e765760405162461bcd60e51b815260040161074590612ec7565b611e80838361231e565b611e8861236c565b6107e68383836123a0565b60006001600160a01b0384163b15611f9557604051630a85bd0160e11b81526001600160a01b0385169063150b7a0290611ed7903390899088908890600401612cfa565b602060405180830381600087803b158015611ef157600080fd5b505af1925050508015611f21575060408051601f3d908101601f19168201909252611f1e91810190612b57565b60015b611f7b573d808015611f4f576040519150601f19603f3d011682016040523d82523d6000602084013e611f54565b606091505b508051611f735760405162461bcd60e51b815260040161074590612e27565b805181602001fd5b6001600160e01b031916630a85bd0160e11b1490506113ef565b506001949350505050565b60006001600160e01b03198216635a05180f60e01b1480610611575061061182612429565b6107e683838361245e565b60606000611fdf836002612fbd565b611fea906002612f91565b67ffffffffffffffff81111561201057634e487b7160e01b600052604160045260246000fd5b6040519080825280601f01601f19166020018201604052801561203a576020820181803683370190505b509050600360fc1b8160008151811061206357634e487b7160e01b600052603260045260246000fd5b60200101906001600160f81b031916908160001a905350600f60fb1b816001815181106120a057634e487b7160e01b600052603260045260246000fd5b60200101906001600160f81b031916908160001a90535060006120c4846002612fbd565b6120cf906001612f91565b90505b6001811115612163576f181899199a1a9b1b9c1cb0b131b232b360811b85600f166010811061211157634e487b7160e01b600052603260045260246000fd5b1a60f81b82828151811061213557634e487b7160e01b600052603260045260246000fd5b60200101906001600160f81b031916908160001a90535060049490941c9361215c8161301f565b90506120d2565b508315610df05760405162461bcd60e51b815260206004820181905260248201527f537472696e67733a20686578206c656e67746820696e73756666696369656e746044820152606401610745565b60008181526001830160205260408120546121f957508154600181810184556000848152602080822090930184905584548482528286019093526040902091909155610611565b506000610611565b60008181526001830160205260408120548015612314576000612225600183612fdc565b855490915060009061223990600190612fdc565b90508181146122ba57600086600001828154811061226757634e487b7160e01b600052603260045260246000fd5b906000526020600020015490508087600001848154811061229857634e487b7160e01b600052603260045260246000fd5b6000918252602080832090910192909255918252600188019052604090208390555b85548690806122d957634e487b7160e01b600052603160045260246000fd5b600190038181906000526020600020016000905590558560010160008681526020019081526020016000206000905560019350505050610611565b6000915050610611565b600054610100900460ff166123455760405162461bcd60e51b815260040161074590612ec7565b81516123589060c990602085019061274d565b5080516107e69060ca90602084019061274d565b600054610100900460ff166123935760405162461bcd60e51b815260040161074590612ec7565b61015f805460ff19169055565b600054610100900460ff166123c75760405162461bcd60e51b815260040161074590612ec7565b80516123db906101c490602084019061274d565b506123e76000336124d1565b6124117f9f2df0fed2c77648de5860a4cc508cd0818c85b8b8a1ab4ceeef8d981c8956a6336124d1565b6107e6600080516020613119833981519152336124d1565b60006001600160e01b03198216637965db0b60e01b148061061157506301ffc9a760e01b6001600160e01b0319831614610611565b6124698383836124db565b61015f5460ff16156107e65760405162461bcd60e51b815260206004820152602b60248201527f4552433732315061757361626c653a20746f6b656e207472616e73666572207760448201526a1a1a5b19481c185d5cd95960aa1b6064820152608401610745565b61083f82826115a8565b6001600160a01b038316612536576125318160fd8054600083815260fe60205260408120829055600182018355919091527f9346ac6dd7de6b96975fec380d4d994c4c12e6a8897544f22915316cc6cca2800155565b612559565b816001600160a01b0316836001600160a01b031614612559576125598382612593565b6001600160a01b038216612570576107e681612630565b826001600160a01b0316826001600160a01b0316146107e6576107e68282612709565b600060016125a084610cc0565b6125aa9190612fdc565b600083815260fc60205260409020549091508082146125fd576001600160a01b038416600090815260fb60209081526040808320858452825280832054848452818420819055835260fc90915290208190555b50600091825260fc602090815260408084208490556001600160a01b03909416835260fb81528383209183525290812055565b60fd5460009061264290600190612fdc565b600083815260fe602052604081205460fd805493945090928490811061267857634e487b7160e01b600052603260045260246000fd5b906000526020600020015490508060fd83815481106126a757634e487b7160e01b600052603260045260246000fd5b600091825260208083209091019290925582815260fe909152604080822084905585825281205560fd8054806126ed57634e487b7160e01b600052603160045260246000fd5b6001900381819060005260206000200160009055905550505050565b600061271483610cc0565b6001600160a01b03909316600090815260fb60209081526040808320868452825280832085905593825260fc9052919091209190915550565b82805461275990613036565b90600052602060002090601f01602090048101928261277b57600085556127c1565b82601f1061279457805160ff19168380011785556127c1565b828001600101855582156127c1579182015b828111156127c15782518255916020019190600101906127a6565b506127cd9291506127d1565b5090565b5b808211156127cd57600081556001016127d2565b600067ffffffffffffffff831115612800576128006130cc565b612813601f8401601f1916602001612f60565b905082815283838301111561282757600080fd5b828260208301376000602084830101529392505050565b80356001600160a01b038116811461285557600080fd5b919050565b600082601f83011261286a578081fd5b610df0838335602085016127e6565b60006020828403121561288a578081fd5b610df08261283e565b600080604083850312156128a5578081fd5b6128ae8361283e565b91506128bc6020840161283e565b90509250929050565b6000806000606084860312156128d9578081fd5b6128e28461283e565b92506128f06020850161283e565b9150604084013590509250925092565b60008060008060808587031215612915578081fd5b61291e8561283e565b935061292c6020860161283e565b925060408501359150606085013567ffffffffffffffff81111561294e578182fd5b8501601f8101871361295e578182fd5b61296d878235602084016127e6565b91505092959194509250565b6000806040838503121561298b578182fd5b6129948361283e565b9150602083013580151581146129a8578182fd5b809150509250929050565b6000806000606084860312156129c7578283fd5b6129d08461283e565b9250602084013567ffffffffffffffff8111156129eb578283fd5b6129f78682870161285a565b925050604084013590509250925092565b60008060408385031215612a1a578182fd5b612a238361283e565b946020939093013593505050565b60006020808385031215612a43578182fd5b823567ffffffffffffffff80821115612a5a578384fd5b818501915085601f830112612a6d578384fd5b813581811115612a7f57612a7f6130cc565b8060051b9150612a90848301612f60565b8181528481019084860184860187018a1015612aaa578788fd5b8795505b83861015612ad357612abf8161283e565b835260019590950194918601918601612aae565b5098975050505050505050565b600060208284031215612af1578081fd5b5035919050565b60008060408385031215612b0a578182fd5b823591506128bc6020840161283e565b60008060408385031215612b2c578182fd5b50508035926020909101359150565b600060208284031215612b4c578081fd5b8135610df0816130e2565b600060208284031215612b68578081fd5b8151610df0816130e2565b600060208284031215612b84578081fd5b813567ffffffffffffffff811115612b9a578182fd5b6113ef8482850161285a565b600080600060608486031215612bba578081fd5b833567ffffffffffffffff80821115612bd1578283fd5b612bdd8783880161285a565b94506020860135915080821115612bf2578283fd5b612bfe8783880161285a565b93506040860135915080821115612c13578283fd5b50612c208682870161285a565b9150509250925092565b60008151808452612c42816020860160208601612ff3565b601f01601f19169290920160200192915050565b60008351612c68818460208801612ff3565b835190830190612c7c818360208801612ff3565b01949350505050565b7f416363657373436f6e74726f6c3a206163636f756e7420000000000000000000815260008351612cbd816017850160208801612ff3565b7001034b99036b4b9b9b4b733903937b6329607d1b6017918401918201528351612cee816028840160208801612ff3565b01602801949350505050565b6001600160a01b0385811682528416602082015260408101839052608060608201819052600090612d2d90830184612c2a565b9695505050505050565b602081526000610df06020830184612c2a565b60808152600080865482600182811c915080831680612d6a57607f831692505b6020808410821415612d8a57634e487b7160e01b87526022600452602487fd5b6080880184905260a08801828015612da95760018114612dba57612de4565b60ff19871682528282019750612de4565b60008e815260209020895b87811015612dde57815484820152908601908401612dc5565b83019850505b5050859650612dfd8189018c6001600160a01b03169052565b505050505050612e1860408301856001600160a01b03169052565b82606083015295945050505050565b60208082526032908201527f4552433732313a207472616e7366657220746f206e6f6e20455243373231526560408201527131b2b4bb32b91034b6b83632b6b2b73a32b960711b606082015260800190565b6020808252602e908201527f496e697469616c697a61626c653a20636f6e747261637420697320616c72656160408201526d191e481a5b9a5d1a585b1a5e995960921b606082015260800190565b6020808252602b908201527f496e697469616c697a61626c653a20636f6e7472616374206973206e6f74206960408201526a6e697469616c697a696e6760a81b606082015260800190565b6020808252602e908201527f4552433732313a2063616c6c6572206973206e6f7420746f6b656e206f776e6560408201526d1c881b9bdc88185c1c1c9bdd995960921b606082015260800190565b604051601f8201601f1916810167ffffffffffffffff81118282101715612f8957612f896130cc565b604052919050565b60008219821115612fa457612fa46130a0565b500190565b600082612fb857612fb86130b6565b500490565b6000816000190483118215151615612fd757612fd76130a0565b500290565b600082821015612fee57612fee6130a0565b500390565b60005b8381101561300e578181015183820152602001612ff6565b83811115610fdf5750506000910152565b60008161302e5761302e6130a0565b506000190190565b600181811c9082168061304a57607f821691505b6020821081141561306b57634e487b7160e01b600052602260045260246000fd5b50919050565b6000600019821415613085576130856130a0565b5060010190565b60008261309b5761309b6130b6565b500690565b634e487b7160e01b600052601160045260246000fd5b634e487b7160e01b600052601260045260246000fd5b634e487b7160e01b600052604160045260246000fd5b6001600160e01b031981168114610cbd57600080fdfe241ecf16d79d0f8dbfb92cbc07fe17840425976cf0667f022fe9877caa831b0865d7a28e3265b37a6474929f336521b332c1681b933f6cb9f3376673440d862aa264697066735822122056af900986b2075c116fd3b23f242f9921368431f6a292beb6fa884c031d27d264736f6c63430008040033",
    "linkReferences": {}
  },
  "methodIdentifiers": {
    "DEFAULT_ADMIN_ROLE()": "a217fddf",
    "MANAGER_ROLE()": "ec87621c",
    "MINTER_ROLE()": "d5391393",
    "PAUSER_ROLE()": "e63ab1e9",
    "_baseTokenURI()": "cfc86f7b",
    "addManager(address)": "2d06177a",
    "approve(address,uint256)": "095ea7b3",
    "balanceOf(address)": "70a08231",
    "burn(uint256)": "42966c68",
    "changeBaseURI(string)": "39a0c6f9",
    "changeMaxSupply(uint256)": "404c7cdd",
    "getApproved(uint256)": "081812fc",
    "getRoleAdmin(bytes32)": "248a9ca3",
    "getRoleMember(bytes32,uint256)": "9010d07c",
    "getRoleMemberCount(bytes32)": "ca15c873",
    "grantRole(bytes32,address)": "2f2ff15d",
    "hasRole(bytes32,address)": "91d14854",
    "haveTokens(address)": "e45b907d",
    "initialize(string,string,string)": "a6487c53",
    "initialize2(address,string,uint256)": "dd9b4e5f",
    "initialized()": "158ef93e",
    "isApprovedForAll(address,address)": "e985e9c5",
    "maxSupply()": "d5abeb01",
    "mint(address)": "6a627842",
    "mintBatch(address[])": "927f59ba",
    "name()": "06fdde03",
    "nftDistr()": "bd1bbd3b",
    "ownerOf(uint256)": "6352211e",
    "pause()": "8456cb59",
    "paused()": "5c975abb",
    "removeManager(address)": "ac18de43",
    "renounceRole(bytes32,address)": "36568abe",
    "revokeRole(bytes32,address)": "d547741f",
    "safeTransferFrom(address,address,uint256)": "42842e0e",
    "safeTransferFrom(address,address,uint256,bytes)": "b88d4fde",
    "setApprovalForAll(address,bool)": "a22cb465",
    "supportsInterface(bytes4)": "01ffc9a7",
    "symbol()": "95d89b41",
    "tokenByIndex(uint256)": "4f6ccce7",
    "tokenOfOwnerByIndex(address,uint256)": "2f745c59",
    "tokenURI(uint256)": "c87b56dd",
    "totalSupply()": "18160ddd",
    "transferFrom(address,address,uint256)": "23b872dd",
    "unpause()": "3f4ba83a",
    "utilName()": "ab486929"
  },
  "id": 2
}