{
  "abi": [
    {
      "inputs": [
        {
          "internalType": "contract MockSiriusFarm",
          "name": "_farm",
          "type": "address"
        },
        {
          "internalType": "contract MockERC20",
          "name": "_srs",
          "type": "address"
        }
      ],
      "stateMutability": "nonpayable",
      "type": "constructor"
    },
    {
      "inputs": [
        {
          "internalType": "address",
          "name": "gaugeToken",
          "type": "address"
        }
      ],
      "name": "mint",
      "outputs": [],
      "stateMutability": "nonpayable",
      "type": "function"
    }
  ],
  "bytecode": {
    "object": "0x608060405234801561001057600080fd5b5060405161034738038061034783398101604081905261002f91610060565b600080546001600160a01b039384166001600160a01b031991821617909155600180549290931691161790556100b1565b60008060408385031215610072578182fd5b825161007d81610099565b602084015190925061008e81610099565b809150509250929050565b6001600160a01b03811681146100ae57600080fd5b50565b610287806100c06000396000f3fe608060405234801561001057600080fd5b506004361061002b5760003560e01c80636a62784214610030575b600080fd5b61004361003e3660046101bf565b610045565b005b6000805460405163370ee33760e11b815233600482015282916001600160a01b031690636e1dc66e9060240160206040518083038186803b15801561008957600080fd5b505afa15801561009d573d6000803e3d6000fd5b505050506040513d601f19601f820116820180604052508101906100c191906101ed565b9050804211156100d8576100d58142610224565b91505b60005460405163d684395d60e01b81523360048201524260248201526001600160a01b039091169063d684395d90604401600060405180830381600087803b15801561012357600080fd5b505af1158015610137573d6000803e3d6000fd5b50506001546001600160a01b031691506340c10f1990503361015c85620f4240610205565b6040516001600160e01b031960e085901b1681526001600160a01b0390921660048301526024820152604401600060405180830381600087803b1580156101a257600080fd5b505af11580156101b6573d6000803e3d6000fd5b50505050505050565b6000602082840312156101d0578081fd5b81356001600160a01b03811681146101e6578182fd5b9392505050565b6000602082840312156101fe578081fd5b5051919050565b600081600019048311821515161561021f5761021f61023b565b500290565b6000828210156102365761023661023b565b500390565b634e487b7160e01b600052601160045260246000fdfea2646970667358221220a8a600a5d19b1dccdcdc75632ba9bca73a24f0187f431defaeb5e2f45f88ba9c64736f6c63430008040033",
    "linkReferences": {}
  },
  "methodIdentifiers": {
    "mint(address)": "6a627842"
  },
  "id": 24
}