{
  "abi": [
    {
      "inputs": [],
      "stateMutability": "nonpayable",
      "type": "constructor"
    },
    {
      "anonymous": false,
      "inputs": [
        {
          "indexed": true,
          "internalType": "string",
          "name": "newUtility",
          "type": "string"
        }
      ],
      "name": "AddUtility",
      "type": "event"
    },
    {
      "anonymous": false,
      "inputs": [
        {
          "indexed": true,
          "internalType": "string",
          "name": "dnt",
          "type": "string"
        },
        {
          "indexed": true,
          "internalType": "address",
          "name": "addr",
          "type": "address"
        }
      ],
      "name": "ChangeDntAddress",
      "type": "event"
    },
    {
      "anonymous": false,
      "inputs": [
        {
          "indexed": false,
          "internalType": "uint8",
          "name": "version",
          "type": "uint8"
        }
      ],
      "name": "Initialized",
      "type": "event"
    },
    {
      "anonymous": false,
      "inputs": [
        {
          "indexed": true,
          "internalType": "address",
          "name": "_to",
          "type": "address"
        },
        {
          "indexed": true,
          "internalType": "uint256",
          "name": "_amount",
          "type": "uint256"
        },
        {
          "indexed": false,
          "internalType": "string",
          "name": "_utility",
          "type": "string"
        },
        {
          "indexed": true,
          "internalType": "string",
          "name": "_dnt",
          "type": "string"
        }
      ],
      "name": "IssueDnt",
      "type": "event"
    },
    {
      "anonymous": false,
      "inputs": [
        {
          "indexed": true,
          "internalType": "address",
          "name": "owner",
          "type": "address"
        },
        {
          "indexed": true,
          "internalType": "address",
          "name": "grantedOwner",
          "type": "address"
        }
      ],
      "name": "OwnershipTransferred",
      "type": "event"
    },
    {
      "anonymous": false,
      "inputs": [
        {
          "indexed": true,
          "internalType": "bytes32",
          "name": "role",
          "type": "bytes32"
        },
        {
          "indexed": true,
          "internalType": "bytes32",
          "name": "previousAdminRole",
          "type": "bytes32"
        },
        {
          "indexed": true,
          "internalType": "bytes32",
          "name": "newAdminRole",
          "type": "bytes32"
        }
      ],
      "name": "RoleAdminChanged",
      "type": "event"
    },
    {
      "anonymous": false,
      "inputs": [
        {
          "indexed": true,
          "internalType": "bytes32",
          "name": "role",
          "type": "bytes32"
        },
        {
          "indexed": true,
          "internalType": "address",
          "name": "account",
          "type": "address"
        },
        {
          "indexed": true,
          "internalType": "address",
          "name": "sender",
          "type": "address"
        }
      ],
      "name": "RoleGranted",
      "type": "event"
    },
    {
      "anonymous": false,
      "inputs": [
        {
          "indexed": true,
          "internalType": "bytes32",
          "name": "role",
          "type": "bytes32"
        },
        {
          "indexed": true,
          "internalType": "address",
          "name": "account",
          "type": "address"
        },
        {
          "indexed": true,
          "internalType": "address",
          "name": "sender",
          "type": "address"
        }
      ],
      "name": "RoleRevoked",
      "type": "event"
    },
    {
      "anonymous": false,
      "inputs": [
        {
          "indexed": true,
          "internalType": "uint256",
          "name": "id",
          "type": "uint256"
        },
        {
          "indexed": true,
          "internalType": "bool",
          "name": "state",
          "type": "bool"
        },
        {
          "indexed": true,
          "internalType": "string",
          "name": "dntName",
          "type": "string"
        }
      ],
      "name": "SetDntStatus",
      "type": "event"
    },
    {
      "anonymous": false,
      "inputs": [
        {
          "indexed": true,
          "internalType": "address",
          "name": "liquidStakingAddress",
          "type": "address"
        }
      ],
      "name": "SetLiquidStaking",
      "type": "event"
    },
    {
      "anonymous": false,
      "inputs": [
        {
          "indexed": true,
          "internalType": "uint256",
          "name": "id",
          "type": "uint256"
        },
        {
          "indexed": true,
          "internalType": "bool",
          "name": "state",
          "type": "bool"
        },
        {
          "indexed": true,
          "internalType": "string",
          "name": "utilityName",
          "type": "string"
        }
      ],
      "name": "SetUtilityStatus",
      "type": "event"
    },
    {
      "anonymous": false,
      "inputs": [
        {
          "indexed": true,
          "internalType": "address",
          "name": "_from",
          "type": "address"
        },
        {
          "indexed": true,
          "internalType": "address",
          "name": "_to",
          "type": "address"
        },
        {
          "indexed": false,
          "internalType": "uint256",
          "name": "_amount",
          "type": "uint256"
        },
        {
          "indexed": false,
          "internalType": "string",
          "name": "_utility",
          "type": "string"
        },
        {
          "indexed": true,
          "internalType": "string",
          "name": "_dnt",
          "type": "string"
        }
      ],
      "name": "Transfer",
      "type": "event"
    },
    {
      "anonymous": false,
      "inputs": [
        {
          "indexed": true,
          "internalType": "address",
          "name": "to",
          "type": "address"
        },
        {
          "indexed": true,
          "internalType": "string",
          "name": "dnt",
          "type": "string"
        }
      ],
      "name": "TransferDntContractOwnership",
      "type": "event"
    },
    {
      "inputs": [],
      "name": "DEFAULT_ADMIN_ROLE",
      "outputs": [
        {
          "internalType": "bytes32",
          "name": "",
          "type": "bytes32"
        }
      ],
      "stateMutability": "view",
      "type": "function"
    },
    {
      "inputs": [],
      "name": "MANAGER",
      "outputs": [
        {
          "internalType": "bytes32",
          "name": "",
          "type": "bytes32"
        }
      ],
      "stateMutability": "view",
      "type": "function"
    },
    {
      "inputs": [],
      "name": "MANAGER_CONTRACT",
      "outputs": [
        {
          "internalType": "bytes32",
          "name": "",
          "type": "bytes32"
        }
      ],
      "stateMutability": "view",
      "type": "function"
    },
    {
      "inputs": [
        {
          "internalType": "address",
          "name": "_newManager",
          "type": "address"
        }
      ],
      "name": "addManager",
      "outputs": [],
      "stateMutability": "nonpayable",
      "type": "function"
    },
    {
      "inputs": [
        {
          "internalType": "string",
          "name": "_newUtility",
          "type": "string"
        }
      ],
      "name": "addUtility",
      "outputs": [],
      "stateMutability": "nonpayable",
      "type": "function"
    },
    {
      "inputs": [
        {
          "internalType": "string",
          "name": "_utility",
          "type": "string"
        }
      ],
      "name": "addUtilityToDisallowList",
      "outputs": [],
      "stateMutability": "nonpayable",
      "type": "function"
    },
    {
      "inputs": [
        {
          "internalType": "string",
          "name": "_dnt",
          "type": "string"
        },
        {
          "internalType": "address",
          "name": "_address",
          "type": "address"
        }
      ],
      "name": "changeDntAddress",
      "outputs": [],
      "stateMutability": "nonpayable",
      "type": "function"
    },
    {
      "inputs": [
        {
          "internalType": "address",
          "name": "_oldAddress",
          "type": "address"
        },
        {
          "internalType": "address",
          "name": "_newAddress",
          "type": "address"
        }
      ],
      "name": "changeManagerAddress",
      "outputs": [],
      "stateMutability": "nonpayable",
      "type": "function"
    },
    {
      "inputs": [],
      "name": "claimOwnership",
      "outputs": [],
      "stateMutability": "nonpayable",
      "type": "function"
    },
    {
      "inputs": [
        {
          "internalType": "string",
          "name": "",
          "type": "string"
        }
      ],
      "name": "disallowList",
      "outputs": [
        {
          "internalType": "bool",
          "name": "",
          "type": "bool"
        }
      ],
      "stateMutability": "view",
      "type": "function"
    },
    {
      "inputs": [
        {
          "internalType": "string",
          "name": "",
          "type": "string"
        }
      ],
      "name": "dntContracts",
      "outputs": [
        {
          "internalType": "address",
          "name": "",
          "type": "address"
        }
      ],
      "stateMutability": "view",
      "type": "function"
    },
    {
      "inputs": [
        {
          "internalType": "uint256",
          "name": "",
          "type": "uint256"
        }
      ],
      "name": "dntDB",
      "outputs": [
        {
          "internalType": "string",
          "name": "dntName",
          "type": "string"
        },
        {
          "internalType": "bool",
          "name": "isActive",
          "type": "bool"
        }
      ],
      "stateMutability": "view",
      "type": "function"
    },
    {
      "inputs": [
        {
          "internalType": "string",
          "name": "",
          "type": "string"
        }
      ],
      "name": "dntId",
      "outputs": [
        {
          "internalType": "uint256",
          "name": "",
          "type": "uint256"
        }
      ],
      "stateMutability": "view",
      "type": "function"
    },
    {
      "inputs": [
        {
          "internalType": "uint256",
          "name": "",
          "type": "uint256"
        }
      ],
      "name": "dnts",
      "outputs": [
        {
          "internalType": "string",
          "name": "",
          "type": "string"
        }
      ],
      "stateMutability": "view",
      "type": "function"
    },
    {
      "inputs": [
        {
          "internalType": "bytes32",
          "name": "role",
          "type": "bytes32"
        }
      ],
      "name": "getRoleAdmin",
      "outputs": [
        {
          "internalType": "bytes32",
          "name": "",
          "type": "bytes32"
        }
      ],
      "stateMutability": "view",
      "type": "function"
    },
    {
      "inputs": [
        {
          "internalType": "address",
          "name": "_user",
          "type": "address"
        },
        {
          "internalType": "string",
          "name": "_dnt",
          "type": "string"
        }
      ],
      "name": "getUserDntBalance",
      "outputs": [
        {
          "internalType": "uint256",
          "name": "",
          "type": "uint256"
        }
      ],
      "stateMutability": "nonpayable",
      "type": "function"
    },
    {
      "inputs": [
        {
          "internalType": "address",
          "name": "_user",
          "type": "address"
        },
        {
          "internalType": "string",
          "name": "_util",
          "type": "string"
        },
        {
          "internalType": "string",
          "name": "_dnt",
          "type": "string"
        }
      ],
      "name": "getUserDntBalanceInUtil",
      "outputs": [
        {
          "internalType": "uint256",
          "name": "",
          "type": "uint256"
        }
      ],
      "stateMutability": "view",
      "type": "function"
    },
    {
      "inputs": [
        {
          "internalType": "address",
          "name": "_newOwner",
          "type": "address"
        }
      ],
      "name": "grantOwnership",
      "outputs": [],
      "stateMutability": "nonpayable",
      "type": "function"
    },
    {
      "inputs": [
        {
          "internalType": "bytes32",
          "name": "role",
          "type": "bytes32"
        },
        {
          "internalType": "address",
          "name": "account",
          "type": "address"
        }
      ],
      "name": "grantRole",
      "outputs": [],
      "stateMutability": "nonpayable",
      "type": "function"
    },
    {
      "inputs": [
        {
          "internalType": "bytes32",
          "name": "role",
          "type": "bytes32"
        },
        {
          "internalType": "address",
          "name": "account",
          "type": "address"
        }
      ],
      "name": "hasRole",
      "outputs": [
        {
          "internalType": "bool",
          "name": "",
          "type": "bool"
        }
      ],
      "stateMutability": "view",
      "type": "function"
    },
    {
      "inputs": [],
      "name": "initialize",
      "outputs": [],
      "stateMutability": "nonpayable",
      "type": "function"
    },
    {
      "inputs": [
        {
          "internalType": "string",
          "name": "",
          "type": "string"
        }
      ],
      "name": "isUtility",
      "outputs": [
        {
          "internalType": "bool",
          "name": "",
          "type": "bool"
        }
      ],
      "stateMutability": "view",
      "type": "function"
    },
    {
      "inputs": [
        {
          "internalType": "address",
          "name": "_to",
          "type": "address"
        },
        {
          "internalType": "uint256",
          "name": "_amount",
          "type": "uint256"
        },
        {
          "internalType": "string",
          "name": "_utility",
          "type": "string"
        },
        {
          "internalType": "string",
          "name": "_dnt",
          "type": "string"
        }
      ],
      "name": "issueDnt",
      "outputs": [],
      "stateMutability": "nonpayable",
      "type": "function"
    },
    {
      "inputs": [],
      "name": "listDnts",
      "outputs": [
        {
          "internalType": "string[]",
          "name": "",
          "type": "string[]"
        }
      ],
      "stateMutability": "view",
      "type": "function"
    },
    {
      "inputs": [],
      "name": "listManagers",
      "outputs": [
        {
          "internalType": "address[]",
          "name": "",
          "type": "address[]"
        }
      ],
      "stateMutability": "view",
      "type": "function"
    },
    {
      "inputs": [
        {
          "internalType": "address",
          "name": "_user",
          "type": "address"
        },
        {
          "internalType": "string",
          "name": "_dnt",
          "type": "string"
        }
      ],
      "name": "listUserDntInUtils",
      "outputs": [
        {
          "internalType": "string[]",
          "name": "",
          "type": "string[]"
        },
        {
          "internalType": "uint256[]",
          "name": "",
          "type": "uint256[]"
        }
      ],
      "stateMutability": "view",
      "type": "function"
    },
    {
      "inputs": [
        {
          "internalType": "address",
          "name": "_user",
          "type": "address"
        }
      ],
      "name": "listUserDnts",
      "outputs": [
        {
          "internalType": "string[]",
          "name": "",
          "type": "string[]"
        }
      ],
      "stateMutability": "view",
      "type": "function"
    },
    {
      "inputs": [
        {
          "internalType": "address",
          "name": "_user",
          "type": "address"
        },
        {
          "internalType": "string",
          "name": "_dnt",
          "type": "string"
        }
      ],
      "name": "listUserUtilitiesInDnt",
      "outputs": [
        {
          "internalType": "string[]",
          "name": "",
          "type": "string[]"
        }
      ],
      "stateMutability": "view",
      "type": "function"
    },
    {
      "inputs": [],
      "name": "listUtilities",
      "outputs": [
        {
          "internalType": "string[]",
          "name": "",
          "type": "string[]"
        }
      ],
      "stateMutability": "view",
      "type": "function"
    },
    {
      "inputs": [
        {
          "internalType": "address",
          "name": "",
          "type": "address"
        }
      ],
      "name": "managerIds",
      "outputs": [
        {
          "internalType": "uint256",
          "name": "",
          "type": "uint256"
        }
      ],
      "stateMutability": "view",
      "type": "function"
    },
    {
      "inputs": [
        {
          "internalType": "uint256",
          "name": "",
          "type": "uint256"
        }
      ],
      "name": "managers",
      "outputs": [
        {
          "internalType": "address",
          "name": "",
          "type": "address"
        }
      ],
      "stateMutability": "view",
      "type": "function"
    },
    {
      "inputs": [
        {
          "internalType": "address",
          "name": "_from",
          "type": "address"
        },
        {
          "internalType": "address",
          "name": "_to",
          "type": "address"
        },
        {
          "internalType": "uint256[]",
          "name": "_amounts",
          "type": "uint256[]"
        },
        {
          "internalType": "string[]",
          "name": "_utilities",
          "type": "string[]"
        },
        {
          "internalType": "string",
          "name": "_dnt",
          "type": "string"
        }
      ],
      "name": "multiTransferDnts",
      "outputs": [
        {
          "internalType": "uint256",
          "name": "",
          "type": "uint256"
        }
      ],
      "stateMutability": "nonpayable",
      "type": "function"
    },
    {
      "inputs": [],
      "name": "owner",
      "outputs": [
        {
          "internalType": "address",
          "name": "",
          "type": "address"
        }
      ],
      "stateMutability": "view",
      "type": "function"
    },
    {
      "inputs": [
        {
          "internalType": "address",
          "name": "_account",
          "type": "address"
        },
        {
          "internalType": "uint256",
          "name": "_amount",
          "type": "uint256"
        },
        {
          "internalType": "string",
          "name": "_utility",
          "type": "string"
        },
        {
          "internalType": "string",
          "name": "_dnt",
          "type": "string"
        }
      ],
      "name": "removeDnt",
      "outputs": [],
      "stateMutability": "nonpayable",
      "type": "function"
    },
    {
      "inputs": [
        {
          "internalType": "address",
          "name": "_manager",
          "type": "address"
        }
      ],
      "name": "removeManager",
      "outputs": [],
      "stateMutability": "nonpayable",
      "type": "function"
    },
    {
      "inputs": [
        {
          "internalType": "string",
          "name": "_utility",
          "type": "string"
        }
      ],
      "name": "removeUtilityFromDisallowList",
      "outputs": [],
      "stateMutability": "nonpayable",
      "type": "function"
    },
    {
      "inputs": [
        {
          "internalType": "bytes32",
          "name": "role",
          "type": "bytes32"
        },
        {
          "internalType": "address",
          "name": "account",
          "type": "address"
        }
      ],
      "name": "renounceRole",
      "outputs": [],
      "stateMutability": "nonpayable",
      "type": "function"
    },
    {
      "inputs": [
        {
          "internalType": "bytes32",
          "name": "role",
          "type": "bytes32"
        },
        {
          "internalType": "address",
          "name": "account",
          "type": "address"
        }
      ],
      "name": "revokeRole",
      "outputs": [],
      "stateMutability": "nonpayable",
      "type": "function"
    },
    {
      "inputs": [
        {
          "internalType": "uint256",
          "name": "_id",
          "type": "uint256"
        },
        {
          "internalType": "bool",
          "name": "_state",
          "type": "bool"
        }
      ],
      "name": "setDntStatus",
      "outputs": [],
      "stateMutability": "nonpayable",
      "type": "function"
    },
    {
      "inputs": [
        {
          "internalType": "address",
          "name": "_liquidStaking",
          "type": "address"
        }
      ],
      "name": "setLiquidStaking",
      "outputs": [],
      "stateMutability": "nonpayable",
      "type": "function"
    },
    {
      "inputs": [
        {
          "internalType": "uint256",
          "name": "_id",
          "type": "uint256"
        },
        {
          "internalType": "bool",
          "name": "_state",
          "type": "bool"
        }
      ],
      "name": "setUtilityStatus",
      "outputs": [],
      "stateMutability": "nonpayable",
      "type": "function"
    },
    {
      "inputs": [
        {
          "internalType": "bytes4",
          "name": "interfaceId",
          "type": "bytes4"
        }
      ],
      "name": "supportsInterface",
      "outputs": [
        {
          "internalType": "bool",
          "name": "",
          "type": "bool"
        }
      ],
      "stateMutability": "view",
      "type": "function"
    },
    {
      "inputs": [
        {
          "internalType": "string",
          "name": "",
          "type": "string"
        }
      ],
      "name": "totalDnt",
      "outputs": [
        {
          "internalType": "uint256",
          "name": "",
          "type": "uint256"
        }
      ],
      "stateMutability": "view",
      "type": "function"
    },
    {
      "inputs": [
        {
          "internalType": "string",
          "name": "",
          "type": "string"
        }
      ],
      "name": "totalDntInUtil",
      "outputs": [
        {
          "internalType": "uint256",
          "name": "",
          "type": "uint256"
        }
      ],
      "stateMutability": "view",
      "type": "function"
    },
    {
      "inputs": [
        {
          "internalType": "address",
          "name": "_from",
          "type": "address"
        },
        {
          "internalType": "address",
          "name": "_to",
          "type": "address"
        },
        {
          "internalType": "uint256",
          "name": "_amount",
          "type": "uint256"
        },
        {
          "internalType": "string",
          "name": "_utility",
          "type": "string"
        },
        {
          "internalType": "string",
          "name": "_dnt",
          "type": "string"
        }
      ],
      "name": "transferDnt",
      "outputs": [],
      "stateMutability": "nonpayable",
      "type": "function"
    },
    {
      "inputs": [
        {
          "internalType": "address",
          "name": "_to",
          "type": "address"
        },
        {
          "internalType": "string",
          "name": "_dnt",
          "type": "string"
        }
      ],
      "name": "transferDntContractOwnership",
      "outputs": [],
      "stateMutability": "nonpayable",
      "type": "function"
    },
    {
      "inputs": [
        {
          "internalType": "address",
          "name": "_from",
          "type": "address"
        },
        {
          "internalType": "address",
          "name": "_to",
          "type": "address"
        },
        {
          "internalType": "uint256",
          "name": "_amount",
          "type": "uint256"
        },
        {
          "internalType": "string",
          "name": "_dnt",
          "type": "string"
        }
      ],
      "name": "transferDnts",
      "outputs": [
        {
          "internalType": "string[]",
          "name": "",
          "type": "string[]"
        },
        {
          "internalType": "uint256[]",
          "name": "",
          "type": "uint256[]"
        }
      ],
      "stateMutability": "nonpayable",
      "type": "function"
    },
    {
      "inputs": [
        {
          "internalType": "address",
          "name": "",
          "type": "address"
        },
        {
          "internalType": "string",
          "name": "",
          "type": "string"
        }
      ],
      "name": "userDntsIdx",
      "outputs": [
        {
          "internalType": "uint256",
          "name": "",
          "type": "uint256"
        }
      ],
      "stateMutability": "view",
      "type": "function"
    },
    {
      "inputs": [
        {
          "internalType": "address",
          "name": "",
          "type": "address"
        },
        {
          "internalType": "string",
          "name": "",
          "type": "string"
        }
      ],
      "name": "userHasDnt",
      "outputs": [
        {
          "internalType": "bool",
          "name": "",
          "type": "bool"
        }
      ],
      "stateMutability": "view",
      "type": "function"
    },
    {
      "inputs": [
        {
          "internalType": "address",
          "name": "",
          "type": "address"
        },
        {
          "internalType": "string",
          "name": "",
          "type": "string"
        }
      ],
      "name": "userHasUtility",
      "outputs": [
        {
          "internalType": "bool",
          "name": "",
          "type": "bool"
        }
      ],
      "stateMutability": "view",
      "type": "function"
    },
    {
      "inputs": [
        {
          "internalType": "address",
          "name": "",
          "type": "address"
        },
        {
          "internalType": "string",
          "name": "",
          "type": "string"
        }
      ],
      "name": "userUtitliesIdx",
      "outputs": [
        {
          "internalType": "uint256",
          "name": "",
          "type": "uint256"
        }
      ],
      "stateMutability": "view",
      "type": "function"
    },
    {
      "inputs": [
        {
          "internalType": "uint256",
          "name": "",
          "type": "uint256"
        }
      ],
      "name": "utilities",
      "outputs": [
        {
          "internalType": "string",
          "name": "",
          "type": "string"
        }
      ],
      "stateMutability": "view",
      "type": "function"
    },
    {
      "inputs": [
        {
          "internalType": "uint256",
          "name": "",
          "type": "uint256"
        }
      ],
      "name": "utilityDB",
      "outputs": [
        {
          "internalType": "string",
          "name": "utilityName",
          "type": "string"
        },
        {
          "internalType": "bool",
          "name": "isActive",
          "type": "bool"
        }
      ],
      "stateMutability": "view",
      "type": "function"
    },
    {
      "inputs": [
        {
          "internalType": "string",
          "name": "",
          "type": "string"
        }
      ],
      "name": "utilityId",
      "outputs": [
        {
          "internalType": "uint256",
          "name": "",
          "type": "uint256"
        }
      ],
      "stateMutability": "view",
      "type": "function"
    }
  ],
  "bytecode": {
    "object": "0x60806040523480156200001157600080fd5b506200001c62000022565b620000e4565b600054610100900460ff16156200008f5760405162461bcd60e51b815260206004820152602760248201527f496e697469616c697a61626c653a20636f6e747261637420697320696e697469604482015266616c697a696e6760c81b606482015260840160405180910390fd5b60005460ff9081161015620000e2576000805460ff191660ff9081179091556040519081527f7f26b83ff96e1f2b6a682f133852f6798a09c465da95921460cefb38474024989060200160405180910390a15b565b614c1580620000f46000396000f3fe608060405234801561001057600080fd5b50600436106103425760003560e01c80637b7b33a3116101b8578063c16e5b1e11610104578063e1d9b417116100a2578063efd2d18e1161007c578063efd2d18e146108bb578063f35d9cbb146108ce578063f7e085cd146108e1578063fd569080146108f457600080fd5b8063e1d9b41714610861578063ecca7d1714610874578063ef01145a146108a857600080fd5b8063dd019180116100de578063dd01918014610808578063dddecb2c1461081b578063df1766501461083b578063e0a3b21f1461084e57600080fd5b8063c16e5b1e14610777578063d547741f146107b6578063dc044072146107c957600080fd5b8063a217fddf11610171578063ac18de431161014b578063ac18de43146106fb578063acfd82f21461070e578063b39fd5cf14610721578063be667e961461074c57600080fd5b8063a217fddf146106b2578063a41c673a146106ba578063a4dd557c146106e857600080fd5b80637b7b33a3146106075780638129fc1c14610643578063888617441461064b5780638da5cb5b1461065e57806391d14854146106715780639ccd0adb1461068457600080fd5b8063368e81501161029257806354d80307116102305780635fbf052a1161020a5780635fbf052a146105a15780636d965378146105b657806371e9acfa146105e1578063739170b2146105f457600080fd5b806354d803071461054257806355e86c6a1461056d5780635ebe2f8a1461058e57600080fd5b806340bc44a41161026c57806340bc44a4146105175780634e71e0c81461051f578063545bdb6e14610527578063547688241461053a57600080fd5b8063368e8150146104b8578063398a1329146104d95780633d39c260146104ec57600080fd5b8063292e1f12116102ff5780632d06177a116102d95780632d06177a1461045f5780632d4a2146146104725780632f2ff15d1461049257806336568abe146104a557600080fd5b8063292e1f121461042657806329501ad6146104395780632c615e381461044c57600080fd5b806301ffc9a7146103475780630740bb371461036f57806308211be5146103b957806312d22c54146103ce5780631b2df850146103ee578063248a9ca314610403575b600080fd5b61035a61035536600461455b565b610909565b60405190151581526020015b60405180910390f35b6103ab61037d3660046143f8565b60ab602090815260009283526040909220815180830184018051928152908401929093019190912091525481565b604051908152602001610366565b6103cc6103c73660046141c9565b610940565b005b6103e16103dc3660046141c9565b610a52565b604051610366919061488f565b6103ab600080516020614ba083398151915281565b6103ab610411366004614521565b60009081526065602052604090206001015490565b6103cc61043436600461460f565b610b67565b6103cc6104473660046141e3565b610c87565b6103cc61045a36600461437a565b610ccf565b6103cc61046d3660046141c9565b610e17565b610485610480366004614521565b610f18565b60405161036691906148eb565b6103cc6104a0366004614539565b610fc4565b6103cc6104b3366004614539565b610fe9565b6104cb6104c63660046143f8565b6110bb565b6040516103669291906148a2565b6103cc6104e73660046144b3565b611264565b6104ff6104fa366004614521565b6114aa565b6040516001600160a01b039091168152602001610366565b6103e16114d4565b6103cc6115ad565b610485610535366004614521565b61168e565b6103e161169e565b6103ab610550366004614583565b8051602081830181018051609d8252928201919093012091525481565b61058061057b366004614521565b61176e565b604051610366929190614928565b6103cc61059c3660046145b5565b61182d565b6105a961191b565b6040516103669190614842565b6103ab6105c4366004614583565b8051602081830181018051609a8252928201919093012091525481565b6105806105ef366004614521565b61197d565b6104cb610602366004614315565b61198d565b6103ab6106153660046143f8565b60ac602090815260009283526040909220815180830184018051928152908401929093019190912091525481565b6103cc611c87565b6103cc610659366004614583565b611fe2565b60a0546104ff906001600160a01b031681565b61035a61067f366004614539565b612030565b61035a610692366004614583565b805160208183018101805160a78252928201919093012091525460ff1681565b6103ab600081565b61035a6106c8366004614583565b805160208183018101805160a58252928201919093012091525460ff1681565b6103cc6106f63660046144b3565b61205b565b6103cc6107093660046141c9565b61228b565b6103cc61071c3660046141c9565b61246f565b6103ab61072f366004614583565b805160208183018101805160ae8252928201919093012091525481565b6103ab61075a366004614583565b805160208183018101805160a68252928201919093012091525481565b61035a6107853660046143f8565b60aa602090815260009283526040909220815180830184018051928152908401929093019190912091525460ff1681565b6103cc6107c4366004614539565b612521565b61035a6107d73660046143f8565b60a9602090815260009283526040909220815180830184018051928152908401929093019190912091525460ff1681565b6103cc610816366004614583565b612593565b6103ab6108293660046141c9565b60a26020526000908152604090205481565b6103cc6108493660046143f8565b6125bd565b6103e161085c3660046143f8565b6126a6565b6103ab61086f366004614443565b6127de565b6104ff610882366004614583565b8051602081830181018051609f825292820191909301209152546001600160a01b031681565b6103cc6108b636600461460f565b612860565b6103cc6108c9366004614583565b612980565b6103ab6108dc366004614215565b612b51565b6103ab6108ef3660046143f8565b612c5b565b6103ab600080516020614bc083398151915281565b60006001600160e01b03198216637965db0b60e01b148061093a57506301ffc9a760e01b6001600160e01b03198316145b92915050565b600061094b81612cec565b6001600160a01b0382163b6109b15760405162461bcd60e51b815260206004820152602160248201527f5f6c69717569645374616b696e672073686f756c6420626520636f6e747261636044820152601d60fa1b60648201526084015b60405180910390fd5b60a3546001600160a01b0316156109e75760a3546109e790600080516020614ba0833981519152906001600160a01b0316612cf6565b60a380546001600160a01b0319166001600160a01b038416179055610a1a600080516020614ba083398151915283612d5d565b6040516001600160a01b038316907f4f6086c275538d2fd74aa19655d0ab09feb6db4ce6f1d85737dd6f52c6943d8890600090a25050565b60606001600160a01b038216610a7a5760405162461bcd60e51b81526004016109a8906149bb565b6001600160a01b038216600090815260976020908152604080832060010180548251818502810185019093528083529193909284015b82821015610b5c578382906000526020600020018054610acf90614b1d565b80601f0160208091040260200160405190810160405280929190818152602001828054610afb90614b1d565b8015610b485780601f10610b1d57610100808354040283529160200191610b48565b820191906000526020600020905b815481529060010190602001808311610b2b57829003601f168201915b505050505081526020019060010190610ab0565b505050509050919050565b6000610b7281612cec565b6098548310610bc35760405162461bcd60e51b815260206004820152601f60248201527f4e6f7420666f756e64207574696c69747920776974682073756368206964210060448201526064016109a8565b8160988481548110610be557634e487b7160e01b600052603260045260246000fd5b906000526020600020906002020160010160006101000a81548160ff02191690831515021790555060988381548110610c2e57634e487b7160e01b600052603260045260246000fd5b9060005260206000209060020201600001604051610c4c91906146de565b604051908190038120908315159085907f3e98b239522c5b1b88d84e2dbe421536df31b14bf8d08a9c48ecf734bb4f97fa90600090a4505050565b6000610c9281612cec565b6001600160a01b038216610cb85760405162461bcd60e51b81526004016109a89061494c565b610cc18361228b565b610cca82610e17565b505050565b600080516020614bc0833981519152610ce781612cec565b81610cf181612de3565b856001600160a01b0316876001600160a01b03161415610d1057610e0e565b6001600160a01b03861615610d8f5760a35460405163e932b37b60e01b81526001600160a01b039091169063e932b37b90610d5190899088906004016147ee565b600060405180830381600087803b158015610d6b57600080fd5b505af1158015610d7f573d6000803e3d6000fd5b50505050610d8f86868686612f08565b6001600160a01b03871615610daa57610daa878686866130ab565b82604051610db891906146c2565b6040518091039020866001600160a01b0316886001600160a01b03167f5958983c36c78f71aaec2c8d1eb5f392fd57316d842a6aa664705e3e198b72538888604051610e05929190614a1c565b60405180910390a45b50505050505050565b6000610e2281612cec565b6001600160a01b038216610e485760405162461bcd60e51b81526004016109a89061494c565b610e60600080516020614ba083398151915283612030565b15610ea05760405162461bcd60e51b815260206004820152601060248201526f20b6363932b0b23c9036b0b730b3b2b960811b60448201526064016109a8565b60a180546001600160a01b038416600081815260a260205260408120839055600183018455929092527faadc37b8ba5645e62f4546802db221593a94729ccbfc5a97d01365a88f6498780180546001600160a01b0319169091179055610f14600080516020614ba083398151915283612d5d565b5050565b60998181548110610f2857600080fd5b906000526020600020016000915090508054610f4390614b1d565b80601f0160208091040260200160405190810160405280929190818152602001828054610f6f90614b1d565b8015610fbc5780601f10610f9157610100808354040283529160200191610fbc565b820191906000526020600020905b815481529060010190602001808311610f9f57829003601f168201915b505050505081565b600082815260656020526040902060010154610fdf81612cec565b610cca8383612d5d565b6001600160a01b03811633146110595760405162461bcd60e51b815260206004820152602f60248201527f416363657373436f6e74726f6c3a2063616e206f6e6c792072656e6f756e636560448201526e103937b632b9903337b91039b2b63360891b60648201526084016109a8565b816110b15760405162461bcd60e51b815260206004820152602260248201527f4e6f7420616c6c6f77656420746f2072656e6f756e63652061646d696e20726f6044820152616c6560f01b60648201526084016109a8565b610f148282612cf6565b6060806001600160a01b0384166110e45760405162461bcd60e51b81526004016109a8906149bb565b60006110f085856126a6565b80519091508061113b5760405162461bcd60e51b815260206004820152601660248201527548617665206e6f2075736564207574696c697469657360501b60448201526064016109a8565b6001600160a01b03861660009081526097602052604080822090516111619088906146c2565b908152602001604051809103902090506000826001600160401b0381111561119957634e487b7160e01b600052604160045260246000fd5b6040519080825280602002602001820160405280156111c2578160200160208202803683370190505b50905060005b8381101561125557826000018582815181106111f457634e487b7160e01b600052603260045260246000fd5b602002602001015160405161120991906146c2565b90815260200160405180910390205482828151811061123857634e487b7160e01b600052603260045260246000fd5b60209081029190910101528061124d81614b58565b9150506111c8565b50929792965091945050505050565b8061126e81612de3565b6000841161128e5760405162461bcd60e51b81526004016109a890614979565b6001600160a01b0385166112b45760405162461bcd60e51b81526004016109a89061494c565b60a3546001600160a01b031633146113075760405162461bcd60e51b81526020600482015260166024820152754f6e6c7920666f72204c69717569645374616b696e6760501b60448201526064016109a8565b6098609a8460405161131991906146c2565b9081526020016040518091039020548154811061134657634e487b7160e01b600052603260045260246000fd5b60009182526020909120600160029092020181015460ff1615151461137d5760405162461bcd60e51b81526004016109a8906149f2565b8360ae8360405161138e91906146c2565b908152602001604051809103902060008282546113ab9190614a88565b925050819055508360a6846040516113c391906146c2565b908152602001604051809103902060008282546113e09190614a88565b9091555050609e54604051636cb1375560e11b81526001600160a01b039091169063d9626eaa9061141990889088908890600401614812565b600060405180830381600087803b15801561143357600080fd5b505af1158015611447573d6000803e3d6000fd5b505050508160405161145991906146c2565b604051809103902084866001600160a01b03167f09c1a35094e1c798a40c90ae052b1c28a5a4def47716650d2d469cfe71c5d5298660405161149b91906148eb565b60405180910390a45050505050565b60a181815481106114ba57600080fd5b6000918252602090912001546001600160a01b0316905081565b60606099805480602002602001604051908101604052809291908181526020016000905b828210156115a457838290600052602060002001805461151790614b1d565b80601f016020809104026020016040519081016040528092919081815260200182805461154390614b1d565b80156115905780601f1061156557610100808354040283529160200191611590565b820191906000526020600020905b81548152906001019060200180831161157357829003601f168201915b5050505050815260200190600101906114f8565b50505050905090565b60ad546001600160a01b031633146116075760405162461bcd60e51b815260206004820152601f60248201527f43616c6c6572206973206e6f7420746865206772616e746564206f776e65720060448201526064016109a8565b60a05461161f906000906001600160a01b0316612cf6565b60ad54611637906000906001600160a01b0316612d5d565b60ad805460a080546001600160a01b0383166001600160a01b03199182168117909255909116909155604051600091907f8be0079c531659141344cd1fd0a4f28419497f9722a3daafe3b4186f6b6457e0908390a3565b609c8181548110610f2857600080fd5b6060609c805480602002602001604051908101604052809291908181526020016000905b828210156115a45783829060005260206000200180546116e190614b1d565b80601f016020809104026020016040519081016040528092919081815260200182805461170d90614b1d565b801561175a5780601f1061172f5761010080835404028352916020019161175a565b820191906000526020600020905b81548152906001019060200180831161173d57829003601f168201915b5050505050815260200190600101906116c2565b609b818154811061177e57600080fd5b90600052602060002090600202016000915090508060000180546117a190614b1d565b80601f01602080910402602001604051908101604052809291908181526020018280546117cd90614b1d565b801561181a5780601f106117ef5761010080835404028352916020019161181a565b820191906000526020600020905b8154815290600101906020018083116117fd57829003601f168201915b5050506001909301549192505060ff1682565b600061183881612cec565b6001600160a01b0382163b61189b5760405162461bcd60e51b815260206004820152602360248201527f5f616464726573732073686f756c6420626520636f6e7472616374206164647260448201526265737360e81b60648201526084016109a8565b81609f846040516118ac91906146c2565b90815260405190819003602001812080546001600160a01b039384166001600160a01b0319909116179055908316906118e69085906146c2565b604051908190038120907ff6afeaf5eaacf33fde112acf99a42fc89ffb0abb963e67e9cc07154b58e644d890600090a3505050565b606060a180548060200260200160405190810160405280929190818152602001828054801561197357602002820191906000526020600020905b81546001600160a01b03168152600190910190602001808311611955575b5050505050905090565b6098818154811061177e57600080fd5b606080600080516020614bc08339815191526119a881612cec565b6001600160a01b03871660009081526097602052604080822090516119ce9087906146c2565b9081526020016040518091039020600101805480602002602001604051908101604052809291908181526020016000905b82821015611aab578382906000526020600020018054611a1e90614b1d565b80601f0160208091040260200160405190810160405280929190818152602001828054611a4a90614b1d565b8015611a975780601f10611a6c57610100808354040283529160200191611a97565b820191906000526020600020905b815481529060010190602001808311611a7a57829003601f168201915b5050505050815260200190600101906119ff565b5050505090506000815190506000816001600160401b03811115611adf57634e487b7160e01b600052604160045260246000fd5b604051908082528060200260200182016040528015611b08578160200160208202803683370190505b50905060005b82811015611c43576001600160a01b038b166000908152609760205260408082209051611b3c908b906146c2565b9081526020016040518091039020600001858381518110611b6d57634e487b7160e01b600052603260045260246000fd5b6020026020010151604051611b8291906146c2565b9081526040519081900360200190205490508015611c30576000818b11611ba9578a611bab565b815b9050611be18d8d83898781518110611bd357634e487b7160e01b600052603260045260246000fd5b60200260200101518e610ccf565b611beb818c614abf565b9a5080848481518110611c0e57634e487b7160e01b600052603260045260246000fd5b60209081029190910101528a611c2e5750939650909450611c7d92505050565b505b5080611c3b81614b58565b915050611b0e565b5060405162461bcd60e51b815260206004820152600e60248201526d139bdd08195b9bdd59da0811139560921b60448201526064016109a8565b5094509492505050565b600054610100900460ff1615808015611ca75750600054600160ff909116105b80611cc15750303b158015611cc1575060005460ff166001145b611d245760405162461bcd60e51b815260206004820152602e60248201527f496e697469616c697a61626c653a20636f6e747261637420697320616c72656160448201526d191e481a5b9a5d1a585b1a5e995960921b60648201526084016109a8565b6000805460ff191660011790558015611d47576000805461ff0019166101001790555b611d52600033612d5d565b611d6a600080516020614ba083398151915233612d5d565b60a080546001600160a01b0319163317905560408051608081018252600591810191825264656d70747960d81b6060820152908152600060208083018290526098805460018101825592528251805160029093027f2237a976fa961f5921fd19f2b03c925c725d77b20ce8f790c19709c03de4d8140192611dee9284920190613f68565b506020918201516001918201805491151560ff1990921691909117905560408051608081018252600591810191825264656d70747960d81b60608201529081526000818401819052609b80549384018155905280518051919360029093027fbba9db4cdbea0a37c207bbb83e20f828cd4441c49891101dc94fd20dc8efc3490192611e7e92849290910190613f68565b506020918201516001918201805491151560ff19909216919091179055604080516080810182526004918101918252631b9d5b1b60e21b606082015290815280830182905260988054928301815560005280518051919360029093027f2237a976fa961f5921fd19f2b03c925c725d77b20ce8f790c19709c03de4d8140192611f0c92849290910190613f68565b506020918201516001918201805460ff191691151591909117905560408051631b9d5b1b60e21b808252609a60048084019190915283519283900360240183208590556099805495860181556000528284019093528282529301928352611f98927f72a152ddfb8e864297c917af52ea6c1c68aead0fee1a62673fcc7e0c94979d009092019190613f68565b508015611fdf576000805461ff0019169055604051600181527f7f26b83ff96e1f2b6a682f133852f6798a09c465da95921460cefb38474024989060200160405180910390a15b50565b600080516020614ba0833981519152611ffa81612cec565b600060a58360405161200c91906146c2565b908152604051908190036020019020805491151560ff199092169190911790555050565b60009182526065602090815260408084206001600160a01b0393909316845291905290205460ff1690565b600080516020614bc083398151915261207381612cec565b8161207d81612de3565b6000851161209d5760405162461bcd60e51b81526004016109a890614979565b6098609a856040516120af91906146c2565b908152602001604051809103902054815481106120dc57634e487b7160e01b600052603260045260246000fd5b60009182526020909120600160029092020181015460ff161515146121135760405162461bcd60e51b81526004016109a8906149f2565b6001600160a01b03861660009081526097602052604090819020905186919061213d9086906146c2565b908152604051908190036020018120906121589087906146c2565b90815260200160405180910390205410156121b55760405162461bcd60e51b815260206004820152601a60248201527f4e6f7420656e6f75676820444e5420696e207574696c6974792100000000000060448201526064016109a8565b8460ae846040516121c691906146c2565b908152602001604051809103902060008282546121e39190614abf565b925050819055508460a6856040516121fb91906146c2565b908152602001604051809103902060008282546122189190614abf565b9091555050609e54604051635c32e01960e01b81526001600160a01b0390911690635c32e0199061225190899089908990600401614812565b600060405180830381600087803b15801561226b57600080fd5b505af115801561227f573d6000803e3d6000fd5b50505050505050505050565b600061229681612cec565b6122ae600080516020614ba083398151915283612030565b6122fa5760405162461bcd60e51b815260206004820152601860248201527f41646472657373206973206e6f742061206d616e61676572000000000000000060448201526064016109a8565b6001600160a01b038216600090815260a2602052604090205460a1805461232390600190614abf565b8154811061234157634e487b7160e01b600052603260045260246000fd5b60009182526020909120015460a180546001600160a01b03909216918390811061237b57634e487b7160e01b600052603260045260246000fd5b9060005260206000200160006101000a8154816001600160a01b0302191690836001600160a01b0316021790555060a18054806123c857634e487b7160e01b600052603160045260246000fd5b600082815260209020810160001990810180546001600160a01b0319169055019055612402600080516020614ba083398151915284612cf6565b6001600160a01b038316600090815260a260208190526040822082905560a18054849391908490811061244557634e487b7160e01b600052603260045260246000fd5b60009182526020808320909101546001600160a01b03168352820192909252604001902055505050565b600061247a81612cec565b6001600160a01b0382166124a05760405162461bcd60e51b81526004016109a89061494c565b60a0546001600160a01b03838116911614156124fe5760405162461bcd60e51b815260206004820152601c60248201527f547279696e6720746f20736574207468652073616d65206f776e65720000000060448201526064016109a8565b5060ad80546001600160a01b0319166001600160a01b0392909216919091179055565b60008281526065602052604090206001015461253c81612cec565b826125895760405162461bcd60e51b815260206004820181905260248201527f4e6f7420616c6c6f77656420746f207265766f6b652061646d696e20726f6c6560448201526064016109a8565b610cca8383612cf6565b600080516020614ba08339815191526125ab81612cec565b600160a58360405161200c91906146c2565b60006125c881612cec565b816125d281612de3565b6001600160a01b0384166125f85760405162461bcd60e51b81526004016109a89061494c565b609e5460405163f2fde38b60e01b81526001600160a01b0386811660048301529091169063f2fde38b90602401600060405180830381600087803b15801561263f57600080fd5b505af1158015612653573d6000803e3d6000fd5b505050508260405161266591906146c2565b604051908190038120906001600160a01b038616907fc84b30414bed6758eab986173ff6506803af8f0774d3e2cd880d492c66f6f23190600090a350505050565b60606001600160a01b0383166126ce5760405162461bcd60e51b81526004016109a8906149bb565b6001600160a01b0383166000908152609760205260409081902090516126f59084906146c2565b9081526020016040518091039020600101805480602002602001604051908101604052809291908181526020016000905b828210156127d257838290600052602060002001805461274590614b1d565b80601f016020809104026020016040519081016040528092919081815260200182805461277190614b1d565b80156127be5780601f10612793576101008083540402835291602001916127be565b820191906000526020600020905b8154815290600101906020018083116127a157829003601f168201915b505050505081526020019060010190612726565b50505050905092915050565b60006001600160a01b0384166128065760405162461bcd60e51b81526004016109a8906149bb565b6001600160a01b03841660009081526097602052604090819020905161282d9084906146c2565b908152604051908190036020018120906128489085906146c2565b90815260200160405180910390205490509392505050565b600061286b81612cec565b609b5483106128bc5760405162461bcd60e51b815260206004820152601a60248201527f4e6f7420666f756e6420646e742077697468207375636820696400000000000060448201526064016109a8565b81609b84815481106128de57634e487b7160e01b600052603260045260246000fd5b906000526020600020906002020160010160006101000a81548160ff021916908315150217905550609b838154811061292757634e487b7160e01b600052603260045260246000fd5b906000526020600020906002020160000160405161294591906146de565b604051908190038120908315159085907fb28d6a852d853cb25168186027fd5d9476f99f90b0ce3de2dac9f6d5684f8fa890600090a4505050565b600080516020614ba083398151915261299881612cec565b60a7826040516129a891906146c2565b9081526040519081900360200190205460ff1615612a005760405162461bcd60e51b8152602060048201526015602482015274155d1a5b1a5d1e48185b1c9958591e481859191959605a1b60448201526064016109a8565b6098546040518190609a90612a169086906146c2565b908152604080519182900360209081018320939093558181019052848152600181830181905260988054918201815560005281518051929360029092027f2237a976fa961f5921fd19f2b03c925c725d77b20ce8f790c19709c03de4d8140192612a839284920190613f68565b506020918201516001918201805460ff19169115159190911790556099805491820181556000528451612add927f72a152ddfb8e864297c917af52ea6c1c68aead0fee1a62673fcc7e0c94979d0090920191860190613f68565b50600160a784604051612af091906146c2565b908152604051908190036020018120805492151560ff1990931692909217909155612b1c9084906146c2565b604051908190038120907f3d2eb6444129447b53179a3087d701bd088fe8f49f125c4d6b19a8d4d42311a190600090a2505050565b6000600080516020614bc0833981519152612b6b81612cec565b8351600090815b81811015612c4d576000888281518110612b9c57634e487b7160e01b600052603260045260246000fd5b60200260200101511115612c3b57612c058a8a8a8481518110612bcf57634e487b7160e01b600052603260045260246000fd5b60200260200101518a8581518110612bf757634e487b7160e01b600052603260045260246000fd5b60200260200101518a610ccf565b878181518110612c2557634e487b7160e01b600052603260045260246000fd5b602002602001015183612c389190614a88565b92505b80612c4581614b58565b915050612b72565b509098975050505050505050565b600081612c6781612de3565b609e546040516370a0823160e01b81526001600160a01b038681166004830152909116906370a082319060240160206040518083038186803b158015612cac57600080fd5b505afa158015612cc0573d6000803e3d6000fd5b505050506040513d601f19601f82011682018060405250810190612ce491906145f7565b949350505050565b611fdf8133613323565b612d008282612030565b15610f145760008281526065602090815260408083206001600160a01b0385168085529252808320805460ff1916905551339285917ff6391f5c32d9c69d2a47ea670b442974b53935d1edc7fd64eb21e047a839171b9190a45050565b612d678282612030565b610f145760008281526065602090815260408083206001600160a01b03851684529091529020805460ff19166001179055612d9f3390565b6001600160a01b0316816001600160a01b0316837f2f8788117e7eff1d82e926ec794901d17c78024a50270940304540a733656f0d60405160405180910390a45050565b6000609f82604051612df591906146c2565b908152604051908190036020019020546001600160a01b0316905080612e505760405162461bcd60e51b815260206004820152601060248201526f496e76616c696420616464726573732160801b60448201526064016109a8565b609b609d83604051612e6291906146c2565b90815260200160405180910390205481548110612e8f57634e487b7160e01b600052603260045260246000fd5b60009182526020909120600160029092020181015460ff16151514612ee55760405162461bcd60e51b815260206004820152600c60248201526b496e76616c696420446e742160a01b60448201526064016109a8565b609e80546001600160a01b0319166001600160a01b039290921691909117905550565b80612f1281612de3565b60008411612f325760405162461bcd60e51b81526004016109a890614979565b6001600160a01b038516612f585760405162461bcd60e51b81526004016109a89061494c565b6098609a84604051612f6a91906146c2565b90815260200160405180910390205481548110612f9757634e487b7160e01b600052603260045260246000fd5b60009182526020909120600160029092020181015460ff16151514612fce5760405162461bcd60e51b81526004016109a8906149f2565b612fd9858385613387565b6001600160a01b0385166000908152609760205260409081902090518591906130039085906146c2565b9081526040519081900360200181209061301e9086906146c2565b9081526020016040518091039020600082825461303b9190614a88565b909155505060a35460405163386df6eb60e01b81526001600160a01b039091169063386df6eb9061307290869089906004016148fe565b600060405180830381600087803b15801561308c57600080fd5b505af11580156130a0573d6000803e3d6000fd5b505050505050505050565b806130b581612de3565b600084116130d55760405162461bcd60e51b81526004016109a890614979565b6098609a846040516130e791906146c2565b9081526020016040518091039020548154811061311457634e487b7160e01b600052603260045260246000fd5b60009182526020909120600160029092020181015460ff1615151461314b5760405162461bcd60e51b81526004016109a8906149f2565b6001600160a01b0385166000908152609760205260409081902090518591906131759085906146c2565b908152604051908190036020018120906131909086906146c2565b90815260200160405180910390205410156131ed5760405162461bcd60e51b815260206004820152601a60248201527f4e6f7420656e6f75676820444e5420696e207574696c6974792100000000000060448201526064016109a8565b6001600160a01b0385166000908152609760205260409081902090518591906132179085906146c2565b908152604051908190036020018120906132329086906146c2565b9081526020016040518091039020600082825461324f9190614abf565b909155505060a35460405163386df6eb60e01b81526001600160a01b039091169063386df6eb9061328690869089906004016148fe565b600060405180830381600087803b1580156132a057600080fd5b505af11580156132b4573d6000803e3d6000fd5b505050506001600160a01b0385166000908152609760205260409081902090516132df9084906146c2565b908152604051908190036020018120906132fa9085906146c2565b9081526020016040518091039020546000141561331c5761331c858385613435565b5050505050565b61332d8282612030565b610f1457613345816001600160a01b03166014613528565b613350836020613528565b604051602001613361929190614779565b60408051601f198184030181529082905262461bcd60e51b82526109a8916004016148eb565b6001600160a01b038316600090815260a960205260409081902090516133ae9084906146c2565b9081526040519081900360200190205460ff166133ec576001600160a01b03831660009081526097602052604090206133ec90839060010185613710565b6001600160a01b038316600090815260aa60205260409081902090516134139083906146c2565b9081526040519081900360200190205460ff16610cca57610cca818385613878565b6001600160a01b038316600090815260aa602052604090819020905161345c9083906146c2565b9081526040519081900360200190205460ff161561347f5761347f818385613a38565b6001600160a01b038316600090815260a960205260409081902090516134a69084906146c2565b9081526040519081900360200190205460ff1680156134fc57506001600160a01b0383166000908152609760205260409081902090516134e79084906146c2565b90815260405190819003602001902060010154155b15610cca576001600160a01b0383166000908152609760205260409020610cca90839060010185613d99565b60606000613537836002614aa0565b613542906002614a88565b6001600160401b0381111561356757634e487b7160e01b600052604160045260246000fd5b6040519080825280601f01601f191660200182016040528015613591576020820181803683370190505b509050600360fc1b816000815181106135ba57634e487b7160e01b600052603260045260246000fd5b60200101906001600160f81b031916908160001a905350600f60fb1b816001815181106135f757634e487b7160e01b600052603260045260246000fd5b60200101906001600160f81b031916908160001a905350600061361b846002614aa0565b613626906001614a88565b90505b60018111156136ba576f181899199a1a9b1b9c1cb0b131b232b360811b85600f166010811061366857634e487b7160e01b600052603260045260246000fd5b1a60f81b82828151811061368c57634e487b7160e01b600052603260045260246000fd5b60200101906001600160f81b031916908160001a90535060049490941c936136b381614b06565b9050613629565b5083156137095760405162461bcd60e51b815260206004820181905260248201527f537472696e67733a20686578206c656e67746820696e73756666696369656e7460448201526064016109a8565b9392505050565b600080516020614ba083398151915261372881612cec565b609b609d8560405161373a91906146c2565b9081526020016040518091039020548154811061376757634e487b7160e01b600052603260045260246000fd5b60009182526020909120600160029092020181015460ff161515146137bd5760405162461bcd60e51b815260206004820152600c60248201526b496e76616c696420444e542160a01b60448201526064016109a8565b6001600160a01b038216600090815260a96020526040908190209051600191906137e89087906146c2565b90815260405160209181900382019020805460ff19169215159290921790915583546001810185556000858152829020865161382c93919092019190870190613f68565b50825461383b90600190614abf565b6001600160a01b038316600090815260ac60205260409081902090516138629087906146c2565b9081526040519081900360200190205550505050565b600080516020614ba083398151915261389081612cec565b6000609a856040516138a291906146c2565b9081526020016040518091039020549050609881815481106138d457634e487b7160e01b600052603260045260246000fd5b60009182526020909120600160029092020181015460ff1615151461390b5760405162461bcd60e51b81526004016109a8906149f2565b6001600160a01b038316600090815260aa6020526040908190209051600191906139369088906146c2565b9081526040805160209281900383018120805460ff1916941515949094179093556001600160a01b038616600090815260979092529020906139799086906146c2565b90815260405160209181900382019020600190810180549182018155600090815282902087516139b193919092019190880190613f68565b506001600160a01b038316600090815260976020526040908190209051600191906139dd9087906146c2565b908152604051908190036020019020600101546139fa9190614abf565b6001600160a01b038416600090815260ab6020526040908190209051613a219088906146c2565b908152604051908190036020019020555050505050565b600080516020614ba0833981519152613a5081612cec565b6001600160a01b0382166000908152609760205260408082209051613a769086906146c2565b90815260200160405180910390206001019050600060018280549050613a9c9190614abf565b6001600160a01b038516600090815260af602052604090205490915060ff16613bfe5760005b8254811015613bd9576000838281548110613aed57634e487b7160e01b600052603260045260246000fd5b906000526020600020018054613b0290614b1d565b80601f0160208091040260200160405190810160405280929190818152602001828054613b2e90614b1d565b8015613b7b5780601f10613b5057610100808354040283529160200191613b7b565b820191906000526020600020905b815481529060010190602001808311613b5e57829003601f168201915b505050505090508160ab6000886001600160a01b03166001600160a01b0316815260200190815260200160002082604051613bb691906146c2565b908152604051908190036020019020555080613bd181614b58565b915050613ac2565b506001600160a01b038416600090815260af60205260409020805460ff191660011790555b6001600160a01b038416600090815260aa60205260408082209051613c249089906146c2565b9081526040805160209281900383018120805460ff1916941515949094179093556001600160a01b038716600090815260ab90925281209091613c689089906146c2565b90815260200160405180910390205490508060ab6000876001600160a01b03166001600160a01b03168152602001908152602001600020848481548110613cbf57634e487b7160e01b600052603260045260246000fd5b90600052602060002001604051613cd691906146de565b908152602001604051809103902081905550828281548110613d0857634e487b7160e01b600052603260045260246000fd5b90600052602060002001838281548110613d3257634e487b7160e01b600052603260045260246000fd5b90600052602060002001908054613d4890614b1d565b613d53929190613fec565b5082805480613d7257634e487b7160e01b600052603160045260246000fd5b600190038181906000526020600020016000613d8e9190614067565b905550505050505050565b600080516020614ba0833981519152613db181612cec565b8254600090613dc290600190614abf565b6001600160a01b038416600090815260ac602052604080822090519293509091613ded9088906146c2565b9081526040805160209281900383018120546001600160a01b038816600090815260a9909452918320919350613e249089906146c2565b908152602001604051809103902060006101000a81548160ff0219169083151502179055508060ac6000866001600160a01b03166001600160a01b03168152602001908152602001600020868481548110613e8f57634e487b7160e01b600052603260045260246000fd5b90600052602060002001604051613ea691906146de565b908152602001604051809103902081905550848281548110613ed857634e487b7160e01b600052603260045260246000fd5b90600052602060002001858281548110613f0257634e487b7160e01b600052603260045260246000fd5b90600052602060002001908054613f1890614b1d565b613f23929190613fec565b5084805480613f4257634e487b7160e01b600052603160045260246000fd5b600190038181906000526020600020016000613f5e9190614067565b9055505050505050565b828054613f7490614b1d565b90600052602060002090601f016020900481019282613f965760008555613fdc565b82601f10613faf57805160ff1916838001178555613fdc565b82800160010185558215613fdc579182015b82811115613fdc578251825591602001919060010190613fc1565b50613fe892915061409d565b5090565b828054613ff890614b1d565b90600052602060002090601f01602090048101928261401a5760008555613fdc565b82601f1061402b5780548555613fdc565b82800160010185558215613fdc57600052602060002091601f016020900482015b82811115613fdc57825482559160010191906001019061404c565b50805461407390614b1d565b6000825580601f10614083575050565b601f016020900490600052602060002090810190611fdf91905b5b80821115613fe8576000815560010161409e565b80356001600160a01b03811681146140c957600080fd5b919050565b600082601f8301126140de578081fd5b813560206140f36140ee83614a65565b614a35565b80838252828201915082860187848660051b8901011115614112578586fd5b855b858110156141525781356001600160401b03811115614131578788fd5b61413f8a87838c010161415f565b8552509284019290840190600101614114565b5090979650505050505050565b600082601f83011261416f578081fd5b81356001600160401b0381111561418857614188614b89565b61419b601f8201601f1916602001614a35565b8181528460208386010111156141af578283fd5b816020850160208301379081016020019190915292915050565b6000602082840312156141da578081fd5b613709826140b2565b600080604083850312156141f5578081fd5b6141fe836140b2565b915061420c602084016140b2565b90509250929050565b600080600080600060a0868803121561422c578081fd5b614235866140b2565b945060206142448188016140b2565b945060408701356001600160401b038082111561425f578384fd5b818901915089601f830112614272578384fd5b81356142806140ee82614a65565b8082825285820191508585018d878560051b880101111561429f578788fd5b8795505b838610156142c15780358352600195909501949186019186016142a3565b509750505060608901359250808311156142d9578384fd5b6142e58a848b016140ce565b945060808901359250808311156142fa578384fd5b50506143088882890161415f565b9150509295509295909350565b6000806000806080858703121561432a578384fd5b614333856140b2565b9350614341602086016140b2565b92506040850135915060608501356001600160401b03811115614362578182fd5b61436e8782880161415f565b91505092959194509250565b600080600080600060a08688031215614391578081fd5b61439a866140b2565b94506143a8602087016140b2565b93506040860135925060608601356001600160401b03808211156143ca578283fd5b6143d689838a0161415f565b935060808801359150808211156143eb578283fd5b506143088882890161415f565b6000806040838503121561440a578182fd5b614413836140b2565b915060208301356001600160401b0381111561442d578182fd5b6144398582860161415f565b9150509250929050565b600080600060608486031215614457578283fd5b614460846140b2565b925060208401356001600160401b038082111561447b578384fd5b6144878783880161415f565b9350604086013591508082111561449c578283fd5b506144a98682870161415f565b9150509250925092565b600080600080608085870312156144c8578384fd5b6144d1856140b2565b93506020850135925060408501356001600160401b03808211156144f3578384fd5b6144ff8883890161415f565b93506060870135915080821115614514578283fd5b5061436e8782880161415f565b600060208284031215614532578081fd5b5035919050565b6000806040838503121561454b578182fd5b8235915061420c602084016140b2565b60006020828403121561456c578081fd5b81356001600160e01b031981168114613709578182fd5b600060208284031215614594578081fd5b81356001600160401b038111156145a9578182fd5b612ce48482850161415f565b600080604083850312156145c7578182fd5b82356001600160401b038111156145dc578283fd5b6145e88582860161415f565b92505061420c602084016140b2565b600060208284031215614608578081fd5b5051919050565b60008060408385031215614621578182fd5b8235915060208301358015158114614637578182fd5b809150509250929050565b600081518084526020808501808196508360051b81019150828601855b85811015614689578284038952614677848351614696565b9885019893509084019060010161465f565b5091979650505050505050565b600081518084526146ae816020860160208601614ad6565b601f01601f19169290920160200192915050565b600082516146d4818460208701614ad6565b9190910192915050565b600080835482600182811c9150808316806146fa57607f831692505b602080841082141561471a57634e487b7160e01b87526022600452602487fd5b81801561472e576001811461473f5761476b565b60ff1986168952848901965061476b565b60008a815260209020885b868110156147635781548b82015290850190830161474a565b505084890196505b509498975050505050505050565b7f416363657373436f6e74726f6c3a206163636f756e74200000000000000000008152600083516147b1816017850160208801614ad6565b7001034b99036b4b9b9b4b733903937b6329607d1b60179184019182015283516147e2816028840160208801614ad6565b01602801949350505050565b6001600160a01b0383168152604060208201819052600090612ce490830184614696565b60018060a01b03841681528260208201526060604082015260006148396060830184614696565b95945050505050565b6020808252825182820181905260009190848201906040850190845b818110156148835783516001600160a01b03168352928401929184019160010161485e565b50909695505050505050565b6020815260006137096020830184614642565b6040815260006148b56040830185614642565b828103602084810191909152845180835285820192820190845b81811015614152578451835293830193918301916001016148cf565b6020815260006137096020830184614696565b6040815260006149116040830185614696565b905060018060a01b03831660208301529392505050565b60408152600061493b6040830185614696565b905082151560208301529392505050565b6020808252601390820152725a65726f206164647265737320616c61726d2160681b604082015260600190565b60208082526022908201527f416d6f756e742073686f756c642062652067726561746572207468616e207a65604082015261726f60f01b606082015260800190565b60208082526019908201527f53686f756c646e2774206265207a65726f206164647265737300000000000000604082015260600190565b60208082526010908201526f496e76616c6964207574696c6974792160801b604082015260600190565b828152604060208201526000612ce46040830184614696565b604051601f8201601f191681016001600160401b0381118282101715614a5d57614a5d614b89565b604052919050565b60006001600160401b03821115614a7e57614a7e614b89565b5060051b60200190565b60008219821115614a9b57614a9b614b73565b500190565b6000816000190483118215151615614aba57614aba614b73565b500290565b600082821015614ad157614ad1614b73565b500390565b60005b83811015614af1578181015183820152602001614ad9565b83811115614b00576000848401525b50505050565b600081614b1557614b15614b73565b506000190190565b600181811c90821680614b3157607f821691505b60208210811415614b5257634e487b7160e01b600052602260045260246000fd5b50919050565b6000600019821415614b6c57614b6c614b73565b5060010190565b634e487b7160e01b600052601160045260246000fd5b634e487b7160e01b600052604160045260246000fdfeaf290d8680820aad922855f39b306097b20e28774d6c1ad35a20325630c3a02c0b86e3ab1ef8d51f0f6a0aa1032bd952fc0ac04bcdc6bfdb0715bf83bf26d29aa26469706673582212202c2966ee1364d20c6aebd1133ad36ab7b49d1501203c71121c0289e13f260cad64736f6c63430008040033",
    "linkReferences": {}
  },
  "methodIdentifiers": {
    "DEFAULT_ADMIN_ROLE()": "a217fddf",
    "MANAGER()": "1b2df850",
    "MANAGER_CONTRACT()": "fd569080",
    "addManager(address)": "2d06177a",
    "addUtility(string)": "efd2d18e",
    "addUtilityToDisallowList(string)": "dd019180",
    "changeDntAddress(string,address)": "5ebe2f8a",
    "changeManagerAddress(address,address)": "29501ad6",
    "claimOwnership()": "4e71e0c8",
    "disallowList(string)": "a41c673a",
    "dntContracts(string)": "ecca7d17",
    "dntDB(uint256)": "55e86c6a",
    "dntId(string)": "54d80307",
    "dnts(uint256)": "545bdb6e",
    "getRoleAdmin(bytes32)": "248a9ca3",
    "getUserDntBalance(address,string)": "f7e085cd",
    "getUserDntBalanceInUtil(address,string,string)": "e1d9b417",
    "grantOwnership(address)": "acfd82f2",
    "grantRole(bytes32,address)": "2f2ff15d",
    "hasRole(bytes32,address)": "91d14854",
    "initialize()": "8129fc1c",
    "isUtility(string)": "9ccd0adb",
    "issueDnt(address,uint256,string,string)": "398a1329",
    "listDnts()": "54768824",
    "listManagers()": "5fbf052a",
    "listUserDntInUtils(address,string)": "368e8150",
    "listUserDnts(address)": "12d22c54",
    "listUserUtilitiesInDnt(address,string)": "e0a3b21f",
    "listUtilities()": "40bc44a4",
    "managerIds(address)": "dddecb2c",
    "managers(uint256)": "3d39c260",
    "multiTransferDnts(address,address,uint256[],string[],string)": "f35d9cbb",
    "owner()": "8da5cb5b",
    "removeDnt(address,uint256,string,string)": "a4dd557c",
    "removeManager(address)": "ac18de43",
    "removeUtilityFromDisallowList(string)": "88861744",
    "renounceRole(bytes32,address)": "36568abe",
    "revokeRole(bytes32,address)": "d547741f",
    "setDntStatus(uint256,bool)": "ef01145a",
    "setLiquidStaking(address)": "08211be5",
    "setUtilityStatus(uint256,bool)": "292e1f12",
    "supportsInterface(bytes4)": "01ffc9a7",
    "totalDnt(string)": "b39fd5cf",
    "totalDntInUtil(string)": "be667e96",
    "transferDnt(address,address,uint256,string,string)": "2c615e38",
    "transferDntContractOwnership(address,string)": "df176650",
    "transferDnts(address,address,uint256,string)": "739170b2",
    "userDntsIdx(address,string)": "7b7b33a3",
    "userHasDnt(address,string)": "dc044072",
    "userHasUtility(address,string)": "c16e5b1e",
    "userUtitliesIdx(address,string)": "0740bb37",
    "utilities(uint256)": "2d4a2146",
    "utilityDB(uint256)": "71e9acfa",
    "utilityId(string)": "6d965378"
  },
  "id": 14
}