{
  "abi": [
    {
      "inputs": [],
      "stateMutability": "nonpayable",
      "type": "constructor"
    },
    {
      "anonymous": false,
      "inputs": [
        {
          "indexed": false,
          "internalType": "uint8",
          "name": "version",
          "type": "uint8"
        }
      ],
      "name": "Initialized",
      "type": "event"
    },
    {
      "anonymous": false,
      "inputs": [
        {
          "indexed": true,
          "internalType": "bytes32",
          "name": "role",
          "type": "bytes32"
        },
        {
          "indexed": true,
          "internalType": "bytes32",
          "name": "previousAdminRole",
          "type": "bytes32"
        },
        {
          "indexed": true,
          "internalType": "bytes32",
          "name": "newAdminRole",
          "type": "bytes32"
        }
      ],
      "name": "RoleAdminChanged",
      "type": "event"
    },
    {
      "anonymous": false,
      "inputs": [
        {
          "indexed": true,
          "internalType": "bytes32",
          "name": "role",
          "type": "bytes32"
        },
        {
          "indexed": true,
          "internalType": "address",
          "name": "account",
          "type": "address"
        },
        {
          "indexed": true,
          "internalType": "address",
          "name": "sender",
          "type": "address"
        }
      ],
      "name": "RoleGranted",
      "type": "event"
    },
    {
      "anonymous": false,
      "inputs": [
        {
          "indexed": true,
          "internalType": "bytes32",
          "name": "role",
          "type": "bytes32"
        },
        {
          "indexed": true,
          "internalType": "address",
          "name": "account",
          "type": "address"
        },
        {
          "indexed": true,
          "internalType": "address",
          "name": "sender",
          "type": "address"
        }
      ],
      "name": "RoleRevoked",
      "type": "event"
    },
    {
      "inputs": [],
      "name": "DEFAULT_ADMIN_ROLE",
      "outputs": [
        {
          "internalType": "bytes32",
          "name": "",
          "type": "bytes32"
        }
      ],
      "stateMutability": "view",
      "type": "function"
    },
    {
      "inputs": [],
      "name": "LIQUIDSTAKING_FEE",
      "outputs": [
        {
          "internalType": "uint8",
          "name": "",
          "type": "uint8"
        }
      ],
      "stateMutability": "view",
      "type": "function"
    },
    {
      "inputs": [],
      "name": "MANAGER",
      "outputs": [
        {
          "internalType": "bytes32",
          "name": "",
          "type": "bytes32"
        }
      ],
      "stateMutability": "view",
      "type": "function"
    },
    {
      "inputs": [],
      "name": "TOKEN_CONTRACT",
      "outputs": [
        {
          "internalType": "bytes32",
          "name": "",
          "type": "bytes32"
        }
      ],
      "stateMutability": "view",
      "type": "function"
    },
    {
      "inputs": [],
      "name": "adaptersDistributor",
      "outputs": [
        {
          "internalType": "address",
          "name": "",
          "type": "address"
        }
      ],
      "stateMutability": "view",
      "type": "function"
    },
    {
      "inputs": [
        {
          "internalType": "address",
          "name": "account",
          "type": "address"
        }
      ],
      "name": "addManager",
      "outputs": [],
      "stateMutability": "nonpayable",
      "type": "function"
    },
    {
      "inputs": [
        {
          "internalType": "address",
          "name": "_contractAddress",
          "type": "address"
        },
        {
          "internalType": "uint8",
          "name": "_rewardFee",
          "type": "uint8"
        },
        {
          "internalType": "bool",
          "name": "_isUnique",
          "type": "bool"
        }
      ],
      "name": "addUtility",
      "outputs": [],
      "stateMutability": "nonpayable",
      "type": "function"
    },
    {
      "inputs": [],
      "name": "distr",
      "outputs": [
        {
          "internalType": "contract INDistributor",
          "name": "",
          "type": "address"
        }
      ],
      "stateMutability": "view",
      "type": "function"
    },
    {
      "inputs": [
        {
          "internalType": "string",
          "name": "utility",
          "type": "string"
        },
        {
          "internalType": "uint8",
          "name": "fee",
          "type": "uint8"
        }
      ],
      "name": "getBestUtilFee",
      "outputs": [
        {
          "internalType": "uint8",
          "name": "",
          "type": "uint8"
        }
      ],
      "stateMutability": "view",
      "type": "function"
    },
    {
      "inputs": [
        {
          "internalType": "address",
          "name": "_user",
          "type": "address"
        }
      ],
      "name": "getDefaultUserFee",
      "outputs": [
        {
          "internalType": "uint8",
          "name": "",
          "type": "uint8"
        }
      ],
      "stateMutability": "view",
      "type": "function"
    },
    {
      "inputs": [
        {
          "internalType": "uint256",
          "name": "era",
          "type": "uint256"
        }
      ],
      "name": "getEra",
      "outputs": [
        {
          "internalType": "uint256[2]",
          "name": "",
          "type": "uint256[2]"
        }
      ],
      "stateMutability": "view",
      "type": "function"
    },
    {
      "inputs": [
        {
          "internalType": "uint256",
          "name": "_era",
          "type": "uint256"
        }
      ],
      "name": "getEraAmount",
      "outputs": [
        {
          "internalType": "uint256[2]",
          "name": "",
          "type": "uint256[2]"
        },
        {
          "internalType": "bool",
          "name": "",
          "type": "bool"
        },
        {
          "internalType": "uint256",
          "name": "",
          "type": "uint256"
        }
      ],
      "stateMutability": "view",
      "type": "function"
    },
    {
      "inputs": [
        {
          "internalType": "uint256",
          "name": "eraBegin",
          "type": "uint256"
        },
        {
          "internalType": "uint256",
          "name": "eraEnd",
          "type": "uint256"
        }
      ],
      "name": "getErasData",
      "outputs": [
        {
          "internalType": "uint256[2]",
          "name": "totalData",
          "type": "uint256[2]"
        }
      ],
      "stateMutability": "nonpayable",
      "type": "function"
    },
    {
      "inputs": [
        {
          "internalType": "bytes32",
          "name": "role",
          "type": "bytes32"
        }
      ],
      "name": "getRoleAdmin",
      "outputs": [
        {
          "internalType": "bytes32",
          "name": "",
          "type": "bytes32"
        }
      ],
      "stateMutability": "view",
      "type": "function"
    },
    {
      "inputs": [
        {
          "internalType": "string",
          "name": "_util",
          "type": "string"
        },
        {
          "internalType": "address",
          "name": "_user",
          "type": "address"
        },
        {
          "internalType": "uint256",
          "name": "_era",
          "type": "uint256"
        }
      ],
      "name": "getUserEraAmount",
      "outputs": [
        {
          "internalType": "uint256",
          "name": "",
          "type": "uint256"
        },
        {
          "internalType": "bool",
          "name": "",
          "type": "bool"
        }
      ],
      "stateMutability": "view",
      "type": "function"
    },
    {
      "inputs": [
        {
          "internalType": "string",
          "name": "utility",
          "type": "string"
        },
        {
          "internalType": "address",
          "name": "_user",
          "type": "address"
        },
        {
          "internalType": "uint256",
          "name": "era",
          "type": "uint256"
        }
      ],
      "name": "getUserEraBalance",
      "outputs": [
        {
          "internalType": "uint256",
          "name": "",
          "type": "uint256"
        },
        {
          "internalType": "bool",
          "name": "",
          "type": "bool"
        }
      ],
      "stateMutability": "view",
      "type": "function"
    },
    {
      "inputs": [
        {
          "internalType": "address",
          "name": "user",
          "type": "address"
        },
        {
          "internalType": "uint256",
          "name": "era",
          "type": "uint256"
        }
      ],
      "name": "getUserEraFee",
      "outputs": [
        {
          "internalType": "uint8",
          "name": "",
          "type": "uint8"
        }
      ],
      "stateMutability": "view",
      "type": "function"
    },
    {
      "inputs": [
        {
          "internalType": "string",
          "name": "utility",
          "type": "string"
        },
        {
          "internalType": "address",
          "name": "_user",
          "type": "address"
        }
      ],
      "name": "getUserFee",
      "outputs": [
        {
          "internalType": "uint8",
          "name": "",
          "type": "uint8"
        }
      ],
      "stateMutability": "view",
      "type": "function"
    },
    {
      "inputs": [
        {
          "internalType": "address",
          "name": "_user",
          "type": "address"
        }
      ],
      "name": "getUserInfo",
      "outputs": [
        {
          "internalType": "uint8",
          "name": "",
          "type": "uint8"
        },
        {
          "internalType": "uint256",
          "name": "",
          "type": "uint256"
        },
        {
          "internalType": "uint256",
          "name": "",
          "type": "uint256"
        }
      ],
      "stateMutability": "view",
      "type": "function"
    },
    {
      "inputs": [
        {
          "internalType": "address",
          "name": "_user",
          "type": "address"
        }
      ],
      "name": "getUserNfts",
      "outputs": [
        {
          "internalType": "string[]",
          "name": "",
          "type": "string[]"
        },
        {
          "internalType": "string[]",
          "name": "",
          "type": "string[]"
        }
      ],
      "stateMutability": "view",
      "type": "function"
    },
    {
      "inputs": [
        {
          "internalType": "string",
          "name": "_util",
          "type": "string"
        },
        {
          "internalType": "uint256",
          "name": "_era",
          "type": "uint256"
        }
      ],
      "name": "getUtilAmount",
      "outputs": [
        {
          "internalType": "uint256",
          "name": "",
          "type": "uint256"
        },
        {
          "internalType": "uint256",
          "name": "",
          "type": "uint256"
        },
        {
          "internalType": "bool",
          "name": "",
          "type": "bool"
        },
        {
          "internalType": "uint256",
          "name": "",
          "type": "uint256"
        }
      ],
      "stateMutability": "view",
      "type": "function"
    },
    {
      "inputs": [],
      "name": "getUtilsList",
      "outputs": [
        {
          "internalType": "string[]",
          "name": "",
          "type": "string[]"
        }
      ],
      "stateMutability": "view",
      "type": "function"
    },
    {
      "inputs": [
        {
          "internalType": "bytes32",
          "name": "role",
          "type": "bytes32"
        },
        {
          "internalType": "address",
          "name": "account",
          "type": "address"
        }
      ],
      "name": "grantRole",
      "outputs": [],
      "stateMutability": "nonpayable",
      "type": "function"
    },
    {
      "inputs": [
        {
          "internalType": "bytes32",
          "name": "role",
          "type": "bytes32"
        },
        {
          "internalType": "address",
          "name": "account",
          "type": "address"
        }
      ],
      "name": "hasRole",
      "outputs": [
        {
          "internalType": "bool",
          "name": "",
          "type": "bool"
        }
      ],
      "stateMutability": "view",
      "type": "function"
    },
    {
      "inputs": [
        {
          "internalType": "string",
          "name": "",
          "type": "string"
        }
      ],
      "name": "haveUtil",
      "outputs": [
        {
          "internalType": "bool",
          "name": "",
          "type": "bool"
        }
      ],
      "stateMutability": "view",
      "type": "function"
    },
    {
      "inputs": [
        {
          "internalType": "address",
          "name": "_distr",
          "type": "address"
        },
        {
          "internalType": "address",
          "name": "_nAstr",
          "type": "address"
        },
        {
          "internalType": "address",
          "name": "_liquidStaking",
          "type": "address"
        },
        {
          "internalType": "address",
          "name": "_adaptersDistributor",
          "type": "address"
        }
      ],
      "name": "initialize",
      "outputs": [],
      "stateMutability": "nonpayable",
      "type": "function"
    },
    {
      "inputs": [
        {
          "internalType": "string",
          "name": "utility",
          "type": "string"
        }
      ],
      "name": "isUnique",
      "outputs": [
        {
          "internalType": "bool",
          "name": "",
          "type": "bool"
        }
      ],
      "stateMutability": "view",
      "type": "function"
    },
    {
      "inputs": [
        {
          "internalType": "string",
          "name": "",
          "type": "string"
        }
      ],
      "name": "isUtilRemoved",
      "outputs": [
        {
          "internalType": "bool",
          "name": "",
          "type": "bool"
        }
      ],
      "stateMutability": "view",
      "type": "function"
    },
    {
      "inputs": [],
      "name": "liquidStaking",
      "outputs": [
        {
          "internalType": "contract ILiquidStaking",
          "name": "",
          "type": "address"
        }
      ],
      "stateMutability": "view",
      "type": "function"
    },
    {
      "inputs": [
        {
          "internalType": "string[]",
          "name": "utilities",
          "type": "string[]"
        },
        {
          "internalType": "address",
          "name": "from",
          "type": "address"
        },
        {
          "internalType": "address",
          "name": "to",
          "type": "address"
        },
        {
          "internalType": "uint256[]",
          "name": "amounts",
          "type": "uint256[]"
        }
      ],
      "name": "multiTransferDnt",
      "outputs": [],
      "stateMutability": "nonpayable",
      "type": "function"
    },
    {
      "inputs": [],
      "name": "nAstr",
      "outputs": [
        {
          "internalType": "contract IDNT",
          "name": "",
          "type": "address"
        }
      ],
      "stateMutability": "view",
      "type": "function"
    },
    {
      "inputs": [
        {
          "internalType": "address",
          "name": "account",
          "type": "address"
        }
      ],
      "name": "removeManager",
      "outputs": [],
      "stateMutability": "nonpayable",
      "type": "function"
    },
    {
      "inputs": [
        {
          "internalType": "string",
          "name": "_utilName",
          "type": "string"
        }
      ],
      "name": "removeUtility",
      "outputs": [],
      "stateMutability": "nonpayable",
      "type": "function"
    },
    {
      "inputs": [
        {
          "internalType": "address",
          "name": "_contractAddress",
          "type": "address"
        }
      ],
      "name": "removeUtilityByAddress",
      "outputs": [],
      "stateMutability": "nonpayable",
      "type": "function"
    },
    {
      "inputs": [
        {
          "internalType": "bytes32",
          "name": "role",
          "type": "bytes32"
        },
        {
          "internalType": "address",
          "name": "account",
          "type": "address"
        }
      ],
      "name": "renounceRole",
      "outputs": [],
      "stateMutability": "nonpayable",
      "type": "function"
    },
    {
      "inputs": [
        {
          "internalType": "bytes32",
          "name": "role",
          "type": "bytes32"
        },
        {
          "internalType": "address",
          "name": "account",
          "type": "address"
        }
      ],
      "name": "revokeRole",
      "outputs": [],
      "stateMutability": "nonpayable",
      "type": "function"
    },
    {
      "inputs": [
        {
          "internalType": "bytes4",
          "name": "interfaceId",
          "type": "bytes4"
        }
      ],
      "name": "supportsInterface",
      "outputs": [
        {
          "internalType": "bool",
          "name": "",
          "type": "bool"
        }
      ],
      "stateMutability": "view",
      "type": "function"
    },
    {
      "inputs": [
        {
          "internalType": "string",
          "name": "utility",
          "type": "string"
        },
        {
          "internalType": "address",
          "name": "from",
          "type": "address"
        },
        {
          "internalType": "address",
          "name": "to",
          "type": "address"
        },
        {
          "internalType": "uint256",
          "name": "amount",
          "type": "uint256"
        }
      ],
      "name": "transferDnt",
      "outputs": [],
      "stateMutability": "nonpayable",
      "type": "function"
    },
    {
      "inputs": [
        {
          "internalType": "string",
          "name": "utility",
          "type": "string"
        },
        {
          "internalType": "address",
          "name": "from",
          "type": "address"
        },
        {
          "internalType": "address",
          "name": "to",
          "type": "address"
        },
        {
          "internalType": "uint256",
          "name": "amount",
          "type": "uint256"
        }
      ],
      "name": "transferNft",
      "outputs": [],
      "stateMutability": "nonpayable",
      "type": "function"
    },
    {
      "inputs": [
        {
          "internalType": "string",
          "name": "utility",
          "type": "string"
        },
        {
          "internalType": "address",
          "name": "_user",
          "type": "address"
        },
        {
          "internalType": "uint256",
          "name": "era",
          "type": "uint256"
        },
        {
          "internalType": "uint256",
          "name": "value",
          "type": "uint256"
        }
      ],
      "name": "updateUser",
      "outputs": [],
      "stateMutability": "nonpayable",
      "type": "function"
    },
    {
      "inputs": [
        {
          "internalType": "address",
          "name": "user",
          "type": "address"
        },
        {
          "internalType": "uint8",
          "name": "fee",
          "type": "uint8"
        },
        {
          "internalType": "uint256",
          "name": "era",
          "type": "uint256"
        }
      ],
      "name": "updateUserFee",
      "outputs": [],
      "stateMutability": "nonpayable",
      "type": "function"
    },
    {
      "inputs": [],
      "name": "updates",
      "outputs": [],
      "stateMutability": "nonpayable",
      "type": "function"
    },
    {
      "inputs": [
        {
          "internalType": "address",
          "name": "",
          "type": "address"
        }
      ],
      "name": "users",
      "outputs": [
        {
          "internalType": "uint8",
          "name": "defaultUserFee",
          "type": "uint8"
        },
        {
          "internalType": "uint256",
          "name": "totalUniqueBalance",
          "type": "uint256"
        },
        {
          "internalType": "uint256",
          "name": "totalUniqueComission",
          "type": "uint256"
        }
      ],
      "stateMutability": "view",
      "type": "function"
    },
    {
      "inputs": [
        {
          "internalType": "string",
          "name": "",
          "type": "string"
        }
      ],
      "name": "utilId",
      "outputs": [
        {
          "internalType": "uint256",
          "name": "",
          "type": "uint256"
        }
      ],
      "stateMutability": "view",
      "type": "function"
    },
    {
      "inputs": [
        {
          "internalType": "string",
          "name": "",
          "type": "string"
        }
      ],
      "name": "utils",
      "outputs": [
        {
          "internalType": "bool",
          "name": "isUnique",
          "type": "bool"
        },
        {
          "internalType": "uint8",
          "name": "rewardFee",
          "type": "uint8"
        },
        {
          "internalType": "address",
          "name": "contractAddress",
          "type": "address"
        },
        {
          "internalType": "uint256",
          "name": "totalAmount",
          "type": "uint256"
        },
        {
          "internalType": "uint256",
          "name": "updatedEra",
          "type": "uint256"
        }
      ],
      "stateMutability": "view",
      "type": "function"
    }
  ],
  "bytecode": {
    "object": "0x60806040523480156200001157600080fd5b506200001c62000022565b620000e4565b600054610100900460ff16156200008f5760405162461bcd60e51b815260206004820152602760248201527f496e697469616c697a61626c653a20636f6e747261637420697320696e697469604482015266616c697a696e6760c81b606482015260840160405180910390fd5b60005460ff9081161015620000e2576000805460ff191660ff9081179091556040519081527f7f26b83ff96e1f2b6a682f133852f6798a09c465da95921460cefb38474024989060200160405180910390a15b565b614fcb80620000f46000396000f3fe608060405234801561001057600080fd5b506004361061027f5760003560e01c80636bbea7661161015c578063ac18de43116100ce578063e66119f111610087578063e66119f1146106ed578063f268b2c1146106fa578063f42ff8031461078a578063f587f5211461079d578063f8c8765e146107b0578063fb35f987146107c357600080fd5b8063ac18de4314610667578063c18e46471461067a578063cfc1ef771461068d578063d3b3d6bf146106a5578063d547741f146106c7578063e00e1069146106da57600080fd5b8063933c9a2411610120578063933c9a24146105de5780639a8f2c7e146105de5780639ae6123814610606578063a11f465c14610619578063a217fddf1461062c578063a87430ba1461063457600080fd5b80636bbea76614610571578063718451751461058457806372ee19a2146105975780637908d009146105aa57806391d14854146105cb57600080fd5b80633cc2681e116101f55780635aab9977116101b95780635aab9977146104815780635d14ece4146104ba5780636386c1c7146104cd57806363caec3c1461052657806368a82ef6146105545780636b20dcde1461055c57600080fd5b80633cc2681e146103b65780633ea5856f146103c95780633f1fb67c146103f457806352cab13d14610443578063535a91041461046e57600080fd5b8063248a9ca311610247578063248a9ca3146103255780632d06177a146103485780632eedcb181461035b5780632f2ff15d1461037b578063363393881461038e57806336568abe146103a357600080fd5b806301ffc9a71461028457806309e14118146102ac5780630cbd535e146102c1578063129ba574146102d45780631b2df85014610302575b600080fd5b61029761029236600461479b565b6107d6565b60405190151581526020015b60405180910390f35b6102bf6102ba3660046148a9565b61080d565b005b6102bf6102cf366004614624565b610b5a565b6102976102e23660046147c3565b805160208183018101805160a18252928201919093012091525460ff1681565b610317600080516020614f5683398151915281565b6040519081526020016102a3565b610317610333366004614758565b60009081526065602052604090206001015490565b6102bf610356366004614542565b610bcd565b61036e610369366004614758565b610bf4565b6040516102a39190614d56565b6102bf610389366004614770565b610c3b565b610317600080516020614f7683398151915281565b6102bf6103b1366004614770565b610c65565b61036e6103c4366004614a63565b610cdf565b609a546103dc906001600160a01b031681565b6040516001600160a01b0390911681526020016102a3565b6104316104023660046145af565b6001600160a01b03919091166000908152609c6020908152604080832093835260019093019052205460ff1690565b60405160ff90911681526020016102a3565b6103176104513660046147c3565b805160208183018101805160a28252928201919093012091525481565b61043161047c3660046149fc565b610e3e565b61049461048f3660046149ba565b610ec6565b6040805194855260208501939093529015159183019190915260608201526080016102a3565b6104316104c8366004614542565b610f87565b6105076104db366004614542565b6001600160a01b03166000908152609c602052604090208054600282015460039092015460ff90911692565b6040805160ff90941684526020840192909252908201526060016102a3565b6102976105343660046147c3565b805160208183018101805160a48252928201919093012091525460ff1681565b6102bf610fd1565b6105646110d6565b6040516102a39190614d1e565b6098546103dc906001600160a01b031681565b6102bf610592366004614542565b6111af565b6102976105a53660046147c3565b611249565b6105bd6105b8366004614542565b611274565b6040516102a3929190614d31565b6102976105d9366004614770565b611447565b6105f16105ec36600461490c565b611472565b604080519283529015156020830152016102a3565b6102bf610614366004614662565b61150f565b6102bf6106273660046145d8565b6116bf565b610317600081565b610507610642366004614542565b609c6020526000908152604090208054600282015460039092015460ff909116919083565b6102bf610675366004614542565b611a2a565b610431610688366004614867565b611a4d565b6097546103dc9061010090046001600160a01b031681565b6106b86106b3366004614758565b611a9b565b6040516102a393929190614d64565b6102bf6106d5366004614770565b611b01565b6102bf6106e83660046147c3565b611b73565b6097546104319060ff1681565b6107506107083660046147c3565b805160208183018101805160a08252928201919093012091528054600182015460049092015460ff808316936101008404909116926201000090046001600160a01b03169185565b60408051951515865260ff90941660208601526001600160a01b03909216928401929092526060830191909152608082015260a0016102a3565b6102bf6107983660046148a9565b611dc7565b6099546103dc906001600160a01b031681565b6102bf6107be36600461455c565b611f59565b6102bf6107d1366004614960565b6121d8565b60006001600160e01b03198216637965db0b60e01b148061080757506301ffc9a760e01b6001600160e01b03198316145b92915050565b600080516020614f7683398151915261082581612264565b6000609760019054906101000a90046001600160a01b03166001600160a01b031663973628f66040518163ffffffff1660e01b815260040160206040518083038186803b15801561087557600080fd5b505afa158015610889573d6000803e3d6000fd5b505050506040513d601f19601f820116820180604052508101906108ad9190614a4b565b9050609f5481111561090c57609f546000908152609d602052604080822083835291206108db9160026142d9565b50609f80546000908152609e6020526040808220548483529120805460ff191660ff90921615159190911790558190555b600083116109545760405162461bcd60e51b815260206004820152601060248201526f125b98dbdc9c9958dd08185b5bdd5b9d60821b60448201526064015b60405180910390fd5b836001600160a01b0316856001600160a01b0316141561097357610b52565b600060a0876040516109859190614bba565b90815260405190819003602001902060018101549091506001600160a01b03861615610a6b576109b58887612271565b15610a6b5760985460405163e1d9b41760e01b81526000916001600160a01b03169063e1d9b417906109f0908a908d90609b90600401614cba565b602060405180830381600087803b158015610a0a57600080fd5b505af1158015610a1e573d6000803e3d6000fd5b505050506040513d601f19601f82011682018060405250810190610a429190614a4b565b905080836001016000828254610a589190614e10565b90915550610a699050898883612909565b505b6001600160a01b03871615610b3657610a85888887612a12565b15610b365760985460405163e1d9b41760e01b81526001600160a01b039091169063e1d9b41790610abf908a908c90609b90600401614cba565b602060405180830381600087803b158015610ad957600080fd5b505af1158015610aed573d6000803e3d6000fd5b505050506040513d601f19601f82011682018060405250810190610b119190614a4b565b826001016000828254610b249190614e47565b90915550610b36905088886000612909565b80826001015414610b4f57610b4f888360010154613034565b50505b505050505050565b6000610b6581612264565b6001600160a01b0384166000908152609c6020908152604080832085845260010190915290205460ff16610bc7576001600160a01b0384166000908152609c602090815260408083208584526001019091529020805460ff191660ff85161790555b50505050565b6000610bd881612264565b610bf0600080516020614f5683398151915283613190565b5050565b610bfc614314565b6000828152609d6020526040908190208151808301928390529160029082845b815481526020019060010190808311610c1c5750505050509050919050565b600082815260656020526040902060010154610c5681612264565b610c608383613190565b505050565b6001600160a01b0381163314610cd55760405162461bcd60e51b815260206004820152602f60248201527f416363657373436f6e74726f6c3a2063616e206f6e6c792072656e6f756e636560448201526e103937b632b9903337b91039b2b63360891b606482015260840161094b565b610bf08282613216565b610ce7614314565b600080516020614f56833981519152610cff81612264565b6000609760019054906101000a90046001600160a01b03166001600160a01b031663973628f66040518163ffffffff1660e01b815260040160206040518083038186803b158015610d4f57600080fd5b505afa158015610d63573d6000803e3d6000fd5b505050506040513d601f19601f82011682018060405250810190610d879190614a4b565b9050609f54811115610de657609f546000908152609d60205260408082208383529120610db59160026142d9565b50609f80546000908152609e6020526040808220548483529120805460ff191660ff90921615159190911790558190555b845b84811015610e35576000610dfb8261327d565b80518651919250908690610e10908390614e10565b9052506020808201519086018051610e29908390614e10565b90525050600101610de8565b50505092915050565b600080600060a085604051610e539190614bba565b9081526040519081900360200190205460ff6101009091041611610e7c5760975460ff16610ea6565b60a084604051610e8c9190614bba565b9081526040519081900360200190205460ff610100909104165b90508260ff168160ff161115610ebf5782915050610807565b9392505050565b60008060008060a086604051610edc9190614bba565b90815260200160405180910390206001015460a087604051610efe9190614bba565b908152602001604051809103902060020160008781526020019081526020016000205460a088604051610f319190614bba565b90815260408051918290036020908101832060008b81526003909101909152205460ff169060a090610f64908b90614bba565b908152602001604051809103902060040154935093509350935092959194509250565b6001600160a01b0381166000908152609c602052604081205460ff16610fb25760975460ff16610807565b506001600160a01b03166000908152609c602052604090205460ff1690565b600080516020614f76833981519152610fe981612264565b6000609760019054906101000a90046001600160a01b03166001600160a01b031663973628f66040518163ffffffff1660e01b815260040160206040518083038186803b15801561103957600080fd5b505afa15801561104d573d6000803e3d6000fd5b505050506040513d601f19601f820116820180604052508101906110719190614a4b565b60975460405163b1357bf960e01b81526004810183905291925061010090046001600160a01b03169063b1357bf990602401600060405180830381600087803b1580156110bd57600080fd5b505af19250505080156110ce575060015b610bf0575050565b606060a3805480602002602001604051908101604052809291908181526020016000905b828210156111a657838290600052602060002001805461111990614ec4565b80601f016020809104026020016040519081016040528092919081815260200182805461114590614ec4565b80156111925780601f1061116757610100808354040283529160200191611192565b820191906000526020600020905b81548152906001019060200180831161117557829003601f168201915b5050505050815260200190600101906110fa565b50505050905090565b600080516020614f568339815191526111c781612264565b6000826001600160a01b031663ab4869296040518163ffffffff1660e01b815260040160006040518083038186803b15801561120257600080fd5b505afa158015611216573d6000803e3d6000fd5b505050506040513d6000823e601f3d908101601f1916820160405261123e91908101906147f5565b9050610c6081611b73565b600060a08260405161125b9190614bba565b9081526040519081900360200190205460ff1692915050565b6001600160a01b0381166000908152609c6020908152604080832060048101805483518186028101860190945280845260609586959294600590940193928592919084015b828210156113655783829060005260206000200180546112d890614ec4565b80601f016020809104026020016040519081016040528092919081815260200182805461130490614ec4565b80156113515780601f1061132657610100808354040283529160200191611351565b820191906000526020600020905b81548152906001019060200180831161133457829003601f168201915b5050505050815260200190600101906112b9565b50505050915080805480602002602001604051908101604052809291908181526020016000905b828210156114385783829060005260206000200180546113ab90614ec4565b80601f01602080910402602001604051908101604052809291908181526020018280546113d790614ec4565b80156114245780601f106113f957610100808354040283529160200191611424565b820191906000526020600020905b81548152906001019060200180831161140757829003601f168201915b50505050508152602001906001019061138c565b50505050905091509150915091565b60009182526065602090815260408084206001600160a01b0393909316845291905290205460ff1690565b60008060a0856040516114859190614bba565b9081526040805191829003602090810183206001600160a01b03881660009081526005909101825282812087825290915220549060a0906114c7908890614bba565b908152604080519182900360209081019092206001600160a01b03881660009081526005909101835281812087825260010190925290205490925060ff169050935093915050565b6000609760019054906101000a90046001600160a01b03166001600160a01b031663973628f66040518163ffffffff1660e01b815260040160206040518083038186803b15801561155f57600080fd5b505afa158015611573573d6000803e3d6000fd5b505050506040513d601f19601f820116820180604052508101906115979190614a4b565b9050609f548111156115f657609f546000908152609d602052604080822083835291206115c59160026142d9565b50609f80546000908152609e6020526040808220548483529120805460ff191660ff90921615159190911790558190555b6099546001600160a01b0316331461163d5760405162461bcd60e51b815260206004820152600a6024820152694e6f742061636365737360b01b604482015260640161094b565b845160005b818110156116b6576116a487828151811061166d57634e487b7160e01b600052603260045260246000fd5b6020026020010151878787858151811061169757634e487b7160e01b600052603260045260246000fd5b6020026020010151613370565b806116ae81614eff565b915050611642565b50505050505050565b600080516020614f568339815191526116d781612264565b60975460ff8085169116101561172f5760405162461bcd60e51b815260206004820152601d60248201527f43616e74206578636565642064656661756c74206665652076616c7565000000604482015260640161094b565b60008360ff16116117765760405162461bcd60e51b815260206004820152601160248201527043616e7420736574207a65726f2066656560781b604482015260640161094b565b6000846001600160a01b031663ab4869296040518163ffffffff1660e01b815260040160006040518083038186803b1580156117b157600080fd5b505afa1580156117c5573d6000803e3d6000fd5b505050506040513d6000823e601f3d908101601f191682016040526117ed91908101906147f5565b905060a4816040516117ff9190614bba565b9081526040519081900360200190205460ff16156118565760405162461bcd60e51b81526020600482015260146024820152735574696c69747920626c61636b6c69737465642160601b604482015260640161094b565b60a1816040516118669190614bba565b9081526040519081900360200190205460ff16156118bd5760405162461bcd60e51b8152602060048201526014602482015273416c72656164792068617665207574696c69747960601b604482015260640161094b565b8360a0826040516118ce9190614bba565b908152602001604051809103902060000160016101000a81548160ff021916908360ff160217905550600160a1826040516119099190614bba565b908152604051908190036020018120805492151560ff199093169290921790915560a3549060a29061193c908490614bba565b908152604051602091819003820190209190915560a380546001810182556000919091528251611993927f60859188cffe297f44dde29f2d2865634621f26215049caeb304ccba566a8b1790920191840190614332565b508460a0826040516119a59190614bba565b908152602001604051809103902060000160026101000a8154816001600160a01b0302191690836001600160a01b031602179055508260a0826040516119eb9190614bba565b908152604051908190036020019020805491151560ff19909216919091179055611a23600080516020614f7683398151915286613190565b5050505050565b6000611a3581612264565b610bf0600080516020614f5683398151915283613216565b600080611a5983610f87565b905060a084604051611a6b9190614bba565b9081526040519081900360200190205460ff16611a89579050610807565b611a938482610e3e565b949350505050565b611aa3614314565b6000828152609d60209081526040808320609e90925280832054609f5482518084019384905285949360ff90931692849060029082845b815481526020019060010190808311611ada57505050505092509250925092509193909250565b600082815260656020526040902060010154611b1c81612264565b82611b695760405162461bcd60e51b815260206004820181905260248201527f4e6f7420616c6c6f77656420746f207265766f6b652061646d696e20726f6c65604482015260640161094b565b610c608383613216565b600080516020614f56833981519152611b8b81612264565b60a182604051611b9b9190614bba565b9081526040519081900360200190205460ff16611bee5760405162461bcd60e51b8152602060048201526011602482015270155d1a5b1a5d1e481b9bdd08199bdd5b99607a1b604482015260640161094b565b600060a083604051611c009190614bba565b908152604051908190036020018120546001600160a01b036201000090910416915060009060a190611c33908690614bba565b908152604051908190036020018120805492151560ff199093169290921790915560009060a290611c65908690614bba565b908152602001604051809103902054905060a3600160a380549050611c8a9190614e47565b81548110611ca857634e487b7160e01b600052603260045260246000fd5b9060005260206000200160a38281548110611cd357634e487b7160e01b600052603260045260246000fd5b90600052602060002001908054611ce990614ec4565b611cf49291906143a6565b508060a260a38381548110611d1957634e487b7160e01b600052603260045260246000fd5b90600052602060002001604051611d309190614bd6565b9081526040519081900360200190205560a3805480611d5f57634e487b7160e01b600052603160045260246000fd5b600190038181906000526020600020016000611d7b9190614420565b9055600160a485604051611d8f9190614bba565b908152604051908190036020019020805491151560ff19909216919091179055610bc7600080516020614f7683398151915283613216565b6000609760019054906101000a90046001600160a01b03166001600160a01b031663973628f66040518163ffffffff1660e01b815260040160206040518083038186803b158015611e1757600080fd5b505afa158015611e2b573d6000803e3d6000fd5b505050506040513d601f19601f82011682018060405250810190611e4f9190614a4b565b9050609f54811115611eae57609f546000908152609d60205260408082208383529120611e7d9160026142d9565b50609f80546000908152609e6020526040808220548483529120805460ff191660ff90921615159190911790558190555b6099546001600160a01b0316331480611ed15750609a546001600160a01b031633145b611f0a5760405162461bcd60e51b815260206004820152600a6024820152694e6f742061636365737360b01b604482015260640161094b565b60008211611f4d5760405162461bcd60e51b815260206004820152601060248201526f125b98dbdc9c9958dd08185b5bdd5b9d60821b604482015260640161094b565b611a2385858585613370565b600054610100900460ff1615808015611f795750600054600160ff909116105b80611f935750303b158015611f93575060005460ff166001145b611ff65760405162461bcd60e51b815260206004820152602e60248201527f496e697469616c697a61626c653a20636f6e747261637420697320616c72656160448201526d191e481a5b9a5d1a585b1a5e995960921b606482015260840161094b565b6000805460ff191660011790558015612019576000805461ff0019166101001790555b609880546001600160a01b03199081166001600160a01b03888116919091179092556099805490911686831617905560978054610100600160a81b0319166101008684168102919091179182905560408051632210de8f60e11b815290519190920490921691634421bd1e91600480820192602092909190829003018186803b1580156120a557600080fd5b505afa1580156120b9573d6000803e3d6000fd5b505050506040513d601f19601f820116820180604052508101906120dd9190614a84565b6097805460ff191660ff92909216919091179055604080518082019091526005808252643720a9aa2960d91b602090920191825261211d91609b91614332565b50609a80546001600160a01b0319166001600160a01b038416179055612144600033613190565b61215c600080516020614f5683398151915283613190565b612174600080516020614f5683398151915233613190565b61218c600080516020614f5683398151915284613190565b8015611a23576000805461ff0019169055604051600181527f7f26b83ff96e1f2b6a682f133852f6798a09c465da95921460cefb38474024989060200160405180910390a15050505050565b60006121e381612264565b600060a0866040516121f59190614bba565b90815260408051602092819003830190206001600160a01b038816600090815260059091018352818120878252928390522084905590508261223857600161223b565b60005b60009485526001919091016020526040909320805460ff19169315159390931790925550505050565b61226e8133613518565b50565b600060a0836040516122839190614bba565b908152604051908190036020018120546370a0823160e01b82526001600160a01b0384811660048401526201000090910416906370a082319060240160206040518083038186803b1580156122d757600080fd5b505afa1580156122eb573d6000803e3d6000fd5b505050506040513d601f19601f8201168201806040525081019061230f9190614a4b565b612900576001600160a01b038083166000908152609c602090815260408083206097548251634b9b147b60e11b815292519195610100909104169263973628f69260048082019391829003018186803b15801561236b57600080fd5b505afa15801561237f573d6000803e3d6000fd5b505050506040513d601f19601f820116820180604052508101906123a39190614a4b565b905060a0856040516123b59190614bba565b9081526040519081900360200190205460ff1615612624576123da826004018661357c565b50600182600701866040516123ef9190614bba565b908152604051908190036020018120805492151560ff199093169290921790915560985463e1d9b41760e01b82526000916001600160a01b039091169063e1d9b417906124459088908a90609b90600401614cba565b602060405180830381600087803b15801561245f57600080fd5b505af1158015612473573d6000803e3d6000fd5b505050506040513d601f19601f820116820180604052508101906124979190614a4b565b9050808360020160008282546124ad9190614e10565b909155506124bd90508686611a4d565b6124ca9060ff1682614e28565b8360030160008282546124dd9190614e10565b909155505060058301541561258f5760a0866040516124fc9190614bba565b90815260405190819003602001902054835460ff61010090920482169116111561258a5760a0866040516125309190614bba565b9081526040519081900360200190205483546125579160ff61010090910481169116614e5e565b6125649060ff1682614e28565b6000838152609d6020526040902060010160008282546125849190614e47565b90915550505b61261e565b6097546125a190849060ff16846135ae565b6000828152609d6020526040812080548392906125bf908490614e10565b909155505060405160a0906125d5908890614bba565b908152604051908190036020019020546125f89060ff6101009091041682614e28565b6000838152609d6020526040902060010160008282546126189190614e10565b90915550505b506128f5565b600182600601866040516126389190614bba565b908152604051908190036020019020805491151560ff19909216919091179055612665600583018661357c565b156127a85761269d8260a08760405161267e9190614bba565b9081526040519081900360200190205460ff61010090910416836135ae565b6099546040516370a0823160e01b81526001600160a01b03868116600483015260009216906370a082319060240160206040518083038186803b1580156126e357600080fd5b505afa1580156126f7573d6000803e3d6000fd5b505050506040513d601f19601f8201168201806040525081019061271b9190614a4b565b905082600201548161272d9190614e47565b6000838152609d6020526040812001600082825461274b9190614e10565b90915550508254600284015460ff909116906127679083614e47565b6127719190614e28565b6000838152609d6020526040902060010160008282546127919190614e10565b9091555050825461261e90869060ff1660016135dc565b600060a0866040516127ba9190614bba565b90815260405190819003602001902054835460ff61010090920482169250168110156128f35782546127f090829060ff16614e5e565b60028401546099546040516370a0823160e01b81526001600160a01b03898116600483015260ff9490941693909116906370a082319060240160206040518083038186803b15801561284157600080fd5b505afa158015612855573d6000803e3d6000fd5b505050506040513d601f19601f820116820180604052508101906128799190614a4b565b6128839190614e47565b61288d9190614e28565b6000838152609d6020526040902060010160008282546128ad9190614e47565b925050819055506128e88560a0886040516128c89190614bba565b9081526040519081900360200190205460ff6101009091041660006135dc565b6128f38382846135ae565b505b600192505050610807565b50600092915050565b6000609760019054906101000a90046001600160a01b03166001600160a01b031663973628f66040518163ffffffff1660e01b815260040160206040518083038186803b15801561295957600080fd5b505afa15801561296d573d6000803e3d6000fd5b505050506040513d601f19601f820116820180604052508101906129919190614a4b565b9050600060a0856040516129a59190614bba565b90815260408051602092819003830190206001600160a01b03871660009081526005909101835281812085825292839052208490559050826129e85760016129eb565b60005b60009283526001919091016020526040909120805460ff1916911515919091179055505050565b60008160a085604051612a259190614bba565b908152604051908190036020018120546370a0823160e01b82526001600160a01b0386811660048401526201000090910416906370a082319060240160206040518083038186803b158015612a7957600080fd5b505afa158015612a8d573d6000803e3d6000fd5b505050506040513d601f19601f82011682018060405250810190612ab19190614a4b565b1161302a576001600160a01b038084166000908152609c602090815260408083206097548251634b9b147b60e11b815292519195610100909104169263973628f69260048082019391829003018186803b158015612b0e57600080fd5b505afa158015612b22573d6000803e3d6000fd5b505050506040513d601f19601f82011682018060405250810190612b469190614a4b565b905060a086604051612b589190614bba565b9081526040519081900360200190205460ff1615612db557612b7d82600401876138e7565b5060008260070187604051612b929190614bba565b908152604051908190036020018120805492151560ff199093169290921790915560985463e1d9b41760e01b82526000916001600160a01b039091169063e1d9b41790612be89089908b90609b90600401614cba565b602060405180830381600087803b158015612c0257600080fd5b505af1158015612c16573d6000803e3d6000fd5b505050506040513d601f19601f82011682018060405250810190612c3a9190614a4b565b905080836002016000828254612c509190614e47565b90915550612c6090508787611a4d565b612c6d9060ff1682614e28565b836003016000828254612c809190614e47565b9091555050600583015415612d325760a087604051612c9f9190614bba565b90815260405190819003602001902054835460ff610100909204821691161115612d2d5760a087604051612cd39190614bba565b908152604051908190036020019020548354612cfa9160ff61010090910481169116614e5e565b612d079060ff1682614e28565b6000838152609d602052604090206001016000828254612d279190614e10565b90915550505b612daf565b6000828152609d602052604081208054839290612d50908490614e47565b909155505060405160a090612d66908990614bba565b90815260405190819003602001902054612d899060ff6101009091041682614e28565b6000838152609d602052604090206001016000828254612da99190614e47565b90915550505b5061301f565b60008260060187604051612dc99190614bba565b908152604051908190036020019020805491151560ff19909216919091179055612df660058301876138e7565b15612f17576099546040516370a0823160e01b81526001600160a01b03878116600483015260009216906370a082319060240160206040518083038186803b158015612e4157600080fd5b505afa158015612e55573d6000803e3d6000fd5b505050506040513d601f19601f82011682018060405250810190612e799190614a4b565b9050826002015481612e8b9190614e47565b6000838152609d60205260408120016000828254612ea99190614e47565b90915550508254600284015460ff90911690612ec59083614e47565b612ecf9190614e28565b6000838152609d602052604090206001016000828254612eef9190614e47565b909155505060975460ff16612f05878483613a4f565b612f108482856135ae565b505061301f565b6000612f2283613c36565b835490915060ff908116908216111561301d578254612f449060ff1682614e5e565b60028401546099546040516370a0823160e01b81526001600160a01b038a8116600483015260ff9490941693909116906370a082319060240160206040518083038186803b158015612f9557600080fd5b505afa158015612fa9573d6000803e3d6000fd5b505050506040513d601f19601f82011682018060405250810190612fcd9190614a4b565b612fd79190614e47565b612fe19190614e28565b6000838152609d6020526040902060010160008282546130019190614e10565b909155506130129050868383613a4f565b61301d8382846135ae565b505b600192505050610ebf565b5060009392505050565b6000609760019054906101000a90046001600160a01b03166001600160a01b031663973628f66040518163ffffffff1660e01b815260040160206040518083038186803b15801561308457600080fd5b505afa158015613098573d6000803e3d6000fd5b505050506040513d601f19601f820116820180604052508101906130bc9190614a4b565b90506130c88382613d1f565b6000818152609d60205260409020546130e25760016130e5565b60005b6000828152609e602052604090819020805460ff19169215159290921790915551829060a090613116908690614bba565b90815260200160405180910390206002016000838152602001908152602001600020819055506000821161314b57600161314e565b60005b60a08460405161315e9190614bba565b90815260408051602092819003830190206000948552600301909152909120805460ff19169115159190911790555050565b61319a8282611447565b610bf05760008281526065602090815260408083206001600160a01b03851684529091529020805460ff191660011790556131d23390565b6001600160a01b0316816001600160a01b0316837f2f8788117e7eff1d82e926ec794901d17c78024a50270940304540a733656f0d60405160405180910390a45050565b6132208282611447565b15610bf05760008281526065602090815260408083206001600160a01b0385168085529252808320805460ff1916905551339285917ff6391f5c32d9c69d2a47ea670b442974b53935d1edc7fd64eb21e047a839171b9190a45050565b613285614314565b609d6000613294846001614e10565b81526020019081526020016000206000600281106132c257634e487b7160e01b600052603260045260246000fd5b01541580156132f15750609e60006132db846001614e10565b815260208101919091526040016000205460ff16155b15610bfc576000828152609d60208190526040822091613312856001614e10565b8152602081019190915260400160002061332d9160026142d9565b506000828152609d60205260409081902081518083019092526002828282602002820191815481526020019060010190808311610c1c5750505050509050919050565b8061337a57610bc7565b816001600160a01b0316836001600160a01b0316141561339957610bc7565b600060a0856040516133ab9190614bba565b90815260405190819003602001902060018101549091506001600160a01b0384161561348c576133dc868585613d98565b1561348c57828260010160008282546133f59190614e10565b909155505060985460405163e1d9b41760e01b815261348c91889187916001600160a01b03169063e1d9b417906134359084908690609b90600401614cba565b602060405180830381600087803b15801561344f57600080fd5b505af1158015613463573d6000803e3d6000fd5b505050506040513d601f19601f820116820180604052508101906134879190614a4b565b612909565b6001600160a01b038516156134ff576134a6868685613f81565b156134ff57828260010160008282546134bf9190614e47565b909155505060985460405163e1d9b41760e01b81526134ff91889188916001600160a01b03169063e1d9b417906134359084908690609b90600401614cba565b80826001015414610b5257610b52868360010154613034565b6135228282611447565b610bf05761353a816001600160a01b031660146140f8565b6135458360206140f8565b604051602001613556929190614c45565b60408051601f198184030181529082905262461bcd60e51b825261094b91600401614d83565b815460018101835560008381526020808220845192936135a193910191850190614332565b5050905460011015919050565b825460ff90921660ff1992831681178455600091825260019093016020526040902080549091169091179055565b6001600160a01b038084166000908152609c602090815260408083206097548251634b9b147b60e11b815292519195610100909104169263973628f69260048082019391829003018186803b15801561363457600080fd5b505afa158015613648573d6000803e3d6000fd5b505050506040513d601f19601f8201168201806040525081019061366c9190614a4b565b600483015490915060005b818110156116b65760008561374a576137458560040183815481106136ac57634e487b7160e01b600052603260045260246000fd5b9060005260206000200180546136c190614ec4565b80601f01602080910402602001604051908101604052809291908181526020018280546136ed90614ec4565b801561373a5780601f1061370f5761010080835404028352916020019161373a565b820191906000526020600020905b81548152906001019060200180831161371d57829003601f168201915b505050505089611a4d565b6137a0565b60a085600401838154811061376f57634e487b7160e01b600052603260045260246000fd5b906000526020600020016040516137869190614bd6565b9081526040519081900360200190205460ff610100909104165b90508660ff168160ff1611156138d45760006137bc8883614e5e565b60ff16609860009054906101000a90046001600160a01b03166001600160a01b031663e1d9b4178b89600401878154811061380757634e487b7160e01b600052603260045260246000fd5b90600052602060002001609b6040518463ffffffff1660e01b815260040161383193929190614cfa565b602060405180830381600087803b15801561384b57600080fd5b505af115801561385f573d6000803e3d6000fd5b505050506040513d601f19601f820116820180604052508101906138839190614a4b565b61388d9190614e28565b6000868152609d60205260409020909150819060010160008282546138b29190614e47565b92505081905550808660030160008282546138cd9190614e47565b9091555050505b50806138df81614eff565b915050613677565b8154604051600091908290613900908590602001614bba565b60405160208183030381529060405280519060200120905060005b82811015613a43578186828154811061394457634e487b7160e01b600052603260045260246000fd5b9060005260206000200160405160200161395e9190614bd6565b604051602081830303815290604052805190602001201415613a315785613986600185614e47565b815481106139a457634e487b7160e01b600052603260045260246000fd5b906000526020600020018682815481106139ce57634e487b7160e01b600052603260045260246000fd5b906000526020600020019080546139e490614ec4565b6139ef9291906143a6565b5085805480613a0e57634e487b7160e01b600052603160045260246000fd5b600190038181906000526020600020016000613a2a9190614420565b9055613a43565b80613a3b81614eff565b91505061391b565b50509254159392505050565b6001600160a01b0383166000908152609c60205260408120600481015490915b81811015610b5257600060a0846004018381548110613a9e57634e487b7160e01b600052603260045260246000fd5b90600052602060002001604051613ab59190614bd6565b9081526040519081900360200190205460ff6101009091048116915060009086168210613ae25785613ae4565b815b855490915060ff9081169082161115613c21578454600090613b099060ff1683614e5e565b60ff16609860009054906101000a90046001600160a01b03166001600160a01b031663e1d9b4178b896004018881548110613b5457634e487b7160e01b600052603260045260246000fd5b90600052602060002001609b6040518463ffffffff1660e01b8152600401613b7e93929190614cfa565b602060405180830381600087803b158015613b9857600080fd5b505af1158015613bac573d6000803e3d6000fd5b505050506040513d601f19601f82011682018060405250810190613bd09190614a4b565b613bda9190614e28565b6000898152609d6020526040902090915081906001016000828254613bff9190614e10565b9250508190555080866003016000828254613c1a9190614e10565b9091555050505b50508080613c2e90614eff565b915050613a6f565b609754600582015460ff9091169060005b81811015613d18578260ff1660a0856005018381548110613c7857634e487b7160e01b600052603260045260246000fd5b90600052602060002001604051613c8f9190614bd6565b9081526040519081900360200190205460ff610100909104161015613d065760a0846005018281548110613cd357634e487b7160e01b600052603260045260246000fd5b90600052602060002001604051613cea9190614bd6565b9081526040519081900360200190205460ff6101009091041692505b80613d1081614eff565b915050613c47565b5050919050565b600060a083604051613d319190614bba565b908152604051908190036020019020600481015490915080831115610bc75760008181526002830160209081526040808320548684528184205592825260038401905281812054848252919020805460ff191660ff90921615159190911790556004015550565b6001600160a01b038083166000908152609c602090815260408083206097548251634b9b147b60e11b815292519495919486946101009092049092169263973628f69260048083019392829003018186803b158015613df657600080fd5b505afa158015613e0a573d6000803e3d6000fd5b505050506040513d601f19601f82011682018060405250810190613e2e9190614a4b565b905060008260070187604051613e449190614bba565b9081526040519081900360200190205460ff1615613ead57613e668787611a4d565b905084836002016000828254613e7c9190614e10565b90915550613e8f905060ff821686614e28565b836003016000828254613ea29190614e10565b90915550613ece9050565b600583015415613ec25750815460ff16613ece565b60009350505050610ebf565b6000828152609d602052604081208054879290613eec908490614e10565b90915550613eff905060ff821686614e28565b6000838152609d602052604090206001016000828254613f1f9190614e10565b90915550506040516006840190613f37908990614bba565b9081526040519081900360200190205460ff1680613f7657508260070187604051613f629190614bba565b9081526040519081900360200190205460ff165b979650505050505050565b6001600160a01b038083166000908152609c602090815260408083206097548251634b9b147b60e11b815292519495919486946101009092049092169263973628f69260048083019392829003018186803b158015613fdf57600080fd5b505afa158015613ff3573d6000803e3d6000fd5b505050506040513d601f19601f820116820180604052508101906140179190614a4b565b90506000826007018760405161402d9190614bba565b9081526040519081900360200190205460ff16156140965761404f8787611a4d565b9050848360020160008282546140659190614e47565b90915550614078905060ff821686614e28565b83600301600082825461408b9190614e47565b909155506140a79050565b600583015415613ec25750815460ff165b6000828152609d6020526040812080548792906140c5908490614e47565b909155506140d8905060ff821686614e28565b6000838152609d602052604090206001016000828254613f1f9190614e47565b60606000614107836002614e28565b614112906002614e10565b6001600160401b0381111561413757634e487b7160e01b600052604160045260246000fd5b6040519080825280601f01601f191660200182016040528015614161576020820181803683370190505b509050600360fc1b8160008151811061418a57634e487b7160e01b600052603260045260246000fd5b60200101906001600160f81b031916908160001a905350600f60fb1b816001815181106141c757634e487b7160e01b600052603260045260246000fd5b60200101906001600160f81b031916908160001a90535060006141eb846002614e28565b6141f6906001614e10565b90505b600181111561428a576f181899199a1a9b1b9c1cb0b131b232b360811b85600f166010811061423857634e487b7160e01b600052603260045260246000fd5b1a60f81b82828151811061425c57634e487b7160e01b600052603260045260246000fd5b60200101906001600160f81b031916908160001a90535060049490941c9361428381614ead565b90506141f9565b508315610ebf5760405162461bcd60e51b815260206004820181905260248201527f537472696e67733a20686578206c656e67746820696e73756666696369656e74604482015260640161094b565b8260028101928215614304579182015b828111156143045782548255916001019190600101906142e9565b50614310929150614456565b5090565b60405180604001604052806002906020820280368337509192915050565b82805461433e90614ec4565b90600052602060002090601f0160209004810192826143605760008555614304565b82601f1061437957805160ff1916838001178555614304565b82800160010185558215614304579182015b8281111561430457825182559160200191906001019061438b565b8280546143b290614ec4565b90600052602060002090601f0160209004810192826143d45760008555614304565b82601f106143e55780548555614304565b8280016001018555821561430457600052602060002091601f01602090048201828111156143045782548255916001019190600101906142e9565b50805461442c90614ec4565b6000825580601f1061443c575050565b601f01602090049060005260206000209081019061226e91905b5b808211156143105760008155600101614457565b80356001600160a01b038116811461448257600080fd5b919050565b600082601f830112614497578081fd5b813560206144ac6144a783614dc6565b614d96565b80838252828201915082860187848660051b89010111156144cb578586fd5b855b858110156144e9578135845292840192908401906001016144cd565b5090979650505050505050565b600082601f830112614506578081fd5b81356145146144a782614de9565b818152846020838601011115614528578283fd5b816020850160208301379081016020019190915292915050565b600060208284031215614553578081fd5b610ebf8261446b565b60008060008060808587031215614571578283fd5b61457a8561446b565b93506145886020860161446b565b92506145966040860161446b565b91506145a46060860161446b565b905092959194509250565b600080604083850312156145c1578182fd5b6145ca8361446b565b946020939093013593505050565b6000806000606084860312156145ec578283fd5b6145f58461446b565b9250602084013561460581614f46565b915060408401358015158114614619578182fd5b809150509250925092565b600080600060608486031215614638578283fd5b6146418461446b565b9250602084013561465181614f46565b929592945050506040919091013590565b60008060008060808587031215614677578384fd5b84356001600160401b038082111561468d578586fd5b818701915087601f8301126146a0578586fd5b813560206146b06144a783614dc6565b8083825282820191508286018c848660051b89010111156146cf578a8bfd5b8a5b85811015614708578135878111156146e7578c8dfd5b6146f58f87838c01016144f6565b85525092840192908401906001016146d1565b5050809950505061471a818a0161446b565b9650505061472a6040880161446b565b9350606087013591508082111561473f578283fd5b5061474c87828801614487565b91505092959194509250565b600060208284031215614769578081fd5b5035919050565b60008060408385031215614782578182fd5b823591506147926020840161446b565b90509250929050565b6000602082840312156147ac578081fd5b81356001600160e01b031981168114610ebf578182fd5b6000602082840312156147d4578081fd5b81356001600160401b038111156147e9578182fd5b611a93848285016144f6565b600060208284031215614806578081fd5b81516001600160401b0381111561481b578182fd5b8201601f8101841361482b578182fd5b80516148396144a782614de9565b81815285602083850101111561484d578384fd5b61485e826020830160208601614e81565b95945050505050565b60008060408385031215614879578182fd5b82356001600160401b0381111561488e578283fd5b61489a858286016144f6565b9250506147926020840161446b565b600080600080608085870312156148be578182fd5b84356001600160401b038111156148d3578283fd5b6148df878288016144f6565b9450506148ee6020860161446b565b92506148fc6040860161446b565b9396929550929360600135925050565b600080600060608486031215614920578081fd5b83356001600160401b03811115614935578182fd5b614941868287016144f6565b9350506149506020850161446b565b9150604084013590509250925092565b60008060008060808587031215614975578182fd5b84356001600160401b0381111561498a578283fd5b614996878288016144f6565b9450506149a56020860161446b565b93969395505050506040820135916060013590565b600080604083850312156149cc578182fd5b82356001600160401b038111156149e1578283fd5b6149ed858286016144f6565b95602094909401359450505050565b60008060408385031215614a0e578182fd5b82356001600160401b03811115614a23578283fd5b614a2f858286016144f6565b9250506020830135614a4081614f46565b809150509250929050565b600060208284031215614a5c578081fd5b5051919050565b60008060408385031215614a75578182fd5b50508035926020909101359150565b600060208284031215614a95578081fd5b8151610ebf81614f46565b600081518084526020808501808196508360051b81019150828601855b85811015614ae7578284038952614ad5848351614b17565b98850198935090840190600101614abd565b5091979650505050505050565b8060005b6002811015610bc7578151845260209384019390910190600101614af8565b60008151808452614b2f816020860160208601614e81565b601f01601f19169290920160200192915050565b60008154614b5081614ec4565b808552602060018381168015614b6d5760018114614b8157614baf565b60ff19851688840152604088019550614baf565b866000528260002060005b85811015614ba75781548a8201860152908301908401614b8c565b890184019650505b505050505092915050565b60008251614bcc818460208701614e81565b9190910192915050565b6000808354614be481614ec4565b60018281168015614bfc5760018114614c0d57614c39565b60ff19841687528287019450614c39565b8786526020808720875b85811015614c305781548a820152908401908201614c17565b50505082870194505b50929695505050505050565b7f416363657373436f6e74726f6c3a206163636f756e7420000000000000000000815260008351614c7d816017850160208801614e81565b7001034b99036b4b9b9b4b733903937b6329607d1b6017918401918201528351614cae816028840160208801614e81565b01602801949350505050565b6001600160a01b0384168152606060208201819052600090614cde90830185614b17565b8281036040840152614cf08185614b43565b9695505050505050565b6001600160a01b0384168152606060208201819052600090614cde90830185614b43565b602081526000610ebf6020830184614aa0565b604081526000614d446040830185614aa0565b828103602084015261485e8185614aa0565b604081016108078284614af4565b60808101614d728286614af4565b921515604082015260600152919050565b602081526000610ebf6020830184614b17565b604051601f8201601f191681016001600160401b0381118282101715614dbe57614dbe614f30565b604052919050565b60006001600160401b03821115614ddf57614ddf614f30565b5060051b60200190565b60006001600160401b03821115614e0257614e02614f30565b50601f01601f191660200190565b60008219821115614e2357614e23614f1a565b500190565b6000816000190483118215151615614e4257614e42614f1a565b500290565b600082821015614e5957614e59614f1a565b500390565b600060ff821660ff841680821015614e7857614e78614f1a565b90039392505050565b60005b83811015614e9c578181015183820152602001614e84565b83811115610bc75750506000910152565b600081614ebc57614ebc614f1a565b506000190190565b600181811c90821680614ed857607f821691505b60208210811415614ef957634e487b7160e01b600052602260045260246000fd5b50919050565b6000600019821415614f1357614f13614f1a565b5060010190565b634e487b7160e01b600052601160045260246000fd5b634e487b7160e01b600052604160045260246000fd5b60ff8116811461226e57600080fdfeaf290d8680820aad922855f39b306097b20e28774d6c1ad35a20325630c3a02c4900b93d3ba3ad9c6eb1cdb3c320ec30c038ec7c58af541b944dceeed3338714a26469706673582212201b2596437793a701b527aab4d1d192e18d17b1db47b21e757c3d975cb0eb095664736f6c63430008040033",
    "linkReferences": {}
  },
  "methodIdentifiers": {
    "DEFAULT_ADMIN_ROLE()": "a217fddf",
    "LIQUIDSTAKING_FEE()": "e66119f1",
    "MANAGER()": "1b2df850",
    "TOKEN_CONTRACT()": "36339388",
    "adaptersDistributor()": "3ea5856f",
    "addManager(address)": "2d06177a",
    "addUtility(address,uint8,bool)": "a11f465c",
    "distr()": "6bbea766",
    "getBestUtilFee(string,uint8)": "535a9104",
    "getDefaultUserFee(address)": "5d14ece4",
    "getEra(uint256)": "2eedcb18",
    "getEraAmount(uint256)": "d3b3d6bf",
    "getErasData(uint256,uint256)": "3cc2681e",
    "getRoleAdmin(bytes32)": "248a9ca3",
    "getUserEraAmount(string,address,uint256)": "9a8f2c7e",
    "getUserEraBalance(string,address,uint256)": "933c9a24",
    "getUserEraFee(address,uint256)": "3f1fb67c",
    "getUserFee(string,address)": "c18e4647",
    "getUserInfo(address)": "6386c1c7",
    "getUserNfts(address)": "7908d009",
    "getUtilAmount(string,uint256)": "5aab9977",
    "getUtilsList()": "6b20dcde",
    "grantRole(bytes32,address)": "2f2ff15d",
    "hasRole(bytes32,address)": "91d14854",
    "haveUtil(string)": "129ba574",
    "initialize(address,address,address,address)": "f8c8765e",
    "isUnique(string)": "72ee19a2",
    "isUtilRemoved(string)": "63caec3c",
    "liquidStaking()": "cfc1ef77",
    "multiTransferDnt(string[],address,address,uint256[])": "9ae61238",
    "nAstr()": "f587f521",
    "removeManager(address)": "ac18de43",
    "removeUtility(string)": "e00e1069",
    "removeUtilityByAddress(address)": "71845175",
    "renounceRole(bytes32,address)": "36568abe",
    "revokeRole(bytes32,address)": "d547741f",
    "supportsInterface(bytes4)": "01ffc9a7",
    "transferDnt(string,address,address,uint256)": "f42ff803",
    "transferNft(string,address,address,uint256)": "09e14118",
    "updateUser(string,address,uint256,uint256)": "fb35f987",
    "updateUserFee(address,uint8,uint256)": "0cbd535e",
    "updates()": "68a82ef6",
    "users(address)": "a87430ba",
    "utilId(string)": "52cab13d",
    "utils(string)": "f268b2c1"
  },
  "id": 15
}