{
  "abi": [
    {
      "anonymous": false,
      "inputs": [
        {
          "indexed": true,
          "internalType": "uint256",
          "name": "amount",
          "type": "uint256"
        },
        {
          "indexed": true,
          "internalType": "uint256",
          "name": "era",
          "type": "uint256"
        },
        {
          "indexed": true,
          "internalType": "bytes",
          "name": "reason",
          "type": "bytes"
        }
      ],
      "name": "ClaimDappError",
      "type": "event"
    },
    {
      "anonymous": false,
      "inputs": [
        {
          "indexed": false,
          "internalType": "uint256",
          "name": "eraStakerReward",
          "type": "uint256"
        },
        {
          "indexed": true,
          "internalType": "uint256",
          "name": "_era",
          "type": "uint256"
        }
      ],
      "name": "ClaimDappSuccess",
      "type": "event"
    },
    {
      "anonymous": false,
      "inputs": [
        {
          "indexed": true,
          "internalType": "string",
          "name": "utility",
          "type": "string"
        },
        {
          "indexed": true,
          "internalType": "uint256",
          "name": "era",
          "type": "uint256"
        },
        {
          "indexed": true,
          "internalType": "bytes",
          "name": "reason",
          "type": "bytes"
        }
      ],
      "name": "ClaimStakerError",
      "type": "event"
    },
    {
      "anonymous": false,
      "inputs": [
        {
          "indexed": true,
          "internalType": "uint256",
          "name": "era",
          "type": "uint256"
        },
        {
          "indexed": false,
          "internalType": "uint256",
          "name": "lastClaimed",
          "type": "uint256"
        }
      ],
      "name": "ClaimStakerSuccess",
      "type": "event"
    },
    {
      "anonymous": false,
      "inputs": [
        {
          "indexed": true,
          "internalType": "address",
          "name": "user",
          "type": "address"
        },
        {
          "indexed": false,
          "internalType": "uint256",
          "name": "amount",
          "type": "uint256"
        }
      ],
      "name": "Claimed",
      "type": "event"
    },
    {
      "anonymous": false,
      "inputs": [
        {
          "indexed": true,
          "internalType": "address",
          "name": "user",
          "type": "address"
        },
        {
          "indexed": true,
          "internalType": "string",
          "name": "utility",
          "type": "string"
        },
        {
          "indexed": false,
          "internalType": "uint256",
          "name": "amount",
          "type": "uint256"
        }
      ],
      "name": "ClaimedFromUtility",
      "type": "event"
    },
    {
      "anonymous": false,
      "inputs": [
        {
          "indexed": true,
          "internalType": "address",
          "name": "sender",
          "type": "address"
        },
        {
          "indexed": false,
          "internalType": "uint256",
          "name": "value",
          "type": "uint256"
        }
      ],
      "name": "FillRewardPool",
      "type": "event"
    },
    {
      "anonymous": false,
      "inputs": [
        {
          "indexed": true,
          "internalType": "address",
          "name": "sender",
          "type": "address"
        },
        {
          "indexed": false,
          "internalType": "uint256",
          "name": "value",
          "type": "uint256"
        }
      ],
      "name": "FillUnbonded",
      "type": "event"
    },
    {
      "anonymous": false,
      "inputs": [
        {
          "indexed": true,
          "internalType": "address",
          "name": "sender",
          "type": "address"
        },
        {
          "indexed": false,
          "internalType": "uint256",
          "name": "value",
          "type": "uint256"
        }
      ],
      "name": "FillUnstaking",
      "type": "event"
    },
    {
      "anonymous": false,
      "inputs": [
        {
          "indexed": true,
          "internalType": "address",
          "name": "user",
          "type": "address"
        },
        {
          "indexed": true,
          "internalType": "string",
          "name": "utility",
          "type": "string"
        },
        {
          "indexed": false,
          "internalType": "uint256",
          "name": "amount",
          "type": "uint256"
        }
      ],
      "name": "HarvestRewards",
      "type": "event"
    },
    {
      "anonymous": false,
      "inputs": [
        {
          "indexed": false,
          "internalType": "uint8",
          "name": "version",
          "type": "uint8"
        }
      ],
      "name": "Initialized",
      "type": "event"
    },
    {
      "anonymous": false,
      "inputs": [
        {
          "indexed": true,
          "internalType": "bytes32",
          "name": "role",
          "type": "bytes32"
        },
        {
          "indexed": true,
          "internalType": "bytes32",
          "name": "previousAdminRole",
          "type": "bytes32"
        },
        {
          "indexed": true,
          "internalType": "bytes32",
          "name": "newAdminRole",
          "type": "bytes32"
        }
      ],
      "name": "RoleAdminChanged",
      "type": "event"
    },
    {
      "anonymous": false,
      "inputs": [
        {
          "indexed": true,
          "internalType": "bytes32",
          "name": "role",
          "type": "bytes32"
        },
        {
          "indexed": true,
          "internalType": "address",
          "name": "account",
          "type": "address"
        },
        {
          "indexed": true,
          "internalType": "address",
          "name": "sender",
          "type": "address"
        }
      ],
      "name": "RoleGranted",
      "type": "event"
    },
    {
      "anonymous": false,
      "inputs": [
        {
          "indexed": true,
          "internalType": "bytes32",
          "name": "role",
          "type": "bytes32"
        },
        {
          "indexed": true,
          "internalType": "address",
          "name": "account",
          "type": "address"
        },
        {
          "indexed": true,
          "internalType": "address",
          "name": "sender",
          "type": "address"
        }
      ],
      "name": "RoleRevoked",
      "type": "event"
    },
    {
      "anonymous": false,
      "inputs": [
        {
          "indexed": true,
          "internalType": "address",
          "name": "sender",
          "type": "address"
        },
        {
          "indexed": false,
          "internalType": "uint256",
          "name": "amount",
          "type": "uint256"
        }
      ],
      "name": "SetMinStakeAmount",
      "type": "event"
    },
    {
      "anonymous": false,
      "inputs": [
        {
          "indexed": true,
          "internalType": "address",
          "name": "user",
          "type": "address"
        },
        {
          "indexed": false,
          "internalType": "uint256",
          "name": "val",
          "type": "uint256"
        }
      ],
      "name": "Staked",
      "type": "event"
    },
    {
      "anonymous": false,
      "inputs": [
        {
          "indexed": true,
          "internalType": "address",
          "name": "user",
          "type": "address"
        },
        {
          "indexed": true,
          "internalType": "string",
          "name": "utility",
          "type": "string"
        },
        {
          "indexed": false,
          "internalType": "uint256",
          "name": "val",
          "type": "uint256"
        }
      ],
      "name": "StakedInUtility",
      "type": "event"
    },
    {
      "anonymous": false,
      "inputs": [
        {
          "indexed": true,
          "internalType": "address",
          "name": "sender",
          "type": "address"
        },
        {
          "indexed": true,
          "internalType": "uint256",
          "name": "era",
          "type": "uint256"
        }
      ],
      "name": "Synchronization",
      "type": "event"
    },
    {
      "anonymous": false,
      "inputs": [
        {
          "indexed": true,
          "internalType": "string",
          "name": "utility",
          "type": "string"
        },
        {
          "indexed": false,
          "internalType": "uint256",
          "name": "sum2unstake",
          "type": "uint256"
        },
        {
          "indexed": true,
          "internalType": "uint256",
          "name": "era",
          "type": "uint256"
        },
        {
          "indexed": true,
          "internalType": "bytes",
          "name": "reason",
          "type": "bytes"
        }
      ],
      "name": "UnbondAndUnstakeError",
      "type": "event"
    },
    {
      "anonymous": false,
      "inputs": [
        {
          "indexed": true,
          "internalType": "uint256",
          "name": "era",
          "type": "uint256"
        },
        {
          "indexed": false,
          "internalType": "uint256",
          "name": "sum2unstake",
          "type": "uint256"
        }
      ],
      "name": "UnbondAndUnstakeSuccess",
      "type": "event"
    },
    {
      "anonymous": false,
      "inputs": [
        {
          "indexed": true,
          "internalType": "address",
          "name": "user",
          "type": "address"
        },
        {
          "indexed": false,
          "internalType": "uint256",
          "name": "amount",
          "type": "uint256"
        },
        {
          "indexed": false,
          "internalType": "bool",
          "name": "immediate",
          "type": "bool"
        }
      ],
      "name": "Unstaked",
      "type": "event"
    },
    {
      "anonymous": false,
      "inputs": [
        {
          "indexed": true,
          "internalType": "address",
          "name": "user",
          "type": "address"
        },
        {
          "indexed": true,
          "internalType": "string",
          "name": "utility",
          "type": "string"
        },
        {
          "indexed": false,
          "internalType": "uint256",
          "name": "amount",
          "type": "uint256"
        },
        {
          "indexed": false,
          "internalType": "bool",
          "name": "immediate",
          "type": "bool"
        }
      ],
      "name": "UnstakedFromUtility",
      "type": "event"
    },
    {
      "anonymous": false,
      "inputs": [
        {
          "indexed": false,
          "internalType": "uint256",
          "name": "amount",
          "type": "uint256"
        }
      ],
      "name": "WithdrawRevenue",
      "type": "event"
    },
    {
      "anonymous": false,
      "inputs": [
        {
          "indexed": true,
          "internalType": "uint256",
          "name": "_era",
          "type": "uint256"
        },
        {
          "indexed": true,
          "internalType": "bytes",
          "name": "reason",
          "type": "bytes"
        }
      ],
      "name": "WithdrawUnbondedError",
      "type": "event"
    },
    {
      "anonymous": false,
      "inputs": [
        {
          "indexed": true,
          "internalType": "uint256",
          "name": "_era",
          "type": "uint256"
        }
      ],
      "name": "WithdrawUnbondedSuccess",
      "type": "event"
    },
    {
      "anonymous": false,
      "inputs": [
        {
          "indexed": true,
          "internalType": "address",
          "name": "user",
          "type": "address"
        },
        {
          "indexed": false,
          "internalType": "uint256",
          "name": "val",
          "type": "uint256"
        }
      ],
      "name": "Withdrawn",
      "type": "event"
    },
    {
      "inputs": [],
      "name": "DAPPS_STAKING",
      "outputs": [
        {
          "internalType": "contract DappsStaking",
          "name": "",
          "type": "address"
        }
      ],
      "stateMutability": "view",
      "type": "function"
    },
    {
      "inputs": [],
      "name": "DEFAULT_ADMIN_ROLE",
      "outputs": [
        {
          "internalType": "bytes32",
          "name": "",
          "type": "bytes32"
        }
      ],
      "stateMutability": "view",
      "type": "function"
    },
    {
      "inputs": [],
      "name": "DNTname",
      "outputs": [
        {
          "internalType": "string",
          "name": "",
          "type": "string"
        }
      ],
      "stateMutability": "view",
      "type": "function"
    },
    {
      "inputs": [],
      "name": "MANAGEMENT_FEE",
      "outputs": [
        {
          "internalType": "uint8",
          "name": "",
          "type": "uint8"
        }
      ],
      "stateMutability": "view",
      "type": "function"
    },
    {
      "inputs": [],
      "name": "MANAGER",
      "outputs": [
        {
          "internalType": "bytes32",
          "name": "",
          "type": "bytes32"
        }
      ],
      "stateMutability": "view",
      "type": "function"
    },
    {
      "inputs": [],
      "name": "REVENUE_FEE",
      "outputs": [
        {
          "internalType": "uint8",
          "name": "",
          "type": "uint8"
        }
      ],
      "stateMutability": "view",
      "type": "function"
    },
    {
      "inputs": [],
      "name": "REWARDS_PRECISION",
      "outputs": [
        {
          "internalType": "uint256",
          "name": "",
          "type": "uint256"
        }
      ],
      "stateMutability": "view",
      "type": "function"
    },
    {
      "inputs": [],
      "name": "UNSTAKING_FEE",
      "outputs": [
        {
          "internalType": "uint8",
          "name": "",
          "type": "uint8"
        }
      ],
      "stateMutability": "view",
      "type": "function"
    },
    {
      "inputs": [
        {
          "internalType": "uint256",
          "name": "",
          "type": "uint256"
        }
      ],
      "name": "accumulatedRewardsPerShare",
      "outputs": [
        {
          "internalType": "uint256",
          "name": "",
          "type": "uint256"
        }
      ],
      "stateMutability": "view",
      "type": "function"
    },
    {
      "inputs": [],
      "name": "adaptersDistr",
      "outputs": [
        {
          "internalType": "contract IAdaptersDistributor",
          "name": "",
          "type": "address"
        }
      ],
      "stateMutability": "view",
      "type": "function"
    },
    {
      "inputs": [
        {
          "internalType": "address",
          "name": "_addr",
          "type": "address"
        },
        {
          "internalType": "string",
          "name": "_utility",
          "type": "string"
        }
      ],
      "name": "addStaker",
      "outputs": [],
      "stateMutability": "nonpayable",
      "type": "function"
    },
    {
      "inputs": [
        {
          "internalType": "address",
          "name": "",
          "type": "address"
        },
        {
          "internalType": "uint256",
          "name": "",
          "type": "uint256"
        }
      ],
      "name": "buffer",
      "outputs": [
        {
          "internalType": "uint256",
          "name": "",
          "type": "uint256"
        }
      ],
      "stateMutability": "view",
      "type": "function"
    },
    {
      "inputs": [
        {
          "internalType": "string[]",
          "name": "_utilities",
          "type": "string[]"
        },
        {
          "internalType": "uint256[]",
          "name": "_amounts",
          "type": "uint256[]"
        }
      ],
      "name": "claim",
      "outputs": [],
      "stateMutability": "nonpayable",
      "type": "function"
    },
    {
      "inputs": [],
      "name": "claimAll",
      "outputs": [],
      "stateMutability": "nonpayable",
      "type": "function"
    },
    {
      "inputs": [],
      "name": "claimingTxLimit",
      "outputs": [
        {
          "internalType": "uint256",
          "name": "",
          "type": "uint256"
        }
      ],
      "stateMutability": "view",
      "type": "function"
    },
    {
      "inputs": [],
      "name": "currentEra",
      "outputs": [
        {
          "internalType": "uint256",
          "name": "",
          "type": "uint256"
        }
      ],
      "stateMutability": "view",
      "type": "function"
    },
    {
      "inputs": [
        {
          "internalType": "string",
          "name": "",
          "type": "string"
        }
      ],
      "name": "dapps",
      "outputs": [
        {
          "internalType": "address",
          "name": "dappAddress",
          "type": "address"
        },
        {
          "internalType": "uint256",
          "name": "stakedBalance",
          "type": "uint256"
        },
        {
          "internalType": "uint256",
          "name": "sum2unstake",
          "type": "uint256"
        }
      ],
      "stateMutability": "view",
      "type": "function"
    },
    {
      "inputs": [
        {
          "internalType": "uint256",
          "name": "",
          "type": "uint256"
        }
      ],
      "name": "dappsList",
      "outputs": [
        {
          "internalType": "string",
          "name": "",
          "type": "string"
        }
      ],
      "stateMutability": "view",
      "type": "function"
    },
    {
      "inputs": [
        {
          "internalType": "string",
          "name": "",
          "type": "string"
        }
      ],
      "name": "deactivationEra",
      "outputs": [
        {
          "internalType": "uint256",
          "name": "",
          "type": "uint256"
        }
      ],
      "stateMutability": "view",
      "type": "function"
    },
    {
      "inputs": [],
      "name": "distr",
      "outputs": [
        {
          "internalType": "contract NDistributor",
          "name": "",
          "type": "address"
        }
      ],
      "stateMutability": "view",
      "type": "function"
    },
    {
      "inputs": [],
      "name": "dntToken",
      "outputs": [
        {
          "internalType": "address",
          "name": "",
          "type": "address"
        }
      ],
      "stateMutability": "view",
      "type": "function"
    },
    {
      "inputs": [
        {
          "internalType": "uint256",
          "name": "",
          "type": "uint256"
        }
      ],
      "name": "eraBuffer",
      "outputs": [
        {
          "internalType": "uint256",
          "name": "",
          "type": "uint256"
        }
      ],
      "stateMutability": "view",
      "type": "function"
    },
    {
      "inputs": [
        {
          "internalType": "uint256",
          "name": "",
          "type": "uint256"
        }
      ],
      "name": "eraRevenue",
      "outputs": [
        {
          "internalType": "bool",
          "name": "done",
          "type": "bool"
        },
        {
          "internalType": "uint256",
          "name": "val",
          "type": "uint256"
        }
      ],
      "stateMutability": "view",
      "type": "function"
    },
    {
      "inputs": [
        {
          "internalType": "uint256",
          "name": "",
          "type": "uint256"
        }
      ],
      "name": "eraRewards",
      "outputs": [
        {
          "internalType": "uint256",
          "name": "",
          "type": "uint256"
        }
      ],
      "stateMutability": "view",
      "type": "function"
    },
    {
      "inputs": [],
      "name": "eraShotsLimit",
      "outputs": [
        {
          "internalType": "uint256",
          "name": "",
          "type": "uint256"
        }
      ],
      "stateMutability": "view",
      "type": "function"
    },
    {
      "inputs": [
        {
          "internalType": "uint256",
          "name": "",
          "type": "uint256"
        }
      ],
      "name": "eraStakerReward",
      "outputs": [
        {
          "internalType": "bool",
          "name": "done",
          "type": "bool"
        },
        {
          "internalType": "uint256",
          "name": "val",
          "type": "uint256"
        }
      ],
      "stateMutability": "view",
      "type": "function"
    },
    {
      "inputs": [
        {
          "internalType": "uint256",
          "name": "",
          "type": "uint256"
        }
      ],
      "name": "eraUnstaked",
      "outputs": [
        {
          "internalType": "bool",
          "name": "done",
          "type": "bool"
        },
        {
          "internalType": "uint256",
          "name": "val",
          "type": "uint256"
        }
      ],
      "stateMutability": "view",
      "type": "function"
    },
    {
      "inputs": [
        {
          "internalType": "bytes32",
          "name": "role",
          "type": "bytes32"
        }
      ],
      "name": "getRoleAdmin",
      "outputs": [
        {
          "internalType": "bytes32",
          "name": "",
          "type": "bytes32"
        }
      ],
      "stateMutability": "view",
      "type": "function"
    },
    {
      "inputs": [
        {
          "internalType": "bytes32",
          "name": "role",
          "type": "bytes32"
        },
        {
          "internalType": "address",
          "name": "account",
          "type": "address"
        }
      ],
      "name": "grantRole",
      "outputs": [],
      "stateMutability": "nonpayable",
      "type": "function"
    },
    {
      "inputs": [
        {
          "internalType": "bytes32",
          "name": "role",
          "type": "bytes32"
        },
        {
          "internalType": "address",
          "name": "account",
          "type": "address"
        }
      ],
      "name": "hasRole",
      "outputs": [
        {
          "internalType": "bool",
          "name": "",
          "type": "bool"
        }
      ],
      "stateMutability": "view",
      "type": "function"
    },
    {
      "inputs": [
        {
          "internalType": "string",
          "name": "",
          "type": "string"
        }
      ],
      "name": "haveUtility",
      "outputs": [
        {
          "internalType": "bool",
          "name": "",
          "type": "bool"
        }
      ],
      "stateMutability": "view",
      "type": "function"
    },
    {
      "inputs": [
        {
          "internalType": "string",
          "name": "",
          "type": "string"
        }
      ],
      "name": "isActive",
      "outputs": [
        {
          "internalType": "bool",
          "name": "",
          "type": "bool"
        }
      ],
      "stateMutability": "view",
      "type": "function"
    },
    {
      "inputs": [
        {
          "internalType": "address",
          "name": "",
          "type": "address"
        }
      ],
      "name": "isLpToken",
      "outputs": [
        {
          "internalType": "bool",
          "name": "",
          "type": "bool"
        }
      ],
      "stateMutability": "view",
      "type": "function"
    },
    {
      "inputs": [
        {
          "internalType": "address",
          "name": "",
          "type": "address"
        }
      ],
      "name": "isPartner",
      "outputs": [
        {
          "internalType": "bool",
          "name": "",
          "type": "bool"
        }
      ],
      "stateMutability": "view",
      "type": "function"
    },
    {
      "inputs": [
        {
          "internalType": "address",
          "name": "",
          "type": "address"
        }
      ],
      "name": "isStaker",
      "outputs": [
        {
          "internalType": "bool",
          "name": "",
          "type": "bool"
        }
      ],
      "stateMutability": "view",
      "type": "function"
    },
    {
      "inputs": [],
      "name": "isUnstakes",
      "outputs": [
        {
          "internalType": "bool",
          "name": "",
          "type": "bool"
        }
      ],
      "stateMutability": "view",
      "type": "function"
    },
    {
      "inputs": [],
      "name": "lastClaimed",
      "outputs": [
        {
          "internalType": "uint256",
          "name": "",
          "type": "uint256"
        }
      ],
      "stateMutability": "view",
      "type": "function"
    },
    {
      "inputs": [],
      "name": "lastEraTotalBalance",
      "outputs": [
        {
          "internalType": "uint256",
          "name": "",
          "type": "uint256"
        }
      ],
      "stateMutability": "view",
      "type": "function"
    },
    {
      "inputs": [],
      "name": "lastStaked",
      "outputs": [
        {
          "internalType": "uint256",
          "name": "",
          "type": "uint256"
        }
      ],
      "stateMutability": "view",
      "type": "function"
    },
    {
      "inputs": [],
      "name": "lastUnstaked",
      "outputs": [
        {
          "internalType": "uint256",
          "name": "",
          "type": "uint256"
        }
      ],
      "stateMutability": "view",
      "type": "function"
    },
    {
      "inputs": [],
      "name": "lastUpdated",
      "outputs": [
        {
          "internalType": "uint256",
          "name": "",
          "type": "uint256"
        }
      ],
      "stateMutability": "view",
      "type": "function"
    },
    {
      "inputs": [],
      "name": "liquidStakingManager",
      "outputs": [
        {
          "internalType": "address",
          "name": "",
          "type": "address"
        }
      ],
      "stateMutability": "view",
      "type": "function"
    },
    {
      "inputs": [
        {
          "internalType": "address",
          "name": "",
          "type": "address"
        }
      ],
      "name": "lpHandlers",
      "outputs": [
        {
          "internalType": "address",
          "name": "",
          "type": "address"
        }
      ],
      "stateMutability": "view",
      "type": "function"
    },
    {
      "inputs": [
        {
          "internalType": "uint256",
          "name": "",
          "type": "uint256"
        }
      ],
      "name": "lpTokens",
      "outputs": [
        {
          "internalType": "address",
          "name": "",
          "type": "address"
        }
      ],
      "stateMutability": "view",
      "type": "function"
    },
    {
      "inputs": [],
      "name": "minStakeAmount",
      "outputs": [
        {
          "internalType": "uint256",
          "name": "",
          "type": "uint256"
        }
      ],
      "stateMutability": "view",
      "type": "function"
    },
    {
      "inputs": [],
      "name": "nftDistr",
      "outputs": [
        {
          "internalType": "contract INFTDistributor",
          "name": "",
          "type": "address"
        }
      ],
      "stateMutability": "view",
      "type": "function"
    },
    {
      "inputs": [
        {
          "internalType": "address",
          "name": "",
          "type": "address"
        }
      ],
      "name": "partnerIdx",
      "outputs": [
        {
          "internalType": "uint256",
          "name": "",
          "type": "uint256"
        }
      ],
      "stateMutability": "view",
      "type": "function"
    },
    {
      "inputs": [
        {
          "internalType": "uint256",
          "name": "",
          "type": "uint256"
        }
      ],
      "name": "partners",
      "outputs": [
        {
          "internalType": "address",
          "name": "",
          "type": "address"
        }
      ],
      "stateMutability": "view",
      "type": "function"
    },
    {
      "inputs": [],
      "name": "partnersLimit",
      "outputs": [
        {
          "internalType": "uint256",
          "name": "",
          "type": "uint256"
        }
      ],
      "stateMutability": "view",
      "type": "function"
    },
    {
      "inputs": [],
      "name": "paused",
      "outputs": [
        {
          "internalType": "bool",
          "name": "",
          "type": "bool"
        }
      ],
      "stateMutability": "view",
      "type": "function"
    },
    {
      "inputs": [
        {
          "internalType": "string",
          "name": "_utility",
          "type": "string"
        },
        {
          "internalType": "address",
          "name": "_user",
          "type": "address"
        }
      ],
      "name": "previewUserRewards",
      "outputs": [
        {
          "internalType": "uint256",
          "name": "",
          "type": "uint256"
        }
      ],
      "stateMutability": "view",
      "type": "function"
    },
    {
      "inputs": [
        {
          "internalType": "bytes32",
          "name": "role",
          "type": "bytes32"
        },
        {
          "internalType": "address",
          "name": "account",
          "type": "address"
        }
      ],
      "name": "renounceRole",
      "outputs": [],
      "stateMutability": "nonpayable",
      "type": "function"
    },
    {
      "inputs": [
        {
          "internalType": "bytes32",
          "name": "role",
          "type": "bytes32"
        },
        {
          "internalType": "address",
          "name": "account",
          "type": "address"
        }
      ],
      "name": "revokeRole",
      "outputs": [],
      "stateMutability": "nonpayable",
      "type": "function"
    },
    {
      "inputs": [],
      "name": "rewardPool",
      "outputs": [
        {
          "internalType": "uint256",
          "name": "",
          "type": "uint256"
        }
      ],
      "stateMutability": "view",
      "type": "function"
    },
    {
      "inputs": [],
      "name": "setFreeDest",
      "outputs": [],
      "stateMutability": "nonpayable",
      "type": "function"
    },
    {
      "inputs": [
        {
          "internalType": "string[]",
          "name": "_utilities",
          "type": "string[]"
        },
        {
          "internalType": "uint256[]",
          "name": "_amounts",
          "type": "uint256[]"
        }
      ],
      "name": "stake",
      "outputs": [],
      "stateMutability": "payable",
      "type": "function"
    },
    {
      "inputs": [
        {
          "internalType": "uint256",
          "name": "",
          "type": "uint256"
        }
      ],
      "name": "stakers",
      "outputs": [
        {
          "internalType": "address",
          "name": "",
          "type": "address"
        }
      ],
      "stateMutability": "view",
      "type": "function"
    },
    {
      "inputs": [
        {
          "internalType": "address",
          "name": "",
          "type": "address"
        }
      ],
      "name": "stakes",
      "outputs": [
        {
          "internalType": "uint256",
          "name": "totalBalance",
          "type": "uint256"
        },
        {
          "internalType": "uint256",
          "name": "eraStarted",
          "type": "uint256"
        }
      ],
      "stateMutability": "view",
      "type": "function"
    },
    {
      "inputs": [],
      "name": "sum2unstake",
      "outputs": [
        {
          "internalType": "uint256",
          "name": "",
          "type": "uint256"
        }
      ],
      "stateMutability": "view",
      "type": "function"
    },
    {
      "inputs": [
        {
          "internalType": "bytes4",
          "name": "interfaceId",
          "type": "bytes4"
        }
      ],
      "name": "supportsInterface",
      "outputs": [
        {
          "internalType": "bool",
          "name": "",
          "type": "bool"
        }
      ],
      "stateMutability": "view",
      "type": "function"
    },
    {
      "inputs": [
        {
          "internalType": "uint256",
          "name": "_era",
          "type": "uint256"
        }
      ],
      "name": "sync",
      "outputs": [],
      "stateMutability": "nonpayable",
      "type": "function"
    },
    {
      "inputs": [
        {
          "internalType": "address",
          "name": "_user",
          "type": "address"
        },
        {
          "internalType": "string[]",
          "name": "_utilities",
          "type": "string[]"
        }
      ],
      "name": "syncHarvest",
      "outputs": [],
      "stateMutability": "nonpayable",
      "type": "function"
    },
    {
      "inputs": [],
      "name": "totalBalance",
      "outputs": [
        {
          "internalType": "uint256",
          "name": "",
          "type": "uint256"
        }
      ],
      "stateMutability": "view",
      "type": "function"
    },
    {
      "inputs": [],
      "name": "totalRevenue",
      "outputs": [
        {
          "internalType": "uint256",
          "name": "",
          "type": "uint256"
        }
      ],
      "stateMutability": "view",
      "type": "function"
    },
    {
      "inputs": [
        {
          "internalType": "address",
          "name": "",
          "type": "address"
        }
      ],
      "name": "totalUserRewards",
      "outputs": [
        {
          "internalType": "uint256",
          "name": "",
          "type": "uint256"
        }
      ],
      "stateMutability": "view",
      "type": "function"
    },
    {
      "inputs": [],
      "name": "unbondedPool",
      "outputs": [
        {
          "internalType": "uint256",
          "name": "",
          "type": "uint256"
        }
      ],
      "stateMutability": "view",
      "type": "function"
    },
    {
      "inputs": [
        {
          "internalType": "string[]",
          "name": "_utilities",
          "type": "string[]"
        },
        {
          "internalType": "uint256[]",
          "name": "_amounts",
          "type": "uint256[]"
        },
        {
          "internalType": "bool",
          "name": "_immediate",
          "type": "bool"
        }
      ],
      "name": "unstake",
      "outputs": [],
      "stateMutability": "nonpayable",
      "type": "function"
    },
    {
      "inputs": [],
      "name": "unstakingPool",
      "outputs": [
        {
          "internalType": "uint256",
          "name": "",
          "type": "uint256"
        }
      ],
      "stateMutability": "view",
      "type": "function"
    },
    {
      "inputs": [
        {
          "internalType": "string",
          "name": "_utility",
          "type": "string"
        },
        {
          "internalType": "address",
          "name": "_user",
          "type": "address"
        }
      ],
      "name": "updateUserBalanceInAdapter",
      "outputs": [],
      "stateMutability": "nonpayable",
      "type": "function"
    },
    {
      "inputs": [
        {
          "internalType": "string",
          "name": "_utility",
          "type": "string"
        },
        {
          "internalType": "address",
          "name": "_user",
          "type": "address"
        }
      ],
      "name": "updateUserBalanceInUtility",
      "outputs": [],
      "stateMutability": "nonpayable",
      "type": "function"
    },
    {
      "inputs": [
        {
          "internalType": "address",
          "name": "",
          "type": "address"
        },
        {
          "internalType": "uint256",
          "name": "",
          "type": "uint256"
        },
        {
          "internalType": "uint256",
          "name": "",
          "type": "uint256"
        }
      ],
      "name": "usersShotsPerEra",
      "outputs": [
        {
          "internalType": "uint256",
          "name": "",
          "type": "uint256"
        }
      ],
      "stateMutability": "view",
      "type": "function"
    },
    {
      "inputs": [],
      "name": "utilName",
      "outputs": [
        {
          "internalType": "string",
          "name": "",
          "type": "string"
        }
      ],
      "stateMutability": "view",
      "type": "function"
    },
    {
      "inputs": [
        {
          "internalType": "uint256",
          "name": "_id",
          "type": "uint256"
        }
      ],
      "name": "withdraw",
      "outputs": [],
      "stateMutability": "nonpayable",
      "type": "function"
    },
    {
      "inputs": [],
      "name": "withdrawBlock",
      "outputs": [
        {
          "internalType": "uint256",
          "name": "",
          "type": "uint256"
        }
      ],
      "stateMutability": "view",
      "type": "function"
    },
    {
      "inputs": [
        {
          "internalType": "address",
          "name": "",
          "type": "address"
        },
        {
          "internalType": "uint256",
          "name": "",
          "type": "uint256"
        }
      ],
      "name": "withdrawals",
      "outputs": [
        {
          "internalType": "uint256",
          "name": "val",
          "type": "uint256"
        },
        {
          "internalType": "uint256",
          "name": "eraReq",
          "type": "uint256"
        },
        {
          "internalType": "uint256",
          "name": "lag",
          "type": "uint256"
        }
      ],
      "stateMutability": "view",
      "type": "function"
    }
  ],
  "bytecode": {
    "object": "0x608060405234801561001057600080fd5b5061572580620000216000396000f3fe60806040526004361061043b5760003560e01c806386b3cd2611610234578063c4e137e71161012e578063da3bc958116100b6578063e932b37b1161007a578063e932b37b14610e21578063eb51a44c14610e41578063f128f63114610e7b578063f188768414610e91578063fd5e6dd114610ea757600080fd5b8063da3bc95814610d1f578063dcf425df14610d3f578063e09c195414610db5578063e2e836f814610deb578063e77ee34514610e0b57600080fd5b8063d0b06f5d116100fd578063d0b06f5d14610c9f578063d1058e5914610cb5578063d547741f14610cca578063d6356ff414610cea578063d78cfe0614610d0a57600080fd5b8063c4e137e714610bf4578063c71367b514610c2e578063c78731dc14610c44578063c8902a2114610c6457600080fd5b8063ab486929116101bc578063b8d7cac911610180578063b8d7cac914610b5e578063bd1bbd3b14610b7e578063bf2d9e0b14610b9e578063c21a727614610bb4578063c3b49d0414610bd457600080fd5b8063ab48692914610ae7578063ad7a672f14610afc578063adc1b95614610b12578063af66c36b14610b28578063b1357bf914610b3e57600080fd5b8063a217fddf11610203578063a217fddf14610a38578063a22eae1b14610a4d578063a2ce0f4a14610a60578063a44bca8e14610a8d578063a5ae02ac14610aba57600080fd5b806386b3cd26146109ba5780638c0f9aac146109d357806391d1485414610a03578063973628f614610a2357600080fd5b80632f2ff15d1161034557806359601ebc116102cd57806366666aa91161029157806366666aa9146109035780636bbea766146109195780636f1e8533146109395780636f5e4488146109695780636f68f2e91461097f57600080fd5b806359601ebc1461088257806359b40f41146108975780635c975abb146108ad5780635ca5914e146108ce5780635f1554e3146108ee57600080fd5b8063422b107711610314578063422b1077146107bc5780634421bd1e146107f75780634d6174511461081e5780635495ec811461083457806354b057f91461084a57600080fd5b80632f2ff15d1461073a57806336568abe1461075a578063386df6eb1461077a57806340bf8a8d1461079a57600080fd5b80631dc00785116103c857806324f0f5481161039757806324f0f548146106575780632a14d8f4146106775780632e1a7d4d146106af5780632e4a4a17146106cf5780632ea31bf6146106e957600080fd5b80631dc00785146105c45780631f19014b146105f157806324025b1914610611578063248a9ca31461062757600080fd5b806312a12a061161040f57806312a12a061461050157806312b3b4e61461051757806316934fc4146105395780631b2df850146105825780631bb5e2dc146105a457600080fd5b8062179fbd1461044057806301ffc9a71461046957806305e2a217146104995780630f24ca7d146104d1575b600080fd5b34801561044c57600080fd5b5061045660b75481565b6040519081526020015b60405180910390f35b34801561047557600080fd5b50610489610484366004615045565b610ec7565b6040519015158152602001610460565b3480156104a557600080fd5b5060a6546104b9906001600160a01b031681565b6040516001600160a01b039091168152602001610460565b3480156104dd57600080fd5b506104896104ec366004614cb0565b60aa6020526000908152604090205460ff1681565b34801561050d57600080fd5b5061045660a85481565b34801561052357600080fd5b50610537610532366004614cca565b610efe565b005b34801561054557600080fd5b5061056d610554366004614cb0565b609e602052600090815260409020805460019091015482565b60408051928352602083019190915201610460565b34801561058e57600080fd5b506104566000805160206156d083398151915281565b3480156105b057600080fd5b506104b96105bf366004615002565b610fc2565b3480156105d057600080fd5b506104566105df366004615002565b60ac6020526000908152604090205481565b3480156105fd57600080fd5b5061053761060c366004614e99565b610fec565b34801561061d57600080fd5b50610456609a5481565b34801561063357600080fd5b50610456610642366004615002565b60009081526065602052604090206001015490565b34801561066357600080fd5b50610537610672366004614eef565b6110f3565b34801561068357600080fd5b5061045661069236600461506d565b805160208183018101805160c38252928201919093012091525481565b3480156106bb57600080fd5b506105376106ca366004615002565b6116c2565b3480156106db57600080fd5b5060b6546104899060ff1681565b3480156106f557600080fd5b50610723610704366004615002565b60a1602052600090815260409020805460019091015460ff9091169082565b604080519215158352602083019190915201610460565b34801561074657600080fd5b5061053761075536600461501a565b6118c2565b34801561076657600080fd5b5061053761077536600461501a565b6118ec565b34801561078657600080fd5b5061053761079536600461509f565b61196a565b3480156107a657600080fd5b506107af6119b3565b604051610460919061539f565b3480156107c857600080fd5b506107dc6107d7366004614d56565b611a41565b60408051938452602084019290925290820152606001610460565b34801561080357600080fd5b5061080c600981565b60405160ff9091168152602001610460565b34801561082a57600080fd5b5061045660bb5481565b34801561084057600080fd5b5061045660a95481565b34801561085657600080fd5b50610456610865366004614d56565b60ae60209081526000928352604080842090915290825290205481565b34801561088e57600080fd5b5061080c600181565b3480156108a357600080fd5b506104b961500181565b3480156108b957600080fd5b5060c75461048990600160a01b900460ff1681565b3480156108da57600080fd5b5060c7546104b9906001600160a01b031681565b3480156108fa57600080fd5b5061080c600a81565b34801561090f57600080fd5b50610456609c5481565b34801561092557600080fd5b50609d546104b9906001600160a01b031681565b34801561094557600080fd5b50610489610954366004614cb0565b60a76020526000908152604090205460ff1681565b34801561097557600080fd5b50610456609b5481565b34801561098b57600080fd5b5061048961099a36600461506d565b805160208183018101805160c18252928201919093012091525460ff1681565b3480156109c657600080fd5b5061045664e8d4a5100081565b3480156109df57600080fd5b506104896109ee366004614cb0565b60b86020526000908152604090205460ff1681565b348015610a0f57600080fd5b50610489610a1e36600461501a565b611a83565b348015610a2f57600080fd5b50610456611aae565b348015610a4457600080fd5b50610456600081565b610537610a5b366004614e99565b611b28565b348015610a6c57600080fd5b50610456610a7b366004615002565b60c46020526000908152604090205481565b348015610a9957600080fd5b50610456610aa8366004614cb0565b60b06020526000908152604090205481565b348015610ac657600080fd5b50610456610ad5366004614cb0565b60b96020526000908152604090205481565b348015610af357600080fd5b506107af612182565b348015610b0857600080fd5b5061045660995481565b348015610b1e57600080fd5b5061045660b35481565b348015610b3457600080fd5b5061045660b55481565b348015610b4a57600080fd5b50610537610b59366004615002565b61218f565b348015610b6a57600080fd5b50610456610b7936600461509f565b612237565b348015610b8a57600080fd5b5060c5546104b9906001600160a01b031681565b348015610baa57600080fd5b5061045660ad5481565b348015610bc057600080fd5b50610456610bcf366004615002565b61229b565b348015610be057600080fd5b506104b9610bef366004615002565b6122b2565b348015610c0057600080fd5b50610723610c0f366004615002565b60a0602052600090815260409020805460019091015460ff9091169082565b348015610c3a57600080fd5b5061045660a35481565b348015610c5057600080fd5b50610537610c5f36600461509f565b6122c2565b348015610c7057600080fd5b50610489610c7f36600461506d565b805160208183018101805160c28252928201919093012091525460ff1681565b348015610cab57600080fd5b5061045660a45481565b348015610cc157600080fd5b506105376123d9565b348015610cd657600080fd5b50610537610ce536600461501a565b612762565b348015610cf657600080fd5b50610456610d05366004614d7f565b612787565b348015610d1657600080fd5b506105376127c5565b348015610d2b57600080fd5b506107af610d3a366004615002565b612838565b348015610d4b57600080fd5b50610d90610d5a36600461506d565b805160208183018101805160c0825292820191909301209152805460018201546002909201546001600160a01b03909116919083565b604080516001600160a01b039094168452602084019290925290820152606001610460565b348015610dc157600080fd5b506104b9610dd0366004614cb0565b60b1602052600090815260409020546001600160a01b031681565b348015610df757600080fd5b5060c6546104b9906001600160a01b031681565b348015610e1757600080fd5b5061045660bc5481565b348015610e2d57600080fd5b50610537610e3c366004614d15565b612863565b348015610e4d57600080fd5b50610723610e5c366004615002565b60a2602052600090815260409020805460019091015460ff9091169082565b348015610e8757600080fd5b5061045660b25481565b348015610e9d57600080fd5b5061045660b45481565b348015610eb357600080fd5b506104b9610ec2366004615002565b6129cd565b60006001600160e01b03198216637965db0b60e01b1480610ef857506301ffc9a760e01b6001600160e01b03198316145b92915050565b6000805160206156d0833981519152610f16816129dd565b81518390839060005b81811015610f6a57610f58838281518110610f4a57634e487b7160e01b600052603260045260246000fd5b6020026020010151856129ea565b80610f628161567a565b915050610f1f565b5060005b81811015610fb957610fa7838281518110610f9957634e487b7160e01b600052603260045260246000fd5b602002602001015185612d55565b80610fb18161567a565b915050610f6e565b50505050505050565b60ab8181548110610fd257600080fd5b6000918252602090912001546001600160a01b0316905081565b818160008251116110185760405162461bcd60e51b815260040161100f90615487565b60405180910390fd5b80518251146110395760405162461bcd60e51b815260040161100f90615450565b6000611043611aae565b90508060a454146110575761105781612dd7565b84513390869060005b8181101561109d5761108b838281518110610f4a57634e487b7160e01b600052603260045260246000fd5b806110958161567a565b915050611060565b506110a88888612e00565b60005b818110156110e8576110d6838281518110610f9957634e487b7160e01b600052603260045260246000fd5b806110e08161567a565b9150506110ab565b505050505050505050565b828260008251116111165760405162461bcd60e51b815260040161100f90615487565b80518251146111375760405162461bcd60e51b815260040161100f90615450565b6000611141611aae565b90508060a454146111555761115581612dd7565b600080611160611aae565b885190915060005b818110156116595760c18a828151811061119257634e487b7160e01b600052603260045260246000fd5b60200260200101516040516111a79190615213565b9081526040519081900360200190205460ff166111f85760405162461bcd60e51b815260206004820152600f60248201526e556e6b6e6f776e207574696c69747960881b604482015260640161100f565b600089828151811061121a57634e487b7160e01b600052603260045260246000fd5b602002602001015111156116475760008a828151811061124a57634e487b7160e01b600052603260045260246000fd5b6020026020010151905060008a838151811061127657634e487b7160e01b600052603260045260246000fd5b6020908102919091010151609d5460405163e1d9b41760e01b81529192506000916001600160a01b039091169063e1d9b417906112bc90339087906098906004016152a4565b60206040518083038186803b1580156112d457600080fd5b505afa1580156112e8573d6000803e3d6000fd5b505050506040513d601f19601f8201168201806040525081019061130c91906150e1565b90508181101561135e5760405162461bcd60e51b815260206004820152601b60248201527f4e6f7420656e6f756768206e4153545220696e207574696c6974790000000000604482015260640161100f565b600060c0846040516113709190615213565b9081526020016040518091039020905061138a84336129ea565b611395818885613212565b828160020160008282546113a99190615567565b9250508190555082609960008282546113c291906155be565b92505081905550828160010160008282546113dd91906155be565b9091555050609d54604051632937555f60e21b81526001600160a01b039091169063a4dd557c9061141990339087908990609890600401615333565b600060405180830381600087803b15801561143357600080fd5b505af1158015611447573d6000803e3d6000fd5b505050508b156114fd5782609b5410156114a35760405162461bcd60e51b815260206004820152601760248201527f556e7374616b696e6720706f6f6c20647261696e656421000000000000000000604482015260640161100f565b60006114b060648561557f565b90508060ad60008282546114c49190615567565b9250508190555083609b60008282546114dd91906155be565b909155506114f790506114f082866155be565b33906132cf565b506115e5565b600061150a88600a61559f565b6004609a54600a61151b919061559f565b611525919061557f565b60a95461153390600a61559f565b61153d9190615567565b111561158e5761154e88600a61559f565b6004609a54600a61155f919061559f565b611569919061557f565b60a95461157790600a61559f565b6115819190615567565b61158b91906155be565b90505b336000908152609f6020908152604080832081516060810183528881528084018d81529281019586528154600181810184559286529390942093516003909302909301918255519181019190915590516002909101555b6115ef8389615567565b9750836040516115ff9190615213565b604080519182900382208583528e151560208401529133917f9ea511fbdfb8cad72fe86c90f2b4bd44693fb585a82c8719ca0c2ac8b4053c6b910160405180910390a3505050505b806116518161567a565b915050611168565b5082156110e8578260bd60010160008282546116759190615567565b909155505060408051848152881515602082015233917f4416ca74b4c9dd8d6070d91c267a6cf53734c0f343ced0ad02471ccb5417037e91015b60405180910390a2505050505050505050565b60006116cc611aae565b90508060a454146116e0576116e081612dd7565b336000908152609f6020526040812080548490811061170f57634e487b7160e01b600052603260045260246000fd5b60009182526020822060039091020180549092509061172c611aae565b90508260010154600014156117835760405162461bcd60e51b815260206004820152601a60248201527f5769746864726177616c20616c726561647920636c61696d6564000000000000604482015260640161100f565b6002830154609a5461179690600a61559f565b6117a09190615567565b60018401546117b090600a61559f565b6117bb83600a61559f565b6117c591906155be565b10156118135760405162461bcd60e51b815260206004820152601760248201527f4e6f7420656e6f75676820657261732070617373656421000000000000000000604482015260640161100f565b8160a354101561185e5760405162461bcd60e51b8152602060048201526016602482015275556e626f6e64656420706f6f6c20647261696e65642160501b604482015260640161100f565b8160a3600082825461187091906155be565b90915550506000600184015561188633836132cf565b60405182815233907f7084f5476618d8e60b11ef0d7d3f06914655adb8793e28ff7f018d4c76d505d59060200160405180910390a25050505050565b6000828152606560205260409020600101546118dd816129dd565b6118e783836133e8565b505050565b6001600160a01b038116331461195c5760405162461bcd60e51b815260206004820152602f60248201527f416363657373436f6e74726f6c3a2063616e206f6e6c792072656e6f756e636560448201526e103937b632b9903337b91039b2b63360891b606482015260840161100f565b611966828261346e565b5050565b609d546001600160a01b031633148061198d575060c6546001600160a01b031633145b6119a95760405162461bcd60e51b815260040161100f906154be565b6119668282612d55565b609880546119c09061563f565b80601f01602080910402602001604051908101604052809291908181526020018280546119ec9061563f565b8015611a395780601f10611a0e57610100808354040283529160200191611a39565b820191906000526020600020905b815481529060010190602001808311611a1c57829003601f168201915b505050505081565b609f6020528160005260406000208181548110611a5d57600080fd5b600091825260209091206003909102018054600182015460029092015490935090915083565b60009182526065602090815260408084206001600160a01b0393909316845291905290205460ff1690565b60006150016001600160a01b031663e608d80b6040518163ffffffff1660e01b815260040160206040518083038186803b158015611aeb57600080fd5b505afa158015611aff573d6000803e3d6000fd5b505050506040513d601f19601f82011682018060405250810190611b2391906150e1565b905090565b81816000825111611b4b5760405162461bcd60e51b815260040161100f90615487565b8051825114611b6c5760405162461bcd60e51b815260040161100f90615450565b6000611b76611aae565b90508060a45414611b8a57611b8a81612dd7565b845134906000805b82811015611ce25760c2898281518110611bbc57634e487b7160e01b600052603260045260246000fd5b6020026020010151604051611bd19190615213565b9081526040519081900360200190205460ff16611c225760405162461bcd60e51b815260206004820152600f60248201526e44617070206e6f742061637469766560881b604482015260640161100f565b60b454888281518110611c4557634e487b7160e01b600052603260045260246000fd5b60200260200101511015611c9b5760405162461bcd60e51b815260206004820152601760248201527f4e6f7420656e6f756768207374616b6520616d6f756e74000000000000000000604482015260640161100f565b878181518110611cbb57634e487b7160e01b600052603260045260246000fd5b602002602001015182611cce9190615567565b915080611cda8161567a565b915050611b92565b5060008111611d275760405162461bcd60e51b8152602060048201526011602482015270496e636f727265637420616d6f756e747360781b604482015260640161100f565b80831015611d695760405162461bcd60e51b815260206004820152600f60248201526e496e636f72726563742076616c756560881b604482015260640161100f565b8060bd6000016000828254611d7e9190615567565b9091555060009050611d8e611aae565b33600090815260a7602052604090205490915060ff16611dc35733600090815260a760205260409020805460ff191660011790555b8160996000828254611dd59190615567565b90915550611de890506114f083866155be565b60005b8381101561214f5760c08a8281518110611e1557634e487b7160e01b600052603260045260246000fd5b6020026020010151604051611e2a9190615213565b9081526040805160209281900383019020336000908152600391820190935291200154611eb757611e5c826001615567565b60c08b8381518110611e7e57634e487b7160e01b600052603260045260246000fd5b6020026020010151604051611e939190615213565b90815260408051602092819003830190203360009081526003918201909352912001555b6000898281518110611ed957634e487b7160e01b600052603260045260246000fd5b6020026020010151111561213d5760008a8281518110611f0957634e487b7160e01b600052603260045260246000fd5b602002602001015190506150016001600160a01b03166352b73e4160c083604051611f349190615213565b908152604051908190036020019020548c516001600160a01b03909116908d9086908110611f7257634e487b7160e01b600052603260045260246000fd5b60200260200101516040518363ffffffff1660e01b8152600401611f97929190615308565b600060405180830381600087803b158015611fb157600080fd5b505af1158015611fc5573d6000803e3d6000fd5b5050609d548c516001600160a01b03909116925063398a1329915033908d908690811061200257634e487b7160e01b600052603260045260246000fd5b60200260200101518460986040518563ffffffff1660e01b815260040161202c9493929190615333565b600060405180830381600087803b15801561204657600080fd5b505af115801561205a573d6000803e3d6000fd5b5050505089828151811061207e57634e487b7160e01b600052603260045260246000fd5b602002602001015160c0826040516120969190615213565b908152602001604051809103902060010160008282546120b69190615567565b90915550506040516120c9908290615213565b6040518091039020336001600160a01b03167f3c8bcf34be6605e590f1ef6c776b246c9568fd25b21b847fe22f998cff48eb9e8c858151811061211c57634e487b7160e01b600052603260045260246000fd5b602002602001015160405161213391815260200190565b60405180910390a3505b806121478161567a565b915050611deb565b5060405182815233907f9e71bc8eea02a63969f509818f2dafb9254532904319f9dbda79b67bd34a5f3d906020016116af565b609780546119c09061563f565b6000805160206156d08339815191526121a7816129dd565b60a454821180156121bf57506121bb611aae565b8211155b6121fd5760405162461bcd60e51b815260206004820152600f60248201526e57726f6e67206572612072616e676560881b604482015260640161100f565b61220682612dd7565b604051829033907fb3a1bc35f2ae5834830c888981da2a3da5e47f57fc47da50ca9e18d31a083d0490600090a35050565b60008061224484846134d5565b505050905060c0846040516122599190615213565b90815260408051602092819003830190206001600160a01b0386166000908152600390910183522060020154908201516122939190615567565b949350505050565b60bd81600281106122ab57600080fd5b0154905081565b60ba8181548110610fd257600080fd5b609d546001600160a01b03163314806122e5575060c6546001600160a01b031633145b6123015760405162461bcd60e51b815260040161100f906154be565b6001600160a01b03811661234d5760405162461bcd60e51b81526020600482015260136024820152725a65726f206164647265737320616c61726d2160681b604482015260640161100f565b60c6546040516343704d8760e11b81526001600160a01b03838116600483015260009216906386e09b0e906024015b60206040518083038186803b15801561239457600080fd5b505afa1580156123a8573d6000803e3d6000fd5b505050506040513d601f19601f820116820180604052508101906123cc91906150e1565b90506118e7838383613a43565b60006123e3611aae565b90508060a454146123f7576123f781612dd7565b609d5460405163e0a3b21f60e01b81526000916001600160a01b03169063e0a3b21f9061242b9033906098906004016152e4565b60006040518083038186803b15801561244357600080fd5b505afa158015612457573d6000803e3d6000fd5b505050506040513d6000823e601f3d908101601f1916820160405261247f9190810190614db1565b80519091506000612491826001615567565b6001600160401b038111156124b657634e487b7160e01b600052604160045260246000fd5b6040519080825280602002602001820160405280156124df578160200160208202803683370190505b50905060006124ef836001615567565b6001600160401b0381111561251457634e487b7160e01b600052604160045260246000fd5b60405190808252806020026020018201604052801561254757816020015b60608152602001906001900390816125325790505b50905060005b838110156125bb5784818151811061257557634e487b7160e01b600052603260045260246000fd5b602002602001015182828151811061259d57634e487b7160e01b600052603260045260246000fd5b602002602001018190525080806125b39061567a565b91505061254d565b506040518060400160405280600f81526020016e41646170746572735574696c69747960881b81525081848151811061260457634e487b7160e01b600052603260045260246000fd5b602002602001018190525060005b61261d846001615567565b8110156127015761265582828151811061264757634e487b7160e01b600052603260045260246000fd5b6020026020010151336129ea565b60c082828151811061267757634e487b7160e01b600052603260045260246000fd5b602002602001015160405161268c9190615213565b90815260200160405180910390206003016000336001600160a01b03166001600160a01b03168152602001908152602001600020600201548382815181106126e457634e487b7160e01b600052603260045260246000fd5b6020908102919091010152806126f98161567a565b915050612612565b5061270c8183612e00565b60005b8381101561275a5761274882828151811061273a57634e487b7160e01b600052603260045260246000fd5b602002602001015133612d55565b806127528161567a565b91505061270f565b505050505050565b60008281526065602052604090206001015461277d816129dd565b6118e7838361346e565b60af60205282600052604060002060205281600052604060002081815481106127af57600080fd5b9060005260206000200160009250925050505481565b6000805160206156d08339815191526127dd816129dd565b60405163258d874360e11b815261500190634b1b0e869061280390600090600401615377565b600060405180830381600087803b15801561281d57600080fd5b505af1158015612831573d6000803e3d6000fd5b5050505050565b60bf818154811061284857600080fd5b9060005260206000200160009150905080546119c09061563f565b609d546001600160a01b0316331480612886575060c6546001600160a01b031633145b6128a25760405162461bcd60e51b815260040161100f906154be565b6001600160a01b038216600090815260a7602052604090205460ff16612928576001600160a01b038216600081815260a760205260408120805460ff1916600190811790915560a5805491820181559091527fb29a2b3b6f2ff1b765777a231725941da5072cc4fcc30ac4a2ce09706e8ddeff0180546001600160a01b03191690911790555b60c0816040516129389190615213565b90815260200160405180910390206003016000836001600160a01b03166001600160a01b03168152602001908152602001600020600301546000141561196657612980611aae565b61298b906001615567565b60c08260405161299b9190615213565b908152604080519182900360209081019092206001600160a01b03861660009081526003918201909352912001555050565b60a58181548110610fd257600080fd5b6129e78133613b6b565b50565b6000806000806129fa86866134d5565b93509350935093508015612bc1578160c087604051612a199190615213565b90815260408051602092819003830190206001600160a01b03891660009081526003909101835281812060a454825290925290205581612a5a576001612a5d565b60005b60c087604051612a6d9190615213565b90815260408051602092819003830190206001600160a01b0389811660009081526003909201845282822060a480548452600191820190955292909120805460ff19169415159490941790935560c5549154919092169163fb35f9879189918991612ad891906155be565b88516040516001600160e01b031960e087901b168152612afe94939291906004016153e0565b600060405180830381600087803b158015612b1857600080fd5b505af1158015612b2c573d6000803e3d6000fd5b505060c55460a4546001600160a01b039091169250630cbd535e915087908690612b58906001906155be565b6040516001600160e01b031960e086901b1681526001600160a01b03909316600484015260ff90911660248301526044820152606401600060405180830381600087803b158015612ba857600080fd5b505af1158015612bbc573d6000803e3d6000fd5b505050505b60c086604051612bd19190615213565b90815260200160405180910390206003016000866001600160a01b03166001600160a01b0316815260200190815260200160002060030154600014612c505760a45460c087604051612c239190615213565b90815260408051602092819003830190206001600160a01b03891660009081526003918201909352912001555b6020840151612c6157505050505050565b602084015160405160c090612c77908990615213565b90815260200160405180910390206003016000876001600160a01b03166001600160a01b031681526020019081526020016000206002016000828254612cbd9190615567565b90915550506020808501516001600160a01b038716600090815260b090925260408220805491929091612cf1908490615567565b9091555050604051612d04908790615213565b604051908190038120602080870151835290916001600160a01b038816917fe031024ebd0ad1a1f63e67d469a2409c8f8877c863d4213103c331bbabafa0a6910160405180910390a3505050505050565b6001600160a01b038116612da15760405162461bcd60e51b81526020600482015260136024820152725a65726f206164647265737320616c61726d2160681b604482015260640161100f565b609d5460405163e1d9b41760e01b81526000916001600160a01b03169063e1d9b4179061237c90859087906098906004016152a4565b612de081613bcf565b612de981613ced565b612df2816143ce565b612dfb816144b7565b60a455565b81516000805b82811015613189576000848281518110612e3057634e487b7160e01b600052603260045260246000fd5b6020026020010151111561317757600060c0868381518110612e6257634e487b7160e01b600052603260045260246000fd5b6020026020010151604051612e779190615213565b90815260200160405180910390209050848281518110612ea757634e487b7160e01b600052603260045260246000fd5b6020026020010151816003016000336001600160a01b03166001600160a01b03168152602001908152602001600020600201541015612f1e5760405162461bcd60e51b81526020600482015260136024820152724e6f7420656e6f75676820726577617264732160681b604482015260640161100f565b848281518110612f3e57634e487b7160e01b600052603260045260246000fd5b6020026020010151609c541015612f8e5760405162461bcd60e51b815260206004820152601460248201527314995dd85c991cc81c1bdbdb08191c985a5b995960621b604482015260640161100f565b848281518110612fae57634e487b7160e01b600052603260045260246000fd5b6020026020010151609c6000828254612fc791906155be565b92505081905550848281518110612fee57634e487b7160e01b600052603260045260246000fd5b6020026020010151816003016000336001600160a01b03166001600160a01b03168152602001908152602001600020600201600082825461302f91906155be565b9250508190555084828151811061305657634e487b7160e01b600052603260045260246000fd5b602002602001015160b06000336001600160a01b03166001600160a01b03168152602001908152602001600020600082825461309291906155be565b925050819055508482815181106130b957634e487b7160e01b600052603260045260246000fd5b6020026020010151836130cc9190615567565b92508582815181106130ee57634e487b7160e01b600052603260045260246000fd5b60200260200101516040516131039190615213565b6040518091039020336001600160a01b03167f797a477e49f23d65ef8588df156ba8c74c6e21a51d6cf6737320d868c0e7c9f887858151811061315657634e487b7160e01b600052603260045260246000fd5b602002602001015160405161316d91815260200190565b60405180910390a3505b806131818161567a565b915050612e06565b50600081116131cd5760405162461bcd60e51b815260206004820152601060248201526f4e6f7468696e6720746f20636c61696d60801b604482015260640161100f565b6131d733826132cf565b60405181815233907fd8138f8a3f377c5259ca548e70e4c2de94f129f5a11036a15b69513cba2b426a9060200160405180910390a250505050565b336000908152600384016020908152604080832085845260010190915290205460ff166118e7573360009081526003840160209081526040808320858452909152902054811015613294573360009081526003840160209081526040808320858452909152812080548392906132899084906155be565b909155506118e79050565b50336000908152600392909201602090815260408084209284528282528084208490556001928301909152909120805460ff19169091179055565b8047101561331f5760405162461bcd60e51b815260206004820152601d60248201527f416464726573733a20696e73756666696369656e742062616c616e6365000000604482015260640161100f565b6000826001600160a01b03168260405160006040518083038185875af1925050503d806000811461336c576040519150601f19603f3d011682016040523d82523d6000602084013e613371565b606091505b50509050806118e75760405162461bcd60e51b815260206004820152603a60248201527f416464726573733a20756e61626c6520746f2073656e642076616c75652c207260448201527f6563697069656e74206d61792068617665207265766572746564000000000000606482015260840161100f565b6133f28282611a83565b6119665760008281526065602090815260408083206001600160a01b03851684529091529020805460ff1916600117905561342a3390565b6001600160a01b0316816001600160a01b0316837f2f8788117e7eff1d82e926ec794901d17c78024a50270940304540a733656f0d60405160405180910390a45050565b6134788282611a83565b156119665760008281526065602090815260408083206001600160a01b0385168085529252808320805460ff1916905551339285917ff6391f5c32d9c69d2a47ea670b442974b53935d1edc7fd64eb21e047a839171b9190a45050565b6134dd614b3c565b60008060008060c0876040516134f39190615213565b90815260200160405180910390206003016000876001600160a01b03166001600160a01b03168152602001908152602001600020905060a454816003015410158061354057506003810154155b15613555575060009250829150819050613a3a565b60c55460038201546001600160a01b039091169063933c9a24908990899061357f906001906155be565b6040518463ffffffff1660e01b815260040161359d939291906153b2565b604080518083038186803b1580156135b457600080fd5b505afa1580156135c8573d6000803e3d6000fd5b505050506040513d601f19601f820116820180604052508101906135ec91906150f9565b50855260c55460038201546000916001600160a01b031690633f1fb67c908990613618906001906155be565b6040516001600160e01b031960e085901b1681526001600160a01b039092166004830152602482015260440160206040518083038186803b15801561365c57600080fd5b505afa158015613670573d6000803e3d6000fd5b505050506040513d601f19601f820116820180604052508101906136949190615128565b905060ff81166136a2575060095b60038201546000908152602083905260408082205460c55491516339770cd160e11b81529092916001600160a01b0316906372ee19a2906136e7908d9060040161539f565b60206040518083038186803b1580156136ff57600080fd5b505afa158015613713573d6000803e3d6000fd5b505050506040513d601f19601f820116820180604052508101906137379190614fe6565b60038501549091505b60a454811015613a2d5782156138585788511580159061375d5750815b156137e75760c5546040516314d6a44160e21b81526001600160a01b039091169063535a910490613794908e908890600401615418565b60206040518083038186803b1580156137ac57600080fd5b505afa1580156137c0573d6000803e3d6000fd5b505050506040513d601f19601f820116820180604052508101906137e49190615128565b93505b600081815260c4602052604081205464e8d4a5100090613807908661559f565b613811919061557f565b90506064600161382187836155d5565b61382b91906155d5565b6138389060ff168361559f565b613842919061557f565b60208b018051613853908390615567565b905250505b846000613866836001615567565b815260200190815260200160002054600014156138b3578460010160008260016138909190615567565b815260208101919091526040016000205460ff16156138ae57600092505b6138d3565b8460006138c1836001615567565b81526020019081526020016000205492505b60008060c560009054906101000a90046001600160a01b03166001600160a01b031663933c9a248e8e866040518463ffffffff1660e01b815260040161391b939291906153b2565b604080518083038186803b15801561393257600080fd5b505afa158015613946573d6000803e3d6000fd5b505050506040513d601f19601f8201168201806040525081019061396a91906150f9565b9150915081600014156139875780156139825760008b525b61398b565b818b525b60c554604051630fc7ed9f60e21b81526001600160a01b038e81166004830152602482018690526000921690633f1fb67c9060440160206040518083038186803b1580156139d857600080fd5b505afa1580156139ec573d6000803e3d6000fd5b505050506040513d601f19601f82011682018060405250810190613a109190615128565b905060ff811615613a1f578096505b836001019350505050613740565b5091955093506001925050505b92959194509250565b6000613a4d611aae565b613a58906001615567565b9050600060c085604051613a6c9190615213565b9081526040805191829003602090810183206001600160a01b0388166000908152600390910190915220915060c090613aa6908790615213565b90815260200160405180910390206003016000856001600160a01b03166001600160a01b031681526020019081526020016000206003015460001415613b24578160c086604051613af79190615213565b90815260408051602092819003830190206001600160a01b03881660009081526003918201909352912001555b600082815260208290526040902083905582613b41576001613b44565b60005b60009283526001919091016020526040909120805460ff1916911515919091179055505050565b613b758282611a83565b61196657613b8d816001600160a01b031660146145d8565b613b988360206145d8565b604051602001613ba992919061522f565b60408051601f198184030181529082905262461bcd60e51b825261100f9160040161539f565b60004790506150016001600160a01b03166377a0fe026040518163ffffffff1660e01b8152600401600060405180830381600087803b158015613c1157600080fd5b505af1925050508015613c22575060015b613c9c573d808015613c50576040519150601f19603f3d011682016040523d82523d6000602084013e613c55565b606091505b5080604051613c649190615213565b6040519081900381209084907ff031b94d40b16f5c2b8213e25ea0f640687fa24e99f6a0ef56cdd46762434a2f90600090a350613cc7565b60405182907e973a60d81248412b3530a2ff12c475667dc3c0ece650fb361c044aa240565b90600090a25b47613cd282826155be565b60a36000828254613ce39190615567565b9091555050505050565b8060a45410613cf95750565b60bf544760005b82811015613de857613dd660bf8281548110613d2c57634e487b7160e01b600052603260045260246000fd5b906000526020600020018054613d419061563f565b80601f0160208091040260200160405190810160405280929190818152602001828054613d6d9061563f565b8015613dba5780601f10613d8f57610100808354040283529160200191613dba565b820191906000526020600020905b815481529060010190602001808311613d9d57829003601f168201915b505050505060a45460a4546001613dd19190615567565b6147c0565b80613de08161567a565b915050613d00565b5047613df2614b3c565b613dfc83836155be565b815260005b84811015613ee757613ed560bf8281548110613e2d57634e487b7160e01b600052603260045260246000fd5b906000526020600020018054613e429061563f565b80601f0160208091040260200160405190810160405280929190818152602001828054613e6e9061563f565b8015613ebb5780601f10613e9057610100808354040283529160200191613ebb565b820191906000526020600020905b815481529060010190602001808311613e9e57829003601f168201915b505050505060a4546001613ecf9190615567565b886147c0565b80613edf8161567a565b915050613e01565b50613ef282476155be565b602082018190528151600091613f0791615567565b9050600060a45487613f1991906155be565b90506000613f286001836155be565b60be54613f35919061559f565b613f406001846155be565b60bd54613f4d919061559f565b8360bc54613f5b919061559f565b613f659190615567565b613f6f91906155be565b9050801561431e5760c55460a4546000916001600160a01b031690633cc2681e90613f9c906001906155be565b613fa760018d6155be565b6040516001600160e01b031960e085901b168152600481019290925260248201526044016040805180830381600087803b158015613fe457600080fd5b505af1158015613ff8573d6000803e3d6000fd5b505050506040513d601f19601f8201168201806040525081019061401c9190614f63565b60c55460a4549192506000916001600160a01b0390911690632eedcb1890614046906001906155be565b6040518263ffffffff1660e01b815260040161406491815260200190565b604080518083038186803b15801561407b57600080fd5b505afa15801561408f573d6000803e3d6000fd5b505050506040513d601f19601f820116820180604052508101906140b39190614f63565b905060008060008060bc5411156141795760bc5489516140d99064e8d4a510009061559f565b6140e3919061557f565b92506140f564e8d4a51000606461559f565b6020850151614104908561559f565b61410e919061557f565b6141189083615567565b915061412a64e8d4a51000606461559f565b845160bc5461413991906155be565b61414460098661559f565b61414e919061559f565b614158919061557f565b6141629082615567565b60a454600090815260c46020526040902084905590505b60bc5486111561428c5760bc5461419090876155be565b60208a01516141a59064e8d4a510009061559f565b6141af919061557f565b92506141c164e8d4a51000606461559f565b602080860151908701516141d591906155be565b6141df908561559f565b6141e9919061557f565b6141f39083615567565b915061420564e8d4a51000606461559f565b8451865161421391906155be565b60bc5461422090896155be565b61422a91906155be565b61423560098661559f565b61423f919061559f565b614249919061557f565b6142539082615567565b9050600060a45460016142669190615567565b90505b8d81101561428a57600081815260c460205260409020849055600101614269565b505b600061429960648a61557f565b9050600081836142a9868d6155be565b6142b391906155be565b6142bd91906155be565b90506142c98385615567565b60ad60008282546142da9190615567565b9250508190555081609b60008282546142f39190615567565b9250508190555080609c600082825461430c9190615567565b90915550614336975050505050505050565b8260ad60008282546143309190615567565b90915550505b600060be81905560bd55609d5460405163b39fd5cf60e01b81526001600160a01b039091169063b39fd5cf906143719060989060040161543d565b60206040518083038186803b15801561438957600080fd5b505afa15801561439d573d6000803e3d6000fd5b505050506040513d601f19601f820116820180604052508101906143c191906150e1565b60bc555050505050505050565b60a4545b8181101561196657604051631b70ba6560e01b815261500190631b70ba65906144019030908590600401615308565b600060405180830381600087803b15801561441b57600080fd5b505af192505050801561442c575060015b6144af573d80801561445a576040519150601f19603f3d011682016040523d82523d6000602084013e61445f565b606091505b508060405161446e9190615213565b60408051918290038220600085815260c460205291822054909285927fd498dea2d0c05beb55c31ed0854ee53e1cae52b3032855d37a0e7cc1af9a275491a4505b6001016143d2565b6004609a54600a6144c8919061559f565b6144d2919061557f565b60a9546144e090600a61559f565b6144ea9190615567565b6144f582600a61559f565b10156144fe5750565b60bf5460005b818110156145d1576145c960bf828154811061453057634e487b7160e01b600052603260045260246000fd5b9060005260206000200180546145459061563f565b80601f01602080910402602001604051908101604052809291908181526020018280546145719061563f565b80156145be5780601f10614593576101008083540402835291602001916145be565b820191906000526020600020905b8154815290600101906020018083116145a157829003601f168201915b50505050508461496b565b600101614504565b505060a955565b606060006145e783600261559f565b6145f2906002615567565b6001600160401b0381111561461757634e487b7160e01b600052604160045260246000fd5b6040519080825280601f01601f191660200182016040528015614641576020820181803683370190505b509050600360fc1b8160008151811061466a57634e487b7160e01b600052603260045260246000fd5b60200101906001600160f81b031916908160001a905350600f60fb1b816001815181106146a757634e487b7160e01b600052603260045260246000fd5b60200101906001600160f81b031916908160001a90535060006146cb84600261559f565b6146d6906001615567565b90505b600181111561476a576f181899199a1a9b1b9c1cb0b131b232b360811b85600f166010811061471857634e487b7160e01b600052603260045260246000fd5b1a60f81b82828151811061473c57634e487b7160e01b600052603260045260246000fd5b60200101906001600160f81b031916908160001a90535060049490941c9361476381615628565b90506146d9565b5083156147b95760405162461bcd60e51b815260206004820181905260248201527f537472696e67733a20686578206c656e67746820696e73756666696369656e74604482015260640161100f565b9392505050565b600060c2846040516147d29190615213565b9081526040519081900360200190205460ff1661480d5760c3846040516147f99190615213565b90815260200160405180910390205461480f565b815b9050825b81811015612831576150016001600160a01b031663a0b9d8be60c08760405161483c9190615213565b908152604051908190036020018120546001600160e01b031960e084901b1682526001600160a01b03166004820152602401600060405180830381600087803b15801561488857600080fd5b505af1925050508015614899575060015b614928573d8080156148c7576040519150601f19603f3d011682016040523d82523d6000602084013e6148cc565b606091505b50806040516148db9190615213565b604051809103902082876040516148f29190615213565b604051908190038120907fe92a3c7a04201825f5511627b1065ebf99f2e562a3071da98959b67390f40b8590600090a450614963565b807fe3ad3e6ae6e2f00623af1899e05e142e09f8af5b7f4e9b765d94646d6bb9b8928260405161495a91815260200190565b60405180910390a25b600101614813565b600060c08360405161497d9190615213565b9081526020016040518091039020905080600201546000141561499f57505050565b60c2836040516149af9190615213565b9081526040519081900360200190205460ff161580156149ec575060c3836040516149da9190615213565b90815260200160405180910390205482115b156149f657505050565b805460028201546040516363c20ee960e11b81526150019263c7841dd292614a2c926001600160a01b0390921691600401615308565b600060405180830381600087803b158015614a4657600080fd5b505af1925050508015614a57575060015b614af4573d808015614a85576040519150601f19603f3d011682016040523d82523d6000602084013e614a8a565b606091505b5080604051614a999190615213565b60405180910390208385604051614ab09190615213565b60405190819003812060028601548252907f3e8c350ba500216bc0dc1717cad4db6a92e07dedabe48c3498743b062f8fa5229060200160405180910390a450505050565b817fd112be63e7fceb2dddc1fcf8ae6159d873af98be4505daee865e08f2aeae802d60b554604051614b2891815260200190565b60405180910390a260006002820155505050565b60405180604001604052806002906020820280368337509192915050565b80356001600160a01b0381168114614b7157600080fd5b919050565b600082601f830112614b86578081fd5b81356020614b9b614b968361551d565b6154ed565b80838252828201915082860187848660051b8901011115614bba578586fd5b855b85811015614bfa5781356001600160401b03811115614bd9578788fd5b614be78a87838c0101614c64565b8552509284019290840190600101614bbc565b5090979650505050505050565b600082601f830112614c17578081fd5b81356020614c27614b968361551d565b80838252828201915082860187848660051b8901011115614c46578586fd5b855b85811015614bfa57813584529284019290840190600101614c48565b600082601f830112614c74578081fd5b8135614c82614b9682615540565b818152846020838601011115614c96578283fd5b816020850160208301379081016020019190915292915050565b600060208284031215614cc1578081fd5b6147b982614b5a565b60008060408385031215614cdc578081fd5b614ce583614b5a565b915060208301356001600160401b03811115614cff578182fd5b614d0b85828601614b76565b9150509250929050565b60008060408385031215614d27578182fd5b614d3083614b5a565b915060208301356001600160401b03811115614d4a578182fd5b614d0b85828601614c64565b60008060408385031215614d68578182fd5b614d7183614b5a565b946020939093013593505050565b600080600060608486031215614d93578081fd5b614d9c84614b5a565b95602085013595506040909401359392505050565b60006020808385031215614dc3578182fd5b82516001600160401b0380821115614dd9578384fd5b818501915085601f830112614dec578384fd5b8151614dfa614b968261551d565b80828252858201915085850189878560051b8801011115614e19578788fd5b875b84811015614e8a57815186811115614e3157898afd5b8701603f81018c13614e4157898afd5b888101516040614e53614b9683615540565b8281528e82848601011115614e66578c8dfd5b614e75838d83018487016155f8565b87525050509287019290870190600101614e1b565b50909998505050505050505050565b60008060408385031215614eab578182fd5b82356001600160401b0380821115614ec1578384fd5b614ecd86838701614b76565b93506020850135915080821115614ee2578283fd5b50614d0b85828601614c07565b600080600060608486031215614f03578081fd5b83356001600160401b0380821115614f19578283fd5b614f2587838801614b76565b94506020860135915080821115614f3a578283fd5b50614f4786828701614c07565b9250506040840135614f58816156c1565b809150509250925092565b600060408284031215614f74578081fd5b82601f830112614f82578081fd5b604051604081018181106001600160401b0382111715614fa457614fa46156ab565b8060405250808385604086011115614fba578384fd5b835b6002811015614fdb578151835260209283019290910190600101614fbc565b509195945050505050565b600060208284031215614ff7578081fd5b81516147b9816156c1565b600060208284031215615013578081fd5b5035919050565b6000806040838503121561502c578182fd5b8235915061503c60208401614b5a565b90509250929050565b600060208284031215615056578081fd5b81356001600160e01b0319811681146147b9578182fd5b60006020828403121561507e578081fd5b81356001600160401b03811115615093578182fd5b61229384828501614c64565b600080604083850312156150b1578182fd5b82356001600160401b038111156150c6578283fd5b6150d285828601614c64565b92505061503c60208401614b5a565b6000602082840312156150f2578081fd5b5051919050565b6000806040838503121561510b578182fd5b82519150602083015161511d816156c1565b809150509250929050565b600060208284031215615139578081fd5b815160ff811681146147b9578182fd5b600081518084526151618160208601602086016155f8565b601f01601f19169290920160200192915050565b8054600090600181811c908083168061518f57607f831692505b60208084108214156151af57634e487b7160e01b86526022600452602486fd5b838852602088018280156151ca57600181146151db57615206565b60ff19871682528282019750615206565b60008981526020902060005b87811015615200578154848201529086019084016151e7565b83019850505b5050505050505092915050565b600082516152258184602087016155f8565b9190910192915050565b7f416363657373436f6e74726f6c3a206163636f756e74200000000000000000008152600083516152678160178501602088016155f8565b7001034b99036b4b9b9b4b733903937b6329607d1b60179184019182015283516152988160288401602088016155f8565b01602801949350505050565b6001600160a01b03841681526060602082018190526000906152c890830185615149565b82810360408401526152da8185615175565b9695505050505050565b6001600160a01b038316815260406020820181905260009061229390830184615175565b6001600160a01b039290921682526fffffffffffffffffffffffffffffffff16602082015260400190565b60018060a01b038516815283602082015260806040820152600061535a6080830185615149565b828103606084015261536c8185615175565b979650505050505050565b602081016002831061539957634e487b7160e01b600052602160045260246000fd5b91905290565b6020815260006147b96020830184615149565b6060815260006153c56060830186615149565b6001600160a01b039490941660208301525060400152919050565b6080815260006153f36080830187615149565b6001600160a01b03959095166020830152506040810192909252606090910152919050565b60408152600061542b6040830185615149565b905060ff831660208301529392505050565b6020815260006147b96020830184615175565b60208082526017908201527f496e636f727265637420617272617973206c656e677468000000000000000000604082015260600190565b60208082526017908201527f4e6f206f6e65207574696c6974792073656c6563746564000000000000000000604082015260600190565b6020808252601590820152744f6e6c7920666f72206469737472696275746f722160581b604082015260600190565b604051601f8201601f191681016001600160401b0381118282101715615515576155156156ab565b604052919050565b60006001600160401b03821115615536576155366156ab565b5060051b60200190565b60006001600160401b03821115615559576155596156ab565b50601f01601f191660200190565b6000821982111561557a5761557a615695565b500190565b60008261559a57634e487b7160e01b81526012600452602481fd5b500490565b60008160001904831182151516156155b9576155b9615695565b500290565b6000828210156155d0576155d0615695565b500390565b600060ff821660ff8416808210156155ef576155ef615695565b90039392505050565b60005b838110156156135781810151838201526020016155fb565b83811115615622576000848401525b50505050565b60008161563757615637615695565b506000190190565b600181811c9082168061565357607f821691505b6020821081141561567457634e487b7160e01b600052602260045260246000fd5b50919050565b600060001982141561568e5761568e615695565b5060010190565b634e487b7160e01b600052601160045260246000fd5b634e487b7160e01b600052604160045260246000fd5b80151581146129e757600080fdfeaf290d8680820aad922855f39b306097b20e28774d6c1ad35a20325630c3a02ca26469706673582212206ae47ea5d06f2013a663df071f6131c81a67642dace63c9ddd6e4a646c55ae8164736f6c63430008040033",
    "linkReferences": {}
  },
  "methodIdentifiers": {
    "DAPPS_STAKING()": "59b40f41",
    "DEFAULT_ADMIN_ROLE()": "a217fddf",
    "DNTname()": "40bf8a8d",
    "MANAGEMENT_FEE()": "5f1554e3",
    "MANAGER()": "1b2df850",
    "REVENUE_FEE()": "4421bd1e",
    "REWARDS_PRECISION()": "86b3cd26",
    "UNSTAKING_FEE()": "59601ebc",
    "accumulatedRewardsPerShare(uint256)": "a2ce0f4a",
    "adaptersDistr()": "e2e836f8",
    "addStaker(address,string)": "e932b37b",
    "buffer(address,uint256)": "54b057f9",
    "claim(string[],uint256[])": "1f19014b",
    "claimAll()": "d1058e59",
    "claimingTxLimit()": "00179fbd",
    "currentEra()": "973628f6",
    "dapps(string)": "dcf425df",
    "dappsList(uint256)": "da3bc958",
    "deactivationEra(string)": "2a14d8f4",
    "distr()": "6bbea766",
    "dntToken()": "05e2a217",
    "eraBuffer(uint256)": "c21a7276",
    "eraRevenue(uint256)": "eb51a44c",
    "eraRewards(uint256)": "1dc00785",
    "eraShotsLimit()": "f128f631",
    "eraStakerReward(uint256)": "2ea31bf6",
    "eraUnstaked(uint256)": "c4e137e7",
    "getRoleAdmin(bytes32)": "248a9ca3",
    "grantRole(bytes32,address)": "2f2ff15d",
    "hasRole(bytes32,address)": "91d14854",
    "haveUtility(string)": "6f68f2e9",
    "isActive(string)": "c8902a21",
    "isLpToken(address)": "0f24ca7d",
    "isPartner(address)": "8c0f9aac",
    "isStaker(address)": "6f1e8533",
    "isUnstakes()": "2e4a4a17",
    "lastClaimed()": "adc1b956",
    "lastEraTotalBalance()": "e77ee345",
    "lastStaked()": "12a12a06",
    "lastUnstaked()": "5495ec81",
    "lastUpdated()": "d0b06f5d",
    "liquidStakingManager()": "5ca5914e",
    "lpHandlers(address)": "e09c1954",
    "lpTokens(uint256)": "1bb5e2dc",
    "minStakeAmount()": "f1887684",
    "nftDistr()": "bd1bbd3b",
    "partnerIdx(address)": "a5ae02ac",
    "partners(uint256)": "c3b49d04",
    "partnersLimit()": "4d617451",
    "paused()": "5c975abb",
    "previewUserRewards(string,address)": "b8d7cac9",
    "renounceRole(bytes32,address)": "36568abe",
    "revokeRole(bytes32,address)": "d547741f",
    "rewardPool()": "66666aa9",
    "setFreeDest()": "d78cfe06",
    "stake(string[],uint256[])": "a22eae1b",
    "stakers(uint256)": "fd5e6dd1",
    "stakes(address)": "16934fc4",
    "sum2unstake()": "af66c36b",
    "supportsInterface(bytes4)": "01ffc9a7",
    "sync(uint256)": "b1357bf9",
    "syncHarvest(address,string[])": "12b3b4e6",
    "totalBalance()": "ad7a672f",
    "totalRevenue()": "bf2d9e0b",
    "totalUserRewards(address)": "a44bca8e",
    "unbondedPool()": "c71367b5",
    "unstake(string[],uint256[],bool)": "24f0f548",
    "unstakingPool()": "6f5e4488",
    "updateUserBalanceInAdapter(string,address)": "c78731dc",
    "updateUserBalanceInUtility(string,address)": "386df6eb",
    "usersShotsPerEra(address,uint256,uint256)": "d6356ff4",
    "utilName()": "ab486929",
    "withdraw(uint256)": "2e1a7d4d",
    "withdrawBlock()": "24025b19",
    "withdrawals(address,uint256)": "422b1077"
  },
  "id": 7
}