{
  "abi": [
    {
      "anonymous": false,
      "inputs": [
        {
          "indexed": true,
          "internalType": "uint256",
          "name": "amount",
          "type": "uint256"
        },
        {
          "indexed": true,
          "internalType": "uint256",
          "name": "era",
          "type": "uint256"
        },
        {
          "indexed": true,
          "internalType": "bytes",
          "name": "reason",
          "type": "bytes"
        }
      ],
      "name": "ClaimDappError",
      "type": "event"
    },
    {
      "anonymous": false,
      "inputs": [
        {
          "indexed": false,
          "internalType": "uint256",
          "name": "eraStakerReward",
          "type": "uint256"
        },
        {
          "indexed": true,
          "internalType": "uint256",
          "name": "_era",
          "type": "uint256"
        }
      ],
      "name": "ClaimDappSuccess",
      "type": "event"
    },
    {
      "anonymous": false,
      "inputs": [
        {
          "indexed": true,
          "internalType": "string",
          "name": "utility",
          "type": "string"
        },
        {
          "indexed": true,
          "internalType": "uint256",
          "name": "era",
          "type": "uint256"
        },
        {
          "indexed": true,
          "internalType": "bytes",
          "name": "reason",
          "type": "bytes"
        }
      ],
      "name": "ClaimStakerError",
      "type": "event"
    },
    {
      "anonymous": false,
      "inputs": [
        {
          "indexed": true,
          "internalType": "uint256",
          "name": "era",
          "type": "uint256"
        },
        {
          "indexed": false,
          "internalType": "uint256",
          "name": "lastClaimed",
          "type": "uint256"
        }
      ],
      "name": "ClaimStakerSuccess",
      "type": "event"
    },
    {
      "anonymous": false,
      "inputs": [
        {
          "indexed": true,
          "internalType": "address",
          "name": "user",
          "type": "address"
        },
        {
          "indexed": false,
          "internalType": "uint256",
          "name": "amount",
          "type": "uint256"
        }
      ],
      "name": "Claimed",
      "type": "event"
    },
    {
      "anonymous": false,
      "inputs": [
        {
          "indexed": true,
          "internalType": "address",
          "name": "user",
          "type": "address"
        },
        {
          "indexed": true,
          "internalType": "string",
          "name": "utility",
          "type": "string"
        },
        {
          "indexed": false,
          "internalType": "uint256",
          "name": "amount",
          "type": "uint256"
        }
      ],
      "name": "ClaimedFromUtility",
      "type": "event"
    },
    {
      "anonymous": false,
      "inputs": [
        {
          "indexed": true,
          "internalType": "address",
          "name": "sender",
          "type": "address"
        },
        {
          "indexed": false,
          "internalType": "uint256",
          "name": "value",
          "type": "uint256"
        }
      ],
      "name": "FillRewardPool",
      "type": "event"
    },
    {
      "anonymous": false,
      "inputs": [
        {
          "indexed": true,
          "internalType": "address",
          "name": "sender",
          "type": "address"
        },
        {
          "indexed": false,
          "internalType": "uint256",
          "name": "value",
          "type": "uint256"
        }
      ],
      "name": "FillUnbonded",
      "type": "event"
    },
    {
      "anonymous": false,
      "inputs": [
        {
          "indexed": true,
          "internalType": "address",
          "name": "sender",
          "type": "address"
        },
        {
          "indexed": false,
          "internalType": "uint256",
          "name": "value",
          "type": "uint256"
        }
      ],
      "name": "FillUnstaking",
      "type": "event"
    },
    {
      "anonymous": false,
      "inputs": [
        {
          "indexed": true,
          "internalType": "address",
          "name": "user",
          "type": "address"
        },
        {
          "indexed": true,
          "internalType": "string",
          "name": "utility",
          "type": "string"
        },
        {
          "indexed": false,
          "internalType": "uint256",
          "name": "amount",
          "type": "uint256"
        }
      ],
      "name": "HarvestRewards",
      "type": "event"
    },
    {
      "anonymous": false,
      "inputs": [
        {
          "indexed": false,
          "internalType": "uint8",
          "name": "version",
          "type": "uint8"
        }
      ],
      "name": "Initialized",
      "type": "event"
    },
    {
      "anonymous": false,
      "inputs": [
        {
          "indexed": true,
          "internalType": "bytes32",
          "name": "role",
          "type": "bytes32"
        },
        {
          "indexed": true,
          "internalType": "bytes32",
          "name": "previousAdminRole",
          "type": "bytes32"
        },
        {
          "indexed": true,
          "internalType": "bytes32",
          "name": "newAdminRole",
          "type": "bytes32"
        }
      ],
      "name": "RoleAdminChanged",
      "type": "event"
    },
    {
      "anonymous": false,
      "inputs": [
        {
          "indexed": true,
          "internalType": "bytes32",
          "name": "role",
          "type": "bytes32"
        },
        {
          "indexed": true,
          "internalType": "address",
          "name": "account",
          "type": "address"
        },
        {
          "indexed": true,
          "internalType": "address",
          "name": "sender",
          "type": "address"
        }
      ],
      "name": "RoleGranted",
      "type": "event"
    },
    {
      "anonymous": false,
      "inputs": [
        {
          "indexed": true,
          "internalType": "bytes32",
          "name": "role",
          "type": "bytes32"
        },
        {
          "indexed": true,
          "internalType": "address",
          "name": "account",
          "type": "address"
        },
        {
          "indexed": true,
          "internalType": "address",
          "name": "sender",
          "type": "address"
        }
      ],
      "name": "RoleRevoked",
      "type": "event"
    },
    {
      "anonymous": false,
      "inputs": [
        {
          "indexed": true,
          "internalType": "address",
          "name": "sender",
          "type": "address"
        },
        {
          "indexed": false,
          "internalType": "uint256",
          "name": "amount",
          "type": "uint256"
        }
      ],
      "name": "SetMinStakeAmount",
      "type": "event"
    },
    {
      "anonymous": false,
      "inputs": [
        {
          "indexed": true,
          "internalType": "address",
          "name": "user",
          "type": "address"
        },
        {
          "indexed": false,
          "internalType": "uint256",
          "name": "val",
          "type": "uint256"
        }
      ],
      "name": "Staked",
      "type": "event"
    },
    {
      "anonymous": false,
      "inputs": [
        {
          "indexed": true,
          "internalType": "address",
          "name": "user",
          "type": "address"
        },
        {
          "indexed": true,
          "internalType": "string",
          "name": "utility",
          "type": "string"
        },
        {
          "indexed": false,
          "internalType": "uint256",
          "name": "val",
          "type": "uint256"
        }
      ],
      "name": "StakedInUtility",
      "type": "event"
    },
    {
      "anonymous": false,
      "inputs": [
        {
          "indexed": true,
          "internalType": "address",
          "name": "sender",
          "type": "address"
        },
        {
          "indexed": true,
          "internalType": "uint256",
          "name": "era",
          "type": "uint256"
        }
      ],
      "name": "Synchronization",
      "type": "event"
    },
    {
      "anonymous": false,
      "inputs": [
        {
          "indexed": true,
          "internalType": "string",
          "name": "utility",
          "type": "string"
        },
        {
          "indexed": false,
          "internalType": "uint256",
          "name": "sum2unstake",
          "type": "uint256"
        },
        {
          "indexed": true,
          "internalType": "uint256",
          "name": "era",
          "type": "uint256"
        },
        {
          "indexed": true,
          "internalType": "bytes",
          "name": "reason",
          "type": "bytes"
        }
      ],
      "name": "UnbondAndUnstakeError",
      "type": "event"
    },
    {
      "anonymous": false,
      "inputs": [
        {
          "indexed": true,
          "internalType": "uint256",
          "name": "era",
          "type": "uint256"
        },
        {
          "indexed": false,
          "internalType": "uint256",
          "name": "sum2unstake",
          "type": "uint256"
        }
      ],
      "name": "UnbondAndUnstakeSuccess",
      "type": "event"
    },
    {
      "anonymous": false,
      "inputs": [
        {
          "indexed": true,
          "internalType": "address",
          "name": "user",
          "type": "address"
        },
        {
          "indexed": false,
          "internalType": "uint256",
          "name": "amount",
          "type": "uint256"
        },
        {
          "indexed": false,
          "internalType": "bool",
          "name": "immediate",
          "type": "bool"
        }
      ],
      "name": "Unstaked",
      "type": "event"
    },
    {
      "anonymous": false,
      "inputs": [
        {
          "indexed": true,
          "internalType": "address",
          "name": "user",
          "type": "address"
        },
        {
          "indexed": true,
          "internalType": "string",
          "name": "utility",
          "type": "string"
        },
        {
          "indexed": false,
          "internalType": "uint256",
          "name": "amount",
          "type": "uint256"
        },
        {
          "indexed": false,
          "internalType": "bool",
          "name": "immediate",
          "type": "bool"
        }
      ],
      "name": "UnstakedFromUtility",
      "type": "event"
    },
    {
      "anonymous": false,
      "inputs": [
        {
          "indexed": false,
          "internalType": "uint256",
          "name": "amount",
          "type": "uint256"
        }
      ],
      "name": "WithdrawRevenue",
      "type": "event"
    },
    {
      "anonymous": false,
      "inputs": [
        {
          "indexed": true,
          "internalType": "uint256",
          "name": "_era",
          "type": "uint256"
        },
        {
          "indexed": true,
          "internalType": "bytes",
          "name": "reason",
          "type": "bytes"
        }
      ],
      "name": "WithdrawUnbondedError",
      "type": "event"
    },
    {
      "anonymous": false,
      "inputs": [
        {
          "indexed": true,
          "internalType": "uint256",
          "name": "_era",
          "type": "uint256"
        }
      ],
      "name": "WithdrawUnbondedSuccess",
      "type": "event"
    },
    {
      "anonymous": false,
      "inputs": [
        {
          "indexed": true,
          "internalType": "address",
          "name": "user",
          "type": "address"
        },
        {
          "indexed": false,
          "internalType": "uint256",
          "name": "val",
          "type": "uint256"
        }
      ],
      "name": "Withdrawn",
      "type": "event"
    },
    {
      "inputs": [],
      "name": "DAPPS_STAKING",
      "outputs": [
        {
          "internalType": "contract DappsStaking",
          "name": "",
          "type": "address"
        }
      ],
      "stateMutability": "view",
      "type": "function"
    },
    {
      "inputs": [],
      "name": "DEFAULT_ADMIN_ROLE",
      "outputs": [
        {
          "internalType": "bytes32",
          "name": "",
          "type": "bytes32"
        }
      ],
      "stateMutability": "view",
      "type": "function"
    },
    {
      "inputs": [],
      "name": "DNTname",
      "outputs": [
        {
          "internalType": "string",
          "name": "",
          "type": "string"
        }
      ],
      "stateMutability": "view",
      "type": "function"
    },
    {
      "inputs": [],
      "name": "MANAGEMENT_FEE",
      "outputs": [
        {
          "internalType": "uint8",
          "name": "",
          "type": "uint8"
        }
      ],
      "stateMutability": "view",
      "type": "function"
    },
    {
      "inputs": [],
      "name": "MANAGER",
      "outputs": [
        {
          "internalType": "bytes32",
          "name": "",
          "type": "bytes32"
        }
      ],
      "stateMutability": "view",
      "type": "function"
    },
    {
      "inputs": [],
      "name": "REVENUE_FEE",
      "outputs": [
        {
          "internalType": "uint8",
          "name": "",
          "type": "uint8"
        }
      ],
      "stateMutability": "view",
      "type": "function"
    },
    {
      "inputs": [],
      "name": "REWARDS_PRECISION",
      "outputs": [
        {
          "internalType": "uint256",
          "name": "",
          "type": "uint256"
        }
      ],
      "stateMutability": "view",
      "type": "function"
    },
    {
      "inputs": [],
      "name": "UNSTAKING_FEE",
      "outputs": [
        {
          "internalType": "uint8",
          "name": "",
          "type": "uint8"
        }
      ],
      "stateMutability": "view",
      "type": "function"
    },
    {
      "inputs": [
        {
          "internalType": "uint256",
          "name": "",
          "type": "uint256"
        }
      ],
      "name": "accumulatedRewardsPerShare",
      "outputs": [
        {
          "internalType": "uint256",
          "name": "",
          "type": "uint256"
        }
      ],
      "stateMutability": "view",
      "type": "function"
    },
    {
      "inputs": [],
      "name": "adaptersDistr",
      "outputs": [
        {
          "internalType": "contract IAdaptersDistributor",
          "name": "",
          "type": "address"
        }
      ],
      "stateMutability": "view",
      "type": "function"
    },
    {
      "inputs": [
        {
          "internalType": "address",
          "name": "_partner",
          "type": "address"
        }
      ],
      "name": "addPartner",
      "outputs": [],
      "stateMutability": "nonpayable",
      "type": "function"
    },
    {
      "inputs": [
        {
          "internalType": "address",
          "name": "_addr",
          "type": "address"
        },
        {
          "internalType": "string",
          "name": "_utility",
          "type": "string"
        }
      ],
      "name": "addStaker",
      "outputs": [],
      "stateMutability": "nonpayable",
      "type": "function"
    },
    {
      "inputs": [
        {
          "internalType": "address",
          "name": "",
          "type": "address"
        },
        {
          "internalType": "uint256",
          "name": "",
          "type": "uint256"
        }
      ],
      "name": "buffer",
      "outputs": [
        {
          "internalType": "uint256",
          "name": "",
          "type": "uint256"
        }
      ],
      "stateMutability": "view",
      "type": "function"
    },
    {
      "inputs": [
        {
          "internalType": "string[]",
          "name": "_utilities",
          "type": "string[]"
        },
        {
          "internalType": "uint256[]",
          "name": "_amounts",
          "type": "uint256[]"
        }
      ],
      "name": "claim",
      "outputs": [],
      "stateMutability": "nonpayable",
      "type": "function"
    },
    {
      "inputs": [],
      "name": "claimAll",
      "outputs": [],
      "stateMutability": "nonpayable",
      "type": "function"
    },
    {
      "inputs": [],
      "name": "claimingTxLimit",
      "outputs": [
        {
          "internalType": "uint256",
          "name": "",
          "type": "uint256"
        }
      ],
      "stateMutability": "view",
      "type": "function"
    },
    {
      "inputs": [],
      "name": "currentEra",
      "outputs": [
        {
          "internalType": "uint256",
          "name": "",
          "type": "uint256"
        }
      ],
      "stateMutability": "view",
      "type": "function"
    },
    {
      "inputs": [
        {
          "internalType": "string",
          "name": "",
          "type": "string"
        }
      ],
      "name": "dapps",
      "outputs": [
        {
          "internalType": "address",
          "name": "dappAddress",
          "type": "address"
        },
        {
          "internalType": "uint256",
          "name": "stakedBalance",
          "type": "uint256"
        },
        {
          "internalType": "uint256",
          "name": "sum2unstake",
          "type": "uint256"
        }
      ],
      "stateMutability": "view",
      "type": "function"
    },
    {
      "inputs": [
        {
          "internalType": "uint256",
          "name": "",
          "type": "uint256"
        }
      ],
      "name": "dappsList",
      "outputs": [
        {
          "internalType": "string",
          "name": "",
          "type": "string"
        }
      ],
      "stateMutability": "view",
      "type": "function"
    },
    {
      "inputs": [
        {
          "internalType": "string",
          "name": "",
          "type": "string"
        }
      ],
      "name": "deactivationEra",
      "outputs": [
        {
          "internalType": "uint256",
          "name": "",
          "type": "uint256"
        }
      ],
      "stateMutability": "view",
      "type": "function"
    },
    {
      "inputs": [],
      "name": "distr",
      "outputs": [
        {
          "internalType": "contract NDistributor",
          "name": "",
          "type": "address"
        }
      ],
      "stateMutability": "view",
      "type": "function"
    },
    {
      "inputs": [],
      "name": "dntToken",
      "outputs": [
        {
          "internalType": "address",
          "name": "",
          "type": "address"
        }
      ],
      "stateMutability": "view",
      "type": "function"
    },
    {
      "inputs": [
        {
          "internalType": "uint256",
          "name": "",
          "type": "uint256"
        }
      ],
      "name": "eraBuffer",
      "outputs": [
        {
          "internalType": "uint256",
          "name": "",
          "type": "uint256"
        }
      ],
      "stateMutability": "view",
      "type": "function"
    },
    {
      "inputs": [
        {
          "internalType": "uint256",
          "name": "",
          "type": "uint256"
        }
      ],
      "name": "eraRevenue",
      "outputs": [
        {
          "internalType": "bool",
          "name": "done",
          "type": "bool"
        },
        {
          "internalType": "uint256",
          "name": "val",
          "type": "uint256"
        }
      ],
      "stateMutability": "view",
      "type": "function"
    },
    {
      "inputs": [
        {
          "internalType": "uint256",
          "name": "",
          "type": "uint256"
        }
      ],
      "name": "eraRewards",
      "outputs": [
        {
          "internalType": "uint256",
          "name": "",
          "type": "uint256"
        }
      ],
      "stateMutability": "view",
      "type": "function"
    },
    {
      "inputs": [],
      "name": "eraShotsLimit",
      "outputs": [
        {
          "internalType": "uint256",
          "name": "",
          "type": "uint256"
        }
      ],
      "stateMutability": "view",
      "type": "function"
    },
    {
      "inputs": [
        {
          "internalType": "uint256",
          "name": "",
          "type": "uint256"
        }
      ],
      "name": "eraStakerReward",
      "outputs": [
        {
          "internalType": "bool",
          "name": "done",
          "type": "bool"
        },
        {
          "internalType": "uint256",
          "name": "val",
          "type": "uint256"
        }
      ],
      "stateMutability": "view",
      "type": "function"
    },
    {
      "inputs": [
        {
          "internalType": "uint256",
          "name": "",
          "type": "uint256"
        }
      ],
      "name": "eraUnstaked",
      "outputs": [
        {
          "internalType": "bool",
          "name": "done",
          "type": "bool"
        },
        {
          "internalType": "uint256",
          "name": "val",
          "type": "uint256"
        }
      ],
      "stateMutability": "view",
      "type": "function"
    },
    {
      "inputs": [
        {
          "internalType": "bytes32",
          "name": "role",
          "type": "bytes32"
        }
      ],
      "name": "getRoleAdmin",
      "outputs": [
        {
          "internalType": "bytes32",
          "name": "",
          "type": "bytes32"
        }
      ],
      "stateMutability": "view",
      "type": "function"
    },
    {
      "inputs": [
        {
          "internalType": "bytes32",
          "name": "role",
          "type": "bytes32"
        },
        {
          "internalType": "address",
          "name": "account",
          "type": "address"
        }
      ],
      "name": "grantRole",
      "outputs": [],
      "stateMutability": "nonpayable",
      "type": "function"
    },
    {
      "inputs": [
        {
          "internalType": "bytes32",
          "name": "role",
          "type": "bytes32"
        },
        {
          "internalType": "address",
          "name": "account",
          "type": "address"
        }
      ],
      "name": "hasRole",
      "outputs": [
        {
          "internalType": "bool",
          "name": "",
          "type": "bool"
        }
      ],
      "stateMutability": "view",
      "type": "function"
    },
    {
      "inputs": [
        {
          "internalType": "string",
          "name": "",
          "type": "string"
        }
      ],
      "name": "haveUtility",
      "outputs": [
        {
          "internalType": "bool",
          "name": "",
          "type": "bool"
        }
      ],
      "stateMutability": "view",
      "type": "function"
    },
    {
      "inputs": [
        {
          "internalType": "string",
          "name": "",
          "type": "string"
        }
      ],
      "name": "isActive",
      "outputs": [
        {
          "internalType": "bool",
          "name": "",
          "type": "bool"
        }
      ],
      "stateMutability": "view",
      "type": "function"
    },
    {
      "inputs": [
        {
          "internalType": "address",
          "name": "",
          "type": "address"
        }
      ],
      "name": "isLpToken",
      "outputs": [
        {
          "internalType": "bool",
          "name": "",
          "type": "bool"
        }
      ],
      "stateMutability": "view",
      "type": "function"
    },
    {
      "inputs": [
        {
          "internalType": "address",
          "name": "",
          "type": "address"
        }
      ],
      "name": "isPartner",
      "outputs": [
        {
          "internalType": "bool",
          "name": "",
          "type": "bool"
        }
      ],
      "stateMutability": "view",
      "type": "function"
    },
    {
      "inputs": [
        {
          "internalType": "address",
          "name": "",
          "type": "address"
        }
      ],
      "name": "isStaker",
      "outputs": [
        {
          "internalType": "bool",
          "name": "",
          "type": "bool"
        }
      ],
      "stateMutability": "view",
      "type": "function"
    },
    {
      "inputs": [],
      "name": "isUnstakes",
      "outputs": [
        {
          "internalType": "bool",
          "name": "",
          "type": "bool"
        }
      ],
      "stateMutability": "view",
      "type": "function"
    },
    {
      "inputs": [],
      "name": "lastClaimed",
      "outputs": [
        {
          "internalType": "uint256",
          "name": "",
          "type": "uint256"
        }
      ],
      "stateMutability": "view",
      "type": "function"
    },
    {
      "inputs": [],
      "name": "lastEraTotalBalance",
      "outputs": [
        {
          "internalType": "uint256",
          "name": "",
          "type": "uint256"
        }
      ],
      "stateMutability": "view",
      "type": "function"
    },
    {
      "inputs": [],
      "name": "lastStaked",
      "outputs": [
        {
          "internalType": "uint256",
          "name": "",
          "type": "uint256"
        }
      ],
      "stateMutability": "view",
      "type": "function"
    },
    {
      "inputs": [],
      "name": "lastUnstaked",
      "outputs": [
        {
          "internalType": "uint256",
          "name": "",
          "type": "uint256"
        }
      ],
      "stateMutability": "view",
      "type": "function"
    },
    {
      "inputs": [],
      "name": "lastUpdated",
      "outputs": [
        {
          "internalType": "uint256",
          "name": "",
          "type": "uint256"
        }
      ],
      "stateMutability": "view",
      "type": "function"
    },
    {
      "inputs": [],
      "name": "liquidStakingManager",
      "outputs": [
        {
          "internalType": "address",
          "name": "",
          "type": "address"
        }
      ],
      "stateMutability": "view",
      "type": "function"
    },
    {
      "inputs": [
        {
          "internalType": "address",
          "name": "",
          "type": "address"
        }
      ],
      "name": "lpHandlers",
      "outputs": [
        {
          "internalType": "address",
          "name": "",
          "type": "address"
        }
      ],
      "stateMutability": "view",
      "type": "function"
    },
    {
      "inputs": [
        {
          "internalType": "uint256",
          "name": "",
          "type": "uint256"
        }
      ],
      "name": "lpTokens",
      "outputs": [
        {
          "internalType": "address",
          "name": "",
          "type": "address"
        }
      ],
      "stateMutability": "view",
      "type": "function"
    },
    {
      "inputs": [],
      "name": "minStakeAmount",
      "outputs": [
        {
          "internalType": "uint256",
          "name": "",
          "type": "uint256"
        }
      ],
      "stateMutability": "view",
      "type": "function"
    },
    {
      "inputs": [],
      "name": "nftDistr",
      "outputs": [
        {
          "internalType": "contract INFTDistributor",
          "name": "",
          "type": "address"
        }
      ],
      "stateMutability": "view",
      "type": "function"
    },
    {
      "inputs": [
        {
          "internalType": "address",
          "name": "",
          "type": "address"
        }
      ],
      "name": "partnerIdx",
      "outputs": [
        {
          "internalType": "uint256",
          "name": "",
          "type": "uint256"
        }
      ],
      "stateMutability": "view",
      "type": "function"
    },
    {
      "inputs": [
        {
          "internalType": "uint256",
          "name": "",
          "type": "uint256"
        }
      ],
      "name": "partners",
      "outputs": [
        {
          "internalType": "address",
          "name": "",
          "type": "address"
        }
      ],
      "stateMutability": "view",
      "type": "function"
    },
    {
      "inputs": [],
      "name": "partnersLimit",
      "outputs": [
        {
          "internalType": "uint256",
          "name": "",
          "type": "uint256"
        }
      ],
      "stateMutability": "view",
      "type": "function"
    },
    {
      "inputs": [],
      "name": "paused",
      "outputs": [
        {
          "internalType": "bool",
          "name": "",
          "type": "bool"
        }
      ],
      "stateMutability": "view",
      "type": "function"
    },
    {
      "inputs": [
        {
          "internalType": "string",
          "name": "_utility",
          "type": "string"
        },
        {
          "internalType": "address",
          "name": "_user",
          "type": "address"
        }
      ],
      "name": "previewUserRewards",
      "outputs": [
        {
          "internalType": "uint256",
          "name": "",
          "type": "uint256"
        }
      ],
      "stateMutability": "view",
      "type": "function"
    },
    {
      "inputs": [
        {
          "internalType": "bytes32",
          "name": "role",
          "type": "bytes32"
        },
        {
          "internalType": "address",
          "name": "account",
          "type": "address"
        }
      ],
      "name": "renounceRole",
      "outputs": [],
      "stateMutability": "nonpayable",
      "type": "function"
    },
    {
      "inputs": [
        {
          "internalType": "bytes32",
          "name": "role",
          "type": "bytes32"
        },
        {
          "internalType": "address",
          "name": "account",
          "type": "address"
        }
      ],
      "name": "revokeRole",
      "outputs": [],
      "stateMutability": "nonpayable",
      "type": "function"
    },
    {
      "inputs": [],
      "name": "rewardPool",
      "outputs": [
        {
          "internalType": "uint256",
          "name": "",
          "type": "uint256"
        }
      ],
      "stateMutability": "view",
      "type": "function"
    },
    {
      "inputs": [],
      "name": "setFreeDest",
      "outputs": [],
      "stateMutability": "nonpayable",
      "type": "function"
    },
    {
      "inputs": [
        {
          "internalType": "string[]",
          "name": "_utilities",
          "type": "string[]"
        },
        {
          "internalType": "uint256[]",
          "name": "_amounts",
          "type": "uint256[]"
        }
      ],
      "name": "stake",
      "outputs": [],
      "stateMutability": "payable",
      "type": "function"
    },
    {
      "inputs": [
        {
          "internalType": "uint256",
          "name": "",
          "type": "uint256"
        }
      ],
      "name": "stakers",
      "outputs": [
        {
          "internalType": "address",
          "name": "",
          "type": "address"
        }
      ],
      "stateMutability": "view",
      "type": "function"
    },
    {
      "inputs": [
        {
          "internalType": "address",
          "name": "",
          "type": "address"
        }
      ],
      "name": "stakes",
      "outputs": [
        {
          "internalType": "uint256",
          "name": "totalBalance",
          "type": "uint256"
        },
        {
          "internalType": "uint256",
          "name": "eraStarted",
          "type": "uint256"
        }
      ],
      "stateMutability": "view",
      "type": "function"
    },
    {
      "inputs": [],
      "name": "sum2unstake",
      "outputs": [
        {
          "internalType": "uint256",
          "name": "",
          "type": "uint256"
        }
      ],
      "stateMutability": "view",
      "type": "function"
    },
    {
      "inputs": [
        {
          "internalType": "bytes4",
          "name": "interfaceId",
          "type": "bytes4"
        }
      ],
      "name": "supportsInterface",
      "outputs": [
        {
          "internalType": "bool",
          "name": "",
          "type": "bool"
        }
      ],
      "stateMutability": "view",
      "type": "function"
    },
    {
      "inputs": [
        {
          "internalType": "uint256",
          "name": "_era",
          "type": "uint256"
        }
      ],
      "name": "sync",
      "outputs": [],
      "stateMutability": "nonpayable",
      "type": "function"
    },
    {
      "inputs": [
        {
          "internalType": "address",
          "name": "_user",
          "type": "address"
        },
        {
          "internalType": "string[]",
          "name": "_utilities",
          "type": "string[]"
        }
      ],
      "name": "syncHarvest",
      "outputs": [],
      "stateMutability": "nonpayable",
      "type": "function"
    },
    {
      "inputs": [],
      "name": "totalBalance",
      "outputs": [
        {
          "internalType": "uint256",
          "name": "",
          "type": "uint256"
        }
      ],
      "stateMutability": "view",
      "type": "function"
    },
    {
      "inputs": [],
      "name": "totalRevenue",
      "outputs": [
        {
          "internalType": "uint256",
          "name": "",
          "type": "uint256"
        }
      ],
      "stateMutability": "view",
      "type": "function"
    },
    {
      "inputs": [
        {
          "internalType": "address",
          "name": "",
          "type": "address"
        }
      ],
      "name": "totalUserRewards",
      "outputs": [
        {
          "internalType": "uint256",
          "name": "",
          "type": "uint256"
        }
      ],
      "stateMutability": "view",
      "type": "function"
    },
    {
      "inputs": [],
      "name": "unbondedPool",
      "outputs": [
        {
          "internalType": "uint256",
          "name": "",
          "type": "uint256"
        }
      ],
      "stateMutability": "view",
      "type": "function"
    },
    {
      "inputs": [
        {
          "internalType": "string[]",
          "name": "_utilities",
          "type": "string[]"
        },
        {
          "internalType": "uint256[]",
          "name": "_amounts",
          "type": "uint256[]"
        },
        {
          "internalType": "bool",
          "name": "_immediate",
          "type": "bool"
        }
      ],
      "name": "unstake",
      "outputs": [],
      "stateMutability": "nonpayable",
      "type": "function"
    },
    {
      "inputs": [],
      "name": "unstakingPool",
      "outputs": [
        {
          "internalType": "uint256",
          "name": "",
          "type": "uint256"
        }
      ],
      "stateMutability": "view",
      "type": "function"
    },
    {
      "inputs": [],
      "name": "update",
      "outputs": [],
      "stateMutability": "nonpayable",
      "type": "function"
    },
    {
      "inputs": [
        {
          "internalType": "string",
          "name": "_utility",
          "type": "string"
        },
        {
          "internalType": "address",
          "name": "_user",
          "type": "address"
        }
      ],
      "name": "updateUserBalanceInAdapter",
      "outputs": [],
      "stateMutability": "nonpayable",
      "type": "function"
    },
    {
      "inputs": [
        {
          "internalType": "string",
          "name": "_utility",
          "type": "string"
        },
        {
          "internalType": "address",
          "name": "_user",
          "type": "address"
        }
      ],
      "name": "updateUserBalanceInUtility",
      "outputs": [],
      "stateMutability": "nonpayable",
      "type": "function"
    },
    {
      "inputs": [
        {
          "internalType": "address",
          "name": "",
          "type": "address"
        },
        {
          "internalType": "uint256",
          "name": "",
          "type": "uint256"
        },
        {
          "internalType": "uint256",
          "name": "",
          "type": "uint256"
        }
      ],
      "name": "usersShotsPerEra",
      "outputs": [
        {
          "internalType": "uint256",
          "name": "",
          "type": "uint256"
        }
      ],
      "stateMutability": "view",
      "type": "function"
    },
    {
      "inputs": [],
      "name": "utilName",
      "outputs": [
        {
          "internalType": "string",
          "name": "",
          "type": "string"
        }
      ],
      "stateMutability": "view",
      "type": "function"
    },
    {
      "inputs": [
        {
          "internalType": "uint256",
          "name": "_id",
          "type": "uint256"
        }
      ],
      "name": "withdraw",
      "outputs": [],
      "stateMutability": "nonpayable",
      "type": "function"
    },
    {
      "inputs": [],
      "name": "withdrawBlock",
      "outputs": [
        {
          "internalType": "uint256",
          "name": "",
          "type": "uint256"
        }
      ],
      "stateMutability": "view",
      "type": "function"
    },
    {
      "inputs": [
        {
          "internalType": "address",
          "name": "",
          "type": "address"
        },
        {
          "internalType": "uint256",
          "name": "",
          "type": "uint256"
        }
      ],
      "name": "withdrawals",
      "outputs": [
        {
          "internalType": "uint256",
          "name": "val",
          "type": "uint256"
        },
        {
          "internalType": "uint256",
          "name": "eraReq",
          "type": "uint256"
        },
        {
          "internalType": "uint256",
          "name": "lag",
          "type": "uint256"
        }
      ],
      "stateMutability": "view",
      "type": "function"
    }
  ],
  "bytecode": {
    "object": "0x608060405234801561001057600080fd5b506158be80620000216000396000f3fe6080604052600436106104515760003560e01c80638bf342371161023f578063c3b49d0411610139578063da3bc958116100b6578063e932b37b1161007a578063e932b37b14610e6c578063eb51a44c14610e8c578063f128f63114610ec6578063f188768414610edc578063fd5e6dd114610ef257600080fd5b8063da3bc95814610d6a578063dcf425df14610d8a578063e09c195414610e00578063e2e836f814610e36578063e77ee34514610e5657600080fd5b8063d0b06f5d116100fd578063d0b06f5d14610cea578063d1058e5914610d00578063d547741f14610d15578063d6356ff414610d35578063d78cfe0614610d5557600080fd5b8063c3b49d0414610c1f578063c4e137e714610c3f578063c71367b514610c79578063c78731dc14610c8f578063c8902a2114610caf57600080fd5b8063a5ae02ac116101c7578063b1357bf91161018b578063b1357bf914610b89578063b8d7cac914610ba9578063bd1bbd3b14610bc9578063bf2d9e0b14610be9578063c21a727614610bff57600080fd5b8063a5ae02ac14610b05578063ab48692914610b32578063ad7a672f14610b47578063adc1b95614610b5d578063af66c36b14610b7357600080fd5b8063a217fddf1161020e578063a217fddf14610a6e578063a22eae1b14610a83578063a2ce0f4a14610a96578063a2e6204514610ac3578063a44bca8e14610ad857600080fd5b80638bf34237146109e95780638c0f9aac14610a0957806391d1485414610a39578063973628f614610a5957600080fd5b806336568abe1161035057806359b40f41116102d85780636bbea7661161029c5780636bbea7661461092f5780636f1e85331461094f5780636f5e44881461097f5780636f68f2e91461099557806386b3cd26146109d057600080fd5b806359b40f41146108ad5780635c975abb146108c35780635ca5914e146108e45780635f1554e31461090457806366666aa91461091957600080fd5b80634421bd1e1161031f5780634421bd1e1461080d5780634d617451146108345780635495ec811461084a57806354b057f91461086057806359601ebc1461089857600080fd5b806336568abe14610770578063386df6eb1461079057806340bf8a8d146107b0578063422b1077146107d257600080fd5b80631dc00785116103de5780632a14d8f4116103a25780632a14d8f41461068d5780632e1a7d4d146106c55780632e4a4a17146106e55780632ea31bf6146106ff5780632f2ff15d1461075057600080fd5b80631dc00785146105da5780631f19014b1461060757806324025b1914610627578063248a9ca31461063d57806324f0f5481461066d57600080fd5b806312a12a061161042557806312a12a061461051757806312b3b4e61461052d57806316934fc41461054f5780631b2df850146105985780631bb5e2dc146105ba57600080fd5b8062179fbd1461045657806301ffc9a71461047f57806305e2a217146104af5780630f24ca7d146104e7575b600080fd5b34801561046257600080fd5b5061046c60b75481565b6040519081526020015b60405180910390f35b34801561048b57600080fd5b5061049f61049a3660046151de565b610f12565b6040519015158152602001610476565b3480156104bb57600080fd5b5060a6546104cf906001600160a01b031681565b6040516001600160a01b039091168152602001610476565b3480156104f357600080fd5b5061049f610502366004614e49565b60aa6020526000908152604090205460ff1681565b34801561052357600080fd5b5061046c60a85481565b34801561053957600080fd5b5061054d610548366004614e63565b610f49565b005b34801561055b57600080fd5b5061058361056a366004614e49565b609e602052600090815260409020805460019091015482565b60408051928352602083019190915201610476565b3480156105a457600080fd5b5061046c60008051602061586983398151915281565b3480156105c657600080fd5b506104cf6105d536600461519b565b61100d565b3480156105e657600080fd5b5061046c6105f536600461519b565b60ac6020526000908152604090205481565b34801561061357600080fd5b5061054d610622366004615032565b611037565b34801561063357600080fd5b5061046c609a5481565b34801561064957600080fd5b5061046c61065836600461519b565b60009081526065602052604090206001015490565b34801561067957600080fd5b5061054d610688366004615088565b61113e565b34801561069957600080fd5b5061046c6106a8366004615206565b805160208183018101805160c38252928201919093012091525481565b3480156106d157600080fd5b5061054d6106e036600461519b565b61170d565b3480156106f157600080fd5b5060b65461049f9060ff1681565b34801561070b57600080fd5b5061073961071a36600461519b565b60a1602052600090815260409020805460019091015460ff9091169082565b604080519215158352602083019190915201610476565b34801561075c57600080fd5b5061054d61076b3660046151b3565b61190d565b34801561077c57600080fd5b5061054d61078b3660046151b3565b611937565b34801561079c57600080fd5b5061054d6107ab366004615238565b6119b5565b3480156107bc57600080fd5b506107c56119fe565b6040516104769190615538565b3480156107de57600080fd5b506107f26107ed366004614eef565b611a8c565b60408051938452602084019290925290820152606001610476565b34801561081957600080fd5b50610822600981565b60405160ff9091168152602001610476565b34801561084057600080fd5b5061046c60bb5481565b34801561085657600080fd5b5061046c60a95481565b34801561086c57600080fd5b5061046c61087b366004614eef565b60ae60209081526000928352604080842090915290825290205481565b3480156108a457600080fd5b50610822600181565b3480156108b957600080fd5b506104cf61500181565b3480156108cf57600080fd5b5060c75461049f90600160a01b900460ff1681565b3480156108f057600080fd5b5060c7546104cf906001600160a01b031681565b34801561091057600080fd5b50610822600a81565b34801561092557600080fd5b5061046c609c5481565b34801561093b57600080fd5b50609d546104cf906001600160a01b031681565b34801561095b57600080fd5b5061049f61096a366004614e49565b60a76020526000908152604090205460ff1681565b34801561098b57600080fd5b5061046c609b5481565b3480156109a157600080fd5b5061049f6109b0366004615206565b805160208183018101805160c18252928201919093012091525460ff1681565b3480156109dc57600080fd5b5061046c64e8d4a5100081565b3480156109f557600080fd5b5061054d610a04366004614e49565b611ace565b348015610a1557600080fd5b5061049f610a24366004614e49565b60b86020526000908152604090205460ff1681565b348015610a4557600080fd5b5061049f610a543660046151b3565b611b4d565b348015610a6557600080fd5b5061046c611b78565b348015610a7a57600080fd5b5061046c600081565b61054d610a91366004615032565b611bf2565b348015610aa257600080fd5b5061046c610ab136600461519b565b60c46020526000908152604090205481565b348015610acf57600080fd5b5061054d61224c565b348015610ae457600080fd5b5061046c610af3366004614e49565b60b06020526000908152604090205481565b348015610b1157600080fd5b5061046c610b20366004614e49565b60b96020526000908152604090205481565b348015610b3e57600080fd5b506107c56122a7565b348015610b5357600080fd5b5061046c60995481565b348015610b6957600080fd5b5061046c60b35481565b348015610b7f57600080fd5b5061046c60b55481565b348015610b9557600080fd5b5061054d610ba436600461519b565b6122b4565b348015610bb557600080fd5b5061046c610bc4366004615238565b61235c565b348015610bd557600080fd5b5060c5546104cf906001600160a01b031681565b348015610bf557600080fd5b5061046c60ad5481565b348015610c0b57600080fd5b5061046c610c1a36600461519b565b6123c0565b348015610c2b57600080fd5b506104cf610c3a36600461519b565b6123d7565b348015610c4b57600080fd5b50610739610c5a36600461519b565b60a0602052600090815260409020805460019091015460ff9091169082565b348015610c8557600080fd5b5061046c60a35481565b348015610c9b57600080fd5b5061054d610caa366004615238565b6123e7565b348015610cbb57600080fd5b5061049f610cca366004615206565b805160208183018101805160c28252928201919093012091525460ff1681565b348015610cf657600080fd5b5061046c60a45481565b348015610d0c57600080fd5b5061054d6124fe565b348015610d2157600080fd5b5061054d610d303660046151b3565b612887565b348015610d4157600080fd5b5061046c610d50366004614f18565b6128ac565b348015610d6157600080fd5b5061054d6128ea565b348015610d7657600080fd5b506107c5610d8536600461519b565b61295d565b348015610d9657600080fd5b50610ddb610da5366004615206565b805160208183018101805160c0825292820191909301209152805460018201546002909201546001600160a01b03909116919083565b604080516001600160a01b039094168452602084019290925290820152606001610476565b348015610e0c57600080fd5b506104cf610e1b366004614e49565b60b1602052600090815260409020546001600160a01b031681565b348015610e4257600080fd5b5060c6546104cf906001600160a01b031681565b348015610e6257600080fd5b5061046c60bc5481565b348015610e7857600080fd5b5061054d610e87366004614eae565b612988565b348015610e9857600080fd5b50610739610ea736600461519b565b60a2602052600090815260409020805460019091015460ff9091169082565b348015610ed257600080fd5b5061046c60b25481565b348015610ee857600080fd5b5061046c60b45481565b348015610efe57600080fd5b506104cf610f0d36600461519b565b612af2565b60006001600160e01b03198216637965db0b60e01b1480610f4357506301ffc9a760e01b6001600160e01b03198316145b92915050565b600080516020615869833981519152610f6181612b02565b81518390839060005b81811015610fb557610fa3838281518110610f9557634e487b7160e01b600052603260045260246000fd5b602002602001015185612b0f565b80610fad81615813565b915050610f6a565b5060005b8181101561100457610ff2838281518110610fe457634e487b7160e01b600052603260045260246000fd5b602002602001015185612e7a565b80610ffc81615813565b915050610fb9565b50505050505050565b60ab818154811061101d57600080fd5b6000918252602090912001546001600160a01b0316905081565b818160008251116110635760405162461bcd60e51b815260040161105a90615620565b60405180910390fd5b80518251146110845760405162461bcd60e51b815260040161105a906155e9565b600061108e611b78565b90508060a454146110a2576110a281612efc565b84513390869060005b818110156110e8576110d6838281518110610f9557634e487b7160e01b600052603260045260246000fd5b806110e081615813565b9150506110ab565b506110f38888612f25565b60005b8181101561113357611121838281518110610fe457634e487b7160e01b600052603260045260246000fd5b8061112b81615813565b9150506110f6565b505050505050505050565b828260008251116111615760405162461bcd60e51b815260040161105a90615620565b80518251146111825760405162461bcd60e51b815260040161105a906155e9565b600061118c611b78565b90508060a454146111a0576111a081612efc565b6000806111ab611b78565b885190915060005b818110156116a45760c18a82815181106111dd57634e487b7160e01b600052603260045260246000fd5b60200260200101516040516111f291906153ac565b9081526040519081900360200190205460ff166112435760405162461bcd60e51b815260206004820152600f60248201526e556e6b6e6f776e207574696c69747960881b604482015260640161105a565b600089828151811061126557634e487b7160e01b600052603260045260246000fd5b602002602001015111156116925760008a828151811061129557634e487b7160e01b600052603260045260246000fd5b6020026020010151905060008a83815181106112c157634e487b7160e01b600052603260045260246000fd5b6020908102919091010151609d5460405163e1d9b41760e01b81529192506000916001600160a01b039091169063e1d9b41790611307903390879060989060040161543d565b60206040518083038186803b15801561131f57600080fd5b505afa158015611333573d6000803e3d6000fd5b505050506040513d601f19601f82011682018060405250810190611357919061527a565b9050818110156113a95760405162461bcd60e51b815260206004820152601b60248201527f4e6f7420656e6f756768206e4153545220696e207574696c6974790000000000604482015260640161105a565b600060c0846040516113bb91906153ac565b908152602001604051809103902090506113d58433612b0f565b6113e08188856133a3565b828160020160008282546113f49190615700565b92505081905550826099600082825461140d9190615757565b92505081905550828160010160008282546114289190615757565b9091555050609d54604051632937555f60e21b81526001600160a01b039091169063a4dd557c90611464903390879089906098906004016154cc565b600060405180830381600087803b15801561147e57600080fd5b505af1158015611492573d6000803e3d6000fd5b505050508b156115485782609b5410156114ee5760405162461bcd60e51b815260206004820152601760248201527f556e7374616b696e6720706f6f6c20647261696e656421000000000000000000604482015260640161105a565b60006114fb606485615718565b90508060ad600082825461150f9190615700565b9250508190555083609b60008282546115289190615757565b90915550611542905061153b8286615757565b3390613460565b50611630565b600061155588600a615738565b6004609a54600a6115669190615738565b6115709190615718565b60a95461157e90600a615738565b6115889190615700565b11156115d95761159988600a615738565b6004609a54600a6115aa9190615738565b6115b49190615718565b60a9546115c290600a615738565b6115cc9190615700565b6115d69190615757565b90505b336000908152609f6020908152604080832081516060810183528881528084018d81529281019586528154600181810184559286529390942093516003909302909301918255519181019190915590516002909101555b61163a8389615700565b97508360405161164a91906153ac565b604080519182900382208583528e151560208401529133917f9ea511fbdfb8cad72fe86c90f2b4bd44693fb585a82c8719ca0c2ac8b4053c6b910160405180910390a3505050505b8061169c81615813565b9150506111b3565b508215611133578260bd60010160008282546116c09190615700565b909155505060408051848152881515602082015233917f4416ca74b4c9dd8d6070d91c267a6cf53734c0f343ced0ad02471ccb5417037e91015b60405180910390a2505050505050505050565b6000611717611b78565b90508060a4541461172b5761172b81612efc565b336000908152609f6020526040812080548490811061175a57634e487b7160e01b600052603260045260246000fd5b600091825260208220600390910201805490925090611777611b78565b90508260010154600014156117ce5760405162461bcd60e51b815260206004820152601a60248201527f5769746864726177616c20616c726561647920636c61696d6564000000000000604482015260640161105a565b6002830154609a546117e190600a615738565b6117eb9190615700565b60018401546117fb90600a615738565b61180683600a615738565b6118109190615757565b101561185e5760405162461bcd60e51b815260206004820152601760248201527f4e6f7420656e6f75676820657261732070617373656421000000000000000000604482015260640161105a565b8160a35410156118a95760405162461bcd60e51b8152602060048201526016602482015275556e626f6e64656420706f6f6c20647261696e65642160501b604482015260640161105a565b8160a360008282546118bb9190615757565b9091555050600060018401556118d13383613460565b60405182815233907f7084f5476618d8e60b11ef0d7d3f06914655adb8793e28ff7f018d4c76d505d59060200160405180910390a25050505050565b60008281526065602052604090206001015461192881612b02565b6119328383613579565b505050565b6001600160a01b03811633146119a75760405162461bcd60e51b815260206004820152602f60248201527f416363657373436f6e74726f6c3a2063616e206f6e6c792072656e6f756e636560448201526e103937b632b9903337b91039b2b63360891b606482015260840161105a565b6119b182826135ff565b5050565b609d546001600160a01b03163314806119d8575060c6546001600160a01b031633145b6119f45760405162461bcd60e51b815260040161105a90615657565b6119b18282612e7a565b60988054611a0b906157d8565b80601f0160208091040260200160405190810160405280929190818152602001828054611a37906157d8565b8015611a845780601f10611a5957610100808354040283529160200191611a84565b820191906000526020600020905b815481529060010190602001808311611a6757829003601f168201915b505050505081565b609f6020528160005260406000208181548110611aa857600080fd5b600091825260209091206003909102018054600182015460029092015490935090915083565b600080516020615869833981519152611ae681612b02565b506001600160a01b0316600081815260b860205260408120805460ff1916600190811790915560ba805491820181559091527ff3b9eb9e163af2088b11de0a369fb583f58f9440e0e5c70fce0c59909ecece8a0180546001600160a01b0319169091179055565b60009182526065602090815260408084206001600160a01b0393909316845291905290205460ff1690565b60006150016001600160a01b031663e608d80b6040518163ffffffff1660e01b815260040160206040518083038186803b158015611bb557600080fd5b505afa158015611bc9573d6000803e3d6000fd5b505050506040513d601f19601f82011682018060405250810190611bed919061527a565b905090565b81816000825111611c155760405162461bcd60e51b815260040161105a90615620565b8051825114611c365760405162461bcd60e51b815260040161105a906155e9565b6000611c40611b78565b90508060a45414611c5457611c5481612efc565b845134906000805b82811015611dac5760c2898281518110611c8657634e487b7160e01b600052603260045260246000fd5b6020026020010151604051611c9b91906153ac565b9081526040519081900360200190205460ff16611cec5760405162461bcd60e51b815260206004820152600f60248201526e44617070206e6f742061637469766560881b604482015260640161105a565b60b454888281518110611d0f57634e487b7160e01b600052603260045260246000fd5b60200260200101511015611d655760405162461bcd60e51b815260206004820152601760248201527f4e6f7420656e6f756768207374616b6520616d6f756e74000000000000000000604482015260640161105a565b878181518110611d8557634e487b7160e01b600052603260045260246000fd5b602002602001015182611d989190615700565b915080611da481615813565b915050611c5c565b5060008111611df15760405162461bcd60e51b8152602060048201526011602482015270496e636f727265637420616d6f756e747360781b604482015260640161105a565b80831015611e335760405162461bcd60e51b815260206004820152600f60248201526e496e636f72726563742076616c756560881b604482015260640161105a565b8060bd6000016000828254611e489190615700565b9091555060009050611e58611b78565b33600090815260a7602052604090205490915060ff16611e8d5733600090815260a760205260409020805460ff191660011790555b8160996000828254611e9f9190615700565b90915550611eb2905061153b8386615757565b60005b838110156122195760c08a8281518110611edf57634e487b7160e01b600052603260045260246000fd5b6020026020010151604051611ef491906153ac565b9081526040805160209281900383019020336000908152600391820190935291200154611f8157611f26826001615700565b60c08b8381518110611f4857634e487b7160e01b600052603260045260246000fd5b6020026020010151604051611f5d91906153ac565b90815260408051602092819003830190203360009081526003918201909352912001555b6000898281518110611fa357634e487b7160e01b600052603260045260246000fd5b602002602001015111156122075760008a8281518110611fd357634e487b7160e01b600052603260045260246000fd5b602002602001015190506150016001600160a01b03166352b73e4160c083604051611ffe91906153ac565b908152604051908190036020019020548c516001600160a01b03909116908d908690811061203c57634e487b7160e01b600052603260045260246000fd5b60200260200101516040518363ffffffff1660e01b81526004016120619291906154a1565b600060405180830381600087803b15801561207b57600080fd5b505af115801561208f573d6000803e3d6000fd5b5050609d548c516001600160a01b03909116925063398a1329915033908d90869081106120cc57634e487b7160e01b600052603260045260246000fd5b60200260200101518460986040518563ffffffff1660e01b81526004016120f694939291906154cc565b600060405180830381600087803b15801561211057600080fd5b505af1158015612124573d6000803e3d6000fd5b5050505089828151811061214857634e487b7160e01b600052603260045260246000fd5b602002602001015160c08260405161216091906153ac565b908152602001604051809103902060010160008282546121809190615700565b90915550506040516121939082906153ac565b6040518091039020336001600160a01b03167f3c8bcf34be6605e590f1ef6c776b246c9568fd25b21b847fe22f998cff48eb9e8c85815181106121e657634e487b7160e01b600052603260045260246000fd5b60200260200101516040516121fd91815260200190565b60405180910390a3505b8061221181615813565b915050611eb5565b5060405182815233907f9e71bc8eea02a63969f509818f2dafb9254532904319f9dbda79b67bd34a5f3d906020016116fa565b60008051602061586983398151915261226481612b02565b60405164416c67656d60d81b815260c09060050190815260405190819003602001902080546001600160a01b031916815560006001820181905560029091015550565b60978054611a0b906157d8565b6000805160206158698339815191526122cc81612b02565b60a454821180156122e457506122e0611b78565b8211155b6123225760405162461bcd60e51b815260206004820152600f60248201526e57726f6e67206572612072616e676560881b604482015260640161105a565b61232b82612efc565b604051829033907fb3a1bc35f2ae5834830c888981da2a3da5e47f57fc47da50ca9e18d31a083d0490600090a35050565b6000806123698484613666565b505050905060c08460405161237e91906153ac565b90815260408051602092819003830190206001600160a01b0386166000908152600390910183522060020154908201516123b89190615700565b949350505050565b60bd81600281106123d057600080fd5b0154905081565b60ba818154811061101d57600080fd5b609d546001600160a01b031633148061240a575060c6546001600160a01b031633145b6124265760405162461bcd60e51b815260040161105a90615657565b6001600160a01b0381166124725760405162461bcd60e51b81526020600482015260136024820152725a65726f206164647265737320616c61726d2160681b604482015260640161105a565b60c6546040516343704d8760e11b81526001600160a01b03838116600483015260009216906386e09b0e906024015b60206040518083038186803b1580156124b957600080fd5b505afa1580156124cd573d6000803e3d6000fd5b505050506040513d601f19601f820116820180604052508101906124f1919061527a565b9050611932838383613bdc565b6000612508611b78565b90508060a4541461251c5761251c81612efc565b609d5460405163e0a3b21f60e01b81526000916001600160a01b03169063e0a3b21f9061255090339060989060040161547d565b60006040518083038186803b15801561256857600080fd5b505afa15801561257c573d6000803e3d6000fd5b505050506040513d6000823e601f3d908101601f191682016040526125a49190810190614f4a565b805190915060006125b6826001615700565b6001600160401b038111156125db57634e487b7160e01b600052604160045260246000fd5b604051908082528060200260200182016040528015612604578160200160208202803683370190505b5090506000612614836001615700565b6001600160401b0381111561263957634e487b7160e01b600052604160045260246000fd5b60405190808252806020026020018201604052801561266c57816020015b60608152602001906001900390816126575790505b50905060005b838110156126e05784818151811061269a57634e487b7160e01b600052603260045260246000fd5b60200260200101518282815181106126c257634e487b7160e01b600052603260045260246000fd5b602002602001018190525080806126d890615813565b915050612672565b506040518060400160405280600f81526020016e41646170746572735574696c69747960881b81525081848151811061272957634e487b7160e01b600052603260045260246000fd5b602002602001018190525060005b612742846001615700565b8110156128265761277a82828151811061276c57634e487b7160e01b600052603260045260246000fd5b602002602001015133612b0f565b60c082828151811061279c57634e487b7160e01b600052603260045260246000fd5b60200260200101516040516127b191906153ac565b90815260200160405180910390206003016000336001600160a01b03166001600160a01b031681526020019081526020016000206002015483828151811061280957634e487b7160e01b600052603260045260246000fd5b60209081029190910101528061281e81615813565b915050612737565b506128318183612f25565b60005b8381101561287f5761286d82828151811061285f57634e487b7160e01b600052603260045260246000fd5b602002602001015133612e7a565b8061287781615813565b915050612834565b505050505050565b6000828152606560205260409020600101546128a281612b02565b61193283836135ff565b60af60205282600052604060002060205281600052604060002081815481106128d457600080fd5b9060005260206000200160009250925050505481565b60008051602061586983398151915261290281612b02565b60405163258d874360e11b815261500190634b1b0e869061292890600090600401615510565b600060405180830381600087803b15801561294257600080fd5b505af1158015612956573d6000803e3d6000fd5b5050505050565b60bf818154811061296d57600080fd5b906000526020600020016000915090508054611a0b906157d8565b609d546001600160a01b03163314806129ab575060c6546001600160a01b031633145b6129c75760405162461bcd60e51b815260040161105a90615657565b6001600160a01b038216600090815260a7602052604090205460ff16612a4d576001600160a01b038216600081815260a760205260408120805460ff1916600190811790915560a5805491820181559091527fb29a2b3b6f2ff1b765777a231725941da5072cc4fcc30ac4a2ce09706e8ddeff0180546001600160a01b03191690911790555b60c081604051612a5d91906153ac565b90815260200160405180910390206003016000836001600160a01b03166001600160a01b0316815260200190815260200160002060030154600014156119b157612aa5611b78565b612ab0906001615700565b60c082604051612ac091906153ac565b908152604080519182900360209081019092206001600160a01b03861660009081526003918201909352912001555050565b60a5818154811061101d57600080fd5b612b0c8133613d04565b50565b600080600080612b1f8686613666565b93509350935093508015612ce6578160c087604051612b3e91906153ac565b90815260408051602092819003830190206001600160a01b03891660009081526003909101835281812060a454825290925290205581612b7f576001612b82565b60005b60c087604051612b9291906153ac565b90815260408051602092819003830190206001600160a01b0389811660009081526003909201845282822060a480548452600191820190955292909120805460ff19169415159490941790935560c5549154919092169163fb35f9879189918991612bfd9190615757565b88516040516001600160e01b031960e087901b168152612c239493929190600401615579565b600060405180830381600087803b158015612c3d57600080fd5b505af1158015612c51573d6000803e3d6000fd5b505060c55460a4546001600160a01b039091169250630cbd535e915087908690612c7d90600190615757565b6040516001600160e01b031960e086901b1681526001600160a01b03909316600484015260ff90911660248301526044820152606401600060405180830381600087803b158015612ccd57600080fd5b505af1158015612ce1573d6000803e3d6000fd5b505050505b60c086604051612cf691906153ac565b90815260200160405180910390206003016000866001600160a01b03166001600160a01b0316815260200190815260200160002060030154600014612d755760a45460c087604051612d4891906153ac565b90815260408051602092819003830190206001600160a01b03891660009081526003918201909352912001555b6020840151612d8657505050505050565b602084015160405160c090612d9c9089906153ac565b90815260200160405180910390206003016000876001600160a01b03166001600160a01b031681526020019081526020016000206002016000828254612de29190615700565b90915550506020808501516001600160a01b038716600090815260b090925260408220805491929091612e16908490615700565b9091555050604051612e299087906153ac565b604051908190038120602080870151835290916001600160a01b038816917fe031024ebd0ad1a1f63e67d469a2409c8f8877c863d4213103c331bbabafa0a6910160405180910390a3505050505050565b6001600160a01b038116612ec65760405162461bcd60e51b81526020600482015260136024820152725a65726f206164647265737320616c61726d2160681b604482015260640161105a565b609d5460405163e1d9b41760e01b81526000916001600160a01b03169063e1d9b417906124a1908590879060989060040161543d565b612f0581613d68565b612f0e81613e86565b612f1781614567565b612f2081614650565b60a455565b33600090815260b8602052604090205460ff1615612f915760405162461bcd60e51b815260206004820152602360248201527f436c61696d206e6f7420616c6c6f77656420666f7220706172746e657220706f6044820152626f6c7360e81b606482015260840161105a565b81516000805b8281101561331a576000848281518110612fc157634e487b7160e01b600052603260045260246000fd5b6020026020010151111561330857600060c0868381518110612ff357634e487b7160e01b600052603260045260246000fd5b602002602001015160405161300891906153ac565b9081526020016040518091039020905084828151811061303857634e487b7160e01b600052603260045260246000fd5b6020026020010151816003016000336001600160a01b03166001600160a01b031681526020019081526020016000206002015410156130af5760405162461bcd60e51b81526020600482015260136024820152724e6f7420656e6f75676820726577617264732160681b604482015260640161105a565b8482815181106130cf57634e487b7160e01b600052603260045260246000fd5b6020026020010151609c54101561311f5760405162461bcd60e51b815260206004820152601460248201527314995dd85c991cc81c1bdbdb08191c985a5b995960621b604482015260640161105a565b84828151811061313f57634e487b7160e01b600052603260045260246000fd5b6020026020010151609c60008282546131589190615757565b9250508190555084828151811061317f57634e487b7160e01b600052603260045260246000fd5b6020026020010151816003016000336001600160a01b03166001600160a01b0316815260200190815260200160002060020160008282546131c09190615757565b925050819055508482815181106131e757634e487b7160e01b600052603260045260246000fd5b602002602001015160b06000336001600160a01b03166001600160a01b0316815260200190815260200160002060008282546132239190615757565b9250508190555084828151811061324a57634e487b7160e01b600052603260045260246000fd5b60200260200101518361325d9190615700565b925085828151811061327f57634e487b7160e01b600052603260045260246000fd5b602002602001015160405161329491906153ac565b6040518091039020336001600160a01b03167f797a477e49f23d65ef8588df156ba8c74c6e21a51d6cf6737320d868c0e7c9f88785815181106132e757634e487b7160e01b600052603260045260246000fd5b60200260200101516040516132fe91815260200190565b60405180910390a3505b8061331281615813565b915050612f97565b506000811161335e5760405162461bcd60e51b815260206004820152601060248201526f4e6f7468696e6720746f20636c61696d60801b604482015260640161105a565b6133683382613460565b60405181815233907fd8138f8a3f377c5259ca548e70e4c2de94f129f5a11036a15b69513cba2b426a9060200160405180910390a250505050565b336000908152600384016020908152604080832085845260010190915290205460ff166119325733600090815260038401602090815260408083208584529091529020548110156134255733600090815260038401602090815260408083208584529091528120805483929061341a908490615757565b909155506119329050565b50336000908152600392909201602090815260408084209284528282528084208490556001928301909152909120805460ff19169091179055565b804710156134b05760405162461bcd60e51b815260206004820152601d60248201527f416464726573733a20696e73756666696369656e742062616c616e6365000000604482015260640161105a565b6000826001600160a01b03168260405160006040518083038185875af1925050503d80600081146134fd576040519150601f19603f3d011682016040523d82523d6000602084013e613502565b606091505b50509050806119325760405162461bcd60e51b815260206004820152603a60248201527f416464726573733a20756e61626c6520746f2073656e642076616c75652c207260448201527f6563697069656e74206d61792068617665207265766572746564000000000000606482015260840161105a565b6135838282611b4d565b6119b15760008281526065602090815260408083206001600160a01b03851684529091529020805460ff191660011790556135bb3390565b6001600160a01b0316816001600160a01b0316837f2f8788117e7eff1d82e926ec794901d17c78024a50270940304540a733656f0d60405160405180910390a45050565b6136098282611b4d565b156119b15760008281526065602090815260408083206001600160a01b0385168085529252808320805460ff1916905551339285917ff6391f5c32d9c69d2a47ea670b442974b53935d1edc7fd64eb21e047a839171b9190a45050565b61366e614cd5565b60008060008060c08760405161368491906153ac565b90815260408051602092819003830190206001600160a01b03891660009081526003909101835281812060b8909352205490915060ff16806136cc575060a454816003015410155b806136d957506003810154155b156136ee575060009250829150819050613bd3565b60c55460038201546001600160a01b039091169063933c9a24908990899061371890600190615757565b6040518463ffffffff1660e01b81526004016137369392919061554b565b604080518083038186803b15801561374d57600080fd5b505afa158015613761573d6000803e3d6000fd5b505050506040513d601f19601f820116820180604052508101906137859190615292565b50855260c55460038201546000916001600160a01b031690633f1fb67c9089906137b190600190615757565b6040516001600160e01b031960e085901b1681526001600160a01b039092166004830152602482015260440160206040518083038186803b1580156137f557600080fd5b505afa158015613809573d6000803e3d6000fd5b505050506040513d601f19601f8201168201806040525081019061382d91906152c1565b905060ff811661383b575060095b60038201546000908152602083905260408082205460c55491516339770cd160e11b81529092916001600160a01b0316906372ee19a290613880908d90600401615538565b60206040518083038186803b15801561389857600080fd5b505afa1580156138ac573d6000803e3d6000fd5b505050506040513d601f19601f820116820180604052508101906138d0919061517f565b60038501549091505b60a454811015613bc65782156139f1578851158015906138f65750815b156139805760c5546040516314d6a44160e21b81526001600160a01b039091169063535a91049061392d908e9088906004016155b1565b60206040518083038186803b15801561394557600080fd5b505afa158015613959573d6000803e3d6000fd5b505050506040513d601f19601f8201168201806040525081019061397d91906152c1565b93505b600081815260c4602052604081205464e8d4a51000906139a09086615738565b6139aa9190615718565b9050606460016139ba878361576e565b6139c4919061576e565b6139d19060ff1683615738565b6139db9190615718565b60208b0180516139ec908390615700565b905250505b8460006139ff836001615700565b81526020019081526020016000205460001415613a4c57846001016000826001613a299190615700565b815260208101919091526040016000205460ff1615613a4757600092505b613a6c565b846000613a5a836001615700565b81526020019081526020016000205492505b60008060c560009054906101000a90046001600160a01b03166001600160a01b031663933c9a248e8e866040518463ffffffff1660e01b8152600401613ab49392919061554b565b604080518083038186803b158015613acb57600080fd5b505afa158015613adf573d6000803e3d6000fd5b505050506040513d601f19601f82011682018060405250810190613b039190615292565b915091508160001415613b20578015613b1b5760008b525b613b24565b818b525b60c554604051630fc7ed9f60e21b81526001600160a01b038e81166004830152602482018690526000921690633f1fb67c9060440160206040518083038186803b158015613b7157600080fd5b505afa158015613b85573d6000803e3d6000fd5b505050506040513d601f19601f82011682018060405250810190613ba991906152c1565b905060ff811615613bb8578096505b8360010193505050506138d9565b5091955093506001925050505b92959194509250565b6000613be6611b78565b613bf1906001615700565b9050600060c085604051613c0591906153ac565b9081526040805191829003602090810183206001600160a01b0388166000908152600390910190915220915060c090613c3f9087906153ac565b90815260200160405180910390206003016000856001600160a01b03166001600160a01b031681526020019081526020016000206003015460001415613cbd578160c086604051613c9091906153ac565b90815260408051602092819003830190206001600160a01b03881660009081526003918201909352912001555b600082815260208290526040902083905582613cda576001613cdd565b60005b60009283526001919091016020526040909120805460ff1916911515919091179055505050565b613d0e8282611b4d565b6119b157613d26816001600160a01b03166014614771565b613d31836020614771565b604051602001613d429291906153c8565b60408051601f198184030181529082905262461bcd60e51b825261105a91600401615538565b60004790506150016001600160a01b03166377a0fe026040518163ffffffff1660e01b8152600401600060405180830381600087803b158015613daa57600080fd5b505af1925050508015613dbb575060015b613e35573d808015613de9576040519150601f19603f3d011682016040523d82523d6000602084013e613dee565b606091505b5080604051613dfd91906153ac565b6040519081900381209084907ff031b94d40b16f5c2b8213e25ea0f640687fa24e99f6a0ef56cdd46762434a2f90600090a350613e60565b60405182907e973a60d81248412b3530a2ff12c475667dc3c0ece650fb361c044aa240565b90600090a25b47613e6b8282615757565b60a36000828254613e7c9190615700565b9091555050505050565b8060a45410613e925750565b60bf544760005b82811015613f8157613f6f60bf8281548110613ec557634e487b7160e01b600052603260045260246000fd5b906000526020600020018054613eda906157d8565b80601f0160208091040260200160405190810160405280929190818152602001828054613f06906157d8565b8015613f535780601f10613f2857610100808354040283529160200191613f53565b820191906000526020600020905b815481529060010190602001808311613f3657829003601f168201915b505050505060a45460a4546001613f6a9190615700565b614959565b80613f7981615813565b915050613e99565b5047613f8b614cd5565b613f958383615757565b815260005b848110156140805761406e60bf8281548110613fc657634e487b7160e01b600052603260045260246000fd5b906000526020600020018054613fdb906157d8565b80601f0160208091040260200160405190810160405280929190818152602001828054614007906157d8565b80156140545780601f1061402957610100808354040283529160200191614054565b820191906000526020600020905b81548152906001019060200180831161403757829003601f168201915b505050505060a45460016140689190615700565b88614959565b8061407881615813565b915050613f9a565b5061408b8247615757565b6020820181905281516000916140a091615700565b9050600060a454876140b29190615757565b905060006140c1600183615757565b60be546140ce9190615738565b6140d9600184615757565b60bd546140e69190615738565b8360bc546140f49190615738565b6140fe9190615700565b6141089190615757565b905080156144b75760c55460a4546000916001600160a01b031690633cc2681e9061413590600190615757565b61414060018d615757565b6040516001600160e01b031960e085901b168152600481019290925260248201526044016040805180830381600087803b15801561417d57600080fd5b505af1158015614191573d6000803e3d6000fd5b505050506040513d601f19601f820116820180604052508101906141b591906150fc565b60c55460a4549192506000916001600160a01b0390911690632eedcb18906141df90600190615757565b6040518263ffffffff1660e01b81526004016141fd91815260200190565b604080518083038186803b15801561421457600080fd5b505afa158015614228573d6000803e3d6000fd5b505050506040513d601f19601f8201168201806040525081019061424c91906150fc565b905060008060008060bc5411156143125760bc5489516142729064e8d4a5100090615738565b61427c9190615718565b925061428e64e8d4a510006064615738565b602085015161429d9085615738565b6142a79190615718565b6142b19083615700565b91506142c364e8d4a510006064615738565b845160bc546142d29190615757565b6142dd600986615738565b6142e79190615738565b6142f19190615718565b6142fb9082615700565b60a454600090815260c46020526040902084905590505b60bc548611156144255760bc546143299087615757565b60208a015161433e9064e8d4a5100090615738565b6143489190615718565b925061435a64e8d4a510006064615738565b6020808601519087015161436e9190615757565b6143789085615738565b6143829190615718565b61438c9083615700565b915061439e64e8d4a510006064615738565b845186516143ac9190615757565b60bc546143b99089615757565b6143c39190615757565b6143ce600986615738565b6143d89190615738565b6143e29190615718565b6143ec9082615700565b9050600060a45460016143ff9190615700565b90505b8d81101561442357600081815260c460205260409020849055600101614402565b505b600061443260648a615718565b905060008183614442868d615757565b61444c9190615757565b6144569190615757565b90506144628385615700565b60ad60008282546144739190615700565b9250508190555081609b600082825461448c9190615700565b9250508190555080609c60008282546144a59190615700565b909155506144cf975050505050505050565b8260ad60008282546144c99190615700565b90915550505b600060be81905560bd55609d5460405163b39fd5cf60e01b81526001600160a01b039091169063b39fd5cf9061450a906098906004016155d6565b60206040518083038186803b15801561452257600080fd5b505afa158015614536573d6000803e3d6000fd5b505050506040513d601f19601f8201168201806040525081019061455a919061527a565b60bc555050505050505050565b60a4545b818110156119b157604051631b70ba6560e01b815261500190631b70ba659061459a90309085906004016154a1565b600060405180830381600087803b1580156145b457600080fd5b505af19250505080156145c5575060015b614648573d8080156145f3576040519150601f19603f3d011682016040523d82523d6000602084013e6145f8565b606091505b508060405161460791906153ac565b60408051918290038220600085815260c460205291822054909285927fd498dea2d0c05beb55c31ed0854ee53e1cae52b3032855d37a0e7cc1af9a275491a4505b60010161456b565b6004609a54600a6146619190615738565b61466b9190615718565b60a95461467990600a615738565b6146839190615700565b61468e82600a615738565b10156146975750565b60bf5460005b8181101561476a5761476260bf82815481106146c957634e487b7160e01b600052603260045260246000fd5b9060005260206000200180546146de906157d8565b80601f016020809104026020016040519081016040528092919081815260200182805461470a906157d8565b80156147575780601f1061472c57610100808354040283529160200191614757565b820191906000526020600020905b81548152906001019060200180831161473a57829003601f168201915b505050505084614b04565b60010161469d565b505060a955565b60606000614780836002615738565b61478b906002615700565b6001600160401b038111156147b057634e487b7160e01b600052604160045260246000fd5b6040519080825280601f01601f1916602001820160405280156147da576020820181803683370190505b509050600360fc1b8160008151811061480357634e487b7160e01b600052603260045260246000fd5b60200101906001600160f81b031916908160001a905350600f60fb1b8160018151811061484057634e487b7160e01b600052603260045260246000fd5b60200101906001600160f81b031916908160001a9053506000614864846002615738565b61486f906001615700565b90505b6001811115614903576f181899199a1a9b1b9c1cb0b131b232b360811b85600f16601081106148b157634e487b7160e01b600052603260045260246000fd5b1a60f81b8282815181106148d557634e487b7160e01b600052603260045260246000fd5b60200101906001600160f81b031916908160001a90535060049490941c936148fc816157c1565b9050614872565b5083156149525760405162461bcd60e51b815260206004820181905260248201527f537472696e67733a20686578206c656e67746820696e73756666696369656e74604482015260640161105a565b9392505050565b600060c28460405161496b91906153ac565b9081526040519081900360200190205460ff166149a65760c38460405161499291906153ac565b9081526020016040518091039020546149a8565b815b9050825b81811015612956576150016001600160a01b031663a0b9d8be60c0876040516149d591906153ac565b908152604051908190036020018120546001600160e01b031960e084901b1682526001600160a01b03166004820152602401600060405180830381600087803b158015614a2157600080fd5b505af1925050508015614a32575060015b614ac1573d808015614a60576040519150601f19603f3d011682016040523d82523d6000602084013e614a65565b606091505b5080604051614a7491906153ac565b60405180910390208287604051614a8b91906153ac565b604051908190038120907fe92a3c7a04201825f5511627b1065ebf99f2e562a3071da98959b67390f40b8590600090a450614afc565b807fe3ad3e6ae6e2f00623af1899e05e142e09f8af5b7f4e9b765d94646d6bb9b89282604051614af391815260200190565b60405180910390a25b6001016149ac565b600060c083604051614b1691906153ac565b90815260200160405180910390209050806002015460001415614b3857505050565b60c283604051614b4891906153ac565b9081526040519081900360200190205460ff16158015614b85575060c383604051614b7391906153ac565b90815260200160405180910390205482115b15614b8f57505050565b805460028201546040516363c20ee960e11b81526150019263c7841dd292614bc5926001600160a01b03909216916004016154a1565b600060405180830381600087803b158015614bdf57600080fd5b505af1925050508015614bf0575060015b614c8d573d808015614c1e576040519150601f19603f3d011682016040523d82523d6000602084013e614c23565b606091505b5080604051614c3291906153ac565b60405180910390208385604051614c4991906153ac565b60405190819003812060028601548252907f3e8c350ba500216bc0dc1717cad4db6a92e07dedabe48c3498743b062f8fa5229060200160405180910390a450505050565b817fd112be63e7fceb2dddc1fcf8ae6159d873af98be4505daee865e08f2aeae802d60b554604051614cc191815260200190565b60405180910390a260006002820155505050565b60405180604001604052806002906020820280368337509192915050565b80356001600160a01b0381168114614d0a57600080fd5b919050565b600082601f830112614d1f578081fd5b81356020614d34614d2f836156b6565b615686565b80838252828201915082860187848660051b8901011115614d53578586fd5b855b85811015614d935781356001600160401b03811115614d72578788fd5b614d808a87838c0101614dfd565b8552509284019290840190600101614d55565b5090979650505050505050565b600082601f830112614db0578081fd5b81356020614dc0614d2f836156b6565b80838252828201915082860187848660051b8901011115614ddf578586fd5b855b85811015614d9357813584529284019290840190600101614de1565b600082601f830112614e0d578081fd5b8135614e1b614d2f826156d9565b818152846020838601011115614e2f578283fd5b816020850160208301379081016020019190915292915050565b600060208284031215614e5a578081fd5b61495282614cf3565b60008060408385031215614e75578081fd5b614e7e83614cf3565b915060208301356001600160401b03811115614e98578182fd5b614ea485828601614d0f565b9150509250929050565b60008060408385031215614ec0578182fd5b614ec983614cf3565b915060208301356001600160401b03811115614ee3578182fd5b614ea485828601614dfd565b60008060408385031215614f01578182fd5b614f0a83614cf3565b946020939093013593505050565b600080600060608486031215614f2c578081fd5b614f3584614cf3565b95602085013595506040909401359392505050565b60006020808385031215614f5c578182fd5b82516001600160401b0380821115614f72578384fd5b818501915085601f830112614f85578384fd5b8151614f93614d2f826156b6565b80828252858201915085850189878560051b8801011115614fb2578788fd5b875b8481101561502357815186811115614fca57898afd5b8701603f81018c13614fda57898afd5b888101516040614fec614d2f836156d9565b8281528e82848601011115614fff578c8dfd5b61500e838d8301848701615791565b87525050509287019290870190600101614fb4565b50909998505050505050505050565b60008060408385031215615044578182fd5b82356001600160401b038082111561505a578384fd5b61506686838701614d0f565b9350602085013591508082111561507b578283fd5b50614ea485828601614da0565b60008060006060848603121561509c578081fd5b83356001600160401b03808211156150b2578283fd5b6150be87838801614d0f565b945060208601359150808211156150d3578283fd5b506150e086828701614da0565b92505060408401356150f18161585a565b809150509250925092565b60006040828403121561510d578081fd5b82601f83011261511b578081fd5b604051604081018181106001600160401b038211171561513d5761513d615844565b8060405250808385604086011115615153578384fd5b835b6002811015615174578151835260209283019290910190600101615155565b509195945050505050565b600060208284031215615190578081fd5b81516149528161585a565b6000602082840312156151ac578081fd5b5035919050565b600080604083850312156151c5578182fd5b823591506151d560208401614cf3565b90509250929050565b6000602082840312156151ef578081fd5b81356001600160e01b031981168114614952578182fd5b600060208284031215615217578081fd5b81356001600160401b0381111561522c578182fd5b6123b884828501614dfd565b6000806040838503121561524a578182fd5b82356001600160401b0381111561525f578283fd5b61526b85828601614dfd565b9250506151d560208401614cf3565b60006020828403121561528b578081fd5b5051919050565b600080604083850312156152a4578182fd5b8251915060208301516152b68161585a565b809150509250929050565b6000602082840312156152d2578081fd5b815160ff81168114614952578182fd5b600081518084526152fa816020860160208601615791565b601f01601f19169290920160200192915050565b8054600090600181811c908083168061532857607f831692505b602080841082141561534857634e487b7160e01b86526022600452602486fd5b8388526020880182801561536357600181146153745761539f565b60ff1987168252828201975061539f565b60008981526020902060005b8781101561539957815484820152908601908401615380565b83019850505b5050505050505092915050565b600082516153be818460208701615791565b9190910192915050565b7f416363657373436f6e74726f6c3a206163636f756e7420000000000000000000815260008351615400816017850160208801615791565b7001034b99036b4b9b9b4b733903937b6329607d1b6017918401918201528351615431816028840160208801615791565b01602801949350505050565b6001600160a01b0384168152606060208201819052600090615461908301856152e2565b8281036040840152615473818561530e565b9695505050505050565b6001600160a01b03831681526040602082018190526000906123b89083018461530e565b6001600160a01b039290921682526fffffffffffffffffffffffffffffffff16602082015260400190565b60018060a01b03851681528360208201526080604082015260006154f360808301856152e2565b8281036060840152615505818561530e565b979650505050505050565b602081016002831061553257634e487b7160e01b600052602160045260246000fd5b91905290565b60208152600061495260208301846152e2565b60608152600061555e60608301866152e2565b6001600160a01b039490941660208301525060400152919050565b60808152600061558c60808301876152e2565b6001600160a01b03959095166020830152506040810192909252606090910152919050565b6040815260006155c460408301856152e2565b905060ff831660208301529392505050565b602081526000614952602083018461530e565b60208082526017908201527f496e636f727265637420617272617973206c656e677468000000000000000000604082015260600190565b60208082526017908201527f4e6f206f6e65207574696c6974792073656c6563746564000000000000000000604082015260600190565b6020808252601590820152744f6e6c7920666f72206469737472696275746f722160581b604082015260600190565b604051601f8201601f191681016001600160401b03811182821017156156ae576156ae615844565b604052919050565b60006001600160401b038211156156cf576156cf615844565b5060051b60200190565b60006001600160401b038211156156f2576156f2615844565b50601f01601f191660200190565b600082198211156157135761571361582e565b500190565b60008261573357634e487b7160e01b81526012600452602481fd5b500490565b60008160001904831182151516156157525761575261582e565b500290565b6000828210156157695761576961582e565b500390565b600060ff821660ff8416808210156157885761578861582e565b90039392505050565b60005b838110156157ac578181015183820152602001615794565b838111156157bb576000848401525b50505050565b6000816157d0576157d061582e565b506000190190565b600181811c908216806157ec57607f821691505b6020821081141561580d57634e487b7160e01b600052602260045260246000fd5b50919050565b60006000198214156158275761582761582e565b5060010190565b634e487b7160e01b600052601160045260246000fd5b634e487b7160e01b600052604160045260246000fd5b8015158114612b0c57600080fdfeaf290d8680820aad922855f39b306097b20e28774d6c1ad35a20325630c3a02ca2646970667358221220ed37e95f082aa316b4faeff1b6a42eae9c09079ef7c014851ff528f0a882ee8164736f6c63430008040033",
    "linkReferences": {}
  },
  "methodIdentifiers": {
    "DAPPS_STAKING()": "59b40f41",
    "DEFAULT_ADMIN_ROLE()": "a217fddf",
    "DNTname()": "40bf8a8d",
    "MANAGEMENT_FEE()": "5f1554e3",
    "MANAGER()": "1b2df850",
    "REVENUE_FEE()": "4421bd1e",
    "REWARDS_PRECISION()": "86b3cd26",
    "UNSTAKING_FEE()": "59601ebc",
    "accumulatedRewardsPerShare(uint256)": "a2ce0f4a",
    "adaptersDistr()": "e2e836f8",
    "addPartner(address)": "8bf34237",
    "addStaker(address,string)": "e932b37b",
    "buffer(address,uint256)": "54b057f9",
    "claim(string[],uint256[])": "1f19014b",
    "claimAll()": "d1058e59",
    "claimingTxLimit()": "00179fbd",
    "currentEra()": "973628f6",
    "dapps(string)": "dcf425df",
    "dappsList(uint256)": "da3bc958",
    "deactivationEra(string)": "2a14d8f4",
    "distr()": "6bbea766",
    "dntToken()": "05e2a217",
    "eraBuffer(uint256)": "c21a7276",
    "eraRevenue(uint256)": "eb51a44c",
    "eraRewards(uint256)": "1dc00785",
    "eraShotsLimit()": "f128f631",
    "eraStakerReward(uint256)": "2ea31bf6",
    "eraUnstaked(uint256)": "c4e137e7",
    "getRoleAdmin(bytes32)": "248a9ca3",
    "grantRole(bytes32,address)": "2f2ff15d",
    "hasRole(bytes32,address)": "91d14854",
    "haveUtility(string)": "6f68f2e9",
    "isActive(string)": "c8902a21",
    "isLpToken(address)": "0f24ca7d",
    "isPartner(address)": "8c0f9aac",
    "isStaker(address)": "6f1e8533",
    "isUnstakes()": "2e4a4a17",
    "lastClaimed()": "adc1b956",
    "lastEraTotalBalance()": "e77ee345",
    "lastStaked()": "12a12a06",
    "lastUnstaked()": "5495ec81",
    "lastUpdated()": "d0b06f5d",
    "liquidStakingManager()": "5ca5914e",
    "lpHandlers(address)": "e09c1954",
    "lpTokens(uint256)": "1bb5e2dc",
    "minStakeAmount()": "f1887684",
    "nftDistr()": "bd1bbd3b",
    "partnerIdx(address)": "a5ae02ac",
    "partners(uint256)": "c3b49d04",
    "partnersLimit()": "4d617451",
    "paused()": "5c975abb",
    "previewUserRewards(string,address)": "b8d7cac9",
    "renounceRole(bytes32,address)": "36568abe",
    "revokeRole(bytes32,address)": "d547741f",
    "rewardPool()": "66666aa9",
    "setFreeDest()": "d78cfe06",
    "stake(string[],uint256[])": "a22eae1b",
    "stakers(uint256)": "fd5e6dd1",
    "stakes(address)": "16934fc4",
    "sum2unstake()": "af66c36b",
    "supportsInterface(bytes4)": "01ffc9a7",
    "sync(uint256)": "b1357bf9",
    "syncHarvest(address,string[])": "12b3b4e6",
    "totalBalance()": "ad7a672f",
    "totalRevenue()": "bf2d9e0b",
    "totalUserRewards(address)": "a44bca8e",
    "unbondedPool()": "c71367b5",
    "unstake(string[],uint256[],bool)": "24f0f548",
    "unstakingPool()": "6f5e4488",
    "update()": "a2e62045",
    "updateUserBalanceInAdapter(string,address)": "c78731dc",
    "updateUserBalanceInUtility(string,address)": "386df6eb",
    "usersShotsPerEra(address,uint256,uint256)": "d6356ff4",
    "utilName()": "ab486929",
    "withdraw(uint256)": "2e1a7d4d",
    "withdrawBlock()": "24025b19",
    "withdrawals(address,uint256)": "422b1077"
  },
  "id": 1
}