{
  "abi": [
    {
      "inputs": [
        {
          "internalType": "contract MockArthswapRouter",
          "name": "_pool",
          "type": "address"
        }
      ],
      "stateMutability": "nonpayable",
      "type": "constructor"
    },
    {
      "inputs": [],
      "name": "getReserves",
      "outputs": [
        {
          "internalType": "uint112",
          "name": "reserve0",
          "type": "uint112"
        },
        {
          "internalType": "uint112",
          "name": "reserve1",
          "type": "uint112"
        },
        {
          "internalType": "uint32",
          "name": "blockTimestampLast",
          "type": "uint32"
        }
      ],
      "stateMutability": "view",
      "type": "function"
    },
    {
      "inputs": [],
      "name": "pool",
      "outputs": [
        {
          "internalType": "contract MockArthswapRouter",
          "name": "",
          "type": "address"
        }
      ],
      "stateMutability": "view",
      "type": "function"
    }
  ],
  "bytecode": {
    "object": "0x608060405234801561001057600080fd5b5060405161029e38038061029e83398101604081905261002f91610054565b600080546001600160a01b0319166001600160a01b0392909216919091179055610082565b600060208284031215610065578081fd5b81516001600160a01b038116811461007b578182fd5b9392505050565b61020d806100916000396000f3fe608060405234801561001057600080fd5b50600436106100365760003560e01c80630902f1ac1461003b57806316f0115b1461007b575b600080fd5b6100436100a6565b604080516dffffffffffffffffffffffffffff948516815293909216602084015263ffffffff16908201526060015b60405180910390f35b60005461008e906001600160a01b031681565b6040516001600160a01b039091168152602001610072565b60008060008060009054906101000a90046001600160a01b03166001600160a01b0316635d8de3166040518163ffffffff1660e01b815260040160206040518083038186803b1580156100f857600080fd5b505afa15801561010c573d6000803e3d6000fd5b505050506040513d601f19601f8201168201806040525081019061013091906101bf565b925060008054906101000a90046001600160a01b03166001600160a01b0316634a6846ec6040518163ffffffff1660e01b815260040160206040518083038186803b15801561017e57600080fd5b505afa158015610192573d6000803e3d6000fd5b505050506040513d601f19601f820116820180604052508101906101b691906101bf565b92934292509050565b6000602082840312156101d0578081fd5b505191905056fea2646970667358221220c308a96eecf7e484dd4dfb6d84aa0717f146ac74a945c4e53ef04ebc96f5c6ea64736f6c63430008040033",
    "linkReferences": {}
  },
  "methodIdentifiers": {
    "getReserves()": "0902f1ac",
    "pool()": "16f0115b"
  },
  "id": 20
}