{
  "abi": [
    {
      "inputs": [
        {
          "internalType": "contract MockArthswapRouter",
          "name": "_pool",
          "type": "address"
        },
        {
          "internalType": "contract MockERC20",
          "name": "_lp",
          "type": "address"
        }
      ],
      "stateMutability": "nonpayable",
      "type": "constructor"
    },
    {
      "inputs": [],
      "name": "getReserves",
      "outputs": [
        {
          "internalType": "uint112",
          "name": "reserve0",
          "type": "uint112"
        },
        {
          "internalType": "uint112",
          "name": "reserve1",
          "type": "uint112"
        },
        {
          "internalType": "uint32",
          "name": "blockTimestampLast",
          "type": "uint32"
        }
      ],
      "stateMutability": "view",
      "type": "function"
    },
    {
      "inputs": [],
      "name": "lp",
      "outputs": [
        {
          "internalType": "contract MockERC20",
          "name": "",
          "type": "address"
        }
      ],
      "stateMutability": "view",
      "type": "function"
    },
    {
      "inputs": [],
      "name": "pool",
      "outputs": [
        {
          "internalType": "contract MockArthswapRouter",
          "name": "",
          "type": "address"
        }
      ],
      "stateMutability": "view",
      "type": "function"
    },
    {
      "inputs": [],
      "name": "totalSupply",
      "outputs": [
        {
          "internalType": "uint256",
          "name": "",
          "type": "uint256"
        }
      ],
      "stateMutability": "view",
      "type": "function"
    }
  ],
  "bytecode": {
    "object": "0x608060405234801561001057600080fd5b5060405161038e38038061038e83398101604081905261002f91610060565b600080546001600160a01b039384166001600160a01b031991821617909155600180549290931691161790556100b1565b60008060408385031215610072578182fd5b825161007d81610099565b602084015190925061008e81610099565b809150509250929050565b6001600160a01b03811681146100ae57600080fd5b50565b6102ce806100c06000396000f3fe608060405234801561001057600080fd5b506004361061004c5760003560e01c80630902f1ac1461005157806316f0115b1461009157806318160ddd146100bc578063313c06a0146100d2575b600080fd5b6100596100e5565b604080516dffffffffffffffffffffffffffff948516815293909216602084015263ffffffff16908201526060015b60405180910390f35b6000546100a4906001600160a01b031681565b6040516001600160a01b039091168152602001610088565b6100c46101fe565b604051908152602001610088565b6001546100a4906001600160a01b031681565b60008060008060009054906101000a90046001600160a01b03166001600160a01b0316635d8de3166040518163ffffffff1660e01b815260040160206040518083038186803b15801561013757600080fd5b505afa15801561014b573d6000803e3d6000fd5b505050506040513d601f19601f8201168201806040525081019061016f9190610280565b925060008054906101000a90046001600160a01b03166001600160a01b0316634a6846ec6040518163ffffffff1660e01b815260040160206040518083038186803b1580156101bd57600080fd5b505afa1580156101d1573d6000803e3d6000fd5b505050506040513d601f19601f820116820180604052508101906101f59190610280565b92934292509050565b600154604080516318160ddd60e01b815290516000926001600160a01b0316916318160ddd916004808301926020929190829003018186803b15801561024357600080fd5b505afa158015610257573d6000803e3d6000fd5b505050506040513d601f19601f8201168201806040525081019061027b9190610280565b905090565b600060208284031215610291578081fd5b505191905056fea264697066735822122071686ff11a00a2939fbf34677ea328c876d363ada77f51c5bc03cc2c88bd978664736f6c63430008040033",
    "linkReferences": {}
  },
  "methodIdentifiers": {
    "getReserves()": "0902f1ac",
    "lp()": "313c06a0",
    "pool()": "16f0115b",
    "totalSupply()": "18160ddd"
  },
  "id": 42
}